:100000000C9403030C944A030C944A030C94732A33
:100010000C944A030C944A030C944A030C944A032C
:100020000C944A030C944A030C94E4210C94A021F0
:100030000C94DF220C944A030C944A030C944A0358
:100040000C944A030C944A030C944A030C944A03FC
:100050000C944A030C94BB220C944A030C944A035C
:100060000C944A030C944A030C944A030C944A03DC
:100070000C944A030C944A030C944A030C944A03CC
:100080000C944A030C944A030C944A030C944A03BC
:100090000C944A030C944A030C944A030C944A03AC
:1000A0000C944A030C944A030C944A030501090278
:1000B000A10185020901A1000509190129081500FE
:1000C0002501950875018102050109300931158165
:1000D000257F95027508810609381581257F9501D0
:1000E00075088106050C0A38021581257F95017572
:1000F000088106C0C005010980A101850319012AF4
:10010000B700150126B700950175108100C0050CD8
:100110000901A101850419012AA002150126A002E6
:10012000950175108100C00660FF0961A101096297
:10013000150026FF00952075088102096315002629
:10014000FF00952075089102C005010906A101056F
:100150000719E029E7150025019508750181029529
:1001600001750881010507190029FF150026FF0008
:100170009506750881000508190129059505750181
:100180009102950175039101C0000000000000007C
:10019000000000000000000000000000000000005F
:1001A000000000000000000000000000007E0F00C2
:1001B000D4FFFFFFC700000078000000000000002F
:1001C000002A2B28000000000000000000000000B2
:1001D0000000000029000000002C1E3420212224F1
:1001E000342627252E362D3738271E1F202122237F
:1001F0002425263333362E37381F04050607080911
:100200000A0B0C0D0E0F10111213141516171819D6
:100210001A1B1C1D2F3130232D3504050607080934
:100220000A0B0C0D0E0F10111213141516171819B6
:100230001A1B1C1D2F3130354C635D6F5D7B5D8754
:100240005D935D685D745D805D8C5D985D6A5D76D3
:100250005D825D8E5D9A5D6D5D795D855D915D9D73
:100260005D655D715D7D5D895D955D665D725D7EDF
:100270005D8A5D965D6C5D785D845D905D9C5D6B77
:100280005D775D835D8F5D9B5D675D735D7F5D8B7E
:100290005D975D645D705D7C5D885D945D625D6EA3
:1002A0005D7A5D865D925D695D755D815D8D5D994F
:1002B0005D4F5C525C555C585C5B5C5E5C615C00F5
:1002C00000AA00A9004E5C515C545C575C5A5C5D0E
:1002D0005C605C0000000000004D5C505C535C56AC
:1002E0005C595C5C5C5F5C0000000000000000A8E2
:1002F00042705C6D5C6A5C675C645C0000000000DE
:10030000000000725C6F5C6C5C695C665C635C0046
:1003100000000000000000715C6E5C6B5C685C6556
:100320005C625C000000000000165C2B003900E1FC
:1003300000E0002A004C002800E500E4001E001444
:100340000004001D00E3002700130033003800E71D
:10035000001F001A0016001B00E200260012000F0A
:10036000003700E600200008000700060091002585
:10037000000C000E00360090002100150009001945
:10038000002C00240018000D0010002C0022001783
:10039000000A0005002C0023001C000B0011002C9B
:1003A0000014001A000800150017001C00180000B7
:1003B0000001000100E00004001600070009000A27
:1003C000000B00000000000000165CE2001D001B96
:1003D00000060019000500000000000000000001F8
:1003E000002A002D00130012000C00000000000085
:1003F0000000002800340033000F000E000D000044
:1004000000000000000000E5002C0037003600105E
:100410000011000000000000000052015200000026
:1004200000000000000000000000000000000000CC
:1004300000000000000000000000000000000000BC
:1004400000000000000000000000000000000000AC
:10045000000000000000000000000000000000009C
:10046000000000000000000000000000000000008C
:10047000000000000000000000000000000000007C
:10048000000000000000000000000000000000006C
:10049000000000000000000000000000000000005C
:1004A00000000000000052000000000000000000FA
:1004B00000000000000000000001000152000000E8
:1004C000000000000000000000000000000000012B
:1004D000000000000000000000000000000000001C
:1004E000000000000000000000000000000000000C
:1004F00000000000000000000000000000000000FC
:100500000000000000000000000902BF000501001B
:10051000A0FA0904000001030101000921110100F2
:10052000012240000705810308000A0904010002B6
:1005300003000000092111010001222200070582A9
:100540000320000107050303200001090402000144
:1005500003000000092111010001227B000705842E
:100560000320000A080B0302010100000904030034
:10057000000101000009240100010900010409042F
:1005800004000201030000072401000141000624C9
:1005900002010100062402020200092403010301F2
:1005A00002010009240302040101010009050602F9
:1005B00040000500000525010101090585024000F4
:1005C00005000005250101031201000200000008DA
:1005D000EDFEB0F40100010200011603670069009E
:1005E0006100620061006C0061006E0061006900E2
:1005F00000000E03330061007200610068007400A7
:1006000000000403090411241FBECFEFDAE0DEBFAF
:10061000CDBF04B603FE27C080918A0490918B045D
:10062000A0918C04B0918D048730904BA740B04BC3
:10063000D1F410928A0410928B0410928C041092C0
:100640008D0414BE84B7877F84BF0FB6F894A89535
:1006500080916000886180936000109260000FBEFE
:10066000E0E0F8E3099511E0A0E0B1E0E6E6F9E5A5
:1006700002C005900D92A63DB107D9F724E0A6ED82
:10068000B1E001C01D92AA38B207E1F70E9406232B
:100690000C947A2C0C9400000F93262F2F778F70D8
:1006A0008068E0919D03F0919E03042F482F63E042
:1006B00070E08DE993E009950F9108950F93262F2F
:1006C0002F778F708069E0919D03F0919E03042F36
:1006D000482F63E070E08DE993E009950F9108954C
:1006E000AF92BF92CF92EF920F931F93CF93DF936E
:1006F000182FD0919A03DF7750E0CA01835A9C4F9C
:100700005C01FC01C081FB018281882369F1CF3F3C
:1007100011F5C09199039C2F9F70C595C595C595FE
:10072000C595CF52FCE09F9FC00D1124C20F602FD2
:100730006C0F4D2F812F0E945E036E2D6C0F4D2F7D
:10074000812F0E945E036C2D6C0F4D2F812F0E9414
:100750005E03F501C083DF91CF911F910F91EF9060
:10076000CF90BF90AF900895CF3F91F0602F6C0F66
:100770004D2F812F0E944C036E2D6C0F4D2F812F1A
:100780000E944C036C2D6C0F4D2F812F0E944C0347
:100790008FEFF5018083DFCF0F931F939B01305EB6
:1007A0008901000F012F001F110B11952F77482F82
:1007B000406EE0919D03F0919E0363E070E08DE94F
:1007C00093E009951F910F9108950F93262F042F01
:1007D0000F77482F406BE0919D03F0919E0363E0FB
:1007E00070E08DE993E009950F910895CF92DF9223
:1007F000EF92FF920F931F93CF93DF9300D00F924E
:10080000CDB7DEB77C01162FD42EC22E8091C20345
:100810008430B9F5E091B703F091B803309709F44B
:1008200040C0C701019763E070E00E94ED2BCB014F
:10083000880F991F860F971F19834A83CB824E2DED
:10084000481B9E012F5F3F4FBC018DE993E0099546
:10085000E091BB03F091BC03309739F00C2D2D2DA6
:10086000412FB7018DE993E009950F900F900F90FC
:10087000DF91CF911F910F91FF90EF90DF90CF907C
:10088000089582E0E816F10409F45AC083E0E816FE
:10089000F104A9F081E0E816F10409F484C0F12C18
:1008A000E12CE091B903F091BA03309789F20C2D55
:1008B0002D2D412FB7018DE993E00995C9CF862FE2
:1008C000807F803A11F188F48038D1F0E091A10363
:1008D000F091A203803929F7309719F3123F49F1BB
:1008E0002C2D4D2D612F6F7027C0803E99F0803FD9
:1008F000B1F0E0919F03F091A003803B91F6ECCF23
:10090000E091A303F091A403E7CFE091A503F09158
:10091000A603E2CFE091A703F091A803DDCF623FE9
:1009200009F0BFCFE091A903F091AA03309709F431
:10093000B8CF2C2D4D2D62EF8DE993E0099588CF2E
:10094000862F807F803DB9F0803FD1F0E091AB03EE
:10095000F091AC03803C09F0A4CF309709F4A1CF0B
:10096000812F8D7F4D2D612F6F70813FC9F08DE9F3
:1009700093E009956DCFE091AD03F091AE03EDCF1B
:10098000E091AF03F091B003633F39F0613F09F0AC
:1009900088CFE091B103F091B203309709F481CF91
:1009A0004D2D612FE4CFE091B303F091B403683F84
:1009B00038F4663F09F075CFE091B503F091B603C6
:1009C000309709F46ECF612F8DE993E0099540CF00
:1009D000E8EDF0E080818E7F80831092E20010923B
:1009E000DA001092E100A0EEB0E08C9181608C936F
:1009F00080818F77808319BCA7EDB0E08C918E7FCA
:100A00008C9380818F7E8083109242030895209181
:100A1000E4003091E50095E6A9012091EC00822FD9
:100A2000817020FF06C08091E80080FF06C080E052
:100A300008952091E80022FD1AC080914F03882379
:100A400089F0853089F08091EB0085FD0FC0209101
:100A5000E4003091E50042175307F9F29150E1F6B6
:100A600084E0089582E0089583E0089581E0089588
:100A7000EF92FF920F931F93CF937C018B010E9403
:100A80000705C82F811117C08091E80085FD0BC0B4
:100A90008091E8008E778093E8000E940705882304
:100AA00099F3C82F08C0F70181917F018093F1006D
:100AB0000150110949F78C2FCF911F910F91FF9091
:100AC000EF900895EF92FF920F931F93CF937C01C5
:100AD0008B010E940705C82F811117C08091E80083
:100AE00085FD0BC08091E8008B778093E8000E9421
:100AF0000705882399F3C82F08C08091F100F701FA
:100B000081937F010150110949F78C2FCF911F91DB
:100B10000F91FF90EF9008958091510387FF13C0CC
:100B20008091E80082FF06C08091E8008B77809377
:100B3000E80004C080914F038111F2CF08958091A5
:100B40004F038823D9F38091E80080FFF8CF80918C
:100B5000E8008E77ECCF982F9093E900242F762F22
:100B600050E0891731F07091EC002091ED00509128
:100B7000F00021FD07C09F5F973071F78093E90077
:100B800081E008953091EB003E7F3093EB0030918F
:100B9000ED003D7F3093ED003091EB0031603093FC
:100BA000EB007093EC002093ED005093F000209147
:100BB000EE0027FDE0CF80E00895CF92DF92EF9224
:100BC000FF920F931F93CF93DF93C8EDD0E08881FE
:100BD0008F7E8883E7EDF0E080818160808384E010
:100BE00082BF81E08093420388818E7F888302EEFA
:100BF00010E0F80110821092DA0081EEC82ED12C9C
:100C0000F601108288818F77888388818068888345
:100C100088818F7D888319BC10924F0310925003F6
:100C200010924E0310924D0390EEE92EF12CF70135
:100C300080818B7F808388818160888342E060E04F
:100C400080E00E94AB05F60180818E7F8083F801F1
:100C5000808181608083808188608083F7018081CA
:100C60008E7F8083888180618883DF91CF911F91FF
:100C70000F91FF90EF90DF90CF900895FC0180914D
:100C800057039091580386179707A0F061157105D7
:100C900029F49091E8009E779093E80090E0611528
:100CA000710551F4911108C08091E80082FF34C0B1
:100CB00080E00895BC01F2CF80914F038823C1F1F9
:100CC0008530C1F18091E80083FD30C08091E8005B
:100CD00082FDEACF8091E80080FFE1CF8091F300B0
:100CE0002091F200382F6115710519F02830310577
:100CF00058F091E02830310509F090E02091E800AB
:100D00002E772093E800CBCF81918093F100615042
:100D100071092F5F3F4FE7CF80914F03882341F048
:100D2000853041F08091E80083FFBECF81E00895D7
:100D300082E0089583E00895809144030895089522
:100D40000895982F907F903BE9F040F49039D1F0CE
:100D5000903AC1F09038B1F080E00895903D19F0DC
:100D600020F4903CC9F782E00895903E59F0903FFE
:100D700099F7815F8F3080F7E82FF0E0E954FE4F5C
:100D80008081089583E00895FF920F931F93CF937E
:100D9000DF9300D000D000D00F92CDB7DEB78C012A
:100DA00008511F4F80914F03843009F06CC080912F
:100DB0005B018F708093E9008091E80082FF63C03F
:100DC0008091E80085FF5FC050E040E064E070E0A3
:100DD000CE0101960E9462058091E80085FD05C064
:100DE0008091E8008B778093E800FA808F2D0E9435
:100DF000A106282FFD828B818E838C818F83211108
:100E00000AC08981843039F1873029F1863029F18F
:100E100021E0853039F630E0E5E0F0E0EC0FFD1F31
:100E2000E30FF11DF0804FB7F894D8011196EC91C3
:100E30001197F0E0CF01019612966C9170E00E943C
:100E4000012CD8015C915817190649F44FBF3F5F38
:100E5000321710F3A7CF23E0DECF22E0DCCF1396CA
:100E60008D919C911497E80FF91FF08211968C9147
:100E7000119790E0019612966C9170E00E94012CFF
:100E8000F8018183E3CF27960FB6F894DEBF0FBE3B
:100E9000CDBFDF91CF911F910F91FF900895DF9209
:100EA000EF92FF920F931F93CF93DF9300D000D068
:100EB000CDB7DEB77B01142FD22E4A832B830C8350
:100EC000842F0E94A106811141C082E0E816F1043E
:100ED000C1F183E0E816F10439F0EA94EF2829F52E
:100EE000173F29F485E004C087E0073F09F084E05C
:100EF000898380914F038430C1F4809156018F70B3
:100F00008093E90050E040E064E070E0CE0101969B
:100F10000E943805811109C08091E80085FD05C057
:100F20008091E8008E778093E8000F900F900F90EB
:100F30000F90DF91CF911F910F91FF90EF90DF9075
:100F4000089587EFD812D3CF86E0D2CF12951F70C5
:100F50001983CFCF87E797E7909301088093000824
:100F600088E19AE00FB6F894A895809360000FBED0
:100F700090936000FFCF9C014FB7F89480913B03A2
:100F800090913C03A0913D03B0913E034FBF821B63
:100F9000930B08952FB7F89460913B0370913C0335
:100FA00080913D0390913E032FBF08952FB7F89491
:100FB00080913B0390913C03A0913D03B0913E038F
:100FC0002FBF08959C01FC0132969FEF80E0419174
:100FD000461751F09F3F19F4411101C0982F8F5FC0
:100FE0008630A9F79F3F09F40895290F311D97FD19
:100FF0003A95F901628308952091380330913903BD
:101000002817390771F09093390380933803E091E2
:101010003603F0913703309721F00084F185E02DFD
:101020000994089520913403309135032817390726
:1010300071F09093350380933403E0913603F0917F
:101040003703309721F00680F781E02D0994089549
:10105000FC01680F791F8FEF91E32191822728E02F
:1010600030E087FF09C0880F892721503109C9F76F
:10107000E617F70791F70895880FF7CF0E94D60774
:101080009C019091300380913103982B21F0309393
:101090002D0320932C039091320380913303982BDE
:1010A00021F030932B0320932A03E0913603F09133
:1010B0003703309749F082E080932E030480F58156
:1010C000E02D8EE293E00994089540913003803F33
:1010D00059F48091310387FF0DC010923103411103
:1010E0000BC01092280308C0813F81F48091310326
:1010F00018169CF3442381F08091320390913303BE
:10110000892B09F05AC0109227030895823F49F4B1
:1011100047FFF0CF10923003809131038111ECCF63
:10112000E0CF833F19F41416ACF3E4CF909132036F
:10113000893F29F41916F4F610923203DBCF8A3F67
:1011400019F497FFD7CFF8CF909133038B3F29F451
:1011500097FFD0CF10923303CDCF8C3F19F41916DF
:10116000CCF3C8CF9CE0980F953090F4845F990B36
:1011700021E030E0B90102C0660F771F8A95E2F7DF
:10118000CB01809590912F03892380932F03B2CFB9
:101190008D3F31F4809129038E7F80932903AACF5C
:1011A0008E3F21F4809129038D7FF7CF8F3F09F087
:1011B000A1CF809129038B7FF0CF089580912903DF
:1011C00080FD16C081FD16C082FD16C080912703E8
:1011D0008823A1F0883280F428E0829FC001112486
:1011E00068E270E00E94012C862F672B39F0089589
:1011F00082E0089584E0089588E0089581E00895EC
:101200008091290380FD14C081FD14C082FD16C0A9
:1012100080912803882381F0843180F422E3829F27
:10122000C001112464E170E00E94012C862F089512
:101230008CE0089589E1089585E0089582E308959A
:10124000803F31F40E940009819580933103089515
:10125000813F19F40E940009F8CF823F31F40E94C7
:1012600000098195809330030895833F19F40E940B
:101270000009F8CF893F29F40E94DE0880933203E9
:1012800008958A3F21F40E94DE088195F7CF8B3FB5
:1012900031F40E94DE0881958093330308958C3FDA
:1012A00019F40E94DE08F8CF9CE0980F953070F496
:1012B000845F990B21E030E001C0220F8A95EAF7A4
:1012C00080912F03822B80932F0308958D3F31F45B
:1012D0008091290381608093290308958E3F21F432
:1012E000809129038260F7CF8F3FB9F7809129035E
:1012F0008460F1CF80E0089578940895F894E82F01
:10130000E295EF70F0E031A1282F2F7081E090E09E
:1013100001C0880F2A95EAF7982F9095932391A3FF
:1013200092A1892B82A30C947C099091CF0292FF09
:1013300006C0282F28712830F9F4877F846093FF36
:1013400006C0282F28712831F1F4877E846120910E
:10135000D00220FF06C0382F38713830D9F4877F8B
:10136000816021FF06C0282F28712831D1F4877EA3
:10137000816194FD877E0895282F24712430F9F629
:101380008B7F8860DCCF282F2471243101F78B7E7E
:101390008861DDCF382F3171313019F78E7F886049
:1013A000E0CF282F2171213121F78E7E8861E1CF96
:1013B000CF93DF93EC018238910581F1B0F5813351
:1013C000910509F491C020F58932910509F485C091
:1013D0008A9709F490C0C11520E5D20708F0A7C08C
:1013E000C11530E4D30708F0F6C0CF3BD10508F0B3
:1013F00089C0C83AD10508F0E1C0C53AD10508F066
:10140000D5C0C430D105F8F4C130D105E1F040C0F9
:101410008533910509F45AC0C997E9F68091CF0246
:10142000837089F0C0EED0E00EC0833E910599F143
:1014300070F4803E910501F1823E910561F6809144
:10144000CF0282FD21C0CE01DF91CF910895863E6B
:10145000910561F1873E910571F1843E910509F096
:10146000BACF8091D00281FFEECF8091CF02C7EE3C
:10147000D0E084FD0DC0E7CF8091CF0280FDFEC09B
:101480009091D00290FFDFCFC3EED0E084FFDBCF9E
:10149000D0E0C0E0D8CF8091CF0282FDF2C0909121
:1014A000D00290FDBFCF84FFCECFF2CF8091CF028C
:1014B00083FDDDCFC8CF8091CF0283FDE5C0909141
:1014C000D00291FFF0CFC4EED0E0BDCF8091CF022B
:1014D00085FFB9CFC9E2D0E0B6CF8091CF0285FFBA
:1014E000B2CFC5E3D0E0AFCF8091CF0286FFABCFC4
:1014F000CAE2D0E0A8CF8091CF0286FFA4CFC1E39B
:10150000D0E0A1CFCF3FD10509F058F4C03FD105BD
:1015100008F05FC0CE01815E9109079708F493CF70
:10152000B7CFC11540E2D40708F48DCFB1CFC115B4
:1015300084E5D807A0F4C11593E5D90708F07CC06D
:10154000C11522E5D20708F066C0C11531E5D30701
:1015500008F444C0DC2FCC27C16FD06A74CFC1150A
:101560004AE5D40778F4C11589E5D80708F078C0B2
:10157000C11598E5D90708F48BCFDC2FCC27C06FB5
:10158000D06A61CFCE0190568115904208F080CF8D
:101590008D2F8F710E94950990E0982F88278827BA
:1015A0009F719C012C2BE901D0624DCFC55AD0E030
:1015B000C459DE4FC881D0E0D06445CFC85AD0E0CE
:1015C000CC0FDD1FC159DE4F0990D881C02DD464E6
:1015D0003ACFD06538CFDF70D06A35CFCE0164E026
:1015E000969587956A95E1F783702C2F2695269519
:1015F000237040E2249F90011124382B8C2F83709C
:10160000C1E0D0E002C0CC0FDD1F8A95E2F7C22B0B
:10161000D32BDC6818CFCE018370992721E030E00E
:1016200002C0220F331F8A95E2F7C695C69580E265
:10163000C89FE0011124EBCFCE018370992721E0F0
:1016400030E002C0220F331F8A95E2F7C695C69597
:1016500090E2C99FE0011124C22BD32BDA68F3CEAC
:101660008C2F8F700E94950934E0D695C7953A95D6
:10167000E1F7CF709C2FEC01D069E5CEC9E3D0E053
:10168000E2CEC2EED0E0DFCEC6EED0E0DCCE0C94EF
:10169000CA078091490290914802892B9091470294
:1016A000892B8093D801E0913603F091370330976E
:1016B00031F00280F381E02D88ED91E009940895E6
:1016C0008091460290911502981301C008958F5F92
:1016D0008770FACF2AE0929F800D1124982F97707F
:1016E00086958695869523E0829FF0011124EE5120
:1016F000FE4F50E040E080E0219130E0092E02C032
:10170000369527950A94E2F721703327042E01C0FD
:10171000220F0A94EAF7822B4F5F5F4F4330510547
:1017200059F708952AE0929F800D1124982F977001
:1017300041E001C0440F9A95EAF786958695869513
:1017400093E0899FF0011124EE51FE4F90E080E07C
:1017500070E05191DF0111979B01082E02C0369570
:1017600027950A94E2F72170219525272423252720
:101770002C9301968330910561F7089590E080E005
:101780000E94120890E080E00E94FC07109248023C
:10179000109247020E94490B86E0EEE2F3E0DF017F
:1017A0001D928A95E9F71092280310922703109250
:1017B00029030C943E08809359030C94BE0B80912E
:1017C0005903982F9670963019F488600C94DB0BAF
:1017D000877FFCCF21E030E001C0220F8A95EAF735
:1017E00020958091590382230C94DB0B21E030E09B
:1017F00001C0220F8A95EAF780915903822B0C943D
:10180000DB0B80934A020C94BE0B882341F0809539
:10181000909149028923809349020C94490B0895C1
:10182000882339F090914902982B909349020C94A7
:10183000490B08958823F1F19CEF980F913A78F4C1
:10184000EAEDF1E020EE31E09191891303C0DF0170
:1018500011971C922E173F07B9F70C94490B90E291
:10186000980F983088F4877021E030E0A90102C019
:10187000440F551F8A95E2F7CA018095909149025D
:10188000892380934902E9CF9BE5980F933020F498
:1018900090E080E00C94120898E5980F973120F4BE
:1018A00090E080E00C94FC07803F20F00E946508E7
:1018B0000C943E080895CF93C82F882309F456C08E
:1018C0008CEF8C0F813AF8F4EAEDF1E080EE91E0D4
:1018D000DF012D91C21759F08A179B07D1F76C2FA2
:1018E00088ED91E00E94E207CF910C94490B219181
:1018F000C21303C0DF0111971C928E179F07B9F71F
:101900000E94490BECCF80E28C0F883068F4C770DE
:1019100021E030E001C0220FCA95EAF78091490228
:10192000822B80934902E0CFEBE5EC0FE33040F4EB
:10193000F0E0E459FE4F808190E0CF910C941208C2
:10194000E8E5EC0FE73150F4F0E0EE0FFF1FE1594E
:10195000FE4F80819181CF910C94FC07C03F30F005
:101960008C2F0E942009CF910C943E08CF910895AE
:1019700090914F03943029F580933F037093410376
:10198000609340039093E9008FEF9091E8008150BD
:1019900095FD06C095ED9A95F1F700008111F5CF00
:1019A0008091E80085FF0DC050E040E063E070E00A
:1019B0008FE393E00E9438058091E8008E77809352
:1019C000E8000895BC0184E00C94B80CBC0183E0ED
:1019D0000C94B80C9C0184E08093E9009FEF809107
:1019E000E800915085FD06C085ED8A95F1F700006D
:1019F0009111F5CF8091E80085FF0CC050E040E0E8
:101A000066E070E0C9010E9438058091E8008E7799
:101A10008093E8000895CF93DF93EC0181E08093F9
:101A2000E9008FEF9091E800815095FD06C095ED9B
:101A30009A95F1F700008111F5CF8091E80085FFBC
:101A400014C050E040E068E070E0CE010E9438052C
:101A50008091E8008E778093E80088E0FE01A5E49D
:101A6000B3E001900D928A95E1F7DF91CF9108954F
:101A70009F92AF92BF92CF92DF92EF92FF920F931D
:101A80001F93CF93DF937C015B016A0180918202F7
:101A900001E010E08A3010F40AE010E0C1E0D0E08C
:101AA000F894B501C701F6010995982E0E947C09AA
:101AB000911004C021960C171D076CF4892DDF913D
:101AC000CF911F910F91FF90EF90DF90CF90BF903B
:101AD000AF909F900895CC9F9001CD9F300D300D19
:101AE000112490E080E045E34A95F1F7000001966B
:101AF00082179307C1F7D4CF80915602811110C08D
:101B00008091D80080618093D8008AE18A95F1F7AE
:101B100000C08091D90080FF0AC081E08093560206
:101B200081E090915602913009F080E0089582E0C2
:101B3000809356020E94E80410924F03F1CF0E9456
:101B40007C0D882351F0E0913603F09137033097F4
:101B500021F00190F081E02D099480E008951F9319
:101B6000CF93DF93182FCAE0D0E0893311F4C0E59A
:101B7000D0E0812F0E945B0C8FE99FE00197F1F785
:101B800000C000002197C1F7812FDF91CF911F91F5
:101B90000C941A0C0F931F93CF93DF93C62FD42F5F
:101BA000022FFC0182818823A1F060935C030E94D4
:101BB000D60790935B0380935A03C77081E001C0FE
:101BC000880FCA95EAF7DF91CF911F910F910C947E
:101BD000100C80915C03681335C080915A0390917A
:101BE0005B030E94BB07883C910560F510E21D0F66
:101BF000CD17B9F080E28C0F883040F4C77081E0D7
:101C000001C0880FCA95EAF70E94050C183048F405
:101C100081E09D2F977001C0880F9A95EAF70E9486
:101C2000100C802F0E94AF0D183098F4D77081E00F
:101C300001C0880FDA95EAF7DF91CF911F910F91DC
:101C40000C94050CC77081E001C0880FCA95EAF7B3
:101C5000F3CFDF91CF911F910F910895CF93DF9331
:101C6000C7EFD2E060E0CE010E94462C2196C1155C
:101C700084E0D807B9F7DF91CF9108956F927F92F2
:101C80008F929F92AF92BF92CF92DF92EF92FF928C
:101C90000F931F93CF93DF9389E3C82E82E0D82E52
:101CA0009BE2E92EFF24F394E701C05FD1093601DE
:101CB0001BC0F50185909490692DC8010E94462CA7
:101CC000682DC80101960E94462C82E0A80EB11C26
:101CD0000E5F1F4FC017D10761F784E1680E711CBA
:101CE0006496CE15DF0529F08E01045111095301C8
:101CF000E0CF7E0180EFE80EF11C80EFC80ED11C12
:101D00008BEFE81683E0F80679F6DF91CF911F910B
:101D10000F91FF90EF90DF90CF90BF90AF909F908A
:101D20008F907F906F900895CF93C82F6FEF8111A0
:101D300061E283E290E00E94462C6FEFC11161E105
:101D400084E290E00E94462C6FEFC11166E285E2CA
:101D500090E0CF910C94462C80E00E94940E60E0BD
:101D600086E290E00E94462C0E943E0E0E942E0EBB
:101D700081E00C94940E0F931F93CF93DF93C42FA5
:101D8000D0E0CC0FDD1F24E1629FC00DD11D1124D6
:101D900030EF839FC00DD11D1124CE0187960E9484
:101DA000382C082F10E0102F0027CE0188960E94B3
:101DB000382C9801282BC901DF91CF911F910F91E9
:101DC0000895462F833038F47C3028F46A3018F4B4
:101DD000672F0C94BB0E90E080E00895CF92DF92C5
:101DE000FF920F931F93CF93DF936C0100915903E0
:101DF00080914A02082BC7E0D0E010E0FC2EC80119
:101E00000C2E02C0959587950A94E2F780FD0CC0D0
:101E10002197A0F7F12C8F2DDF91CF911F910F917A
:101E2000FF90DF90CF900895B6018C2F0E94E10EB5
:101E30000E94D809019761F3EECFCF93DF93EC01B5
:101E40000E94EE0EBE010E94E10EDF91CF910C9434
:101E5000D809FC01808191810E941D0F292F2F70CC
:101E600092959F7092509E3078F4E92FF0E0E458FC
:101E7000F34D0C94152C803F19F020F4883E20F48B
:101E800081E00895843FE1F380E00895883EC0F347
:101E9000813FD1F7F5CF822F869586958695089557
:101EA00083E290E00E94382C813289F484E290E051
:101EB0000E94382C813159F485E290E00E94382C40
:101EC00091E0863209F090E0892F8170089580E0DA
:101ED000FCCFCF9384E090E00E94382CC82F82E2A0
:101EE00090E00E94382C982F8C2FCF9108950F935B
:101EF0001F93CF93DF9300D000D0CDB7DEB74091D2
:101F00007E0250917F0260918002709181022FB712
:101F1000F89480913B0390913C03A0913D03B091D4
:101F20003E032FBF841B950BA60BB70B8436910580
:101F3000A105B10588F10E947C0D882379F10E94EA
:101F4000CA076E5F7F4F8F4F9F4F69837A838B8362
:101F50009C8380912B0190912C0185599D4F40913C
:101F60002A0150E04530510510F044E050E0BE0138
:101F70006F5F7F4F0E942F2C84E090E00E94392BEE
:101F8000892BD9F40E94CA0760937E0270937F0266
:101F9000809380029093810281E010C00E94CA0762
:101FA0000091CB021091CC022091CD023091CE0253
:101FB000600F711F821F931FC4CF80E00F900F909E
:101FC0000F900F90DF91CF911F910F9108956F9215
:101FD0007F928F929F92AF92BF92CF92DF92EF92B9
:101FE000FF920F931F93CF93DF930F92CDB7DEB77E
:101FF000862E5A016901682E880F7708C3010E9456
:10200000392B892B09F088C08AE0869DF001879DD5
:10201000F00D1124E050FF4F458150E0411551056E
:1020200011F041E050E08AE0869DF001879DF00DBF
:102030001124E050FF4F6681778165597D4FCE01B5
:1020400001960E942F2CF50140815181628173819C
:102050002FB7F89480913B0390913C03A0913D03EE
:10206000B0913E032FBF841B950BA60BB70B843694
:102070009105A105B10540F4B701C8010E942808E7
:102080009981891709F44FC0082C000C9908C401E4
:102090000E94392B892B91F0B12C8B2D0F90DF9161
:1020A000CF911F910F91FF90EF90DF90CF90BF9055
:1020B000AF909F908F907F906F9008958AE0889D59
:1020C000F001899DF00D1124E050FF4F458150E053
:1020D000E416F50608F4A7018AE0889DF001899DC1
:1020E000F00D1124E050FF4F6681778165597D4FD7
:1020F000C6010E942F2CB701C8010E9428089981AF
:102100008913CACF0E94CA07F50160837183828355
:102110009383BB24B394C1CFB12CA701B801C601EE
:102120000E942F2CBACFBB24B394F7CFCF92DF926B
:10213000EF92FF920F931F93CF93DF93CDB7DEB74C
:102140002C970FB6F894DEBF0FBECDBF6B018CE0AD
:10215000E82EF12C0CE612E09E012F5F3F4F43E684
:1021600052E061E080E00E94E70F882349F09CE0A4
:10217000FE013196A7E5B2E001900D929A95E1F744
:102180009CE0E7E5F2E0D60101900D929A95E1F727
:102190002C960FB6F894DEBF0FBECDBFDF91CF9166
:1021A0001F910F91FF90EF90DF90CF90089569EE0F
:1021B0007EEF90E080E00E94642C60E082E090E09E
:1021C0000E94462C60E083E090E00E94462C109232
:1021D0004A0260E084E090E00E94462C60E082E2E7
:1021E00090E00E94462C60E085E090E00E94462C42
:1021F00060E086E090E00E94462C6FEF87E090E080
:102200000E94462C40E050E0BA0188E090E00E9435
:10221000582C60E08DE090E00E94462C40E050E0B9
:10222000BA0188E190E00E94582C60E087E190E0DC
:102230000E94462C40E050E0BA018CE190E00E9400
:10224000582C70E060E080E290E00E94642C40E056
:1022500050E0BA0188E190E00E94582C80E00E9492
:10226000940E0E94AC0E40E050E0BA018FE090E086
:102270000E94582C40E050E0BA0183E190E00C94B9
:10228000582C10924902EAEDF1E086E0DF011D9240
:102290008A95E9F70C94BE0B1F93CF93DF93CDB7CC
:1022A000DEB7AA970FB6F894DEBF0FBECDBF81E5AB
:1022B00093E02091F100DC012D93CD01B3E089354D
:1022C0009B07B9F780915203833009F471C0B8F4C9
:1022D000813009F448C0823009F4B2C08091E8002E
:1022E00083FF3AC180915103909152039A3008F0D4
:1022F00033C1E92FF0E0E657F34D0C94152C8A30EA
:1023000009F48DC08B3009F470C0893039F78091A1
:102310005103813219F7809155039091560300972C
:1023200011F00297D9F68091E800877F8093E8004A
:102330008091E80082FF37C09091F3008091F20015
:10234000029729F48091F1008B7F813021F48091F4
:10235000F100809344038091E8008B778093E8003C
:102360000E948C05BBCF80915103813A09F0B6CF12
:102370008091E800877F8093E800809155039091D9
:102380005603892B61F468E085E493E070E00E94D5
:102390003E068091E8008B778093E8009FCF60E055
:1023A00090E080E0F3CF80914F038111C1CF96CFB1
:1023B00080915103813A09F091CF8091550390911A
:1023C0005603892B09F08ACF8091E800877F80939C
:1023D000E8008091E80080FFFCCF8091610180934C
:1023E000F1008091E8008E77B9CF8091510381325E
:1023F00009F074CF8091550390915603892B09F011
:102400006DCF8091E800877F8093E8000E948C0563
:1024100080915303809361010E9441115FCF8091AD
:102420005103813209F05ACF8091E800877F809371
:10243000E8000E948C0580915403809343034ECFA3
:1024400080915103813A09F049CF8091E800877F5C
:102450008093E8008091E80080FFFCCF80914303E7
:10246000BECF803899F0823809F076C0809155034C
:102470008F70873008F070C08093E9008091EB0086
:1024800085FB882780F91092E90006C080914D03F2
:1024900090914E03911182609091E800977F909304
:1024A000E8008093F1001092F1008091E8008E77AF
:1024B000BFC1882309F4ACC1823009F04DC08091BE
:1024C00053038111B0C1809155038F702FEF280FF6
:1024D000263008F041C08093E9002091EB0020FFF6
:1024E000A2C1933031F48091EB0080628093EB00C5
:1024F0009AC19091EB0090619093EB0021E030E065
:1025000001C0220F8A95EAF72093EA001092EA00B0
:102510008091EB008860EACF81111EC010915303B7
:102520001F778091E3008078812B8093E300809176
:10253000E800877F8093E8000E948C058091E80086
:1025400080FFFCCF8091E30080688093E30082E00D
:10255000111183E080934F038091E80083FF0AC04C
:102560008091E800877F8093E8008091EB00806293
:102570008093EB00AA960FB6F894DEBF0FBECDBFD6
:10258000DF91CF911F9108958058823028F72091D4
:102590005303309154032C3DE3E03E07A1F583E063
:1025A0008A838AE289834FB7F894DE01139620E08C
:1025B0003EE051E2E32FF0E050935700E49120FF1A
:1025C00003C0E295EF703F5FEF708E2F90E0EA302E
:1025D000C0F0C7968D939D932F5F243159F74FBF5D
:1025E0008091E800877F8093E8006AE270E0CE0186
:1025F00001960E943E068091E8008B778093E80068
:10260000ABCFC096E7CF8091550390915603432FEF
:1026100055274330510509F44AC078F5413051053A
:1026200009F47AC08FEB90E0E9E0F5E04230510523
:1026300009F092CF2091E800277F2093E8002091B5
:102640005703309158038217930708F49C0140E028
:102650002115310509F065C0411163C08091E80082
:1026600082FDC9CF80914F03882329F2853019F26A
:102670008091E80083FFF2CFBECF4132510509F4CB
:102680003CC04232510509F067CF8330910508F014
:1026900063CFFC01EE0FFF1FE753FE4F0190F08167
:1026A000E02D8A539E4FDC018C9190E01AC03327B5
:1026B00021303105D1F02115310561F0223031058D
:1026C00009F04ACFEAEDF5E0E4918E2F90E0EAEDD3
:1026D000F5E007C0E2E0F6E0E4918E2F90E0E2E062
:1026E000F6E0009709F438CFA5CFE2EFF5E0E491EA
:1026F0008E2F90E0E2EFF5E0F4CF8330910508F003
:102700002BCF880F991FFC01E153FE4F0190F08100
:10271000E02D89E090E08ECF82E190E0E8ECF5E0FA
:1027200089CF80914F03882309F465CF853009F460
:1027300062CF8091E80083FD5ECF8091E80082FD4A
:102740008DCF8091E80080FF83CF9091F30080913E
:10275000F2002115310519F08830910550F041E063
:10276000089709F040E08091E8008E778093E800B8
:102770006FCF44914093F100319621503109019679
:10278000E8CF803809F0E8CE8091E800877F809319
:10279000E800809150038093F10087CE8111DCCE58
:1027A00010915303123008F0D7CE8091E800877F54
:1027B0008093E800109350030E948C05112311F0C0
:1027C00084E005C08091E30087FDFACF81E080932B
:1027D0004F0342E061EC81E00E94AB0542E261EC14
:1027E00084E00E94AB0542E261EC82E00E94AB050E
:1027F00042E260EC83E00E94AB0542E361E885E0E1
:102800000E94AB0542E361E886E00E94AB05A4CEDE
:1028100080915303813009F09FCE81E0933009F01D
:1028200080E080934E031092E9008091E800877F5A
:102830008093E8000E948C058FCE5F926F927F920A
:102840008F929F92AF92BF92CF92DF92EF92FF92C0
:102850000F931F93CF93DF9300D000D00F92CDB78B
:10286000DEB74C01FC0183819481892B39F0808192
:10287000918189238F3F11F00C94971C0F900F903A
:102880000F900F900F90DF91CF911F910F91FF90BC
:10289000EF90DF90CF90BF90AF909F908F907F9000
:1028A0006F905F9008950E94EE0E182F682F898117
:1028B0009A810E94920B69817A81812F0E94E10E98
:1028C0005C01F4018281882311F40C94891C950128
:1028D00022513F452031310508F0C2C78FEF93E008
:1028E0000E94382C1EEE1A0D07EFE02E02E0F02EAB
:1028F0008111C4CF111136C01C821B8266246394DF
:10290000BAE05B2E87010F5F1F4FC7010E94382C72
:1029100089831A82882309F4B1CF9FEF980F9330EF
:1029200080F58A83698232E0E30EF11CC8010E94BF
:10293000382C8B83882309F4A1CFAE014F5F5F4F02
:102940005A01F50120812223E9F2213009F058C013
:10295000918182819130B9F4F2E0AF0EB11C0E94F6
:10296000AF0D18C0E114F4E0FF0609F487CFC701EA
:102970000E94382C811101C011502FEFE21AF20A87
:10298000B9CF7801DACF923049F422E0A20EB11C1F
:102990000E945B0C2FEFA21AB20AD3CF933031F40E
:1029A00032E0A30EB11C0E941A0CF4CF943021F037
:1029B0004FEFA41AB40AEECF52E0A50EB11C30E0DE
:1029C00020E0B5016F5F7F4FF50141818053990B86
:1029D0008A30910550F021503109E0F28FE99FE0F3
:1029E0000197F1F700C00000F6CF529EF001539E10
:1029F000F00D11249C012E0F3F1F842F5B01E1CFAE
:102A0000E22FF0E0E754FE4F7490822F8695869572
:102A1000869590E0FC01E755FE4F84902770912C3D
:102A2000022E02C0959487940A94E2F7E1E08E2288
:102A30009924FC01E756FE4F049110E0022E02C0DB
:102A4000159507950A94E2F701701127FC01E757E5
:102A5000FE4FC490D12C02C0D594C7942A95E2F7BA
:102A6000F1E0CF22DD248114910419F081EE0E945F
:102A70005B0C0115110519F086EE0E945B0C872D89
:102A80000E94AF0D012B19F086EE0E941A0C8928C6
:102A900019F081EE0E941A0CCD2809F47BCF8CE24C
:102AA0005ECF81E00E94F60B03C081E00E94EA0B3A
:102AB0000F900F900F900F900F90DF91CF911F917B
:102AC0000F91FF90EF90DF90CF90BF90AF909F90CD
:102AD0008F907F906F905F900C94DF0B82E0E2CF3D
:102AE000F2E9AF16FDE5BF0608F48BC02EE9A21689
:102AF0002DE5B20608F48EC0FEEAAF16FCE5BF066F
:102B000008F009C12EE9A2162CE5B20608F0BAC2F7
:102B100030E9A3163CE5B30608F09FC043E8A416CD
:102B20004CE5B40608F05EC251E8A5165CE5B506B2
:102B300008F079C087E7A8168CE5B80608F02FC220
:102B40009FE2A9169CE5B90608F0F3C133EFA3167E
:102B50003CE5B30609F467C308F074C158EDA51647
:102B60005CE5B50609F45BC389EDA8168CE5B806EB
:102B700009F469C397EDA9169CE5B90609F070C17F
:102B800026E241EE61EEC4010F900F900F900F907E
:102B90000F90DF91CF911F910F91FF90EF90DF90F9
:102BA000CF90BF90AF909F908F907F906F905F90ED
:102BB0000C94CA0DFF1659F04E2D6F2D80E00E9427
:102BC0004C036CE06F0D4E2D80E00E944C038FEFA4
:102BD000F801808391CFE7E0CE2EF4E0EF2E00E005
:102BE000950127523140B40180E00E94700384CFE8
:102BF00067E0C62E73E0E72E00E0950123533140D5
:102C0000F2CF3AE0C32E57E0E52E04E095012F53B2
:102C10003140E9CF96E0C92E23E0E22E00E0950195
:102C20002B543140E0CFE1E8AE16ECE5BE0609F4E6
:102C3000C7C1F2E8AF16FCE5BF0609F087CFF40183
:102C40008281882309F41ACE80919903982F9F706E
:102C5000993008F013CE9F5FBFC12CE9A2162CE576
:102C6000B206D0F532E9A3163CE5B30608F0DCC1A4
:102C700040E9A4164CE5B40609F4C2C151E9A51611
:102C80005CE5B50609F062CFF4018281882309F47E
:102C9000F5CD20919903822F85958595859585950C
:102CA00086300CF0EBCD91E0980F9295907F959542
:102CB000959595959595392F3295307F2F70232BCB
:102CC0002093990318160CF0D9CD97FFD7CD829594
:102CD000807F922F9F7082C18CE9A8168CE5B80680
:102CE00009F4B6C19DE9A9169CE5B90609F02ECFF5
:102CF000F4018281882309F4C1CD80919A03982F31
:102D00009F779F3709F4BACD933708F0B9C1935F25
:102D10009F778078B3C1E4EBAE16ECE5BE0609F40C
:102D200020C208F03EC020EBA2162CE5B20609F442
:102D3000DDC1F8F44EEAA4164CE5B40609F4B7C1B7
:102D40005FEAA5165CE5B50609F000CFF4018281C3
:102D5000882309F493CD20919A03322F331F332710
:102D6000331F90919B03892F8770880F832B8F5F70
:102D7000B0C1F401228180919A0390919B03F2EB00
:102D8000AF16FCE5BF0609F4E2C108F4D6C140E085
:102D900021114FE7881F8827881F9770990F62E4D9
:102DA000B5C147EBA4164CE5B40609F4ECC1A0F498
:102DB00085EBA8168CE5B80609F4D3C196EBA916E5
:102DC0009CE5B90609F0C2CEF40182818111D9C116
:102DD0008FEF8093F20252CDE9EBAE16ECE5BE0622
:102DE00009F409C208F4F1C12AEBA2162CE5B206D7
:102DF00009F0ACCE80919A03982F991F9927991FBB
:102E000080919B038770880F892BF40192816FEF6B
:102E10007FE1992309F400C20F900F900F900F905B
:102E20000F90DF91CF911F910F91FF90EF90DF9066
:102E3000CF90BF90AF909F908F907F906F905F905A
:102E40000C94CC03E5EFAE16ECE5BE0609F4F3C135
:102E500008F4EDC126EFA2162CE5B20609F4EFC185
:102E6000F4018281882309F475C510925C03F3E0B4
:102E7000AF16FDE5BF0608F0E9C12AEFA2162CE562
:102E8000B20638F4950122503C452431310508F052
:102E9000E3C10E94690F9093D0028093CF0240E17A
:102EA000A4164CE5B40609F4D4C208F042C288E086
:102EB000A8168CE5B80609F4BAC208F00EC2E4E020
:102EC000AE16ECE5BE0609F4A4C208F0F0C122E09B
:102ED000A2162CE5B20609F496C28091CF02826058
:102EE00033E0A3163CE5B30609F490C26091CF022B
:102EF0001091D00284E090E00E94462C612F82E283
:102F000090E00E94462C0F900F900F900F900F9022
:102F1000DF91CF911F910F91FF90EF90DF90CF90B5
:102F2000BF90AF909F908F907F906F905F900C9428
:102F3000411140919A03942F991F9927991F8091CD
:102F40009B038770880F892B4F7701ED0A0D10E0E6
:102F50000D571D4FF8016081F40192819923B9F05A
:102F60006F3F09F08BCC90919903292F2F70959585
:102F70009595959595959F52FCE02F9F900D112466
:102F8000A90E6A2D0E945E03F801A08277CC6F3FE4
:102F900011F00E944C038FEFF80180836FCCF40195
:102FA0008281882309F46ACCF9E8AF0E2A2D2F70AC
:102FB000A22E80919903807FA82AA09299035ECCCB
:102FC000F4018281882309F459CC80919903982FC8
:102FD0009F7009F453CC915F9F70807F892B809301
:102FE00099034CCCF4018281882309F447CCF7E79C
:102FF000AF0EA29480EFA822809199038F70DCCF4E
:10300000F4018281882309F439CC80919903982FA7
:1030100095959595959595959B3F0CF42FCC915F43
:103020009295907F8F70DACFF4018281882309F422
:1030300025CCFEE6AF0E8EE0A89EA02C1124E894CD
:10304000A7F880919A038078A82AA0929A0316CCB8
:10305000F4018281882309F411CC80919A03982F7E
:103060009F7709F40BCC80789F3721F48567809394
:103070009A0304CC9D30D8F39D509F77892BF7CFCE
:103080008F67F5CFF4018281882309F4F7CBF2E64C
:10309000AF0E80919A03A0FA87F980939A038A2D44
:1030A0008695877090919B03987F892B8BC0F40144
:1030B0008281882309F4E2CB20919A03322F331FB7
:1030C0003327331F90919B03892F8770880F832BA1
:1030D000815F382F3F7080FB27F920939A03832F5D
:1030E0008695987F982B90939B03C8CBF40182819F
:1030F000882309F4C3CB90919A03991F9927991FAC
:1031000080919B038770880F40E06BE7892B0F90BD
:103110000F900F900F900F90DF91CF911F910F9113
:10312000FF90EF90DF90CF90BF90AF909F908F90E7
:103130007F906F905F900C94E50340E021114FE782
:10314000881F8827881F9770990F60E4DFCF40E0C1
:1031500021114FE7881F8827881F9770990F61E416
:10316000D5CFF401828140E081114FE790919A031D
:10317000991F9927991F80919B038770880F63E49B
:10318000C5CF81E026CEF4018281882309F476CB75
:1031900090919B03292F2695269526952F7081E0E7
:1031A000820F8F70880F880F880F9778892B8093F4
:1031B0009B03982F987709F061CB220F220F220FE3
:1031C0008778822B80939B0359CBF40182818823DB
:1031D00009F454CB80919B03982F987709F44ECB38
:1031E000982F969596959695915F9F70990F990F48
:1031F000990F87785ACF80919A03982F991F992712
:10320000991F80919B038770880F892BF40192810D
:1032100060E070EE911100CE70E060E0FDCD27E23D
:1032200045EE65EEB0CC26E241EE60EEACCC27E296
:1032300045EE64EEA8CC26E241EE62EEA4CC27E295
:1032400045EE66EEA0CC28E241E0EBCF31E6A316D6
:103250003DE5B30609F41DCE26E1A2162CE5B20623
:1032600009F01EC1809149028A7A91E009F490E048
:103270009093E10169E2811165E388ED91E00E949C
:10328000E2070F900F900F900F900F90DF91CF916A
:103290001F910F91FF90EF90DF90CF90BF90AF9074
:1032A0009F908F907F906F905F900C94490B8091CE
:1032B000CF02806146E0A4164CE5B40609F4A6C02E
:1032C0008091CF02886057E0A5165CE5B50608F44A
:1032D0009DC08091CF02806299C08CE0A8168CE5D9
:1032E000B80609F4AEC078F48091CF028C60EAE0B1
:1032F000AE16ECE5BE0609F489C008F49CC08091C6
:10330000CF028E7F83C08091CF02877F2EE0A216EE
:103310002CE5B20609F47AC08091CF028B7F3FE0A2
:10332000A3163CE5B30608F471C08091CF028F7EEE
:103330006DC04CEFA4164CE5B40609F486C0A0F5A8
:1033400084E1A8168CE5B80609F497C098F4E2E188
:10335000AE16ECE5BE0609F480C08091CF028F7BEB
:10336000F3E1AF16FCE5BF0608F450C08091CF0230
:10337000837F4CC02AEFA2162CE5B20609F44DC09B
:1033800008F051C045E1A4164CE5B40609F0AECDF5
:103390008091CF0282FB992790F921E0922790FB40
:1033A00082F990FB83F932C0A1145DE5B50609F4FA
:1033B0005AC0A0F48091D00283609EEFA9169CE5CC
:1033C000B90671F18091D0028D7FEFEFAE16ECE57A
:1033D000BE0630F18091D0028C7F22C0F2E0AF16A1
:1033E000FDE5BF0609F458C008F450C031E6A31645
:1033F0003DE5B30609F07ACD9091CF02892F8F7EFB
:1034000094FF806103C08091CF0281608093CF02DE
:103410006DCD8091CF028460F9CF8091D002816020
:103420008093D00263CD8091D0028260F9CF8091E9
:10343000CF028064EBCF0E9441118091CF0280685F
:10344000E5CF8091CF028D7FE1CF8091D0028E7F3A
:10345000E7CF8091CF028F7DD9CF0E94411180911B
:10346000CF028F77D3CF8091D002982F9095917013
:103470008E7F892B90FB81F9D3CF0E9441119091CF
:10348000CF02892F97FB87F98058C0CF61E08EE08B
:1034900090E00E94462C2ACD60E0F9CF85E365C21A
:1034A000882349F0A1144CE5B40671F15EEDA51630
:1034B0005CE5B506B1F1F40100811181882309F4BE
:1034C00046C0C8010E94EE0EF82E682FC8010E9467
:1034D000920BB8018F2D0E94E10E0E94D809182F7F
:1034E000F82EF40122814581342F32953F70892FC7
:1034F00082958F70A82EB12C8C3008F060C0F50139
:10350000EC56F34D0C94152C0E9441118FEF94E36F
:10351000ECE081509040E040E1F700C000000E94E4
:10352000AA070F900F900F900F900F90DF91CF91FF
:103530001F910F91FF90EF90DF90CF90BF90AF90D1
:103540009F908F907F906F905F900C94D710C801E0
:103550000E946A0BF82EBDCF092F0F70907F11F0DB
:103560000295007F812F2223C9F0002369F090E2A9
:10357000910F983010F011110BC080914902082B67
:10358000009349020E94490B812F0E945B0C17C0D7
:1035900080914802082B00934802F4CF0E941A0C35
:1035A000002369F00095105E183010F0F11025C06E
:1035B000809149020823009349020E94490B98E038
:1035C000A91AB108E4E0AE16B10408F057C90F908B
:1035D0000F900F900F900F90DF91CF911F910F914F
:1035E000FF90EF90DF90CF90BF90AF909F908F9023
:1035F0007F906F905F900C949F0D809148020823FC
:1036000000934802DACF892F8F70907F903211F0AB
:103610008295807FF1E0FF120CC0222329F0363022
:1036200070F60E94100CCBCF353048F60E94050C86
:10363000C6CF222341F03323A1F340FFA5CF4F7023
:10364000F4014583EECF332389F3193309F000C128
:10365000FFEF27EE33E0F15020403040E1F700C0AB
:103660000000812F0E941A0CAACF892F869586957B
:10367000837061F0813009F0A2CF812F9370211106
:1036800002C090E080E00E94FC0799CF812F9370E8
:10369000211102C090E080E00E94120890CF812F9B
:1036A000222329F00E9420090E943E0888CF0E9410
:1036B0006508FACF892F8370A1F5211180CF812F62
:1036C000829586958770880F880F412F4F70082E3E
:1036D00001C0440F0A94EAF7212F207114FF07C09C
:1036E0002FE030E001C0220F8A95EAF720959695E9
:1036F00096959370923081F0822F842B933030F422
:1037000080914A02913029F0242B82230E94010CDF
:1037100056CF842B822BFACF242B80914A0282270A
:10372000F5CF8695222311F0892F8170882309F423
:1037300046CF812F829586958770880F880F412FFD
:103740004F70082E01C0440F0A94EAF7212F207110
:1037500014FF07C02FE030E001C0220F8A95EAF77E
:103760002095969596959370923081F0822F842BB8
:10377000933030F480915903913029F0242B822327
:103780000E94DB0B1CCF842B822BFACF242B809141
:1037900059038227F5CF092F0F70222329F0802F9C
:1037A0000E94F60B812F3DCF812F0E94050C802FA8
:1037B0000E94EA0B04CF812FE1EF1E1789F1E11778
:1037C00050F0F0EF1F17B9F02223B1F13111DCCE28
:1037D000892F8F7129C042EF141749F153EF151348
:1037E000F3CF80E0222361F29F7181E001C0880F56
:1037F0009A95EAF7C5CF222379F0353008F0DFCE6D
:10380000292F2F7181E090E001C0880F2A95EAF7F7
:10381000909159038927B4CF363008F0D0CEF0CF3D
:10382000892F8F71222321F20E94F60BC8CE892F97
:103830008F712223C9F3BCCF332379F0893341F44C
:103840008FEF97EEE3E081509040E040E1F707CF43
:103850008FE39CE90197F1F702CF892F8F71A8CFF1
:10386000F0E1AF16FFE5BF0609F41BC921E1A2167E
:103870002FE5B20609F432C94EE94A0D36E8A3161F
:103880003DE5B30608F02CC95AE7A5165DE5B50677
:1038900008F0AEC992E6A9169DE5B90608F42CC950
:1038A000EEE6AE16EDE5BE0608F095C990919A03D6
:1038B000E92EE894E7F8042F10E0035A1C4FF801B2
:1038C000F080FFEF882309F475C9FF1215C96091D4
:1038D0009903862F8F70F62EF594F594F594F59450
:1038E0002CE0829FF00C1124B50167527140F60E56
:1038F000A1EDDA2EDF0C4E2D6D2D80E00E945E03CF
:103900006DED6F0D4E2D80E00E945E03F801D082B8
:10391000F3C830E1A3163FE5B30609F4C6C841E198
:10392000A4164FE5B40609F0A7CF82E0BFC885E032
:10393000DE01119601900D928A95E1F7F401228142
:1039400089819A8121110C9453140E946A0B182FBB
:103950000C945B14F6E1AF16FCE5BF0609F0ABCDA5
:103960008091E10181119ACD89E2EAEDF1E020EE4A
:1039700031E09191891303C0DF0111971C922E173A
:103980003F07B9F77ECC1F93CF93DF93809114024A
:10399000807FA9F480911102882389F080914602EA
:1039A000D091150260910F0270911002A091120245
:1039B000B0911302C62FC72316E0D81304C0DF91BD
:1039C000CF911F91089590E0109711F0CF3F19F417
:1039D00001968770F2CF189F9001199F300D112426
:1039E000F901EA5EFD4F41814713F2CF4081461352
:1039F000EFCF42814111ECCF438154814A1B5B0BD5
:103A0000483C510528F7809114028F7080618093A3
:103A10001402F901E55EFD4F80818F708061808323
:103A20008FE092E00E941D14DF91CF911F910C94C2
:103A3000600BAF92BF92CF92DF92EF92FF920F9303
:103A40001F93CF93DF93CDB7DEB761970FB6F8948E
:103A5000DEBF0FBECDBF8C0185E0F801DE011D96F3
:103A600001900D928A95E1F7F801E2808FE0A82E8F
:103A700082E0B82E609112027091130261157105F7
:103A800009F432C190910F0240911002892F8423D2
:103A90008F3F09F429C120813181C380D480F09007
:103AA0001102F601E61BF70BFF2009F4E8C0809134
:103AB0001402582F507FE83CF10508F0ABC05111BB
:103AC00077C0FE2C431321C092131FC0E1101DC00C
:103AD0008F70806180931402C5010E941D14809133
:103AE0001402F80185838F2D61960FB6F894DEBF1E
:103AF0000FBECDBFDF91CF911F910F91FF90EF903F
:103B0000DF90CF90BF90AF900895CD2829F0822FFD
:103B100083238F3F09F003C180E0F82FF170DF2E7F
:103B200080FF3CC0809146024091150256E084130C
:103B300015C02D873E878D859E850E941D0F292FDC
:103B400022952F702230F0F0243018F59F70F1F09C
:103B5000F8019581907FD1F4D12C1EC090E0589F40
:103B6000F001599FF00D1124EA5EFD4F618136137B
:103B700006C06081261303C06281E6120FC0019661
:103B80008770D5CF9F7011F0882331F3805E883025
:103B900018F3C8010E941D14FD2CA5CFEE2009F4D6
:103BA000A2CF80911402816080931402F12C9BCFEC
:103BB000431306C0921304C0F801EE2009F479C043
:103BC000C8010E94290F882309F1EE20F9F08091A5
:103BD0001402803270F020910F0230911002388769
:103BE0002F831986DB86CA868C87CE0107960E94B2
:103BF0001D1486E0F801AFE0B2E001900D928A95C5
:103C0000E1F70E94C31CFF24F3946DCFC8010E940A
:103C10001D14F9CF51110AC08FE092E00E941D14CB
:103C200086E0F50111928A95E9F7C0CF43130FC0E2
:103C300092130DC0E1100BC0F8018583C8010E94EA
:103C40001D1486E0F50111928A95E9F74CCFC80161
:103C50000E94290F8823D1F2EE20C1F28091140234
:103C6000803238F220910F02309110023A8329837A
:103C70001B82DD82CC828E83CE010196B8CFE83CD8
:103C8000F105F8F6FE2CEE2009F243131FC0921343
:103C90001DC08091140280FD10C0982F907F69F0A4
:103CA000F8018583903F31F0982F907F905F8F705F
:103CB000892B8583C8010E941D1486E0F801AFE0BE
:103CC000B2E001900D928A95E1F70DCFC8010E94F4
:103CD000290F81118ECF809114028160809314028C
:103CE000C8010E941D14FFCEEE2009F48FCFC80139
:103CF0000E94290FF82E882309F488CF86E0F80166
:103D0000AFE0B2E001900D928A95E1F780910F0249
:103D1000909110020E941D0F0E94C31CE4CE81E00E
:103D20008E25FBCE1F93CF93DF93CDB7DEB767977A
:103D30000FB6F894DEBF0FBECDBF4B8B5C8B6D8B87
:103D40007E8B8F8B6111109248021A8A198A85E046
:103D5000FE017396DE011D9601900D928A95E1F7A2
:103D600086E0FE013D96DE01179601900D928A9540
:103D7000E1F7CE0107960E94191D882389F016E00D
:103D80008091460290911502891349C067960FB63B
:103D9000F894DEBF0FBECDBFDF91CF911F91089584
:103DA00086E0FE013796DE01119601900D928A950C
:103DB000E1F78A859B85892B11F38F81988589236B
:103DC0008F3FE9F22091150230E0C901019687701A
:103DD0009927409146024817190671F40E94411133
:103DE000109215021092460286E0EFE0F2E0DF0149
:103DF0001D928A95E9F7C3CF96E0929FD001939FD9
:103E0000B00D1124AA5EBD4FFE01319601900D92B6
:103E10009A95E1F7809315020E94600BB0CF819FC5
:103E2000C00111248A5E9D4F0E94191D882309F448
:103E3000ADCF8091460290E00196877099278093DC
:103E400046029ECF8F929F92AF92BF92CF92DF9207
:103E5000EF92FF920F931F93CF93DF93CDB7DEB70F
:103E6000A9970FB6F894DEBF0FBECDBF8E010F5FCE
:103E70001F4F88E1D8011D928A95E9F76CE3E62E81
:103E800061E0F62E6801AA24A394B12CF701819178
:103E90007F018F3F09F44CC0F894E82FE295EF7052
:103EA000F0E021A18F70A50102C0440F551F8A9533
:103EB000E2F7CA01922F982B91A392A180958923B2
:103EC00082A30E947C0900C0E2E3F1E030E020E040
:103ED000912C812C81918F3F09F484C0A82FA29549
:103EE000AF70B0E090964C9150E08F7002C0559545
:103EF00047958A95E2F740FD75C0C501022E02C0C4
:103F0000880F991F0A94E2F7882A992A2F5F3F4F5A
:103F10002A303105F9F6F701319780818F3F11F092
:103F20000E947E0950EA5A95F1F7D6018D929C9233
:103F3000B2E0CB0ED11CE2E4EE16E1E0FE0609F0A1
:103F4000A5CF48E150E0B80181ED92E00E94222C1B
:103F50007C01892B41F088E1F801A1EDB2E00190EC
:103F60000D928A95E1F71091EA02E114F104E9F16A
:103F700081E080934D020E94D60790934C0280937B
:103F80004B0280914B0290914C020E94BB07059717
:103F900090F0A1EDB2E0E12FF0E0EE0FFF1FE15F46
:103FA000FC4F8D919D918193919322E0AD3DB2079D
:103FB000C1F710924D0281E090E0EF28D1F0A99670
:103FC0000FB6F894DEBF0FBECDBFDF91CF911F912A
:103FD0000F91FF90EF90DF90CF90BF90AF909F90A8
:103FE0008F90089590E080E08FCF80914D028111F5
:103FF000C8CF0E947C0DB82EE091EA02AE01475E68
:104000005F4F7A01882309F4AAC08CE0DA011D927F
:104010008A95E9F70E2F10E0000F111F015F1C4F6A
:1040200080918202FE01B5966F018A3008F068C067
:1040300046E950E1B701C8010E94380D882309F410
:104040007AC04AE451E2B701C8010E94380D8823C2
:1040500009F471C047E75FE0B701C8010E94380D5D
:10406000882309F468C010928202E091E902F0E02E
:10407000EE0FFF1FAF01415F5C4FD70110E0FA0167
:1040800021913191AF018D919D912817390739F018
:104090009F0122503109F901918380831B2DAC15BA
:1040A000BD0569F790E5C92E92E0D92EF12CE12CDF
:1040B000D6018D916D018823D1F08695F70109F421
:1040C0004BC0EF55FE4F808191819EA38DA31FA20F
:1040D0000E94D6078160782F99A788A7F6013197AB
:1040E00010824DA15EA16FA189A50E94921EB2E02F
:1040F000EB0EF11CE4E0EE16F104D1F6812F5FCF58
:1041000080914E0290914F020E94BB07843F9140E4
:1041100008F08ECFE091E902F0E0EE0FFF1FE15FC3
:10412000FC4FD701119211921D921D92CA16DB0607
:10413000C9F71B2DB7CF809182028F3F31F08F5F7F
:10414000809382028A3008F490CF0E94D607909321
:104150004F0280934E02DECFE356FE4FB4CFF0E025
:10416000EE0FFF1FE15FFC4FF8948CE0ACE6B2E08D
:1041700001900D928A95E1F76CE070E08CE692E098
:104180000E94280880936B020E947C09F894E091B9
:10419000EF02F0E0E451FD4F8081898F8093790236
:1041A00061E070E0C7010E942808809378020E94B5
:1041B0007C09F894C0907A02D0907B02E0907C0257
:1041C000F0907D028091520290915302A09154028E
:1041D000B0915502C816D906EA06FB06D1F0C09286
:1041E0005202D0925302E0925402F09255020E9481
:1041F0007C0D81110EC00E94CA07C61AD70AE80AB0
:10420000F90AC092CB02D092CC02E092CD02F09299
:10421000CE020E947C0980E0D2CEEF92FF920F93F3
:104220001F93CF93DF9300D000D00F92CDB7DEB7AE
:10423000162FE82EF12CC701880F991F662339F13C
:104240008F559E4FFC01808191819A83898301E083
:104250000B830E94D6078160782F9D838C83F701A2
:10426000E05BFD4F0127110F102B108349815A810C
:104270006B818D810F900F900F900F900F90DF91B9
:10428000CF911F910F91FF90EF900C94921E835647
:104290009E4FD8CFCF92DF92EF92FF920F931F9352
:1042A000CF93DF930F92CDB7DEB7EE24E394F12CDA
:1042B00009E712E09E012F5F3F4F47E652E063E0BF
:1042C00082E00E94E70F082F882321F1C090EB02C3
:1042D0008C2D90E09C0124513D4F79011981F90109
:1042E0008081181BD12E80E00AC0DA94F70180810A
:1042F0008F5F808360E08C2D0E940D21802F1D1424
:10430000A4F3912F17FD90E0191B11110EC081111C
:104310000E94470B802F0F90DF91CF911F910F913B
:10432000FF90EF90DF90CF9008951F5FF70180819D
:104330008150808361E08C2D0E940D21802FE5CF7C
:104340001F920F920FB60F9211242F933F934F930A
:104350005F936F937F938F939F93AF93BF93CF930D
:10436000DF93EF93FF93D091E900DF708091EC0031
:10437000C82FC17080FDC0E81092E9008091F00064
:10438000877F8093F00078940E944C111092E9008E
:104390008091F00088608093F000CD2BCF70C093A7
:1043A000E900FF91EF91DF91CF91BF91AF919F9184
:1043B0008F917F916F915F914F913F912F910F90CE
:1043C0000FBE0F901F9018951F920F920FB60F926D
:1043D00011242F933F934F935F936F937F938F930A
:1043E0009F93AF93BF93EF93FF938091E10082FF80
:1043F00009C08091E20082FF05C08091E1008B7FBF
:104400008093E1008091DA0080FF24C08091D80081
:1044100080FF20C08091DA008E7F8093DA00809147
:10442000D90080FF9BC080E189BD82E189BD09B4CC
:1044300000FEFDCF81E080934F0380914203811104
:1044400009C00E94E8040E94DD058091E2008460BA
:104450008093E2008091E10080FF17C08091E2002C
:1044600080FF13C08091E2008E7F8093E2008091F4
:10447000E20080618093E2008091D80080628093A6
:10448000D80019BC85E080934F038091E10084FF40
:1044900029C08091E20084FF25C080E189BD82E1CE
:1044A00089BD89B5982F917080FFFBCF8091D8008E
:1044B0008F7D8093D8008091E1008F7E8093E10012
:1044C0008091E2008F7E8093E2008091E200816023
:1044D0008093E20080915003882309F445C084E072
:1044E00080934F038091E10083FF27C08091E20019
:1044F00083FF23C08091E100877F8093E10082E009
:1045000080934F03109250038091E1008E7F80933F
:10451000E1008091E2008E7F8093E2008091E200D2
:1045200080618093E20042E060E080E00E94AB05A1
:104530008091F00088608093F000FF91EF91BF912F
:10454000AF919F918F917F916F915F914F913F912B
:104550002F910F900FBE0F901F90189519BC1092BD
:104560004F031092420376CF8091E30087FD93E0E2
:1045700090934F03B7CF78941F921FB61F921124C8
:104580008F939F93AF93BF9380913B0390913C0394
:10459000A0913D03B0913E030196A11DB11D8093F2
:1045A0003B0390933C03A0933D03B0933E03BF9124
:1045B000AF919F918F911F901FBE1F9018951F92D2
:1045C0001FB61F9211248F939F93AF93BF93809137
:1045D0003A03811113C080913B0390913C03A09159
:1045E0003D03B0913E034196A11DB11D80933B0355
:1045F00090933C03A0933D03B0933E03BF91AF91D2
:104600009F918F911F901FBE1F901895CDB7DEB759
:10461000AF970FB6F894DEBF0FBECDBF84E0809396
:1046200099038FE780939A0380919B03807880643D
:1046300080939B03E3E8F2E08BEC92E02FEF219371
:104640008E179F07E1F71092F1021092F20210927A
:10465000F4021092F3021092C2031092C40310925B
:10466000C30380EC8093870485EC93E090938904E6
:104670008093880410928604109285041092A203FD
:104680001092A1031092A4031092A3031092A60308
:104690001092A5031092A8031092A7031092AA03E8
:1046A0001092A9031092AC031092AB031092AE03C8
:1046B0001092AD031092B0031092AF031092B203A8
:1046C0001092B1031092B4031092B3031092B60388
:1046D0001092B5031092B8031092B7031092BC0366
:1046E0001092BB038FE497E090939E0380939D0309
:1046F00084EC96E09093BE038093BD0380EA96E03D
:104700009093BA038093B9038FE996E09093A00346
:1047100080939F0384B7877F84BF0FB6F894A895D2
:1047200080916000886180936000109260000FBEED
:1047300080E890E00FB6F894809361009093610058
:104740000FBE85B7806885BF85B7806885BF8AE75B
:1047500099E09093D7018093D6010E94E8040E94CB
:10476000DD058091E20084608093E200789480917E
:104770004F038823A1F01091E9001F709091EC0085
:10478000892F817090FD80E8182B1092E9008091AC
:10479000E80083FD0E944C111F701093E90082E035
:1047A00084BD93E095BD9AEF97BD80936E00109203
:1047B000CB021092CC021092CD021092CE020E9437
:1047C000500F811102C00E94AC0E0E947C0D91E03E
:1047D0008927809348010E947C0D81110E942C2A18
:1047E00080914801811131C0FE01379686E0DF01DA
:1047F0001D928A95E9F781E9898380E98A8384E9B2
:104800008B8386E68C8387E98D8386EC8E8336974F
:10481000ACE3B1E0CE010D9621912D938E179F0749
:10482000D9F78AE0E2E6F1E0DE01919601900D927F
:104830008A95E1F7FE01B196A2E3B1E0CE018B9635
:1048400021912D938E179F07D9F78091480196E00B
:10485000811190E09093EA0286E0891B8093E9023F
:104860000CE311E082E4E82E81E0F82EF80181915A
:104870008F018F3F11F00E947E09E016F106B1F71B
:1048800002E311E0BCE3EB2EB1E0FB2ED8018D91E9
:104890008D018F3F11F00E947E09E016F106B1F7FD
:1048A000E1EDF2E089EE92E0AFE0B3E01192119217
:1048B0001D921D928E179F07C9F790E080E00E941D
:1048C000402C893E9E4F21F40E94500F811102C05E
:1048D0000E94D71082E090E00E94382C8093F6026C
:1048E0000E94690F9093D0028093CF020E94221FF2
:1048F000EFE3FCE93197F1F700C000000E94221FAE
:1049000080910F0380FF08C06FEF7FEF90E080E0A1
:104910000E94642C0E94AA0783E090E00E94382C39
:104920000E94010C0E947C0D811102C00E942F2A5E
:1049300080914801811106C084E38093540186E38D
:104940008093530120915401A22FA295AF70B0E043
:1049500091963C9191972F7081E090E0BC01022EDE
:1049600001C0660F0A94EAF7462F409543239196BB
:104970004C93919792963C919297362B92963C93BA
:10498000929740915301E42FE295EF70F0E031A14E
:104990004F70042E01C0880F0A94EAF7982F909563
:1049A000932391A392A1892B82A390968C9190E05E
:1049B00002C0959587952A95E2F7817020A130E095
:1049C00002C0359527954A95E2F792E020FF90E0E6
:1049D000892B8093F0029091480181E09827909371
:1049E000EF02891B8093EB0280919903807F8260A4
:1049F0008093990380919A038078856780939A03C6
:104A0000EDE5F3E089E993E02FEF21938E179F07FF
:104A1000E1F781E00E94010C89E491E09093370373
:104A200080933603E8E16E2E712CF7E2CF2EF3E08F
:104A3000DF2EA3E0EA2EF12C80914F0300E112E17A
:104A4000853009F460C20E94221F81110E94CA07AA
:104A5000E7EFF2E0AFE0B3E010E000E0402E8D9031
:104A60009D90819191918815990509F45CC28825E2
:104A70009925512CAA24A394B12C9C012A213B21D5
:104A8000232B09F44AC20E947C0D8823A9F059A265
:104A90004AA28A209B2081E0892809F480E08BA328
:104AA0000E94D6078160782F9DA38CA349A15AA1AB
:104AB0006BA18DA10E94921E000F111FF801E950F9
:104AC000FD4F80819181A826B926B182A082809174
:104AD000F002E82FEE0FEE0F90915401A92FA2954E
:104AE000AF70B0E090962C9130E09F7002C0359589
:104AF00027959A95E2F72170332790915301A92FBA
:104B0000A295AF70B0E090964C9150E09F7002C0BB
:104B1000559547959A95E2F7CA018170992740FF0C
:104B200002C082E090E0822B8E2B8093F0021091E5
:104B3000EF028F70E82FF0E0E955FE4F80819091F1
:104B4000EE02890F8093EE0220E0843064F0E12FC2
:104B5000F0E0E451FD4F80818F5F808360E0812F22
:104B60000E940D2121E08091EE028D3F64F4E12F3F
:104B7000F0E0E451FD4F80818150808361E0812F1E
:104B80000E940D2121E08091EE02082E000C990B6D
:104B900064E070E00E94012C8093EE0221110E94DB
:104BA000470B86E0EEE2F3E0DE01119601900D92F4
:104BB0008A95E1F7B0903003A09031031091320351
:104BC000009133031092300310923103109232039C
:104BD000109233038B2D8A2909F448C080912C034D
:104BE00090912D030E94BB079C019091280399236B
:104BF00009F4CCC323333105C8F19F3F19F09F5FFF
:104C000090932803BB2059F00E9400099FEF1B14CA
:104C10000CF491E0899F802D112480933003AA2009
:104C200059F00E9400099FEF1A140CF491E0899F3B
:104C3000802D112480933103309130033323B1F060
:104C400020913103222391F045EB3403C00111245C
:104C5000992309F47FC19093300355EB250390010C
:104C60001124332309F47AC130933103812F802B2F
:104C700009F448C080912A0390912B030E94BB073E
:104C80009C0190912703992309F47BC325363105B4
:104C9000C8F19F3F19F09F5F90932703112359F0AC
:104CA0000E94DE089FEF11160CF491E0899F802D81
:104CB000112480933203002359F00E94DE089FEFF5
:104CC00010160CF491E0899F802D112480933303FA
:104CD000309132033323B1F020913303222391F03A
:104CE00045EB3403C0011124992309F43BC190938F
:104CF000320355EB250390011124332309F436C107
:104D0000309333038091300390913103892B90913C
:104D10003203892B90913303892B11F00E943E08B6
:104D200086E0FE013196AEE2B3E001900D928A95E5
:104D3000E1F7E091BD03F091BE03309719F08DE9E2
:104D400093E009959FB7F8940091860480918504BB
:104D5000081708F40FC1081B9FBFB12CA12C10E04D
:104D600088248394912C44E0342E22242394A0168A
:104D7000B10608F403C18091F3029091F4020E94FD
:104D8000BB0720919B032695269526952F70281703
:104D9000190609F060F50E94D6079093F4028093FB
:104DA000F3028091F202882311F190919A03991FE6
:104DB0009927991F80919B038770880F4091F1027A
:104DC00061E0892B0E94E5038091F2029091F1024B
:104DD00087FF89C1A82FBB27A1950CF4B0959A171E
:104DE0001B060CF080C11092F1021092F2020E9498
:104DF0009F0D9091F502891721F00E949F0D8093DD
:104E0000F50280914F038430E1F4809156018F7058
:104E10008093E9009091E80090FF13C090914F03B8
:104E2000943079F48093E9009091F3008091F2003E
:104E3000892B39F08091E8008E778093E8000E94FA
:104E4000070580914F03843009F0F6CD83E080930D
:104E5000E9008091E80082FFEFCD8091E80090E0CA
:104E600085FF09C050E040E060E270E0CE010196AD
:104E70000E94620591E08091E8008B778093E800C2
:104E8000992309F4D9CDE981E150E33108F090C1CB
:104E9000F0E0E056F34D0C94152C80914F038430D4
:104EA00011F110923A03F0E40FB6F894A8956092CD
:104EB00060000FBEF093600083B7817F846083BF82
:104EC00083B7816083BF7894889583B78E7F83BFD3
:104ED0000FB6F894A8958091600088618093600077
:104EE000109260000FBE80914E03882361F00E94F3
:104EF000221FEFE0F3E081919191892B09F022C20A
:104F0000CE16DF06C1F780914F03853009F4C5CF77
:104F10000E9441110E949F0D96CD5394AA0CBB1C78
:104F20002AE05212AACD0F5F1F4F0C30110509F075
:104F300095CD8FEF8BA78CA71DA60E94D607816009
:104F4000782F9FA78EA74BA55CA56DA58FA50E9466
:104F5000921EBDCD81E0809330037FCE81E08093AF
:104F6000310384CE81E080933203C3CE81E080930D
:104F70003303C8CE20918704020FEDCE80918504C3
:104F800090E06091870470E00E94012C20918804D9
:104F900030918904280F391FD9015C904090C203D9
:104FA000B7EFB515E8F42092C20320E040E0652D8C
:104FB00081E090E00E94F6034092C2032FB7F8947C
:104FC0008091850490E001966091870470E00E94D2
:104FD000012C809385042FBF5FEFA51AB50AC7CEB9
:104FE00057FE52C0E4E04E1631F05092BF0390924B
:104FF000C4038092C303852D0E94A106813069F00D
:105000008823D1F08230A9F0833099F01092C20346
:105010001092C4031092C303D1CF8093C20320E047
:1050200040E0652D81E090E00E94F6031092C203FB
:10503000C5CF8093C203C2CFF0EF5F16E1F027EF38
:105040005212E4CF2091C3033091C403C901B701C8
:105050000E94ED2BFC01E356FC4F52A2C9010196C0
:105060009093C4038093C3032091C1034091C00374
:105070006091BF03D9CF3092C2035092BF03909288
:10508000C4038092C3039ACF442009F497CF2091A0
:10509000C3033091C403C901B7010E94ED2BAC01D9
:1050A000FC01E356FC4F52A2C90101969093C40340
:1050B0008093C3034130510589F04230510509F016
:1050C0007DCF2091C1034091C0036091BF030E9436
:1050D000F6038091C203843091F670CF42E020E065
:1050E00044126CCFF0CF890F87FD03C08093F1028B
:1050F0007ECE8FE7FBCF1A8289E08B8311C08A8135
:10510000823009F435C1833091F1813009F050C00B
:105110000E94CA070E941B2C6B837C838D839E8315
:1051200080914F03843009F087CC1091E9001F7003
:105130009091EC00892F817090FD80E8182B82E01F
:105140008093E9008091E80080FF0DC050E040E0CE
:1051500060E270E0CE0101960E9438058091E8007F
:105160008E778093E8001F701093E90065CCDE0114
:105170001196EFE0F3E080819181329612969C9334
:10518000129713968C931397129623E0E732F20747
:1051900091F7C6CF8A81823059F46B817C818D81F1
:1051A0009E810E941B2C86E290E00E94462CB8CF84
:1051B0008FEF8983B5CF4C816B818A810E94BB0EB2
:1051C0009827892798279E838D83AACF0D811E81DA
:1051D0001027012710278A81AB8044E1A49E50014B
:1051E000112450EF859FA00CB11C11248C8190E0FC
:1051F000880F991FA80EB91E612FC50187960E94BE
:10520000462C602FC5018896D0CF0E943E0E88CFD5
:1052100080E18A8385CF81E08A836ECF0A811B81FA
:10522000102701271027CE0101965C018C80DC013C
:10523000A80DB11D4D01C80189509D4F8A149B04D2
:1052400009F46ECF0930B1E01B0750F40E94382CEE
:10525000F50184830F5F1F4FBFEFAB1ABB0AEBCF83
:10526000D50114961C92F6CF0A811B8110270127C5
:105270001027FE0131964F01AC80A00EB12EB11C5B
:10528000C80189509D4FA016B10609F449CF0930D5
:10529000F1E01F0728F4D40114966C910E94462C6B
:1052A000BFEF8B1A9B0A0F5F1F4FEACF0E942E0E93
:1052B00037CF83E0AECF0A811B811027012710274B
:1052C000FE0131965F018C80AF01480D511D4A01EE
:1052D000C80187968A149B0409F422CF003D52E04E
:1052E000150758F40E94382CD50114968C930F5F43
:1052F0001F4FFFEFAF1ABF0AEBCFF5011482F7CFB4
:105300000A811B81102701271027AE014F5F5F4FD5
:105310004A01AC80A00EB12EB11CC80187960A15B7
:105320001B0509F4FDCE003D52E0150728F4D40119
:1053300014966C910E94462CBFEF8B1A9B0A0F5F4C
:105340001F4FEBCF09BD19BD09B400FEFDCF809101
:10535000D8008F7D8093D8008091E0008260809398
:10536000E0008091E00081FDFCCF0E944111CBCD97
:1053700086E290E00E94382C1B821C821D828E8364
:10538000CFCE2D32314008F086CCBCCC2D3231400E
:1053900008F035CC6BCC8EE14A9B02C08150E1F71E
:1053A0004A9BFECF08955A9880E28A95F1F75A9A5F
:1053B0000895FC013BE03A95F1F798E020E080E0A9
:1053C00031E040E14A95F1F7880F4A9B02C08160C5
:1053D000232742E04A95F1F7000040E14A95F1F7B2
:1053E000915079F790E19A95F1F799B132E03A95B9
:1053F000F1F7000040E14A95F1F792FB992790F907
:1054000092272081920F90830895EF92FF920F933D
:105410001F93CF93DF930F92CDB7DEB719828C0124
:105420007C01E60EF11C0E151F0561F481E09981E7
:10543000911180E00F90DF91CF911F910F91FF901C
:10544000EF9008950E94CB29CE0101960E94D929A0
:10545000F80181938F01E7CF529A5A9A0895529892
:105460005A9AEA9AE9E6F0E080818F7C8083089579
:105470006150770B91E001C0990F6A95EAF720E03F
:1054800031E0911108C0222391F05A9A80E28A9566
:10549000F1F75A980895492F482339F05A9A23274B
:1054A00040E24A95F1F79695ECCF5A98F9CF5A9881
:1054B000EDCFFF920F931F93CF93DF93EC018C01FD
:1054C000060F111DC017D10731F4DF91CF911F9145
:1054D0000F91FF900895F9900E94D32968E08F2DD5
:1054E0000E94382AEFCF1F920F920FB60F9211240D
:1054F000EF92FF920F931F932F933F934F935F93DE
:105500006F937F938F939F93AF93BF93EF93FF938B
:10551000CF93DF930F92CDB7DEB719820E94CB29CC
:10552000CE0101960E94D929A82FA695A695A695E9
:10553000282F229525709A2F9570290F922F9370FE
:1055400026952695920F982797708981982B09F0B8
:1055500075C0A63008F072C080E18A95F1F75A9ABA
:10556000529AB2E0BA95F1F700C05A98EA2EF12C9F
:10557000EAE0AE9FD0011124A050BF4F1896ED91E4
:10558000FC9119973097B1F06091A5017091A60137
:1055900016962D913C911797260F371F13968D91D4
:1055A0009C911497680F791F15964C911597129638
:1055B0008C9109958AE08E9DF0018F9DF00D11244C
:1055C000E050FF4F6581662351F02091A501309195
:1055D000A60186819781820F931F0E94592A0E94FB
:1055E000D329F0E1FA95F1F75A9852985A9A80E146
:1055F0008A95F1F78AE08E9D80018F9D100D112410
:1056000000501F4FD80112966C911297662371F1CA
:105610002091A5013091A60113968D919C91820F46
:10562000931F0E94052AD801ED91FC91882311F067
:1056300088E001C082E080830E94CB290F90DF9137
:10564000CF91FF91EF91BF91AF919F918F917F91FA
:105650006F915F914F913F912F911F910F91FF900B
:10566000EF900F900FBE0F901F901895ED91FC9149
:10567000DFCF0F931F93CF93DF93EC0106970CF0CE
:10568000A9C08AE08C9FF0018D9FF00D1124E0509D
:10569000FF4F80819181892B09F49CC0F894529A24
:1056A0005A9885E08A95F1F700008C2F86958570D1
:1056B0009C2F9570890F982F937086958695890FEA
:1056C0008E0193E0000F111F9A95E1F7082B0E94BD
:1056D000D32900C068E0802F0E94382AA0E1AA9553
:1056E000F1F752985A9A4A9B27C087E090E04A996E
:1056F00025C08AE08C9F80018D9F100D11240050E1
:105700001F4FF80165816623A1F12091A501309119
:10571000A60186819781820F931F0E94052A81111D
:1057200028C0529A5A9AD801ED91FC9182E0808368
:10573000789482E090E016C000C0D5CF0197B9F40C
:10574000529A5A9A8AE08C9FF0018D9FF00D112495
:10575000E050FF4F0190F081E02D81E0808378944C
:1057600081E090E0DF91CF911F910F91089500C0EB
:10577000BECF0E94CB29B0E2BA95F1F75A98529A5F
:10578000E0E1EA95F1F78AE08C9FF0018D9FF00D42
:105790001124E050FF4F6281662351F02091A50152
:1057A0003091A60183819481820F931F0E94592A10
:1057B0000E94D3298AE08C9FF0018D9FF00D112467
:1057C000E050FF4F0190F081E02D1082789490E03E
:1057D00080E0C8CF84E090E0C5CFAA1BBB1B51E19D
:1057E00007C0AA1FBB1FA617B70710F0A61BB70B51
:1057F000881F991F5A95A9F780959095BC01CD01F6
:10580000089597FB072E16F4009407D077FD09D072
:105810000E94ED2B07FC05D03EF4909581959F4F9B
:105820000895709561957F4F0895EE0FFF1F0590C5
:10583000F491E02D0994692796276927782787270F
:1058400078270895FB01DC0104C08D910190801937
:1058500021F441505040C8F7881B990B0895FB0173
:10586000DC0102C001900D9241505040D8F70895DC
:10587000F999FECF92BD81BDF89A992780B5089518
:10588000A8E1B0E042E050E00C946C2C262FF9998E
:10589000FECF92BD81BDF89A019700B4021639F08F
:1058A0001FBA20BD0FB6F894FA9AF99A0FBE089560
:1058B0000396272F0E94472C0E94462C252F0E94DA
:1058C000472C242F0C94472C0196272F0E94472CFD
:1058D0000C94462CDC01CB01FC01F999FECF06C0EB
:1058E000F2BDE1BDF89A319600B40D92415050409E
:1058F000B8F70895F894FFCF3B0F3B0F440F440FC8
:10590000460F440F440F440F3B0F3B0F4B0F440F08
:10591000440F4B0F31125912AC125912AC128C12A7
:10592000C412AC12C113CE13AC1AAC1A031B031B66
:10593000351B4F1BDF1ADF1A5A1BCB1BDB1BDB1B74
:105940007B287F28CA28DB28E6280529D828D828DC
:10595000D828D828D82808290B290E2934295629CF
:0659600059295B29802992
:10596600E0010000000100000000E0010000000C62
:1059760001000000E001000000010D000000E00150
:10598600000000010E000000E001040F000000000E
:10599600000031F7F6F5F433323690913534C69778
:1059A6006694000000000000019C060B0DEA0CE660
:1059B6000CE20C3767048540000001064000000138
:1059C6000001F4F5F6F73133326737F1818283E26D
:1059D60000E900EA00B500B600B700CD008301CCAF
:1059E600008A019201940121022302240225022643
:1059F6000227022A02B300B4006F007000080708ED
:105A060006090709066B0200FF0100010000FFFFFF
:105A16000000010001FF0002030200000100010175
:105A260001010100010140227B49012701AC001B55
:065A3600053405540500D3
:00000001FF
