:100000000C9436070C947D070C947D070C94191BF7
:100010000C947D070C947D070C947D070C947D0750
:100020000C947D070C947D070C9434310C940732AA
:100030000C9476270C947D070C947D070C947D0717
:100040000C947D070C947D070C947D070C947D0720
:100050000C947D070C94E1270C947D070C947D078C
:100060000C947D070C947D070C947D070C947D0700
:100070000C947D070C947D070C947D070C947D07F0
:100080000C947D070C947D070C947D070C947D07E0
:100090000C947D070C947D070C947D070C947D07D0
:1000A0000C947D070C947D070C947D07FFFFFFFFE8
:1000B000FFFFFFFFFFFFFFFFFFFFFFFFFFFFFFFF50
:1000C000FFFFFFFFFFFFFFFFFFFFFFFFFFFFFFFF40
:1000D000FFFFFFFFFFFFFFFFFFFFFFFFFFFFFFFF30
:1000E000FFFFFFFFFFFFFFFFFFFFFFFFFFFFFFFF20
:1000F000FFFF3C3D3E3F404142FFFFFF48494A4B26
:100100004C4D4EFFFFFFFFFFFFFFFFFFFFFFFFFF15
:10011000FFFF4746454443FFFFFFFF5453525150F2
:100120004FFFFFFF000C1824300B17232F3B010D4E
:100130001925310A16222E3A020E1A2632091521E5
:100140002D39030F1B27330814202C3804101C28CA
:100150003407131F2B3705111D293506121E2A36A9
:1001600055565758595A5BFFFFFF626364656667CF
:1001700068FFFFFFFF6F7071727374FFFFFFFF6115
:10018000605F5E5D5CFFFFFFFF6E6D6C6B6A69FF19
:10019000FFFFFF7A7978777675FFFFFFA2011A02D9
:1001A000000000061CFF500B0100FF500C01000076
:1001B000500D010BB0501801000050230180FF507A
:1001C0003C061CFF504A010BB0505501AAFF505687
:1001D0000180FF5057016AFF50580155FF505901E7
:1001E00040FF506001EA805062061CFF506B012BFB
:1001F000FF506C0155FF506E0100FF5070010BB0B5
:100200005077010BB050780180FF50790124FF50E6
:100210007A016AFF50FF00000000010A1CFF501520
:10022000021CFF5019031CFF501E051CFF50250225
:100230001CFF502D021CFF5039021CFF50FF000014
:1002400000002A5D365D425D4E5D5A5D2F5D3B5D6F
:10025000475D535D5F5D315D3D5D495D555D615D50
:10026000345D405D4C5D585D645D2C5D385D445D82
:10027000505D5C5D2D5D395D455D515D5D5D335D5E
:100280003F5D4B5D575D635D325D3E5D4A5D565D32
:10029000625D2E5D3A5D465D525D5E5D2B5D375D54
:1002A000435D4F5D5B5D295D355D415D4D5D595D34
:1002B000305D3C5D485D545D605D4F5C525C555CFB
:1002C000585C5B5C5E5C615C0000000000004E5CA2
:1002D000515C545C575C5A5C5D5C605C00000000E3
:1002E00000004D5C505C535C565C595C5C5C5F5C30
:1002F0000000000000000000A849705C6D5C6A5CB2
:10030000675C645C0000000000000000725C6F5CD1
:100310006C5C695C665C635C0000000000000000CF
:10032000715C6E5C6B5C685C655C625C000000002C
:1003300000000100010001000100010001000100B6
:1003400001000100010001000100010001000100A5
:100350000100010001000100010001000100010095
:100360000100010001000100010001000100010085
:100370000100010001000100010001000100010075
:100380000100010001000100010001000100010065
:100390000100010001000100010001000100010055
:1003A00001000100010001000100505C535C565C3B
:1003B000595C5C5C5F5C625C0000000000004E5CAD
:1003C000515C545C575C5A5C5D5C605C00000000F2
:1003D00000004F5C4F5C525C555C585C5B5C5E5C43
:1003E00000000000000000000100715C6E5C6B5CAE
:1003F000685C655C0000000000000000725C6F5CDF
:100400006C5C695C665C635C0000000000000000DE
:10041000705C6D5C6A5C675C645C615C0000000041
:1004200000002E5D2A5D365D425D4E5D335D2F5DC1
:100430003B5D475D535D295D315D3D5D495D555DCA
:100440002C5D345D405D4C5D585D305D2C5D385DEC
:10045000445D505D315D2D5D395D455D515D2B5DC8
:10046000335D3F5D4B5D575D2A5D325D3E5D4A5DAC
:10047000565D325D2E5D3A5D465D525D2F5D2B5DB2
:10048000375D435D4F5D2D5D295D355D415D4D5DA2
:10049000345D305D3C5D485D545D4F5C525C555C45
:1004A000585C5B5C5E5C615C0000000000004E5CC0
:1004B000515C545C575C5A5C5D5C605C0000000001
:1004C00000004D5C505C535C565C595C5C5C5F5C4E
:1004D00000000000000000000100705C6D5C6A5CC0
:1004E000675C645C0000000000000000725C6F5CF0
:1004F0006C5C695C665C635C0000000000000000EE
:10050000715C6E5C6B5C685C655C625C000000004A
:100510000000BB5CBA5C000000002F5C485C4A5CD9
:100520004C5C4E5C505C000000000000305C325CB3
:10053000455C475C495C4B5C4D5C00002F5C315C6A
:10054000335C355C425C445C465C485C4A5C305CD5
:10055000325C345C365C385C3F5C415C435C455CDF
:10056000475C335C355C375C395C3B5C3C5C3E5CD7
:10057000405C425C445C365C385C3A5C3C5C3E5CB3
:10058000395C3B5C3D5C3F5C415C4F5C525C555C64
:10059000585C5B5C5E5C615C0000000000004E5CCF
:1005A000515C545C575C5A5C5D5C605C0000000010
:1005B00000004D5C505C535C565C595C5C5C5F5C5D
:1005C0000000000000000000A849705C6D5C6A5CDF
:1005D000675C645C0000000000000000725C6F5CFF
:1005E0006C5C695C665C635C0000000000000000FD
:1005F000715C6E5C6B5C685C655C625C000000005A
:100600000000305C315C325C335C345C465C475CDF
:10061000485C495C4A5C325C335C345C355C365C1B
:10062000445C455C465C475C485C345C355C365CED
:10063000375C385C425C435C445C455C465C365CE1
:10064000375C385C395C3A5C405C415C425C435CE2
:10065000445C385C395C3A5C3B5C3C5C3E5C3F5CD7
:10066000405C415C425C3A5C3B5C3C5C3D5C3E5CBB
:100670003C5C3D5C3E5C3F5C405C485C4A5C4C5C86
:100680004E5C505C525C545C000000000000475C13
:10069000495C4B5C4D5C4F5C515C535C000000005E
:1006A0000000475C485C4A5C4C5C4E5C505C525CB1
:1006B0000000000000000000A8495E5C5C5C5A5C21
:1006C000585C565C00000000000000005F5C5D5C50
:1006D0005B5C595C575C555C00000000000000004A
:1006E0005E5C5C5C5A5C585C565C545C00000000CC
:1006F00000002E5D2A5D365D425D4E5D335D2F5DEF
:100700003B5D475D535D295D315D3D5D495D555DF7
:100710002C5D345D405D4C5D585D305D2C5D385D19
:10072000445D505D315D2D5D395D455D515D2B5DF5
:10073000335D3F5D4B5D575D2A5D325D3E5D4A5DD9
:10074000565D325D2E5D3A5D465D525D2F5D2B5DDF
:10075000375D435D4F5D2D5D295D355D415D4D5DCF
:10076000345D305D3C5D485D545D705C6D5C6A5C21
:10077000675C645C615C5E5C000000000000715CB2
:100780006E5C6B5C685C655C625C5F5C00000000DA
:100790000000725C6F5C6C5C695C665C635C605CF6
:1007A0000000000000000000A8494F5C525C555C4E
:1007B000585C5B5C00000000000000004D5C505C79
:1007C000535C565C595C5C5C00000000000000005B
:1007D0004E5C515C545C575C5A5C5D5C00000000F0
:1007E0000000165C2B003900E100E0002A004C00FC
:1007F0002800E5004F001E00140004001D00E30067
:10080000270013003300380051001F001A001600A3
:100810001B00E200260012000F00370050002000ED
:10082000080007000600914825000C000E00360065
:10083000085121001500090019002C00240018009F
:100840000D0010006500220017000A0005002C00B2
:1008500023001C000B0011009000010001000100AA
:100860000100010001000100000000000000010083
:100870000100010001000100010001000000000072
:100880000000010001000100010001000100010061
:100890000000000000000000010001000100010054
:1008A0000100010000000000000000000100010044
:1008B0000100010001000100000000000000000034
:1008C0000100010001000100010001000000000022
:1008D0000000165C2B00E000E10039002A004C000B
:1008E000280052724F001E00140004001D00E30097
:1008F000270033001200380051001F001A001500B5
:100900001B00E20026001C000C00370050002000F5
:10091000090016000600914825001800080036005E
:10092000085121001300170019002C0024000F00AB
:1009300011001000650022000A00070005002C00CD
:1009400023000D000B000E009000010001000100CB
:100950000100010001000100000000000000010092
:100960000100010001000100010001000000000081
:100970000000010001000100010001000100010070
:100980000000000000000000010001000100010063
:100990000100010000000000000000000100010053
:1009A0000100010001000100000000000000000043
:1009B0000100010001000100010001000000000031
:1009C0000000010001000100010001000100010020
:1009D0000100010001003A000000AA00BE00010071
:1009E00043002E003500300031003B000000A9001C
:1009F000BD00010042002D004F002F0034003C00DC
:100A00000000A800000001004100000052000000AA
:100A100001003D0000000000000001004000000057
:100A20005100000001003E00000000000000010035
:100A30003F00000050000000010001000100010023
:100A400001000100010001000000000000000100A1
:100A50000100010001000100010001000000000090
:100A6000000001000100010001000100010001007F
:100A70000000000000000000010001000100010072
:100A80000100010000000000000000000100010062
:100A90000100010001000100000000000000000052
:100AA0000100010001000100010001000000000040
:100AB0000000655D0652075200000000C35C0000A4
:100AC0006C5D00000000665D6B5D000000000000D2
:100AD00000000000000000000000675D0000000052
:100AE0000000000000000000000000000000685D41
:100AF00000000000000000000000000000000000F6
:100B00000000695D0000000000000000000000001F
:100B10000000000000006A5D00000000000000000E
:100B200000000000000000000000775C785C795C49
:100B30007A5C7B5C00000000000000000000655D46
:100B4000665D675D685D695D6A5D000000000000CC
:100B50000000000000006B5D0000000000000000CD
:100B600000000000000000000100DF5C0000000049
:100B7000000000000000000000000000C35C000056
:100B80009E5C9D5C00000000000000000000000072
:100B90006F5D6E5D6D5D705D000000000000000027
:100BA00000003C3D3E3F404142434445464761547E
:100BB000535251504F4E4D4C4B4A49485556575839
:100BC000595A5B5C5D5E5F606E6D6C6B6A696867ED
:100BD00066656463626F7071727374757677787925
:100BE0007A0B0A090807060504030201000C0D0E22
:100BF0000F1011121314151617232221201F1E1D6A
:100C00001C1B1A19182425262728292A2B2C2D2E9F
:100C10002F3B3A3938373635343332313000010121
:100C200001010101010101020202020202020202AB
:100C3000030303030303030304040404040404057B
:100C4000050505050606060606070707070708083F
:100C50000808090909090A0A0A0B0B0B0C0C0C0DF0
:100C60000D0D0E0E0E0F0F0F101011111112121389
:100C7000131414151516161717181819191A1A1B04
:100C80001B1C1D1D1E1E1F20202122222324242563
:100C90002626272829292A2B2C2D2D2E2F3031329C
:100CA00032333435363738393A3B3C3D3E3F4041AC
:100CB00042434445464748494A4C4D4E4F50515394
:100CC00054555658595A5B5D5E5F6162646566684B
:100CD000696B6C6D6F7072737577787A7B7D7E80CF
:100CE00082838587888A8C8E8F91939596989A9C1B
:100CF0009EA0A2A3A5A7A9ABADAFB1B3B5B7BABC2F
:100D0000BEC0C2C4C6C9CBCDCFD1D4D6D8DBDDDFFF
:100D1000E2E4E7E9EBEEF0F3F5F8FAFDFF1603671E
:100D20000069006100620061006C0061006E00619A
:100D300000690000000E033300610072006100686A
:100D400000740000000403090409029F000401006C
:100D5000A0FA0904000001030101000921110100AA
:100D6000012240000705810308000A09040100016F
:100D70000300000009211101000122320007058251
:100D80000320000A080B020201010000090402000E
:100D90000001010000092401000109000103090408
:100DA00003000201030000072401000141000624A2
:100DB00002010100062402020200092403010301CA
:100DC00002010009240302040101010009050402D3
:100DD00040000500000525010101090583024000CE
:100DE00005000005250101031201100100000008A3
:100DF000EDFEB0F401000102000105010980A1012E
:100E0000850319012AB700150126B7009501751051
:100E10008100C0050C0901A101850419012AA00265
:100E2000150126A002950175108100C00501090673
:100E3000A101050719E029E71500250195087501AD
:100E400081029501750881010507190029FF150028
:100E500026FF0095067508810005081901290595EA
:100E60000575019102950175039101C011241FBE02
:100E7000CFEFDAE0DEBFCDBF04B603FE27C080911E
:100E8000550690915606A0915706B09158068730A6
:100E9000904BA740B04BD1F41092550610925606D5
:100EA000109257061092580614BE84B7877F84BFED
:100EB0000FB6F894A89580916000886180936000D7
:100EC000109260000FBEE0E0F8E3099511E0A0E0A9
:100ED000B1E0E2EDF9E602C005900D92A43DB10744
:100EE000D9F726E0A4EDB1E001C01D92A535B20707
:100EF000E1F70E941F2E0C9438340C940000CF921E
:100F0000DF92EF920F931F93CF93DF93C82FC80107
:100F1000D091D803DF776A01C20ED11CF60110818F
:100F2000FB012281222309F11F3F71F40E9420104E
:100F3000182F2D2F482F6C2F8BE595E0EE2061F0B8
:100F40000E94F028F6011083DF91CF911F910F913D
:100F5000EF90DF90CF9008950E94F0282D2F4CE065
:100F6000410F6C2F8BE595E0EBCF1F3F49F02D2F04
:100F7000412F6C2F8BE595E0EE2031F00E94002987
:100F80008FEFF6018083E0CF0E9400294CE0410FF3
:100F90002D2F6C2F8BE595E0F1CF8F929F92AF9222
:100FA000CF92EF920F931F93CF93DF93C82FC80177
:100FB0001091D8031F774A01820E911CF401D08151
:100FC000FB012281222349F1DF3FE9F40E94201036
:100FD000D82F4E2D480F212F6C2F8BE595E00E94C6
:100FE000F0284C2D4D0F212F6C2F8BE595E00E94A2
:100FF000F0284A2D4D0F212F6C2F8BE595E00E9494
:10100000F028F401D083DF91CF911F910F91EF90E1
:10101000CF90AF909F908F900895DF3FC1F04E2DFD
:101020004D0F212F6C2F8BE595E00E9400294C2D50
:101030004D0F212F6C2F8BE595E00E9400294A2D42
:101040004D0F212F6C2F8BE595E00E9400298FEF2B
:10105000F4018083D8CFEF92FF920F931F93CF9329
:10106000DF93D82FCB01FA01B90121ED280FC091F0
:10107000D803CF77EE2019F0CF31F8F0CE517B01B5
:10108000E20EF11CD7014C9122812223C1F04F3F87
:1010900069F40E942010182F402F480F2C2F6D2F1D
:1010A0008BE595E00E94F028F7011083DF91CF9146
:1010B0001F910F91FF90EF900895C0E0E0CF4F3F58
:1010C00039F0400F2C2F6D2F8BE595E00E94002901
:1010D0008FEFD7018C93EACF0F93FC01862F642FFB
:1010E000422F202F0F3F51F09281992319F00F9139
:1010F0000C94701640E060E080E0F9CF0F91089505
:101100000F931F93CF93DF938B01D82FC92F49E003
:101110000E94B623682F80E00E943F1648E0B80185
:101120008D2F9C2F0E94B623682F81E00E943F16CE
:10113000B8018D2F9C2FDF91CF911F910F910895B2
:101140008091D703807F82608093D7038091D803FA
:10115000807885678093D803EEE1F2E08FEF81938A
:1011600092E0EA35F907D9F7E6EDF1E08FEF8193E8
:10117000A2E0EE31FA07D9F70E9467266093A10337
:101180007093A2038093A3039093A4038CE991E04E
:101190009093B0028093AF0240E060E080E00C9456
:1011A000A915CF93DF9300D000D0CDB7DEB7E1EA29
:1011B000F3E09081892F8E7F90FF81608083809102
:1011C000A1039091A203A091A303B091A4038983EA
:1011D0009A83AB83BC83BC01CD010F900F900F901D
:1011E0000F90DF91CF910C946B2680915C02882345
:1011F00029F010925C0210925D02089581E08093C4
:101200005C0282E080935D0208951092A103109227
:10121000A2031092A3031092A40360E070E0CB013C
:101220000E946B2680E00C94210B0F93CF93DF93E9
:1012300000D000D000D0CDB7DEB78E839D83062FBF
:101240008091860390918703A0918803B0918903D0
:10125000BC01CD010E94A80B8230E9F068F420E5C2
:101260004FEF6CE1811103C020E54FEF65E58E8102
:101270009D810E946C0805C020E54FEF6FEB853023
:10128000B1F326960FB6F894DEBF0FBECDBFDF9147
:10129000CF910F91089520E54FEF6BE2E8CF0F93C8
:1012A000CF93DF9300D000D000D0CDB7DEB78E83D0
:1012B0009D83062F8091860390918703A0918803D8
:1012C000B0918903BC01CD010E94A80B8230E9F0E6
:1012D00068F420E54FEF6BE2811103C020E54FEF8A
:1012E0006AE68E819D810E946C0805C020E54FEF63
:1012F00065ED8530B1F326960FB6F894DEBF0FBECC
:10130000CDBFDF91CF910F91089520E54AED6EE1B9
:10131000E8CFAF92CF92EF92FF920F931F93CF93AC
:10132000DF93DC01EB018981088110E09AE0899F5D
:10133000000D111D1124F801EC5DFE4FF490F80131
:10134000E455FF4F149127ED2A0FA1378DE5B8071B
:1013500008F058C0A5339DE5B907E0F4A7378CE540
:10136000B807C0F5AF329CE5B90708F0D2C0A83A7B
:1013700089E4B80709F40AC128F5A83EB105A8F424
:101380001497B0F00F2D20E54FEF60E0CE010E94E2
:101390006C080EC0FD01E154FD45E033F10508F095
:1013A0008CC0E65CFB4C0C94E133A139B84451F39A
:1013B00081E0DF91CF911F910F91FF90EF90CF903F
:1013C000AF900895A83091E5B907E1F2A631BC4588
:1013D000C9F2EECFCD0189529D450C9748F7E090B8
:1013E000A103E0FAEE24E0F88D010E5E11094EE152
:1013F00052E080915D020E947F076F2DCE010E9416
:101400001509D6CFA235B24799F6BCCF8A81882379
:1014100079F280E00E94210BCBCF8A81882341F2B0
:1014200081E0F8CF8A81882319F282E0F3CF8A81A4
:10143000882309F4BDCF83E0EDCF8A81882309F4A6
:10144000B7CF84E0E7CF8A81882309F4B1CF85E064
:10145000E1CF8A81882309F4ABCF0E94D108A8CFBD
:101460008A81882309F4A4CF0E94F508A1CF8A813C
:10147000882309F49DCF81E080935A0210925B0289
:1014800097CF8A81882309F493CF10925A02F6CF1E
:101490008A81882309F48CCF10925A0281E08093CC
:1014A0005B0286CF8A81882309F482CF8091000174
:1014B00091E08927809300017BCF8D010E5E110999
:1014C00077E0A72EE4E0CE2EE12C4EE152E0BE0103
:1014D00080915C020E94CD076F2DCE010E944F09C2
:1014E00067CF8D010A5F110967E0A62E53E0C52E74
:1014F000EBCF8D01065011409AE0A92E37E0C32EA4
:1015000044E0E42EE2CF8D010251114086E0A82E86
:10151000EDCF80915B02882399F0E09000010CE010
:1015200026ED31E0AB01BD0180E00E942B080F2DBC
:1015300020E54FEF60E0CE010E946C08012F23CF21
:1015400080915A028823B1F0E090000104EF26ED6B
:1015500031E0AB01BD0180E00E942B080F2D20E59A
:101560004FEF60E8CE010E946C08012F20E54FEF9D
:1015700060E80CCF0F2D20E54AED6EE1CE010E9410
:101580006C08012F20E54AED6EE100CF0F2DFACF58
:10159000813031F489EA611101C08AEA0C94BD1DE1
:1015A000089581E008950C94890908950C94D50A52
:1015B0001F93CF93DF9300D000D00F92CDB7DEB74B
:1015C00049835A836B833091FE0289819A8131115C
:1015D0001DC06623B9F02223A9F00E945925182FB7
:1015E000682F89819A810E94022569817A81812FE1
:1015F0000F900F900F900F900F90DF91CF911F9150
:101600000C94020C0E943025182FEFCF0E94592510
:1016100069817A81EDCFFC01262F40815181628161
:10162000738184810C94D80ACF93DF93D82FC92F6C
:1016300060E00E940B0B6D2F7C2FDF91CF910C94FB
:10164000D60ACF93DF9300D000D0CDB7DEB721E02C
:1016500030E002C0220F331F8A95E2F73A832983D4
:1016600089810E944126A981BA81CD01B0E0A0E024
:1016700089839A83AB83BC83BC01CD010F900F900B
:101680000F900F90DF91CF910C9429230E942E266A
:10169000811102C00E94D6260C94C50D0C94C80D71
:1016A00008950E9416200E94500B2FEF84E39CE0C7
:1016B000215080409040E1F700C000000C94682861
:1016C0000F931F93CF93DF93EC0161E00E940B0B0C
:1016D0008C01BE010E94D30A882389F1BE01C80192
:1016E0000E942F10882359F1BE01C8010E9498184A
:1016F000882329F1BE01C8010E94ED188823F9F062
:10170000BE01C8010E94C0198823C9F0BE01C801EA
:101710000E949316882399F08A81882339F0011555
:101720008CE5180751F00F3D1C4579F0CE01DF9193
:10173000CF911F910F910C94D10A0E94510B80E020
:10174000DF91CF911F910F9108950E94D626F7CF78
:101750000F931F93462F572FBC01CB01AA27BB27FE
:101760000097A105B105E9F1AC01BD0180E1052FAC
:10177000162F272F3327011511052105310519F0E3
:10178000885FB901A8018A019B01F4E0369527958D
:1017900017950795FA95D1F7011511052105310522
:1017A00019F08C5FB901A8018A019B01E2E036952E
:1017B000279517950795EA95D1F70115110521058C
:1017C000310519F08E5FB901A80176956795579597
:1017D0004795452B462B472B09F08F5F1F910F91A3
:1017E000089580E0C4CF08950C94F30B81E0089530
:1017F0000C94F60BCF93C82F0E94F40B8C2FCF9133
:101800000C94F80B972F70E02AE0929F600D711DE9
:101810001124FB0198E7899FE00DF11D1124EE0FC3
:10182000FF1FEE5BFD4F859194910895CF93DF9359
:101830000E94020C0E94E90CEC01811521E592073F
:10184000A8F5811530E5930708F084C08F3B91051A
:10185000B8F4883A910508F072C0853A910568F4A9
:10186000049738F491E080E0219709F090E0C92FC7
:10187000D82FCE01DF91CF910895A497D064F9CFEE
:10188000811540E2940758F48F3F910509F088F7DD
:10189000805E9109089768F3D0E0C0E0EACF9054E9
:1018A00081159041C8F7DF70D06AE3CF811539E523
:1018B000930768F5811548E5940708F078C0C115CD
:1018C00083E5D80750F4C11592E5D90708F05EC04A
:1018D000DC2FCC27C16FD06ACCCFCE0193558F3F80
:1018E000910509F0C8F6CE018370992721E030E018
:1018F00002C0220F331F8A95E2F7C695C69590E283
:10190000C99FE0011124C22BD32BDA68B2CF811515
:101910002AE5920708F450C090568115904208F0CD
:10192000BBCF8D2F8F710E94810D90E0982F88275B
:1019300088279F719C012C2BE901D0629ACFC85A4D
:10194000D0E0CC0FDD1FC45BDE4F0990D881C02DE5
:10195000D4648FCF54E0969587955A95E1F78370BC
:101960002C2F26952695237040E2249F9001112468
:10197000382B8C2F8370C1E0D0E002C0CC0FDD1F6C
:101980008A95E2F7C22BD32BDC6873CFCE0183702C
:10199000992721E030E002C0220F331F8A95E2F739
:1019A000C695C69580E2C89FE0011124EBCFD82FE1
:1019B000CC27C06FD06A5DCF8F700E94810D34E05C
:1019C000D695C7953A95E1F7CF70DC2FC82FD0692F
:1019D00050CF803E910599F1C8F48133910509F407
:1019E00076C048F48932910509F46AC08A329105BB
:1019F00009F474C0089589339105D1F082389105B6
:101A0000B9F08533910509F454C00895843E9105D9
:101A100099F138F4823E9105F9F0833E910509F180
:101A20000895863E910599F1873E9105B9F1089593
:101A3000209159052370A1F080EE90E00895209147
:101A4000590520FD52C030915A0530FF09C024FFCE
:101A50004FC090E080E004C02091590522FDF7CFEF
:101A600008952091590522FD46C030915A0530FD58
:101A7000E3CF24FFF5CFEDCF20915A0521FFF0CF22
:101A80008091590584FDE5CF87EE90E0089520917F
:101A9000590523FFE5CF24FDDCCFF6CF2091590572
:101AA00023FD2CC030915A0531FFE3CF84EE90E046
:101AB00008952091590525FFD3CF89E290E008953C
:101AC0002091590525FFCCCF85E390E00895209122
:101AD000590526FFC5CF8AE290E008952091590567
:101AE00026FFBECF81E390E0089589E390E008955A
:101AF00083EE90E0089582EE90E0089586EE90E007
:101B000008959091590592FF06C0282F287128301A
:101B1000F9F4877F846093FF06C0282F287128314D
:101B2000F1F4877E846120915A0520FF06C0382F8A
:101B300038713830D9F4877F816021FF06C0282FA3
:101B400028712831D1F4877E816194FD877E0895C4
:101B5000282F24712430F9F68B7F8860DCCF282F62
:101B60002471243101F78B7E8861DDCF382F3171EC
:101B7000313019F78E7F8860E0CF282F2171213115
:101B800021F78E7E8861E1CF08950C94C40D0895ED
:101B90000C94C70DE82FF0E0EE0FFF1FE354FC4F4D
:101BA000808191810895089580EA8A95F1F70895DA
:101BB00000C008950C94D40DF894E82FE295EF70CE
:101BC000F0E041A18F7021E030E0B90102C0660F62
:101BD000771F8A95E2F7CB01962F9095942391A3D6
:101BE00092A1892B82A37894089508950F931F934F
:101BF000CF93DF93CDB7DEB766970FB6F894DEBF0D
:101C00000FBECDBF0E94F20F80911701811131C02C
:101C100087E0E0E4F1E0DE01119601900D928A95F3
:101C2000E1F7FE01389685E0DF011D928A95E9F71C
:101C3000CE010196EBE0F1E09E01235F3F4FDC0116
:101C40004D91CD014193A217B307C9F72AE0EAE706
:101C5000F1E0DE011D9601900D922A95E1F7FC015D
:101C6000A1E0B1E0CE01479621912D93E817F90745
:101C7000D9F78091170196E0811190E09093D603F7
:101C800086E0891B8093D5030BE011E0F801819178
:101C90008F010E94DC0DF1E001311F07B9F701E06F
:101CA00011E0D8018D918D010E94DC0DB1E00B3067
:101CB0001B07B9F7E5EAF3E0ADEBB3E0119211923F
:101CC0001D921D9283E0ED3BF807C1F786E00E946C
:101CD000960F0E94460B66960FB6F894DEBF0FBEB5
:101CE000CDBFDF91CF911F910F910C94FC0FCF923C
:101CF000DF92FF920F931F93CF93DF93CDB7DEB7A1
:101D00002C970FB6F894DEBF0FBECDBF0E94D00F48
:101D1000F82E6091D603882309F463C08E010F5F0B
:101D20001F4F8CE0F80111928A95E9F7862F90E019
:101D3000880F991FB80183549C4F0E94F619811196
:101D40002AC080915E028F5F80935E02863008F425
:101D500046C0E091D503F0E0EE0FFF1FE354FC4FC7
:101D6000D801CE010D96119211921D921D92A817C5
:101D7000B907C9F70E944E0B8F2D2C960FB6F89419
:101D8000DEBF0FBECDBFDF91CF911F910F91FF90AE
:101D9000DF90CF90089510925E02E091D503F0E0BD
:101DA000EE0FFF1F9F0123543C4F6901D801AE0184
:101DB000435F5F4FF12CF601619171916F012D919D
:101DC0003D916217730739F0BF0162507109FB0141
:101DD00031832083F82EA417B50769F7CBCFF12CF8
:101DE000C9CF70E0660F771F63547C4F8091D50395
:101DF00090E0880F991F83549C4F0E94321A0E94D2
:101E0000F50DBACF8F929F92AF92BF92CF92DF9291
:101E1000EF92FF920F931F93CF930BE011E095EA9F
:101E2000E92E93E0F92E21E1A22E21E0B22EC0E0AE
:101E3000CC24C394D12CF80181918F01F894E82F20
:101E4000E295EF70F0E021A18F70A60102C0440F6F
:101E5000551F8A95E2F7CA01922F982B91A392A160
:101E60008095892382A378940E94D80DE1E0F1E067
:101E700030E020E0912C812C4191A42FA295AF70ED
:101E8000B0E090968C9190E04F7002C09595879548
:101E90004A95E2F780FD45C0C601022E02C0880FB8
:101EA000991F0A94E2F7882A992A2F5F3F4F2A3018
:101EB000310511F7F801319780810E94DC0D0E94F5
:101EC000DA0DF701808191818816990669F1918276
:101ED000808281E0C82BF2E0EF0EF11CA016B10663
:101EE00009F0A9CF6091D60370E0660F771F6354A5
:101EF0007C4F2C2F46E085EA93E00E94970F0E94CA
:101F0000770EC11101C0C82F8C2FCF911F910F9157
:101F1000FF90EF90DF90CF90BF90AF909F908F9009
:101F2000089590E080E0BFCF80E0D4CF0895FF9285
:101F30000F931F93CF93DF93F82E092F162FD72FD0
:101F4000C42F222349F081E0809361020E94A627DA
:101F50009093600280935F02809161028823A1F0D8
:101F600080915F02909160020E94D227069760F0F4
:101F7000EF2DF02FA12FBD2F90E080E0D0E08C1747
:101F80009D0744F010926102DF91CF911F910F9154
:101F9000FF900895219131912D933D930196EFCFBC
:101FA00080916202811110C08091D800806180937D
:101FB000D8008AE18A95F1F700C08091D90080FDB0
:101FC0000AC082E08093620281E0909162029130C7
:101FD00009F080E0089581E0F5CF0E94D00F91E0F4
:101FE000892708950E94ED0F809317010E94D00F5A
:101FF00081110C94EA1908950E94D00F811102C03A
:102000000C94F019089584E08093D7038FE78093B0
:10201000D8038091D903807880648093D903E7E660
:10202000F2E08FEF819392E0EF3AF907D9F710923F
:102030006602109265021092640210926302089583
:102040009091D703292F2F709595959595959595F6
:102050009F523CE0239F900D1124890F08950F9308
:102060001F93CF93DF9300D00F92CDB7DEB7DB0184
:1020700087372CE59207B0F48F324CE59407D8F4FB
:1020800081E08A838A810F900F900F90DF91CF912A
:102090001F910F910895E659FB4C12962C912A83BB
:1020A0000C94E133FC01E757FC45E534F10598F366
:1020B00041E04A83E7CF2091D803322F331F3327E3
:1020C000331FE091D903E770EE0FE32BEB832F77FB
:1020D00029831296FC91FA8301ED080F10E009594B
:1020E0001D4FF8014081FA81FF2391F04F3F11F01D
:1020F0001A82C8CF0E9420108A832981482F6B81C1
:102100008BE595E00E94F0282A81F8012083F0CF2A
:102110004F3F31F029816B818BE595E00E940029CA
:102120008FEFF8018083AECF2A81222309F38757EE
:10213000982F9F708091D703807F892B8093D7033E
:10214000D7CF4A814423A1F28091D703982F9F7063
:1021500079F2915F9F70F0CF8A81882349F2809154
:10216000D703982F9F70993018F69F5FF3CF2A817D
:10217000222309F4BDCF8958982F9295907F8091A2
:10218000D7038F70DACF4A81442309F4B1CF80910D
:10219000D703982F9595959595959595803B0CF43B
:1021A000A7CF915F9295907FECCF8A81882309F425
:1021B0009FCF8091D703282F259525952595259587
:1021C00080360CF095CF91E0920F9295907F959587
:1021D000959595959595392F3295307F8F70832BF6
:1021E0008093D70312160CF083CF97FF81CF2295EF
:1021F000207F8F70822BA2CF2A81222309F478CFEF
:1022000082599CE0899F902D11249F778091D8035B
:10221000807815C04A81442309F46ACF8091D8039D
:10222000982F9F7709F464CF80789F3721F48567D2
:102230008093D8035DCF9D30D8F39D509F77892B35
:10224000F7CF8A81882309F453CF8091D803982F40
:102250009F779F3709F44CCF933718F4935F9F779C
:10226000D7CF8F67E5CF2A81222309F441CF8F5939
:102270009091D80380FB97F99093D8038695877047
:102280009091D903987F892BB3C04A81442309F4E4
:102290002FCF2091D803322F331F3327331F909134
:1022A000D903892F8770880F832B815F382F3F7068
:1022B00080FB27F92093D803832F8695987F982B4E
:1022C0009093D90315CF8A81882309F411CF2091E7
:1022D000D803322F331F3327331F9091D903892F0F
:1022E0008770880F832B8F5FE1CF2A81222309F427
:1022F000FFCE6091D803862F881F8827881F6091A2
:10230000D9036770660F682B20E04BE78BE595E0FB
:102310000E94E028EDCE4A8120E041112FE7609134
:10232000D803862F881F8827881F6091D90367707C
:10233000660F682B40E4EACF8A8120E081112FE705
:102340006091D803862F881F8827881F6091D90342
:102350006770660F682B41E4D9CF2A8121112FE7DE
:102360006091D803862F881F8827881F6091D90322
:102370006770660F682B42E4C9CF4A81411111C0D2
:1023800020E06091D803862F881F8827881F6091DE
:10239000D9036770660F682B43E4B8CF8A8188231E
:1023A00079F32FE7EECF2A818FEF211181E080931F
:1023B00065029ECE4A81442309F49ACE9091D903B6
:1023C000292F2695269526952F7081E0820F8F70F4
:1023D000880F880F880F9778892B8093D903982FBF
:1023E000987709F085CE220F220F220F8778822B53
:1023F0008093D9037DCE8A81882309F479CE809198
:10240000D903982F987709F473CE982F96959695BF
:102410009695915F9F70990F990F990F877833CF99
:102420006091D803862F881F8827881F6091D90361
:102430006770660F682BEA8140E050EEE11117C02B
:1024400050E040E08BE595E00E9410291BCE6091A2
:10245000D803862F881F8827881F6091D90367704B
:10246000660F682BFA81FF2359F34FEF5FE18BE58D
:1024700095E00E9410293CCE8BE595E00E940F2B41
:1024800080916302909164020E94D2279C019091F6
:10249000D9039695969596959F709217130609F015
:1024A000A0F50E94A6279093640280936302809116
:1024B0006502882351F16091D803862F881F8827F1
:1024C000881F6091D9036770660F682B20916602A0
:1024D00041E08BE595E00E94E028809165029091B3
:1024E000660287FF0DC0482F552741950CF4509583
:1024F000941715062CF41092660210926502089546
:10250000890F87FD03C08093660208958FE7FBCF94
:10251000CF92DF92EF92FF920F931F93CF93DF93AF
:10252000D62FC72F982F711113C0442329F0E82FFD
:10253000F0E0E35EF34F9491692F792F892FDF91BB
:10254000CF911F910F91FF90EF90DF90CF90089562
:10255000272F30E0E82FF0E0442321F0E35EF34F33
:10256000E491F0E086E0D89F700111240FEF10E0B5
:10257000C701B8010E94B9338D2F90E0880F991FD1
:10258000A5E5A69FA001A79F500D1124841B950BC4
:10259000D82EDD0CD80EC801821B930B8E9FA00194
:1025A0008F9F500D9E9F500D1124952FDC9EE001B2
:1025B0001124CD2FDD27D801AC1BBD0BED01CE9F23
:1025C000D001CF9FB00DDE9FB00D11248B2FE801FD
:1025D000CD19D1096E01C29EE001C39ED00DD29EDD
:1025E000D00D1124CD2FDD270C1B1D0B0E9FE001FC
:1025F0000F9FD00D1E9FD00D11242E2F633071051B
:10260000D9F03CEFE31633E0F30668F4613071056E
:10261000B9F062307105C1F0AFEFEA16F10448F489
:10262000852F9D2F06C06430710589F066307105D5
:10263000B9F3692F722F83CF9B2F8E2F252FF9CFC0
:102640009E2F2B2F852FF5CF8D2F9E2FF7CF8E2FDF
:102650002D2FEFCF41E00C9488120C942A13CF93C6
:10266000DF93982F762F842FE901692F0E942D1375
:10267000798368838A83DF91CF910895413508F08B
:1026800040E50C942F138091DB03982F9E7F71F40B
:102690008091DB03817082608093DB038091DE0395
:1026A000813518F080E58093DE030895843080F74B
:1026B000F5CF88E090E00C94F8330F931F93CF93FD
:1026C000DF938B01D82FC92F0E944313A8016D2FD0
:1026D0007C2F88E090E0DF91CF911F910F910C94B7
:1026E0001634CF93DF9300D000D0CDB7DEB7EBED3B
:1026F000F3E083E0808311828FEF828380E5838320
:10270000148280819181A281B38189839A83AB8372
:10271000BC83BC01CD010F900F900F900F90DF9103
:10272000CF910C945D13CF93DF9300D000D0CDB741
:10273000DEB79091DF03933018F49F5F9093DF032F
:102740008823B1F08091DB039091DC03A091DD033D
:10275000B091DE0389839A83AB83BC83BC01CD0136
:102760000F900F900F900F90DF91CF910C945D130D
:102770000F900F900F900F90DF91CF91089581E00F
:102780000C949313CF93DF9300D000D0CDB7DEB776
:102790009091DF03992319F091509093DF038823E0
:1027A000B1F08091DB039091DC03A091DD03B09147
:1027B000DE0389839A83AB83BC83BC01CD010F9078
:1027C0000F900F900F90DF91CF910C945D130F90AD
:1027D0000F900F900F90DF91CF91089581E00C94AE
:1027E000C21321E030E001C0220F8A95EAF79091F0
:1027F000B402922381E009F480E0089570E00C9423
:10280000EA166F927F928F929F92AF92BF92CF9271
:10281000DF92EF92FF920F931F93CF93DF93CDB789
:10282000DEB7C157D1400FB6F894DEBF0FBECDBFA3
:10283000709019019091DB0390FF47C0C090AF02E8
:10284000D090B002C114D10409F052C0E2EAFBE01A
:102850009E012F5F3F4FBE016E587E4FC901A4916C
:102860004A2F50E0DA01AA0FBB1FA40FB51FA052D8
:10287000BC4FCD90DD90EC90D901CD92DD92ED92E0
:102880009D0131966A177B0751F720911801672D3A
:10289000B3E02B9F800D911D11240E94FE13CF5891
:1028A000DE4F0FB6F894DEBF0FBECDBFDF91CF91E4
:1028B0001F910F91FF90EF90DF90CF90BF90AF905E
:1028C0009F908F907F906F90089580911A01209132
:1028D0001B0133E0839FF0011124E052FC4F82176B
:1028E00008F0ACCF1182108212828F5F3396F7CF3F
:1028F00090FFACCFF12CE12C43E0642E8E2D0E9492
:10290000F113882309F43CC0F701EE0FFF1FEC0D13
:10291000FD1DA590B490A114B10409F497CF45E032
:1029200050E0B501CE0101960E94E73309810F3FC7
:1029300039F18A81800F9927991F8C37910514F0FE
:102940008BE790E04C01880C991C880D991DDC01E7
:10295000A052BC4F4D01069D8001112400521C4F16
:102960000815190520F0B5E0AB0EB11CD8CF9801C1
:102970004D816C818B810E943E130D5F1F4FF0CF04
:102980002FEFE21AF20A38E0E316F10409F0B6CFAD
:102990005DCFCF93DF9300D000D0CDB7DEB7EBEDA6
:1029A000F3E080818E7F808380819181A281B381D9
:1029B00089839A83AB83BC83BC01CD010E945D13E4
:1029C0009FEFA0E7B2E09150A040B040E1F700C017
:1029D00000000F900F900F900F90DF91CF910C940B
:1029E00001149091DB0390FF14C090911A01209183
:1029F0001B0133E0939FF0011124E052FC4F92172A
:102A000010F00C9401148183608342839F5F33969E
:102A1000F6CF0895EF92FF920F931F93CF93DF931A
:102A200000D000D000D00F92CDB7DEB7F82E062F21
:102A3000142FE22E9091DB0390FF2AC0E92FE69538
:102A4000F0E0EB57FE4F80818093B2029E7F923080
:102A500059F49E012F5F3F4F8F2D0E943E134B81F3
:102A600069818A810E94F114F092DC030093DD03F6
:102A70001093DE03EE2061F08091DB039091DC0384
:102A8000A091DD03B091DE03BC01CD010E945D1376
:102A900027960FB6F894DEBF0FBECDBFDF91CF9162
:102AA0001F910F91FF90EF900895282FEBEDF3E029
:102AB000818143816281885F0C940A1581E00C94C6
:102AC0005515282FEBEDF3E0818143816281885019
:102AD0000C940A1581E00C946115282FEBEDF3E0BE
:102AE000628131E1630F08F46FEF438181810C94BF
:102AF0000A1581E00C946D15282FEBEDF3E062814F
:102B000031E1631B08F460E0438181810C940A1574
:102B100081E00C947C15282FEBEDF3E0438131E14B
:102B2000430F08F44FEF628181810C940A1581E014
:102B30000C948B15282FEBEDF3E0438131E1431B1F
:102B400008F440E0628181810C940A1581E00C94C4
:102B50009A1521E00C940A1520E00C940A15CF93E5
:102B6000DF9300D000D0CDB7DEB78091DB0380FFCC
:102B700024C0817082608093DB03662381F08091A2
:102B8000DB039091DC03A091DD03B091DE03898328
:102B90009A83AB83BC83BC01CD010E945D1340913D
:102BA000DE036091DD038091DC030F900F900F90A6
:102BB0000F90DF91CF910C94AC150F900F900F9068
:102BC0000F90DF91CF910895682F81E00C94AF159D
:102BD00081E00C94E415682F9091DB0396958FEFBC
:102BE000890F913009F481E00C94AF1581E00C94C9
:102BF000EB1561E00C94AF15EBEDF3E080818160A3
:102C0000808386950C94F9158091DB0380FD0C94EC
:102C1000C9140C94FC1560E00C94AF158091B102BE
:102C200081112CC00E942E26811104C00E94D6263C
:102C30000E9471130E9459136093DB037093DC03AD
:102C40008093DD039093DE036E7F61F40E94711325
:102C50000E9459136093DB037093DC038093DD03C0
:102C60009093DE030E9443138091DB0380FF03C037
:102C700086950E940B1681E08093B102089521E0B1
:102C800030E0A90102C0440F551F8A95E2F7CA013E
:102C90002091B402662361F0822B8093B40280916C
:102CA000B302811108C08091DB0386950C940B164A
:102CB00080958223F2CF08959091DB0390FF0FC09F
:102CC0002B3768F430E0F901EE0FFF1FE20FF31F1E
:102CD000E052FC4F8183608342830C940114089579
:102CE0001F93CF93DF9300D00F92CDB7DEB7122F93
:102CF0009091DB0390FF0BC09E012F5F3F4F0E941E
:102D00003E13212F4B8169818A810E945C160F90AE
:102D10000F900F90DF91CF911F910895FA018111CB
:102D20000994FB01FDCF1F93CF93DF93EC01FB01CF
:102D30001281111110C00E9404268272FE01E35C10
:102D4000FC45E431F10508F043C0E155FB4C0C941F
:102D5000E1330E940416812FDF91CF911F910895D6
:102D600046EF55E168EE75E10E948E16F4CF48EE0D
:102D700055E166EF75E1F8CF4AE655E16EE575E19C
:102D8000F3CF4EE555E16AE675E1EECF48E855E14F
:102D900069E775E1E9CF49E755E168E875E1E4CF16
:102DA00046EA55E167E975E1DFCF47E955E166EAB3
:102DB00075E1DACF4EEE53E16FEB73E1D5CF4FEB18
:102DC00053E16EEE73E1D0CF81E00E94F915C3CFDD
:102DD00011E0C1CF9C01AB01539A6BB1677F7BB10E
:102DE0007860EFB7F894CA01880F991F840F951F78
:102DF000820F931F8217930741F4EFBF8FE594E092
:102E00000197F1F700C000000895D9014D919D018F
:102E100058E07BB9000000C047FF6BB9440F0000C9
:102E200000C000C000C06BB900C05A9591F7E2CF56
:102E30000C94C80A80911701811106C084E3809325
:102E40001E0186E380931D0120911E01A22FA295F1
:102E5000AF70B0E091963C9191972F7081E090E037
:102E6000BC01022E01C0660F0A94EAF7462F409576
:102E7000432391964C93919792963C919297362B3F
:102E800092963C93929740911D01E42FE295EF704A
:102E9000F0E031A14F70042E01C0880F0A94EAF7C8
:102EA000982F9095932391A392A1892B82A390961A
:102EB0008C9190E002C0959587952A95E2F78170F4
:102EC00020A130E002C0359527954A95E2F792E0BF
:102ED00020FF90E0892B8093BA029091170181E046
:102EE00098279093B602891B8093B5020895CF93DB
:102EF000E091BA02EE0FEE0F20911E01A22FA295D3
:102F0000AF70B0E090968C9190E02F7002C09595D4
:102F100087952A95E2F78170992740911D01A42F8A
:102F2000A295AF70B0E090962C9130E04F7002C047
:102F3000359527954A95E2F7A9014170552720FF5D
:102F400002C042E050E0842BE82BE093BA02C0912B
:102F5000B602EF70F0E0E957FE4F80819091B90220
:102F6000890F8093B90220E0843074F0EC2F0C2E8E
:102F7000000CFF0BE954FD4F80818F5F808360E080
:102F80008C2F0E94181721E08091B9028D3F74F4B4
:102F9000EC2F0C2E000CFF0BE954FD4F808181506B
:102FA000808361E08C2F0E94181721E08091B90284
:102FB000082E000C990B64E070E00E94CD338093E2
:102FC000B902822FCF910895E091B602F0E0E95462
:102FD000FD4F2081FC0120830895FF920F931F93E2
:102FE000CF93DF93D091B5020D2F10E009541D4F00
:102FF000FC01C081F8018081C81BFC2E80E01F14F9
:103000007CF09C2FC7FD90E0C91BC11114C0882320
:10301000E9F0DF91CF911F910F91FF900C94131C59
:10302000FA94F80180818F5F808360E08D2F0E9489
:10303000181781E0E4CFCF5FF80180818150808351
:1030400061E08D2F0E94181781E0DFCFDF91CF91D3
:103050001F910F91FF9008950F931F93CF93DF93CC
:10306000C42FD22FFC0182818823C9F04093BD0276
:103070000E94A6279093BC028093BB0280E28C0F33
:10308000883008F050C0C77081E001C0880FCA9531
:10309000EAF7DF91CF911F910F910C94C51D10910C
:1030A000BD02141335C08091BB029091BC020E94F6
:1030B000D227883C910560F5C0E2CD0F1D17B9F00D
:1030C00080E2810F883040F4177081E001C0880FE2
:1030D0001A95EAF70E94CC1DC83048F481E09D2F74
:1030E000977001C0880F9A95EAF70E94C51D802F3E
:1030F0000E94BD1DC830B8F4D77081E001C0880FB0
:10310000DA95EAF7DF91CF911F910F910C94CC1DC6
:1031100080E28C0F883038F4C77081E001C0880FDE
:10312000CA95EAF7EFCFDF91CF911F910F910895E4
:103130000F939C01CB01243F4CE53407A1F190F49F
:10314000293DFCE53F0749F12A3D4CE53407E9F10B
:10315000283D3C45C1F0FC0182818823E1F11092B9
:10316000BD0219C0263FFCE53F0719F1273F4CE59A
:10317000340729F1253F3C4571F707E225EE44EE7F
:1031800065EF7CE505C006E221EE41EE68ED7CE5E9
:103190000E942C1880E00F91089507E225EE45EE7D
:1031A00069ED7CE5F5CF06E221EE40EE64EF7CE5CB
:1031B000EFCF06E221EE42EE66EF7CE5E9CF07E2D3
:1031C00025EE46EE67EF7CE5E3CF08E221E045EE31
:1031D0006AED7CE5DDCF81E0DECFCF93DF93EC01BC
:1031E000FB018281882309F4C9C0C631FCE5DF07F1
:1031F000E0F4C2309CE5D907F0F00E944626909397
:103200005A0580935905C631ECE5DE0720F5C2303A
:10321000FCE5DF0798F48091590590915A050E94CA
:1032200054260E94162080E006C09E012B5F3C457C
:103230002930310510F3DF91CF910895FE01E3505D
:10324000FC45809159058160E331F10588F4ED5327
:10325000FB4C0C94E133CB5FDC45C930D105D8F68B
:10326000CA52DB4CFE010C94E13380915905826017
:1032700080935905D0CF809159058460F9CF809112
:1032800059058860F5CF80915A05816080935A0571
:10329000C2CF80915A058260F9CF80915905806133
:1032A000E7CF809159058062E3CF80915905806412
:1032B000DFCF0E941620809159058068D9CF809178
:1032C00059058C60D5CF80915A058360DFCF8091FE
:1032D00059058E7FCDCF809159058D7FC9CF8091C3
:1032E00059058B7FC5CF80915905877FC1CF8091CC
:1032F0005A058E7FCBCF80915A058D7FC7CF8091A5
:1033000059058F7EB5CF809159058F7DB1CF8091C2
:1033100059058F7BADCF0E941620809159058F777C
:10332000A7CF80915905837FA3CF80915A058C7FC9
:10333000ADCF8091590582FB992790F921E0922722
:1033400090FB82F990FB83F993CF80915A05982FD7
:10335000909591708E7F892B90FB81F997CF0E9479
:10336000162090915905892F97FB87F9805880CFB7
:1033700081E00E94D8264FCF80E0FBCF81E05BCF79
:10338000CF93DF93EB0186319C4511F50E94042613
:103390009A81992399F08A7A91E009F490E09093C8
:1033A000BE02811109C089E20E94D1250E94E52553
:1033B00080E0DF91CF91089585E3F6CF8091BE0242
:1033C000811104C089E20E94D825F0CF85E3FBCFAC
:1033D00081E0EFCF61E070E08FE191E00C94CA1AD8
:1033E00061E070E08FE191E00C94D11ACF93DF930C
:1033F00000D000D00F92CDB7DEB76D8379830E94E5
:103400006B1B9C0180E02115310521F5ED81F981CF
:10341000D901AA0FBB1FAC53BD4F8D919C918193D5
:1034200091932F5F3F4F2630310591F780ED92E069
:103430000E94ED170E943728DC01CB010296A11DE6
:10344000B11D8093C0029093C102A093C202B093B9
:10345000C30281E00F900F900F900F900F90DF91BB
:10346000CF910895CF93DF9300D000D000D0CDB797
:10347000DEB76E837D838091C0029091C102A091DE
:10348000C202B091C30289839A83AB83BC83BC011F
:10349000CD010E940E28EE81FD8190E080E0219117
:1034A0003191DC01AA0FBB1FAC53BD4F11963C9369
:1034B0002E9301968630910591F780ED92E0269645
:1034C0000FB6F894DEBF0FBECDBFDF91CF910C9445
:1034D000E4178EE14A9B02C08150E1F74A9BFECF80
:1034E00008955A9880E28A95F1F75A9A0895FC0156
:1034F0003BE03A95F1F798E020E080E031E040E1F0
:103500004A95F1F7880F4A9B02C08160232742E069
:103510004A95F1F7000040E14A95F1F7915079F7AB
:1035200090E19A95F1F799B132E03A95F1F7000000
:1035300040E14A95F1F792FB992790F99227208173
:10354000920F90830895EF92FF920F931F93CF9362
:10355000DF930F92CDB7DEB719828C017C01E60EA6
:10356000F11C0E151F0561F481E09981911180E035
:103570000F90DF91CF911F910F91FF90EF900895E1
:103580000E94691ACE0101960E94771AF801819370
:103590008F01E7CF9093D2028093D102529A5A9A28
:1035A00008959093D2028093D10252985A9AEA9A3F
:1035B000E9E6F0E080818F7C808308956150770B8D
:1035C00091E001C0990F6A95EAF720E031E091118E
:1035D00008C0222391F05A9A80E28A95F1F75A980E
:1035E0000895492F482339F05A9A232740E24A95F3
:1035F000F1F79695ECCF5A98F9CF5A98EDCFFF9204
:103600000F931F93CF93DF93EC018C01060F111DD5
:10361000C017D10731F4DF91CF911F910F91FF9027
:103620000895F9900E94711A68E08F2D0E94DE1AA9
:10363000EFCF1F920F920FB60F9211242F933F934B
:103640004F935F936F937F938F939F93AF93BF93AA
:10365000CF93DF93EF93FF935A98529AC091D10280
:10366000D091D2026D81662321F08E819F810E94CC
:10367000FF1A0E94711A80E18A95F1F75A985298C0
:103680005A9A80E18A95F1F76A81662309F18B8164
:103690009C810E94A31AE881F981882311F088E0B7
:1036A00001C082E080830E94691AFF91EF91DF914F
:1036B000CF91BF91AF919F918F917F916F915F91CA
:1036C0004F913F912F910F900FBE0F901F90189523
:1036D000E881F981E4CFCF93DF93C091D102D091FB
:1036E000D202F894529A5A9885E08A95F1F7000030
:1036F00052985A9A80E28A95F1F74A9B0CC0529AE6
:103700005A9AE881F98181E08083789481E090E0A1
:10371000DF91CF9108956D81662381F08E819F8125
:103720000E94A31A81110AC0529A5A9AE881F9811B
:1037300082E08083789482E090E0EACF0E94691A68
:1037400080E28A95F1F75A98529A80E18A95F1F7CA
:103750006A81662321F08B819C810E94FF1A0E945E
:10376000711AE881F9811082789490E080E0D0CFDE
:103770009093D8028093D7020895E091D702F091F8
:10378000D802309721F00190F081E02D099480E07B
:103790000895E091D702F091D802309721F002808D
:1037A000F381E02D099408952091D5023091D6023D
:1037B0002817390771F09093D6028093D502E091D3
:1037C000D702F091D802309721F00680F781E02DE2
:1037D000099408952091D3023091D4022817390713
:1037E00071F09093D4028093D302E091D702F091CC
:1037F000D802309721F00084F185E02D09940895D6
:103800000E94B2276093FA027093FB028093FC023D
:103810009093FD026093F6027093F7028093F80292
:103820009093F90208950E94B2276093FA02709370
:10383000FB028093FC029093FD026093F20270936E
:10384000F3028093F4029093F502089585B780689F
:1038500085BF85B7806885BF0895089508950C9445
:103860002D1C0C94A0080E94261C8CE296E20E945B
:1038700079280E942E1C0C942F1C0C94D00F0895B4
:1038800008950E949D270E9405280E94F60D0E941F
:103890007E280E940E160E941A170C94311C8F92DB
:1038A0009F92AF92BF92CF92DF92EF92FF920F93CF
:1038B0001F93CF93DF9300D000D00F92CDB7DEB728
:1038C0000E943F1C0E94401C0E94020F81110E9416
:1038D000001C5AED852E52E0952E10E000E0A02E3F
:1038E000802F0E94CA0D7C01F401C190D1904F013C
:1038F000C816D90609F460C08091950381FD0E9425
:10390000D30DC6018E259F25B12CCC24C394D12C78
:103910009C012C213D21232B09F448C00E943D1C11
:103920008823A9F0B982AA82EC20FD2081E0EF284B
:1039300009F480E08B830E94A6278160782F9D8305
:103940008C8349815A816B818D810E94051D000FF6
:10395000111FF801E652FD4F80819181C826D926BA
:10396000D182C0820E94771781110E94131C0E948D
:103970003C120E94BD1B9091D9028917A1F10E94AF
:10398000BD1B8093D9020F900F900F900F900F9056
:10399000DF91CF911F910F91FF90EF90DF90CF902B
:1039A000BF90AF909F908F900C94FA0BB394CC0C77
:1039B000DD1CFAE0BF12ACCF0F5F1F4F0C301105BA
:1039C00009F08DCF8FEF89838A831B820E94A627FF
:1039D0008160782F9D838C8349815A816B818D8191
:1039E0000E94051DBFCF0F900F900F900F900F906A
:1039F000DF91CF911F910F91FF90EF90DF90CF90CB
:103A0000BF90AF909F908F900895DF92EF92FF92BA
:103A10000F931F93CF93DF93CDB7DEB72B970FB6DE
:103A2000F894DEBF0FBECDBF7A878B87F42E052FAB
:103A3000162FE72ED82E61110E9426267E2DEC82AD
:103A4000DD824F2D502F612F8D2D90E02B960FB6DC
:103A5000F894DEBF0FBECDBFDF91CF911F910F91C4
:103A6000FF90EF90DF900C947922FC01808191818E
:103A70000C949B25CF93C82F8823F1F18CEF8C0FEA
:103A8000813AA0F46C2F80912701909128010E9427
:103A9000DD26882329F08C2F0E94D8250E94E52559
:103AA0008C2F0E94D125CF910C94E52580E28C0FBC
:103AB000883048F4C77081E001C0880FCA95EAF7E2
:103AC0000E940726F0CF8BE58C0F833038F42C2F23
:103AD0002452330BC901CF910C94D41BC85AC7315F
:103AE00058F4EC2FF0E0EE0FFF1FE956FE4F8081F7
:103AF0009181CF910C94EA1BCF910895882329F1ED
:103B00009CEF980F913A20F40E94D8250C94E5255B
:103B100090E2980F983050F4877091E001C0990FAF
:103B20008A95EAF7892F0E940D26F0CF9BE5980F22
:103B3000933020F490E080E00C94D41B885A8731B5
:103B400020F490E080E00C94EA1B08951F93CF933B
:103B5000DF93182FEB010E943A1D209731F4812F3B
:103B6000DF91CF911F910C947E1D8FE99FE001970B
:103B7000F1F700C000002197F0CF6AE070E08933D0
:103B800011F460E570E00C94A61D882321F00E94DA
:103B900007260C94E5250895882321F00E940D2620
:103BA0000C94E52508958F929F92AF92BF92CF9289
:103BB000DF92EF92FF921F93CF93DF9300D000D05C
:103BC0000F92CDB7DEB7FC016983972F2281358133
:103BD00032953F70172F12951F70183009F4C1C02D
:103BE000C0F51430C0F4872F8F708D83907F123012
:103BF00008F441C08D81903211F08295807F9981C7
:103C0000913009F076C0222309F46DC0363030F4CB
:103C10000E94C51D03C0143009F489C0212F28500B
:103C2000330B2430310508F0ABC10E94BD1B0F904F
:103C30000F900F900F900F90DF91CF911F91FF90F9
:103C4000EF90DF90CF90BF90AF909F908F900C94AB
:103C5000FA0B193009F43FC186E0810F8F70823072
:103C6000E8F68981823F09F046C1872F8F712223B0
:103C700009F46BC13DC1992329F08D80829480EFB6
:103C800088228D822223B9F09D80992061F089815C
:103C9000805E883018F0A980A11009C08D810E9433
:103CA00007260E94E52589810E943A1DB7CF8D81A4
:103CB0000E941826F6CF89810E947E1DBD80BB2000
:103CC00009F4ACCF8981805E883018F0898081103A
:103CD00006C08D810E940D260E94E5259FCF8D8113
:103CE0000E941E26F9CF353008F098CF0E94CC1DD7
:103CF00095CF222349F0332309F48ACF958190FF91
:103D0000D2CF9F70958384CF332381F329812933C8
:103D100009F02EC13FEF87EE93E031508040904094
:103D2000E1F700C0000089810E947E1D77CF872FB8
:103D300086958695837061F0813009F06FCF898117
:103D40009370211102C090E080E00E94EA1B66CFD0
:103D500089819370211102C090E080E00E94D41B01
:103D60005DCF872F837009F058C0211157CF29816B
:103D7000229526952770220F220F89818F70C82ED9
:103D8000D12CF12CE12C022E04C0CC0CDD1CEE1C3D
:103D9000FF1C0A94D2F7898040E050E0BA0184FE0B
:103DA0000FC04FE050E060E070E004C0440F551FCA
:103DB000661F771F2A95D2F74095509560957095AC
:103DC0009695969593704A015B018C289D28AE28A4
:103DD000BF2889829A82AB82BC82923081F0933074
:103DE000A9F0913029F0C501B4010E94532316CFE8
:103DF00069817A818B819C810E942B230FCF6981FD
:103E00007A818B819C810E947B2308CF69817A8192
:103E10008B819C810E94292301CF8695222311F05A
:103E2000872F8170882309F4F9CE29812295269560
:103E30002770220F220F89818F70C82ED12CF12C70
:103E4000E12C022E04C0CC0CDD1CEE1CFF1C0A94DD
:103E5000D2F7998040E050E0BA0194FE0FC04FE0E5
:103E600050E060E070E004C0440F551F661F771FEC
:103E70002A95D2F7409550956095709596959695B0
:103E800093704A015B018C289D28AE28BF28898247
:103E90009A82AB82BC82923081F09330A9F091304B
:103EA00029F0C501B4010E94B124B8CE69817A819C
:103EB0008B819C810E948924B1CE69817A818B811A
:103EC0009C810E94D924AACE69817A818B819C81B0
:103ED0000E94A523A3CE9F709D83222329F0892FC2
:103EE0000E94F223898194CE89810E94CC1D8D810C
:103EF0000E94232493CE8981833F58F4803F99F018
:103F0000813FF9F0222339F13111CDCE892F8F7104
:103F10001CC08981833FB1F72223D1F0872F8F7195
:103F20000E94CD237BCE222341F0353008F076CE9F
:103F3000892F8F710E94582471CE363008F06ECED2
:103F4000F7CF872F8F71222399F20E94F22366CE3A
:103F50000E94B12363CE332381F09981993341F4D8
:103F60002FEF37EE83E0215030408040E1F7D9CE8B
:103F70008FE39CE90197F1F7D4CE892F8F71B8CFE9
:103F80000F900F900F900F900F90DF91CF911F9196
:103F9000FF90EF90DF90CF90BF90AF909F908F9069
:103FA00008950F931F93CF93DF93EC01688179817C
:103FB0008A810E94A7258C010E9401250E94282346
:103FC000B801CE01DF91CF911F910F910C94D31DB9
:103FD000CF93DF93EC018B819C81892B29F0888121
:103FE000998189238F3F19F4DF91CF910895CE01F4
:103FF0000E94600B8823C1F3CE010E94D11FCE0125
:10400000DF91CF910C94140B90E080E00E94D41BC0
:1040100090E080E00E94EA1B0E9426260E9429264A
:104020000C94E5250E94DF250C9404200E9415269F
:104030000C941220282F892F82958F70903C80F449
:104040008A30B0F4843020F4823090F480E0089517
:104050008630E1F781E0283E88F0213FB9F70EC0B5
:104060008C3011F08F3091F793FB882780F90895F9
:1040700081E0203F39F018F4283E40F70895243FAE
:1040800029F7FCCF08950E949B250C941A20CF930A
:10409000DF9300D000D00F92CDB7DEB70F900F9016
:1040A0000F900F900F90DF91CF910895CF93DF93F2
:1040B00000D000D000D0CDB7DEB726960FB6F8946A
:1040C000DEBF0FBECDBFDF91CF9108951F93CF9379
:1040D000DF93E091FF0216E0809100038E1304C08D
:1040E000DF91CF911F910895CE2FD0E01E9FF00158
:1040F0001124EF5FFC4F4081518162817381848183
:1041000095810E945620FE013196E770E5CF4091DF
:1041100031035091320360913303709134038091E5
:104120003503909136030C9456201F93CF93DF9361
:1041300080913603807FA9F480913303882389F02E
:104140008091FF02C09100036091310370913203AE
:10415000A0913403B0913503D62FD72316E0C813AE
:1041600004C0DF91CF911F91089590E0109711F056
:10417000DF3F19F401968770F2CF189F9001199FC5
:10418000300D1124F901EF5FFC4F41814713F2CF4D
:1041900040814613EFCF42814111ECCF43815481DE
:1041A0004A1B5B0B483C510528F7809136038F7002
:1041B000806180933603F901EA5FFC4F80818F7044
:1041C0008061808381E393E00E94E81FDF91CF91BB
:1041D0001F910C946620AF92BF92CF92DF92EF9224
:1041E000FF920F931F93CF93DF93CDB7DEB72B973B
:1041F0000FB6F894DEBF0FBECDBF8C0185E0F8018D
:10420000DE01179601900D928A95E1F7F801408141
:104210005181E28081E3C82E83E0D82E609134037F
:10422000709135036115710509F444C19091310312
:1042300020913203822F89238F3F09F43BC1A38051
:10424000B480F0903303F501E61BF70BFF2009F46F
:10425000E0C080913603382F307FE83CF10508F04C
:10426000B2C0311179C0FE2C251323C0941321C094
:10427000E1101FC08F708061809336030E948720F9
:10428000C6010E94E81F80913603F80185838F2DB7
:104290002B960FB6F894DEBF0FBECDBFDF91CF9146
:1042A0001F910F91FF90EF90DF90CF90BF90AF9054
:1042B0000895AB2829F0842F85238F3F09F016C17C
:1042C00080E0F82FF170DF2EE091FF0220910003D3
:1042D00036E080FD1CC0EE20D1F280913603816073
:1042E00080933603F12CD3CF8E2F90E03E9FF001C8
:1042F0001124EF5FFC4F6181651306C06081641378
:1043000003C06281E612E7CFFC013196E770E21349
:10431000EBCF4F8358878F8198850E949B25292F4B
:1043200022952F70903260F0225F2F70223078F447
:104330009F7051F0F8019581907F31F4D12C0AC023
:104340009F7011F08823D1F3805E8830B8F3C801E4
:104350000E94E81FFD2C9BCF251306C0941304C0B8
:10436000F801EE2009F470C04F8358878F8198853B
:104370000E944320882319F1EE2009F18091360331
:10438000803270F020913103309132033A832983D7
:104390001B82BD82AC828E83CE0101960E94E81FF3
:1043A00086E0F801A1E3B3E001900D928A95E1F770
:1043B0000E9495200E948720FF24F39468CFC801B3
:1043C0000E94E81FF9CF311113C07A2DBB86AA864F
:1043D0006E2D8B850E94472081E393E00E94E81FA9
:1043E00086E0F60111928A95E9F70E9487207ACF3C
:1043F0002513BACF9413B8CFE110B6CFF801858357
:10440000C8010E94E81F86E0F60111928A95E9F73B
:104410003ECFE83CF10508F040C0FE2CEE2079F2DA
:1044200025132AC0941328C08091360380FD1BC039
:10443000982F907FC1F0F8018583903F31F0982F3D
:10444000907F905F8F70892B8583C8010E94E81F41
:1044500086E0F801A1E3B3E001900D928A95E1F7BF
:104460000E94872014CF86E0F801A1E3B3E0019019
:104470000D928A95E1F70BCF4F8358878F819885EE
:104480000E94432081118CCF8091360381608093FC
:104490003603C8010E94E81FFACE7A2DBB86AA8691
:1044A0006E2D8B850E94472086E0F60111928A9539
:1044B000E9F7D6CFEE2009F482CF4F8358878F815A
:1044C00098850E944320F82E882309F478CF86E04F
:1044D000F801A1E3B3E001900D928A95E1F781E341
:1044E00093E00E94351D0E949520BACF81E08E2571
:1044F000E8CE1F93CF93DF93CDB7DEB72C970FB6DF
:10450000F894DEBF0FBECDBF4F83588769877A8787
:104510008B879C87CE0107960E94EB20882369F049
:104520008A859B85892B39F04F815885842F852377
:104530008F3F09F077C016E065C086E0FE01379630
:10454000DE01119601900D928A95E1F76A857B85CF
:104550006115710581F35F814885842F85238F3F25
:1045600051F32091000330E0C9010196877099272B
:10457000E091FF02E817190671F40E9416201092CC
:1045800000031092FF0286E0E1E3F3E0DF011D92F9
:104590008A95E9F7D0CF59834A837D836C8396E06F
:1045A000929FD001939FB00D1124AF5FBC4FFE01CD
:1045B000319601900D929A95E1F7809300030E9445
:1045C0006620B9CF819FC00111248F5F9C4F0E944C
:1045D000EB208823E9F0E091FF021E9FF0011124F7
:1045E000EF5FFC4F408151816281738184819581AD
:1045F0000E9456208091FF0290E0019687709927D3
:104600008093FF028091FF02909100038913DACF1B
:104610002C960FB6F894DEBF0FBECDBFDF91CF91C1
:104620001F91089569857A858B859C850E94562007
:1046300082CF08950C9419230E941A236093860355
:104640007093870380938803909389030C940420CC
:1046500008950C941C23CF93DF9300D000D0CDB7E6
:10466000DEB769837A838B839C83809186039091E4
:104670008703A0918803B091890329813A814B81F6
:104680005C81282B392B4A2B5B2B29833A834B8364
:104690005C83CA01B9010F900F900F900F90DF91CA
:1046A000CF910C941C23CF93DF9300D000D0CDB7D3
:1046B000DEB769837A838B839C8380918603909194
:1046C0008703A0918803B091890329813A814B81A6
:1046D0005C81282339234A235B2329833A834B8334
:1046E0005C83CA01B9010F900F900F900F90DF917A
:1046F000CF910C941C23CF93DF9300D000D0CDB783
:10470000DEB769837A838B839C8380918603909143
:104710008703A0918803B091890329813A814B8155
:104720005C81282739274A275B2729833A834B83D3
:104730005C83CA01B9010F900F900F900F90DF9129
:10474000CF910C941C230C9480080E94A3236093A7
:1047500082037093830380938403909385030C9466
:10476000042060E070E0CB010C94A523382F292FA2
:10477000CB01A32FB22F0097A105B10529F481E049
:10478000442351F080E0089504C0B695A79597950D
:1047900087954A95D2F7817008950F931F93CF9311
:1047A000DF9300D000D0CDB7DEB741E050E060E04D
:1047B00070E08A019B0104C0000F111F221F331FEC
:1047C0008A95D2F709831A832B833C83C901B801E8
:1047D0000F900F900F900F90DF91CF911F910F913D
:1047E0000C94A5230F931F93CF93DF9300D000D099
:1047F000CDB7DEB741E050E060E070E004C0440FA8
:10480000551F661F771F8A95D2F78091820390917A
:104810008303A0918403B09185038A019B01082B37
:10482000192B2A2B3B2B09831A832B833C83C90129
:10483000B8010F900F900F900F90DF91CF911F91C3
:104840000F910C94A5230F931F93CF93DF9300D068
:1048500000D0CDB7DEB741E050E060E070E004C0CA
:10486000440F551F661F771F8A95D2F740955095C4
:10487000609570958091820390918303A091840349
:10488000B09185038A019B01082319232A233B2326
:1048900009831A832B833C83C901B8010F900F90C1
:1048A0000F900F90DF91CF911F910F910C94A52342
:1048B0000F931F93CF93DF9300D000D0CDB7DEB717
:1048C00041E050E060E070E004C0440F551F661FF7
:1048D000771F8A95D2F78091820390918303A091EC
:1048E0008403B09185038A019B01082719272A2791
:1048F0003B2709831A832B833C83C901B8010F909E
:104900000F900F900F90DF91CF911F910F910C940A
:10491000A523CF93DF9300D000D0CDB7DEB7698356
:104920007A838B839C838091820390918303A091EF
:104930008403B091850329813A814B815C81282BC6
:10494000392B4A2B5B2B29833A834B835C83CA0127
:10495000B9010F900F900F900F90DF91CF910C94B1
:10496000A523CF93DF9300D000D0CDB7DEB7698306
:104970007A838B839C838091820390918303A0919F
:104980008403B091850329813A814B815C8128237E
:1049900039234A235B2329833A834B835C83CA01EF
:1049A000B9010F900F900F900F90DF91CF910C9461
:1049B000A523CF93DF9300D000D0CDB7DEB76983B6
:1049C0007A838B839C838091820390918303A0914F
:1049D0008403B091850329813A814B815C8128272A
:1049E00039274A275B2729833A834B835C83CA0193
:1049F000B9010F900F900F900F90DF91CF910C9411
:104A0000A5230895E82F2AE0929FE00D11248E2F10
:104A1000877041E001C0440F8A95EAF7E695E69574
:104A2000E69585E0E89FF0011124E95CFC4F30E059
:104A300020E070E05191DF011197CB01022E02C0FE
:104A4000969587950A94E2F781708195852784234E
:104A500085278C932F5F3F4F2530310559F70895F7
:104A6000E82F2AE0929FE00D11249E2F9770E69583
:104A7000E695E69585E0E89FF0011124E95CFC4F9E
:104A800050E040E080E0219130E0092E02C03695F0
:104A900027950A94E2F721703327042E01C0220FD4
:104AA0000A94EAF7822B4F5F5F4F4530510559F763
:104AB0000895BF92CF92DF92EF92FF920F931F93D0
:104AC000CF93DF938C01C0908203D0908303E0905A
:104AD0008403F09085038091860390918703A091D1
:104AE0008803B0918903C82AD92AEA2AFB2ACFE190
:104AF000D0E0BC2ED701C6010C2E04C0B695A795F8
:104B0000979587950A94D2F780FD0EC0219788F774
:104B1000B12C8B2DDF91CF911F910F91FF90EF90D2
:104B2000DF90CF90BF900895B8018C2F0E94160C93
:104B3000019761F3EECFCF93DF93D82FC92F0E9457
:104B400059256D2F7C2FDF91CF910C94160C1F935C
:104B5000CF93DF93162FD72F9091FE02992339F030
:104B6000862F972FDF91CF911F910C949B2588233F
:104B700091F0862F972F0E945925C82F682F812FDB
:104B80009D2F0E940225612F7D2F8C2FDF91CF91C9
:104B90001F910C94160C862F972F0E943025C82F3A
:104BA000F2CF682F80912701909128010C9417274C
:104BB000682F80912701909128010C9419278091EA
:104BC0002701909128010C941B27E0912701F09177
:104BD0002801809194038083E0912701F0912801BE
:104BE000808190919303892B8083E0912701F0913C
:104BF0002801808190919203892B808380912701E5
:104C0000909128010C94C91B809194030895909170
:104C10009403982B909394030895982F90958091E6
:104C20009403892380939403089510929403089524
:104C300090919303982B909393030895982F9095B8
:104C40008091930389238093930308951092930393
:104C5000089510929203089580E0089590E080E016
:104C60000E94FE339C0181E02B3E3E4F09F080E024
:104C7000089582E090E00C94F03383E090E00C948F
:104C8000F033682F83E090E00C940434CF9384E0F9
:104C900090E00E94F033C82F81E290E00E94F03350
:104CA000982F8C2FCF910895CF93682FC92F84E030
:104CB00090E00E9404346C2F81E290E0CF910C943C
:104CC0000434AB01BC018FE090E00C94163483E116
:104CD00090E00C94F833AB01BC0183E190E00C94BC
:104CE000163460E070E0CB010E9461260C94050947
:104CF0006BEE7EEF90E080E00E94223460E082E084
:104D000090E00E94043460E083E090E00E9404346C
:104D100010928603109287031092880310928903E1
:104D200060E084E090E00E94043460E081E290E082
:104D30000E94043460E085E090E00E94043460E06A
:104D400086E090E00E9404346FEF87E090E00E94DC
:104D5000043440E050E0BA0188E090E00E9416344C
:104D600060E08DE090E00E94043440E050E0BA0141
:104D700088E190E00E94163460E087E190E00E94B4
:104D8000043440E050E0BA018CE190E00E94163417
:104D900060E080E290E00E94043440E050E0BA011C
:104DA00088E190E00E9416340C9471260C947826C9
:104DB000682F8EE090E00C9404349C01662351F03F
:104DC000FC013296285F3F4F8191861729F0E21748
:104DD000F307D1F780E0089581E008959C01FC017C
:104DE00032968FEF90E04191461751F08F3F19F4C2
:104DF000411101C0892F9F5F9630A9F78F3F09F4B9
:104E00000895280F311D87FD3A95F90162830895B1
:104E10009C01FC013296285F3F4F8191861303C0AD
:104E2000DF0111971C92E217F307B9F708950C946C
:104E3000EE260C940827FC01329686E0DF011D92D5
:104E40008A95E9F70895089508950C942427809190
:104E50004C06843049F10E94252780E00E94FA0B1D
:104E60001092960388E190E020E40FB6F894A8959C
:104E7000809360000FBE2093600083B7817F8460C1
:104E800083BF83B7816083BF7894889583B78E7F13
:104E900083BF0FB6F894A8958091600088618093D5
:104EA0006000109260000FBE08950895CF930E9495
:104EB00023270E94020F0E945527C0E08C2F0E94DA
:104EC000CA0D892B31F4CF5FCC30C1F780E0CF9190
:104ED000089581E0FCCF08950C946B270E94162062
:104EE0000E94BD1B0E94FA0B0C946C271F921FB6E8
:104EF0001F9211248F939F93AF93BF93809196033A
:104F0000811113C08091510590915205A0915305D4
:104F1000B09154054196A11DB11D80935105909308
:104F20005205A0935305B0935405BF91AF919F9143
:104F30008F911F901FBE1F90189582E084BD93E053
:104F400095BD9AEF97BD80936E0008952FB7F894A2
:104F50008091510590915205A0915305B09154054F
:104F60002FBF0895CF93DF9300D000D0CDB7DEB729
:104F70008FB7F89420915105309152054091530517
:104F80005091540529833A834B835C838FBF698199
:104F90007A818B819C810F900F900F900F90DF9101
:104FA000CF9108959C014FB7F8948091510590914D
:104FB0005205A0915305B09154054FBF821B930B2E
:104FC000089578941F921FB61F9211248F939F9378
:104FD000AF93BF938091510590915205A0915305D5
:104FE000B09154050196A11DB11D80935105909378
:104FF0005205A0935305B0935405BF91AF919F9173
:105000008F911F901FBE1F901895109255051092FA
:10501000560510925705109258050895CF92DF92C9
:10502000EF92FF92CF93DF9300D000D0CDB7DEB7E1
:105030006B017C010E94D00F81110EC00E94B2272B
:10504000C61AD70AE80AF90AC0925505D092560541
:10505000E0925705F09258050F900F900F900F9027
:10506000DF91CF91FF90EF90DF90CF900895CF9395
:10507000DF9300D000D0CDB7DEB70E94D00F8823D9
:1050800041F00F900F900F900F90DF91CF910C9403
:10509000B2270E94B22769837A838B839C83809195
:1050A000550590915605A0915705B0915805298155
:1050B0003A814B815C81280F391F4A1F5B1FCA014F
:1050C000B9010F900F900F900F90DF91CF9108953D
:1050D00087E797E7909301088093000888E19AE0BA
:1050E0000FB6F894A895809360000FBE909360006F
:1050F000FFCF9093D5018093D4010895CF93DF9390
:1051000000D000D0CDB7DEB70E942E26811102C09C
:105110000E94D6260E943926809395030E94462637
:1051200090935A05809359050E943D26282F30E020
:1051300050E040E0CA01B9010E9429238091820316
:1051400090918303A0918403B091850389839A830E
:10515000AB83BC83BC01CD010F900F900F900F90DB
:10516000DF91CF910C94A323881F8827881F08956F
:10517000982F81E0983F08F480E00895982F907F61
:10518000903D69F070F4903B31F038F4903A19F0AA
:10519000807E803899F483E00895903C79F482E031
:1051A0000895903EC1F3903F49F4EFE0E80F813F4E
:1051B00028F0F0E0EB53FE4F8081089580E00895E1
:1051C0000F93DC01022F0F77242F2F776F70462F5C
:1051D000406BED91FC9163E070E009950F910895AB
:1051E0000F93DC01022F0F77242F2F776F70462F3C
:1051F0004069ED91FC9163E070E009950F9108958D
:105200000F93DC01022F0F77242F2F776F70462F1B
:105210004068ED91FC9163E070E009950F9108956D
:105220000F931F93DC019A01411580E25807C4F4E3
:105230004115504EC4F0305E8901000F012F001F50
:10524000110B11952F776F70462F406EED91FC91E9
:10525000119763E070E0CD0109951F910F910895BA
:105260002FEF3FE3E9CF30E020E0E6CFFC0173838E
:1052700062830895FC01758F648F0895CF93DF9347
:10528000EC011DA21FA21EA2BC01685D7F4F40EC75
:1052900088519F4F0E94432B1B821A821D821C82C1
:1052A0001F821E82198618861B861A861D861C86FA
:1052B0001F861E86198A188A1B8A1A8A1D8A1C8ACA
:1052C0001F8A1E8A198E188E1B8E1A8E1D8E1C8E9A
:1052D0001F8E1E8E19A218A2DF91CF910895EF9212
:1052E000FF920F931F93CF93DF93EA018A01060F7A
:1052F000111D7C0128EEE20EF11CC017D10739F414
:10530000DF91CF911F910F91FF90EF9008956991D8
:10531000C7010E944A2BF1CFFC017183608308957D
:10532000FC0171A360A30895AF92BF92CF92DF9268
:10533000EF92FF920F931F93CF93DF9300D00F92C2
:10534000CDB7DEB77C016B01142FB22EA02EDC018D
:1053500095968C9195978430A9F55A96ED91FC918C
:105360003097E9F1CB01019763E070E00E94B93317
:10537000CB01880F991F860F971F4983BA820B8331
:105380004C2D481B9E012F5F3F4FBC01C701099563
:10539000D7015E96ED91FC91309731F00A2D2B2DBF
:1053A000412FB601C70109950F900F900F90DF9123
:1053B000CF911F910F91FF90EF90DF90CF90BF9012
:1053C000AF9008956230710509F452C063307105E1
:1053D00099F06130710509F47AC0D12CC12CD70144
:1053E0005C96ED91FC91309799F20A2D2B2D412F6F
:1053F000B601C7010995CCCF842F807F803BF1F0A7
:1054000058F4803931F1803A49F1803841F7D701B9
:105410001696ED91FC9116C0803E29F1803FF9F679
:10542000423FE9F6D7011C96ED91FC91202F4B2DC0
:1054300062EF3097A1F2C7010995AACFD701129662
:10544000ED91FC91309759F22A2D4B2D612F6F7001
:10545000F2CFD7011496ED91FC91F4CFD7011896B5
:10546000ED91FC91EFCFD7011A96ED91FC91EACF27
:10547000842F807F803D81F0803F99F0803C09F04F
:10548000AECFD7011E96ED91FC91309709F4A7CFCE
:105490004B2D612F6F7010C0D7015096ED91FC918C
:1054A000F4CF433F61F4D7015296ED91FC914B2D1F
:1054B000612F309709F493CFC701099569CF413F18
:1054C00009F08DCFD7015496ED91FC91F0CF842F48
:1054D0000E94B828882359F0D7015696ED91FC9187
:1054E000309709F47CCF612FC701099551CF163F42
:1054F00009F075CFD7015896ED91FC91F1CFFF924D
:105500000F931F93CF93DF93EC01162F862F0E94EA
:10551000B828882391F0FDA081E08DA300E020E071
:10552000412F61E070E0CE010E949429FDA2DF913D
:10553000CF911F910F91FF900895812F0E94B42861
:105540004DA1882309F443C0443029F01AA381E017
:1055500090E09FA38EA3812F0E94BE28823069F124
:10556000D0F481111EC0103F51F1173FB1F42EA1AC
:105570003FA1C90163E070E00E94B933FE01E80F6A
:10558000F91F12A3B9016F5F7F4F7FA36EA30CA118
:105590002BA14AA10DC0833081F01DA21FA21EA223
:1055A000C6CF81E08DA300E020E0412F61E070E0F4
:1055B000CE010E9494291DA2BACF8DA3B8CF84E05A
:1055C0008DA31AA381E090E09FA38EA3B0CF4423C4
:1055D00009F4ADCF2EA13FA1C90163E070E00E94A4
:1055E000B933FE01E80FF91F12A3B9016F5F7F4FB6
:1055F0007FA36EA38130910569F0029709F097CFE0
:105600000CA12BA14AA1CE010E9494298DA1843026
:10561000C9F68DCF00E0423009F089CFF2CFCF92AA
:10562000DF92EF92FF920F931F93CF93DF93EC01E2
:10563000E8A1F9A1309709F009956E0188EEC80E2E
:10564000D11CC6010E94782B10E000E0E82EF12C5E
:105650000E151F0548F0DF91CF911F910F91FF901C
:10566000EF90DF90CF90089560E0C6010E948C2BF0
:10567000682FCE010E947F2A61E0C6010E949C2B08
:105680000F5F1F4FE5CFFC01428374836383118258
:10569000108208951F93CF93DF93EC01162F0E9481
:1056A000B32B282FE981F0E0CF0101966A8170E0E9
:1056B0000E94CD3338813817190641F4822F0E9499
:1056C000B62B80E0DF91CF911F9108958B819C8153
:1056D000E80FF91F1083898190E001966A8170E0DC
:1056E0000E94CD338983822F0E94B62B81E0EACFBE
:1056F000CF93DF93EC010E94B32B998128819217FD
:1057000040F0C92FC21B0E94B62B8C2FDF91CF9186
:105710000895CA819C0FF5CFFC018081860F9927DF
:10572000991F628170E00E94CD3323813481280F5C
:10573000391FF901808108951F93CF93DF93EC0106
:10574000162F0E94B32B282F8881810F9927991F2C
:105750006A8170E00E94CD338883822FDF91CF91E0
:105760001F910C94B62B8FB7F89408958FBF0895AE
:10577000089508950F931F93CF93DF9300D000D027
:1057800000D00F92CDB7DEB7182F092FCE010196AA
:105790000E941A2E81110BC027960FB6F894DEBF17
:1057A0000FBECDBFDF91CF911F910F9108958A81D8
:1057B0000E94BE28682F8A818D838B818E838C8185
:1057C0008F8361110AC02981243079F0273069F074
:1057D000263069F061E02530C9F6AE014B5F5F4FBE
:1057E000812F902F0E946F29D1CF63E0F6CF62E026
:1057F000F4CFDF92EF92FF920F931F93CF93DF933B
:1058000000D000D0CDB7DEB77B01142FD22E4A8353
:105810002B830C83842F0E94BE28811129C082E033
:10582000E816F10401F183E0E816F10439F0EA9496
:10583000EF2869F485E0173F21F404C087E0073FB3
:1058400009F084E08983CE0101960E94152E0F9005
:105850000F900F900F90DF91CF911F910F91FF90BC
:10586000EF90DF90089587EFD812EBCF86E0EACF74
:1058700012951F701983E7CF0E9403108BE595E006
:105880000E943E2969EF7BE28BE595E00E948C291E
:105890006AEB7BE28BE595E00E94902968EB7BE266
:1058A0008BE595E00E943A2969EB7BE28BE595E078
:1058B0000C943629FC01CB0120914C062430B1F424
:1058C00021812F702093E90050E040E064E070E017
:1058D0000E94E22E81110BC09091E80095FD07C057
:1058E0009091E8009E779093E800089582E00895F3
:1058F000FC0180914C06843089F481818F70809303
:10590000E9009091F3008091F200892B49F0809199
:10591000E8008E778093E8000C94883082E0089548
:1059200080E00895FC0180914C06843059F4818117
:105930008F708093E9008091E80080FF03C0CF0161
:105940000C94782C0895FC01CB0120914C06243056
:1059500011F080E0089526812F702093E9002091B6
:10596000E80022FFF6CF2091E80025FFF2CF50E0BB
:1059700040E064E070E00E94312F8091E80085FDF6
:1059800005C08091E8008B778093E80081E008955E
:1059900080919F0308950895CF93DF9300D00F92D5
:1059A000CDB7DEB790914C06943019F589836A83A0
:1059B0007B8382E08093E9008FEF9091E800815033
:1059C00095FD06C095ED9A95F1F700008111F5CF90
:1059D0008091E80085FF0DC050E040E063E070E09A
:1059E000CE0101960E94E22E8091E8008E7780938E
:1059F000E8000F900F900F90DF91CF910895BC01B8
:105A000084E00C94CC2CBC0183E00C94CC2CCF9380
:105A1000DF93D82FC92F81E08093E9008FEF909119
:105A2000E800815095FD06C095ED9A95F1F70000CC
:105A30008111F5CF8091E80085FF16C050E040E06D
:105A400068E070E08D2F9C2F0E94E22E8091E8008C
:105A50008E778093E80088E0ED2FFC2FA7E9B3E074
:105A600001900D928A95E1F7DF91CF910895809191
:105A70004B06811109C00E94B9300E9416318091F5
:105A8000E20084608093E200089510924B0608952E
:105A900008950895089542E061EC81E00E94353058
:105AA00042E261EC82E00E94353042E361E883E04B
:105AB0000E94353042E361E884E00C9435308091F7
:105AC0004E06893089F148F4823009F49DC0833054
:105AD00009F458C0813041F008958A3009F484C037
