:100000000C942E060C9475060C9475060C941E1C0C
:100010000C9475060C9475060C9475060C94750674
:100020000C9475060C9475060C9488320C945B3312
:100030000C946C280C9475060C9475060C9475063B
:100040000C9475060C9475060C9475060C94750644
:100050000C9475060C94FE280C9475060C94750689
:100060000C9475060C9475060C9475060C94750624
:100070000C9475060C9475060C9475060C94750614
:100080000C9475060C9475060C9475060C94750604
:100090000C9475060C9475060C9475060C947506F4
:1000A0000C9475060C9475060C9475062A5D365DE5
:1000B000425D4E5D5A5D2F5D3B5D475D535D5F5D0B
:1000C000315D3D5D495D555D615D345D405D4C5D1B
:1000D000585D645D2C5D385D445D505D5C5D2D5DFB
:1000E000395D455D515D5D5D335D3F5D4B5D575DE8
:1000F000635D325D3E5D4A5D565D625D2E5D3A5DDB
:10010000465D525D5E5D2B5D375D435D4F5D5B5DC2
:10011000295D355D415D4D5D595D305D3C5D485DFE
:10012000545D605D4F5C525C555C585C5B5C5E5C32
:10013000615C0000000000004E5C515C545C575C48
:100140005A5C5D5C605C0000000000004D5C505C2F
:10015000535C565C595C5C5C5F5C00000000000016
:100160000000A849705C6D5C6A5C675C645C0000C0
:10017000000000000000725C6F5C6C5C695C665C97
:10018000635C0000000000000000715C6E5C6B5C52
:10019000685C655C625C000000000000010001001A
:1001A0000100010001000100010001000100010047
:1001B0000100010001000100010001000100010037
:1001C0000100010001000100010001000100010027
:1001D0000100010001000100010001000100010017
:1001E0000100010001000100010001000100010007
:1001F00001000100010001000100010001000100F7
:1002000001000100010001000100010001000100E6
:1002100001000100505C535C565C595C5C5C5F5CA7
:10022000625C0000000000004E5C515C545C575C56
:100230005A5C5D5C605C0000000000004F5C4F5C3D
:10024000525C555C585C5B5C5E5C0000000000002A
:1002500000000100715C6E5C6B5C685C655C0000BA
:10026000000000000000725C6F5C6C5C695C665CA6
:10027000635C0000000000000000705C6D5C6A5C64
:10028000675C645C615C0000000000002E5D2A5D1C
:10029000365D425D4E5D335D2F5D3B5D475D535D79
:1002A000295D315D3D5D495D555D2C5D345D405D91
:1002B0004C5D585D305D2C5D385D445D505D315D59
:1002C0002D5D395D455D515D2B5D335D3F5D4B5D62
:1002D000575D2A5D325D3E5D4A5D565D325D2E5D45
:1002E0003A5D465D525D2F5D2B5D375D435D4F5D31
:1002F0002D5D295D355D415D4D5D345D305D3C5D5D
:10030000485D545D4F5C525C555C585C5B5C5E5C68
:10031000615C0000000000004E5C515C545C575C66
:100320005A5C5D5C605C0000000000004D5C505C4D
:10033000535C565C595C5C5C5F5C00000000000034
:1003400000000100705C6D5C6A5C675C645C0000CE
:10035000000000000000725C6F5C6C5C695C665CB5
:10036000635C0000000000000000715C6E5C6B5C70
:10037000685C655C625C000000000000BB5CBA5C0D
:10038000000000002F5C485C4A5C4C5C4E5C505C9A
:10039000000000000000305C325C455C475C495C5A
:1003A0004B5C4D5C00002F5C315C335C355C425C27
:1003B000445C465C485C4A5C305C325C345C365C75
:1003C000385C3F5C415C435C455C475C335C355C5E
:1003D000375C395C3B5C3C5C3E5C405C425C445C52
:1003E000365C385C3A5C3C5C3E5C395C3B5C3D5C5A
:1003F0003F5C415C4F5C525C555C585C5B5C5E5C96
:10040000615C0000000000004E5C515C545C575C75
:100410005A5C5D5C605C0000000000004D5C505C5C
:10042000535C565C595C5C5C5F5C00000000000043
:100430000000A849705C6D5C6A5C675C645C0000ED
:10044000000000000000725C6F5C6C5C695C665CC4
:10045000635C0000000000000000715C6E5C6B5C7F
:10046000685C655C625C000000000000305C315C30
:10047000325C335C345C465C475C485C495C4A5C9B
:10048000325C335C345C355C365C445C455C465CB9
:10049000475C485C345C355C365C375C385C425C9D
:1004A000435C445C455C465C365C375C385C395C7C
:1004B0003A5C405C415C425C435C445C385C395C67
:1004C0003A5C3B5C3C5C3E5C3F5C405C415C425C5B
:1004D0003A5C3B5C3C5C3D5C3E5C3C5C3D5C3E5C59
:1004E0003F5C405C485C4A5C4C5C4E5C505C525CDF
:1004F000545C000000000000475C495C4B5C4D5CB4
:100500004F5C515C535C000000000000475C485C9D
:100510004A5C4C5C4E5C505C525C00000000000089
:100520000000A8495E5C5C5C5A5C585C565C00004C
:100530000000000000005F5C5D5C5B5C595C575C28
:10054000555C00000000000000005E5C5C5C5A5CD2
:10055000585C565C545C0000000000002E5D2A5D73
:10056000365D425D4E5D335D2F5D3B5D475D535DA6
:10057000295D315D3D5D495D555D2C5D345D405DBE
:100580004C5D585D305D2C5D385D445D505D315D86
:100590002D5D395D455D515D2B5D335D3F5D4B5D8F
:1005A000575D2A5D325D3E5D4A5D565D325D2E5D72
:1005B0003A5D465D525D2F5D2B5D375D435D4F5D5E
:1005C0002D5D295D355D415D4D5D345D305D3C5D8A
:1005D000485D545D705C6D5C6A5C675C645C615C2A
:1005E0005E5C000000000000715C6E5C6B5C685C2F
:1005F000655C625C5F5C000000000000725C6F5C28
:100600006C5C695C665C635C605C00000000000020
:100610000000A8494F5C525C555C585C5B5C000074
:100620000000000000004D5C505C535C565C595C5F
:100630005C5C00000000000000004E5C515C545CFB
:10064000575C5A5C5D5C000000000000165C2B00EB
:100650003900E100E0002A004C002800E5004F00CE
:100660001E00140004001D00E300270013003300E7
:10067000380051001F001A0016001B00E20026007F
:1006800012000F003700500020000800070006008D
:10069000914825000C000E0036000851210015007D
:1006A000090019002C00240018000D00100065003E
:1006B000220017000A0005002C0023001C000B007C
:1006C0001100900001000100010001000100010083
:1006D0000100000000000000010001000100010015
:1006E0000100010001000000000000000100010005
:1006F00001000100010001000100000000000000F5
:1007000000000100010001000100010001000000E3
:1007100000000000000001000100010001000100D4
:1007200001000000000000000000010001000100C5
:10073000010001000100000000000000165C2B0019
:10074000E000E10039002A004C00280052724F00FE
:100750001E00140004001D00E300270033001200F7
:10076000380051001F001A0015001B00E20026008F
:100770001C000C0037005000200009001600060085
:100780009148250018000800360008512100130088
:10079000170019002C0024000F0011001000650044
:1007A00022000A00070005002C0023000D000B00AA
:1007B0000E00900001000100010001000100010095
:1007C0000100000000000000010001000100010024
:1007D0000100010001000000000000000100010014
:1007E0000100010001000100010000000000000004
:1007F00000000100010001000100010001000000F3
:1008000000000000000001000100010001000100E3
:1008100001000000000000000000010001000100D4
:1008200001000100010000000000000001000100C3
:1008300001000100010001000100010001000100B0
:100840003A000000AA00BE00010043002E0035005F
:10085000300031003B000000A900BD000100420053
:100860002D004F002F0034003C000000A8000000C5
:100870000100410000005200000001003D000000A6
:1008800000000000010040000000510000000100D5
:100890003E0000000000000001003F00000050008A
:1008A0000000010001000100010001000100010041
:1008B0000100000000000000010001000100010033
:1008C0000100010001000000000000000100010023
:1008D0000100010001000100010000000000000013
:1008E0000000010001000100010001000100000002
:1008F00000000000000001000100010001000100F3
:1009000001000000000000000000010001000100E3
:10091000010001000100000000000000655D0652BA
:10092000075200000000C35C00006C5D0000000086
:10093000665D6B5D000000000000C45C000000000C
:1009400000000000675D00000000000000000000E3
:100950000000000000000000685D000000000000D2
:10096000000000000000000000000000695D0000C1
:100970000000000000000000000000000000000077
:100980006A5D0000000000000000000000000000A0
:1009900000000000775C785C795C7A5C7B5C00002E
:1009A0000000000000000000655D665D675D685D39
:1009B000695D6A5D000000000000000000000000AA
:1009C0006B5D00000000000000000000000000005F
:1009D00000000100DF5C00000000000000000000DB
:1009E000000000000000C35CC45C9E5C9D5C0000D5
:1009F000000000000000000000006F5D6E5D6D5D96
:100A0000705D000000000000000000000001010116
:100A100001010101010102020202020202020203BB
:100A2000030303030303030404040404040405058B
:100A3000050505060606060607070707070808084E
:100A400008090909090A0A0A0B0B0B0C0C0C0D0DFD
:100A50000D0E0E0E0F0F0F10101111111212131395
:100A60001414151516161717181819191A1A1B1B0E
:100A70001C1D1D1E1E1F202021222223242425266A
:100A800026272829292A2B2C2D2D2E2F30313232A2
:100A9000333435363738393A3B3C3D3E3F404142AE
:100AA000434445464748494A4C4D4E4F5051535494
:100AB000555658595A5B5D5E5F6162646566686948
:100AC0006B6C6D6F7072737577787A7B7D7E8082C8
:100AD000838587888A8C8E8F91939596989A9C9E11
:100AE000A0A2A3A5A7A9ABADAFB1B3B5B7BABCBE21
:100AF000C0C2C4C6C9CBCDCFD1D4D6D8DBDDDFE2EE
:100B0000E4E7E9EBEEF0F3F5F8FAFDFF1603670012
:100B100069006100620061006C0061006E006100AC
:100B2000690000000E03330061007200610068007C
:100B3000740000000403090409029F00040100A0DE
:100B4000FA0904000001030101000921110100015B
:100B50002240000705810308000A0904010001037F
:100B60000000000921110100012232000705820363
:100B700020000A080B020201010000090402000023
:100B80000101000009240100010900010309040317
:100B900000020103000007240100014100062402B5
:100BA00001010006240202020009240301030102DC
:100BB00001000924030204010101000905040240A7
:100BC000000500000525010101090583024000051B
:100BD000000005250101031201100100000008EDCD
:100BE000FEB0F401000102000105010980A10185A8
:100BF0000319012AB700150126B700950175108168
:100C000000C0050C0901A101850419012AA00215E3
:100C10000126A002950175108100C005010906A1F9
:100C200001050719E029E7150025019508750181DF
:100C3000029501750881010507190029FF15002695
:100C4000FF0095067508810005081901290595051D
:100C500075019102950175039101C00011241FBE19
:100C6000CFEFDAE0DEBFCDBF04B603FE27C0809130
:100C7000A5089091A608A091A708B091A808873070
:100C8000904BA740B04BD1F41092A5081092A60843
:100C90001092A7081092A80814BE84B7877F84BF5B
:100CA0000FB6F894A89580916000886180936000E9
:100CB000109260000FBEE0E0F8E3099513E0A0E0B9
:100CC000B1E0ECE1FDE602C005900D92A03DB10758
:100CD000D9F728E0A0EDB3E001C01D92A53AB20714
:100CE000E1F70E94732F0C94DD350C940000CF9235
:100CF000DF92EF920F931F93CF93DF93C82FC8011A
:100D0000D091FB05DF776A01C20ED11CF60110817C
:100D1000FB012281222309F11F3F71F40E94060F7B
:100D2000182F2D2F482F6C2F8BEA97E0EE2061F0C3
:100D30000E94442AF6011083DF91CF911F910F91F9
:100D4000EF90DF90CF9008950E94442A2D2F4CE021
:100D5000410F6C2F8BEA97E0EBCF1F3F49F02D2F0F
:100D6000412F6C2F8BEA97E0EE2031F00E94542A3D
:100D70008FEFF6018083E0CF0E94542A4CE0410FB0
:100D80002D2F6C2F8BEA97E0F1CF8F929F92AF922D
:100D9000CF92EF920F931F93CF93DF93C82FC80189
:100DA0001091FB051F774A01820E911CF401D0813E
:100DB000FB012281222349F1DF3FE9F40E94060F63
:100DC000D82F4E2D480F212F6C2F8BEA97E00E94D1
:100DD000442A4C2D4D0F212F6C2F8BEA97E00E9457
:100DE000442A4A2D4D0F212F6C2F8BEA97E00E9449
:100DF000442AF401D083DF91CF911F910F91EF909E
:100E0000CF90AF909F908F900895DF3FC1F04E2D0F
:100E10004D0F212F6C2F8BEA97E00E94542A4C2D06
:100E20004D0F212F6C2F8BEA97E00E94542A4A2DF8
:100E30004D0F212F6C2F8BEA97E00E94542A8FEFE1
:100E4000F4018083D8CFEF92FF920F931F93CF933B
:100E5000DF93D82FCB01FA01B90121ED280FC09102
:100E6000FB05CF77EE2019F0CF31F8F0CE517B01A2
:100E7000E20EF11CD7014C9122812223C1F04F3F99
:100E800069F40E94060F182F402F480F2C2F6D2F4A
:100E90008BEA97E00E94442AF7011083DF91CF91FB
:100EA0001F910F91FF90EF900895C0E0E0CF4F3F6A
:100EB00039F0400F2C2F6D2F8BEA97E00E94542AB7
:100EC0008FEFD7018C93EACFEF92FF920F931F938E
:100ED000CF93DF9300D000D0CDB7DEB70E94B0161D
:100EE0008823A1F08091A5059091A605A091A70562
:100EF000B091A80589839A83AB83BC83BC01CD01E3
:100F00000E948E0A883069F0893019F10F900F9095
:100F10000F900F90DF91CF911F910F91FF90EF9065
:100F2000089520E043E366E68EE190E00E94D2124D
:100F300020E043E366E682E290E00F900F900F908E
:100F40000F90DF91CF911F910F91FF90EF900C9434
:100F5000D2121A8219828AE4E82EF12C02E310E000
:100F600020E043E366E6C701A981BA818A1B9B0B97
:100F70000E94D21220E043E366E689819A810E94B2
:100F8000D21220E043E366E6C801E981FA818E1BB4
:100F90009F0B0E94D21289819A8101969A8389833C
:100FA0000697F1F626E640E060E080E490E00E94DB
:100FB000D21220E040E066E68FE390E00E94D21279
:100FC00026E646E666E68BE490E00E94D2122EE129
:100FD00041E366E68CE490E00E94D21226E646E603
:100FE00066E682E690E00E94D21223E343E360E0EB
:100FF00087E590E00E94D2122EE141E366E687E1A8
:1010000090E00E94D21226E640E060E08AE190E0A3
:101010000E94D21226E646E660E08BE190E00E9454
:10102000D21223E346E660E08CE190E00E94D21207
:1010300020E046E660E08DE190E00E94D21220E0E0
:1010400046E663E38EE190E00E94D2122CE443E393
:1010500066E685E290E00E94D21220E046E666E66F
:1010600089E290E00E94D21220E046E660E088E249
:1010700090E00E94D21226E640E060E087E290E035
:101080000E94D21220E040E066E686E290E00E94F4
:10109000D2122EE141E366E684E390E00E94D21290
:1010A0002EE141E366E68BE390E00E94D21226E651
:1010B00046E660E08CE390E00E94D21220E046E534
:1010C00066E68DE390E00E94D21223E346E660E0FC
:1010D0008EE390E032CF8091FA05807F826080932A
:1010E000FA058091FB05807885678093FB05EAE12E
:1010F000F4E08FEF819394E0E635F907D9F7E2ED5C
:10110000F3E08FEF8193A4E0EA31FA07D9F70E9468
:101110005D276093C4057093C5058093C6059093C1
:10112000C70582E3809301060895CF93DF9300D033
:1011300000D0CDB7DEB7E4ECF5E09081892F8E7F4B
:1011400090FF816080838091C4059091C505A09136
:10115000C605B091C70589839A83AB83BC83BC0164
:10116000CD010F900F900F900F90DF91CF910C94C5
:10117000612780915804882329F010925804109216
:101180005904089581E08093580482E080935904C3
:1011900008951092C4051092C5051092C6051092CC
:1011A000C70560E070E0CB010E94612780E00C94ED
:1011B000050AAF92CF92EF920F931F93CF93DF93D5
:1011C000DC01EB0127ED280FA1378DE5B80798F575
:1011D000A5338DE5B807F0F4A7378CE5B80728F5F7
:1011E000AF328CE5B80738F180915704E090E902FE
:1011F0000CE0811107C0809156048823E1F0E09053
:10120000E90204EF22ED33E0AE01BD0180E00E946F
:10121000230711C0FD01E154FD45E033F10508F05D
:1012200073C0E152FA4C0C945435CD0189529D455E
:101230000C9708F45AC081E0DF91CF911F910F9174
:10124000EF90CF90AF9008958A818823A1F380E03A
:101250000E94050AF0CF8A81882369F381E0F8CFE4
:101260008A81882341F382E0F3CF8A81882319F3AE
:1012700083E0EECF8A818823F1F284E0E9CF8A818E
:101280008823C9F285E0E4CF8A818823A1F20E94F5
:101290009508D1CF8A81882371F20E94B908CBCFFB
:1012A0008A81882341F281E080935604109257048A
:1012B000C2CF8A81882309F4BECF10925604F6CF9C
:1012C0008A81882309F4B7CF1092560481E0809375
:1012D0005704B1CF8A81882309F4ADCF8091E90208
:1012E00091E089278093E902A6CFE090C405E0FA57
:1012F000EE24E0F88D010E5E11094AE154E0809180
:1013000059040E94770697CF8D010E5E110977E090
:10131000A72EE4E0CE2EE12C4AE154E0BE018091FC
:1013200058040E94C50687CF8D010A5F110967E046
:10133000A62E53E0C52EEFCF8D01065011409AE046
:10134000A92E37E0C32E44E0E42EE6CF8D010251F2
:10135000114086E0A82EEDCF813031F489EA611189
:1013600001C08AEA0C94C81E089581E008950C9487
:10137000D90808950C94B9091F93CF93DF9300D037
:1013800000D00F92CDB7DEB749835A836B8330917B
:10139000210589819A8131111DC06623B9F022236C
:1013A000A9F00E944F26182F682F89819A810E94E8
:1013B000F82569817A81812F0F900F900F900F90FF
:1013C0000F90DF91CF911F910C94E80A0E9426267E
:1013D000182FEFCF0E944F2669817A81EDCFFC0153
:1013E000262F408151816281738184810C94BC09D4
:1013F000CF93DF93D82FC92F60E00E94EF096D2FA4
:101400007C2FDF91CF910C94BA09CF93DF9300D05A
:1014100000D0CDB7DEB721E030E002C0220F331F8D
:101420008A95E2F73A83298389810E943727A98127
:10143000BA81CD01B0E0A0E089839A83AB83BC83FD
:10144000BC01CD010F900F900F900F90DF91CF91C5
:101450000C9434240E942427811102C00E94CC27BE
:101460000E9445160C94AB0C0C94AE0C08950E948F
:1014700021210E94360A2FEF84E39CE02150804016
:101480009040E1F700C000000C94BC290F931F931B
:10149000CF93DF93EC0161E00E94EF098C01BE0164
:1014A0000E94B709882389F1BE01C8010E94150F67
:1014B000882359F1BE01C8010E949D19882329F192
:1014C000BE01C8010E94F2198823F9F0BE01C801CB
:1014D0000E94C51A8823C9F0BE01C8010E9498174E
:1014E000882399F08A81882339F001158CE5180743
:1014F00051F00F3D1C4579F0CE01DF91CF911F9146
:101500000F910C94B5090E94370A80E0DF91CF91CA
:101510001F910F9108950E94CC27F7CF0F931F932F
:10152000462F572FBC01CB01AA27BB270097A10547
:10153000B105E9F1AC01BD0180E1052F162F272F80
:101540003327011511052105310519F0885FB9010F
:10155000A8018A019B01F4E0369527951795079518
:10156000FA95D1F7011511052105310519F08C5FA8
:10157000B901A8018A019B01E2E0369527951795EC
:101580000795EA95D1F7011511052105310519F0E7
:101590008E5FB901A8017695679557954795452BBC
:1015A000462B472B09F08F5F1F910F91089580E024
:1015B000C4CF08950C94D90A81E008950C94DC0AF4
:1015C000CF93C82F0E94DA0A8C2FCF910C94DE0A99
:1015D000972F70E02AE0929F600D711D1124FB018E
:1015E00098E7899FE00DF11D1124EE0FFF1FE455D0
:1015F000FF4F859194910895CF93DF930E94E80A5D
:101600000E94CF0BEC01811521E59207A8F5811509
:1016100030E5930708F084C08F3B9105B8F4883A11
:10162000910508F072C0853A910568F4049738F482
:1016300091E080E0219709F090E0C92FD82FCE01EA
:10164000DF91CF910895A497D064F9CF811540E23E
:10165000940758F48F3F910509F088F7805E91094F
:10166000089768F3D0E0C0E0EACF9054811590412C
:10167000C8F7DF70D06AE3CF811539E5930768F5C5
:10168000811548E5940708F078C0C11583E5D807AF
:1016900050F4C11592E5D90708F05EC0DC2FCC27C5
:1016A000C16FD06ACCCFCE0193558F3F910509F021
:1016B000C8F6CE018370992721E030E002C0220FE6
:1016C000331F8A95E2F7C695C69590E2C99FE0015F
:1016D0001124C22BD32BDA68B2CF81152AE59207E9
:1016E00008F450C090568115904208F0BBCF8D2F62
:1016F0008F710E94670C90E0982F882788279F7130
:101700009C012C2BE901D0629ACFC85AD0E0CC0FB3
:10171000DD1FC75CDC4F0990D881C02DD4648FCF0A
:1017200054E0969587955A95E1F783702C2F26956E
:101730002695237040E2249F90011124382B8C2F92
:101740008370C1E0D0E002C0CC0FDD1F8A95E2F7C4
:10175000C22BD32BDC6873CFCE018370992721E095
:1017600030E002C0220F331F8A95E2F7C695C69576
:1017700080E2C89FE0011124EBCFD82FCC27C06FA7
:10178000D06A5DCF8F700E94670C34E0D695C79504
:101790003A95E1F7CF70DC2FC82FD06950CF803E4B
:1017A000910599F1C8F48133910509F476C048F4A4
:1017B0008932910509F46AC08A32910509F474C02E
:1017C000089589339105D1F082389105B9F08533B8
:1017D000910509F454C00895843E910599F138F4B7
:1017E000823E9105F9F0833E910509F10895863E08
:1017F000910599F1873E9105B9F108952091A907C6
:101800002370A1F080EE90E008952091A90720FDBB
:1018100052C03091AA0730FF09C024FF4FC090E0AA
:1018200080E004C02091A90722FDF7CF0895209100
:10183000A90722FD46C03091AA0730FDE3CF24FF5F
:10184000F5CFEDCF2091AA0721FFF0CF8091A90716
:1018500084FDE5CF87EE90E008952091A90723FF4E
:10186000E5CF24FDDCCFF6CF2091A90723FD2CC0C6
:101870003091AA0731FFE3CF84EE90E008952091E4
:10188000A90725FFD3CF89E290E008952091A90709
:1018900025FFCCCF85E390E008952091A90726FF8E
:1018A000C5CF8AE290E008952091A90726FFBECF18
:1018B00081E390E0089589E390E0089583EE90E05D
:1018C000089582EE90E0089586EE90E0089590915C
:1018D000A90792FF06C0282F28712830F9F4877FC6
:1018E000846093FF06C0282F28712831F1F4877E89
:1018F00084612091AA0720FF06C0382F3871383044
:10190000D9F4877F816021FF06C0282F28712831F4
:10191000D1F4877E816194FD877E0895282F2471FC
:101920002430F9F68B7F8860DCCF282F2471243196
:1019300001F78B7E8861DDCF382F3171313019F797
:101940008E7F8860E0CF282F2171213121F78E7E94
:101950008861E1CF08950C94AA0C08950C94AD0C05
:10196000E82FF0E0EE0FFF1FE052FA4F80819181E7
:101970000895089580EA8A95F1F7089500C00895C2
:101980000C94BA0CF894E82FE295EF70F0E041A1C6
:101990008F7021E030E0B90102C0660F771F8A9591
:1019A000E2F7CB01962F9095942391A392A1892BD6
:1019B00082A37894089508950F931F93CF93DF9394
:1019C000CDB7DEB766970FB6F894DEBF0FBECDBFBA
:1019D0000E94D80E80910003811131C087E0EAE2B5
:1019E000F3E0DE01119601900D928A95E1F7FE0178
:1019F000389685E0DF011D928A95E9F7CE010196C0
:101A0000E4EFF2E09E01235F3F4FDC014D91CD01F9
:101A10004193A217B307C9F72AE0E7E6F3E0DE0136
:101A20001D9601900D922A95E1F7FC01AAEEB2E015
:101A3000CE01479621912D93E817F907D9F78091A8
:101A4000000396E0811190E09093F90586E0891BF0
:101A50008093F80504EF12E0F80181918F010E9454
:101A6000C20CF2E00A3F1F07B9F70AEE12E0D801F4
:101A70008D918D010E94C20CB2E0043F1B07B9F7A3
:101A8000E8ECF5E0A0EEB5E0119211921D921D92E6
:101A900085E0E03EF807C1F786E00E947C0E0E94D8
:101AA0002A0A66960FB6F894DEBF0FBECDBFDF914F
:101AB000CF911F910F910C94E20ECF92DF92FF9283
:101AC0000F931F93CF93DF93CDB7DEB72C970FB64D
:101AD000F894DEBF0FBECDBF0E94B60EF82E609107
:101AE000F905882309F463C08E010F5F1F4F8CE056
:101AF000F80111928A95E9F7862F90E0880F991FD7
:101B0000B80180529A4F0E94FB1A81112AC080911D
:101B10005A048F5F80935A04863008F446C0E091DF
:101B2000F805F0E0EE0FFF1FE052FA4FD801CE01AA
:101B30000D96119211921D921D92A817B907C9F71F
:101B40000E94340A8F2D2C960FB6F894DEBF0FBE7C
:101B5000CDBFDF91CF911F910F91FF90DF90CF907C
:101B6000089510925A04E091F805F0E0EE0FFF1F7F
:101B70009F0120523A4F6901D801AE01435F5F4F88
:101B8000F12CF601619171916F012D913D916217D8
:101B9000730739F0BF0162507109FB013183208363
:101BA000F82EA417B50769F7CBCFF12CC9CF70E099
:101BB000660F771F60527A4F8091F80590E0880F8A
:101BC000991F80529A4F0E94371B0E94DB0CBACF9C
:101BD0008F929F92AF92BF92CF92DF92EF92FF923D
:101BE0000F931F93CF9304EF12E098ECE92E95E04A
:101BF000F92E2AEFA22E22E0B22EC0E0CC24C3940C
:101C0000D12CF80181918F01F894E82FE295EF70C3
:101C1000F0E021A18F70A60102C0440F551F8A95E4
:101C2000E2F7CA01922F982B91A392A18095892364
:101C300082A378940E94BE0CEAEEF2E030E020E04D
:101C4000912C812C4191A42FA295AF70B0E0909679
:101C50008C9190E04F7002C0959587954A95E2F778
:101C600080FD45C0C601022E02C0880F991F0A944C
:101C7000E2F7882A992A2F5F3F4F2A30310511F762
:101C8000F801319780810E94C20C0E94C00CF701BC
:101C9000808191818816990669F19182808281E024
:101CA000C82BF2E0EF0EF11CA016B10609F0A9CF87
:101CB0006091F90570E0660F771F60527A4F2C2F04
:101CC00046E088EC95E00E947D0E0E945D0DC111FA
:101CD00001C0C82F8C2FCF911F910F91FF90EF90D3
:101CE000DF90CF90BF90AF909F908F90089590E03D
:101CF00080E0BFCF80E0D4CF0895FF920F931F9371
:101D0000CF93DF93F82E092F162FD72FC42F22231E
:101D100049F081E080935D040E949C2890935C04CC
:101D200080935B0480915D048823A1F080915B0423
:101D300090915C040E94C828069760F0EF2DF02F68
:101D4000A12FBD2F90E080E0D0E08C179D0744F0DC
:101D500010925D04DF91CF911F910F91FF90089534
:101D6000219131912D933D930196EFCF80915E04A7
:101D7000811110C08091D80080618093D8008AE1E1
:101D80008A95F1F700C08091D90080FD0AC082E0F9
:101D900080935E0481E090915E04913009F080E0D0
:101DA000089581E0F5CF0E94B60E91E0892708954D
:101DB0000E94D30E809300030E94B60E81110C94F2
:101DC000EF1A08950E94B60E811102C00C94F51A04
:101DD000089584E08093FA058FE78093FB05809156
:101DE000FC05807880648093FC05E3E6F4E08FEFE7
:101DF000819394E0EB3AF907D9F7109262041092BC
:101E000061041092600410925F0408959091FA05A5
:101E1000292F2F7095959595959595959F523CE016
:101E2000239F900D1124890F08950F931F93CF9333
:101E3000DF9300D00F92CDB7DEB7DB0187372CE5FB
:101E40009207B0F48F324CE59407D8F481E08A838E
:101E50008A810F900F900F90DF91CF911F910F917A
:101E60000895E15FF94C12962C912A830C94543515
:101E7000FC01E757FC45E534F10598F341E04A835E
:101E8000E7CF2091FB05322F331F3327331FE0911B
:101E9000FC05E770EE0FE32BEB832F772983129677
:101EA000FC91FA8301ED080F10E00D591B4FF8016A
:101EB0004081FA81FF2391F04F3F11F01A82C8CF81
:101EC0000E94060F8A832981482F6B818BEA97E055
:101ED0000E94442A2A81F8012083F0CF4F3F31F03D
:101EE00029816B818BEA97E00E94542A8FEFF801D9
:101EF0008083AECF2A81222309F38757982F9F70C2
:101F00008091FA05807F892B8093FA05D7CF4A818B
:101F10004423A1F28091FA05982F9F7079F2915F86
:101F20009F70F0CF8A81882349F28091FA05982F1B
:101F30009F70993018F69F5FF3CF2A81222309F40E
:101F4000BDCF8958982F9295907F8091FA058F7018
:101F5000DACF4A81442309F4B1CF8091FA05982F52
:101F60009595959595959595803B0CF4A7CF915FA8
:101F70009295907FECCF8A81882309F49FCF80913E
:101F8000FA05282F259525952595259580360CF061
:101F900095CF91E0920F9295907F95959595959517
:101FA0009595392F3295307F8F70832B8093FA056A
:101FB00012160CF083CF97FF81CF2295207F8F7070
:101FC000822BA2CF2A81222309F478CF82599CE068
:101FD000899F902D11249F778091FB05807815C0F3
:101FE0004A81442309F46ACF8091FB05982F9F779B
:101FF00009F464CF80789F3721F485678093FB05CF
:102000005DCF9D30D8F39D509F77892BF7CF8A8184
:10201000882309F453CF8091FB05982F9F779F3732
:1020200009F44CCF933718F4935F9F77D7CF8F671E
:10203000E5CF2A81222309F441CF8F599091FB05E6
:1020400080FB97F99093FB05869587709091FC052E
:10205000987F892BB3C04A81442309F42FCF209164
:10206000FB05322F331F3327331F9091FC05892F37
:102070008770880F832B815F382F3F7080FB27F993
:102080002093FB05832F8695987F982B9093FC05D2
:1020900015CF8A81882309F411CF2091FB05322FB7
:1020A000331F3327331F9091FC05892F8770880FCA
:1020B000832B8F5FE1CF2A81222309F4FFCE609129
:1020C000FB05862F881F8827881F6091FC05677095
:1020D000660F682B20E04BE78BEA97E00E94342ADA
:1020E000EDCE4A8120E041112FE76091FB05862F5C
:1020F000881F8827881F6091FC056770660F682B12
:1021000040E4EACF8A8120E081112FE76091FB054E
:10211000862F881F8827881F6091FC056770660FCF
:10212000682B41E4D9CF2A8121112FE76091FB056B
:10213000862F881F8827881F6091FC056770660FAF
:10214000682B42E4C9CF4A81411111C020E060915F
:10215000FB05862F881F8827881F6091FC05677004
:10216000660F682B43E4B8CF8A81882379F32FE781
:10217000EECF2A818FEF211181E0809361049ECE02
:102180004A81442309F49ACE9091FC05292F269583
:10219000269526952F7081E0820F8F70880F880F0B
:1021A000880F9778892B8093FC05982F987709F0F2
:1021B00085CE220F220F220F8778822B8093FC0579
:1021C0007DCE8A81882309F479CE8091FC05982FF1
:1021D000987709F473CE982F969596959695915F7A
:1021E0009F70990F990F990F877833CF6091FB05F6
:1021F000862F881F8827881F6091FC056770660FEF
:10220000682BEA8140E050EEE11117C050E040E059
:102210008BEA97E00E94642A1BCE6091FB05862F13
:10222000881F8827881F6091FC056770660F682BE0
:10223000FA81FF2359F34FEF5FE18BEA97E00E94A9
:10224000642A3CCE8BEA97E00E94632C80915F0465
:10225000909160040E94C8289C019091FC0596957D
:10226000969596959F709217130609F0A0F50E9417
:102270009C289093600480935F048091610488237C
:1022800051F16091FB05862F881F8827881F609178
:10229000FC056770660F682B2091620441E08BEAB1
:1022A00097E00E94342A809161049091620487FF34
:1022B0000DC0482F552741950CF4509594171506DD
:1022C0002CF410926204109261040895890F87FD26
:1022D00003C08093620408958FE7FBCFCF92DF9213
:1022E000EF92FF920F931F93CF93DF93D62FC72FB9
:1022F000982F711113C0442329F0E82FF0E0E45F18
:10230000F54F9491692F792F892FDF91CF911F91EC
:102310000F91FF90EF90DF90CF900895272F30E03E
:10232000E82FF0E0442321F0E45FF54FE491F0E082
:1023300086E0D89F700111240FEF10E0C701B801AB
:102340000E940D358D2F90E0880F991FA5E5A69F5F
:10235000A001A79F500D1124841B950BD82EDD0CD6
:10236000D80EC801821B930B8E9FA0018F9F500D2A
:102370009E9F500D1124952FDC9EE0011124CD2F3E
:10238000DD27D801AC1BBD0BED01CE9FD001CF9F47
:10239000B00DDE9FB00D11248B2FE801CD19D109AE
:1023A0006E01C29EE001C39ED00DD29ED00D1124BD
:1023B000CD2FDD270C1B1D0B0E9FE0010F9FD00DB5
:1023C0001E9FD00D11242E2F63307105D9F03CEFE4
:1023D000E31633E0F30668F461307105B9F062305A
:1023E0007105C1F0AFEFEA16F10448F4852F9D2F77
:1023F00006C06430710589F066307105B9F3692F44
:10240000722F83CF9B2F8E2F252FF9CF9E2F2B2F0F
:10241000852FF5CF8D2F9E2FF7CF8E2F2D2FEFCF1E
:1024200041E00C946E119C0190E080E0269F812D8C
:10243000369F800D911D11240895982FE82F96FD49
:10244000E0952E2F2F7096FD2F5FE695E695E69589
:10245000E670F0E0EE58FC4F8181829F802D212DA7
:10246000112482958F702295207F822B2081820FEC
:1024700097FD819580580895322F50E0FA01EE0FB4
:10248000FF1FE758FE4F9081905297FD9195440FA2
:10249000551FFA01E858FE4F2081231B330B290FEB
:1024A000311D97FD3A95620F08950F931F93522F98
:1024B00010E0F801EE0FFF1FE758FE4FA081A05279
:1024C000BB0B9D015203F001539FF00D1124000F2F
:1024D000111FD801A858BE4F0C910057110B400393
:1024E0009001419F300D11242E0F3F1F37FF02C076
:1024F000215C3F4F96E0359527959A95E1F7620F5D
:102500001F910F91089522E8241B08F420E0620F28
:1025100008950C94101245E050E06CE170E08EEFED
:1025200095E00C94853545E050E06CE170E08EEF6D
:1025300095E00C94A935EEEFF5E085E0808380917D
:10254000360390913703A091380381839283A3834C
:102550008FE784830C94931280E008950F931F9368
:10256000CF93DF93C82FD62F8A010E94AC129AE036
:10257000C99F9001112420503F4F2D0F311DF901AB
:1025800090819F3F29F0F801E80FF11D90838F5F44
:10259000DF91CF911F910F910895E0918003F09109
:1025A00081030994E0917C03F0917D030994BF922B
:1025B000CF92DF92EF92FF920F931F93CF93DF930F
:1025C0008C016B01FC01C08189E1C89FC02D1124E1
:1025D00099E1F92EFC0EBF2CFBE7FF1510F48BE7F9
:1025E000B82E6091020666956695809103069091DB
:1025F00004060E941312E82ED0E0CB1578F081E09B
:102600009AE79F1508F480E0DF91CF911F910F9119
:10261000FF90EF90DF90CF90BF900895FE01E259B8
:10262000FD4F8081F8019181892391F06091FF0530
:1026300070910006809101062E2D4C2FF601099510
:102640000E948912462F672F282FCE010E94D21296
:102650002196D3CF6CE372E10C94D7129F92AF9284
:10266000BF92CF92DF92EF92FF920F931F93CF937F
:10267000DF9300D000D00F92CDB7DEB76C015B01C5
:10268000FC01F08189E1F89F802D11248B8399E171
:10269000F92EF80E9F2C8BE78F1510F48BE7982EF0
:1026A00060910206669566958091030690910406F6
:1026B0000E941312182F80E4810F0E941D1280586F
:1026C0008983812F0E941D1280588A83FB81EF2FFE
:1026D000F0E0FD83EC839C819915B0F081E0EAE79E
:1026E000EF1508F480E00F900F900F900F900F906F
:1026F000DF91CF911F910F91FF90EF90DF90CF90DE
:10270000BF90AF909F900895EC81FD81E259FD4FFD
:102710008081F60191818923A9F06091FF05709174
:10272000000680910106E12E0C812A814981F50184
:1027300009950E948912462F672F282F8C819D8131
:102740000E94D2128C819D8101969D838C83C3CF80
:1027500065E572E10C942E13AF92BF92CF92DF9297
:10276000EF92FF920F931F93CF93DF937C016B0146
:10277000FC01C08189E1C89FC02D112429E1B22E3E
:10278000BC0EAB2CFBE7FB1510F49BE7A92E2091A8
:10279000020630E050E040E06FEF7FEF80E090E035
:1027A0000E9435358901D0E02C2FCA1580F081E0D8
:1027B000FAE7FB1508F480E0DF91CF911F910F91AC
:1027C000FF90EF90DF90CF90BF90AF900895FE0103
:1027D000E259FD4F8081F70191818923F1F0409109
:1027E00007064150042E000C550B47FF18C0C801C6
:1027F000609102060E941312AC016091FF05709176
:10280000000680910106F60109950E948912462F63
:10281000672F282FCE010E94D2122196C5CFFA0130
:10282000E95FF94F818982130AC0FA01EE0FFF1F99
:10283000E95FF94F818D928D80179107C8F2415061
:102840005109D3CF63E872E10C94AC13BF92CF92DD
:10285000DF92EF92FF920F931F93CF93DF938C0140
:10286000FC01C08189E1C89FC02D112499E1F92E96
:10287000FC0EBF2CFBE7FF1510F48BE7B82E609120
:10288000FF0570910006809101060E948912E62ED4
:10289000D72EC82ED0E0CB1578F081E09AE79F15AF
:1028A00008F480E0DF91CF911F910F91FF90EF909E
:1028B000DF90CF90BF900895FE01E259FD4F8081D7
:1028C000F8019181892331F02C2D4E2D6D2DCE01F3
:1028D0000E94D2122196DFCFE0917E03F0917F0318
:1028E0000994CF92DF92EF92FF920F931F93CF93B1
:1028F000DF93CDB7DEB728970FB6F894DEBF0FBED3
:10290000CDBF182F062FF42E0E94B60E882309F48F
:102910004BC0FF2009F457C0AE014F5F5F4F602FDF
:10292000812F0E94AE12F82EE090AB040F2D10E024
:10293000C8018E0D911D099764F188E090E06C014B
:10294000C01AD10AB80164557B4FA6018CEA94E005
:102950000E947C35B8016C547B4FA60184EB94E057
:102960000E947C35A601440F551FB801660F771FE2
:102970006C537B4F84EC94E00E947C35B801645426
:102980007B4FA6018CEB94E00E947C35EA94E092A8
:10299000AB041091AB04DE01119680E0282F210FCB
:1029A000F81213C02093AB0428960FB6F894DEBF3C
:1029B0000FBECDBFDF91CF911F910F91FF90EF9090
:1029C000DF90CF900895F12CAFCF9D91492F50E02B
:1029D00030E0B90165557B4FFA01EE0FFF1FE85853
:1029E000FE4F0081FB010183440F551FFA01E75898
:1029F000FE4F4081FB014187918B220F331FF9016C
:102A0000E555FB4F128E118E8F5FC8CF08950E943F
:102A100006150C94640708950895CF93DF93FC0185
:102A2000C08189E1C89FC02D1124D7EEDC0FCC37BF
:102A300008F0CBE76C2F8D2F0E940B156C2F8D2F7C
:102A4000DF91CF910C940C154F925F926F927F9211
:102A50008F929F92AF92BF92CF92DF92EF92FF92AE
:102A6000CF93DF9300D000D0CDB7DEB78091D404F0
:102A70009091D504A091D604B091D70489839A830C
:102A8000AB83BC83BC01CD010E9485296B017C0115
:102A90000E9454296093D4047093D5048093D60483
:102AA0009093D704A091AB04EBEAF4E02A2F30E036
:102AB00088248A94982CA12CB12C8C189D08AE08DF
:102AC000BF08A3132CC02093AB042091FE05A22FB6
:102AD000A370A983AA2321F0B22FB695B695B98326
:102AE00030910103323009F4B1C060F5311140C0BA
:102AF0001092020360930306709304068093050608
:102B00009093060689E2EBEAF4E0A7E0B6E00190D4
:102B10000D928A95E1F781E08093010316C0418D03
:102B2000528D2A01712C612C84149504A604B704DB
:102B300020F421503F5F3296C4CF4C0D5D1D528F63
:102B4000418FF8CF333009F48BC00F900F900F9066
:102B50000F90DF91CF91FF90EF90DF90CF90BF90DB
:102B6000AF909F908F907F906F905F904F9008955F
:102B7000809105033981381341C0237040910603C9
:102B800050E081E02417150609F480E081708093FD
:102B900004039981923009F44AC090F59923D1F148
:102BA000913009F43FC080E0909102039F5F9093C1
:102BB0000203811146C082E08093010380910403E7
:102BC00081113FC0B981BB2309F448C00E94071599
:102BD00082E093E00F900F900F900F90DF91CF91D4
:102BE000FF90EF90DF90CF90BF90AF909F908F902D
:102BF0007F906F905F904F900C940D1581E0C6CF41
:102C0000A981A330C9F0A43071F682E093E00E945C
:102C10002214CACF882341F240E060E080E00E94A5
:102C20006C14C1CF82E093E00E942614BDCF82E0F5
:102C300093E00E942A13B8CF82E093E00E94A81389
:102C4000B3CF3981332309F480CFC0CF89818093FA
:102C500005032370209306030E94CD1283E05CCF0E
:102C60008091030690910406A0910506B091060696
:102C7000BC01CD010E948529603171058105910556
:102C800008F463CF1092010360CFE0917A03F091D2
:102C90007B030995109207068FEF9FEF9093210613
:102CA0008093200690932306809322069093250616
:102CB00080932406909327068093260690932906F6
:102CC0008093280690932B0680932A0690932D06D6
:102CD00080932C0690932F0680932E061092AB04BF
:102CE0009093C5048093C4049093C7048093C60452
:102CF0009093C9048093C8049093CB048093CA0432
:102D00009093CD048093CC049093CF048093CE0411
:102D10009093D1048093D0049093D3048093D204F1
:102D20000E942427811104C00E94CC270E949B127C
:102D30000E948B128091FE058C7F11F40C949B12E3
:102D400008959091FE0521E092279093FE05109240
:102D5000010381110C949312089581E00C94A11643
:102D60008091FE05837008959091FE05937099F00F
:102D7000811109C094609093FE05109201036623AF
:102D800051F00C949312853010F09061F4CF880FBD
:102D9000880F982BF0CF089561E00C94B416682F3B
:102DA0008091FE05869586958F5F853008F081E0DD
:102DB0000C94B41681E00C94CF16682F9091FE0508
:102DC000969596958FEF890F913009F484E00C94D5
:102DD000B41681E00C94DD169091FE05937061F0BD
:102DE0008093FF0560930006433308F042E340936D
:102DF000010621110C9493120895282FEEEFF5E0AF
:102E00009181892F90E04381628108960C94EC16A1
:102E100081E00C94FD16282FEEEFF5E081814381CF
:102E200062818850990B0C94EC1681E00C940B177E
:102E3000282FEEEFF5E0628130E1630F08F46FEFC9
:102E40008181438190E00C94EC1681E00C9418177A
:102E5000282FEEEFF5E0628130E1631B08F460E0BB
:102E60008181438190E00C94EC1681E00C9428174A
:102E7000282FEEEFF5E0438130E1430F08F44FEFE8
:102E80008181628190E00C94EC1681E00C943817FB
:102E9000282FEEEFF5E0438130E1431B08F440E0DA
:102EA0008181628190E00C94EC1681E00C944817CB
:102EB0002091020630E1230F08F42FEF2093020641
:102EC00081110C949312089581E00C94581720916D
:102ED000020630E1231B08F420E020930206811152
:102EE0000C949312089581E00C9467170895FC01E7
:102EF000EE0FFF1FE80FF91FE05DF94F618340837C
:102F000022830895E0E3F6E0818360834283339671
:102F100097E0E13AF907C1F708956BE770E080E3C5
:102F200096E00C94EF17FA0181110994FB01FDCF93
:102F30001F93CF93DF93EC01FB011281111110C09D
:102F40000E94FA268272FE01E35CFC45E431F10541
:102F500008F043C0EC5AF94C0C9454350E94AD165D
:102F6000812FDF91CF911F91089549EE56E16AEDCF
:102F700076E10E949317F4CF4AED56E169EE76E1CF
:102F8000F8CF45E157E168E077E1F3CF48E057E15A
:102F900065E177E1EECF45E357E165E277E1E9CF1F
:102FA00045E257E165E377E1E4CF45E557E165E4C4
:102FB00077E1DFCF45E457E165E577E1DACF43E735
:102FC00057E164E677E1D5CF44E657E163E777E17F
:102FD000D0CF81E00E94CC16C3CF11E0C1CF9C01BD
:102FE000AB01539A6BB1677F7BB17860EFB7F89410
:102FF000CA01880F991F840F951F820F931F821794
:10300000930741F4EFBF8FE594E00197F1F700C01B
:1030100000000895D9014D919D0158E07BB9000051
:1030200000C047FF6BB9440F000000C000C000C0E3
:103030006BB900C05A9591F7E2CF0C94AC0980911E
:103040000003811106C084E38093080386E3809324
:10305000070320910803A22FA295AF70B0E09196CC
:103060003C9191972F7081E090E0BC01022E01C04D
:10307000660F0A94EAF7462F4095432391964C93A6
:10308000919792963C919297362B92963C93929779
:1030900040910703E42FE295EF70F0E031A14F700B
:1030A000042E01C0880F0A94EAF7982F9095932375
:1030B00091A392A1892B82A390968C9190E002C05B
:1030C000959587952A95E2F7817020A130E002C09E
:1030D000359527954A95E2F792E020FF90E0892BFD
:1030E0008093DD049091000381E098279093D904A8
:1030F000891B8093D8040895CF93E091DD04EE0FEF
:10310000EE0F20910803A22FA295AF70B0E0909629
:103110008C9190E02F7002C0959587952A95E2F7E3
:103120008170992740910703A42FA295AF70B0E05A
:1031300090962C9130E04F7002C0359527954A95B6
:10314000E2F7A9014170552720FF02C042E050E09C
:10315000842BE82BE093DD04C091D904EF70F0E0FC
:10316000EE57FC4F80819091DC04890F8093DC0442
:1031700020E0843074F0EC2F0C2E000CFF0BE65294
:10318000FB4F80818F5F808360E08C2F0E941D1831
:1031900021E08091DC048D3F74F4EC2F0C2E000CA8
:1031A000FF0BE652FB4F80818150808361E08C2FC2
:1031B0000E941D1821E08091DC04082E000C990B60
:1031C00064E070E00E9421358093DC04822FCF916F
:1031D0000895E091D904F0E0E652FB4F2081FC0114
:1031E00020830895FF920F931F93CF93DF93D09185
:1031F000D8040D2F10E006521B4FFC01C081F801CE
:103200008081C81BFC2E80E01F147CF09C2FC7FD22
:1032100090E0C91BC11114C08823E9F0DF91CF9160
:103220001F910F91FF900C94181DFA94F801808162
:103230008F5F808360E08D2F0E941D1881E0E4CFB6
:10324000CF5FF80180818150808361E08D2F0E94E3
:103250001D1881E0DFCFDF91CF911F910F91FF907B
:1032600008950F931F93CF93DF93C42FD22FFC01A8
:1032700082818823C9F04093E0040E949C289093A7
:10328000DF048093DE0480E28C0F883008F050C0A9
:10329000C77081E001C0880FCA95EAF7DF91CF912E
:1032A0001F910F910C94D01E1091E004141335C09F
:1032B0008091DE049091DF040E94C828883C91052B
:1032C00060F5C0E2CD0F1D17B9F080E2810F8830A4
:1032D00040F4177081E001C0880F1A95EAF70E9448
:1032E000D71EC83048F481E09D2F977001C0880F29
:1032F0009A95EAF70E94D01E802F0E94C81EC830FF
:10330000B8F4D77081E001C0880FDA95EAF7DF9151
:10331000CF911F910F910C94D71E80E28C0F8830B3
:1033200038F4C77081E001C0880FCA95EAF7EFCF83
:10333000DF91CF911F910F9108950F939C01CB01C5
:10334000243F4CE53407A1F190F4293DFCE53F070B
:1033500049F12A3D4CE53407E9F1283D3C45C1F0EF
:10336000FC0182818823E1F11092E00419C0263F1C
:10337000FCE53F0719F1273F4CE5340729F1253FCC
:103380003C4571F707E225EE44EE65EF7CE505C0AC
:1033900006E221EE41EE68ED7CE50E94311980E005
:1033A0000F91089507E225EE45EE69ED7CE5F5CF36
:1033B00006E221EE40EE64EF7CE5EFCF06E221EE7F
:1033C00042EE66EF7CE5E9CF07E225EE46EE67EFD9
:1033D0007CE5E3CF08E221E045EE6AED7CE5DDCF58
:1033E00081E0DECFCF93DF93EC01FB018281882364
:1033F00009F4C9C0C631FCE5DF07E0F4C2309CE542
:10340000D907F0F00E943C279093AA078093A90760
:10341000C631ECE5DE0720F5C230FCE5DF0798F4A5
:103420008091A9079091AA070E944A270E94212112
:1034300080E006C09E012B5F3C452930310510F32A
:10344000DF91CF910895FE01E350FC458091A907DB
:103450008160E331F10588F4E859F94C0C94543556
:10346000CB5FDC45C930D105D8F6C558D94CFE0133
:103470000C9454358091A90782608093A907D0CF1E
:103480008091A9078460F9CF8091A9078860F5CF62
:103490008091AA0781608093AA07C2CF8091AA0772
:1034A0008260F9CF8091A9078061E7CF8091A90759
:1034B0008062E3CF8091A9078064DFCF0E94212141
:1034C0008091A9078068D9CF8091A9078C60D5CF5A
:1034D0008091AA078360DFCF8091A9078E7FCDCF2F
:1034E0008091A9078D7FC9CF8091A9078B7FC5CF18
:1034F0008091A907877FC1CF8091AA078E7FCBCF0C
:103500008091AA078D7FC7CF8091A9078F7EB5CF05
:103510008091A9078F7DB1CF8091A9078F7BADCF17
:103520000E9421218091A9078F77A7CF8091A907B9
:10353000837FA3CF8091AA078C7FADCF8091A9070D
:1035400082FB992790F921E0922790FB82F990FB6A
:1035500083F993CF8091AA07982F909591708E7FD1
:10356000892B90FB81F997CF0E9421219091A90787
:10357000892F97FB87F9805880CF81E00E94CE2762
:103580004FCF80E0FBCF81E05BCFCF93DF93EB01A8
:1035900086319C4511F50E94FA269A81992399F06B
:1035A0008A7A91E009F490E09093E104811109C0D6
:1035B00089E20E94C7260E94DB2680E0DF91CF913E
:1035C000089585E3F6CF8091E104811104C089E27A
:1035D0000E94CE26F0CF85E3FBCF81E0EFCF61E004
:1035E00070E089E093E00C94CF1B61E070E089E02B
:1035F00093E00C94D61BCF93DF9300D000D00F92B2
:10360000CDB7DEB76D8379830E94701C9C0180E08A
:103610002115310521F5ED81F981D901AA0FBB1FD3
:10362000A951BB4F8D919C91819391932F5F3F4FF7
:103630002630310591F783EF94E00E94F2180E9442
:103640005429DC01CB010296A11DB11D8093E30436
:103650009093E404A093E504B093E60481E00F9016
:103660000F900F900F900F90DF91CF910895CF930F
:10367000DF9300D000D000D0CDB7DEB76E837D835E
:103680008091E3049091E404A091E504B091E604F4
:1036900089839A83AB83BC83BC01CD010E942B2913
:1036A000EE81FD8190E080E021913191DC01AA0F53
:1036B000BB1FA951BB4F11963C932E9301968630A8
:1036C000910591F783EF94E026960FB6F894DEBF4C
:1036D0000FBECDBFDF91CF910C94E9188EE14A9BCC
:1036E00002C08150E1F74A9BFECF08955A9880E2CC
:1036F0008A95F1F75A9A0895FC013BE03A95F1F763
:1037000098E020E080E031E040E14A95F1F7880F51
:103710004A9B02C08160232742E04A95F1F70000EE
:1037200040E14A95F1F7915079F790E19A95F1F7D8
:1037300099B132E03A95F1F7000040E14A95F1F78E
:1037400092FB992790F992272081920F90830895F8
:10375000EF92FF920F931F93CF93DF930F92CDB70A
:10376000DEB719828C017C01E60EF11C0E151F05D7
:1037700061F481E09981911180E00F90DF91CF9108
:103780001F910F91FF90EF9008950E946E1BCE0144
:1037900001960E947C1BF80181938F01E7CF9093E3
:1037A000F5048093F404529A5A9A08959093F5047C
:1037B0008093F40452985A9AEA9AE9E6F0E08081FC
:1037C0008F7C808308956150770B91E001C0990F41
:1037D0006A95EAF720E031E0911108C0222391F0C8
:1037E0005A9A80E28A95F1F75A980895492F48230A
:1037F00039F05A9A232740E24A95F1F79695ECCF93
:103800005A98F9CF5A98EDCFFF920F931F93CF9309
:10381000DF93EC018C01060F111DC017D10731F4A5
:10382000DF91CF911F910F91FF900895F9900E9421
:10383000761B68E08F2D0E94E31BEFCF1F920F9243
:103840000FB60F9211242F933F934F935F936F9373
:103850007F938F939F93AF93BF93CF93DF93EF9318
:10386000FF935A98529AC091F404D091F5046D8157
:10387000662321F08E819F810E94041C0E94761B8A
:1038800080E18A95F1F75A9852985A9A80E18A9580
:10389000F1F76A81662309F18B819C810E94A81B44
:1038A000E881F981882311F088E001C082E08083FB
:1038B0000E946E1BFF91EF91DF91CF91BF91AF916D
:1038C0009F918F917F916F915F914F913F912F9138
:1038D0000F900FBE0F901F901895E881F981E4CFEB
:1038E000CF93DF93C091F404D091F504F894529AE9
:1038F0005A9885E08A95F1F7000052985A9A80E22A
:103900008A95F1F74A9B0CC0529A5A9AE881F9813C
:1039100081E08083789481E090E0DF91CF910895F9
:103920006D81662381F08E819F810E94A81B811189
:103930000AC0529A5A9AE881F98182E08083789489
:1039400082E090E0EACF0E946E1B80E28A95F1F758
:103950005A98529A80E18A95F1F76A81662321F09C
:103960008B819C810E94041C0E94761BE881F98156
:103970001082789490E080E0D0CF9093FB04809305
:10398000FA040895E091FA04F091FB04309721F0D5
:103990000190F081E02D099480E00895E091FA040F
:1039A000F091FB04309721F00280F381E02D09941F
:1039B00008952091F8043091F9042817390771F01F
:1039C0009093F9048093F804E091FA04F091FB04D9
:1039D000309721F00680F781E02D09940895209119
:1039E000F6043091F7042817390771F09093F70423
:1039F0008093F604E091FA04F091FB04309721F0F3
:103A00000084F185E02D099408950E94A828609310
:103A10001D0570931E0580931F05909320056093EC
:103A2000190570931A0580931B0590931C05089542
:103A30000E94A82860931D0570931E0580931F05A2
:103A400090932005609315057093160580931705D4
:103A500090931805089585B7806885BF85B78068FD
:103A600085BF0895089508950C94321D0C946B0839
:103A70000E942B1D82E297E20E94CD290E94331DF5
:103A80000C94341D0C94B60E089508950E9493284A
:103A90000E9422290E94DC0C0E94D2290E941F1839
:103AA0000C94361D8F929F92AF92BF92CF92DF926D
:103AB000EF92FF920F931F93CF93DF9300D000D02C
:103AC0000F92CDB7DEB70E94441D0E94451D0E9493
:103AD000E80D81110E94051D5DEF852E54E0952EA5
:103AE00010E000E0C02E802F0E94B00C7C01F40199
:103AF000A190B1904F01A816B906B1F40F5F1F4F06
:103B00000C30110579F78FEF89838A831B820E941D
:103B10009C288160782F9D838C8349815A816B8199
:103B20008D810E94101E3DC08091B80581FD0E94CC
:103B3000B90CC5018E259F25D12CAA24A394B12CA4
:103B40009C012A213B21232B09F451C00E94421DD4
:103B500097012A213B21FF24F394232B09F4F12C14
:103B6000882379F0D982CA82FB820E949C288160D6
:103B7000782F9D838C8349815A816B818D810E942E
:103B8000101E000F111FF801E350FB4F808191813F
:103B9000A826B926B182A0824F2D6D2D8C2D0E94B2
:103BA00071140E9424150E947C1881110E94181D16
:103BB0000E9422110E94C21C9091FC048917F1F00E
:103BC0000E94C21C8093FC040F900F900F900F90E6
:103BD0000F90DF91CF911F910F91FF90EF90DF90A9
:103BE000CF90BF90AF909F908F900C94E00AD394A9
:103BF000AA0CBB1CFAE0DF12A3CF80CF0F900F906E
:103C00000F900F900F90DF91CF911F910F91FF9028
:103C1000EF90DF90CF90BF90AF909F908F900895DE
:103C2000DF92EF92FF920F931F93CF93DF93CDB765
:103C3000DEB72B970FB6F894DEBF0FBECDBF7A87E5
:103C40008B87F42E052F162FE72ED82E61110E9498
:103C50001C277E2DEC82DD824F2D502F612F8D2D64
:103C600090E02B960FB6F894DEBF0FBECDBFDF916C
:103C7000CF911F910F91FF90EF90DF900C948423D0
:103C8000FC01808191810C949126CF93C82F8823C9
:103C9000F1F18CEF8C0F813AA0F46C2F809111031D
:103CA000909112030E94D327882329F08C2F0E9421
:103CB000CE260E94DB268C2F0E94C726CF910C9423
:103CC000DB2680E28C0F883048F4C77081E001C0A9
:103CD000880FCA95EAF70E94FD26F0CF8BE58C0F7E
:103CE000833038F42C2F2452330BC901CF910C941C
:103CF000D91CC85AC73158F4EC2FF0E0EE0FFF1F63
:103D0000EE56FC4F80819181CF910C94EF1CCF91A6
:103D10000895882329F19CEF980F913A20F40E948E
:103D2000CE260C94DB2690E2980F983050F48770E2
:103D300091E001C0990F8A95EAF7892F0E94032725
:103D4000F0CF9BE5980F933020F490E080E00C9446
:103D5000D91C885A873120F490E080E00C94EF1C45
:103D600008951F93CF93DF93182FEB010E94451EF8
:103D7000209731F4812FDF91CF911F910C94891EF0
:103D80008FE99FE00197F1F700C000002197F0CF85
:103D90006AE070E0893311F460E570E00C94B11EC4
:103DA000882321F00E94FD260C94DB2608958823A9
:103DB00021F00E9403270C94DB2608958F929F9296
:103DC000AF92BF92CF92DF92EF92FF921F93CF9369
:103DD000DF9300D000D00F92CDB7DEB7FC0169832E
:103DE000972F2281358132953F70172F12951F70C2
:103DF000183009F4C1C0C0F51430C0F4872F8F709B
:103E00008D83907F123008F441C08D81903211F083
:103E10008295807F9981913009F076C0222309F440
:103E20006DC0363030F40E94D01E03C0143009F447
:103E300089C0212F2850330B2430310508F0ABC145
:103E40000E94C21C0F900F900F900F900F90DF9167
:103E5000CF911F91FF90EF90DF90CF90BF90AF90E8
:103E60009F908F900C94E00A193009F43FC186E0CE
:103E7000810F8F708230E8F68981823F09F046C158
:103E8000872F8F71222309F46BC13DC1992329F03B
:103E90008D80829480EF88228D822223B9F09D80CC
:103EA000992061F08981805E883018F0A980A11086
:103EB00009C08D810E94FD260E94DB2689810E9417
:103EC000451EB7CF8D810E940E27F6CF89810E94B3
:103ED000891EBD80BB2009F4ACCF8981805E88300B
:103EE00018F08980811006C08D810E9403270E94EE
:103EF000DB269FCF8D810E941427F9CF353008F043
:103F000098CF0E94D71E95CF222349F0332309F47E
:103F10008ACF958190FFD2CF9F70958384CF332332
:103F200081F32981293309F02EC13FEF87EE93E019
:103F3000315080409040E1F700C0000089810E942C
:103F4000891E77CF872F86958695837061F08130A3
:103F500009F06FCF89819370211102C090E080E059
:103F60000E94EF1C66CF89819370211102C090E0FE
:103F700080E00E94D91C5DCF872F837009F058C064
:103F8000211157CF2981229526952770220F220FC4
:103F900089818F70C82ED12CF12CE12C022E04C007
:103FA000CC0CDD1CEE1CFF1C0A94D2F7898040E08B
:103FB00050E0BA0184FE0FC04FE050E060E070E0D6
:103FC00004C0440F551F661F771F2A95D2F74095EE
:103FD0005095609570959695969593704A015B0102
:103FE0008C289D28AE28BF2889829A82AB82BC8209
:103FF000923081F09330A9F0913029F0C501B401DD
:104000000E945E2416CF69817A818B819C810E94F7
:1040100036240FCF69817A818B819C810E9486240E
:1040200008CF69817A818B819C810E94342401CFE1
:104030008695222311F0872F8170882309F4F9CE09
:104040002981229526952770220F220F89818F7052
:10405000C82ED12CF12CE12C022E04C0CC0CDD1C7E
:10406000EE1CFF1C0A94D2F7998040E050E0BA01A0
:1040700094FE0FC04FE050E060E070E004C0440FD9
:10408000551F661F771F2A95D2F74095509560956A
:1040900070959695969593704A015B018C289D28A2
:1040A000AE28BF2889829A82AB82BC82923081F08E
:1040B0009330A9F0913029F0C501B4010E94A725E1
:1040C000B8CE69817A818B819C810E947F25B1CE97
:1040D00069817A818B819C810E94CF25AACE6981DA
:1040E0007A818B819C810E94B224A3CE9F709D8394
:1040F000222329F0892F0E94E824898194CE898186
:104100000E94D71E8D810E94192593CE8981833FFD
:1041100058F4803F99F0813FF9F0222339F13111B1
:10412000CDCE892F8F711CC08981833FB1F72223A7
:10413000D1F0872F8F710E94C3247BCE222341F0C0
:10414000353008F076CE892F8F710E944E2571CEC2
:10415000363008F06ECEF7CF872F8F71222399F279
:104160000E94E82466CE0E94BE2463CE332381F0F1
:104170009981993341F42FEF37EE83E0215030409D
:104180008040E1F7D9CE8FE39CE90197F1F7D4CED7
:10419000892F8F71B8CF0F900F900F900F900F90C5
:1041A000DF91CF911F91FF90EF90DF90CF90BF9064
:1041B000AF909F908F9008950F931F93CF93DF93AD
:1041C000EC01688179818A810E949D268C010E9480
:1041D000F7250E943324B801CE01DF91CF911F91C2
:1041E0000F910C94DE1ECF93DF93EC018B819C81A9
:1041F000892B29F08881998189238F3F19F4DF91D8
:10420000CF910895CE010E94460A8823C1F3CE01C2
:104210000E94DC20CE01DF91CF910C94F80990E050
:1042200080E00E94D91C90E080E00E94EF1C0E9478
:104230001C270E941F270C94DB260E94D5260C9475
:104240000F210E940B270C941D21282F892F829566
:104250008F70903C80F48A30B0F4843020F4823047
:1042600090F480E008958630E1F781E0283E88F000
:10427000213FB9F70EC08C3011F08F3091F793FBCE
:10428000882780F9089581E0203F39F018F4283E0E
:1042900040F70895243F29F7FCCF08950E94912606
:1042A0000C942521CF93DF9300D000D00F92CDB78F
:1042B000DEB70F900F900F900F900F90DF91CF917E
:1042C0000895CF93DF9300D000D000D0CDB7DEB7F4
:1042D00026960FB6F894DEBF0FBECDBFDF91CF910B
:1042E00008951F93CF93DF93E091220516E080910C
:1042F00023058E1304C0DF91CF911F910895CE2F17
:10430000D0E01E9FF0011124EC5DFA4F40815181F5
:1043100062817381848195810E946121FE013196C1
:10432000E770E5CF409154055091550560915605D1
:104330007091570580915805909159050C94612111
:104340001F93CF93DF9380915905807FA9F48091CB
:104350005605882389F080912205C091230560913C
:10436000540570915505A0915705B0915805D62F69
:10437000D72316E0C81304C0DF91CF911F91089591
:1043800090E0109711F0DF3F19F401968770F2CF9B
:10439000189F9001199F300D1124F901EC5DFA4F1F
:1043A00041814713F2CF40814613EFCF4281411143
:1043B000ECCF438154814A1B5B0B483C510528F7E5
:1043C000809159058F70806180935905F901E75DEF
:1043D000FA4F80818F708061808384E595E00E9430
:1043E000F320DF91CF911F910C947121AF92BF9276
:1043F000CF92DF92EF92FF920F931F93CF93DF93B1
:10440000CDB7DEB72B970FB6F894DEBF0FBECDBF8A
:104410008C0185E0F801DE01179601900D928A95D6
:10442000E1F7F80140815181E28084E5C82E85E002
:10443000D82E60915705709158056115710509F4E2
:1044400044C19091540520915505822F89238F3FB7
:1044500009F43BC1A380B480F0905605F501E61B3A
:10446000F70BFF2009F4E0C080915905382F307F09
:10447000E83CF10508F0B2C0311179C0FE2C2513DB
:1044800023C0941321C0E1101FC08F7080618093FE
:1044900059050E949221C6010E94F320809159057E
:1044A000F80185838F2D2B960FB6F894DEBF0FBED3
:1044B000CDBFDF91CF911F910F91FF90EF90DF90D3
:1044C000CF90BF90AF900895AB2829F0842F85231B
:1044D0008F3F09F016C180E0F82FF170DF2EE091D8
:1044E00022052091230536E080FD1CC0EE20D1F28C
:1044F00080915905816080935905F12CD3CF8E2F7F
:1045000090E03E9FF0011124EC5DFA4F618165134C
:1045100006C06081641303C06281E612E7CFFC012C
:104520003196E770E213EBCF4F8358878F819885E0
:104530000E949126292F22952F70903260F0225FE1
:104540002F70223078F49F7051F0F8019581907FA0
:1045500031F4D12C0AC09F7011F08823D1F3805E12
:104560008830B8F3C8010E94F320FD2C9BCF25139F
:1045700006C0941304C0F801EE2009F470C04F8304
:1045800058878F8198850E944E21882319F1EE204B
:1045900009F180915905803270F0209154053091D5
:1045A00055053A8329831B82BD82AC828E83CE015E
:1045B00001960E94F32086E0F801A4E5B5E00190A1
:1045C0000D928A95E1F70E94A0210E949221FF247A
:1045D000F39468CFC8010E94F320F9CF311113C0C2
:1045E0007A2DBB86AA866E2D8B850E94522184E58A
:1045F00095E00E94F32086E0F60111928A95E9F792
:104600000E9492217ACF2513BACF9413B8CFE1102C
:10461000B6CFF8018583C8010E94F32086E0F60139
:1046200011928A95E9F73ECFE83CF10508F040C0C9
:10463000FE2CEE2079F225132AC0941328C0809115
:10464000590580FD1BC0982F907FC1F0F80185832C
:10465000903F31F0982F907F905F8F70892B8583EA
:10466000C8010E94F32086E0F801A4E5B5E00190BE
:104670000D928A95E1F70E94922114CF86E0F8010D
:10468000A4E5B5E001900D928A95E1F70BCF4F8339
:1046900058878F8198850E944E2181118CCF8091FF
:1046A0005905816080935905C8010E94F320FACE14
:1046B0007A2DBB86AA866E2D8B850E94522186E0BC
:1046C000F60111928A95E9F7D6CFEE2009F482CF50
:1046D0004F8358878F8198850E944E21F82E88231A
:1046E00009F478CF86E0F801A4E5B5E001900D92D9
:1046F0008A95E1F784E595E00E94401E0E94A02182
:10470000BACF81E08E25E8CE1F93CF93DF93CDB74C
:10471000DEB72C970FB6F894DEBF0FBECDBF4F8328
:10472000588769877A878B879C87CE0107960E9476
:10473000F621882369F08A859B85892B39F04F8182
:104740005885842F85238F3F09F077C016E065C018
:1047500086E0FE013796DE01119601900D928A9552
:10476000E1F76A857B856115710581F35F81488575
:10477000842F85238F3F51F32091230530E0C90119
:10478000019687709927E0912205E817190671F4C0
:104790000E942121109223051092220586E0E4E573
:1047A000F5E0DF011D928A95E9F7D0CF59834A835E
:1047B0007D836C8396E0929FD001939FB00D11246E
:1047C000AC5DBA4FFE01319601900D929A95E1F7DA
:1047D000809323050E947121B9CF819FC0011124CC
:1047E0008C5D9A4F0E94F6218823E9F0E091220522
:1047F0001E9FF0011124EC5DFA4F408151816281CE
:104800007381848195810E9461218091220590E0CD
:1048100001968770992780932205809122059091B7
:1048200023058913DACF2C960FB6F894DEBF0FBE9E
:10483000CDBFDF91CF911F91089569857A858B85D2
:104840009C850E94612182CF08950C9424240E94AB
:1048500025246093A9057093AA058093AB059093D6
:10486000AC050C940F2108950C942724CF93DF936B
:1048700000D000D0CDB7DEB769837A838B839C8369
:104880008091A9059091AA05A091AB05B091AC05C6
:1048900029813A814B815C81282B392B4A2B5B2B58
:1048A00029833A834B835C83CA01B9010F900F902F
:1048B0000F900F90DF91CF910C942724CF93DF932B
:1048C00000D000D0CDB7DEB769837A838B839C8319
:1048D0008091A9059091AA05A091AB05B091AC0576
:1048E00029813A814B815C81282339234A235B2328
:1048F00029833A834B835C83CA01B9010F900F90DF
:104900000F900F90DF91CF910C942724CF93DF93DA
:1049100000D000D0CDB7DEB769837A838B839C83C8
:104920008091A9059091AA05A091AB05B091AC0525
:1049300029813A814B815C81282739274A275B27C7
:1049400029833A834B835C83CA01B9010F900F908E
:104950000F900F90DF91CF910C9427240C94242476
:104960000C94AE240E94B0246093A5057093A60514
:104970008093A7059093A8050C940F2160E070E048
:10498000CB010C94B2240F931F93CF93DF9300D0ED
:1049900000D0CDB7DEB741E050E060E070E08A01C2
:1049A0009B0104C0000F111F221F331F8A95D2F7ED
:1049B00009831A832B833C83C901B8010F900F90A0
:1049C0000F900F90DF91CF911F910F910C94B22413
:1049D0000F931F93CF93DF9300D000D0CDB7DEB7F6
:1049E00041E050E060E070E004C0440F551F661FD6
:1049F000771F8A95D2F78091A5059091A605A09181
:104A0000A705B091A8058A019B01082B192B2A2B19
:104A10003B2B09831A832B833C83C901B8010F9078
:104A20000F900F900F90DF91CF911F910F910C94E9
:104A3000B2240F931F93CF93DF9300D000D0CDB754
:104A4000DEB741E050E060E070E004C0440F551F65
:104A5000661F771F8A95D2F740955095609570959F
:104A60008091A5059091A605A091A705B091A805F4
:104A70008A019B01082319232A233B2309831A83D4
:104A80002B833C83C901B8010F900F900F900F90BA
:104A9000DF91CF911F910F910C94B2240F931F932C
:104AA000CF93DF9300D000D0CDB7DEB741E050E028
:104AB00060E070E004C0440F551F661F771F8A95A1
:104AC000D2F78091A5059091A605A091A705B09178
:104AD000A8058A019B01082719272A273B27098354
:104AE0001A832B833C83C901B8010F900F900F905C
:104AF0000F90DF91CF911F910F910C94B224CF931F
:104B0000DF9300D000D0CDB7DEB769837A838B8383
:104B10009C838091A5059091A605A091A705B091D1
:104B2000A80529813A814B815C81282B392B4A2B9E
:104B30005B2B29833A834B835C83CA01B9010F90B5
:104B40000F900F900F90DF91CF910C94B224CF93E0
:104B5000DF9300D000D0CDB7DEB769837A838B8333
:104B60009C838091A5059091A605A091A705B09181
:104B7000A80529813A814B815C81282339234A2366
:104B80005B2329833A834B835C83CA01B9010F906D
:104B90000F900F900F90DF91CF910C94B224CF9390
:104BA000DF9300D000D0CDB7DEB769837A838B83E3
:104BB0009C838091A5059091A605A091A705B09131
:104BC000A80529813A814B815C81282739274A270A
:104BD0005B2729833A834B835C83CA01B9010F9019
:104BE0000F900F900F90DF91CF910C94B224089505
:104BF000E82F2AE0929FE00D11248E2F877041E06C
:104C000001C0440F8A95EAF7E695E695E69585E0BA
:104C1000E89FF0011124E65AFA4F30E020E070E0FE
:104C20005191DF011197CB01022E02C09695879515
:104C30000A94E2F7817081958527842385278C93D8
:104C40002F5F3F4F2530310559F70895E82F2AE0AF
:104C5000929FE00D11249E2F9770E695E695E695BC
:104C600085E0E89FF0011124E65AFA4F50E040E059
:104C700080E0219130E0092E02C0369527950A94F4
:104C8000E2F721703327042E01C0220F0A94EAF7BD
:104C9000822B4F5F5F4F4530510559F70895BF9202
:104CA000CF92DF92EF92FF920F931F93CF93DF93F8
:104CB0008C01C090A505D090A605E090A705F090C6
:104CC000A8058091A9059091AA05A091AB05B09186
:104CD000AC05C82AD92AEA2AFB2ACFE1D0E0BC2EAB
:104CE000D701C6010C2E04C0B695A7959795879558
:104CF0000A94D2F780FD0EC0219788F7B12C8B2D36
:104D0000DF91CF911F910F91FF90EF90DF90CF90A7
:104D1000BF900895B8018C2F0E94FC0A019761F39F
:104D2000EECFCF93DF93D82FC92F0E944F266D2F40
:104D30007C2FDF91CF910C94FC0A1F93CF93DF93CC
:104D4000162FD72F90912105992339F0862F972F71
:104D5000DF91CF911F910C949126882391F0862F9B
:104D6000972F0E944F26C82F682F812F9D2F0E94BA
:104D7000F825612F7D2F8C2FDF91CF911F910C94FF
:104D8000FC0A862F972F0E942626C82FF2CF682F65
:104D900080911103909112030C940D28682F80913B
:104DA0001103909112030C940F288091110390919C
:104DB00012030C941128E0911103F09112038091D9
:104DC000B7058083E0911103F091120380819091E7
:104DD000B605892B8083E0911103F0911203808145
:104DE0009091B505892B80838091110390911203D6
:104DF0000C94CE1C8091B70508959091B705982B1F
:104E00009093B7050895982F90958091B7058923C1
:104E10008093B70508951092B70508959091B6054F
:104E2000982B9093B6050895982F90958091B6058C
:104E300089238093B60508951092B60508951092BF
:104E4000B505089580E0089590E080E00E94A335C4
:104E50009C0181E02B3E3E4F09F080E0089582E006
:104E600090E00C94953583E090E00C949535682F94
:104E700083E090E00C94B935CF9384E090E00E94F9
:104E80009535C82F81E290E00E949535982F8C2FA0
:104E9000CF910895CF93682FC92F84E090E00E94AE
:104EA000B9356C2F81E290E0CF910C94B935AB010C
:104EB000BC018FE090E00C94CB3583E190E00C9442
:104EC0009D35AB01BC0183E190E00C94CB3560E0F3
:104ED00070E0CB010E9457270C94C9086BEE7EEF5F
:104EE00090E080E00E94D73560E082E090E00E9490
:104EF000B93560E083E090E00E94B9351092A905D1
:104F00001092AA051092AB051092AC0560E084E007
:104F100090E00E94B93560E081E290E00E94B935EE
:104F200060E085E090E00E94B93560E086E090E0C6
:104F30000E94B9356FEF87E090E00E94B93540E0FC
:104F400050E0BA0188E090E00E94CB3560E08DE04F
:104F500090E00E94B93540E050E0BA0188E190E06D
:104F60000E94CB3560E087E190E00E94B93540E0D7
:104F700050E0BA018CE190E00E94CB3560E080E225
:104F800090E00E94B93540E050E0BA0188E190E03D
:104F90000E94CB350C9467270C946E27682F8EE007
:104FA00090E00C94B9359C01662351F0FC013296D7
:104FB000285F3F4F8191861729F0E217F307D1F759
:104FC00080E0089581E008959C01FC0132968FEF06
:104FD00090E04191461751F08F3F19F4411101C003
:104FE000892F9F5F9630A9F78F3F09F40895280F06
:104FF000311D87FD3A95F901628308959C01FC01FA
:105000003296285F3F4F8191861303C0DF011197CD
:105010001C92E217F307B9F708950C94E4270C9457
:10502000FE27FC01329686E0DF011D928A95E9F7A2
:105030000895089508950C941A2880919C0884304E
:1050400049F10E941B2880E00E94E00A1092B905F5
:1050500088E190E020E40FB6F894A8958093600072
:105060000FBE2093600083B7817F846083BF83B7C6
:10507000816083BF7894889583B78E7F83BF0FB696
:10508000F894A895809160008861809360001092E8
:1050900060000FBE08950895CF930E9419280E94C2
:1050A000E80D0E944B28C0E08C2F0E94B00C892B89
:1050B00031F4CF5FCC30C1F780E0CF91089581E02B
:1050C000FCCF08950C9461280E9421210E94C21CEB
:1050D0000E94E00A0C9462281F921FB61F921124AE
:1050E0008F939F93AF93BF938091B905811113C0A4
:1050F0008091A1079091A207A091A307B091A40766
:105100004196A11DB11D8093A1079093A207A09382
:10511000A307B093A407BF91AF919F918F911F9068
:105120001FBE1F90189582E084BD93E095BD9AEF55
:1051300097BD80936E0008952FB7F8948091A107D2
:105140009091A207A091A307B091A4072FBF089543
:10515000CF93DF9300D000D0CDB7DEB78FB7F894F0
:105160002091A1073091A2074091A3075091A40775
:1051700029833A834B835C838FBF69817A818B81DA
:105180009C810F900F900F900F90DF91CF91089519
:105190009C014FB7F8948091A1079091A207A0912C
:1051A000A307B091A4074FBF821B930B08950F93E1
:1051B0001F93CF93DF9300D000D0CDB7DEB7462F3B
:1051C000572FBC012FB7F8948091A1079091A207A7
:1051D000A091A307B091A4072FBF8C019D01041BD0
:1051E000150B260B370BC901B8010F900F900F90CC
:1051F0000F90DF91CF911F910F91089578941F9296
:105200001FB61F9211248F939F93AF93BF938091EA
:10521000A1079091A207A091A307B091A4070196BE
:10522000A11DB11D8093A1079093A207A093A3078E
:10523000B093A407BF91AF919F918F911F901FBE14
:105240001F9018951092A5071092A6071092A70715
:105250001092A8070895CF92DF92EF92FF92CF931A
:10526000DF9300D000D0CDB7DEB76B017C010E9488
:10527000B60E81110EC00E94A828C61AD70AE80AE5
:10528000F90AC092A507D092A607E092A707F0926C
:10529000A8070F900F900F900F90DF91CF91FF9084
:1052A000EF90DF90CF900895CF93DF9300D000D0A0
:1052B000CDB7DEB70E94B60E882341F00F900F9055
:1052C0000F900F90DF91CF910C94A8280E94A828EE
:1052D00069837A838B839C838091A5079091A6072D
:1052E000A091A707B091A80729813A814B815C81E1
:1052F000280F391F4A1F5B1FCA01B9010F900F9079
:105300000F900F90DF91CF910895CF93DF93CDB79A
:10531000DEB728970FB6F894DEBF0FBECDBF698306
:105320007A838B839C830E94B60E882371F06981F7
:105330007A818B819C8128960FB6F894DEBF0FBED0
:10534000CDBFDF91CF910C94D7280E9454299B01A7
:10535000AC0189819A81AB81BC81281B390B4A0B36
:105360005B0BCA01B90128960FB6F894DEBF0FBED9
:10537000CDBFDF91CF91089587E797E7909301081C
:105380008093000888E19AE00FB6F894A89580937E
:1053900060000FBE90936000FFCF9093D103809385
:1053A000D0030895CF93DF9300D000D0CDB7DEB700
:1053B0000E942427811102C00E94CC270E942F271F
:1053C0008093B8050E943C279093AA078093A90771
:1053D0000E943327282F30E050E040E0CA01B90195
:1053E0000E9434248091A5059091A605A091A7055F
:1053F000B091A80589839A83AB83BC83BC01CD019E
:105400000F900F900F900F90DF91CF910C94B024DC
:10541000881F8827881F0895982F81E0983F08F4F7
:1054200080E00895982F907F903D69F070F4903B54
:1054300031F038F4903A19F0807E803899F483E0A6
:105440000895903C79F482E00895903EC1F3903F36
:1054500049F4EFE0E80F813F28F0F0E0E054FC4F22
:105460008081089580E008950F93DC01022F0F776B
:10547000242F2F776F70462F406BED91FC9163E0E6
:1054800070E009950F9108950F93DC01022F0F77BB
:10549000242F2F776F70462F4069ED91FC9163E0C8
:1054A00070E009950F9108950F93DC01022F0F779B
:1054B000242F2F776F70462F4068ED91FC9163E0A9
:1054C00070E009950F9108950F931F93DC019A01E5
:1054D000411580E25807C4F44115504EC4F0305EC7
:1054E0008901000F012F001F110B11952F776F708D
:1054F000462F406EED91FC91119763E070E0CD0175
:1055000009951F910F9108952FEF3FE3E9CF30E008
:1055100020E0E6CFFC01738362830895FC01758F60
:10552000648F0895CF93DF93EC011DA21FA21EA2EA
:10553000BC01685D7F4F40EC88519F4F0E94972CC3
:105540001B821A821D821C821F821E821986188667
:105550001B861A861D861C861F861E86198A188A37
:105560001B8A1A8A1D8A1C8A1F8A1E8A198E188E07
:105570001B8E1A8E1D8E1C8E1F8E1E8E19A218A2B7
:10558000DF91CF910895EF92FF920F931F93CF93E6
:10559000DF93EA018A01060F111D7C0128EEE20E5D
:1055A000F11CC017D10739F4DF91CF911F910F91F2
:1055B000FF90EF9008956991C7010E949E2CF1CF52
:1055C000FC01718360830895FC0171A360A30895B9
:1055D000AF92BF92CF92DF92EF92FF920F931F9301
:1055E000CF93DF9300D00F92CDB7DEB77C016B0174
:1055F000142FB22EA02EDC0195968C9195978430B5
:10560000A9F55A96ED91FC913097E9F1CB010197FC
:1056100063E070E00E940D35CB01880F991F860F63
:10562000971F4983BA820B834C2D481B9E012F5F25
:105630003F4FBC01C7010995D7015E96ED91FC91E2
:10564000309731F00A2D2B2D412FB601C701099556
:105650000F900F900F90DF91CF911F910F91FF90BE
:10566000EF90DF90CF90BF90AF90089562307105BA
:1056700009F452C06330710599F06130710509F485
:105680007AC0D12CC12CD7015C96ED91FC9130975A
:1056900099F20A2D2B2D412FB601C7010995CCCFC8
:1056A000842F807F803BF1F058F4803931F1803ACB
:1056B00049F1803841F7D7011696ED91FC9116C05B
:1056C000803E29F1803FF9F6423FE9F6D7011C966A
:1056D000ED91FC91202F4B2D62EF3097A1F2C70185
:1056E0000995AACFD7011296ED91FC91309759F206
:1056F0002A2D4B2D612F6F70F2CFD7011496ED91AB
:10570000FC91F4CFD7011896ED91FC91EFCFD70122
:105710001A96ED91FC91EACF842F807F803D81F035
:10572000803F99F0803C09F0AECFD7011E96ED91F5
:10573000FC91309709F4A7CF4B2D612F6F7010C0EB
:10574000D7015096ED91FC91F4CF433F61F4D7011E
:105750005296ED91FC914B2D612F309709F493CF28
:10576000C701099569CF413F09F08DCFD701549604
:10577000ED91FC91F0CF842F0E940C2A882359F0E0
:10578000D7015696ED91FC91309709F47CCF612FAB
:10579000C701099551CF163F09F075CFD70158962B
:1057A000ED91FC91F1CFFF920F931F93CF93DF9375
:1057B000EC01162F862F0E940C2A882391F0FDA061
:1057C00081E08DA300E020E0412F61E070E0CE0198
:1057D0000E94E82AFDA2DF91CF911F910F91FF90C7
:1057E0000895812F0E94082A4DA1882309F443C0FF
:1057F000443029F01AA381E090E09FA38EA3812F6B
:105800000E94122A823069F1D0F481111EC0103F2B
:1058100051F1173FB1F42EA13FA1C90163E070E03F
:105820000E940D35FE01E80FF91F12A3B9016F5F49
:105830007F4F7FA36EA30CA12BA14AA10DC0833083
:1058400081F01DA21FA21EA2C6CF81E08DA300E0A1
:1058500020E0412F61E070E0CE010E94E82A1DA205
:10586000BACF8DA3B8CF84E08DA31AA381E090E0D6
:105870009FA38EA3B0CF442309F4ADCF2EA13FA1A7
:10588000C90163E070E00E940D35FE01E80FF91FC9
:1058900012A3B9016F5F7F4F7FA36EA38130910583
:1058A00069F0029709F097CF0CA12BA14AA1CE0174
:1058B0000E94E82A8DA18430C9F68DCF00E04230E5
:1058C00009F089CFF2CFCF92DF92EF92FF920F9340
:1058D0001F93CF93DF93EC01E8A1F9A1309709F072
:1058E00009956E0188EEC80ED11CC6010E94CC2C11
:1058F00010E000E0E82EF12C0E151F0548F0DF91B6
:10590000CF911F910F91FF90EF90DF90CF9008956E
:1059100060E0C6010E94E02C682FCE010E94D32BCC
:1059200061E0C6010E94F02C0F5F1F4FE5CFFC0124
:105930004283748363831182108208951F93CF93EF
:10594000DF93EC01162F0E94072D282FE981F0E04C
:10595000CF0101966A8170E00E94213538813817A5
:10596000190641F4822F0E940A2D80E0DF91CF9129
:105970001F9108958B819C81E80FF91F1083898105
:1059800090E001966A8170E00E9421358983822F20
:105990000E940A2D81E0EACFCF93DF93EC010E94B1
:1059A000072D99812881921740F0C92FC21B0E94B0
:1059B0000A2D8C2FDF91CF910895CA819C0FF5CFCE
:1059C000FC018081860F9927991F628170E00E94F7
:1059D000213523813481280F391FF90180810895F1
:1059E0001F93CF93DF93EC01162F0E94072D282FD2
:1059F0008881810F9927991F6A8170E00E94213563
:105A00008883822FDF91CF911F910C940A2D8FB73D
:105A1000F89408958FBF0895089508950F931F93E4
:105A2000CF93DF9300D000D000D00F92CDB7DEB778
:105A3000182F092FCE0101960E946E2F81110BC0E5
:105A400027960FB6F894DEBF0FBECDBFDF91CF9182
:105A50001F910F9108958A810E94122A682F8A81CE
:105A60008D838B818E838C818F8361110AC0298104
:105A7000243079F0273069F0263069F061E0253074
:105A8000C9F6AE014B5F5F4F812F902F0E94C32A52
:105A9000D1CF63E0F6CF62E0F4CFDF92EF92FF92D6
:105AA0000F931F93CF93DF9300D000D0CDB7DEB715
:105AB0007B01142FD22E4A832B830C83842F0E94C8
:105AC000122A811129C082E0E816F10401F183E075
:105AD000E816F10439F0EA94EF2869F485E0173FFD
