:100000000C94C4070C94E1070C94E1070C94462F60
:100010000C94E1070C94E1070C94E1070C94E107C0
:100020000C94E1070C94E1070C9464280C942028AC
:100030000C9461290C94E1070C94E1070C94E107FE
:100040000C94E1070C94E1070C94E1070C94E10790
:100050000C94E1070C943D290C94E1070C94E10702
:100060000C94E1070C94E1070C94E1070C94E10770
:100070000C94E1070C94E1070C94E1070C94E10760
:100080000C94E1070C94E1070C94E1070C94E10750
:100090000C94E1070C94E1070C94E1070C94E10740
:1000A0000C94E1070C94E1070C94E107010A15FF99
:1000B000FF150215FFFF190315FFFF1E0515FFFFB2
:1000C000250215FFFF2D0215FFFF390215FFFFFF67
:1000D00000000000000615FFFF0B0100FFFF0C01F0
:1000E0000000FF0D010BB0FF18010000FF2301808D
:1000F000FF803C0615FFFF4A010BB0FF5501AAFF28
:10010000FF560180FFFF57016AFFFF580155FFFFAF
:10011000590140FFFF6001EA80FF620615FFFF6B97
:10012000012BFFFF6C0155FFFF6E0100FFFF700107
:100130000BB0FF77010BB0FF780180FFFF7901243E
:10014000FFFF7A016AFFFFFF0000000000000000CF
:10015000000000000000000000000000000000009F
:10016000000000000000000000000000000000008F
:100170007E0F00D4FFFFFFC70000007800000000E2
:10018000000000002A2B28000000000000000000F2
:100190000000000000000029000000002C1E342098
:1001A000212224342627252E362D3738271E1F20BE
:1001B0002122232425263333362E37381F04050603
:1001C0000708090A0B0C0D0E0F1011121314151647
:1001D0001718191A1B1C1D2F3130232D3504050645
:1001E0000708090A0B0C0D0E0F1011121314151627
:1001F0001718191A1B1C1D2F3130354C67696162A5
:10020000616C616E61693A326669726D77617265BF
:10021000204020302E32302E382D352D67343439A1
:100220003234302D6469727479207C20323032335C
:100230002D30352D32362D31373A34313A353100C3
:10024000FFFFFFFFFFFFFFFFFFFFFFFFFFFFFFFFBE
:10025000FFFFFFFFFFFFFFFFFFFFFFFFFFFFFFFFAE
:10026000FFFFFFFFFFFFFFFFFFFFFFFFFFFFFFFF9E
:10027000FFFFFFFFFFFFFFFFFFFFFFFFFFFFFFFF8E
:10028000FFFFFFFFFFFF3C3D3E3F404142FFFFFFBE
:1002900048494A4B4C4D4EFFFFFFFFFFFFFFFFFF5A
:1002A000FFFFFFFFFFFF4746454443FFFFFFFF54AB
:1002B000535251504FFFFFFF000C1824300B1723EF
:1002C0002F3B010D1925310A16222E3A020E1A264D
:1002D000320915212D39030F1B27330814202C3820
:1002E00004101C283407131F2B3705111D29350650
:1002F000121E2A3655565758595A5BFFFFFF626344
:100300006465666768FFFFFFFF6F7071727374FF4B
:10031000FFFFFF61605F5E5D5CFFFFFFFF6E6D6C66
:100320006B6A69FFFFFFFF7A7978777675FFFFFFC9
:10033000417E4D7E597E657E717E467E527E5E7E1A
:100340006A7E767E487E547E607E6C7E787E4B7EB2
:10035000577E637E6F7E7B7E437E4F7E5B7E677EB5
:10036000737E447E507E5C7E687E747E4A7E567EBE
:10037000627E6E7E7A7E497E557E617E6D7E797E5E
:10038000457E517E5D7E697E757E427E4E7E5A7EC2
:10039000667E727E407E4C7E587E647E707E477E96
:1003A000537E5F7E6B7E777E2371267129712C715F
:1003B0002F7132713571000000000000227125712B
:1003C00028712B712E713171347100000000000012
:1003D0002171247127712A712D71307133710000E0
:1003E000000000000000A849447141713E713B715A
:1003F0003871000000000000000046714371407138
:100400003D713A7137710000000000000000457135
:1004100042713F713C71397136710000000000007B
:1004200001000100010001000100010001000100C4
:1004300001000100010001000100010001000100B4
:1004400001000100010001000100010001000100A4
:100450000100010001000100010001000100010094
:100460000100010001000100010001000100010084
:100470000100010001000100010001000100010074
:100480000100010001000100010001000100010064
:100490000100010001000100247127712A712D71F2
:1004A0003071337136710000000000002271257137
:1004B00028712B712E713171347100000000000021
:1004C00023712371267129712C712F7132710000F3
:1004D0000000000000000100457142713F713C7155
:1004E0003971000000000000000046714371407146
:1004F0003D713A7137710000000000000000447146
:1005000041713E713B71387135710000000000008F
:10051000457E417E4D7E597E657E4A7E467E527E78
:100520005E7E6A7E407E487E547E607E6C7E437E28
:100530004B7E577E637E6F7E477E437E4F7E5B7E23
:10054000677E487E447E507E5C7E687E427E4A7E28
:10055000567E627E6E7E417E497E557E617E6D7ED8
:10056000497E457E517E5D7E697E467E427E4E7E20
:100570005A7E667E447E407E4C7E587E647E4B7EF4
:10058000477E537E5F7E6B7E2371267129712C71AD
:100590002F71327135710000000000002271257149
:1005A00028712B712E713171347100000000000030
:1005B0002171247127712A712D71307133710000FE
:1005C0000000000000000100447141713E713B7168
:1005D0003871000000000000000046714371407156
:1005E0003D713A7137710000000000000000457154
:1005F00042713F713C71397136710000000000009A
:100600008F718E710000000003711C711E712071CA
:10061000227124710000000000000471067119713C
:100620001B711D711F71217100000371057107712C
:100630000971167118711A711C711E71047106719D
:1006400008710A710C7113711571177119711B7191
:10065000077109710B710D710F71107112711471A5
:10066000167118710A710C710E71107112710D7181
:100670000F711171137115712371267129712C710C
:100680002F71327135710000000000002271257158
:1006900028712B712E71317134710000000000003F
:1006A0002171247127712A712D713071337100000D
:1006B000000000000000A849447141713E713B7187
:1006C0003871000000000000000046714371407165
:1006D0003D713A7137710000000000000000457163
:1006E00042713F713C7139713671000000000000A9
:1006F000047105710671077108711A711B711C7103
:100700001D711E7106710771087109710A711871E6
:1007100019711A711B711C71087109710A710B71C1
:100720000C7116711771187119711A710A710B71A8
:100730000C710D710E71147115711671177118719C
:100740000C710D710E710F711071127113711471A2
:10075000157116710E710F71107111711271107186
:1007600011711271137114711C711E71207122713B
:100770002471267128710000000000001B711D719A
:100780001F71217123712571277100000000000085
:100790001B711C711E712071227124712671000061
:1007A000000000000000A849327130712E712C71D8
:1007B0002A710000000000000000337131712F71B8
:1007C0002D712B71297100000000000000003271B2
:1007D00030712E712C712A71287100000000000008
:1007E000457E417E4D7E597E657E4A7E467E527EA6
:1007F0005E7E6A7E407E487E547E607E6C7E437E56
:100800004B7E577E637E6F7E477E437E4F7E5B7E50
:10081000677E487E447E507E5C7E687E427E4A7E55
:10082000567E627E6E7E417E497E557E617E6D7E05
:10083000497E457E517E5D7E697E467E427E4E7E4D
:100840005A7E667E447E407E4C7E587E647E4B7E21
:10085000477E537E5F7E6B7E447141713E713B717A
:10086000387135713271000000000000457142712D
:100870003F713C7139713671337100000000000026
:100880004671437140713D713A71377134710000A6
:10089000000000000000A8492371267129712C7105
:1008A0002F710000000000000000217124712771E9
:1008B0002A712D71307100000000000000002271CB
:1008C000257128712B712E7131710000000000001C
:1008D000167C2B003900E100E0002A004C002800C3
:1008E000E5004F001E00140004001D00E300270077
:1008F00013003300380051001F001A0016001B00BF
:10090000E200260012000F0037005000200008000F
:1009100007000600914825000C000E003600285202
:1009200021001500090019002C00240018000D00FA
:1009300010006500220017000A0005002C002300AB
:100940001C000B00110090000100010001000100DB
:100950000100010001000000000000000100010092
:100960000100010001000100010000000000000082
:100970000100010001000100010001000100000070
:100980000000000000000100010001000100010062
:100990000100000000000000000001000100010053
:1009A0000100010001000000000000000000010043
:1009B0000100010001000100010000000000000032
:1009C000167C2B00E000E10039002A004C002800D2
:1009D00052324F001E00140004001D00E3002700E7
:1009E00033001200380051001F001A0015001B00D0
:1009F000E20026001C000C00370050002000090017
:100A000016000600914825001800080036002852FC
:100A100021001300170019002C0024000F00110002
:100A20001000650022000A00070005002C002300CA
:100A30000D000B000E0090000100010001000100FC
:100A400001000100010000000000000001000100A1
:100A50000100010001000100010000000000000091
:100A6000010001000100010001000100010000007F
:100A70000000000000000100010001000100010071
:100A80000100000000000000000001000100010062
:100A90000100010001000000000000000000010052
:100AA0000100010001000100010000000000000041
:100AB000010001000100010001000100010001002E
:100AC000010001003A000000AA00BE00010043003E
:100AD0002E003500300031003B000000A900BD00B1
:100AE000010042002D004F002F0034003C000000A8
:100AF000A8000000010041000000520000000100B9
:100B00003D00000000000000010040000000510016
:100B1000000001003E0000000000000001003F0056
:100B20000000500000000100010001000100010070
:100B300001000100010000000000000001000100B0
:100B400001000100010001000100000000000000A0
:100B5000010001000100010001000100010000008E
:100B60000000000000000100010001000100010080
:100B70000100000000000000000001000100010071
:100B80000100010001000000000000000000010061
:100B90000100010001000100010000000000000050
:100BA0007D7E465247520000000020780000847E7F
:100BB000000000007E7E837E000000000000000038
:100BC00000000000000000007F7E00000000000028
:100BD000000000000000000000000000807E000017
:100BE0000000000000000000000000000000000005
:100BF000817E0000000000000000000000000000F6
:100C000000000000827E00000000000000000000E4
:100C100000000000000000004B714C714D714E71DE
:100C20004F71000000000000000000007D7E7E7E0D
:100C30007F7E807E817E827E0000000000000000BA
:100C400000000000837E00000000000000000000A3
:100C50000000000000000100037C7C7E0000567153
:100C60005571000000000000000020780000727143
:100C70007171000000000000000000000000877E8D
:100C8000867E857E887E65716471000000000000AC
:100C9000A900AA00010001000100010001000100FB
:100CA000010001000100010001000100010001003C
:100CB0000100010001000100D400AC0000000001AF
:100CC000010101010101010102020202020202020C
:100CD00002030303030303030304040404040404DE
:100CE00005050505050606060606070707070708A2
:100CF000080808090909090A0A0A0B0B0B0C0C0C55
:100D00000D0D0D0E0E0E0F0F0F10101111111212EE
:100D100013131414151516161717181819191A1A6B
:100D20001B1B1C1D1D1E1E1F2020212222232424CC
:100D3000252626272829292A2B2C2D2D2E2F303108
:100D40003232333435363738393A3B3C3D3E3F401A
:100D50004142434445464748494A4C4D4E4F505105
:100D60005354555658595A5B5D5E5F6162646566BF
:100D700068696B6C6D6F7072737577787A7B7D7E46
:100D80008082838587888A8C8E8F91939596989A96
:100D90009C9EA0A2A3A5A7A9ABADAFB1B3B5B7BAAE
:100DA000BCBEC0C2C4C6C9CBCDCFD1D4D6D8DBDD82
:100DB000DFE2E4E7E9EBEEF0F3F5F8FAFDFF3C3DA6
:100DC0003E3F40414243444546476154535251508F
:100DD0004F4E4D4C4B4A494855565758595A5B5CF3
:100DE0005D5E5F606E6D6C6B6A69686766656463A3
:100DF000626F707172737475767778797A0B0A09FD
:100E00000807060504030201000C0D0E0F10111255
:100E10001314151617232221201F1E1D1C1B1A191F
:100E2000182425262728292A2B2C2D2E2F3B3A390A
:100E300038373635343332313005010980A1018528
:100E40000319012AB700150126B700950175108115
:100E500000C0050C0901A101850419012AA0021591
:100E60000126A002950175108100C005010906A1A7
:100E700001050719E029E71500250195087501818D
:100E8000029501750881010507190029FF15002643
:100E9000FF009506750881000508190129059505CB
:100EA00075019102950175039101C009029F00042B
:100EB0000100A0FA09040000010301010009211149
:100EC0000100012240000705810308000109040117
:100ED0000001030000000921110100012232000776
:100EE000058203200001080B020201010000090431
:100EF00002000001010000092401000109000103B2
:100F0000090403000201030000072401000141005D
:100F10000624020101000624020202000924030142
:100F20000301020100092403020401010100090573
:100F300004024000050000052501010109058302A6
:100F40004000050000052501010312010002000018
:100F50000008EDFEB0F40100010200011603670075
:100F600069006100620061006C0061006E00610058
:100F7000690000000E033300610072006100680028
:100F8000740000000403090411241FBECFEFDAE04F
:100F9000DEBFCDBF11E0A0E0B1E0E8E0F3E602C0C3
:100FA00005900D92AC3BB107D9F726E0ACEBB1E070
:100FB00001C01D92AB34B207E1F70E9488290C945E
:100FC0002E310C9400000F93262F2F778F7080689E
:100FD000E0915E05F0915F05042F482F63E070E01B
:100FE0008EE595E009950F9108950F93262F2F77A1
:100FF0008F708069E0915E05F0915F05042F482FA6
:1010000063E070E08EE595E009950F9108950F93E8
:101010001F939B01305E8901000F012F001F110BF0
:1010200011952F77482F406EE0915E05F0915F0596
:1010300063E070E08EE595E009951F910F910895AA
:101040000F93262F042F0F77482F406BE0915E05FA
:10105000F0915F0563E070E08EE595E009950F91F2
:101060000895A3E0B0E0E7E3F8E00C946C307C0175
:10107000162FD42EC22E80918305843071F5E09115
:101080007805F09179053097C1F1C701019763E0C8
:1010900070E00E949930CB01880F991F860F971F2F
:1010A00019834A83CB824E2D481B9E012F5F3F4FF1
:1010B000BC018EE595E00995E0917C05F0917D05F8
:1010C000309739F00C2D2D2D412FB7018EE595E08D
:1010D00009952396E8E00C94883082E0E816F10444
:1010E00009F45AC083E0E816F104A9F081E0E8169B
:1010F000F10409F484C0F12CE12CE0917A05F0911F
:101100007B053097C9F20C2D2D2D412FB7018EE5AF
:1011100095E00995D1CF862F807F803A11F188F430
:101120008038D1F0E0916205F0916305803929F7AC
:10113000309719F3123F49F12C2D4D2D612F6F700F
:1011400027C0803E99F0803FB1F0E0916005F091BA
:101150006105803B91F6ECCFE0916405F091650567
:10116000E7CFE0916605F0916705E2CFE091680571
:10117000F0916905DDCF623F09F0BFCFE0916A05CC
:10118000F0916B05309709F4B8CF2C2D4D2D62EFFF
:101190008EE595E0099590CF862F807F803DB9F050
:1011A000803FD1F0E0916C05F0916D05803C09F035
:1011B000A4CF309709F4A1CF812F8D7F4D2D612FC2
:1011C0006F70813FC9F08EE595E0099575CFE0918C
:1011D0006E05F0916F05EDCFE0917005F09171050E
:1011E000633F39F0613F09F088CFE0917205F091DB
:1011F0007305309709F481CF4D2D612FE4CFE09135
:101200007405F0917505683F38F4663F09F075CFB5
:10121000E0917605F0917705309709F46ECF612F54
:101220008EE595E0099548CFE8EDF0E080818E7F6E
:1012300080831092E2001092DA001092E100A0EE9A
:10124000B0E08C9181608C9380818F77808319BC12
:10125000A7EDB0E08C918E7F8C9380818F7E808310
:101260001092BC0408952091E4003091E50095E6C9
:10127000A9012091EC00822F817020FF06C080918F
:10128000E80080FF06C080E008952091E80022FD7C
:101290001AC08091C904882389F0853089F0809133
:1012A000EB0085FD0FC02091E4003091E50042176E
:1012B0005307F9F29150E1F684E0089582E0089531
:1012C00083E0089581E00895EF92FF920F931F93BA
:1012D000CF937C018B010E943309C82F811117C065
:1012E0008091E80085FD0BC08091E8008E778093A7
:1012F000E8000E943309882399F3C82F08C0F7013A
:1013000081917F018093F1000150110949F78C2FE1
:10131000CF911F910F91FF90EF9008958091CB0492
:1013200087FF13C08091E80082FF06C08091E8002B
:101330008B778093E80004C08091C9048111F2CFBB
:1013400008958091C9048823D9F38091E80080FF33
:10135000F8CF8091E8008E77ECCF982F9093E9003A
:10136000242F762F50E0891731F07091EC002091F6
:10137000ED005091F00021FD07C09F5F973071F79D
:101380008093E90081E008953091EB003E7F309337
:10139000EB003091ED003D7F3093ED003091EB009C
:1013A00031603093EB007093EC002093ED0050938C
:1013B000F0002091EE0027FDE0CF80E00895B0E03E
:1013C000A0E0E5EEF9E00C946C30C8EDD0E0888147
:1013D0008F7E8883E7EDF0E080818160808384E008
:1013E00082BF81E08093BC0488818E7F888302EE77
:1013F00010E0F80110821092DA0081EEC82ED12C94
:10140000F601108288818F7788838881806888833D
:1014100088818F7D888319BC1092C9041092CA04F8
:101420001092C8041092C70490EEE92EF12CF70137
:1014300080818B7F808388818160888342E060E047
:1014400080E00E94AD09F60180818E7F8083F801E3
:10145000808181608083808188608083F7018081C2
:101460008E7F8083888180618883CDB7DEB7E8E096
:101470000C948830FC018091D1049091D20486179D
:101480009707A0F06115710529F49091E8009E7707
:101490009093E80090E06115710551F4911108C036
:1014A0008091E80082FF34C080E00895BC01F2CF53
:1014B0008091C9048823C1F18530C1F18091E80091
:1014C00083FD30C08091E80082FDEACF8091E80082
:1014D00080FFE1CF8091F3002091F200382F611559
:1014E000710519F02830310558F091E028303105A8
:1014F00009F090E02091E8002E772093E800CBCF10
:1015000081918093F100615071092F5F3F4FE7CFC8
:101510008091C904882341F0853041F08091E80032
:1015200083FFBECF81E0089582E0089583E00895AF
:1015300008958091BE0408959C014FB7F89480915E
:10154000B8049091B904A091BA04B091BB044FBF04
:10155000821B930B08952FB7F8946091B804709193
:10156000B9048091BA049091BB042FBF08952FB79E
:10157000F8948091B8049091B904A091BA04B09104
:10158000BB042FBF08959C01FC0132969FEF80E0C1
:101590004191461751F09F3F19F4411101C0982F16
:1015A0008F5F8630A9F79F3F09F40895290F311DF9
:1015B00097FD3A95F90162830895A3E0B0E0E3EE68
:1015C000FAE00C9472302091B5043091B6042817DB
:1015D0003907A1F09093B6048093B504E091B30469
:1015E000F091B404309751F024E029839B838A83DF
:1015F0000680F781E02DCE01019609952396E2E061
:101600000C948E30A3E0B0E0E8E0FBE00C94723084
:101610002091B1043091B20428173907A1F09093BA
:10162000B2048093B104E091B304F091B404309714
:1016300051F023E029839B838A830680F781E02D84
:10164000CE01019609952396E2E00C948E30FC01C0
:10165000680F791F8FEF91E32191822728E030E016
:1016600087FF09C0880F892721503109C9F7E6177C
:10167000F70791F70895880FF7CFFA01811101C09C
:10168000FB01099508958091AC04982F9E7F71F419
:101690008091AC04817082608093AC048091AF042F
:1016A000813518F080E58093AF040895843080F789
:1016B000F5CFAF92BF92DF92EF92FF920F931F93FD
:1016C000CF93DF93082F162FE901E42FF0E0E254C7
:1016D000F34F611110C0E4915E2F4E2F4983E883D0
:1016E0005A83DF91CF911F910F91FF90EF90DF9080
:1016F000BF90AF900895E62EF12C4491D42EE42FA4
:10170000F0E026E0829FC00111242FEF30E0B90104
:101710000E949930802F90E0880F991F55E5569FC1
:10172000D001579FB00D11248A1B9B0B982F990F46
:10173000890F5901AE18BF08AE9ED001AF9EB00D03
:10174000BE9EB00D11245B2F189F80011124012F24
:1017500011275901A01AB10AAE9E8001AF9E100D4B
:10176000BE9E100D11245901A81AB108AE9CC001EB
:10177000AF9C900DBE9C900D1124892F9927281B9A
:10178000390B2E9FC0012F9F900D3E9F900D11246D
:10179000E92F62307105A1F050F46115710509F46B
:1017A0009DCF6130710581F0EB2F512F97CF6430C1
:1017B000710569F080F06630710509F48FCFF4CFC0
:1017C000E42F4B2F592F8ACFE42F412F87CFEB2FB8
:1017D000542F492F83CF4B2F5D2DE12F7FCF909139
:1017E0005A05292F2F709595959595959595935018
:1017F0003CE0239F900D1124890F0895AF92BF9272
:10180000CF92EF920F931F93CF93DF93D82FC901FD
:10181000C0915B05CF7750E09A01225E3A4F5901A3
:10182000F9011081FB012281222311F11F3FB9F43C
:101830000E94EF0B182F602F680F4C2F8D2F0E94E6
:10184000F5076E2D610F4C2F8D2F0E94F5076C2D23
:10185000610F4C2F8D2F0E94F507F5011083DF914A
:10186000CF911F910F91EF90CF90BF90AF900895BF
:101870001F3F91F0602F610F4C2F8D2F0E94E307C7
:101880006E2D610F4C2F8D2F0E94E3076C2D610F81
:101890004C2F8D2F0E94E3078FEFF5018083DFCF60
:1018A000FF920F931F93CF93DF93D42F0DEF080F69
:1018B000C0915B05CF77222319F0CF31E0F0CE51F4
:1018C00010E00A521B4FF8012081FB0132813323C3
:1018D000A1F02F3F59F40E94EF0BF82E6D2F680FE7
:1018E0004C2F80E00E94F507F801F082CDB7DEB7FB
:1018F000E5E00C948B30C0E0E3CF2F3F31F06D2F4B
:10190000620F4C2F80E00E94E3078FEFF801808385
:10191000EDCF84E080935A058FE780935B0580913B
:101920005C058078806480935C05EEEEF2E08FEFDA
:10193000819393E0E633F907D9F71092ED02109204
:10194000EC021092EB021092EA02089508950895B5
:10195000982F907F903BE9F040F49039D1F0903A85
:10196000C1F09038B1F080E00895903D19F020F476
:10197000903CC9F782E00895903E59F0903F99F766
:10198000815F8F3080F7E82FF0E0E655FE4F8081D1
:10199000089583E00895A7E0B0E0E1EDFCE00C9449
:1019A0006C308C0108511F4F8091C904843009F0BC
:1019B00087C0809148018F708093E9008091E80092
:1019C00082FF7EC08091E80085FF7AC00E943309C3
:1019D000811113C084E0E82EF12CCE0101966C0138
:1019E0008091E80085FD61C08091E8008B7780934D
:1019F000E8000E943309882399F38091E80085FD6F
:101A000005C08091E8008B778093E800FA808F2DE5
:101A10000E94A80C282FFD828B818E838C818F835E
:101A200021110BC08981843041F1873031F186303A
:101A300031F121E0853009F0B7CF30E0E5E0F0E0AA
:101A4000EC0FFD1FE30FF11DF0804FB7F894D801A4
:101A50001196EC911197F0E0CF01019612966C91DE
:101A600070E00E94AD30D8015C915817190649F416
:101A70004FBF3F5F321710F397CF23E0DECF22E056
:101A8000DCCF13968D919C911497E80FF91FF0828B
:101A900011968C91119790E0019612966C9170E0DE
:101AA0000E94AD30F8018183E3CF8091F100D6012F
:101AB0008D936D01B1E0EB1AF10809F091CF9DCF44
:101AC0002796E8E00C948830A4E0B0E0EAE6FDE078
:101AD0000C946D307B01142FD22E4A832B830C8300
:101AE000842F0E94A80C81113AC082E0E816F1040C
:101AF00089F183E0E816F10441F081E0E816F10491
:101B000029F5173F29F485E004C087E0073F09F075
:101B100084E089838091C9048430C1F480914301B9
:101B20008F708093E90050E040E064E070E0CE0107
:101B300001960E946409811109C08091E80085FD29
:101B400005C08091E8008E778093E8002496E7E056
:101B50000C94893087EFD812DBCF86E0DACF12956C
:101B60001F701983D7CF80E00895F894E82FE2958D
:101B7000EF70F0E031A1282F2F7081E090E001C0DC
:101B8000880F2A95EAF7982F9095932391A392A115
:101B9000892B82A3789408959091AA0292FF06C09F
:101BA000282F28712830F9F4877F846093FF06C0BE
:101BB000282F28712831F1F4877E84612091AB02AF
:101BC00020FF06C0382F38713830D9F4877F816004
:101BD00021FF06C0282F28712831D1F4877E81612A
:101BE00094FD877E0895282F24712430F9F68B7F89
:101BF0008860DCCF282F2471243101F78B7E886127
:101C0000DDCF382F3171313019F78E7F8860E0CF0A
:101C1000282F2171213121F78E7E8861E1CF823812
:101C20009105B9F1B0F48133910509F47DC048F410
:101C30008932910509F46DC08A32910509F47BC09F
:101C400008958533910509F45FC08933910509F141
:101C50000895833E9105D9F138F4803E910529F12C
:101C6000823E910579F10895863E9105D9F1873E2E
:101C7000910509F43EC0843E910541F52091AB02E7
:101C800021FF24C08091AA0284FD19C087EE90E054
:101C900008952091AA02237009F05AC02091AB0246
:101CA00023FF14C089E290E008952091AA0220FD4C
:101CB00038C03091AB0230FF09C024FF43C090E030
:101CC00080E008952091AA0222FDF7CF0895209187
:101CD000AA0222FD3AC03091AB0230FD39C024FF88
:101CE000F5CFEDCF2091AA0223FFF0CF24FDE7CF5F
:101CF000CDCF2091AA0223FD2EC03091AB0231FF3F
:101D0000EECF84EE90E008952091AA0225FFDECF69
:101D1000C9CF2091AA0225FD21C02091AB0223FF4B
:101D2000D5CF89E390E0D2CF2091AA0226FFCECF73
:101D30008AE290E008952091AA0226FFC7CF81E3AE
:101D400090E0089583EE90E0089582EE90E008958B
:101D500080EE90E0089586EE90E0089585E390E0AF
:101D60000895972F7C30B8F46A3078F58A3080F582
:101D700070E02AE0929F600D711D1124FB0198E72D
:101D8000899FE00DF11D1124EE0FFF1FE05DFC4F58
:101D90008591949108957D3F59F4611116C08A3060
:101DA000B8F424E0829FF0011124E057F34FF0CF04
:101DB0007C3F59F4611109C08A3050F494E0899F46
:101DC000F0011124EE56F34FE3CF80E090E0089548
:101DD00081E0FCCF1F93CF93DF930E940F0EEC01A5
:101DE000C11580E5D807F0F5C11580E4D80708F0E3
:101DF000AAC0C03ED10520F5CD3CD10508F090C069
:101E0000C83AD10578F4C53AD10508F081C0C1308F
:101E1000D10519F1209709F1C430D105F0F4D0E0D3
:101E2000C0E01BC0C33CD105D0F7C85AD0E0CC0FEE
:101E3000DD1FCE59DE4F0990D881C02DD4640DC06E
:101E4000C11580E2D80708F0C9C0C11581E0D807E4
:101E500008F068C0C83ED10510F7CE01DF91CF91E0
:101E60001F910895C03682E5D80718F5C03482E581
:101E7000D80708F079C0C03282E5D80708F06DC0F5
:101E8000C11582E5D80708F48FC02C2F269526951A
:101E900080E2289F900111248C2F8370C1E0D0E054
:101EA00002C0CC0FDD1F8A95E2F7C22BD32BDD6871
:101EB000D4CFC03C82E5D807F8F4C03A82E5D80711
:101EC00008F067C0C03882E5D80708F0A8CF2C2FEB
:101ED00026952695277080E2289F900111248C2F4B
:101EE0008370C1E0D0E002C0CC0FDD1F8A95E2F71D
:101EF000C22BD32BDA68B1CFC03E82E5D80708F0F9
:101F00008ECFDC2FCC27CC27DF71C06FD06AA5CF56
:101F1000C55AD0E0C15ADE4FC881D0E0D0649DCF11
:101F2000D0659BCF8D2F0E94CC0D182FCE01992705
:101F30000E940F0EC12FD0E0DC2FCC27CC27DF7101
:101F4000C82BD92B8ACFCE0199270E940F0ECC2700
:101F5000DF70C82BD92BD06A80CFCF71D0E0DC2FB7
:101F6000CC27C16FD06A79CF2C2F26952695277064
:101F700080E2289F900111248C2F8370C1E0D0E073
:101F800002C0CC0FDD1F8A95E2F7C22BD32BDC6891
:101F900064CF8C2F8F710E94CC0DC82FD0E0DC2F26
:101FA000CC27CC27DF7159CF8C2F8F710E94CC0D9D
:101FB00055E0D695C7955A95E1F7CF70D0E0DC2F64
:101FC000CC27282F30E084FF05C044E0220F331FC8
:101FD0004A95E1F7C22BD32BD0693FCF8D2F8F715C
:101FE0000E94CC0D182FCE0199270E940F0EC12FF1
:101FF000D0E0DC2FCC27CC27DF71C82BD92BD062C7
:102000002CCF0E94AB0A089520913E0290910D02C0
:1020100056E0291302C080E0089530E0529FF0019D
:10202000539FF00D1124E25FFD4F7181761306C0BE
:102030007081781303C07281741304C02F5F3F4F07
:102040002770E7CF81E0089580913E0290910D02C4
:10205000981301C008958F5F8770FACFB0E0A0E0B9
:10206000E4E3F0E10C946B307C010091A802109144
:10207000A90280914D0290914E02082B192BCFE0BE
:10208000D0E0CC24C394D12CBC2EC6010C2E02C0AF
:10209000880F991F0A94E2F780239123892B49F432
:1020A000219790F7B12C8B2DCDB7DEB7E9E00C94DA
:1020B0008730B7018C2F0E94B10E0E94EA0E019763
:1020C00079F3F1CFCF93DF93EC010E942E10BE0184
:1020D0000E94B10E0E94EA0EDF91CF910895A82FC1
:1020E000A77023E0969587952A95E1F7880F991FA9
:1020F000880F991FFB01E80FF91F50E040E080E0D6
:10210000219130E00A2E02C0369527950A94E2F715
:1021100021703327042E01C0220F0A94EAF7822B84
:102120004F5F5F4F4430510559F70895292F9C3078
:1021300068F48A3090F490E06BEC71E03AE0239F11
:10214000800D911D11240E946F1008952C5F223084
:1021500020F467EC71E090E0F6CF80E00895262F40
:10216000277091E001C0990F2A95EAF723E0769550
:1021700067952A95E1F7660F771F660F771FFA01BB
:10218000E60FF71F50E040E0682F70E08191DF011B
:1021900011979B01042E02C0369527950A94E2F709
:1021A000217021952827292328272C934F5F5F4FE3
:1021B0004430510559F70895282F862F9C3070F42C
:1021C0002A3058F4622F70E02AE0929F600D711D52
:1021D00011244BEC51E00E94AF1008959C5F9230A7
:1021E000E0F7622F70E047EC51E0F5CF90934E029C
:1021F00080934D020895FC0183819481892B29F0FD
:102200008081918189238F3F51F480E00895843F3C
:10221000E1F717C0883EA8F0813FB9F712C080816E
:1022200091810E94621092959F70963099F358F4B4
:10223000925F9F70923048F7803F19F040F7883ED8
:1022400020F781E008959A5FF4CFCF92DF92EF926A
:10225000FF92C72ED82EE92EFF2420E0C114D1040E
:10226000E104F10419F0C701B60128E06B017C011B
:1022700054E0F694E794D794C7945A95D1F7C114D3
:10228000D104E104F10419F02C5FC701B6016B0120
:102290007C0142E0F694E794D794C7944A95D1F72D
:1022A000C114D104E104F10419F02E5FC701B60195
:1022B0009695879577956795672B682B692B09F01D
:1022C0002F5F822FFF90EF90DF90CF9008959C01B9
:1022D000909138032115310571F031FF0CC09160E8
:1022E0009093380380913803826030FF0AC0809356
:1022F0003803C90108959E7F909338032115310555
:1023000089F7809138038D7FF2CF0E9467119093F7
:10231000A9028093A802089521E030E002C0220FB4
:10232000331F8A95E2F7209530958091A80290910D
:10233000A902822393230E948511089521E030E0B1
:1023400002C0220F331F8A95E2F78091A802909174
:10235000A902822B932B0E94851108959B01BA013B
:102360009091C9049430E1F48093E9009FEF80914B
:10237000E800915085FD06C085ED8A95F1F70000D3
:102380009111F5CF8091E80085FF0AC050E040E050
:10239000C9010E9464098091E8008E778093E8006B
:1023A000089543E050E0BC0182E00E94AE11089520
:1023B000CF93DF93EC0148E050E0BC0181E00E9444
:1023C000AE1188E0FE01AFEBB4E001900D928A956A
:1023D000E1F7DF91CF910895B0E0A0E0E2EFF1E105
:1023E0000C946A307C015B016A018091870201E0F4
:1023F00010E08A3010F40AE010E0C1E0D0E0B5014E
:10240000C701F6010995811104C021960C171D071B
:102410002CF4CDB7DEB7EAE00C948630CC9F900167
:10242000CD9F300D300D112490E080E045E34A95BA
:10243000F1F70000019682179307C1F7E0CF809172
:102440005B02811119C088EC90E02091E30027FD28
:1024500010C0EFE3FCE93197F1F700C000000197ED
:10246000A1F782E080935B020E9414091092C904D4
:1024700003C081E080935B0281E090915B02913028
:1024800011F080E0089508950E941F12882359F0EA
:10249000E091B304F091B404309729F00190F081F9
:1024A000E02D0995089580E00895A1E7B1E0EBE5FE
:1024B000F2E10C9465308091AC0480FD0AC0EBE33E
:1024C000F3E0118210821282339624E0EC3AF20794
:1024D000C1F78090390390903A038114910409F474
:1024E0005AC080FF58C0D12CC12C66246394712C33
:1024F00013E0512E8091380393010C2C01C0220F60
:102500000A94EAF7822309F43EC0F601EE0FFF1F9A
:10251000E80DF91DE590F490E114F104E1F145E0D6
:1025200050E0B701CE0101960E94C73009810F3FEC
:1025300051F18A81800F9927991F8C37910514F0EA
:102540008BE790E05C01AA0CBB1C8A0D9B1DFC0173
:10255000E55CFC4F5F01059D80011124055C1C4F6B
:102560000A151B0520F0F5E0EF0EF11CD8CF4D81C8
:10257000413508F040E598016C818B810E94590B30
:102580000D5F1F4FEDCF2FEFC21AD20A38E0C316EE
:10259000D10409F0AFCF7EEBA72E7DE0B72EDE0190
:1025A0001196AE014E585E4F1A2F7B2FF501849184
:1025B000282F30E0C901880F991F820F931F855C77
:1025C0009C4FFC01C080D180E280CD92DD92ED92E3
:1025D000FFEFAF1ABF0AA417B50741F7539A3BB1F3
:1025E000377F2BB128606FB7F894812F972FFC01AC
:1025F0007191CF01E8E02BB9000000C077FF3BB933
:10260000770F000000C000C000C03BB900C0EA95D1
:1026100091F78417950759F76FBF8FE594E00197FD
:10262000F1F700C00000CF58DE4FEFE00C9481308E
:10263000A3E0B0E0EEE1F3E10C947130122F909141
:10264000AC0490FF1BC0413508F040E59E012F5FB0
:102650003F4F0E94590B1B3788F48B819981212FA2
:1026600030E0F901EE0FFF1FE20FF31FE55CFC4FB6
:102670002A812183908382830E9455122396E3E06E
:102680000C948D300F93FC01862F642F422F202F46
:102690000F3F29F09281992321F00E9418130F9186
:1026A000089540E060E080E0F8CF0F93CF93DF9390
:1026B000EC01062F60914D0270914E0290E080E097
:1026C0000E942511813089F0882341F0823089F001
:1026D000853099F0DF91CF910F9108952FEF4FEF53
:1026E0006AE6CE010E944213F5CF2FEF4FEF6BE267
:1026F000F8CF2AED4AED6EE1F4CF2FEF4FEF65ED05
:10270000F0CFCF92DF92EF92FF926B017C010E949B
:10271000430BB701A60188E090E00E940C31FF90C6
:10272000EF90DF90CF900895A3E0B0E0EAE9F3E105
:102730000C946E30F82E062F142FE22E8091AC04EC
:1027400080FF3AC0E82FE695F0E0E754FE4F908115
:10275000909336038E7F8230E9F4413508F040E5EE
:102760009E012F5F3F4F602F8F2D0E94590B80914C
:10277000AC0480FF0FC08B8199812A81EBE3F3E0E9
:10278000218390838283339634E0EC3AF307C1F7D8
:102790000E945512F092AD040093AE041093AF0462
:1027A000EE2051F06091AC047091AD048091AE04C4
:1027B0009091AF040E9481132396E6E00C948A3036
:1027C000ECEAF4E0438121E1421B08F440E021E01F
:1027D000628181810E9494130895ECEAF4E04381C0
:1027E00021E1420F08F44FEF21E0628181810E94D4
:1027F00094130895ECEAF4E0628121E1621B08F48D
:1028000060E021E0438181810E9494130895ECEA05
:10281000F4E0628121E1620F08F46FEF21E043816F
:1028200081810E9494130895ECEAF4E0818121E013
:102830004381628188500E9494130895ECEAF4E089
:10284000818121E043816281885F0E949413089511
:102850008091B004882319F081508093B004609176
:10286000AC047091AD048091AE049091AF040E94CD
:10287000811308958091B004833018F48F5F8093A2
:10288000B0046091AC047091AD048091AE0490915D
:10289000AF040E94811308958091AC0480FF19C099
:1028A000817082608093AC04662351F06091AC0427
:1028B0007091AD048091AE049091AF040E94811399
:1028C00020E04091AF046091AE048091AD040E947D
:1028D000941308958091AC048695815009F481E0A9
:1028E00061E00E944C14089561E081E00E944C1464
:1028F0000895ECEAF4E083E0808311828FEF828315
:1029000080E58383148260817181828193810E943A
:1029100081130895A4E0B0E0E0E9F4E10C94703094
:1029200040918302509184026091850270918602E9
:102930002FB7F8948091B8049091B904A091BA048B
:10294000B091BB042FBF841B950BA60BB70B11E0F6
:1029500084369105A105B10590F10E941F128823CC
:1029600099F10E94AB0A6E5F7F4F8F4F9F4F698333
:102970007A838B839C8380912201909123018059DB
:102980009D4F4091210150E04530510510F044E049
:1029900050E0BE016F5F7F4F0E94DD3084E090E029
:1029A0000E94EC2F182F882351F00E94AB0A6093ED
:1029B0008302709384028093850290938602812F14
:1029C0002496E4E00C948C300E94AB0A00918802BB
:1029D0001091890220918A0230918B02600F711F41
:1029E000821F931FC0CF4F925F927F928F929F92D0
:1029F000AF92BF92CF92DF92EF92FF920F931F930D
:102A0000CF93DF930F92CDB7DEB7C62E4A0159019F
:102A1000482E880F5508C2010E94EC2F782E88237B
:102A200009F480C0C20133E0880F991F3A95E1F79D
:102A3000FC01EF5FFE4F438150E04115510511F05D
:102A400041E050E08F5F9E4FFC01648175816059C9
:102A50007D4FCE0101960E94DD30F401408151810D
:102A6000628173812FB7F8948091B8049091B90472
:102A7000A091BA04B091BB042FBF841B950BA60B89
:102A8000B70B84369105A105B10540F4B701C80123
:102A90000E94270B9981891709F444C00C2C000C63
:102AA000DD08C6010E94EC2F782E811113C0712C15
:102AB000872D0F90DF91CF911F910F91FF90EF9095
:102AC000DF90CF90BF90AF909F908F907F905F905E
:102AD0004F900895C60123E0880F991F2A95E1F7CA
:102AE000FC01EF5FFE4F438150E0E416F50608F469
:102AF000A7018F5F9E4FFC016481758160597D4FF6
:102B0000C5010E94DD30B701C8010E94270B9981E1
:102B10008913CDCF0E94AB0AF40160837183828355
:102B20009383C6CFA701B801C5010E94DD30C0CF95
:102B3000ACE0B0E0EEE9F5E10C946C306B018CE0B8
:102B4000E82EF12C01E712E09E012F5F3F4F48E68F
:102B500052E061E080E00E94F314882349F09CE099
:102B6000FE013196ACE5B2E001900D929A95E1F745
:102B70009CE0ECE5F2E0D60101900D929A95E1F728
:102B80002C96E8E00C948830A4E2B0E0EAECF5E1A1
:102B90000C9464308E010F5F1F4F88E1D8011D92A5
:102BA0008A95E9F763E3E62E61E0F62E680179E3A2
:102BB000472E71E0572E66246394712CF3E38F2E19
:102BC000F1E09F2EF70181917F018F3F09F445C00D
:102BD000F894E82FE295EF70F0E021A18F70A30147
:102BE00002C0440F551F8A95E2F7CA01922F982B15
:102BF00091A392A18095892382A3789400C0E9E2F1
:102C0000F1E021E030E0B12CA12C41914F3F09F4DB
:102C10006DC0A42FA295AF70B0E090968C9190E01B
:102C20004F7002C0959587954A95E2F780FD5EC08A
:102C3000C901A82AB92A220F331F8E169F0629F729
:102C4000F701319780818F3F11F00E94B50D50EA56
:102C50005A95F1F7D601AD92BC92B2E0CB0ED11CE1
:102C60004E145F0409F0AECF48E150E0B8018EE8A1
:102C700092E00E94D030009741F028E1F801AEE8E0
:102C8000B2E001900D922A95E1F70091A702892BFD
:102C900081F181E0809353020E94B70A909352021F
:102CA0008093510280915102909152020E949C0A9D
:102CB000059718F110E0000F111F0F541D4F4CE045
:102CC00050E06EE872E0C8010E94D030D12C892B10
:102CD00051F08CE0EEE8F2E0D80101900D928A9577
:102CE000E1F7DD24D3941092530208C090E080E015
:102CF000A0CF809153028111D5CFD12C0E941F12F9
:102D0000C82EE091A702AE01475E5F4F7A0188238B
:102D100009F477C08CE0DA011D928A95E9F70E2F4D
:102D200010E0000F111F0F541D4F809187028A3051
:102D300078F548E955E1B701C8010E94EC118823F4
:102D400009F44EC04FE957E2B701C8010E94EC11E7
:102D5000882309F445C04AE854E1B701C8010E943C
:102D6000EC118823E9F1109287028091A60290E08D
:102D7000880F991F4CE050E0B7018F549D4F0E947F
:102D8000D03021E020935A02892BB1F4C12C22C00B
:102D900080915402909155020E949C0A843F914078
:102DA00040F680915A02882389F38CE0F701119252
:102DB0008A95E9F710925A02A091A602B0E0AA0FF4
:102DC000BB1FAF54BD4F8CE0FE01799601900D9270
:102DD0008A95E1F78C2D8D29A496E0E10C94803042
:102DE000809187028F3F31F08F5F809387028A3016
:102DF00008F4BBCF0E94B70A909355028093540207
:102E0000D0CFF0E0EE0FFF1FEF54FD4F8CE0A1E7B5
:102E1000B2E001900D928A95E1F76CE070E081E7F5
:102E200092E00E94270B809370024091E50250E0EF
:102E30006091E40270E06E517D4FC7010E94DD3069
:102E4000898D80937E0261E070E0C7010E94270BAC
:102E500080937D0280907F0290908002A0908102FA
:102E6000B09082028091560290915702A091580230
:102E7000B091590288169906AA06BB0609F486CFB6
:102E80008092560290925702A0925802B092590234
:102E90000E941F12C82E811179CF0E94AB0A861A98
:102EA000970AA80AB90A8092880290928902A09291
:102EB0008A02B0928B028ECF809148029091470295
:102EC000892B8093BE0148E050E06FE372E08EEB07
:102ED00091E00E94D030892BA9F088E0EEEBF1E080
:102EE000AFE3B2E001900D928A95E1F7E091B3046F
:102EF000F091B404309731F00280F381E02D8EEB35
:102F000091E00995089510924802E0ECF1E086E026
:102F1000DF011D928A95E9F790E080E00E94020BA4
:102F200090E080E00E94DD0A109247020E945C1748
:102F30000895AAE2B0E0EFE9F7E10C9471308BEC70
:102F400094E02091F100FC012193CF01F4E0833D56
:102F50009F07B9F78091CC04833009F470C0B8F4AE
:102F6000813009F447C0823009F4B1C08091E80093
:102F700083FF88C28091CB049091CC049A3008F0F2
:102F800081C2E92FF0E0E05DFE4C0C94C1308A3044
:102F900009F48CC08B3009F46FC0893039F7809107
:102FA000CB04813219F78091CF049091D00402971D
:102FB000E8F68091E800877F8093E8008091E80040
:102FC00082FF38C09091F3008091F200029731F4B3
:102FD0008091F100813011F0863021F48091F10070
:102FE0008093BE048091E8008B778093E8000E9474
:102FF0008E09BCCF8091CB04813A09F0B7CF809184
:10300000E800877F8093E8008091CF049091D004FE
:10301000892B61F468E08FEB94E070E00E943A0A3B
:103020008091E8008B778093E800A0CF60E090E08B
:1030300080E0F3CF8091C9048111C0CF97CF8091F8
:10304000CB04813A09F092CF8091CF049091D004C3
:10305000892B09F08BCF8091E800877F8093E8006F
:103060008091E80080FFFCCF80914E018093F100B9
:103070008091E8008E77B9CF8091CB04813209F03E
:1030800075CF8091CF049091D004892B09F06ECF39
:103090008091E800877F8093E8000E948E098091EC
:1030A000CD0480934E010E94831760CF8091CB04A2
:1030B000813209F05BCF8091E800877F8093E80040
:1030C0000E948E098091CE048093BD044FCF8091E1
:1030D000CB04813A09F04ACF8091E800877F809342
:1030E000E8008091E80080FFFCCF8091BD04BECF56
:1030F000803899F0823809F0C5C18091CF048F7073
:10310000873008F0BFC18093E9008091EB0085FB18
:10311000882780F91092E90006C08091C704909139
:10312000C804911182609091E800977F9093E80025
:103130008093F1001092F1008091E8008E779EC19B
:10314000882309F48CC1823009F09CC18091CD04A0
:1031500081118FC18091CF048F702FEF280F2630FF
:1031600008F090C18093E9002091EB0020FF81C11D
:10317000933031F48091EB0080628093EB0079C151
:103180009091EB0090619093EB0021E030E001C062
:10319000220F8A95EAF72093EA001092EA008091C4
:1031A000EB008860EACF81116DC11091CD041F77CB
:1031B0008091E3008078812B8093E3008091E80088
:1031C000877F8093E8000E948E098091E80080FF4D
:1031D000FCCF8091E30080688093E30082E01111CE
:1031E00083E08093C9044EC18058823008F04AC100
:1031F0008091CD049091CE048C3D23E09207A1F5FF
:1032000083E08A838AE289834FB7F894DE011396BC
:1032100020E03EE051E2E32FF0E050935700E491CC
:1032200020FF03C0E295EF703F5FEF708E2F90E0BC
:10323000EA30C0F0C7968D939D932F5F243159F7E4
:103240004FBF8091E800877F8093E8006AE270E0DA
:10325000CE0101960E943A0A8091E8008B77809314
:10326000E80010C1C096E7CF4091CF045091D00440
:10327000292F33272330310509F444C078F5213054
:10328000310509F46FC08FE990E0EBEAFEE02230EF
:10329000310509F0F7C02091E800277F2093E8006E
:1032A0002091D1043091D2048217930708F49C0135
:1032B00040E02115310509F064C0411162C08091E0
:1032C000E80082FDC9CF8091C904882329F28530A6
:1032D00019F28091E80083FFF2CFBECF2132310591
:1032E000A9F12232310509F0CDC04115510509F48B
:1032F00043C04130510509F0C5C082E390E0E9E3E5
:10330000FEE0C9CF992781309105C1F0009759F0AF
:10331000029709F0B7C0ECE5FFE0E4918E2F90E052
:10332000ECE5FFE007C0E4E8FFE0E4918E2F90E0D9
:10333000E4E8FFE0009709F4A5C0ADCFE4E7FFE0C3
:10334000E4918E2F90E0E4E7FFE0F4CF41155105C2
:1033500071F04130510509F095C089E090E0E6ED4B
:10336000FEE099CF82E190E0EAE4FFE094CF89E0CB
:1033700090E0EDEBFEE08FCF80E490E0EBE6FEE046
:103380008ACF8091C904882309F466CF853009F477
:1033900063CF8091E80083FD5FCF8091E80082FDDC
:1033A0008ECF8091E80080FF84CF9091F3008091D0
:1033B000F2002115310519F08830910550F041E0F7
:1033C000089709F040E08091E8008E778093E8004C
:1033D00070CF44914093F10031962150310901960C
:1033E000E8CF803809F04EC08091E800877F809355
:1033F000E8008091CA048093F1009ECE811142C002
:103400001091CD041230F0F58091E800877F809311
:10341000E8001093CA040E948E09112311F084E081
:1034200005C08091E30087FDFACF81E08093C90455
:1034300042E061EC81E00E94AD0942E261EC82E091
:103440000E94AD0942E361E883E00E94AD0942E3D6
:1034500060E884E00E94AD098091C90413C08091A6
:10346000CD04813079F481E0933009F080E08093DD
:10347000C8041092E9008091E800877F8093E800FB
:103480000E948E098091E80083FF0AC08091E800C5
:10349000877F8093E8008091EB0080628093EB004F
:1034A000AA96E3E00C948D300E9483172FEF84E3FB
:1034B0009CE0215080409040E1F700C0000088E18E
:1034C0009AE00FB6F894A895809360000FBE909391
:1034D0006000FFCF882341F08095909148028923B6
:1034E000809348020E945C170895882339F09091D8
:1034F0004802982B909348020E945C1708958823F5
:10350000C1F19CEF980F913A78F4E0ECF1E09191E1
:10351000891303C0DF0111971C9241E0E63CF407D8
:10352000B1F70E945C17089590E2980F983088F4E4
:10353000877021E030E0A90102C0440F551F8A9531
:10354000E2F7CA018095909148028923809348024E
:10355000E8CF9BE5980F933028F490E080E00E943C
:10356000020B0895885A8B3120F490E080E00E948D
:10357000DD0A0895CF93C82F8823B1F08CEF8C0F0C
:10358000813A00F5E0ECF1E086EC91E0DF012D916D
:10359000C21761F08A179B07D1F76C2F8EEB91E071
:1035A0000E94C30A0E945C17CF9108952191C21313
:1035B00003C0DF0111971C928E179F07B9F70E9475
:1035C0005C17EBCF80E28C0F883068F4C77021E085
:1035D00030E001C0220FCA95EAF780914802822BA1
:1035E00080934802DFCFEBE5EC0FE33040F4F0E0EE
:1035F000E15AFE4F808190E00E94020BD5CFC85A5D
:10360000CB3190F6EC2FF0E0EE0FFF1FEE59FE4F9E
:10361000808191810E94DD0AC7CF1F93CF93DF93F2
:10362000182FCAE0D0E0893311F4C0E5D0E0812F33
:103630000E94BA1A8FE99FE00197F1F700C00000DD
:103640002197C1F7812F0E947F1ADF91CF911F919F
:1036500008950F931F93CF93DF93C62FD42F022F7C
:10366000FC0182818823A9F06093D5040E94B70AE7
:103670009093D4048093D304C77081E001C0880F75
:10368000CA95EAF70E94751ADF91CF911F910F91A9
:1036900008958091D504681332C08091D30490912D
:1036A000D4040E949C0A883C910548F510E21D0F45
:1036B000CD17B9F080E28C0F883040F4C77081E0FC
:1036C00001C0880FCA95EAF70E946A1A183048F4B8
:1036D00081E09D2F977001C0880F9A95EAF70E94AC
:1036E000751A802F0E940D1B183070F6D77081E07C
:1036F00001C0880FDA95EAF70E946A1AC5CFC77031
:1037000081E001C0880FCA95EAF7F6CFCF93DF9327
:10371000C1E0D0E002C0CC0FDD1F8A95E2F76C2F2C
:1037200083E090E00E94FA30CE010E94F610DF9113
:10373000CF91089567EE7EEF90E080E00E9418310F
:1037400060E082E090E00E94FA3060E083E090E088
:103750000E94FA3010924E0210924D0260E074E125
:1037600084E090E00E94183160E086E090E00E94E2
:10377000FA306FEF87E090E00E94FA3040E050E0CE
:10378000BA0188E090E00E940C3160E08DE090E0AA
:103790000E94FA3040E050E0BA0188E190E00E94D7
:1037A0000C3160E087E190E00E94FA3040E050E0A8
:1037B000BA018CE190E00E940C3170E060E080E2A0
:1037C00090E00E94183140E050E0BA0188E190E0BA
:1037D0000E940C3140E050E0BA018FE090E00E947E
:1037E0000C310E94890CEAE5F5E08081807F8260DF
:1037F0008083EBE5F5E08081807885678083109297
:103800004C0210924B0210924A021092490281E03F
:10381000809300011092AD021092AE021092AF029E
:103820001092B00240E050E0BA0183E190E00E94C3
:103830000C3182E00E94861B0895A5E0B0E0E3E22F
:10384000FCE10C9464304C01FC0183819481892B50
:1038500039F08081918189238F3F11F00C94A52448
:103860002596E0E10C9480300E942E10182F682FCE
:1038700089819A810E94DC1069817A81812F0E945E
:10388000B10E5C01F4012181808190E0FAE02F9F6C
:10389000800D911D1124FC01E854FD4F1491FC0191
:1038A000E05CFD4FF49040EC4A0D20E7A2162EE7B5
:1038B000B20608F0C5C034E6A3163EE7B30608F02A
:1038C0008BC25BE4A51651E7B50608F05EC083E045
:1038D000A81681E7B80608F088C292E5A91692E317
:1038E000B90609F44DC0D8F5C5010497843E910589
:1038F00008F446C0F3E8AF16F1E7BF0608F02AC3A4
:1039000023E7A21621E7B20608F04DC434E6A31659
:1039100031E7B30608F0C2C247E5A41641E7B40692
:1039200008F0F1C355E5A51651E7B50608F09CC2AD
:103930008BE4A81681E7B80608F0C2C393E0A91685
:1039400091E7B90608F08AC3F501E851FC47E73072
:10395000F10508F08BC1E65CFE4C0C94C130F8EA2E
:10396000AF16F9E4BF0609F477C228E2A21622E5F1
:10397000B20631F031E9A31638E4B30609F0BACF44
:10398000012F2FEF4FEF60E0FEC158E5A5165EE76F
:10399000B50608F018C28CE4A8168EE7B80608F041
:1039A00000C296E1A9169CE7B90651F308F4A2CF2C
:1039B000F0E4AF16FEE7BF0608F49CCFC090AD025E
:1039C000C0FACC24C0F870904C0200915B050F77D0
:1039D00050E09A01225E3A4F7901F901D080F4015A
:1039E0008281FFEF882309F4B6C1DF1210C0C50140
:1039F00081539D400E94EF0BD82E402F682F872DBA
:103A0000CC2009F4A1C10E94F507F701D082609192
:103A10004D0270914E0290E080E00E9425118130AD
:103A200009F4B5C1882309F4AAC1823009F4B4C1EC
:103A3000853009F05FCF012F2FEF4FEF6FEBA3C160
:103A400021E8A2162EE7B20609F438C128F55DE791
:103A5000A5165EE7B50609F402C178F49CE7A9163D
:103A60009EE7B90608F050C096E0C92E23E0E22E8A
:103A700000E0950125553D409CC1F4018281FFE79E
:103A8000AF16FEE7BF0609F415C108F40FC188237D
:103A900009F4ECC083E0E8C035E8A3163EE7B306BE
:103AA00009F434C1B8F4F4018281F3E8AF16FEE7FB
:103AB000BF0609F40DC108F407C1882309F4D6C074
:103AC00080914B02882309F41AC110924B02109284
:103AD0004C02CCC037E8A3163EE7B30609F429C16F
:103AE00008F41FC158E8A5165EE7B50609F002CF35
:103AF000F4018281882309F4B9C08091000191E02A
:103B0000892780930001B2C0F4018281882309F4DF
:103B1000ADC00CEF11E0AAE04A2EF8012491222357
:103B200009F4A4C0213009F043C03196849181305A
:103B300039F40E5F1F4FF80184910E940D1B08C0DD
:103B4000823049F40E5F1F4FF80184910E94BA1A27
:103B50000F5F1F4FE2CF833039F40E5F1F4FF80124
:103B600084910E947F1AF4CF843009F076C00E5FF2
:103B70001F4FF801249190E080E0F8013196205326
:103B8000330B2A30310548F0019710F3EFE9FFE0DD
:103B90003197F1F700C00000F7CF489EA001499E81
:103BA000500D1124C901840F951F24918F01E5CF79
:103BB000E22FF0E0E458FE4F5490822F86958695D0
:103BC000869590E0FC01E459FE4F64902770712CBB
:103BD000022E02C0759467940A94E2F731E06322E2
:103BE0007724FC01E45AFE4FC490D12C022E02C06F
:103BF000D594C7940A94E2F741E0C422DD24FC0185
:103C0000E45BFE4FE490F12C02C0F594E7942A9512
:103C1000E2F751E0E522FF246114710419F081EE0E
:103C20000E94BA1AC114D10419F086EE0E94BA1A81
:103C3000852D0E940D1BC114D10419F086EE0E943F
:103C40007F1A6114710419F081EE0E947F1AE11449
:103C5000F10409F47DCF8CE270CF8F0179CFF401AC
:103C60008281882319F080E00E94861BF4019281F2
:103C7000992309F495C61092D50495013057233243
:103C8000310508F075C684E090E00E94F43090930E
:103C9000AB028093AA02F501E150F047E232F10550
:103CA00008F06BC3EF5BFE4C0C94C1308823F1F23B
:103CB00081E0DACF8823D1F282E0D6CFF40182818D
:103CC0008823A1F284E0D0CF882381F285E0CCCF95
:103CD000882361F29091AD02892F8E7F90FF8160E1
:103CE0008093AD024091AD025091AE026091AF025F
:103CF0007091B00283E190E00E940C31B7CF81E077
:103D000080934B0282E080934C02B0CFF401828119
:103D1000882309F4ABCF81E08093490210924A02D4
:103D2000A5CFF4018281882309F4A0CF1092490223
:103D3000F5CFF4018281882309F498CF10924902CB
:103D400081E080934A0292CF0E94F507402F6CE0F9
:103D50006D0D872D58CEDF1639F0402F6D2D872D34
:103D6000CC2031F00E94E3078FEFF70180834FCE24
:103D70000E94E3076CE06D0D402F872DF3CF012FDC
:103D80002FEF4FEF65E5C4010E944213B3CD012F21
:103D90002FEF4FEF65E1F7CF012F2FEF4FEF6BE2E2
:103DA000F2CFE7E0CE2EF4E0EF2E00E095012153B4
:103DB0003D40B40180914B020E94FE0B612FC40173
:103DC0000E94551397CD67E0C62E73E0E72E00E002
:103DD00095012D533D40EDCF3AE0C32E57E0E52E3F
:103DE00004E0950129543D40E4CF80914A028823A4
:103DF00081F0209100014CE0B401C5010E94500CFB
:103E0000012F2FEF4FEF60E0C4010E9442130F2DEE
:103E1000B8CD80914902882399F02091000144EFA8
:103E2000B401C5010E94500C012F2FEF4FEF60E845
:103E3000C4010E9442130F2D2FEF4FEF60E8A3CF74
:103E4000012F2AED4AED6EE1C4010E9442130F2DAD
:103E50002AED4AED6EE197CF012F2AED4AED6EE192
:103E6000C4010E94421302CFE5E5AE16E1E7BE06AB
:103E700009F437C1F6E5AF16F1E7BF0609F064CDE6
:103E8000F4018281882309F4EBCC80915A05982FA4
:103E90009F70993008F0E4CC9F5F2FC121E7A216F4
:103EA000B206D0F536E6A31631E7B30608F04DC1E9
:103EB00044E6A41641E7B40609F433C155E6A51655
:103EC00051E7B50609F040CDF4018281882309F459
:103ED000C7CC20915A05822F859585958595859526
:103EE00086300CF0BDCC91E0980F9295907F95951F
:103EF000959595959595392F3295307F2F70232B79
:103F000020935A0518160CF0ABCC97FFA9CC8295DC
:103F1000807F922F9F70F3C081E7A816B80609F43E
:103F200028C192E7A91691E7B90609F00DCDF40171
:103F30008281882309F494CC80915B05982F9F7728
:103F40009F3709F48DCC933708F02BC1935F9F778F
:103F5000807825C1E9E8AE16E1E7BE0609F480C124
:103F600008F03EC025E8A21621E7B20609F450C1C8
:103F7000F8F443E8A41641E7B40609F42AC154E86A
:103F8000A51651E7B50609F0DFCCF401828188233C
:103F900009F466CC20915B05322F331F3327331F82
:103FA00090915C05892F8770880F832B8F5F23C1C9
:103FB000F401228180915B0590915C05F7E8AF16D2
:103FC000F1E7BF0609F438C108F040C140E0211113
:103FD0004FE7881F8827881F9770990F60E428C1D2
:103FE0004CE8A41641E7B40609F45CC1A0F48AE8E1
:103FF000A81681E7B80609F443C19BE8A91691E722
:10400000B90609F0A1CCF4018281811149C18FEF79
:104010008093EC0225CCEEE8AE16E1E7BE0609F48B
:104020007AC108F461C12FE8A21621E7B20609F0AF
:104030008BCC80915B05982F991F9927991F8091B0
:104040005C058770880F892BF40192816FEF7FE107
:10405000992309F471C10E94070802CC00915B0505
:10406000802F881F8827881F10915C051770110FFB
:10407000182B0F778DEF8A0D90E0AC0142515D4F08
:104080007A01FA016081F4018281882379F06F3F1F
:1040900009F0E6CBC5010E94EF0BD82E402F682F08
:1040A000812F0E94F507F701D082DACB6F3F21F014
:1040B000402F812F0E94E3078FEFF7018083D0CB41
:1040C000F4018281882309F4CBCBF5EBAF0E2A2DC6
:1040D0002F70A22E80915A05807FA82AA0925A059F
:1040E000BFCBF4018281882309F4BACB80915A05B1
:1040F000982F9F7009F4B4CB915F9F70807F892BBC
:1041000080935A05ADCBF4018281882309F4A8CBB2
:10411000F3EAAF0EA29480EFA82280915A058F7027
:10412000DCCFF4018281882309F49ACB80915A056F
:10413000982F95959595959595959B3F0CF490CBDB
:10414000915F9295907F8F70DACFF40182818823FE
:1041500009F486CBFAE9AF0E8CE0A89EA02C1124BE
:10416000E894A7F880915B058078A82AA0925B0567
:1041700077CBF4018281882309F472CB80915B05AF
:10418000982F9F7709F46CCB80789F3721F485674F
:1041900080935B0565CB9D30D8F39D509F77892B2D
:1041A000F7CF8F67F5CFF4018281882309F458CBCC
:1041B000EDE8EA0D80915B05E0FB87F980935B05F4
:1041C000E695E77080915C05887FE82BE0935C05BD
:1041D00047CBF4018281882309F442CB20915B050F
:1041E000322F331F3327331F90915C05892F87703F
:1041F000880F832B815F382F3F7080FB27F9209336
:104200005B05832F8695987F982B90935C0528CB30
:10421000F4018281882309F423CB90915B05991FD7
:104220009927991F80915C058770880F40E06BE7A4
:10423000892B0E94200814CB40E021114FE7881FF2
:104240008827881F9770990F61E4F2CF40E0211111
:104250004FE7881F8827881F9770990F62E4E8CF7F
:10426000F401828140E081114FE790915B05991F35
:104270009927991F80915C058770880F63E4D8CFD8
:10428000F401828140E081114FE790915B05991F15
:104290009927991F80915C058770880F64E4C8CFC7
:1042A00081E0B6CEF4018281882309F4D9CA9091C5
:1042B0005C05292F2695269526952F7081E0820F83
:1042C0008F70880F880F880F9778892B80935C05F3
:1042D000982F987709F0C4CA220F220F220F8778EF
:1042E000822B80935C05BCCAF4018281882309F487
:1042F000B7CA80915C05982F987709F4B1CA982FB6
:10430000969596959695915F9F70990F990F990F35
:104310008778892BE6CF80915B05982F991F992785
:10432000991F80915C058770880F892BF401928119
:1043300060E070EE91118FCE70E060E08CCE26E2EE
:1043400041EE61EEC4010E94291B8ACA27E245EEB4
:1043500065EEF8CF26E241EE60EEF4CF27E245EEBF
:1043600064EEF0CF26E241EE62EEECCF27E245EEBE
:1043700066EEE8CF28E241E0EBCF8091AA028160AF
:104380008093AA0295C08091AB0288608093AB02B3
:104390008FC08091AA028260F3CF8091AA028460CC
:1043A000EFCF8091AA028860EBCF8091AB02816051
:1043B000EDCF8091AB028260E9CF8091AA0280614B
:1043C000DFCF8091AA028062DBCF8091AA02806455
:1043D000D7CF0E9483178091AA028068D1CF8091A5
:1043E000AA028C60CDCF8091AB028360CFCF809149
:1043F000AA028E7FC5CF8091AB02877FC7CF809105
:10440000AA028D7FBDCF8091AA028B7FB9CF809108
:10441000AA02877FB5CF8091AB028E7FB7CF809104
:10442000AB028D7FB3CF8091AA028F7EA9CF8091FE
:10443000AA028F7DA5CF8091AA028F7BA1CF0E9477
:1044400083178091AA028F779BCF8091AA02837FE6
:1044500097CF8091AB028C7F99CF8091AA0282FB8B
:10446000992790F921E0922790FB82F990FB83F93C
:1044700087CF8091AB02982F909591708E7F892B7A
:1044800090FB81F983CF9091AA02892F8F7B96FFB1
:10449000806476CF0E9483179091AA02892F97FBA0
:1044A00087F980586DCF61E08EE090E00E94FA308D
:1044B0006091AA027091AB0284E090E00E941831F2
:1044C0000E948317CDC960E0EFCF9091AA02892F97
:1044D0008F7E94FF806154CF9091AA02892F8E7FA6
:1044E00090FF81604DCF9091AB02892F877F93FF22
:1044F00088604CCF8091C60181110FC089E2E0EC49
:10450000F1E026EC31E09191891303C0DF011197AE
:104510001C922E173F07B9F73FC285E3F0CF809179
:10452000AC0480FF10C08E7F8093AC046091AC041B
:104530007091AD048091AE049091AF040E948113FC
:104540000E9455128DC981608093AC0461E086950C
:104550000E944C1485C94AE654E164E774E10E9464
:104560003D0B7EC944E754E16AE674E1F8CF44E1CB
:1045700054E16EE174E1F3CF4EE154E164E174E1A2
:10458000EECF4AEF53E167E074E1E9CF47E054E151
:104590006AEF73E1E4CF40EE53E16DEE73E1DFCFFC
:1045A0004DEE53E160EE73E1DACF48E254E16AE3A5
:1045B00074E1D5CF4AE354E168E274E1D0CF61E021
:1045C00081E0C6CF6FEF7FEF90E080E00E9418316E
:1045D0000E94541AF40100811181992311F1C8013C
:1045E0000E942E10F82E682FC8010E94DC10B8011E
:1045F0008F2D0E94B10E0E94EA0E182FD82EF401C2
:1046000022814581342F32953F70892F82958F709A
:10461000E82EF12C8C30E8F5F701ED59FE4C0C94A6
:10462000C130C8010E949610F82EE1CF092F0F70FB
:10463000907F11F00295007F812F2223C9F0002383
:1046400069F090E2910F983010F011110BC0809139
:104650004802082B009348020E945C17812F0E9499
:10466000BA1A17C080914702082B00934702F4CF73
:104670000E947F1A002369F00095105E183010F038
:10468000D11021C0809148020823009348020E9463
:104690005C1798E0E91AF108E4E0EE16F10410F472
:1046A0000E94441285E0F401DE01119601900D9202
:1046B0008A95E1F709811A81C8010E949610B80114
:1046C0000E94B10ECDC88091470208230093470293
:1046D000DECF892F8F70907F903211F08295807F8E
:1046E000F1E0DF120CC0222329F0363090F60E9450
:1046F000751ACFCF353068F60E946A1ACACF2223C6
:1047000041F03323A1F340FFA9CF4F70F40145835B
:10471000EECF332389F3193309F00FC1FFEF27EEF2
:1047200033E0F15020403040E1F700C00000812F1D
:104730000E947F1AAECF892F86958695837061F08F
:10474000813009F0A6CF812F9370211102C080E043
:1047500090E00E94DD0A9DCF812F9370211102C04D
:1047600080E090E00E94020B94CF892F837009F0C3
:1047700042C021118ECF812F829586958770880F38
:10478000880F212F2F7030E0082E02C0220F331F18
:104790000A94E2F750E040E014FF09C04FE050E017
:1047A00002C0440F551F8A95E2F7409550959695A3
:1047B000969593709230A9F080F460914D027091BB
:1047C0004E02913041F0C901842B952B862397230B
:1047D0000E94F6105ECF262B372BC901842B952B18
:1047E000F7CFC901842B952B20914D0230914E02B9
:1047F00082279327EDCF8695222311F0892F817090
:10480000882309F446CF812F829586958770880F7B
:10481000880F212F2F7030E0082E02C0220F331F87
:104820000A94E2F750E040E014FF09C04FE050E086
:1048300002C0440F551F8A95E2F740955095969512
:10484000969593709230A9F080F46091A8027091CF
:10485000A902913041F0C901842B952B862397231F
:104860000E94851116CF262B372BC901842B952B3F
:10487000F7CFC901842B952B2091A8023091A90272
:1048800082279327EDCF092F0F70222329F0802F45
:104890000E949E11812F2BCF812F0E946A1A802F98
:1048A0000E948C11F6CE812FE1EF1E1791F1E117D6
:1048B00050F0F0EF1F17D1F02223D1F13111CECEFD
:1048C000892F8F712AC042EF141751F153EF15133E
:1048D000F3CF222351F19F7121E030E0F90102C0B2
:1048E000EE0FFF1F9A95E2F7CF01BACF222369F0AE
:1048F000353008F0CECE292F2F7181E090E002C034
:10490000880F991F2A95E2F7B7CF363008F0C1CE4D
:10491000F2CF892F8F71222319F20E949E11B9CEF6
:10492000892F8F712223C9F3BBCF90E080E098CF0D
:10493000332341F0893309F4F1CE8FE39CE90197E9
:10494000F1F7F3CE892F8F71ABCF85E0DE011196A1
:1049500001900D928A95E1F7F401228189819A8173
:1049600021110C94341C0E949610182F0C943C1C9E
:10497000F6E1AF16FCE7BF0639F5809148028A7A66
:1049800091E009F490E09093C60169E2811165E33A
:104990008EEB91E00E94C30A0E945C170C94301CBD
:1049A00026E1A2162CE7B20609F4A4CD80914802B4
:1049B0008272F501E052F847E531F10508F00ACEC0
:1049C000E159FE4C0C94C13031E0A3163CE7B3062C
:1049D00009F4FECD43E0A4164CE7B40609F4F2CD89
:1049E000A1145CE7B50609F0F5CD0E948317FFEF2F
:1049F00024E33CE0F15020403040E1F700C00000EB
:104A000087E797E7909301088093000888E19AE090
:104A10000FB6F894A895809360000FBE9093600045
:104A2000FFCF1F93CF93DF9380910C02807F09F01B
:104A30004BC080910902882309F446C080913E0250
:104A4000C0910D02409107025091080260910A0244
:104A500070910B02D42FD52316E0C817A9F190E06E
:104A600061157105A9F1DF3F99F1189FF001199FB8
:104A7000F00D1124DF01A25FBD4F11962C9111970B
:104A8000251326C02C91241323C012962C91129723
:104A900021111EC013962D913C91261B370B283CEB
:104AA0003105B0F480910C028F70806180930C020C
:104AB000ED5EFD4F80818F708061808387E092E0A2
:104AC0000E941D1C0E942410DF91CF911F91089518
:104AD00001968770C2CFA1E1B0E0E1E7F5E20C9466
:104AE00068308C0185E0F801DE011D9601900D9281
:104AF0008A95E1F7F801E28087E0882E82E0982E1F
:104B000040910A0250910B024115510509F430C140
:104B10009091070220910802892F82238F3F09F488
:104B200027C1D080C180A380B480F0900902B50174
:104B3000641B750BFF2009F4E7C080910C02382F2D
:104B4000307F683C710508F0ABC0311178C0FE2C95
:104B50002C1114C09D1112C0E11010C08F70806123
:104B600080930C02C4010E941D1C80910C02F8016C
:104B700085838F2D6196ECE00C948430A114B104F0
:104B8000C9F18D2D8C218F3FA9F181E08E2580FF09
:104B900005C04E2D6C2D8D2D0E940410A114B10462
:104BA00059F18D2D8C218F3F39F181E08E25F82F21
:104BB000F170BF2E80FF39C04E2D6C2D8D2D0E94BF
:104BC0000410A82E811131C0DD86CE868D859E858C
:104BD0000E946210292F22952F70243078F49F7044
:104BE0002230A8F09923B9F0F8019581907F99F4CB
:104BF000FA2CBFCF80E0CBCF80E0D9CF2A5F2F70D7
:104C0000223068F0C8010E941D1CAB2CF1CF992303
:104C100011F0882369F3805E883050F3F3CF803F32
:104C200038F3815F833070F7E3CFEE2009F4A1CF32
:104C300080910C02816080930C02F12C9ACF2C1190
:104C400005C09D1103C0EE2009F477C0C8010E9481
:104C5000FB10882309F1EE20F9F080910C028032DC
:104C600070F0209107023091080238872F8319864F
:104C7000BB86AA868C87CE0107960E941D1C86E003
:104C8000F801A7E0B2E001900D928A95E1F70E9449
:104C90001125FF24F3946DCFC8010E941D1CF9CF8C
:104CA00031110AC087E092E00E941D1C86E0F401E9
:104CB00011928A95E9F7C1CF2C110EC09D110CC03D
:104CC000E1100AC08583C8010E941D1C86E0F40122
:104CD00011928A95E9F74DCFC8010E94FB108823F5
:104CE000D9F2EE20C9F280910C02803240F220917C
:104CF0000702309108023A8329831B82BD82AC826D
:104D00008E83CE010196B9CF683C7105F8F6FE2C72
:104D1000EE2011F22C111EC09D111CC080910C02BE
:104D200080FD0FC0982F907F61F08583903F31F018
:104D3000982F907F905F8F70892B8583C8010E9488
:104D40001D1C86E0F801A7E0B2E001900D928A9563
:104D5000E1F70FCFC8010E94FB10811190CF809125
:104D60000C02816080930C02C8010E941D1C01CFBF
:104D7000EE2009F491CFC8010E94FB10F82E882381
:104D800009F48ACF86E0F801A7E0B2E001900D9225
:104D90008A95E1F780910702909108020E946210C3
:104DA0000E941125E6CEA7E1B0E0E9EDF6E20C9411
:104DB00071304B8B5C8B6D8B7E8B8F8B6111109266
:104DC00047021A8A198A85E0FE017396DE011D9654
:104DD00001900D928A95E1F786E0FE013D96DE0195
:104DE000179601900D928A95E1F7CE0107960E94E1
:104DF0006B25882359F016E080913E0290910D02B8
:104E0000891343C06796E3E00C948D3086E0FE0181
:104E10003796DE01119601900D928A95E1F78A8509
:104E20009B85892B41F38F81988589238F3F19F3C7
:104E300020910D0230E0C9010196877099274091B9
:104E40003E024817190671F40E94831710920D0252
:104E500010923E0286E0E7E0F2E0DF011D928A95C3
:104E6000E9F7C9CF96E0929FD001939FB00D11242E
:104E7000A25FBD4FFE01319601900D929A95E1F728
:104E800080930D020E942410B6CF819FC00111248F
:104E9000825F9D4F0E946B25882309F4B3CF8091D8
:104EA0003E0290E001968770992780933E02A4CF3E
:104EB000AAE0B0E0EEE5F7E20C947030182F062F70
:104EC000662399F10E94B70A1E832DEF2F8321E0FC
:104ED000288781609A8789874E815F816885798577
:104EE0008A850E94D3268FE39CE90197F1F700C0E1
:104EF00000000023F9F00E94B70A19832DEF2A83DE
:104F00001B8281609D838C8349815A816B817C8166
:104F10008D810E94D3268FE39CE90197F1F700C0B1
:104F200000002A96E4E00C948C300E94B70A1E839D
:104F30002CEFCCCF0E94B70A19832CEFE0CFA1E071
:104F4000B0E0E5EAF7E20C946B30EE24E394F12C48
:104F50000EE712E09E012F5F3F4F4CE652E063E008
:104F600082E00E94F314C82E882339F100E080E02B
:104F70001DC0D0908D02D00E2D2D30E0A9014E51D4
:104F80005D4F7A01E1E0F0E0EC0FFD1FE00FF11D55
:104F90001081FA019081191BB12E1B149CF0912FE6
:104FA00017FD90E0191B111118C00F5F90918C0232
:104FB0000917F8F281110E9401108C2D2196E9E069
:104FC0000C948730BA94F70180818F5F808360E012
:104FD0008D2D0E9458278C2DE0CF1F5FF701808117
:104FE0008150808361E08D2D0E9458278C2DDBCF6E
:104FF000A5E0B0E0EEEFF7E20C9470300E94B70A43
:105000008C0180914F029091500280179107A1F07E
:105010008FEF89838A831B820E94B70A8160782F71
:105020009D838C8349815A816B818D810E94D32617
:105030001093500200934F022596E4E00C948C30BC
:105040001F920F920FB60F9211242F933F934F93FD
:105050005F936F937F938F939F93AF93BF93CF9300
:10506000DF93EF93FF93D091E900DF708091EC0024
:10507000C82FC17080FDC0E81092E9008091F00057
:10508000877F8093F00078940E9499171092E9002E
:105090008091F00088608093F000CD2BCF70C0939A
:1050A000E900FF91EF91DF91CF91BF91AF919F9177
:1050B0008F917F916F915F914F913F912F910F90C1
:1050C0000FBE0F901F9018951F920F920FB60F9260
:1050D00011242F933F934F935F936F937F938F93FD
:1050E0009F93AF93BF93EF93FF938091E10082FF73
:1050F00009C08091E20082FF05C08091E1008B7FB2
:105100008093E1008091DA0080FF24C08091D80074
:1051100080FF20C08091DA008E7F8093DA0080913A
:10512000D90080FF9DC080E189BD82E189BD09B4BD
:1051300000FEFDCF81E08093C9048091BC04811101
:1051400009C00E9414090E94DF098091E200846076
:105150008093E2008091E10080FF17C08091E2001F
:1051600080FF13C08091E2008E7F8093E2008091E7
:10517000E20080618093E2008091D8008062809399
:10518000D80019BC85E08093C9048091E10084FFB8
:105190002BC08091E20084FF27C080E189BD82E1BD
:1051A00089BD89B5982F917080FFFBCF8091D80081
:1051B0008F7D8093D8008091E1008F7E8093E10005
:1051C0008091E2008F7E8093E2008091E200816016
:1051D0008093E2008091CA04882309F447C084E0E8
:1051E0008093C9048091C9048091E10083FF27C0A6
:1051F0008091E20083FF23C08091E100877F80934C
:10520000E10082E08093C9041092CA048091E10019
:105210008E7F8093E1008091E2008E7F8093E20098
:105220008091E20080618093E20042E060E080E0F3
:105230000E94AD098091F00088608093F000FF919A
:10524000EF91BF91AF919F918F917F916F915F91FE
:105250004F913F912F910F900FBE0F901F90189577
:1052600019BC1092C9041092BC0474CF8091E30061
:1052700087FD93E09093C904B5CF78941F921FB631
:105280001F9211248F939F93AF93BF938091B80483
:105290009091B904A091BA04B091BB040196A11DEC
:1052A000B11D8093B8049093B904A093BA04B0934D
:1052B000BB04BF91AF919F918F911F901FBE1F9014
:1052C00018951F921FB61F9211248F939F93AF932F
:1052D000BF938091B704811113C08091B80490915D
:1052E000B904A091BA04B091BB044196A11DB11DAF
:1052F0008093B8049093B904A093BA04B093BB040C
:10530000BF91AF919F918F911F901FBE1F901895D5
:10531000CDB7DEB760970FB6F894DEBF0FBECDBF36
:1053200085B7806885BF85B7806885BF0E94890C76
:1053300010928305109285051092840580EC80936D
:10534000480686E895E090934A06809349061092B5
:10535000470610924606109263051092620510925D
:10536000650510926405109267051092660510920B
:1053700069051092680510926B0510926A051092EB
:105380006D0510926C0510926F0510926E051092CB
:1053900071051092700510927305109272051092AB
:1053A000750510927405109277051092760510928B
:1053B00079051092780510927D0510927C0584E69F
:1053C0009DE090935F0580935E058BEC9CE090934D
:1053D0007F0580937E0587EA9CE090937B05809310
:1053E0007A0586EA9CE0909361058093600584B716
:1053F000877F84BF0FB6F894A8958091600088617C
:1054000080936000109260000FBE80E890E00FB6BD
:10541000F89480936100909361000FBE83EB9DE050
:105420009093BD018093BC010E9414090E94DF0982
:105430008091E20084608093E20078948091C904B6
:105440008823A1F01091E9001F709091EC00892F42
:10545000817090FD80E8182B1092E9008091E8009F
:1054600083FD0E9499171F701093E90082E084BDAC
:1054700093E095BD9AEF97BD80936E0010928802DD
:105480001092890210928A0210928B0290E080E0C2
:105490000E94F430873E9E4F11F00E949A1B8EE0CE
:1054A00090E00E94E63091E0811101C090E090937D
:1054B00039010E941F1281110E94002F8091390131
:1054C0001092E40210928D023091390181E0382768
:1054D0003093E5028091390180938C0280913901EB
:1054E000811193C131118BC18FE891E00197F1F7E0
:1054F00000C000001091E50266EE72E048EE52E056
:10550000B7EEEB2EB2E0FB2EFB018E2F861B811730
:1055100008F4B9C180913901811127C086E0EFE418
:10552000F1E0DE011B9601900D928A95E1F7FE01F4
:105530003B96A3E3B1E0CE0141969F0141914D938B
:10554000E817F907D9F78AE0E5E5F1E0DE01119601
:1055500001900D928A95E1F7FE013196A9E2B1E042
:1055600081918D932E173F07D9F78091390196E0ED
:10557000811190E09093A70286E0891B8093A60298
:1055800003E311E0A9E3EA2EA1E0FA2EF8018191EC
:105590008F018F3F11F00E94B50DE016F106B1F7B3
:1055A00009E211E0F3E3EF2EF1E0FF2ED8018D9137
:1055B0008D018F3F11F00E94B50DE016F106B1F795
:1055C00088E1E1EBF2E0DF01282F1D922A95E9F74F
:1055D000EEE8F2E0DF011D928A95E9F790E080E0C5
:1055E0000E94F430873E9E4F11F00E949A1B82E089
:1055F00090E00E94E6308093C90284E090E00E942F
:10560000F4309093AB028093AA0283E090E00E9472
:10561000E63090E00E94F6108091A8029091A902D5
:105620000E9467118091AC02811134C090E080E04B
:105630000E94F430873E9E4F21F00E949A1B0E94E8
:10564000791488E090E00E94EE306093AC0470938F
:10565000AD048093AE049093AF046E7F71F40E940A
:10566000791488E090E00E94EE306093AC0470936F
:10567000AD048093AE049093AF040E94430B8091DD
:10568000AC0480FF04C060E086950E944C1481E069
:105690008093AC020E941F12811102C00E94032F4E
:1056A00080915A05807F826080935A0580915B05C6
:1056B0008078856780935B05EEE1F5E08FEF81935D
:1056C00025E0EA35F207D9F7E6EDF4E08EE195E062
:1056D0002FEF21938E179F07E1F783E190E00E945F
:1056E000EE306093AD027093AE028093AF02909360
:1056F000B0020E941F12882341F080913901882353
:1057000021F080E490E00E94F61088EB9CE09093FA
:105710003A038093390321E040E060E080E00E949A
:1057200094138AE391E09093B4048093B30470E4FB
:10573000272EE4E06E2E712C8091C90400E112E165
:10574000853009F402C10E94C4155AECA52E52E01E
:10575000B52E61EB862E62E0962E42EE52E0D40129
:10576000F501219131918D919D914E175F0709F4BB
:10577000F6C028173907A9F30E941F12382E512CA2
:10578000D4010D911D914D01F501C190D1905F01A2
:10579000C016D10669F1C026D126412CEE24E3942F
:1057A000F12CC7018C219D21892BC1F03320B1F050
:1057B00049825A8221E0C70180239123892B09F471
:1057C00020E02B830E94B70A8160782F9D838C8311
:1057D00049815A816B818D810E94D3264394EE0CBE
:1057E000FF1CFAE04F12DDCFF501329711830083E1
:1057F00053942CE05212C4CF0E94AB0AB6C084E38B
:105800008093E80286E38093E7022091E802E22F8A
:10581000E295EF70F0E0BF016F5D7F4F2F7081E088
:1058200090E0AC0101C0440F2A95EAF7542F242FD1
:1058300020957F0142E2E40EF11C4091E702A42F83
:10584000A295AF70B0E08D010F5D1F4F4F7001C08A
:10585000880F4A95EAF7482F8095929690E010C0FD
:10586000FB01908192239083F7019081952B908387
:10587000F8019081982390839C91942B9C9391E0C4
:10588000931770F331CEDA012D91AD01822F8295FD
:105890008F7090E0DC0190968C9190E02F7002C0A8
:1058A000959587952A95E2F78170D7019D917D01A5
:1058B000292F22952F7030E0D90190962C9130E05D
:1058C0009F7002C0359527959A95E2F790E020FDEC
:1058D00092E0892B819319CE8091C904843019F10B
:1058E0001092B70448E150E00FB6F894A8954093A1
:1058F00060000FBE2092600083B7817F846083BF09
:1059000083B7816083BF7894889583B78E7F83BF88
:105910000FB6F894A895809160008861809360002C
:10592000109260000FBE8091C804882371F00E941D
:10593000C415E1EBF2E081919191892B09F0F0C15E
:1059400089EC92E08E179F07B1F78091C9048530EA
:1059500009F4C2CF0E9483170E944412F4CE281784
:10596000390709F009CF0E94F8270E941F12E12C85
:10597000D12C8091E502E81608F492C0D1100E9463
:105980000110E0917E05F0917F05309719F08EE5CA
:1059900095E009959FB7F8940091470680914606D7
:1059A000081708F4FCC0081B9FBFF12CE12C10E085
:1059B00083E0A82EB12CCC24C394D12C24E0422E19
:1059C00055245394E016F10608F4EDC08091EA02E4
:1059D0009091EB020E949C0A20915C0526952695E9
:1059E00026952F702817190609F060F50E94B70A4E
:1059F0009093EB028093EA028091EC02882311F1EC
:105A000090915B05991F9927991F80915C0587707C
:105A1000880F4091ED0261E0892B0E94200880915F
:105A2000EC029091ED0287FF73C1A82FBB27A195CF
:105A30000CF4B0959A171B060CF06AC11092ED0297
:105A40001092EC020E9444129091E902891721F011
:105A50008093E9020E94AB0A8091C904843009F066
:105A60006BCE809143018F708093E9009091E800A4
:105A700090FF62CE9091C904943009F05DCE80937E
:105A8000E9009091F3008091F200892B09F454CE43
:105A90008091E8008E778093E8000E9433094CCE15
:105AA0000E2D10E0F801E851FD4F8081E82FE295BE
:105AB000EF70F0E0E0A1F0E08F7002C0F595E7959F
:105AC0008A95E2F7E170D801A951BD4F2C91A22F20
:105AD000A295AF70B0E090968C9190E02F7002C0CC
