:100000000C9403030C944A030C944A030C946F2A37
:100010000C944A030C944A030C944A030C944A032C
:100020000C944A030C944A030C94DD210C949921FE
:100030000C94DA220C944A030C944A030C944A035D
:100040000C944A030C944A030C944A030C944A03FC
:100050000C944A030C94B6220C944A030C944A0361
:100060000C944A030C944A030C944A030C944A03DC
:100070000C944A030C944A030C944A030C944A03CC
:100080000C944A030C944A030C944A030C944A03BC
:100090000C944A030C944A030C944A030C944A03AC
:1000A0000C944A030C944A030C944A030501090278
:1000B000A10185020901A1000509190129081500FE
:1000C0002501950875018102050109300931158165
:1000D000257F95027508810609381581257F9501D0
:1000E00075088106050C0A38021581257F95017572
:1000F000088106C0C005010980A101850319012AF4
:10010000B700150126B700950175108100C0050CD8
:100110000901A101850419012AA002150126A002E6
:10012000950175108100C00660FF0961A101096297
:10013000150026FF00952075088102096315002629
:10014000FF00952075089102C005010906A101056F
:100150000719E029E7150025019508750181029529
:1001600001750881010507190029FF150026FF0008
:100170009506750881000508190129059505750181
:100180009102950175039101C0000000000000007C
:10019000000000000000000000000000000000005F
:1001A000000000000000000000000000007E0F00C2
:1001B000D4FFFFFFC700000078000000000000002F
:1001C000002A2B28000000000000000000000000B2
:1001D0000000000029000000002C1E3420212224F1
:1001E000342627252E362D3738271E1F202122237F
:1001F0002425263333362E37381F04050607080911
:100200000A0B0C0D0E0F10111213141516171819D6
:100210001A1B1C1D2F3130232D3504050607080934
:100220000A0B0C0D0E0F10111213141516171819B6
:100230001A1B1C1D2F3130354CA65DB25DBE5DCA48
:100240005DD65DAB5DB75DC35DCF5DDB5DAD5DB9BB
:100250005DC55DD15DDD5DB05DBC5DC85DD45DE05B
:100260005DA85DB45DC05DCC5DD85DA95DB55DC1C7
:100270005DCD5DD95DAF5DBB5DC75DD35DDF5DAE5F
:100280005DBA5DC65DD25DDE5DAA5DB65DC25DCE66
:100290005DDA5DA75DB35DBF5DCB5DD75DA55DB18B
:1002A0005DBD5DC95DD55DAC5DB85DC45DD05DDC37
:1002B0005D4F5C525C555C585C5B5C5E5C615C00F5
:1002C00000AA00A9004E5C515C545C575C5A5C5D0E
:1002D0005C605C0000000000004D5C505C535C56AC
:1002E0005C595C5C5C5F5C0000000000000000A8E2
:1002F00042705C6D5C6A5C675C645C0000000000DE
:10030000000000725C6F5C6C5C695C665C635C0046
:1003100000000000000000715C6E5C6B5C685C6556
:100320005C625C000000000000165C2B003900E1FC
:1003300000E0002A004C002800E500E4001E001444
:100340000004001D00E3002700130033003800E71D
:10035000001F001A0016001B00E200260012000F0A
:10036000003700E600200008000700060091002585
:10037000000C000E00360090002100150009001945
:10038000002C00240018000D0010002C0022001783
:10039000000A0005002C0023001C000B0011002C9B
:1003A0000014001A000800150017001C00180000B7
:1003B0000001000100E00004001600070009000A27
:1003C000000B00000000000000165CE2001D001B96
:1003D00000060019000500000000000000000001F8
:1003E000002A002D00130012000C00000000000085
:1003F0000000002800340033000F000E000D000044
:1004000000000000000000E5002C0037003600105E
:100410000011000000000000000052015200000026
:1004200000000000000000000000000000000000CC
:1004300000000000000000000000000000000000BC
:1004400000000000000000000000000000000000AC
:10045000000000000000000000000000000000009C
:10046000000000000000000000000000000000008C
:10047000000000000000000000000000000000007C
:10048000000000000000000000000000000000006C
:10049000000000000000000000000000000000005C
:1004A00000000000000052000000000000000000FA
:1004B00000000000000000000001000152000000E8
:1004C000000000000000000000000000000000012B
:1004D000000000000000000000000000000000001C
:1004E000000000000000000000000000000000000C
:1004F00000000000000000000000000000000000FC
:100500000000000000000000000902BF000501001B
:10051000A0FA0904000001030101000921110100F2
:10052000012240000705810308000A0904010002B6
:1005300003000000092111010001222200070582A9
:100540000320000107050303200001090402000144
:1005500003000000092111010001227B000705842E
:100560000320000A080B0302010100000904030034
:10057000000101000009240100010900010409042F
:1005800004000201030000072401000141000624C9
:1005900002010100062402020200092403010301F2
:1005A00002010009240302040101010009050602F9
:1005B00040000500000525010101090585024000F4
:1005C00005000005250101031201000200000008DA
:1005D000EDFEB0F40100010200011603670069009E
:1005E0006100620061006C0061006E0061006900E2
:1005F00000000E03330061007200610068007400A7
:1006000000000403090411241FBECFEFDAE0DEBFAF
:10061000CDBF04B603FE27C080918D0490918E0457
:10062000A0918F04B09190048730904BA740B04BBD
:10063000D1F410928D0410928E0410928F041092B7
:10064000900414BE84B7877F84BF0FB6F894A89532
:1006500080916000886180936000109260000FBEFE
:10066000E0E0F8E3099511E0A0E0B1E0EEE5F9E59E
:1006700002C005900D92A83DB107D9F724E0A8ED7E
:10068000B1E001C01D92AD38B207E1F70E9401232D
:100690000C94762C0C9400000F93262F2F778F70DC
:1006A0008068E091A003F091A103042F482F63E03C
:1006B00070E080EA93E009950F9108950F93262F3B
:1006C0002F778F708069E091A003F091A103042F30
:1006D000482F63E070E080EA93E009950F91089558
:1006E000AF92BF92CF92EF920F931F93CF93DF936E
:1006F000182FD0919D03DF7750E0CA01805A9C4F9C
:100700005C01FC01C081FB018281882369F1CF3F3C
:1007100011F5C0919C039C2F9F70C595C595C595FB
:10072000C595CF52FCE09F9FC00D1124C20F602FD2
:100730006C0F4D2F812F0E945E036E2D6C0F4D2F7D
:10074000812F0E945E036C2D6C0F4D2F812F0E9414
:100750005E03F501C083DF91CF911F910F91EF9060
:10076000CF90BF90AF900895CF3F91F0602F6C0F66
:100770004D2F812F0E944C036E2D6C0F4D2F812F1A
:100780000E944C036C2D6C0F4D2F812F0E944C0347
:100790008FEFF5018083DFCF0F931F939B01305EB6
:1007A0008901000F012F001F110B11952F77482F82
:1007B000406EE091A003F091A10363E070E080EA55
:1007C00093E009951F910F9108950F93262F042F01
:1007D0000F77482F406BE091A003F091A10363E0F5
:1007E00070E080EA93E009950F910895CF92DF922F
:1007F000EF92FF920F931F93CF93DF9300D00F924E
:10080000CDB7DEB77C01162FD42EC22E8091C50342
:100810008430B9F5E091BA03F091BB03309709F445
:1008200040C0C701019763E070E00E94E92BCB0153
:10083000880F991F860F971F19834A83CB824E2DED
:10084000481B9E012F5F3F4FBC0180EA93E0099552
:10085000E091BE03F091BF03309739F00C2D2D2DA0
:10086000412FB70180EA93E009950F900F900F9008
:10087000DF91CF911F910F91FF90EF90DF90CF907C
:10088000089582E0E816F10409F45AC083E0E816FE
:10089000F104A9F081E0E816F10409F484C0F12C18
:1008A000E12CE091BC03F091BD03309789F20C2D4F
:1008B0002D2D412FB70180EA93E00995C9CF862FEE
:1008C000807F803A11F188F48038D1F0E091A40360
:1008D000F091A503803929F7309719F3123F49F1B8
:1008E0002C2D4D2D612F6F7027C0803E99F0803FD9
:1008F000B1F0E091A203F091A303803B91F6ECCF1D
:10090000E091A603F091A703E7CFE091A803F0914F
:10091000A903E2CFE091AA03F091AB03DDCF623FE0
:1009200009F0BFCFE091AC03F091AD03309709F42B
:10093000B8CF2C2D4D2D62EF80EA93E0099588CF3A
:10094000862F807F803DB9F0803FD1F0E091AE03EB
:10095000F091AF03803C09F0A4CF309709F4A1CF08
:10096000812F8D7F4D2D612F6F70813FC9F080EAFF
:1009700093E009956DCFE091B003F091B103EDCF15
:10098000E091B203F091B303633F39F0613F09F0A6
:1009900088CFE091B403F091B503309709F481CF8B
:1009A0004D2D612FE4CFE091B603F091B703683F7E
:1009B00038F4663F09F075CFE091B803F091B903C0
:1009C000309709F46ECF612F80EA93E0099540CF0C
:1009D000E8EDF0E080818E7F80831092E20010923B
:1009E000DA001092E100A0EEB0E08C9181608C936F
:1009F00080818F77808319BCA7EDB0E08C918E7FCA
:100A00008C9380818F7E808310924503089520917E
:100A1000E4003091E50095E6A9012091EC00822FD9
:100A2000817020FF06C08091E80080FF06C080E052
:100A300008952091E80022FD1AC080915203882376
:100A400089F0853089F08091EB0085FD0FC0209101
:100A5000E4003091E50042175307F9F29150E1F6B6
:100A600084E0089582E0089583E0089581E0089588
:100A7000EF92FF920F931F93CF937C018B010E9403
:100A80000705C82F811117C08091E80085FD0BC0B4
:100A90008091E8008E778093E8000E940705882304
:100AA00099F3C82F08C0F70181917F018093F1006D
:100AB0000150110949F78C2FCF911F910F91FF9091
:100AC000EF900895EF92FF920F931F93CF937C01C5
:100AD0008B010E940705C82F811117C08091E80083
:100AE00085FD0BC08091E8008B778093E8000E9421
:100AF0000705882399F3C82F08C08091F100F701FA
:100B000081937F010150110949F78C2FCF911F91DB
:100B10000F91FF90EF9008958091540387FF13C0C9
:100B20008091E80082FF06C08091E8008B77809377
:100B3000E80004C0809152038111F2CF08958091A2
:100B400052038823D9F38091E80080FFF8CF809189
:100B5000E8008E77ECCF982F9093E900242F762F22
:100B600050E0891731F07091EC002091ED00509128
:100B7000F00021FD07C09F5F973071F78093E90077
:100B800081E008953091EB003E7F3093EB0030918F
:100B9000ED003D7F3093ED003091EB0031603093FC
:100BA000EB007093EC002093ED005093F000209147
:100BB000EE0027FDE0CF80E00895CF92DF92EF9224
:100BC000FF920F931F93CF93DF93C8EDD0E08881FE
:100BD0008F7E8883E7EDF0E080818160808384E010
:100BE00082BF81E08093450388818E7F888302EEF7
:100BF00010E0F80110821092DA0081EEC82ED12C9C
:100C0000F601108288818F77888388818068888345
:100C100088818F7D888319BC1092520310925303F0
:100C2000109251031092500390EEE92EF12CF7012F
:100C300080818B7F808388818160888342E060E04F
:100C400080E00E94AB05F60180818E7F8083F801F1
:100C5000808181608083808188608083F7018081CA
:100C60008E7F8083888180618883DF91CF911F91FF
:100C70000F91FF90EF90DF90CF900895FC0180914D
:100C80005A0390915B0386179707A0F061157105D1
:100C900029F49091E8009E779093E80090E0611528
:100CA000710551F4911108C08091E80082FF34C0B1
:100CB00080E00895BC01F2CF809152038823C1F1F6
:100CC0008530C1F18091E80083FD30C08091E8005B
:100CD00082FDEACF8091E80080FFE1CF8091F300B0
:100CE0002091F200382F6115710519F02830310577
:100CF00058F091E02830310509F090E02091E800AB
:100D00002E772093E800CBCF81918093F100615042
:100D100071092F5F3F4FE7CF80915203882341F045
:100D2000853041F08091E80083FFBECF81E00895D7
:100D300082E0089583E0089508958091470308951F
:100D400008950895982F907F903BE9F040F49039F2
:100D5000D1F0903AC1F09038B1F080E00895903D24
:100D600019F020F4903CC9F782E00895903E59F0C4
:100D7000903F99F7815F8F3080F7E82FF0E0E754DC
:100D8000FE4F8081089583E00895FF920F931F9393
:100D9000CF93DF9300D000D000D00F92CDB7DEB755
:100DA0008C0108511F4F80915203843009F06CC0B0
:100DB00080915D018F708093E9008091E80082FF4F
:100DC00063C08091E80085FF5FC050E040E064E0D0
:100DD00070E0CE0101960E9462058091E80085FDD9
:100DE00005C08091E8008B778093E800FA808F2D12
:100DF0000E94A206282FFD828B818E838C818F8397
:100E000021110AC08981843039F1873029F1863077
:100E100029F121E0853039F630E0E5E0F0E0EC0F33
:100E2000FD1FE30FF11DF0804FB7F894D801119624
:100E3000EC911197F0E0CF01019612966C9170E061
:100E40000E94FD2BD8015C915817190649F44FBF39
:100E50003F5F321710F3A7CF23E0DECF22E0DCCFD5
:100E600013968D919C911497E80FF91FF0821196BB
:100E70008C91119790E0019612966C9170E00E940F
:100E8000FD2BF8018183E3CF27960FB6F894DEBFE0
:100E90000FBECDBFDF91CF911F910F91FF900895AD
:100EA000DF92EF92FF920F931F93CF93DF9300D0C7
:100EB00000D0CDB7DEB77B01142FD22E4A832B830F
:100EC0000C83842F0E94A206811141C082E0E816A3
:100ED000F104C1F183E0E816F10439F0EA94EF2857
:100EE00029F5173F29F485E004C087E0073F09F0A2
:100EF00084E08983809152038430C1F48091580149
:100F00008F708093E90050E040E064E070E0CE0133
:100F100001960E943805811109C08091E80085FD85
:100F200005C08091E8008E778093E8000F900F90C5
:100F30000F900F90DF91CF911F910F91FF90EF9045
:100F4000DF90089587EFD812D3CF86E0D2CF1295E5
:100F50001F701983CFCF87E797E79093010880939D
:100F6000000888E19AE00FB6F894A8958093600095
:100F70000FBE90936000FFCF9C014FB7F894809113
:100F80003E0390913F03A0914003B09141034FBFB6
:100F9000821B930B08952FB7F89460913E037091D4
:100FA0003F0380914003909141032FBF08952FB7D5
:100FB000F89480913E0390913F03A0914003B0913B
:100FC00041032FBF08959C01FC0132969FEF80E002
:100FD0004191461751F09F3F19F4411101C0982FDC
:100FE0008F5F8630A9F79F3F09F40895290F311DBF
:100FF00097FD3A95F9016283089520913B03309162
:101000003C032817390771F090933C0380933B030E
:10101000E0913903F0913A03309721F00084F18593
:10102000E02D099408952091370330913803281753
:10103000390771F09093380380933703E0913903B7
:10104000F0913A03309721F00680F781E02D099462
:101050000895FC01680F791F8FEF91E3219182279A
:1010600028E030E087FF09C0880F89272150310927
:10107000C9F7E617F70791F70895880FF7CF0E9491
:10108000D7079C019091330380913403982B21F072
:101090003093300320932F039091350380913603D2
:1010A000982B21F030932E0320932D03E0913903E8
:1010B000F0913A03309749F082E080933103048045
:1010C000F581E02D81E393E0099408954091330385
:1010D000803F59F48091340387FF0DC01092340390
:1010E00041110BC010922B0308C0813F81F4809105
:1010F000340318169CF3442381F0809135039091BA
:101100003603892B09F05AC010922A030895823FB2
:1011100049F447FFF0CF10923303809134038111DB
:10112000ECCFE0CF833F19F41416ACF3E4CF9091E9
:101130003503893F29F41916F4F610923503DBCFF5
:101140008A3F19F497FFD7CFF8CF909136038B3FA2
:1011500029F497FFD0CF10923603CDCF8C3F19F4EE
:101160001916CCF3C8CF9CE0980F953090F4845FAB
:10117000990B21E030E0B90102C0660F771F8A9514
:10118000E2F7CB018095909132038923809332035B
:10119000B2CF8D3F31F480912C038E7F80932C034E
:1011A000AACF8E3F21F480912C038D7FF7CF8F3F04
:1011B00009F0A1CF80912C038B7FF0CF089580910F
:1011C0002C0380FD16C081FD16C082FD16C08091E3
:1011D0002A038823A1F0883280F428E0829FC0018E
:1011E000112468E270E00E94FD2B862F672B39F0F6
:1011F000089582E0089584E0089588E0089581E0EC
:10120000089580912C0380FD14C081FD14C082FDDF
:1012100016C080912B03882381F0843180F422E36F
:10122000829FC001112464E170E00E94FD2B862F93
:1012300008958CE0089589E1089585E0089582E39A
:101240000895803F31F40E94010981958093340311
:101250000895813F19F40E940109F8CF823F31F4CB
:101260000E9401098195809333030895833F19F407
:101270000E940109F8CF893F29F40E94DF0880937A
:10128000350308958A3F21F40E94DF088195F7CF46
:101290008B3F31F40E94DF088195809336030895D7
:1012A0008C3F19F40E94DF08F8CF9CE0980F95302E
:1012B00070F4845F990B21E030E001C0220F8A9521
:1012C000EAF780913203822B8093320308958D3F99
:1012D00031F480912C03816080932C0308958E3F1C
:1012E00021F480912C038260F7CF8F3FB9F7809172
:1012F0002C038460F1CF80E0089578940895F894E9
:10130000E82FE295EF70F0E031A1282F2F7081E0F7
:1013100090E001C0880F2A95EAF7982F90959323C3
:1013200091A392A1892B82A30C947D099091D20262
:1013300092FF06C0282F28712830F9F4877F846037
:1013400093FF06C0282F28712831F1F4877E84612D
:101350002091D30220FF06C0382F38713830D9F4DD
:10136000877F816021FF06C0282F28712831D1F4A2
:10137000877E816194FD877E0895282F2471243013
:10138000F9F68B7F8860DCCF282F2471243101F798
:101390008B7E8861DDCF382F3171313019F78E7F28
:1013A0008860E0CF282F2171213121F78E7E88615E
:1013B000E1CFCF93DF93EC018238910581F1B0F555
:1013C0008133910509F491C020F58932910509F422
:1013D00085C08A9709F490C0C11520E5D20708F0AE
:1013E000A7C0C11530E4D30708F0F6C0CF3BD10544
:1013F00008F089C0C83AD10508F0E1C0C53AD10566
:1014000008F0D5C0C430D105F8F4C130D105E1F001
:1014100040C08533910509F45AC0C997E9F6809117
:10142000D202837089F0C0EED0E00EC0833E9105F9
:1014300099F170F4803E910501F1823E910561F6CB
:101440008091D20282FD21C0CE01DF91CF9108951B
:10145000863E910561F1873E910571F1843E9105CB
:1014600009F0BACF8091D30281FFEECF8091D202F2
:10147000C7EED0E084FD0DC0E7CF8091D20280FDA1
:10148000FEC09091D30290FFDFCFC3EED0E084FF87
:10149000DBCFD0E0C0E0D8CF8091D20282FDF2C095
:1014A0009091D30290FDBFCF84FFCECFF2CF809139
:1014B000D20283FDDDCFC8CF8091D20283FDE5C08B
:1014C0009091D30291FFF0CFC4EED0E0BDCF8091D8
:1014D000D20285FFB9CFC9E2D0E0B6CF8091D20267
:1014E00085FFB2CFC5E3D0E0AFCF8091D20286FFB7
:1014F000ABCFCAE2D0E0A8CF8091D20286FFA4CFC2
:10150000C1E3D0E0A1CFCF3FD10509F058F4C03FEF
:10151000D10508F05FC0CE01815E9109079708F4FC
:1015200093CFB7CFC11540E2D40708F48DCFB1CF28
:10153000C11584E5D807A0F4C11593E5D90708F0D3
:101540007CC0C11522E5D20708F066C0C11531E59F
:10155000D30708F444C0DC2FCC27C16FD06A74CF06
:10156000C1154AE5D40778F4C11589E5D80708F014
:1015700078C0C11598E5D90708F48BCFDC2FCC27AC
:10158000C06FD06A61CFCE0190568115904208F0AD
:1015900080CF8D2F8F710E94960990E0982F882719
:1015A00088279F719C012C2BE901D0624DCFC55A31
:1015B000D0E0C259DE4FC881D0E0D06445CFC85AD0
:1015C000D0E0CC0FDD1FCF58DE4F0990D881C02D61
:1015D000D4643ACFD06538CFDF70D06A35CFCE0132
:1015E00064E0969587956A95E1F783702C2F269590
:1015F0002695237040E2249F90011124382B8C2FD4
:101600008370C1E0D0E002C0CC0FDD1F8A95E2F705
:10161000C22BD32BDC6818CFCE018370992721E031
:1016200030E002C0220F331F8A95E2F7C695C695B7
:1016300080E2C89FE0011124EBCFCE01837099278F
:1016400021E030E002C0220F331F8A95E2F7C695F1
:10165000C69590E2C99FE0011124C22BD32BDA6812
:10166000F3CE8C2F8F700E94960934E0D695C795E3
:101670003A95E1F7CF709C2FEC01D069E5CEC9E334
:10168000D0E0E2CEC2EED0E0DFCEC6EED0E0DCCEDF
:101690000C94CB0780914B0290914A02892B909138
:1016A0004902892B8093DA01E0913903F0913A03E2
:1016B000309731F00280F381E02D8AED91E00994BA
:1016C00008958091480290911702981301C00895DF
:1016D0008F5F8770FACF2AE0929F800D1124982F98
:1016E000977086958695869523E0829FF001112458
:1016F000EC51FE4F50E040E080E0219130E0092EB7
:1017000002C0369527950A94E2F721703327042EFC
:1017100001C0220F0A94EAF7822B4F5F5F4F4330DC
:10172000510559F708952AE0929F800D1124982FB2
:10173000977041E001C0440F9A95EAF78695869527
:10174000869593E0899FF0011124EC51FE4F90E0C3
:1017500080E070E05191DF0111979B01082E02C0DB
:10176000369527950A94E2F72170219525272423A1
:1017700025272C9301968330910561F7089590E019
:1017800080E00E94130890E080E00E94FD07109224
:101790004A02109249020E944A0B86E0E1E3F3E01C
:1017A000DF011D928A95E9F710922B0310922A030C
:1017B00010922C030C943F0880935C030C94BF0B95
:1017C00080915C03982F9670963019F488600C9481
:1017D000DC0B877FFCCF21E030E001C0220F8A952F
:1017E000EAF7209580915C0382230C94DC0B21E0C6
:1017F00030E001C0220F8A95EAF780915C03822BCA
:101800000C94DC0B80934C020C94BF0B882341F0AA
:10181000809590914B02892380934B020C944A0B44
:101820000895882339F090914B02982B90934B02A6
:101830000C944A0B08958823F1F19CEF980F913A8C
:1018400078F4ECEDF1E022EE31E09191891303C0E0
:10185000DF0111971C922E173F07B9F70C944A0B22
:1018600090E2980F983088F4877021E030E0A90169
:1018700002C0440F551F8A95E2F7CA0180959091E6
:101880004B02892380934B02E9CF9BE5980F93305D
:1018900020F490E080E00C94130898E5980F9731BD
:1018A00020F490E080E00C94FD07803F20F00E943F
:1018B00066080C943F080895CF93C82F882309F435
:1018C00056C08CEF8C0F813AF8F4ECEDF1E082EE2B
:1018D00091E0DF012D91C21759F08A179B07D1F7CC
:1018E0006C2F8AED91E00E94E307CF910C944A0B94
:1018F0002191C21303C0DF0111971C928E179F071D
:10190000B9F70E944A0BECCF80E28C0F883068F464
:10191000C77021E030E001C0220FCA95EAF780913C
:101920004B02822B80934B02E0CFEBE5EC0FE330D0
:1019300040F4F0E0E259FE4F808190E0CF910C94AA
:101940001308E8E5EC0FE73150F4F0E0EE0FFF1F6D
:10195000EF58FE4F80819181CF910C94FD07C03FDD
:1019600030F08C2F0E942109CF910C943F08CF9129
:1019700008958093420370934403609343038091DE
:1019800052038430F9F48093E9008FEF9091E800DE
:10199000815095FD06C095ED9A95F1F700008111F3
:1019A000F5CF8091E80085FF0DC050E040E063E096
:1019B00070E082E493E00E9438058091E8008E7721
:1019C0008093E8000895BC0184E00C94B90CBC013C
:1019D00083E00C94B90C9C0184E08093E9009FEFB4
:1019E0008091E800915085FD06C085ED8A95F1F75C
:1019F00000009111F5CF8091E80085FF0CC050E008
:101A000040E066E070E0C9010E9438058091E8007E
:101A10008E778093E8000895CF93DF93EC0181E007
:101A20008093E9008FEF9091E800815095FD06C00A
:101A300095ED9A95F1F700008111F5CF8091E800BE
:101A400085FF14C050E040E068E070E0CE010E94E5
:101A500038058091E8008E778093E80088E0FE01E9
:101A6000A8E4B3E001900D928A95E1F7DF91CF9160
:101A700008959F92AF92BF92CF92DF92EF92FF9222
:101A80000F931F93CF93DF937C015B016A018091D9
:101A9000850201E010E08A3010F40AE010E0C1E0B5
:101AA000D0E0F894B501C701F6010995982E0E947F
:101AB0007D09911004C021960C171D076CF4892D27
:101AC000DF91CF911F910F91FF90EF90DF90CF901A
:101AD000BF90AF909F900895CC9F9001CD9F300D07
:101AE000300D112490E080E045E34A95F1F70000C5
:101AF000019682179307C1F7D4CF809159028111C3
:101B000010C08091D80080618093D8008AE18A95C6
:101B1000F1F700C08091D90080FF0AC081E0809376
:101B2000590281E090915902913009F080E00895C6
:101B300082E0809359020E94E80410925203F1CF90
:101B40000E947D0D882351F0E0913903F0913A0312
:101B5000309721F00190F081E02D099480E0089504
:101B60001F93CF93DF93182FCAE0D0E0893311F48D
:101B7000C0E5D0E0812F0E945C0C8FE99FE00197C7
:101B8000F1F700C000002197C1F7812FDF91CF91BD
:101B90001F910C941B0C0F931F93CF93DF93C62FB1
:101BA000D42F022FFC0182818823A1F060935F0370
:101BB0000E94D70790935E0380935D03C77081E016
:101BC00001C0880FCA95EAF7DF91CF911F910F915D
:101BD0000C94110C80915F03681335C080915D03F4
:101BE00090915E030E94BC07883C910560F510E26D
:101BF0001D0FCD17B9F080E28C0F883040F4C7700C
:101C000081E001C0880FCA95EAF70E94060C1830DF
:101C100048F481E09D2F977001C0880F9A95EAF7EC
:101C20000E94110C802F0E94B00D183098F4D770CC
:101C300081E001C0880FDA95EAF7DF91CF911F911B
:101C40000F910C94060CC77081E001C0880FCA95F3
:101C5000EAF7F3CFDF91CF911F910F910895CF93C2
:101C6000DF93C7EFD2E060E0CE010E94422C2196C4
:101C7000C11584E0D807B9F7DF91CF9108956F922D
:101C80007F928F929F92AF92BF92CF92DF92EF920C
:101C9000FF920F931F93CF93DF9389E3C82E82E0C7
:101CA000D82E9BE2E92EFF24F394E701C05FD1090F
:101CB00036011BC0F50185909490692DC8010E94E2
:101CC000422C682DC80101960E94422C82E0A80E89
:101CD000B11C0E5F1F4FC017D10761F784E1680E7A
:101CE000711C6496CE15DF0529F08E01045111098F
:101CF0005301E0CF7E0180EFE80EF11C80EFC80EAB
:101D0000D11C8BEFE81683E0F80679F6DF91CF91CE
:101D10001F910F91FF90EF90DF90CF90BF90AF9009
:101D20009F908F907F906F900895CF93C82F6FEF03
:101D3000811161E283E290E00E94422C6FEFC111B9
:101D400062E184E290E00E94422C6FEFC11165E2F3
:101D500085E290E0CF910C94422C80E00E94950E99
:101D600060E086E290E00E94422C0E943F0E0E94BA
:101D70002F0E81E00C94950E0F931F93CF93DF935A
:101D8000C42FD0E0CC0FDD1F24E1629FC00DD11D18
:101D9000112430EF839FC00DD11D1124CE018796F1
:101DA0000E94342C082F10E0102F0027CE018896B7
:101DB0000E94342C9801282BC901DF91CF911F91EB
:101DC0000F910895462F833038F47C3028F46A3020
:101DD00018F4672F0C94BC0E90E080E00895CF9229
:101DE000DF92FF920F931F93CF93DF936C010091CB
:101DF0005C0380914C02082BC7E0D0E010E0FC2E81
:101E0000C8010C2E02C0959587950A94E2F780FDD3
:101E10000CC02197A0F7F12C8F2DDF91CF911F914E
:101E20000F91FF90DF90CF900895B6018C2F0E9404
:101E3000E20E0E94D909019761F3EECFCF93DF93B1
:101E4000EC010E94EF0EBE010E94E20EDF91CF91E5
:101E50000C94D909FC01808191810E941E0F292FC9
:101E60002F7092959F7092509E3078F4E92FF0E099
:101E7000E858F34D0C94112C803F19F020F4883E63
:101E800020F481E00895843FE1F380E00895883EE6
:101E9000C0F3813FD1F7F5CF822F86958695869541
:101EA000089583E290E00E94342C813289F484E228
:101EB00090E00E94342C823159F485E290E00E9437
:101EC000342C91E0853209F090E0892F81700895DB
:101ED00080E0FCCFCF9384E090E00E94342CC82FA8
:101EE00082E290E00E94342C982F8C2FCF9108959D
:101EF00010924B02ECEDF1E086E0DF011D928A9535
:101F0000E9F70C94BF0B1F93CF93DF93CDB7DEB7E8
:101F1000AA970FB6F894DEBF0FBECDBF84E593E05D
:101F20002091F100DC012D93CD01B3E08C359B07AE
:101F3000B9F780915503833009F472C0B8F4813049
:101F400009F449C0823009F4B3C08091E80083FFEE
:101F500096C280915403909155039A3008F08FC235
:101F6000E92FF0E0EA57F34D0C94112C8A3009F474
:101F70008EC08B3009F471C0893039F780915403D9
:101F8000813219F78091580390915903009711F00D
:101F90000297D9F68091E800877F8093E8008091CE
:101FA000E80082FF38C09091F3008091F200029720
:101FB00031F48091F100813011F0863021F480916C
:101FC000F100809347038091E8008B778093E800CD
:101FD0000E948C05BACF80915403813A09F0B5CFA5
:101FE0008091E800877F8093E8008091580390916A
:101FF0005903892B61F468E088E493E070E00E9463
:102000003E068091E8008B778093E8009ECF60E0E9
:1020100090E080E0F3CF809152038111C0CF95CF43
:1020200080915403813A09F090CF809158039091A8
:102030005903892B09F089CF8091E800877F80932D
:10204000E8008091E80080FFFCCF809163018093DD
:10205000F1008091E8008E77B9CF809154038132EE
:1020600009F073CF8091580390915903892B09F09F
:102070006CCF8091E800877F8093E8000E948C05F8
:1020800080915603809363010E94780F5ECF809108
:102090005403813209F059CF8091E800877F809303
:1020A000E8000E948C0580915703809346034DCF32
:1020B00080915403813A09F048CF8091E800877FEE
:1020C0008093E8008091E80080FFFCCF8091460378
:1020D000BECF803899F0823809F0D1C18091580381
:1020E0008F70873008F0CBC18093E9008091EB00BE
:1020F00085FB882780F91092E90006C08091500383
:1021000090915103911182609091E800977F909394
:10211000E8008093F1001092F1008091E8008E7742
:10212000AAC1882309F498C1823009F0A8C180911E
:10213000560381119BC1809158038F702FEF280F98
:10214000263008F09CC18093E9002091EB0020FF2D
:102150008DC1933031F48091EB0080628093EB006D
:1021600085C19091EB0090619093EB0021E030E00D
:1021700001C0220F8A95EAF72093EA001092EA0044
:102180008091EB008860EACF811179C110915603EC
:102190001F778091E3008078812B8093E30080910A
:1021A000E800877F8093E8000E948C058091E8001A
:1021B00080FFFCCF8091E30080688093E30082E0A1
:1021C000111183E0809352035AC18058823008F085
:1021D00056C120915603309157032C3DE3E03E0752
:1021E000A1F583E08A838AE289834FB7F894DE0100
:1021F000139620E03EE051E2E32FF0E050935700C9
:10220000E49120FF03C0E295EF703F5FEF708E2FE7
:1022100090E0EA30C0F0C7968D939D932F5F2431F4
:1022200059F74FBF8091E800877F8093E8006AE20A
:1022300070E0CE0101960E943E068091E8008B7707
:102240008093E8001CC1C096E7CF8091580390911D
:102250005903432F55274330510509F44AC078F5F7
:102260004130510509F47AC08FEB90E0E9E0F5E0E8
:102270004230510509F003C12091E800277F2093E7
:10228000E80020915A0330915B038217930708F40A
:102290009C0140E02115310509F065C0411163C082
:1022A0008091E80082FDC9CF80915203882329F2F2
:1022B000853019F28091E80083FFF2CFBECF413222
:1022C000510509F43CC04232510509F0D8C08330B1
:1022D000910508F0D4C0FC01EE0FFF1FE553FE4F3F
:1022E0000190F081E02D88539E4FDC018C9190E0AD
:1022F0001AC0332721303105D1F02115310561F0A5
:102300002230310509F0BBC0EAEDF5E0E4918E2FF3
:1023100090E0EAEDF5E007C0E2E0F6E0E4918E2F10
:1023200090E0E2E0F6E0009709F4A9C0A5CFE2EF63
:10233000F5E0E4918E2F90E0E2EFF5E0F4CF83300A
:10234000910508F09CC0880F991FFC01EF52FE4FC9
:102350000190F081E02D89E090E08ECF82E190E065
:10236000E8ECF5E089CF80915203882309F465CF2A
:10237000853009F462CF8091E80083FD5ECF8091C3
:10238000E80082FD8DCF8091E80080FF83CF90919F
:10239000F3008091F2002115310519F08830910584
:1023A00050F041E0089709F040E08091E8008E7716
:1023B0008093E8006FCF44914093F1003196215013
:1023C00031090196E8CF803809F059C08091E800C2
:1023D000877F8093E800809153038093F1009DCE26
:1023E00081114DC010915603123008F048C0809101
:1023F000E800877F8093E800109353030E948C05C8
:10240000112311F084E005C08091E30087FDFACF2D
:1024100081E08093520342E061EC81E00E94AB05D1
:1024200042E261EC84E00E94AB0542E261EC82E0B2
:102430000E94AB0542E260EC83E00E94AB0542E300
:1024400061E885E00E94AB0542E361E886E00E9416
:10245000AB058091520313C080915603813079F40B
:1024600081E0933009F080E0809351031092E900FD
:102470008091E800877F8093E8000E948C0580911E
:10248000E80083FF0AC08091E800877F8093E8001E
:102490008091EB0080628093EB00AA960FB6F894CF
:1024A000DEBF0FBECDBFDF91CF911F9108950F9377
:1024B0001F93CF93DF9300D000D0CDB7DEB740910C
:1024C00081025091820260918302709184022FB741
:1024D000F89480913E0390913F03A0914003B09106
:1024E00041032FBF841B950BA60BB70B84369105B8
:1024F000A105B10588F10E947D0D882379F10E9424
:10250000CB076E5F7F4F8F4F9F4F69837A838B839B
:102510009C8380912B0190912C0182599D4F409179
:102520002A0150E04530510510F044E050E0BE0172
:102530006F5F7F4F0E942B2C84E090E00E94352B30
:10254000892BD9F40E94CB07609381027093820299
:10255000809383029093840281E010C00E94CB0795
:102560000091CE021091CF022091D0023091D10281
:10257000600F711F821F931FC4CF80E00F900F90D8
:102580000F900F90DF91CF911F910F9108956F924F
:102590007F928F929F92AF92BF92CF92DF92EF92F3
:1025A000FF920F931F93CF93DF930F92CDB7DEB7B8
:1025B000862E5A016901682E880F7708C3010E9490
:1025C000352B892B09F088C08AE0869DF001879D14
:1025D000F00D1124E050FF4F458150E041155105A9
:1025E00011F041E050E08AE0869DF001879DF00DFA
:1025F0001124E050FF4F6681778162597D4FCE01F3
:1026000001960E942B2CF5014081518162817381DA
:102610002FB7F89480913E0390913F03A09140031F
:10262000B09141032FBF841B950BA60BB70B8436CB
:102630009105A105B10540F4B701C8010E94290820
:102640009981891709F44FC0082C000C9908C4011E
:102650000E94352B892B91F0B12C8B2D0F90DF919F
:10266000CF911F910F91FF90EF90DF90CF90BF908F
:10267000AF909F908F907F906F9008958AE0889D93
:10268000F001899DF00D1124E050FF4F458150E08D
:10269000E416F50608F4A7018AE0889DF001899DFB
:1026A000F00D1124E050FF4F6681778162597D4F14
:1026B000C6010E942B2CB701C8010E9429089981EC
:1026C0008913CACF0E94CB07F5016083718382838F
:1026D0009383BB24B394C1CFB12CA701B801C60129
:1026E0000E942B2CBACFBB24B394F7CFCF92DF92AA
:1026F000EF92FF920F931F93CF93DF93CDB7DEB787
:102700002C970FB6F894DEBF0FBECDBF6B018CE0E7
:10271000E82EF12C0FE612E09E012F5F3F4F46E6B8
:1027200052E061E080E00E94C712882349F09CE0FB
:10273000FE013196AAE5B2E001900D929A95E1F77B
:102740009CE0EAE5F2E0D60101900D929A95E1F75E
:102750002C960FB6F894DEBF0FBECDBFDF91CF91A0
:102760001F910F91FF90EF90DF90CF90089569EE49
:102770007EEF90E080E00E94602C60E082E090E0DC
:102780000E94422C60E083E090E00E94422C109274
:102790004C0260E084E090E00E94422C60E082E223
:1027A00090E00E94422C60E085E090E00E94422C84
:1027B00060E086E090E00E94422C6FEF87E090E0BE
:1027C0000E94422C40E050E0BA0188E090E00E9474
:1027D000542C60E08DE090E00E94422C40E050E0FC
:1027E000BA0188E190E00E94542C60E087E190E01B
:1027F0000E94422C40E050E0BA018CE190E00E943F
:10280000542C70E060E080E290E00E94602C40E098
:1028100050E0BA0188E190E00E94542C80E00E94D0
:10282000950E0E94AD0E40E050E0BA018FE090E0BE
:102830000E94542C40E050E0BA0183E190E00C94F7
:10284000542C5F926F927F928F929F92AF92BF9221
:10285000CF92DF92EF92FF920F931F93CF93DF936C
:1028600000D000D00F92CDB7DEB74C01FC018381C0
:102870009481892B39F08081918189238F3F11F0D8
:102880000C949B1C0F900F900F900F900F90DF9166
:10289000CF911F910F91FF90EF90DF90CF90BF905D
:1028A000AF909F908F907F906F905F9008950E945F
:1028B000EF0E182F682F89819A810E94930B6981EE
:1028C0007A81812F0E94E20E5C01F40182818823CB
:1028D00011F40C948D1C950122513F452031310596
:1028E00008F0C2C78FEF93E00E94342C1EEE1A0D41
:1028F00007EFE02E02E0F02E8111C4CF111136C097
:102900001C821B8266246394BAE05B2E87010F5FF2
:102910001F4FC7010E94342C89831A82882309F42F
:10292000B1CF9FEF980F933080F58A83698232E0B0
:10293000E30EF11CC8010E94342C8B83882309F418
:10294000A1CFAE014F5F5F4F5A01F50120812223D5
:10295000E9F2213009F058C0918182819130B9F4B7
:10296000F2E0AF0EB11C0E94B00D18C0E114F4E00B
:10297000FF0609F487CFC7010E94342C811101C0E2
:1029800011502FEFE21AF20AB9CF7801DACF923064
:1029900049F422E0A20EB11C0E945C0C2FEFA21A97
:1029A000B20AD3CF933031F432E0A30EB11C0E94AF
:1029B0001B0CF4CF943021F04FEFA41AB40AEECFE1
:1029C00052E0A50EB11C30E020E0B5016F5F7F4FF3
:1029D000F50141818053990B8A30910550F02150C7
:1029E0003109E0F28FE99FE00197F1F700C00000A4
:1029F000F6CF529EF001539EF00D11249C012E0F34
:102A00003F1F842F5B01E1CFE22FF0E0E754FE4F40
:102A10007490822F86958695869590E0FC01E75507
:102A2000FE4F84902770912C022E02C095948794BB
:102A30000A94E2F7E1E08E229924FC01E756FE4F6A
:102A4000049110E0022E02C0159507950A94E2F752
:102A500001701127FC01E757FE4FC490D12C02C032
:102A6000D594C7942A95E2F7F1E0CF22DD248114B2
:102A7000910419F081EE0E945C0C0115110519F00A
:102A800086EE0E945C0C872D0E94B00D012B19F080
:102A900086EE0E941B0C892819F081EE0E941B0C07
:102AA000CD2809F47BCF8CE25ECF81E00E94F70B4A
:102AB00003C081E00E94EB0B0F900F900F900F90DE
:102AC0000F90DF91CF911F910F91FF90EF90DF90CA
:102AD000CF90BF90AF909F908F907F906F905F90BE
:102AE0000C94E00B82E0E2CFF5EDAF16FDE5BF06FA
:102AF00008F48BC021EEA2162DE5B20608F48EC0B4
:102B0000FEEAAF16FCE5BF0608F009C12EE9A216E1
:102B10002CE5B20608F0BAC230E9A3163CE5B306CC
:102B200008F09FC043E8A4164CE5B40608F05EC266
:102B300051E8A5165CE5B50608F079C087E7A81648
:102B40008CE5B80608F02FC29FE2A9169CE5B906ED
:102B500008F0F3C133EFA3163CE5B30609F467C3ED
:102B600008F074C158EDA5165CE5B50609F45BC321
:102B700089EDA8168CE5B80609F469C397EDA91686
:102B80009CE5B90609F070C126E241EE61EEC40190
:102B90000F900F900F900F900F90DF91CF911F919A
:102BA0000F91FF90EF90DF90CF90BF90AF909F90EC
:102BB0008F907F906F905F900C94CB0DFF1659F023
:102BC0004E2D6F2D80E00E944C036CE06F0D4E2D5A
:102BD00080E00E944C038FEFF801808391CFE7E003
:102BE000CE2EF4E0EF2E00E095012A563140B401DC
:102BF00080E00E94700384CF67E0C62E73E0E72E6A
:102C000000E0950126573140F2CF3AE0C32E57E05D
:102C1000E52E04E0950122583140E9CF96E0C92E17
:102C200023E0E22E00E095012E583140E0CFE1E8AC
:102C3000AE16ECE5BE0609F4C7C1F2E8AF16FCE536
:102C4000BF0609F087CFF4018281882309F41ACEE8
:102C500080919C03982F9F70993008F013CE9F5F4E
:102C6000BFC12CE9A2162CE5B206D0F532E9A316B5
:102C70003CE5B30608F0DCC140E9A4164CE5B40617
:102C800009F4C2C151E9A5165CE5B50609F062CFA9
:102C9000F4018281882309F4F5CD20919C03822FD1
:102CA000859585958595859586300CF0EBCD91E0E1
:102CB000980F9295907F9595959595959595392F27
:102CC0003295307F2F70232B20939C0318160CF025
:102CD000D9CD97FFD7CD8295807F922F9F7082C1EB
:102CE0008CE9A8168CE5B80609F4B6C19DE9A916C9
:102CF0009CE5B90609F02ECFF4018281882309F4FE
:102D0000C1CD80919D03982F9F779F3709F4BACD4D
:102D1000933708F0B9C1935F9F778078B3C1E4EB34
:102D2000AE16ECE5BE0609F420C208F03EC020EB6A
:102D3000A2162CE5B20609F4DDC1F8F44EEAA41699
:102D40004CE5B40609F4B7C15FEAA5165CE5B50623
:102D500009F000CFF4018281882309F493CD2091FA
:102D60009D03322F331F3327331F90919E03892FEA
:102D70008770880F832B8F5FB0C1F401228180910F
:102D80009D0390919E03F2EBAF16FCE5BF0609F49C
:102D9000E2C108F4D6C140E021114FE7881F88271F
:102DA000881F9770990F62E4B5C147EBA4164CE5F4
:102DB000B40609F4ECC1A0F485EBA8168CE5B806BE
:102DC00009F4D3C196EBA9169CE5B90609F0C2CE69
:102DD000F40182818111D9C18FEF8093F50252CD28
:102DE000E9EBAE16ECE5BE0609F409C208F4F1C140
:102DF0002AEBA2162CE5B20609F0ACCE80919D0319
:102E0000982F991F9927991F80919E038770880F8B
:102E1000892BF40192816FEF7FE1992309F400C2BD
:102E20000F900F900F900F900F90DF91CF911F9107
:102E30000F91FF90EF90DF90CF90BF90AF909F9059
:102E40008F907F906F905F900C94CC03E5EFAE165F
:102E5000ECE5BE0609F4F3C108F4EDC126EFA216B5
:102E60002CE5B20609F4EFC1F4018281882309F44C
:102E700075C510925F03F3E0AF16FDE5BF0608F0DD
:102E8000E9C12AEFA2162CE5B20638F495012250CA
:102E90003C452431310508F0E3C10E946A0F90934C
:102EA000D3028093D20240E1A4164CE5B40609F4A3
:102EB000D4C208F042C288E0A8168CE5B80609F42E
:102EC000BAC208F00EC2E4E0AE16ECE5BE0609F4A4
:102ED000A4C208F0F0C122E0A2162CE5B20609F463
:102EE00096C28091D202826033E0A3163CE5B3061D
:102EF00009F490C26091D2021091D30284E090E074
:102F00000E94422C612F82E290E00E94422C0F909E
:102F10000F900F900F900F90DF91CF911F910F9115
:102F2000FF90EF90DF90CF90BF90AF909F908F90E9
:102F30007F906F905F900C94780F40919D03942F39
:102F4000991F9927991F80919E038770880F892B5D
:102F50004F7701ED0A0D10E00A571D4FF80160810F
:102F6000F40192819923B9F06F3F09F08BCC9091D5
:102F70009C03292F2F7095959595959595959F5222
:102F8000FCE02F9F900D1124A90E6A2D0E945E0374
:102F9000F801A08277CC6F3F11F00E944C038FEFB5
:102FA000F80180836FCCF4018281882309F46ACC14
:102FB000F9E8AF0E2A2D2F70A22E80919C03807FFE
:102FC000A82AA0929C035ECCF4018281882309F494
:102FD00059CC80919C03982F9F7009F453CC915F3A
:102FE0009F70807F892B80939C034CCCF40182815D
:102FF000882309F447CCF7E7AF0EA29480EFA8220C
:1030000080919C038F70DCCFF4018281882309F4C6
:1030100039CC80919C03982F95959595959595958C
:103020009B3F0CF42FCC915F9295907F8F70DACFFD
:10303000F4018281882309F425CCFEE6AF0E8EE0F0
:10304000A89EA02C1124E894A7F880919D03807875
:10305000A82AA0929D0316CCF4018281882309F44A
:1030600011CC80919D03982F9F7709F40BCC807829
:103070009F3721F4856780939D0304CC9D30D8F35E
:103080009D509F77892BF7CF8F67F5CFF401828111
:10309000882309F4F7CBF2E6AF0E80919D03A0FAE6
:1030A00087F980939D038A2D8695877090919E0362
:1030B000987F892B8BC0F4018281882309F4E2CBAD
:1030C00020919D03322F331F3327331F90919E038E
:1030D000892F8770880F832B815F382F3F7080FB8B
:1030E00027F920939D03832F8695987F982B9093A3
:1030F0009E03C8CBF4018281882309F4C3CB90914D
:103100009D03991F9927991F80919E038770880FAF
:1031100040E06BE7892B0F900F900F900F900F906E
:10312000DF91CF911F910F91FF90EF90DF90CF90A3
:10313000BF90AF909F908F907F906F905F900C9416
:10314000E50340E021114FE7881F8827881F97700B
:10315000990F60E4DFCF40E021114FE7881F8827F7
:10316000881F9770990F61E4D5CFF401828140E008
:1031700081114FE790919D03991F9927991F809185
:103180009E038770880F63E4C5CF81E026CEF401EB
:103190008281882309F476CB90919E03292F26956E
:1031A000269526952F7081E0820F8F70880F880FEB
:1031B000880F9778892B80939E03982F987709F032
:1031C00061CB220F220F220F8778822B80939E03E0
:1031D00059CBF4018281882309F454CB80919E035A
:1031E000982F987709F44ECB982F969596959695AB
:1031F000915F9F70990F990F990F87785ACF80919F
:103200009D03982F991F9927991F80919E0387707E
:10321000880F892BF401928160E070EE911100CE4D
:1032200070E060E0FDCD27E245EE65EEB0CC26E231
:1032300041EE60EEACCC27E245EE64EEA8CC26E28F
:1032400041EE62EEA4CC27E245EE66EEA0CC28E289
:1032500041E0EBCF31E6A3163DE5B30609F41DCE00
:1032600026E1A2162CE5B20609F01EC180914B02A0
:103270008A7A91E009F490E09093E30169E2811188
:1032800065E38AED91E00E94E3070F900F900F90A5
:103290000F900F90DF91CF911F910F91FF90EF90C2
:1032A000DF90CF90BF90AF909F908F907F906F9066
:1032B0005F900C944A0B8091D202806146E0A41684
:1032C0004CE5B40609F4A6C08091D202886057E0AC
:1032D000A5165CE5B50608F49DC08091D202806217
:1032E00099C08CE0A8168CE5B80609F4AEC078F455
:1032F0008091D2028C60EAE0AE16ECE5BE0609F4DD
:1033000089C008F49CC08091D2028E7F83C08091D6
:10331000D202877F2EE0A2162CE5B20609F47AC00D
:103320008091D2028B7F3FE0A3163CE5B30608F400
:1033300071C08091D2028F7E6DC04CEFA4164CE517
:10334000B40609F486C0A0F584E1A8168CE5B80699
:1033500009F497C098F4E2E1AE16ECE5BE0609F474
:1033600080C08091D2028F7BF3E1AF16FCE5BF06EF
:1033700008F450C08091D202837F4CC02AEFA2167D
:103380002CE5B20609F44DC008F051C045E1A41681
:103390004CE5B40609F0AECD8091D20282FB9927AC
:1033A00090F921E0922790FB82F990FB83F932C0DB
:1033B000A1145DE5B50609F45AC0A0F48091D302CA
:1033C00083609EEFA9169CE5B90671F18091D30246
:1033D0008D7FEFEFAE16ECE5BE0630F18091D302A3
:1033E0008C7F22C0F2E0AF16FDE5BF0609F458C09D
:1033F00008F450C031E6A3163DE5B30609F07ACDD6
:103400009091D202892F8F7E94FF806103C08091BA
:10341000D20281608093D2026DCD8091D20284600D
:10342000F9CF8091D30281608093D30263CD8091E4
:10343000D3028260F9CF8091D2028064EBCF0E94E8
:10344000780F8091D2028068E5CF8091D2028D7F83
:10345000E1CF8091D3028E7FE7CF8091D2028F7D22
:10346000D9CF0E94780F8091D2028F77D3CF8091ED
:10347000D302982F909591708E7F892B90FB81F9C4
:10348000D3CF0E94780F9091D202892F97FB87F9B2
:103490008058C0CF61E08EE090E00E94422C2ACD9F
:1034A00060E0F9CF85E365C2882349F0A1144CE5BB
:1034B000B40671F15EEDA5165CE5B506B1F1F40157
:1034C00000811181882309F446C0C8010E94EF0ED3
:1034D000F82E682FC8010E94930BB8018F2D0E940F
:1034E000E20E0E94D909182FF82EF401228145819D
:1034F000342F32953F70892F82958F70A82EB12C72
:103500008C3008F060C0F501E057F34D0C94112C9D
:103510000E94780F8FEF94E3ECE081509040E04000
:10352000E1F700C000000E94AB070F900F900F90D2
:103530000F900F90DF91CF911F910F91FF90EF901F
:10354000DF90CF90BF90AF909F908F907F906F90C3
:103550005F900C94B713C8010E946B0BF82EBDCF7F
:10356000092F0F70907F11F00295007F812F222389
:10357000C9F0002369F090E2910F983010F011111A
:103580000BC080914B02082B00934B020E944A0B08
:10359000812F0E945C0C17C080914A02082B009377
:1035A0004A02F4CF0E941B0C002369F00095105EC4
:1035B000183010F0F11025C080914B0208230093C1
:1035C0004B020E944A0B98E0A91AB108E4E0AE163B
:1035D000B10408F057C90F900F900F900F900F9003
:1035E000DF91CF911F910F91FF90EF90DF90CF90DF
:1035F000BF90AF909F908F907F906F905F900C9452
:10360000A00D80914A02082300934A02DACF892F45
:103610008F70907F903211F08295807FF1E0FF12E1
:103620000CC0222329F0363070F60E94110CCBCF4B
:10363000353048F60E94060CC6CF222341F03323D2
:10364000A1F340FFA5CF4F70F4014583EECF3323A4
:1036500089F3193309F000C1FFEF27EE33E0F15091
:1036600020403040E1F700C00000812F0E941B0C79
:10367000AACF892F86958695837061F0813009F0F5
:10368000A2CF812F9370211102C090E080E00E94B0
:10369000FD0799CF812F9370211102C090E080E047
:1036A0000E94130890CF812F222329F00E94210924
:1036B0000E943F0888CF0E946608FACF892F837046
:1036C000A1F5211180CF812F829586958770880F73
:1036D000880F412F4F70082E01C0440F0A94EAF75B
:1036E000212F207114FF07C02FE030E001C0220F0E
:1036F0008A95EAF72095969596959370923081F089
:10370000822F842B933030F480914C02913029F039
:10371000242B82230E94020C56CF842B822BFACFBB
:10372000242B80914C028227F5CF8695222311F01D
:10373000892F8170882309F446CF812F8295869541
:103740008770880F880F412F4F70082E01C0440FDB
:103750000A94EAF7212F207114FF07C02FE030E010
:1037600001C0220F8A95EAF7209596959695937059
:10377000923081F0822F842B933030F480915C035F
:10378000913029F0242B82230E94DC0B1CCF842B48
:10379000822BFACF242B80915C038227F5CF092F4F
:1037A0000F70222329F0802F0E94F70B812F3DCF2D
:1037B000812F0E94060C802F0E94EB0B04CF812FDB
:1037C000E1EF1E1789F1E11750F0F0EF1F17B9F084
:1037D0002223B1F13111DCCE892F8F7129C042EF44
:1037E000141749F153EF1513F3CF80E0222361F250
:1037F0009F7181E001C0880F9A95EAF7C5CF222317
:1038000079F0353008F0DFCE292F2F7181E090E07C
:1038100001C0880F2A95EAF790915C038927B4CFFD
:10382000363008F0D0CEF0CF892F8F71222321F2CD
:103830000E94F70BC8CE892F8F712223C9F3BCCF0A
:10384000332379F0893341F48FEF97EEE3E0815031
:103850009040E040E1F707CF8FE39CE90197F1F753
:1038600002CF892F8F71A8CFF0E1AF16FFE5BF0619
:1038700009F41BC921E1A2162FE5B20609F432C9E9
:103880004BE54A0D39ECA3163DE5B30608F02CC90B
:103890005DEBA5165DE5B50608F0AEC995EAA9167B
:1038A0009DE5B90608F42CC9E1EBAE16EDE5BE06C0
:1038B00008F095C990919D03E92EE894E7F8042F4C
:1038C00010E0005A1C4FF801F080FFEF882309F444
:1038D00075C9FF1215C960919C03862F8F70F62E53
:1038E000F594F594F594F5942CE0829FF00C112456
:1038F000B5016A567140F60EA1EDDA2EDF0C4E2DA1
:103900006D2D80E00E945E036DED6F0D4E2D80E009
:103910000E945E03F801D082F3C830E1A3163FE5B0
:10392000B30609F4C6C841E1A4164FE5B40609F090
:10393000A7CF82E0BFC885E0DE01119601900D920D
:103940008A95E1F7F401228189819A8121110C94F1
:1039500057140E946B0B182F0C945F14F6E1AF16EE
:10396000FCE5BF0609F0ABCD8091E30181119ACD52
:1039700089E2ECEDF1E022EE31E09191891303C090
:10398000DF0111971C922E173F07B9F77ECC1F93CA
:10399000CF93DF9380911602807FA9F48091130268
:1039A000882389F080914802D0911702609111021A
:1039B00070911202A0911402B0911502C62FC72374
:1039C00016E0D81304C0DF91CF911F91089590E0C5
:1039D000109711F0CF3F19F401968770F2CF189F1E
:1039E0009001199F300D1124F901E85EFD4F4181CE
:1039F0004713F2CF40814613EFCF42814111ECCF04
:103A0000438154814A1B5B0B483C510528F7809148
:103A100016028F70806180931602F901E35EFD4FFC
:103A200080818F708061808381E192E00E94211407
:103A3000DF91CF911F910C94610BAF92BF92CF9207
:103A4000DF92EF92FF920F931F93CF93DF93CDB747
:103A5000DEB761970FB6F894DEBF0FBECDBF8C0105
:103A600085E0F801DE011D9601900D928A95E1F73F
:103A7000F801E28081E1A82E82E0B82E6091140264
:103A8000709115026115710509F432C1909111020E
:103A900040911202892F84238F3F09F429C120818C
:103AA0003181C380D480F0901302F601E61BF70B3E
:103AB000FF2009F4E8C080911602582F507FE83C9F
:103AC000F10508F0ABC0511177C0FE2C431321C0A3
:103AD00092131FC0E1101DC08F7080618093160289
:103AE000C5010E94211480911602F80185838F2D53
:103AF00061960FB6F894DEBF0FBECDBFDF91CF91B8
:103B00001F910F91FF90EF90DF90CF90BF90AF90FB
:103B10000895CD2829F0822F83238F3F09F003C118
:103B200080E0F82FF170DF2E80FF3CC080914802CA
:103B30004091170256E0841315C02D873E878D856E
:103B40009E850E941E0F292F22952F702230F0F0A3
:103B5000243018F59F70F1F0F8019581907FD1F431
:103B6000D12C1EC090E0589FF001599FF00D1124F8
:103B7000E85EFD4F6181361306C06081261303C0E5
:103B80006281E6120FC001968770D5CF9F7011F049
:103B9000882331F3805E883018F3C8010E94211415
:103BA000FD2CA5CFEE2009F4A2CF809116028160F2
:103BB00080931602F12C9BCF431306C0921304C0CE
:103BC000F801EE2009F479C0C8010E942A0F882369
:103BD00009F1EE20F9F080911602803270F0209108
:103BE00011023091120238872F831986DB86CA862C
:103BF0008C87CE0107960E94211486E0F801A1E18E
:103C0000B2E001900D928A95E1F70E94C71CFF2453
:103C1000F3946DCFC8010E942114F9CF51110AC04D
:103C200081E192E00E94211486E0F50111928A95CB
:103C3000E9F7C0CF43130FC092130DC0E1100BC0C2
:103C4000F8018583C8010E94211486E0F5011192D4
:103C50008A95E9F74CCFC8010E942A0F8823D1F238
:103C6000EE20C1F280911602803238F220911102CA
:103C7000309112023A8329831B82DD82CC828E83AB
:103C8000CE010196B8CFE83CF105F8F6FE2CEE2007
:103C900009F243131FC092131DC08091160280FDCC
:103CA00010C0982F907F69F0F8018583903F31F024
:103CB000982F907F905F8F70892B8583C8010E9419
:103CC000211486E0F801A1E1B2E001900D928A95FD
:103CD000E1F70DCFC8010E942A0F81118ECF80918C
:103CE0001602816080931602C8010E942114FFCE43
:103CF000EE2009F48FCFC8010E942A0FF82E8823E6
:103D000009F488CF86E0F801A1E1B2E001900D92BC
:103D10008A95E1F780911102909112020E941E0F84
:103D20000E94C71CE4CE81E08E25FBCE1F93CF936B
:103D3000DF93CDB7DEB767970FB6F894DEBF0FBE3F
:103D4000CDBF4B8B5C8B6D8B7E8B8F8B61111092FB
:103D50004A021A8A198A85E0FE017396DE011D96D1
:103D600001900D928A95E1F786E0FE013D96DE0115
:103D7000179601900D928A95E1F7CE0107960E9461
:103D80001D1D882389F016E080914802909117024A
:103D9000891349C067960FB6F894DEBF0FBECDBF3A
:103DA000DF91CF911F91089586E0FE013796DE01E5
:103DB000119601900D928A95E1F78A859B85892B52
:103DC00011F38F81988589238F3FE9F220911702A3
:103DD00030E0C90101968770992740914802481741
:103DE000190671F40E94780F10921702109248027F
:103DF00086E0E1E1F2E0DF011D928A95E9F7C3CFA9
:103E000096E0929FD001939FB00D1124A85EBD4F04
:103E1000FE01319601900D929A95E1F78093170279
:103E20000E94610BB0CF819FC0011124885E9D4F1D
:103E30000E941D1D882309F4ADCF8091480290E0B7
:103E4000019687709927809348029ECF8F929F9208
:103E5000AF92BF92CF92DF92EF92FF920F931F9398
:103E6000CF93DF93CDB7DEB7A9970FB6F894DEBF37
:103E70000FBECDBF8E010F5F1F4F88E1D8011D928D
:103E80008A95E9F77CE3E72E71E0F72E6801AA2412
:103E9000A394B12CF70181917F018F3F09F447C0B2
:103EA000F894E82FE295EF70F0E021A18F70A50162
:103EB00002C0440F551F8A95E2F7CA01922F982B32
:103EC00091A392A18095892382A30E947D0900C0BD
:103ED000E2E3F1E021E030E0912C812C41914F3F71
:103EE00009F47FC0A42FA295AF70B0E090968C919A
:103EF00090E04F7002C0959587954A95E2F780FD56
:103F000070C0C901882A992A220F331F51E0EC336F
:103F1000F50721F7F701319780818F3F11F00E945B
:103F20007F0980EA8A95F1F7D6018D929C92B2E0E2
:103F3000CB0ED11CE2E4EE16E1E0FE0609F0AACFBA
:103F400048E150E0B80184ED92E00E941E2C7C0113
:103F5000892B41F088E1F801A4EDB2E001900D92C7
:103F60008A95E1F71091ED02E114F104E9F181E0A5
:103F700080934F020E94D70790934E0280934D0288
:103F800080914D0290914E020E94BC07059790F0DF
:103F9000A4EDB2E0E12FF0E0EE0FFF1FEE5EFC4F6C
:103FA0008D919D918193919322E0A03EB207C1F73C
:103FB00010924F0281E090E0EF28D1F0A9960FB661
:103FC000F894DEBF0FBECDBFDF91CF911F910F914F
:103FD000FF90EF90DF90CF90BF90AF909F908F9029
:103FE000089590E080E08ECF80914F028111C8CF7C
:103FF0000E947D0DD82EE091ED02AE01475E5F4F2D
:104000007A01882309F4A4C08CE0DA011D928A9514
:10401000E9F70E2F10E0000F111F0E5E1C4F80916C
:1040200085028A3008F05CC046E753E1B701C80159
:104030000E94390D882309F477C043E451E2B701A7
:10404000C8010E94390D882309F46EC047E552E18A
:10405000B701C8010E94390D882309F465C0109288
:1040600085028091EC0290E0880F991F4CE050E0AF
:10407000B7018E5E9C4F0E941E2C21E020935802B7
:10408000892B09F042C0D12C92E5E92E92E0F92E5D
:1040900010E000E0D7018D917D018823D1F0869555
:1040A000F80109F452C0ED55FE4F808191819EA325
:1040B0008DA31FA20E94D7078160782F99A788A798
:1040C000F701319710824DA15EA16FA189A50E94D1
:1040D000961E0E5F1F4F04301105E1F68D2D6ECF39
:1040E00080915002909151020E94BC07843F914000
:1040F00008F09ACF80915802882329F28CE0F701CA
:1041000011928A95E9F710925802A091EC02B0E062
:10411000AA0FBB1FAE5EBC4F8CE0FE0179960190EA
:104120000D928A95E1F7B0CF809185028F3F31F0F3
:104130008F5F809385028A3008F493CF0E94D7075F
:104140009093510280935002D5CFE156FE4FADCFF0
:10415000F0E0EE0FFF1FEE5EFC4FF8948CE0AFE650
:10416000B2E001900D928A95E1F76CE070E08FE685
:1041700092E00E94290880936E020E947D09F894C3
:10418000E091F202F0E0E151FD4F8081898F809350
:104190007C0261E070E0C7010E94290880937B02E5
:1041A0000E947D09F894C0907D02D0907E02E0903C
:1041B0007F02F09080028091540290915502A0916C
:1041C0005602B0915702C816D906EA06FB06D1F08E
:1041D000C0925402D0925502E0925602F0925702D9
:1041E0000E947D0D81110EC00E94CB07C61AD70A0E
:1041F000E80AF90AC092CE02D092CF02E092D00231
:10420000F092D1020E947D0980E0D8CEEF92FF9219
:104210000F931F93CF93DF9300D000D00F92CDB7B1
:10422000DEB7162FE82EF12CC701880F991F6623E1
:1042300039F18D559E4FFC01808191819A8389834C
:1042400001E00B830E94D7078160782F9D838C83C8
:10425000F701EE5AFD4F0127110F102B10834981F2
:104260005A816B818D810F900F900F900F900F905E
:10427000DF91CF911F910F91FF90EF900C94961EBC
:1042800081569E4FD8CFCF92DF92EF92FF920F933D
:104290001F93CF93DF930F92CDB7DEB7EE24E39455
:1042A000F12C0CE712E09E012F5F3F4F4AE652E0EF
:1042B00063E082E00E94C712082F882321F1C0909A
:1042C000EE028C2D90E09C0121513D4F7901198126
:1042D000F9018081181BD12E80E00AC0DA94F70121
:1042E00080818F5F808360E08C2D0E940621802F6B
:1042F0001D14A4F3912F17FD90E0191B11110EC08E
:1043000081110E94480B802F0F90DF91CF911F9158
:104310000F91FF90EF90DF90CF9008951F5FF7010E
:1043200080818150808361E08C2D0E940621802F46
:10433000E5CF1F920F920FB60F9211242F933F9348
:104340004F935F936F937F938F939F93AF93BF939D
:10435000CF93DF93EF93FF93D091E900DF708091CB
:10436000EC00C82FC17080FDC0E81092E900809178
:10437000F000877F8093F00078940E94830F109262
:10438000E9008091F00088608093F000CD2BCF7021
:10439000C093E900FF91EF91DF91CF91BF91AF9171
:1043A0009F918F917F916F915F914F913F912F914D
:1043B0000F900FBE0F901F9018951F920F920FB67F
:1043C0000F9211242F933F934F935F936F937F939B
:1043D0008F939F93AF93BF93EF93FF938091E100EF
:1043E00082FF09C08091E20082FF05C08091E10058
:1043F0008B7F8093E1008091DA0080FF24C0809160
:10440000D80080FF20C08091DA008E7F8093DA0090
:104410008091D90080FF9DC080E189BD82E189BD86
:1044200009B400FEFDCF81E08093520380914503E3
:10443000811109C00E94E8040E94DD058091E2001C
:1044400084608093E2008091E10080FF17C080913A
:10445000E20080FF13C08091E2008E7F8093E20033
:104460008091E20080618093E2008091D8008062B8
:104470008093D80019BC85E0809352038091E100BD
:1044800084FF2BC08091E20084FF27C080E189BDBA
:1044900082E189BD89B5982F917080FFFBCF809113
:1044A000D8008F7D8093D8008091E1008F7E80932B
:1044B000E1008091E2008F7E8093E2008091E20033
:1044C00081608093E20080915303882309F447C000
:1044D00084E080935203809152038091E10083FF36
:1044E00027C08091E20083FF23C08091E100877F95
:1044F0008093E10082E080935203109253038091F5
:10450000E1008E7F8093E1008091E2008E7F8093B6
:10451000E2008091E20080618093E20042E060E08E
:1045200080E00E94AB058091F00088608093F000ED
:10453000FF91EF91BF91AF919F918F917F916F917B
:104540005F914F913F912F910F900FBE0F901F9051
:10455000189519BC109252031092450374CF8091A4
:10456000E30087FD93E090935203B5CF78941F92B8
:104570001FB61F9211248F939F93AF93BF93809187
:104580003E0390913F03A0914003B09141030196F7
:10459000A11DB11D80933E0390933F03A093400360
:1045A000B0934103BF91AF919F918F911F901FBE18
:1045B0001F9018951F921FB61F9211248F939F93DF
:1045C000AF93BF9380913D03811113C080913E034F
:1045D00090913F03A0914003B09141034196A11DEA
:1045E000B11D80933E0390933F03A0934003B0938B
:1045F0004103BF91AF919F918F911F901FBE1F905C
:104600001895CDB7DEB7AF970FB6F894DEBF0FBEE3
:10461000CDBF84E080939C038FE780939D038091BE
:104620009E038078806480939E03E6E8F2E08EEC3F
:1046300092E02FEF21938E179F07E1F71092F4027B
:104640001092F5021092F7021092F6021092C50332
:104650001092C7031092C60380EC80938A0488EC02
:1046600093E090938C0480938B04109289041092B1
:1046700088041092A5031092A4031092A70310922D
:10468000A6031092A9031092A8031092AB031092F4
:10469000AA031092AD031092AC031092AF031092D4
:1046A000AE031092B1031092B0031092B3031092B4
:1046B000B2031092B5031092B4031092B703109294
:1046C000B6031092B9031092B8031092BB03109274
:1046D000BA031092BF031092BE0380E597E0909357
:1046E000A1038093A00385EC96E09093C10380938F
:1046F000C00381EA96E09093BD038093BC0380EAF7
:1047000096E09093A3038093A20384B7877F84BF2E
:104710000FB6F894A895809160008861809360003E
:10472000109260000FBE80E890E00FB6F89480937E
:104730006100909361000FBE85B7806885BF85B723
:10474000806885BF8BE799E09093D9018093D80169
:104750000E94E8040E94DD058091E200846080935D
:10476000E2007894809152038823A1F01091E9002F
:104770001F709091EC00892F817090FD80E8182BBC
:104780001092E9008091E80083FD0E94830F1F7062
:104790001093E90082E084BD93E095BD9AEF97BD48
:1047A00080936E001092CE021092CF021092D0022F
:1047B0001092D1020E94510F811102C00E94AD0ED1
:1047C0000E947D0D91E08927809348010E947D0D14
:1047D00081110E94282A80914801811131C0FE0177
:1047E000379686E0DF011D928A95E9F781E9898392
:1047F00080E98A8384E98B8386E68C8387E98D83CD
:1048000086EC8E833697ACE3B1E0CE010D96219114
:104810002D938E179F07D9F78AE0E4E6F1E0DE01D9
:10482000919601900D928A95E1F7FE01B196A2E36F
:10483000B1E0CE018B9621912D938E179F07D9F76A
:104840008091480196E0811190E09093ED0286E01E
:10485000891B8093EC020CE311E082E4E82E81E0F6
:10486000F82EF80181918F018F3F11F00E947F098E
:10487000E016F106B1F702E311E0BCE3EB2EB1E084
:10488000FB2ED8018D918D018F3F11F00E947F0981
:10489000E016F106B1F788E1E2E1F3E0DF01282F4D
:1048A0001D922A95E9F7E4EDF2E0DF011D928A9569
:1048B000E9F790E080E00E943C2C893E9E4F21F475
:1048C0000E94510F811102C00E94B71382E090E054
:1048D0000E94342C8093F9020E946A0F9093D302B5
:1048E0008093D2020E94261FEFE3FCE93197F1F793
:1048F00000C000000E94261F8091120380FF08C0A4
:104900006FEF7FEF90E080E00E94602C0E94AB0789
:1049100083E090E00E94342C0E94020C0E947D0DE6
:10492000811102C00E942B2A80914801811106C08A
:1049300084E38093560186E38093550120915601CC
:10494000A22FA295AF70B0E091963C9191972F70F5
:1049500081E090E0BC01022E01C0660F0A94EAF7E4
:10496000462F4095432391964C93919792963C9174
:104970009297362B92963C93929740915501E42F53
:10498000E295EF70F0E031A14F70042E01C0880F66
:104990000A94EAF7982F9095932391A392A1892BDB
:1049A00082A390968C9190E002C0959587952A9568
:1049B000E2F7817020A130E002C0359527954A9535
:1049C000E2F792E020FF90E0892B8093F302909130
:1049D000480181E098279093F202891B8093EE02B0
:1049E00080919C03807F826080939C0380919D03D3
:1049F0008078856780939D03E0E6F3E08CE993E09F
:104A00002FEF21938E179F07E1F781E00E94020CA0
:104A100089E491E090933A0380933903E8E14E2EC4
:104A2000512CFAE26F2EF3E07F2EA3E0AA2EB12CD8
:104A30008091520300E112E1853009F45FC20E94C7
:104A4000261F81110E94CB0772E1E72E73E0F72E3B
:104A5000EAEFF2E0D70110E000E0202E8D909D906B
:104A6000819191918815990509F458C28825992555
:104A7000312CCC24C394D12C9C012C213D21232BFF
:104A800009F446C20E947D0D8823A9F039A22AA20A
:104A90008C209D2081E0892809F480E08BA30E946E
:104AA000D7078160782F9DA38CA349A15AA16BA140
:104AB0008DA10E94961E000F111FF801E650FD4FB8
:104AC00080819181C826D926D182C0828091F3024B
:104AD000E82FEE0FEE0F80915601A82FA295AF7030
:104AE000B0E090962C9130E08F7002C035952795FC
:104AF0008A95E2F72170332790915501A92FA2954D
:104B0000AF70B0E090964C9150E09F7002C0559508
:104B100047959A95E2F7CA018170992740FF02C034
:104B200082E090E0822B8E2B8093F3021091F202B0
:104B30008F70E82FF0E0E755FE4F80819091F102F1
:104B4000890F8093F10220E0843064F0E12FF0E0DF
:104B5000E151FD4F80818F5F808360E0812F0E9453
:104B6000062121E08091F1028D3F64F4E12FF0E015
:104B7000E151FD4F80818150808361E0812F0E944F
:104B8000062121E08091F102082E000C990B64E0CF
:104B900070E00E94FD2B8093F10221110E94480BCE
:104BA00086E0E1E3F3E0DE01119601900D928A9533
:104BB000E1F7D0903303C090340310913503009196
:104BC000360310923303109234031092350310927F
:104BD00036038D2D8C2909F448C080912F039091C4
:104BE00030030E94BC079C0190912B03992309F488
:104BF000C9C323333105C8F19F3F19F09F5F9093DC
:104C00002B03DD2059F00E9401099FEF1D140CF4C5
:104C100091E0899F802D112480933303CC2059F09B
:104C20000E9401099FEF1C140CF491E0899F802DD4
:104C3000112480933403309133033323B1F0209156
:104C40003403222391F045EB3403C001112499234E
:104C500009F47BC19093330355EB25039001112494
:104C6000332309F476C130933403812F802B09F468
:104C700048C080912D0390912E030E94BC079C0197
:104C800090912A03992309F478C325363105C8F198
:104C90009F3F19F09F5F90932A03112359F00E94C0
:104CA000DF089FEF11160CF491E0899F802D1124ED
:104CB00080933503002359F00E94DF089FEF101600
:104CC0000CF491E0899F802D11248093360330915C
:104CD00035033323B1F020913603222391F045EBC5
:104CE0003403C0011124992309F437C1909335038B
:104CF00055EB250390011124332309F432C130937D
:104D000036038091330390913403892B90913503BE
:104D1000892B90913603892B11F00E943F0886E081
:104D2000FE013196A1E3B3E001900D928A95E1F77F
:104D3000E091C003F091C103309719F080EA93E04D
:104D400009959FB7F8940091890480918804081709
:104D500008F40BC1081B9FBFD12CC12C10E0882484
:104D60008394912CC016D10608F403C18091F602F9
:104D70009091F7020E94BC0720919E0326952695EC
:104D800026952F702817190609F060F50E94D7079D
:104D90009093F7028093F6028091F502882311F137
:104DA00090919D03991F9927991F80919E03877069
:104DB000880F4091F40261E0892B0E94E503809105
:104DC000F5029091F40287FF8BC1E82FFF27E19550
:104DD0000CF4F0959E171F060CF082C11092F4029D
:104DE0001092F5020E94A00D9091F802891721F00F
:104DF0000E94A00D8093F802809152038430E1F468
:104E0000809158018F708093E9009091E80090FFA5
:104E100013C090915203943079F48093E9009091FB
:104E2000F3008091F200892B39F08091E8008E77B1
:104E30008093E8000E94070580915203843009F0B6
:104E4000F7CD83E08093E9008091E80082FFF0CD08
:104E50008091E80090E085FF09C050E040E060E20A
:104E600070E0CE0101960E94620591E08091E80019
:104E70008B778093E800992309F4DACDE981E1503A
:104E8000E33108F091C1F0E0E456F34D0C94112C9D
:104E900080915203843011F110923D03F0E40FB67B
:104EA000F894A895409260000FBEF093600083B71D
:104EB000817F846083BF83B7816083BF7894889546
:104EC00083B78E7F83BF0FB6F894A895809160005A
:104ED000886180936000109260000FBE8091510342
:104EE000882361F00E94261FE2E1F3E08191919115
:104EF000892B09F023C26E167F06C1F780915203F9
:104F0000853009F4C5CF0E94780F0E94A00D97CD7F
:104F10003394CC0CDD1C2AE03212AECD0F5F1F4F54
:104F20000C30110509F099CD8FEF8BA78CA71DA62A
:104F30000E94D7078160782F9FA78EA74BA55CA5FD
:104F40006DA58FA50E94961EC1CD81E0809333038D
:104F500083CE81E08093340388CE81E08093350353
:104F6000C7CE81E080933603CCCE20918A04020F15
:104F7000F1CE8091880490E060918A0470E00E94F4
:104F8000FD2B20918B0430918C04280F391FD901FF
:104F90003C902090C503B7EFB315F0F4E1E0E09347
:104FA000C50320E040E0632D81E090E00E94F6031D
:104FB0002092C5032FB7F8948091880490E0019661
:104FC00060918A0470E00E94FD2B809388042FBFBB
:104FD000BFEFCB1ADB0AC6CE37FE53C0F4E02F1664
:104FE00031F03092C2039092C7038092C603832DA2
:104FF0000E94A206813069F08823D1F08230A9F0A6
:10500000833099F01092C5031092C7031092C60323
:10501000D1CF8093C50320E040E0632D81E090E094
:105020000E94F6031092C503C5CF8093C503C2CF7B
:1050300020EF3216E1F047EF3412E4CF2091C6039F
:105040003091C703C901B5010E94E92BFC01E0566C
:10505000FC4F32A2C90101969093C7038093C60307
:105060002091C4034091C3036091C203D9CF54E09F
:105070005093C5033092C2039092C7038092C60337
:1050800099CF222009F496CF2091C6033091C7030F
:10509000C901B5010E94E92BAC01FC01E056FC4FAF
:1050A00032A2C90101969093C7038093C603413091
:1050B000510589F04230510509F07CCF2091C4039D
:1050C0004091C3036091C2030E94F6038091C5031F
:1050D000843091F66FCFA2E020E02A126BCFF0CFA0
:1050E000890F87FD03C08093F4027CCE8FE7FBCF4E
:1050F0001A8289E08B8311C08A81823009F434C11D
:10510000833091F1813009F04FC00E94CB070E949B
:10511000172C6B837C838D839E8380915203843014
:1051200009F086CC1091E9001F709091EC00892F56
:10513000817090FD80E8182B82E08093E9008091D7
:10514000E80080FF0DC050E040E060E270E0CE017A
:1051500001960E9438058091E8008E778093E800E0
:105160001F701093E90064CCFE013196D7018C9139
:1051700011969C91B2E0EB0EF11C928383833296E0
:105180002AE2E21623E0F20689F7C7CF8A8182304D
:1051900059F46B817C818D819E810E94172C86E25F
:1051A00090E00E94422CB9CF8FEF8983B6CF4C811B
:1051B0006B818A810E94BC0E9827892798279E833D
:1051C0008D83ABCF0D811E811027012710278A8187
:1051D000EB8044E1E49E7001112450EF859FE00CC8
:1051E000F11C11248C8190E0880F991FE80EF91EA4
:1051F000612FC70187960E94422C602FC7018896B5
:10520000D0CF0E943F0E89CF80E18A8386CF81E094
:105210008A836FCF0A811B81102701271027CE01B7
:1052200001967C01CC80DC01AC0DB11D6D01C80183
:1052300089509D4FCE14DF0409F46FCF0930B1E0DF
:105240001B0750F40E94342CF70184830F5F1F4F1B
:10525000BFEFEB1AFB0AEBCFD70114961C92F6CFE7
:105260000A811B81102701271027FE0131966F014B
:10527000EC80E00EF12EF11CC80189509D4FE01624
:10528000F10609F44ACF0930F1E01F0728F4D601EE
:1052900014966C910E94422CBFEFCB1ADB0A0F5F71
:1052A0001F4FEACF0E942F0E38CF83E0AECF0A8186
:1052B0001B81102701271027FE0131967F01CC802A
:1052C000AF014C0D511D6A01C8018796CE14DF0451
:1052D00009F423CF003D52E0150758F40E94342C06
:1052E000D70114968C930F5F1F4FFFEFEF1AFF0A41
:1052F000EBCFF7011482F7CF0A811B81102701271A
:105300001027AE014F5F5F4F6A01EC80E00EF12E77
:10531000F11CC8018796E016F10609F4FECE003DA7
:1053200052E0150728F4D60114966C910E94422C85
:10533000BFEFCB1ADB0A0F5F1F4FEBCF09BD19BDC3
:1053400009B400FEFDCF8091D8008F7D8093D800F6
:105350008091E00082608093E0008091E00081FD18
:10536000FCCF0E94780FCACD86E290E00E94342CD8
:105370001B821C821D828E83D0CE2D32314008F0DC
:1053800089CCBFCC2D32314008F038CC6ECC8EE1C8
:105390004A9B02C08150E1F74A9BFECF08955A987C
:1053A00080E28A95F1F75A9A0895FC013BE03A951C
:1053B000F1F798E020E080E031E040E14A95F1F734
:1053C000880F4A9B02C08160232742E04A95F1F78B
:1053D000000040E14A95F1F7915079F790E19A95F4
:1053E000F1F799B132E03A95F1F7000040E14A95C2
:1053F000F1F792FB992790F992272081920F9083E1
:105400000895EF92FF920F931F93CF93DF930F9224
:10541000CDB7DEB719828C017C01E60EF11C0E15AA
:105420001F0561F481E09981911180E00F90DF9177
:10543000CF911F910F91FF90EF9008950E94C7297F
:10544000CE0101960E94D529F80181938F01E7CF03
:10545000529A5A9A089552985A9AEA9AE9E6F0E0CE
:1054600080818F7C808308956150770B91E001C02B
:10547000990F6A95EAF720E031E0911108C02223E4
:1054800091F05A9A80E28A95F1F75A980895492F37
:10549000482339F05A9A232740E24A95F1F7969526
:1054A000ECCF5A98F9CF5A98EDCFFF920F931F93F4
:1054B000CF93DF93EC018C01060F111DC017D107AC
:1054C00031F4DF91CF911F910F91FF900895F990E2
:1054D0000E94CF2968E08F2D0E94342AEFCF1F92BF
:1054E0000F920FB60F921124EF92FF920F931F931A
:1054F0002F933F934F935F936F937F938F939F93DC
:10550000AF93BF93EF93FF93CF93DF930F92CDB7FA
:10551000DEB719820E94C729CE0101960E94D529C3
:10552000A82FA695A695A695282F229525709A2F87
:105530009570290F922F937026952695920F982794
:1055400097708981982B09F075C0A63008F072C059
:1055500080E18A95F1F75A9A529AB2E0BA95F1F73A
:1055600000C05A98EA2EF12CEAE0AE9FD001112437
:10557000A050BF4F1896ED91FC9119973097B1F05C
:105580006091A7017091A80116962D913C911797F3
:10559000260F371F13968D919C911497680F791FD2
:1055A00015964C91159712968C9109958AE08E9DCF
:1055B000F0018F9DF00D1124E050FF4F65816623AF
:1055C00051F02091A7013091A80186819781820F27
:1055D000931F0E94552A0E94CF29F0E1FA95F1F716
:1055E0005A9852985A9A80E18A95F1F78AE08E9DEE
:1055F00080018F9D100D112400501F4FD80112966D
:105600006C911297662371F12091A7013091A80146
:1056100013968D919C91820F931F0E94012AD801AD
:10562000ED91FC91882311F088E001C082E0808335
:105630000E94C7290F90DF91CF91FF91EF91BF9109
:10564000AF919F918F917F916F915F914F913F911A
:105650002F911F910F91FF90EF900F900FBE0F9021
:105660001F901895ED91FC91DFCF0F931F93CF936F
:10567000DF93EC0106970CF0A9C08AE08C9FF00143
:105680008D9FF00D1124E050FF4F80819181892B77
:1056900009F49CC0F894529A5A9885E08A95F1F7DB
:1056A00000008C2F869585709C2F9570890F982F00
:1056B000937086958695890F8E0193E0000F111FD8
:1056C0009A95E1F7082B0E94CF2900C068E0802F4F
:1056D0000E94342AA0E1AA95F1F752985A9A4A9B5F
:1056E00027C087E090E04A9925C08AE08C9F80011E
:1056F0008D9F100D112400501F4FF8016581662306
:10570000A1F12091A7013091A80186819781820F94
:10571000931F0E94012A811128C0529A5A9AD801D7
:10572000ED91FC9182E08083789482E090E016C055
:1057300000C0D5CF0197B9F4529A5A9A8AE08C9F4B
:10574000F0018D9FF00D1124E050FF4F0190F0818A
:10575000E02D81E08083789481E090E0DF91CF912B
:105760001F910F91089500C0BECF0E94C729B0E2DB
:10577000BA95F1F75A98529AE0E1EA95F1F78AE082
:105780008C9FF0018D9FF00D1124E050FF4F62813E
:10579000662351F02091A7013091A8018381948163
:1057A000820F931F0E94552A0E94CF298AE08C9F66
:1057B000F0018D9FF00D1124E050FF4F0190F0811A
:1057C000E02D1082789490E080E0C8CF84E090E0F3
:1057D000C5CFAA1BBB1B51E107C0AA1FBB1FA61741
:1057E000B70710F0A61BB70B881F991F5A95A9F78A
:1057F00080959095BC01CD01089597FB072E16F476
:10580000009407D077FD09D00E94E92B07FC05D052
:105810003EF4909581959F4F0895709561957F4FC7
:105820000895EE0FFF1F0590F491E02D099469276C
:10583000962769277827872778270895FB01DC01B9
:1058400004C08D910190801921F441505040C8F757
:10585000881B990B0895FB01DC0102C001900D9299
:1058600041505040D8F70895F999FECF92BD81BDBF
:10587000F89A992780B50895A8E1B0E042E050E099
:105880000C94682C262FF999FECF92BD81BDF89A11
:10589000019700B4021639F01FBA20BD0FB6F89474
:1058A000FA9AF99A0FBE08950396272F0E94432C67
:1058B0000E94422C252F0E94432C242F0C94432C11
:1058C0000196272F0E94432C0C94422CDC01CB0123
:1058D000FC01F999FECF06C0F2BDE1BDF89A319600
:1058E00000B40D9241505040B8F70895F894FFCF9E
:1058F0003C0F3C0F450F450F470F450F450F450F18
:105900003C0F3C0F4C0F450F450F4C0F6910911089
:105910003F1291103F12C410E5103F12E311F01135
:10592000B01AB01A071B071B391B531BE31AE31AE3
:105930005E1BCF1BDF1BDF1B78287C28C628D728DF
:10594000E2280129D428D428D428D428D42804290A
:0E59500007290A2930295229552957297C296F
:10595E00E2010000000100000000E2010000000C66
:10596E0001000000E201000000010D000000E20154
:10597E00000000010E000000E201040F0000000014
:10598E00000031F7F6F5F433323690913534C69780
:10599E006694000000000000019D060C0DEB0CE764
:1059AE000CE30C9C0637670485400000010640009E
:1059BE0000010001F4F5F6F73133326737F18182D9
:1059CE0083E200E900EA00B500B600B700CD00831F
:1059DE0001CC008A019201940121022302240225A6
:1059EE0002260227022A02B300B4006F00700008DC
:1059FE00070806090709066E0200FF0100010000F4
:105A0E00FFFF0000010001FF000203020000010081
:105A1E00010101010100010140227B49012701AC76
:085A2E00001B053405540500BE
:00000001FF
