:100000000C9403030C944A030C944A030C94A71712
:100010000C944A030C944A030C944A030C944A032C
:100020000C944A030C944A030C94E92C0C94BD2DB7
:100030000C940E230C944A030C944A030C944A0328
:100040000C944A030C944A030C944A030C944A03FC
:100050000C944A030C9465230C944A030C944A03B1
:100060000C944A030C944A030C944A030C944A03DC
:100070000C944A030C944A030C944A030C944A03CC
:100080000C944A030C944A030C944A030C944A03BC
:100090000C944A030C944A030C944A030C944A03AC
:1000A0000C944A030C944A030C944A035F5D6B5D05
:1000B000775D835D8F5D645D705D7C5D885D945D63
:1000C000665D725D7E5D8A5D965D695D755D815D73
:1000D0008D5D995D615D6D5D795D855D915D625D53
:1000E0006E5D7A5D865D925D685D745D805D8C5D40
:1000F000985D675D735D7F5D8B5D975D635D6F5D33
:100100007B5D875D935D605D6C5D785D845D905D1A
:100110005E5D6A5D765D825D8E5D655D715D7D5D56
:10012000895D955D4F5C525C555C585C5B5C5E5CC8
:10013000615C0000AA00A9004E5C515C545C575CF5
:100140005A5C5D5C605C0000000000004D5C505C2F
:10015000535C565C595C5C5C5F5C00000000000016
:100160000000A842705C6D5C6A5C675C645C0000C7
:10017000000000000000725C6F5C6C5C695C665C97
:10018000635C0000000000000000715C6E5C6B5C52
:10019000685C655C625C000000000000165C2B007F
:1001A0003900E100E0002A004C002800E500E400EE
:1001B0001E00140004001D00E3002700130033009C
:1001C0003800E7001F001A0016001B00E20026009E
:1001D00012000F003700E6002000080007000600AC
:1001E000910025000C000E00360090002100150043
:1001F000090019002C00240018000D0010002C002C
:10020000220017000A0005002C0023001C000B0030
:1002100011002C000100010001000100010001009B
:1002200001000000010001000100010001000100C7
:1002300001000100010000000000000001000100B9
:1002400001000100010001000100000000000000A9
:100250000000010001000100010001000100000098
:100260000000000000000100010001000100010089
:10027000010000000000000000000100010001007A
:1002800001000100010000000000000000520152C6
:10029000000000000000000000000000000000005E
:1002A000000000000000000000000000000000004E
:1002B000000000000000000000000000000000003E
:1002C000000000000000000000000000000000002E
:1002D000000000000000000000000000000000001E
:1002E000000000000000000000000000000000000E
:1002F00000000000000000000000000000000000FE
:1003000000000000000000000000000000000000ED
:1003100000000000000000000000000000000000DD
:1003200000000000000000000000000001000000CC
:1003300000000000000000000000000000000000BD
:1003400000000100000000000000000000000000AC
:10035000000000000000000000000000000000009D
:10036000000000000000000000000000000000008D
:10037000000000000000000000000000000000007D
:10038000000000002A2B28000000000000000000F0
:100390000000000000000029000000002C1E342096
:1003A000212224342627252E362D3738271E1F20BC
:1003B0002122232425263333362E37381F04050601
:1003C0000708090A0B0C0D0E0F1011121314151645
:1003D0001718191A1B1C1D2F3130232D3504050643
:1003E0000708090A0B0C0D0E0F1011121314151625
:1003F0001718191A1B1C1D2F3130354C0000000036
:1004000000000000000000000000000000000000EC
:1004100000000000000000000000000000000000DC
:100420007E0F00D4FFFFFFC70000007816036700AF
:1004300069006100620061006C0061006E00610093
:10044000690000000E033300610072006100680063
:1004500074000000040309040902BF00050100A0A4
:10046000FA09040000010301010009211101000142
:100470002240000705810308000A09040100020365
:10048000000000092111010001222200070582035A
:1004900020000107050303200001090402000103F5
:1004A000000000092111010001227B0007058403DF
:1004B00020000A080B0302010100000904030000E8
:1004C00001010000092401000109000104090404DC
:1004D000000201030000072401000141000624027C
:1004E00001010006240202020009240301030102A3
:1004F000010009240302040101010009050602406C
:1005000000050000052501010109058502400005DF
:10051000000005250101031201100100000008ED93
:10052000FEB0F40100010200010660FF0961A101B3
:100530000962150026FF00952075088102096315E0
:100540000026FF00952075089102C005010902A14F
:100550000185020901A100050919012908150025D5
:1005600001950875018102050109300931158125C0
:100570007F95027508810609381581257F950175DB
:10058000088106050C0A38021581257F950175083A
:100590008106C0C005010980A101850319012AB7A0
:1005A00000150126B700950175108100C0050C09E2
:1005B00001A101850419012AA002150126A00295B6
:1005C0000175108100C005010906A101050719E0A8
:1005D00029E7150025019508750181029501750827
:1005E00081010507190029FF150026FF00950675F2
:1005F00008810005081901290595057501910295E5
:100600000175039101C011241FBECFEFDAE0DEBFF8
:10061000CDBF04B603FE27C08091A8049091A90421
:10062000A091AA04B091AB048730904BA740B04B87
:10063000D1F41092A8041092A9041092AA04109266
:10064000AB0414BE84B7877F84BF0FB6F894A89517
:1006500080916000886180936000109260000FBEFE
:10066000E0E0F8E3099511E0A0E0B1E0E2E6F0E6B1
:1006700002C005900D92A43EB107D9F724E0A4EE84
:10068000B1E001C01D92A83AB207E1F70E94A32988
:100690000C94F82F0C940000CF92DF92EF92FF920F
:1006A0000F931F93CF93DF93F82EC801C091A3033C
:1006B000CF776A01C20ED11CF601D081FB012281E5
:1006C000222311F1DF3F71F40E94630BD82F2C2FEE
:1006D000482F6F2D8EEA93E0EE2069F00E941D24D2
:1006E000F601D083DF91CF911F910F91FF90EF9092
:1006F000DF90CF9008950E941D242C2F4CE04D0FC9
:100700006F2D8EEA93E0EACFDF3F49F02C2F4D2F7B
:100710006F2D8EEA93E0EE2031F00E942D248FEFB2
:10072000F6018083DFCF0E942D244CE04D0F2C2F4B
:100730006F2D8EEA93E0F1CF8F929F92AF92CF927E
:10074000EF920F931F93CF93DF93D82FC801C091DF
:10075000A303CF774A01820E911CF4011081FB01A3
:100760002281222349F11F3FE9F40E94630B182FD5
:100770004E2D480F2C2F6D2F8EEA93E00E941D24E2
:100780004C2D410F2C2F6D2F8EEA93E00E941D24DB
:100790004A2D410F2C2F6D2F8EEA93E00E941D24CD
:1007A000F4011083DF91CF911F910F91EF90CF90C3
:1007B000AF909F908F9008951F3FC1F04E2D410F35
:1007C0002C2F6D2F8EEA93E00E942D244C2D410F8B
:1007D0002C2F6D2F8EEA93E00E942D244A2D410F7D
:1007E0002C2F6D2F8EEA93E00E942D248FEFF401C1
:1007F0008083D8CFDF92EF92FF920F931F93CF9316
:10080000DF9300D000D000D0CDB7DEB7D82E81E086
:10081000D81218C094E0699FF0011124E45BFE4FE8
:10082000F080E280C7010E94FD20B7010E94C01342
:100830008C01E982FA820C328CE5180790F4C80129
:100840000E94140581E026960FB6F894DEBF0FBE15
:10085000CDBFDF91CF911F910F91FF90EF90DF906F
:100860000895DB82BE016F5F7F4FC8010E94720B4B
:100870008FE39CE90197F1F700C000001B82BE01E5
:100880006F5F7F4FC8010E94720BDCCF8091A20383
:10089000807F82608093A2038091A3038078856724
:1008A0008093A303E6EEF1E08FEF819392E0E232D2
:1008B000F907D9F761E070E080E090E00C94AB1F9D
:1008C000AF92CF92EF920F931F9322EA280F8238B4
:1008D0003DE59307D0F486373DE5930728F58E353F
:1008E0003DE59307D0F08C0103521140F7E0AF2EA5
:1008F000A4E0CA2E8A369D45F0F4E12C46EE51E084
:10090000809123020E944C0308C08E383DE5930776
:10091000A0F08A393DE5930700F181E01F910F9126
:10092000EF90CF90AF9008958C010F521140E7E007
:10093000AE2E83E0C82EE12C09C08C010B53114070
:100940003AE0A32E47E0C42E54E0E52E46EE51E0F7
:10095000809122020E949C03E0CF8C010754114039
:1009600096E0A92EE6CFCF93DF939C013A9521150F
:100970003F4168F5EC01CC27D170DC01AA27B270A9
:10098000AC01442754709C012227387094FF11C099
:1009900080E1CD2B09F480E0AB2B09F08062452B80
:1009A00009F08064232B09F08068FB01DF91CF916F
:1009B000099481E0CD2B09F480E0AB2B09F0826033
:1009C000452B09F08460232B81F38860EECFDF9103
:1009D000CF910895CF93DF93EC01805E9109089742
:1009E00020F067E67CE1209711F469E77AE1CE0117
:1009F0000E94B3048C2FDF91CF910C94DD19CF931B
:100A0000DF93EC010E942B1ACE01805E91090897BA
:100A100020F06EE67CE1209711F460E87AE1CE01E7
:100A2000DF91CF910C94B304CF93DF93EC010E943C
:100A3000EA048FE39CE90197F1F700C00000CE01C2
:100A4000DF91CF910C94FF0481E008950C94600431
:100A500008950C9428051F93CF93DF9300D000D006
:100A60000F92CDB7DEB749835A836B833091CB02A7
:100A700089819A8131111DC06623B9F02223A9F022
:100A80000E94FD20182F682F89819A810E94A92039
:100A900069817A81812F0F900F900F900F900F90A6
:100AA000DF91CF911F910C94C0130E94D520182F75
:100AB000EFCF0E94FD2069817A81EDCFFC01262FC6
:100AC000408151816281738184810C942B05CF9385
:100AD000DF93EC0160E00E945E05BE01DF91CF91E3
:100AE0000C9429058F929F92AF92BF92CF92DF9282
:100AF000EF92FF920F931F936B017C0181E090E0D6
:100B0000A0E0B0E04C015D0104C0880C991CAA1C57
:100B1000BB1C4A95D2F7B501A4014C015D0104C08C
:100B2000880C991CAA1CBB1C2A95D2F74829592964
:100B30006A297B2904C0880F991FAA1FBB1F0A9529
:100B4000D2F78A019B010C211D212E213F21041780
:100B500015072607370789F48C299D29AE29BF2957
:100B6000BC01CD011F910F91FF90EF90DF90CF90CE
:100B7000BF90AF909F908F90089580959095A0958D
:100B8000B0958C219D21AE21BF21EACF0F93382F44
:100B9000262F60914F0370915003809151039091E3
:100BA0005203042F432F0E9472050F910C94E71FEC
:100BB0000E94E5080C940A090C940D0908950E94FE
:100BC0008B1C0E94DE052FEF84E39CE021508040C7
:100BD0009040E1F700C000000C94CA230F931F93CC
:100BE000CF93DF93EC0161E00E945E058C01BE01B2
:100BF0000E940812882389F1BE01C8010E942605BF
:100C0000882359F1BE01C8010E94720B882329F183
:100C1000BE01C8010E94F7148823F9F0BE01C80183
:100C20000E9449158823C9F0BE01C8010E946C16B4
:100C3000882399F08A81882339F001158CE51807FB
:100C400051F00E3D1C4579F0CE01DF91CF911F91FF
:100C50000F910C9424050E94DF0580E0DF91CF9175
:100C60001F910F9108950E947322F7CFDF92EF92A8
:100C7000FF920F931F93CF93DF93E82FF0E0E45898
:100C8000FC4FD490282F26952695269530E0F90123
:100C9000E45EFB4F0491877010E0082E02C01595AA
:100CA00007950A94E2F701701127F901E45FFB4F01
:100CB000E490F12C082E02C0F594E7940A94E2F730
:100CC00091E0E922FF24F901E450FC4FC491D0E007
:100CD00002C0D595C7958A95E2F7C170DD27011549
:100CE000110519F081EE0E94DD19E114F10419F0EB
:100CF00086EE0E94DD198D2D0E94711AEF2819F0E1
:100D000086EE0E942B1A012B19F081EE0E942B1AFD
:100D1000CD2B51F08CE2DF91CF911F910F91FF907D
:100D2000EF90DF900C94711ADF91CF911F910F918A
:100D3000FF90EF90DF900895EF92FF920F931F9333
:100D4000CF93DF93EC01162F0AE08881882309F402
:100D500054C0813009F04EC08981813099F47E0100
:100D600022E0E20EF11C8A810E94711AE7012196AD
:100D7000812F815050F3EFE9FFE03197F1F700C088
:100D80000000F7CF823041F47E0182E0E80EF11CD2
:100D90008A810E94DD19EACF833041F47E01E2E0CE
:100DA000EE0EF11C8A810E942B1AE0CF843011F0E4
:100DB0002196DDCF2A81229690E080E0AE014F5F40
:100DC0005F4F2053330B2A30310548F0019778F2FA
:100DD000EFE9FFE03197F1F700C00000F7CF089F7F
:100DE000B001099F700D1124C901860F971F298139
:100DF000EA01E4CF0E943606BACFDF91CF911F916E
:100E00000F91FF90EF90089560E00C949C06089578
:100E10000C94070781E008950C940A07CF93C82F1C
:100E20000E9408078C2FCF910C940C07CF93DF936F
:100E30000E94C0130E94F307EC01811520E5920780
:100E400060F5811530E4930708F07AC08F3B910577
:100E500080F4883A910508F066C0853A910508F05B
:100E60005AC08430910588F4019779F0D0E0C0E051
:100E70000CC08F3F910509F060F4803F910508F0A8
:100E80005DC0805E9109089788F7CE01DF91CF9110
:100E9000089581159042C8F3E9CFC11584E5D807BC
:100EA000A0F4C11593E5D90708F07BC0C11522E570
:100EB000D20708F065C0C11531E5D30708F443C077
:100EC000DC2FCC27C16FD06AE0CFC1154AE5D4072B
:100ED00070F4C11589E5D80708F077C0C11598E509
:100EE000D90720F2DC2FCC27C06FD06ACECFCE013D
:100EF00090568115904208F0B9CF8D2F8F710E94C6
:100F00008A0890E0982F882788279F719C012C2BB6
:100F1000E901D062BACFC55AD0E0CE57DE4FC881C2
:100F2000D0E0D064B2CFC85AD0E0CC0FDD1FCC5A8D
:100F3000DE4F0990D881C02DD464A7CFD065A5CF4E
:100F4000DF70D06AA2CFCE0164E0969587956A954E
:100F5000E1F783702C2F26952695237040E2249F7D
:100F600090011124382B8C2F8370C1E0D0E002C097
:100F7000CC0FDD1F8A95E2F7C22BD32BDC6885CF1F
:100F8000CE018370992721E030E002C0220F331F89
:100F90008A95E2F7C695C69580E2C89FE0011124C4
:100FA000EBCFCE018370992721E030E002C0220F01
:100FB000331F8A95E2F7C695C69590E2C99FE00176
:100FC0001124C22BD32BDA6860CF8C2F8F700E9434
:100FD0008A0834E0D695C7953A95E1F7CF709C2FF3
:100FE000EC01D06952CF82389105B1F1B0F4813370
:100FF000910509F475C048F48932910509F469C076
:101000008A32910509F473C008958533910509F476
:1010100059C08933910501F10895833E9105A9F1E5
:1010200038F4803E9105F9F0823E910549F108952A
:10103000863E9105A9F1873E9105C9F1843E91054F
:1010400019F520916F0321FF1FC080916E0384FD6D
:1010500014C087EE90E0089520916E032370A1F0F4
:1010600080EE90E0089520916E0320FD47C03091FE
:101070006F0330FF09C024FF44C090E080E004C04B
:1010800020916E0322FDF7CF089520916E0322FD7B
:101090003BC030916F0330FDE3CF24FFF5CFEDCFA0
:1010A00020916E0323FFF0CF24FDE7CFD2CF209114
:1010B0006E0323FD2CC030916F0331FFEECF84EE21
:1010C00090E0089520916E0325FFDECF89E290E045
:1010D000089520916E0325FFD7CF85E390E0089512
:1010E00020916E0326FFD0CF8AE290E008952091F0
:1010F0006E0326FFC9CF81E390E0089589E390E075
:10110000089583EE90E0089582EE90E0089586EED3
:1011100090E0089590916E0392FF06C0282F2871E9
:101120002830F9F4877F846093FF06C0282F287148
:101130002831F1F4877E846120916F0320FF06C07F
:10114000382F38713830D9F4877F816021FF06C08D
:10115000282F28712831D1F4877E816194FD877E04
:101160000895282F24712430F9F68B7F8860DCCF16
:10117000282F2471243101F78B7E8861DDCF382F31
:101180003171313019F78E7F8860E0CF282F2171BF
:10119000213121F78E7E8861E1CF0C94E2110E940B
:1011A0004A0A8FE39CE90197F1F700C000000E9412
:1011B0004A0A80E00E940F0980FF04C00E94CD0807
:1011C0000C94CA2308950C94CF080E94CE2181115B
:1011D00002C00E9473220E94D921809362030E9460
:1011E000E12190936F0380936E030E94E3080E94B5
:1011F000DD21682F70E090E080E00E94AB1F6091DD
:101200004F037091500380915103909152030C94BD
:10121000E51F08950C94090908950C940C09E82F12
:10122000F0E0EE0FFF1FE857FC4F80819181089599
:10123000089580EA8A95F1F7089500C008950C9406
:101240001909F894E82FE295EF70F0E031A1282F0A
:101250002F7081E090E001C0880F2A95EAF7982F5F
:101260009095932391A392A1892B82A378940895BA
:1012700008950C9438090F931F93CF93DF93CDB744
:10128000DEB766970FB6F894DEBF0FBECDBF0E94E3
:10129000350B80911601811134C0FE01379686E02E
:1012A000DF011D928A95E9F781E9898380E98A83C4
:1012B00084E98B8386E68C8387E98D8386EC8E8335
:1012C000CE010196EAE0F1E09E01235F3F4FDC0191
:1012D0004D91CD014193A217B307C9F72AE0E2E48B
:1012E000F1E0DE011D9601900D922A95E1F7FC01D7
:1012F000A0E0B1E0CE01479621912D93E817F907C0
:10130000D9F78091160196E0811190E09093A103A6
:1013100086E0891B8093A0030AE011E0F801819127
:101320008F010E942109F1E000311F07B9F700E0A9
:1013300011E0D8018D918D010E942109B1E00A30A0
:101340001B07B9F7E0E7F3E0A8E8B3E011921192C8
:101350001D921D9283E0E838F807C1F786E00E94ED
:10136000DE0A0E94D80566960FB6F894DEBF0FBE5F
:10137000CDBFDF91CF911F910F910C943F0BCF9276
:10138000DF92FF920F931F93CF93DF93CDB7DEB71A
:101390002C970FB6F894DEBF0FBECDBF0E94180B7E
:1013A000F82E6091A103882309F463C08E010F5FBA
:1013B0001F4F8CE0F80111928A95E9F7862F90E093
:1013C000880F991FB80188579C4F0E94A21681115F
:1013D0002AC0809124028F5F80932402863008F413
:1013E00046C0E091A003F0E0EE0FFF1FE857FC4F6E
:1013F000D801CE010D96119211921D921D92A8173F
:10140000B907C9F70E94DC058F2D2C960FB6F8940A
:10141000DEBF0FBECDBFDF91CF911F910F91FF9027
:10142000DF90CF90089510922402E091A003F0E0A5
:10143000EE0FFF1F9F0128573C4F6901D801AE01F5
:10144000435F5F4FF12CF601619171916F012D9116
:101450003D916217730739F0BF0162507109FB01BA
:1014600031832083F82EA417B50769F7CBCFF12C71
:10147000C9CF70E0660F771F68577C4F8091A0033B
:1014800090E0880F991F88579C4F0E94D1160E94A8
:101490003909BACF8F929F92AF92BF92CF92DF92CB
:1014A000EF92FF920F931F93CF930AE011E090E722
:1014B000E92E93E0F92E20E1A22E21E0B22EC0E029
:1014C000CC24C394D12CF80181918F01F894E82F9A
:1014D000E295EF70F0E021A18F70A60102C0440FE9
:1014E000551F8A95E2F7CA01922F982B91A392A1DA
:1014F0008095892382A378940E941D09E0E0F1E0A1
:1015000030E020E0912C812C4191A42FA295AF7066
:10151000B0E090968C9190E04F7002C095958795C1
:101520004A95E2F780FD45C0C601022E02C0880F31
:10153000991F0A94E2F7882A992A2F5F3F4F2A3091
:10154000310511F7F801319780810E9421090E942D
:101550001F09F701808191818816990669F19182AE
:10156000808281E0C82BF2E0EF0EF11CA016B106DC
:1015700009F0A9CF6091A10370E0660F771F68574B
:101580007C4F2C2F46E080E793E00E94DF0A0E9408
:10159000BF09C11101C0C82F8C2FCF911F910F918E
:1015A000FF90EF90DF90CF90BF90AF909F908F9083
:1015B000089590E080E0BFCF80E0D4CF0895FF92FF
:1015C0000F931F93CF93DF93F82E092F162FD72F4A
:1015D000C42F222349F081E0809327020E943E23FA
:1015E0009093260280932502809127028823A1F000
:1015F00080912502909126020E945623069760F062
:10160000EF2DF02FA12FBD2F90E080E0D0E08C17C0
:101610009D0744F010922702DF91CF911F910F9107
:10162000FF900895219131912D933D930196EFCF35
:1016300080912802811107C00E94742F882351F0E5
:1016400081E08093280281E090912802913009F096
:1016500080E0089582E0809328020E946F2FF3CFEC
:101660000E94180B91E0892708950E94300B809307
:1016700016010E94180B81110C94961608950E9471
:10168000180B811102C00C949C16089584E080937D
:10169000A2038FE78093A3038091A40380788064E2
:1016A0008093A403EDE2F2E08FEF819392E0E537BF
:1016B000F907D9F710922C0210922B0210922A02ED
:1016C0001092290208959091A203292F2F709595C9
:1016D0009595959595959F523CE0239F900D1124EB
:1016E000890F0895FF920F931F93CF93DF93FB0110
:1016F0008E3A2CE5920708F085C08E394CE59407A8
:1017000008F08DC180392CE5920750F583384CE5FF
:10171000940708F040C181382CE5920760F48737C0
:101720004CE5940708F01FC18F322CE5920708F0B2
:10173000DFC0C1E011C181384CE5940709F420C134
:1017400082389C45B1F78281882309F4EBC08091EF
:10175000A203982F9F70993008F0E4C09F5F19C1D1
:101760008C394CE59407A0F582392CE5920708F0F6
:101770002FC180394CE5940709F418C181399C4583
:10178000C1F68281882309F4CDC02091A203822F63
:10179000859585958595859586300CF0C3C091E03B
:1017A000980F9295907F9595959595959595392F4C
:1017B0003295307F2F70232B2093A20318160CF044
:1017C000B1C097FFAFC08295807F922F9F70D4C029
:1017D0008C394CE5940709F409C18D399C4509F011
:1017E000A8CF8281882309F49DC08091A303982FFC
:1017F0009F779F3709F496C0933708F00EC1935F27
:101800009F77F2C0843B4CE5940709F466C1C8F5A4
:10181000803B4CE5940709F432C1D8F48E3A4CE58C
:10182000940709F40EC18F3A9C4509F082CF82815A
:10183000882309F477C02091A303322F331F332765
:10184000331F9091A403892F8770880F832B8F5F9C
:1018500009C16091A3033091A4032281823B4CE52E
:10186000940709F42EC108F420C121112FE7862F17
:10187000881F8827881F632F6770660F682B42E4D4
:101880000FC1873B2CE5920709F43AC180F4853BF0
:101890002CE5920709F421C1863B9C4509F049CF0C
:1018A000828181112BC18FEF80932B023BC0893B3A
:1018B0002CE5920709F45AC108F443C18A3B9C45C0
:1018C00009F037CFC2816091A303862F881F882734
:1018D000881F6091A4036770660F682BCC2309F4FE
:1018E00055C14FEF5FE18EEA93E00E943D241AC09C
:1018F0002091A303322F331F3327331FD091A4032A
:10190000D770DD0FD32BF22EE894F7F8C28101EDEA
:10191000080F10E0035D1D4FF8014081CC2389F0D2
:101920004F3F11F0C0E018C00E94630BC82F2F2D4D
:10193000482F6D2F8EEA93E00E941D24F801C0838A
:10194000F1CF4F3F31F02F2D6D2F8EEA93E00E94A3
:101950002D248FEFF80180838C2FDF91CF911F9181
:101960000F91FF90089522812223E1F28757982F4B
:101970009F708091A203807F892B8093A203D2CF96
:101980008281882379F28091A203982F9F7051F26F
:10199000915F9F70F0CF2281222321F28958982FE6
:1019A0009295907F8091A2038F70E6CF82818823E9
:1019B00009F4B8CF8091A203982F959595959595A8
:1019C00095959B3F0CF4AECF915F9295907FECCFB5
:1019D0002281222309F4A6CF82599EE0899F902D6F
:1019E00011249F778091A303807815C0828188237A
:1019F00009F498CF8091A303982F9F7709F492CF91
:101A000080789F3721F485678093A3038BCF9D3027
:101A1000D8F39D509F77892BF7CF8F67F5CF228121
:101A2000222309F47FCF8E599091A30380FB97F96D
:101A30009093A303869587709091A403987F892B38
:101A40007DC08281882309F46DCF2091A303322FBA
:101A5000331F3327331F9091A403892F8770880F7A
:101A6000832B815F382F3F7080FB27F92093A303DE
:101A7000832F8695987F982B9093A40353CF8281D0
:101A8000882309F44FCF6091A303862F881F8827EE
:101A9000881F6091A4036770660F682B20E04BE7F6
:101AA0008EEA93E00E940D243DCF21112FE7862F6F
:101AB000881F8827881F632F6770660F682B40E494
:101AC000EFCF21112FE7862F881F8827881F632FCC
:101AD0006770660F682B41E4E3CF828120E08111BB
:101AE0002FE76091A303862F881F8827881F6091A6
:101AF000A4036770660F682B43E4D2CF81E0D4CE95
:101B00008281882309F40ECF9091A403292F269572
:101B1000269526952F7081E0820F8F70880F880F91
:101B2000880F9778892B8093A403982F987709F0D2
:101B3000F9CE220F220F220F8778822B8093A403E5
:101B4000F1CE8281882309F4EDCE8091A403982FF1
:101B5000987709F4E7CE982F969596959695915F8C
:101B60009F70990F990F990F877869CFC281609103
:101B7000A303862F881F8827881F6091A40367709E
:101B8000660F682B40E050EEC111ADCE50E040E052
:101B90008EEA93E00E943D24DFCE8EEA93E00E941D
:101BA0003F268091290290912A020E94562320917B
:101BB000A4032695269526952F702817190609F057
:101BC000A0F50E943E2390932A02809329028091DF
:101BD0002B02882351F16091A303862F881F882749
:101BE000881F6091A4036770660F682B20912C02F8
:101BF00041E08EEA93E00E940D2480912B029091A7
:101C00002C0287FF0DC0482F552741950CF45095A5
:101C1000941715062CF410922C0210922B020895A2
:101C2000890F87FD03C080932C0208958FE7FBCFB7
:101C300080917B0280FF12C060911C0185E0689F4B
:101C4000B001112475956795759567956038710594
:101C5000A8F561157105A1F1862F089581FF09C0CE
:101C600060911C0185E0689FB0011124759567950E
:101C7000EDCF60911C0182FD0AC080917A02882319
:101C8000D1F090911B0160911C01891728F085E02B
:101C9000689FB0011124DACF869FB001112485E03E
:101CA000869F9001879F300D1124692F70E0C90134
:101CB0000E94952FCBCF65E070E0CECF8FE70895DF
:101CC00081E0089580917B0280FF0CC06091180133
:101CD00070E075956795759567956115710549F182
:101CE000862F089581FF06C06091180170E07595F8
:101CF0006795F3CF6091180182FD0BC09091790236
:101D00009923A1F06091170180911801961738F07E
:101D1000682F70E06038710500F38FE70895899FA0
:101D2000C001112470E00E94952FF4CF61E070E0B3
:101D3000D7CF81E00895803F31F40E94180E81953D
:101D400080937F020895813F19F40E94180EF8CF06
:101D5000823F31F40E94180E819580937E0208958F
:101D6000833F19F40E94180EF8CF893F29F40E948E
:101D7000620E8093800208958A3F21F40E94620ED1
:101D80008195F7CF8B3F31F40E94620E819580934D
:101D9000810208958C3F19F40E94620EF8CF9CE0F6
:101DA000980F953070F4845F990B21E030E001C00A
:101DB000220F8A95EAF780917D02822B80937D0223
:101DC00008958D3F31F480917B02816080937B0286
:101DD00008958E3F21F480917B028260F7CF8F3F80
:101DE000B9F780917B028460F1CF40917E02803F01
:101DF00059F480917F0287FF0DC010927F0241113C
:101E00000BC010927A0208C0813F81F480917F025A
:101E100018169CF3442381F08091800290918102F6
:101E2000892B09F05AC0109279020895823F49F433
:101E300047FFF0CF10927E0280917F028111ECCF9C
:101E4000E0CF833F19F41416ACF3E4CF90918002F5
:101E5000893F29F41916F4F610928002DBCF8A3FED
:101E600019F497FFD7CFF8CF909181028B3F29F4D7
:101E700097FFD0CF10928102CDCF8C3F19F4191665
:101E8000CCF3C8CF9CE0980F953090F4845F990B09
:101E900021E030E0B90102C0660F771F8A95E2F7B2
:101EA000CB01809590917D02892380937D02B2CFF2
:101EB0008D3F31F480917B028E7F80937B02AACF8D
:101EC0008E3F21F480917B028D7FF7CF8F3F09F009
:101ED000A1CF80917B028B7FF0CF08950E943E239B
:101EE0009C0190917E0280917F02982B21F030938B
:101EF0007802209377029091800280918102982B42
:101F000021F030937602209375028CE792E00C94D6
:101F10006218EF92FF920F931F93CF93DF9300D03D
:101F200000D000D0CDB7DEB786E0ECE7F2E0DE010E
:101F3000119601900D928A95E1F7E0907E02F09063
:101F40007F02009180021091810210927E02109215
:101F50007F0210928002109281028E2D8F2991F0C3
:101F600080917702909178020E945623AC01909163
:101F70007A02992309F43FC080911D018417150648
:101F800008F447C0802F812B91F0809175029091C9
:101F900076020E945623AC0190917902992309F4AC
:101FA00077C0809119018417150608F47FC08091CD
:101FB0007E0290917F02892B90918002892B9091D3
:101FC0008102892B11F00E946E0F86E0FE0131968E
:101FD000ACE7B2E001900D928A95E1F726960FB634
:101FE000F894DEBF0FBECDBFDF91CF911F910F914F
:101FF000FF90EF90089520911E018AE0289F9001A4
:1020000011242417350708F0BDCF9F5F90937A0203
:1020100002C09F3FD1F7EE2059F00E94180E9FEFAB
:102020001E140CF491E0899F802D112480937E0270
:10203000FF2059F00E94180E9FEF1F140CF491E03E
:10204000899F802D112480937F0230917E0233235B
:1020500009F498CF20917F02222309F493CF45EB16
:102060003403C0011124992359F090937E0245EB6B
:10207000240390011124332339F030937F0282CF5F
:1020800081E080937E02F3CF81E080937F027ACF5C
:1020900020911A018AE0289F900111242417350706
:1020A00008F085CF9F5F9093790202C09F3FD1F7E0
:1020B000002359F00E94620E9FEF10160CF491E07D
:1020C000899F802D112480938002112359F00E9452
:1020D000620E9FEF11160CF491E0899F802D112460
:1020E0008093810230918002332309F460CF2091E4
:1020F0008102222309F45BCF45EB3403C001112494
:10210000992359F09093800245EB24039001112408
:10211000332339F0309381024ACF81E080938002EB
:10212000F3CF81E08093810242CF86E0ECE7F2E0DA
:10213000DF011D928A95E9F710927A0210927902D6
:1021400010927B02089580911601811106C084E3EC
:102150008093200186E380931F0120912001A22F0C
:10216000A295AF70B0E091963C9191972F7081E06D
:1021700090E0BC01022E01C0660F0A94EAF7462FD8
:102180004095432391964C93919792963C919297C8
:10219000362B92963C93929740911F01E42FE29543
:1021A000EF70F0E031A14F70042E01C0880F0A9447
:1021B000EAF7982F9095932391A392A1892B82A35C
:1021C00090968C9190E002C0959587952A95E2F7BC
:1021D000817020A130E002C0359527954A95E2F73D
:1021E00092E020FF90E0892B809387029091160166
:1021F00081E0982790938302891B8093820208953F
:10220000CF93E0918702EE0FEE0F20912001A22FD5
:10221000A295AF70B0E090968C9190E02F7002C0C4
:10222000959587952A95E2F78170992740911F012E
:10223000A42FA295AF70B0E090962C9130E04F7033
:1022400002C0359527954A95E2F7A90141705527B7
:1022500020FF02C042E050E0842BE82BE09387028D
:10226000C0918302EF70F0E0EB57FE4F80819091B8
:102270008602890F8093860220E0843064F0EC2F80
:10228000F0E0EC57FD4F80818F5F808360E08C2F02
:102290000E94FA0321E0809186028D3F64F4EC2FC6
:1022A000F0E0EC57FD4F80818150808361E08C2FFE
:1022B0000E94FA0321E080918602082E000C990BFF
:1022C00064E070E00E94952F80938602822FCF9168
:1022D0000895E0918302F0E0EC57FD4F2081FC016E
:1022E00020830895FF920F931F93CF93DF93D09194
:1022F00082020D2F10E00C571D4FFC01C081F80128
:102300008081C81BFC2E80E01F147CF09C2FC7FD31
:1023100090E0C91BC11114C08823E9F0DF91CF916F
:102320001F910F91FF900C94AF18FA94F8018081DF
:102330008F5F808360E08D2F0E94FA0381E0E4CFFD
:10234000CF5FF80180818150808361E08D2F0E94F2
:10235000FA0381E0DFCFDF91CF911F910F91FF90C2
:10236000089583E290E00E94B62F813289F484E2DE
:1023700090E00E94B62F873059F485E290E00E94E9
:10238000B62F91E0873109F090E0892F8170089590
:1023900080E0FCCFCF93C82F6FEF811161E283E221
:1023A00090E00E94C42F6FEFC11167E084E290E0DB
:1023B0000E94C42F6FEFC11167E185E290E0CF91D9
:1023C0000C94C42F80E00E94CA110C94C821089577
:1023D00086E290E00E94B62F682F70E090E080E0E7
:1023E000089586E290E00C94C42F0E94E7110E94A9
:1023F000B11181110CC060E070E0CB010E94F111BD
:102400000E9438130E94241481E00C94CA1108958C
:10241000CF93FB01C281CC2309F19C0122513F459E
:102420002031310520F582510E943414C0E08C2FF8
:10243000CF91089581E00E940D2043E062E081E0A9
:102440000E94C605F3CF81E00E942E2043E062E0A7
:1024500081E00E94C605EBCF82E0F6CF8031FFE538
:102460009F0789F381319F45B9F3C1E0E0CF803107
:10247000EFE59E07F9F281319F45C9F682E0DBCF97
:102480002FEFFC0120830895EF92FF920F931F938B
:10249000CF93DF93EC01062FE881E150E33108F0A0
:1024A0005EC0F0E0E650F04D0C94A92F198289E04F
:1024B0008A83602FCE01DF91CF911F910F91FF9002
:1024C000EF900C9484288981823069F0833071F018
:1024D0008130D9F40E944A230E94AF2F6A837B8304
:1024E0008C839D83E6CF0E94E811F6CF7E0110E039
:1024F000812F0E940F09F701928383831F5FF2E00F
:10250000EF0EF11C1C30A1F7D4CF602FCE010E943A
:102510004012CFCF89818230C1F76A817B818C8163
:102520009D810E94AF2F0E94F111C3CF4B816A8120
:1025300089810E940A139827892798279D838C8375
:10254000B8CF2C813D813227232732274B816A81E6
:1025500089810E942313ADCF0E943813AACF8FEF39
:102560008883A7CF0E94CD138983A3CF0E94CF1366
:102570009827892798279A8389839BCF6B8170E05E
:1025800089819A81AE014C5F5F4F982789279827F0
:102590000E94D2138ECF6B8170E089819A81AE0147
:1025A0004C5F5F4F9827892798270E94F91381CFA6
:1025B0000E9424147ECF0E94F812D6CF6B8170E067
:1025C00089819A81AE014C5F5F4F982789279827B0
:1025D0000E9470136ECF6B8170E089819A81AE0189
:1025E0004C5F5F4F9827892798270E94961361CFE9
:1025F00083E0089550E0440F551F94E1699F400D1A
:10260000511D112490EF899F400D511D1124CA01C5
:10261000879608950F931F93CF93DF930E94FA122A
:102620008C010E94B62FC82FD0E0DC2FCC27C80128
:1026300001960E94B62F9E01282BC901DF91CF91F0
:102640001F910F9108950F931F93CF93DF93122F34
:10265000032F0E94FA12EC01602F0E94C42F612FF9
:10266000CE010196DF91CF911F910F910C94C42F51
:10267000AF92BF92CF92DF92EF92FF921F93CF93D0
:10268000DF938CEAC82E80E0D82ED0E07601C0E03F
:1026900014C0F50125913491412F6C2F8D2F0E948C
:1026A000231382E0A80EB11C1F5F1A3091F784E15A
:1026B000E80EF11CCF5FCC3019F0570110E0E9CFE4
:1026C000DF5F80EFC80ED11CD33001F7DF91CF91CF
:1026D0001F91FF90EF90DF90CF90BF90AF90089543
:1026E000EF92FF920F931F93CF93DF93EC018A0138
:1026F0007C01E60EF71ECE018796CE15DF0539F474
:10270000DF91CF911F910F91FF90EF900895C03D01
:1027100022E0D20740F40E94B62FF80180830F5FB9
:102720001F4F2196E8CFF8011082F9CFCF92DF92A8
:10273000EF92FF920F931F93CF93DF937C016A0177
:102740008C01060F171FEC01CE018796C017D10729
:1027500049F4DF91CF911F910F91FF90EF90DF909F
:10276000CF900895C03D22E0D20740F4FE01EE195B
:10277000FF09EC0DFD1D60810E94C42F2196E4CF5E
:10278000462F833038F47C3028F46A3018F4672FF1
:102790000C940A1390E080E0089580E1089589E0A8
:1027A00091E00895EF92FF920F931F93CF93DF93E1
:1027B000EC018A017C01E60EF71ECE0189509D4F87
:1027C000CE15DF0539F4DF91CF911F910F91FF9066
:1027D000EF900895C93021E0D20740F40E94B62F4F
:1027E000F80180830F5F1F4F2196E7CFF801108219
:1027F000F9CFCF92DF92EF92FF920F931F93CF9377
:10280000DF937C016A018C01060F171FEC01CE01DA
:1028100089509D4FC017D10749F4DF91CF911F9187
:102820000F91FF90EF90DF90CF900895C93021E095
:10283000D20740F4FE01EE19FF09EC0DFD1D608189
:102840000E94C42F2196E3CFCF93DF93C7EFD2E04E
:1028500060E0CE010E94C42F2196C11584E0D80704
:10286000B9F7DF91CF910895DF92EF92FF920F9326
:102870001F93CF93DF9300D000D0CDB7DEB7F82EF3
:102880008FE08F1540F08FEF93E00E94B62F07EF97
:1028900012E08823C1F00F900F900F900F90DF91FE
:1028A000CF911F910F91FF90EF90DF900895011548
:1028B00084E0180781F3C8010E94B62F811101C07E
:1028C000FA940F5F1F4FF110F2CF19821A821B8208
:1028D0001C82DD24D39478018FEFE81AF80AC8012E
:1028E0000E94B62F89831A828823A9F29FEF980F3E
:1028F000933078F48A83D9820E5F1F4FC7010E94FC
:10290000B62F8B83882339F2CE0101960E940407EB
:10291000E2CF8701F9CF0F931F93CF93DF93C42F9B
:10292000D22FFC0182818823C9F040938A020E9441
:102930003E23909389028093880280E28C0F883036
:1029400008F050C0C77081E001C0880FCA95EAF74F
:10295000DF91CF911F910F910C94791A10918A02F7
:10296000141335C080918802909189020E945623E9
:10297000883C910560F5C0E2CD0F1D17B9F080E2EB
:10298000810F883040F4177081E001C0880F1A95DC
:10299000EAF70E94801AC83048F481E09D2F9770B2
:1029A00001C0880F9A95EAF70E94791A802F0E9439
:1029B000711AC830B8F4D77081E001C0880FDA9579
:1029C000EAF7DF91CF911F910F910C94801A80E26A
:1029D0008C0F883038F4C77081E001C0880FCA9529
:1029E000EAF7EFCFDF91CF911F910F9108950F93E9
:1029F0009C01CB01233F4CE5340759F1A8F4283D55
:102A0000FCE53F0701F1293D4CE53407D1F1273DB5
:102A10003C4591F406E221EE41EE67ED7CE50E9433
:102A20008B1480E00F910895253FFCE53F07E9F006
:102A3000B0F0263F3C45F9F0FC018281882339F152
:102A400010928A02EFCF07E225EE45EE68ED7CE5B5
:102A5000E6CF06E221EE40EE63EF7CE5E0CF07E251
:102A600025EE44EE64EF7CE5DACF06E221EE42EE9D
:102A700065EF7CE5D4CF07E225EE46EE66EF7CE518
:102A8000CECF08E221E045EE69ED7CE5C8CF81E0DC
:102A9000C9CFCF93DF93EC01FB018281882309F436
:102AA00019C1C230FCE5DF07C0F1C6319CE5D9078A
:102AB00030F09E012A5F3C452930310570F50E94B7
:102AC000E12190936F0380936E03C031ECE5DE0744
:102AD00009F4CFC008F05BC0C8308CE5D80709F412
:102AE000B6C088F5C430ECE5DE0709F4A8C0C0F430
:102AF000C2308CE5D80709F49CC080916E038260D7
:102B0000C330DC4509F498C080916E0390916F0347
:102B10000E94EF210E948B1C80E0DF91CF910895ED
:102B200080916E038061C630ECE5DE0709F484C055
:102B300080916E038860C730DC4508F47DC08091C9
:102B40006E03806279C0CC308CE5D80709F489C067
:102B500070F480916E038C60CA30ECE5DE0709F4F6
:102B60006BC008F478C080916E038E7F65C0CE3054
:102B70008CE5D80709F479C080916E038B7FCF3044
:102B8000DC4508F459C080916E038F7E55C0CB3F61
:102B9000ECE5DE0709F457C030F5C3318CE5D80702
:102BA00009F46FC078F4C131ECE5DE0709F465C0C3
:102BB000C231DC4509F0A8CF0E948B1C80916E03C6
:102BC0008F773AC0C5318CE5D80709F462C008F4A4
:102BD00076C080916F038160CA3FDC4509F094CFD5
:102BE00080936F0391CFCF3FFCE5DF0709F44DC021
:102BF00088F480916F038D7FCD3F9CE5D90781F3E9
:102C000080916F038E7FCE3FDC4550F380916F0340
:102C10008360E6CFC130FDE5DF0709F459C008F451
:102C200044C080E0C230DD4509F06ECF0E947522BD
:102C30006BCF80916E03816080936E0365CF80912E
:102C40006E038460F9CF80916F038260C9CF809159
:102C50006E038064F1CF0E948B1C80916E038068AC
:102C6000EBCF80916E038D7FE7CF80916E03877FDE
:102C7000E3CF80916E038F7DDFCF80916E038F7BDA
:102C8000DBCF80916E03837FD7CF80916F038C7FE2
:102C9000A7CF80916E0382FB992790F921E09227BC
:102CA00090FB82F990FB83F9C7CF80916F03982F37
:102CB000909591708E7F892B90FB81F991CF0E9426
:102CC0008B1C90916E03892F97FB87F98058B4CFA6
:102CD00081E0ACCF81E021CFCF93DF93EB01863150
:102CE0009C4511F50E94A0219A81992399F08A7A36
:102CF00091E009F490E090938B02811109C089E280
:102D00000E946D210E94812180E0DF91CF91089582
:102D100085E3F6CF80918B02811104C089E20E9485
:102D20007421F0CF85E3FBCF81E0EFCF61E070E06D
:102D300081E291E00C94581761E070E081E291E04B
:102D40000C945F17CF93DF93D62FC72F0E94F917EC
:102D5000009729F5ED2FFC2FDC01AA0FBB1FAF5602
:102D6000BD4F2D913C912193319301968630910571
:102D700099F78DE992E00E9472110E94AF236E5F75
:102D80007F4F8F4F9F4F60938D0270938E02809381
:102D90008F029093900281E0DF91CF91089580E0BF
:102DA000FBCFCF93DF93D62FC72F60918D02709109
:102DB0008E0280918F02909190020E949223ED2FBB
:102DC000FC2F90E080E021913191DC01AA0FBB1F24
:102DD000AF56BD4F11963C932E93019686309105C8
:102DE00091F78DE992E0DF91CF910C9469118EE11A
:102DF0004A9B02C08150E1F74A9BFECF08955A9842
:102E000080E28A95F1F75A9A0895FC013BE03A95E1
:102E1000F1F798E020E080E031E040E14A95F1F7F9
:102E2000880F4A9B02C08160232742E04A95F1F750
:102E3000000040E14A95F1F7915079F790E19A95B9
:102E4000F1F799B132E03A95F1F7000040E14A9587
:102E5000F1F792FB992790F992272081920F9083A6
:102E60000895EF92FF920F931F93CF93DF930F92EA
:102E7000CDB7DEB719828C017C01E60EF11C0E1570
:102E80001F0561F481E09981911180E00F90DF913D
:102E9000CF911F910F91FF90EF9008950E94F71628
:102EA000CE0101960E940517F80181938F01E7CFAB
:102EB00090939F0280939E02529A5A9A08959093FB
:102EC0009F0280939E0252985A9AEA9AE9E6F0E0AD
:102ED00080818F7C808308956150770B91E001C0E1
:102EE000990F6A95EAF720E031E0911108C022239A
:102EF00091F05A9A80E28A95F1F75A980895492FED
:102F0000482339F05A9A232740E24A95F1F79695DB
:102F1000ECCF5A98F9CF5A98EDCFFF920F931F93A9
:102F2000CF93DF93EC018C01060F111DC017D10761
:102F300031F4DF91CF911F910F91FF900895F99097
:102F40000E94FF1668E08F2D0E946C17EFCF1F9232
:102F50000F920FB60F9211242F933F934F935F93CD
:102F60006F937F938F939F93AF93BF93CF93DF9391
:102F7000EF93FF935A98529AC0919E02D0919F026C
:102F80006D81662321F08E819F810E948D170E94A2
:102F9000FF1680E18A95F1F75A9852985A9A80E183
:102FA0008A95F1F76A81662309F18B819C810E94E1
:102FB0003117E881F981882311F088E001C082E0AF
:102FC00080830E94F716FF91EF91DF91CF91BF911F
:102FD000AF919F918F917F916F915F914F913F91B1
:102FE0002F910F900FBE0F901F901895E881F981D7
:102FF000E4CFCF93DF93C0919E02D0919F02F894CB
:10300000529A5A9885E08A95F1F7000052985A9A98
:1030100080E28A95F1F74A9B0CC0529A5A9AE8814D
:10302000F98181E08083789481E090E0DF91CF9115
:1030300008956D81662381F08E819F810E943117F2
:1030400081110AC0529A5A9AE881F98182E08083FC
:10305000789482E090E0EACF0E94F71680E28A95A9
:10306000F1F75A98529A80E18A95F1F76A816623BE
:1030700021F08B819C810E948D170E94FF16E881B0
:10308000F9811082789490E080E0D0CF9093A502EF
:103090008093A4020895E091A402F091A5023097D4
:1030A00021F00190F081E02D099480E00895E091F5
:1030B000A402F091A502309721F00280F381E02D67
:1030C00009940895E091A402F091A502309739F097
:1030D00022E0DC012C930480F581E02D0994089511
:1030E0002091A2023091A3022817390771F0909322
:1030F000A3028093A202E091A402F091A50230976E
:1031000021F00680F781E02D099408952091A00216
:103110003091A1022817390771F09093A102809392
:10312000A002E091A402F091A502309721F0008462
:10313000F185E02D099408950E944A236093C70207
:103140007093C8028093C9029093CA026093C3022D
:103150007093C4028093C5029093C60208950E94A2
:103160004A236093C7027093C8028093C902909368
:10317000CA026093BF027093C0028093C102909311
:10318000C202089585B7806885BF85B7806885BF0E
:103190000895089508950C94C9180C9446040E944B
:1031A000C21886EC91E20E94DB230E94CA180C949C
:1031B000CB180C94180B089508950E94DB180C94FA
:1031C000DC180E9435230E9489230E943B090E943B
:1031D000F5110E94A3100C94CD188F929F92AF927C
:1031E000BF92CF92DF92EF92FF920F931F93CF93F4
:1031F000DF93CDB7DEB72A970FB6F894DEBF0FBEC8
:10320000CDBF0E944A0A81110E949C1857EA852E60
:1032100052E0952E10E000E0A02E802F0E940F09B2
:103220006C01F401E190F1904F01E816F90609F400
:1032300063C08091620381FD0E941809C7018C253B
:103240009D25B12CEE24E394F12C9C012E213F21ED
:10325000232B09F44BC00E94D9188823A9F0BE8201
:10326000AF82CE20DF2081E0CD2809F480E088877E
:103270000E943E238160782F9A8789874E815F81E3
:1032800068858A850E94A619000F111FF801E9556B
:10329000FD4F80819181E826F926F182E0820E942B
:1032A000001181110E94AF180E94890F0E94CD0D5C
:1032B0000E944B189091A6028917A9F10E944B1801
:1032C0008093A6022A960FB6F894DEBF0FBECDBF3C
:1032D000DF91CF911F910F91FF90EF90DF90CF90F2
:1032E000BF90AF909F908F900C940E07B394EE0C0C
:1032F000FF1CFAE0BF12A9CF0F5F1F4F0C30110562
:1033000009F08ACF8FEF89838A831B820E943E2334
:103310008160782F9D838C8349815A816B818D8157
:103320000E94A619BCCF2A960FB6F894DEBF0FBE36
:10333000CDBFDF91CF911F910F91FF90EF90DF9064
:10334000CF90BF90AF909F908F900895DF92EF92B3
:10335000FF920F931F93CF93DF93CDB7DEB72B97D9
:103360000FB6F894DEBF0FBECDBF7A878B87F42EE1
:10337000052F162FE72ED82E61110E94C0211E8224
:103380001D827E2DEC82DD824F2D502F612F8D2DE1
:103390009E812B960FB6F894DEBF0FBECDBFDF9196
:1033A000CF911F910F91FF90EF90DF900C94011F30
:1033B000FC01808191810C943F21CF93C82F8823F9
:1033C00009F447C08CEF8C0F813AA0F46C2F8091E8
:1033D000290190912A010E947A22882329F08C2FBA
:1033E0000E9474210E9481218C2F0E946D21CF9117
:1033F0000C94812180E28C0F883048F4C77081E002
:1034000001C0880FCA95EAF70E94A321F0CFEBE52F
:10341000EC0FE33040F4F0E0ED53FE4F808190E09C
:10342000CF910C947018E8E5EC0FE73150F4F0E020
:10343000EE0FFF1FEB56FE4F80819181CF910C94D0
:103440008618C03F30F08C2F0E949B0ECF910C94B9
:103450006E0FCF910895882361F19CEF980F913AF8
:1034600020F40E9474210C94812190E2980F9830EE
:1034700050F4877091E001C0990F8A95EAF7892F7F
:103480000E94A921F0CF9BE5980F933020F490E0A3
:1034900080E00C94701898E5980F973120F490E034
:1034A00080E00C948618803F20F00E94F50E0C946A
:1034B0006E0F08951F93CF93DF93182FEB010E9497
:1034C000DD19209731F4812FDF91CF911F910C945A
:1034D0002B1A8FE99FE00197F1F700C000002197B8
:1034E000F0CF6AE070E0893311F460E570E00C948D
:1034F0005A1A882321F00E94A3210C948121089557
:10350000882321F00E94A9210C9481210895CF9253
:10351000DF92EF92FF920F931F93CF93DF93DC0123
:10352000C62F972F12962C91129715964C9115979E
:10353000342F32953F70872F82958F70082F10E0BF
:103540008C3090F5F801E35FFF4C0C94A92FD72F36
:10355000DF70907F11F0D295D07F2223A9F0DD2378
:1035600059F080E28C0F883010F0C11109C08D2F06
:103570000E94A3210E9481218C2F0E94DD1914C07A
:103580008D2F0E94B321F6CF8C2F0E942B1ADD23A2
:1035900059F080E28C0F883010F0C11117C08D2FC8
:1035A0000E94A9210E9481210850110904301105AF
:1035B00008F051C10E944B18DF91CF911F910F91DC
:1035C000FF90EF90DF90CF900C940E078D2F0E940C
:1035D000B921E8CF872F8F70907F903211F08295BC
:1035E000807FC13061F4222329F03630E8F60E9452
:1035F000791ADACF3530C0F60E94801AD5CF22234F
:1036000041F03323A1F340FFB7CF4F7015964C9391
:10361000EECF332389F3C93309F015C12FEF87EEBD
:1036200093E0215080409040E1F700C000008C2FD3
:103630000E942B1AB9CF872F86958695837061F0EB
:10364000813009F0B1CF862F9370211102C090E034
:1036500080E00E948618A8CF862F9370211102C0A7
:1036600090E080E00E9470189FCF862F222329F0DF
:103670000E949B0E0E946E0F97CF0E94F50EFACF0C
:10368000872F837009F044C021118ECF862F829539
:1036900086958770880F880F6F70C62ED12CF12CFD
:1036A000E12C082E04C0CC0CDD1CEE1CFF1C0A947F
:1036B000D2F740E050E0BA01C4FF0FC04FE050E045
:1036C00060E070E004C0440F551F661F771F8A95A5
:1036D000D2F74095509560957095292F269526959F
:1036E0002370CB01BA016C297D298E299F292230B4
:1036F00049F058F4213019F00E94BF1F55CF0E94A5
:10370000AD1F52CF0E94D11F4FCF0E94AB1F4CCF95
:103710008695222311F0872F8170882309F444CFE6
:103720008C2F829586958770880F880F6C2F6F700D
:10373000C62ED12CF12CE12C082E04C0CC0CDD1CA3
:10374000EE1CFF1C0A94D2F740E050E0BA01C4FF1F
:103750000FC04FE050E060E070E004C0440F551F20
:10376000661F771F8A95D2F74095509560957095A2
:10377000292F269526952370CB01BA016C297D2926
:103780008E299F29223049F058F4213019F00E94E7
:1037900084200ACF0E94722007CF0E94962004CF77
:1037A0000E94E71F01CFD72FDF70222329F08D2F32
:1037B0000E940D208C2F1BCF862F0E94801A8D2FE8
:1037C0000E942E20F1CE613F19F148F4603F91F044
:1037D000222369F13111D0CE892F8F711DC0623F34
:1037E000F1F0633FA9F72223F9F0872F8F710E9430
:1037F000F81FDACE222341F0353008F0D5CE892FDC
:103800008F710E945120D0CE363008F0CDCEF7CF48
:10381000872F8F712223A1F20E940D20C5CE872F02
:103820008F712223C9F3CCCF0E94F31FBDCE332367
:1038300079F0C93341F49FEF27EE83E091502040A7
:103840008040E1F7F2CE8FE39CE90197F1F7EDCEEE
:10385000892F8F71B5CFDF91CF911F910F91FF907D
:10386000EF90DF90CF9008950F931F93CF93DF9346
:10387000EC01688179818A810E9449218C010E9432
:10388000A8200E94AA1FB801CE01DF91CF911F91FD
:103890000F910C94871ACF93DF93EC018B819C815D
:1038A000892B29F08881998189238F3F19F4DF9131
:1038B000CF910895CE010E94EE058823C1F3CE0179
:1038C0000E94341CCE01DF91CF910C9467058823B0
:1038D00021F00E94B3210C9481210895882321F0C6
:1038E0000E94B9210C948121089590E080E00E940B
:1038F000701890E080E00E9486180E94C0210E940B
:10390000C3210E9481210E9495100C946E0F0E9489
:103910007B210C94751C0E94B0210C94871CE92F0C
:10392000E295EF70E250EE3070F4F0E0E75EFF4CAD
:103930000C94A92F803F19F020F4883E20F481E0F8
:103940000895843FE1F380E00895883EC0F3813F0D
:10395000D1F7F5CF93FB882780F908950E943F2186
:103960000C948F1CCF93DF9300D000D00F92CDB773
:10397000DEB70F900F900F900F900F90DF91CF91C7
:103980000895CF93DF9300D000D000D0CDB7DEB73D
:1039900026960FB6F894DEBF0FBECDBFDF91CF9154
:1039A00008951F93CF93DF93C091CC0216E08091CE
:1039B000CD028C1304C0DF91CF911F910895D0E008
:1039C0001C9FF0011D9FF00D1124E253FD4F40811B
:1039D000518162817381848195810E94C11C2196ED
:1039E000C770E5CF4091FE025091FF026091000345
:1039F0007091010380910203909103030C94C11C08
:103A00001F93CF93DF9380910303807FA9F480916C
:103A10000003882389F08091CC02C091CD0260918F
:103A2000FE027091FF02A0910103B0910203D62F14
:103A3000D72316E0C81304C0DF91CF911F910895DA
:103A400090E0109711F0DF3F19F401968770F2CFE4
:103A5000189F9001199F300D1124F901E253FD4F79
:103A600041814713F2CF40814613EFCF428141118C
:103A7000ECCF438154814A1B5B0B483C510528F72E
:103A8000809103038F70806180930303F901ED52ED
:103A9000FD4F80818F70806180838EEF92E00E9465
:103AA0004B1CDF91CF911F910C94D11CAF92BF9210
:103AB000CF92DF92EF92FF920F931F93CF93DF93FA
:103AC000CDB7DEB761970FB6F894DEBF0FBECDBF9E
:103AD0008C0185E0F801DE011D9601900D928A951A
:103AE000E1F7F80140815181E2808EEFC82E82E03B
:103AF000D82E60910103709102036115710509F4DC
:103B000061C19091FE022091FF02892F82238F3F95
:103B100009F458C1A380B480F0900003F501E61BBE
:103B2000F70BFF2009F4FCC080910303382F307F8E
:103B3000E83CF10508F0B2C0311179C0FE2C251324
:103B400023C0941321C0E1101FC08F708061809347
:103B500003030E94F21CC6010E944B1C80910303C8
:103B6000F80185838F2D61960FB6F894DEBF0FBEE6
:103B7000CDBFDF91CF911F910F91FF90EF90DF901C
:103B8000CF90BF90AF900895AB2829F0842F852364
:103B90008F3F09F033C180E0F82FF170DF2E80FFF6
:103BA0003CC08091CC022091CD0236E0821315C03A
:103BB0004D875E878D859E850E943F21292F229506
:103BC0002F702230F0F0243018F59F70F1F0F801DA
:103BD0009581907FD1F4D12C1EC090E0389FF001E8
:103BE000399FF00D1124E253FD4F6181651306C02A
:103BF0006081641303C062816E110FC001968770EB
:103C0000D5CF9F7011F0882331F3805E883018F390
:103C1000C8010E944B1CFD2CA5CFEE2009F4A2CFB9
:103C200080910303816080930303F12C9BCF2513C4
:103C300006C0941304C0F801EE2009F48DC04D872E
:103C40005E878D859E850E94AE1C882319F1EE202B
:103C500009F180910303803270F02091FE023091CF
:103C6000FF0238872F831986BB86AA868C87CE01F0
:103C700007960E944B1C86E0F801AEEFB2E001907F
:103C80000D928A95E1F70E94001D0E94F21CFF240C
:103C9000F39468CFC8010E944B1CF9CF311113C0B7
:103CA0007A2DB98AA88A6E2D89890E94B21C8EEF5E
:103CB00092E00E944B1C86E0F60111928A95E9F78A
:103CC0000E94F21CB2CF25130FC094130DC0E11057
:103CD0000BC0F8018583C8010E944B1C86E0F601E9
:103CE00011928A95E9F73ECF4D875E878D859E8537
:103CF0000E94AE1C882371F2EE2061F280910303D2
:103D0000803208F4B8CF2091FE023091FF023A834E
:103D100029831B82BD82AC828E83CE010196A9CFFE
:103D2000E83CF10508F041C0FE2CEE2009F4B2CFCA
:103D300025132AC0941328C08091030380FD1BC063
:103D4000982F907FC1F0F8018583903F31F0982F34
:103D5000907F905F8F70892B8583C8010E944B1CD8
:103D600086E0F801AEEFB2E001900D928A95E1F79E
:103D70000E94F21CF7CE86E0F801AEEFB2E00190AF
:103D80000D928A95E1F7EECE4D875E878D859E85F3
:103D90000E94AE1C81116FCF8091030381608093DC
:103DA0000303C8010E944B1CDDCE7A2DB98AA88A74
:103DB0006E2D89890E94B21C86E0F60111928A95C7
:103DC000E9F7D6CFEE2009F465CF4D875E878D8564
:103DD0009E850E94AE1CF82E882309F45BCF86E0F6
:103DE000F801AEEFB2E001900D928A95E1F78EEF07
:103DF00092E00E94D8190E94001DBACF81E08E2562
:103E0000CBCE1F93CF93DF93CDB7DEB72C970FB6F2
:103E1000F894DEBF0FBECDBF4F83588769877A877E
:103E20008B879C87CE0107960E94561D882369F0D8
:103E30008A859B85892B39F04F815885842F85236E
:103E40008F3F09F071C016E05FC086E0FE01379633
:103E5000DE01119601900D928A95E1F78A859B8586
:103E6000892B89F38F81988589238F3F61F3209176
:103E7000CD0230E0C9010196877099274091CC02AC
:103E80004817190671F40E948B1C1092CD021092F3
:103E9000CC0286E0EEEFF2E0DF011D928A95E9F7B1
:103EA000D2CF96E0929FD001939FB00D1124A253E0
:103EB000BD4FFE01319601900D929A95E1F78093E6
:103EC000CD020E94D11CBFCF819FC001112482531B
:103ED0009D4F0E94561D8823E9F0E091CC021E9F61
:103EE000F0011124E253FD4F4081518162817381C1
:103EF000848195810E94C11C8091CC0290E0019642
:103F0000877099278093CC028091CC029091CD024A
:103F10008913DACF2C960FB6F894DEBF0FBECDBF53
:103F2000DF91CF911F91089569857A858B859C8556
:103F30000E94C11C88CF08950C949B1F0E949C1F57
:103F400060935303709354038093550390935603E7
:103F50000C94751C08950C949E1F0F931F93009151
:103F60005303109154032091550330915603602B55
:103F7000712B822B932B1F910F910C949E1F0F93EB
:103F80001F930091530310915403209155033091D6
:103F9000560360237123822393231F910F910C9466
:103FA0009E1F0F931F930091530310915403209170
:103FB00055033091560360277127822793271F915D
:103FC0000F910C949E1F0C949B1F0C94E31F0E9456
:103FD000E51F60934F0370935003809351039093B8
:103FE00052030C94751C60E070E0CB010C94E71F49
:103FF0000F931F9341E050E060E070E08A019B0165
:1040000004C0000F111F221F331F8A95D2F7C90168
:10401000B8011F910F910C94E71F0F931F9341E07C
:1040200050E060E070E004C0440F551F661F771F2A
:104030008A95D2F780914F0390915003A09151033C
:10404000B09152038A019B01082B192B2A2B3B2B81
:10405000C901B8011F910F910C94E71F0F931F9393
:1040600041E050E060E070E004C0440F551F661F5F
:10407000771F8A95D2F7CB01BA016095709580952C
:10408000909500914F03109150032091510330916E
:10409000520360237123822393231F910F910C9469
:1040A000E71F0F931F9341E050E060E070E004C011
:1040B000440F551F661F771F8A95D2F780914F03D3
:1040C00090915003A0915103B09152038A019B013A
:1040D000082719272A273B27C901B8011F910F91EB
:1040E0000C94E71F0F931F9300914F0310915003FF
:1040F0002091510330915203602B712B822B932B13
:104100001F910F910C94E71F0F931F9300914F0382
:104110001091500320915103309152036023712379
:10412000822393231F910F910C94E71F0F931F93EA
:1041300000914F031091500320915103309152038D
:1041400060277127822793271F910F910C94E71FF7
:1041500008952AE0929F800D1124982F977041E0D6
:1041600001C0440F9A95EAF786958695869595E065
:10417000899FF0011124EC5FFC4F90E080E070E03B
:104180005191DF0111979B01082E02C036952795AA
:104190000A94E2F7217021952527242325272C93C3
:1041A00001968530910561F708952AE0929F800D70
:1041B0001124982F977086958695869525E0829F85
:1041C000F0011124EC5FFC4F50E040E080E02191D1
:1041D00030E0092E02C0369527950A94E2F7217047
:1041E0003327042E01C0220F0A94EAF7822B4F5F77
:1041F0005F4F4530510559F70895BF92CF92DF9236
:10420000EF92FF920F931F93CF93DF938C01C09097
:104210004F03D0905003E0905103F09052038091EF
:10422000530390915403A0915503B0915603C82AAB
:10423000D92AEA2AFB2ACFE1D0E0BC2ED701C60159
:104240000C2E04C0B695A795979587950A94D2F73A
:1042500080FD0EC0219788F7B12C8B2DDF91CF9177
:104260001F910F91FF90EF90DF90CF90BF90089536
:10427000B8018C2F0E941607019761F3EECFCF9300
:10428000DF93EC010E94FD20BE01DF91CF910C94E1
:1042900016071F93CF93DF93EB019091CB029923E5
:1042A00031F0CB01DF91CF911F910C943F218823F6
:1042B00079F0CB010E94FD20182F682FCE010E94BB
:1042C000A920BE01812FDF91CF911F910C94160779
:1042D000CB010E94D520182FF4CF682F809129019F
:1042E00090912A010C94B022682F8091290190911D
:1042F0002A010C94B2228091290190912A010C94F8
:10430000B422E0912901F0912A0180916103808318
:10431000E0912901F0912A01808190916003892B1D
:104320008083E0912901F0912A01808190915F03BF
:10433000892B80838091290190912A010C94571830
:1043400080916103089590916103892B80936103AB
:104350000895809590916103982390936103089547
:1043600010926103089590916003892B80936003FC
:104370000895809590916003982390936003089529
:1043800010926003089510925F03089580E00895ED
:104390006FEF7FEF90E080E00C94E22F90E080E000
:1043A0000E94BE2F21E08A3E9E4F09F020E0822F1E
:1043B000089582E090E00C94B62F83E090E00C9496
:1043C000B62FCF9384E090E00E94B62FC82F82E2F0
:1043D00090E00E94B62F982F8C2FCF910895CF9305
:1043E000C92F682F84E090E00E94C42F6C2F82E2D6
:1043F00090E0CF910C94C42FAB01BC018FE090E012
:104400000C94D62FAB01BC0183E190E00C94D62F25
:1044100060E070E0CB010C94022260E070E0CB0120
:104420000E94FC210C9408226AEE7EEF90E080E06E
:104430000E94E22F60E082E090E00E94C42F60E0E2
:1044400083E090E00E94C42F109253031092540313
:10445000109255031092560360E084E090E00E94B1
:10446000C42F60E082E290E00E94C42F60E085E00B
:1044700090E00E94C42F60E086E090E00E94C42F8C
:104480006FEF87E090E00E94C42F40E050E0BA0157
:1044900088E090E00E94D62F60E08DE090E00E94DE
:1044A000C42F40E050E0BA0188E190E00E94D62F8E
:1044B00060E087E190E00E94C42F40E050E0BA0144
:1044C0008CE190E00E94D62F70E060E080E290E006
:1044D0000E94E22F40E050E0BA0188E190E00E94A3
:1044E000D62F0C940D220C941422682F8EE090E0AD
:1044F0000C94C42F662349F0FC0132960896219152
:10450000261729F0E817F907D1F780E0089581E030
:1045100008959C01FC0132969FEF80E0419146177F
:1045200051F09F3F19F4411101C0982F8F5F8630E1
:10453000A9F79F3F09F40895290F311D97FD3A957A
:10454000F90162830895FC013296089621912613A1
:1045500003C0DF0111971C92E817F907B9F7089516
:104560000C9489220C94A322029626E0FC0111925D
:104570002A95E9F70895089508950C94BC22809136
:104580009F04843049F10E94BD2280E00E940E0702
:104590001092630388E190E020E40FB6F894A895A8
:1045A000809360000FBE2093600083B7817F84609A
:1045B00083BF83B7816083BF7894889583B78E7FEC
:1045C00083BF0FB6F894A8958091600088618093AE
:1045D0006000109260000FBE08950895CF930E946E
:1045E000BB220E944A0A0E94ED22C0E08C2F0E944A
:1045F0000F09892B31F4CF5FCC30C1F780E0CF9128
:10460000089581E0FCCF08950C9403230E948B1C35
:104610000E944B180E940E070C9404231F921FB691
:104620001F9211248F939F93AF93BF938091630345
:10463000811113C08091A6039091A703A091A803B4
:10464000B091A9034196A11DB11D8093A60390933B
:10465000A703A093A803B093A903BF91AF919F9123
:104660008F911F901FBE1F90189582E084BD93E02C
:1046700095BD9AEF97BD80936E0008952FB7F8947B
:104680008091A6039091A703A091A803B091A903DC
:104690002FBF08952FB7F8946091A6037091A703D8
:1046A0008091A8039091A9032FBF08959C014FB753
:1046B000F8948091A6039091A703A091A803B091CC
:1046C000A9034FBF821B930B089578941F921FB6C6
:1046D0001F9211248F939F93AF93BF938091A60352
:1046E0009091A703A091A803B091A9030196A11DE1
:1046F000B11D8093A6039093A703A093A803B09342
:10470000A903BF91AF919F918F911F901FBE1F90E2
:1047100018951092AA031092AB031092AC0310925A
:10472000AD030895CF92DF92EF92FF926B017C016F
:104730000E94180B81110EC00E944A23C61AD70A84
:10474000E80AF90AC092AA03D092AB03E092AC0344
:10475000F092AD03FF90EF90DF90CF9008950F930C
:104760001F930E94180B882321F01F910F910C9426
:104770004A230E944A230091AA031091AB0320917F
:10478000AC033091AD03600F711F821F931F1F9107
:104790000F91089587E797E79093010880930008A9
:1047A00088E19AE00FB6F894A895809360000FBE58
:1047B00090936000FFCF9093E5018093E40108950A
:1047C000881F8827881F089591E0883F08F490E0AB
:1047D000892F0895982F907F903BE9F040F490390D
:1047E000D1F0903AC1F09038B1F080E00895903D5A
:1047F00019F020F4903CC9F782E00895903E59F0FA
:10480000903F99F7815F8F3080F7E82FF0E0EA530F
:10481000FE4F8081089583E008950F93022F0F7754
:10482000242F2F776F70462F406BDC01ED91FC91A8
:1048300063E070E009950F9108950F93022F0F77B1
:10484000242F2F776F70462F4069DC01ED91FC918A
:1048500063E070E009950F9108950F93022F0F7791
:10486000242F2F776F70462F4068DC01ED91FC916B
:1048700063E070E009950F9108950F931F93411520
:1048800020E2520744F49A01305E4115504E2CF458
:1048900030E020E002C02FEF3FE38901000F012F3D
:1048A000001F110B11952F776F70462F406EDC01A2
:1048B000ED91FC9163E070E009951F910F910895CF
:1048C000FC01738362830895FC01758F648F0895E2
:1048D000CF93DF93EC011DA21FA21EA2BC01685D55
:1048E0007F4F40EC88519F4F0E9473261B821A8293
:1048F0001D821C821F821E82198618861B861A86BC
:104900001D861C861F861E86198A188A1B8A1A8A8B
:104910001D8A1C8A1F8A1E8A198E188E1B8E1A8E5B
:104920001D8E1C8E1F8E1E8E19A218A2DF91CF9194
:104930000895EF92FF920F931F93CF93DF93EA01B5
:104940008A01060F111D88519F4F7C01C017D107A6
:1049500039F4DF91CF911F910F91FF90EF9008955F
:104960006991C7010E947A26F1CFFC0171836083AF
:104970000895FC0171A360A30895AF92BF92CF92F6
:10498000DF92EF92FF920F931F93CF93DF9300D0AC
:104990000F92CDB7DEB77C016B01142FB22EA02E83
:1049A000DC0195968C9195978430A9F55A96ED91F6
:1049B000FC913097E9F1CB01019763E070E00E9430
:1049C000812FCB01880F991F860F971F4983BA82C9
:1049D0000B834C2D481B9E012F5F3F4FBC01C7012D
:1049E0000995D7015E96ED91FC91309731F00A2D33
:1049F0002B2D412FB601C70109950F900F900F90F5
:104A0000DF91CF911F910F91FF90EF90DF90CF90AA
:104A1000BF90AF9008956230710509F455C06330BE
:104A2000710599F06130710509F481C0D12CC12C58
:104A3000D7015C96ED91FC91309799F20A2D2B2DC0
:104A4000412FB601C7010995CCCF842F807F803AD2
:104A500011F148F48038D1F0803951F7D70114961C
:104A6000ED91FC910AC0803ED9F0803FF1F0803B8F
:104A7000F9F6D7011296ED91FC913097C9F2123FE9
:104A8000E9F02A2D4B2D612F6F701BC0D7011696B0
:104A9000ED91FC91F2CFD7011896ED91FC91EDCFFD
:104AA000D7011A96ED91FC91E8CF423F09F6D70164
:104AB0001C96ED91FC91309709F4BACF2A2D4B2D1D
:104AC00062EFC70109958DCF842F807F803DB1F0C3
:104AD000803FC9F0803C09F0ABCFD7011E96ED9125
:104AE000FC91309709F4A4CF812F8D7F4B2D612F3E
:104AF0006F70813F89F0C701099573CFD701509638
:104B0000ED91FC91EECF433F51F4D7015296ED91D8
:104B1000FC91309709F48CCF4B2D612FECCF413FA6
:104B200009F086CFD7015496ED91FC91F2CF842FF6
:104B30000E94E423882359F0D7015696ED91FC9109
:104B4000309709F475CF612FC70109954ACF163FF9
:104B500009F06ECFD7015896ED91FC91F1CFFF92FD
:104B60000F931F93CF93DF93EC01162F862F0E9494
:104B7000E423882391F0FDA081E08DA300E020E0F4
:104B8000412F61E070E0CE010E94BD24FDA2DF91C3
:104B9000CF911F910F91FF900895812F0E94E023E4
:104BA0004DA1882309F443C0443029F01AA381E0C1
:104BB00090E09FA38EA3812F0E94EA23813051F0C1
:104BC0008823A9F0823089F0833079F01DA21FA2DA
:104BD0001EA2DDCF8DA300E020E0412F61E070E058
:104BE000CE010E94BD241DA2D2CF8DA3D0CF103FF5
:104BF000B1F0173F59F72EA13FA1C90163E070E062
:104C00000E94812FFE01E80FF91F12A3B9016F5F07
:104C10007F4F7FA36EA30CA12BA14AA1E1CF84E01B
:104C20008DA31AA381E090E09FA38EA3B0CF44236D
:104C300009F4ADCF2EA13FA1C90163E070E00E944D
:104C4000812FFE01E80FF91F12A3B9016F5F7F4F9B
:104C50007FA36EA38130910569F0029709F097CF89
:104C60000CA12BA14AA1CE010E94BD248DA18430AC
:104C7000C9F68DCF00E0423009F089CFF2CFCF9254
:104C8000DF92EF92FF920F931F93CF93DF93EC018C
:104C9000E8A1F9A1309709F009956E0188EEC80ED8
:104CA000D11CC6010E94A92610E000E0E82EF12CDC
:104CB0000E151F0548F0DF91CF911F910F91FF90C6
:104CC000EF90DF90CF90089560E0C6010E94BD266E
:104CD000682FCE010E94AF2561E0C6010E94CD265B
:104CE0000F5F1F4FE5CFFC01428374836383118202
:104CF000108208951F93CF93DF93EC01162F0E942B
:104D0000E426482F298130E0C90101966A8170E0CC
:104D10000E94952F58815817190641F4842F0E943C
:104D2000E72680E0DF91CF911F9108958B819C81D0
:104D3000280F391FF9011083898190E001966A815B
:104D400070E00E94952F8983842F0E94E72681E0DE
:104D5000E9CFCF93DF93EC010E94E426998128816B
:104D6000921740F0C92FC21B0E94E7268C2FDF91BB
:104D7000CF910895CA819C0FF5CFFC018081860FE9
:104D80009927991F628170E00E94952F23813481B9
:104D9000280F391FF901808108951F93CF93DF9366
:104DA000EC01162F0E94E426282F8881810F992775
:104DB000991F6A8170E00E94952F8883822FDF916E
:104DC000CF911F910C94E7268FB7F89408958FBF69
:104DD0000895089508950F931F93CF93DF9300D004
:104DE00000D000D00F92CDB7DEB78C01CE01019676
:104DF0000E949E2981110BC027960FB6F894DEBF42
:104E00000FBECDBFDF91CF911F910F9108958A8181
:104E10000E94EA239A819D839B819E839C819F832C
:104E200081110AC08981843079F0873069F0863039
:104E300069F08530D9F681E0AE014B5F5F4F682F96
:104E4000C8010E949924D2CF83E0F6CF82E0F4CF4C
:104E5000DF92EF92FF920F931F93CF93DF9300D0D7
:104E600000D0CDB7DEB77B01142FD22E4A832B831F
:104E70000C83842F0E94EA23811129C082E0E81666
:104E8000F10401F183E0E816F10439F0EA94EF2827
:104E900069F485E0173F21F404C087E0073F09F07B
:104EA00084E08983CE0101960E9499290F900F908A
:104EB0000F900F90DF91CF911F910F91FF90EF9086
:104EC000DF90089587EFD812EBCF86E0EACF1295F6
:104ED0001F701983E7CF0E94460B8EEA93E00E9471
:104EE000682468E277E28EEA93E00E94B5246BEED4
:104EF00076E28EEA93E00E94B92469EE76E28EEAC9
:104F000093E00E9464246AEE76E28EEA93E00C94C9
:104F100060249B0140919F044430C1F4FC019181C5
:104F20009F709093E90050E040E064E070E0C901B8
:104F30000E948F2A81110BC09091E80095FD07C057
:104F40009091E8009E779093E800089582E008959C
:104F500020919F04243091F4FC0181818F70809313
:104F6000E9009091F3008091F200892B49F0809143
:104F7000E8008E778093E8000C943D2C82E0089541
:104F800080E00895FC0180919F04843059F4918160
:104F90009F709093E9008091E80080FF03C0CF01EB
:104FA0000C94A82708959B0140919F04443011F070
:104FB00080E00895FC0196819F709093E9008091B4
:104FC000E80082FFF5CF8091E80085FFF1CF50E047
:104FD00040E064E070E0C9010E94DE2A8091E800B0
:104FE00085FD05C08091E8008B778093E80081E023
:104FF000089580916C030895CF93DF9300D00F92B2
:10500000CDB7DEB790919F04943011F589837B83EF
:105010006A839093E9008FEF9091E800815095FDAD
:1050200006C095ED9A95F1F700008111F5CF8091BA
:10503000E80085FF0DC050E040E063E070E0CE0185
:1050400001960E948F2A8091E8008E778093E80075
:105050000F900F900F90DF91CF910895BC0184E0E5
:105060000C94FC27BC0183E00C94FC279C0184E099
:105070008093E9009FEF8091E800915085FD06C084
:1050800085ED8A95F1F700009111F5CF8091E80048
:1050900085FF0CC050E040E066E070E0C9010E946E
:1050A0008F2A8091E8008E778093E8000895CF934F
:1050B000DF93EC0181E08093E9008FEF9091E800AD
:1050C000815095FD06C095ED9A95F1F7000081118C
:1050D000F5CF8091E80085FF14C050E040E068E023
:1050E00070E0CE010E948F2A8091E8008E77809335
:1050F000E80088E0FE01A4E6B3E001900D928A95F5
:10510000E1F7DF91CF910895CF93FC01603221F553
:1051100080919F04843001F5C091E900CF70209107
:10512000EC00922F917020FD90E8C92B82E08093D3
:10513000E9008091E80080FF0CC050E040E060E2B0
:1051400070E0CF010E948F2A8091E8008E778093D3
:10515000E800CF70C093E900CF91089580919E043C
:10516000811109C00E946E2C0E94CB2C8091E2001C
:1051700084608093E200089510929E04089508953B
:105180000895089542E061EC81E00E94EA2B42E23A
:1051900061EC84E00E94EA2B42E261EC82E00E9432
:1051A000EA2B42E260EC83E00E94EA2B42E361E8F2
:1051B00085E00E94EA2B42E361E886E00C94EA2B4A
:1051C0008091A104833009F461C030F48130D1F1C1
:1051D000823009F49DC008958A3009F489C08B306B
:1051E00009F46FC0893009F050C08091A004813269
:1051F00009F04BC08091A4049091A504009719F088
:10520000029709F042C08091E800877F8093E80010
:105210008091E80082FF35C09091F3008091F20008
:10522000029729F48091F1008B7F813021F48091E5
:10523000F10080936C038091E8008B778093E80005
:105240000C941E2C8091A004813AF9F48091E8001E
:10525000877F8093E8008091A4049091A504892B16
:1052600061F468E084E693E070E00E942D2B809169
:10527000E8008B778093E800089560E090E080E09C
:10528000F3CF80919F048111C3CF08958091A00432
:10529000813AD9F78091A4049091A504892BA9F7AC
:1052A0008091E800877F8093E8008091E80080FF8C
:1052B000FCCF809141018093F1008091E8008E77CE
:1052C000BDCF8091A004813201F78091A404909118
:1052D000A504892BD1F68091E800877F8093E800B0
:1052E0000E941E2C8091A204809341010C948B1C7F
:1052F0008091A004813249F68091E800877F8093F5
:10530000E8000E941E2C8091A30480936D030895F1
:105310008091A004813A09F0B8CF8091E800877F9E
:105320008093E8008091E80080FFFCCF80916D03BE
:10533000C2CFBC018BE291E00C948927BC018BE2C7
:1053400091E00C94D327CDB7DEB7A0970FB6F894B1
:10535000DEBF0FBECDBF0E946B2784B7877F84BF9F
:105360000FB6F894A89580916000886180936000E2
:10537000109260000FBE80E890E00FB6F894809322
:105380006100909361000FBE0E94CF180E946E2CA6
:105390000E94CB2C8091E20084608093E20078949C
:1053A0000E94542F0E94E11887E391E00E94461862
:1053B00013E080919F048530D9F00E94ED188BE2B4
:1053C00091E00E94C22780919F048430C1F00E9426
:1053D000DD18EFCF0E94BF2280919D04882341F009
:1053E0000E94EE22882321F00E94792A0E948B1CC1
:1053F00080919F04853071F30E940623DECF1093C5
:10540000E9008091E80082FFE2CF8091E80090E01F
:1054100085FF09C050E040E060E270E0CE010196F7
:105420000E94DE2A91E08091E8008B778093E8006B
:10543000992369F260E2CE0101960E944412C7CF1F
:105440000C94222A292F33272330310521F168F4C7
:105450002130310509F443C02230310509F444C03C
:1054600090E080E030E020E026C02132310551F1AB
:1054700022323105A9F76330710590F7FB01EE0F79
:10548000FF1FE852FE4F208131816B527E4FFB019E
:10549000808190E010C099278130910581F00097BC
:1054A00029F00297E9F6ECE2F4E002C0E4E5F4E06A
:1054B000849190E09F01FA01318320830895E4E410
:1054C000F4E0F6CF6330710558F6660F771FFB01E5
:1054D000E252FE4F2081318189E090E0ECCF82E101
:1054E00090E027E135E0E7CF8FEB90E028E534E06E
:1054F000E2CF80E189BD82E189BD09B400FEFDCF24
:105500008091D8008F7D8093D8008091E0008260E8
:105510008093E0008091E00081FDFCCF0895AF9280
:10552000BF92CF92DF92FF920F931F93CF93DF939F
:105530006C01EB018A010E943D2CF82E811123C0E1
:105540000115110539F0F80180819181C81BD90B33
:10555000C80ED91EB12CA12C2097A9F08091E8008B
:1055600085FD22C08091E8008E778093E8000115C8
:105570001105A1F0F80180819181A80EB91EB182B8
:10558000A08285E0F82E8F2DDF91CF911F910F9192
:10559000FF90DF90CF90BF90AF9008950E943D2C78
:1055A0008823D1F2F82EEFCFF60181916F0180931D
:1055B000F1002197FFEFAF1ABF0ACECFAF92BF9293
:1055C000CF92DF92FF920F931F93CF93DF936C01E3
:1055D000EB018A010E943D2CF82E811123C0011598
:1055E000110539F0F80180819181C81BD90BC80ED3
:1055F000D91EB12CA12C2097A9F08091E80085FD3F
:1056000022C08091E8008B778093E8000115110596
:10561000A1F0F80180819181A80EB91EB182A0820B
:1056200085E0F82E8F2DDF91CF911F910F91FF9084
:10563000DF90CF90BF90AF9008950E943D2C8823BB
:10564000D1F2F82EEFCF8091F100F60181936F0136
:105650002197FFEFAF1ABF0ACECFFC018091A604BD
:105660009091A70486179707A0F06115710529F49A
:105670009091E8009E779093E80090E061157105A5
:1056800051F4911108C08091E80082FF34C080E09D
:105690000895BC01F2CF80919F048823C1F1853029
:1056A000C1F18091E80083FD30C08091E80082FD67
:1056B000EACF8091E80080FFE1CF8091F300209154
:1056C000F200382F6115710519F02830310558F0B6
:1056D00091E02830310509F090E02091E8002E7724
:1056E0002093E800CBCF81918093F1006150710944
:1056F0002F5F3F4FE7CF80919F04882341F0853093
:1057000041F08091E80083FFBECF81E0089582E000
:10571000089583E00895FC018091A6049091A70468
:1057200086179707A0F06115710529F48091E800AC
:105730008E778093E80090E06115710551F4911126
:1057400008C08091E80082FF35C080E00895BC0168
:10575000F2CF80919F048823C9F18530C9F18091EF
:10576000E80083FD31C08091E80082FDEACF80919E
:10577000E80080FFE1CF8091F3002091F200382F04
:105780006115710519F02830310558F091E0283085
:10579000310509F090E08091E8008E778093E80071
:1057A000CBCF84918093F1003196615071092F5FC6
:1057B0003F4FE6CF80919F04882341F0853041F030
:1057C0008091E80083FFBDCF81E0089582E00895D5
:1057D00083E00895982F973028F08F708093E90028
:1057E00081E008959093E900242F762F50E09817D8
:1057F00031F07091EC002091ED005091F00021FD0E
:1058000002C09F5FE8CF3091EB003E7F3093EB000A
:105810003091ED003D7F3093ED003091EB00316031
:105820003093EB007093EC002093ED005093F00068
:105830002091EE0027FDE5CF80E008958091A0043F
:1058400087FF13C08091E80082FF06C08091E800C6
:105850008B778093E80004C080919F048111F2CF80
:10586000089580919F048823D9F38091E80080FFF8
:10587000F8CF8091E8008E77ECCF2091E400309152
:10588000E50095E6A9012091EC00822F817020FFB0
:1058900006C08091E80080FF06C080E00895209156
:1058A000E80022FD1AC080919F04882389F085308A
:1058B00089F08091EB0085FD0FC02091E4003091CC
:1058C000E50042175307F9F29150E1F684E008959C
:1058D00082E0089583E0089581E008950E94DC2C21
:1058E0000E94E42CE0EEF0E0808181608083E8EDAE
:1058F000F0E080818F77808319BCA7EDB0E08C91B8
:105900008E7F8C9380818F7E808310929E04089579
:105910000F931F93CF93DF930E94DC2C0E94E42C03
:10592000C8EDD0E088818F778883888180688883FC
:1059300088818F7D888319BC10929F0410929B04EC
:1059400010929D0410929C0400EE10E0F8018081FA
:105950008B7F808388818160888342E060E080E083
:105960000E94EA2BE1EEF0E080818E7F8083E2EE00
:10597000F0E0808181608083808188608083F8018D
:1059800080818E7F8083888180618883DF91CF9141
:105990001F910F910895E8EDF0E080818F7E808364
:1059A000E7EDF0E080818160808384E082BF81E068
:1059B00080939E040C94882CE8EDF0E080818E7F2B
:1059C00080831092E20008951092DA001092E100B4
:1059D00008951F920F920FB60F9211242F933F93A9
:1059E0004F935F936F937F938F939F93AF93BF93E7
:1059F000EF93FF938091E10082FF0BC08091E20062
:105A000082FF07C08091E1008B7F8093E1000E94BC
:105A1000532F8091DA0080FF19C08091D80080FF59
:105A200015C08091DA008E7F8093DA008091D900D2
:105A300080FF96C080E189BD82E189BD09B400FE86
:105A4000FDCF81E080939F040E94AE288091E10009
:105A500080FF19C08091E20080FF15C08091E200B4
:105A60008E7F8093E2008091E20080618093E2006B
:105A70008091D80080628093D80019BC85E0809323
:105A80009F040E94C0288091E10084FF2BC0809178
:105A9000E20084FF27C080E189BD82E189BD89B52C
:105AA000982F917080FFFBCF8091D8008F7D8093DD
:105AB000D8008091E1008F7E8093E1008091E20028
:105AC0008F7E8093E2008091E20081608093E2000B
:105AD00080919B04882309F449C084E080939F044B
