:100000000C9403030C944A030C944A030C947F2A27
:100010000C944A030C944A030C944A030C944A032C
:100020000C944A030C944A030C94E9210C94A521E6
:100030000C94E6220C944A030C944A030C944A0351
:100040000C944A030C944A030C944A030C944A03FC
:100050000C944A030C94C2220C944A030C944A0355
:100060000C944A030C944A030C944A030C944A03DC
:100070000C944A030C944A030C944A030C944A03CC
:100080000C944A030C944A030C944A030C944A03BC
:100090000C944A030C944A030C944A030C944A03AC
:1000A0000C944A030C944A030C944A030501090278
:1000B000A10185020901A1000509190129081500FE
:1000C0002501950875018102050109300931158165
:1000D000257F95027508810609381581257F9501D0
:1000E00075088106050C0A38021581257F95017572
:1000F000088106C0C005010980A101850319012AF4
:10010000B700150126B700950175108100C0050CD8
:100110000901A101850419012AA002150126A002E6
:10012000950175108100C00660FF0961A101096297
:10013000150026FF00952075088102096315002629
:10014000FF00952075089102C005010906A101056F
:100150000719E029E7150025019508750181029529
:1001600001750881010507190029FF150026FF0008
:100170009506750881000508190129059505750181
:100180009102950175039101C0000000000000007C
:10019000000000000000000000000000000000005F
:1001A000000000000000000000000000007E0F00C2
:1001B000D4FFFFFFC700000078000000000000002F
:1001C000002A2B28000000000000000000000000B2
:1001D0000000000029000000002C1E3420212224F1
:1001E000342627252E362D3738271E1F202122237F
:1001F0002425263333362E37381F04050607080911
:100200000A0B0C0D0E0F10111213141516171819D6
:100210001A1B1C1D2F3130232D3504050607080934
:100220000A0B0C0D0E0F10111213141516171819B6
:100230001A1B1C1D2F3130354CA65DB25DBE5DCA48
:100240005DD65DAB5DB75DC35DCF5DDB5DAD5DB9BB
:100250005DC55DD15DDD5DB05DBC5DC85DD45DE05B
:100260005DA85DB45DC05DCC5DD85DA95DB55DC1C7
:100270005DCD5DD95DAF5DBB5DC75DD35DDF5DAE5F
:100280005DBA5DC65DD25DDE5DAA5DB65DC25DCE66
:100290005DDA5DA75DB35DBF5DCB5DD75DA55DB18B
:1002A0005DBD5DC95DD55DAC5DB85DC45DD05DDC37
:1002B0005D4F5C525C555C585C5B5C5E5C615C00F5
:1002C00000AA00A9004E5C515C545C575C5A5C5D0E
:1002D0005C605C0000000000004D5C505C535C56AC
:1002E0005C595C5C5C5F5C0000000000000000A8E2
:1002F00042705C6D5C6A5C675C645C0000000000DE
:10030000000000725C6F5C6C5C695C665C635C0046
:1003100000000000000000715C6E5C6B5C685C6556
:100320005C625C000000000000165C2B003900E1FC
:1003300000E0002A004C002800E500E4001E001444
:100340000004001D00E3002700130033003800E71D
:10035000001F001A0016001B00E200260012000F0A
:10036000003700E600200008000700060091002585
:10037000000C000E00360090002100150009001945
:10038000002C00240018000D0010002C0022001783
:10039000000A0005002C0023001C000B0011002C9B
:1003A0000014001A000800150017001C00180000B7
:1003B0000001000100E00004001600070009000A27
:1003C000000B00000000000000165CE2001D001B96
:1003D00000060019000500000000000000000001F8
:1003E000002A002D00130012000C00000000000085
:1003F0000000002800340033000F000E000D000044
:1004000000000000000000E5002C0037003600105E
:100410000011000000000000000052015200000026
:1004200000000000000000000000000000000000CC
:1004300000000000000000000000000000000000BC
:1004400000000000000000000000000000000000AC
:10045000000000000000000000000000000000009C
:10046000000000000000000000000000000000008C
:10047000000000000000000000000000000000007C
:10048000000000000000000000000000000000006C
:10049000000000000000000000000000000000005C
:1004A00000000000000052000000000000000000FA
:1004B00000000000000000000001000152000000E8
:1004C000000000000000000000000000000000012B
:1004D000000000000000000000000000000000001C
:1004E000000000000000000000000000000000000C
:1004F00000000000000000000000000000000000FC
:100500000000000000000000000902BF000501001B
:10051000A0FA0904000001030101000921110100F2
:10052000012240000705810308000A0904010002B6
:1005300003000000092111010001222200070582A9
:100540000320000107050303200001090402000144
:1005500003000000092111010001227B000705842E
:100560000320000A080B0302010100000904030034
:10057000000101000009240100010900010409042F
:1005800004000201030000072401000141000624C9
:1005900002010100062402020200092403010301F2
:1005A00002010009240302040101010009050602F9
:1005B00040000500000525010101090585024000F4
:1005C00005000005250101031201000200000008DA
:1005D000EDFEB0F40100010200011603670069009E
:1005E0006100620061006C0061006E0061006900E2
:1005F00000000E03330061007200610068007400A7
:1006000000000403090411241FBECFEFDAE0DEBFAF
:10061000CDBF04B603FE27C08091D5049091D604C7
:10062000A091D704B091D8048730904BA740B04B2D
:10063000D1F41092D5041092D6041092D7041092DF
:10064000D80414BE84B7877F84BF0FB6F894A895EA
:1006500080916000886180936000109260000FBEFE
:10066000E0E0F8E3099511E0A0E0B1E0EEE7F9E59C
:1006700002C005900D92A83DB107D9F724E0A8ED7E
:10068000B1E001C01D92A53DB207E1F70E940D2324
:100690000C94862C0C9400000F93262F2F778F70CC
:1006A0008068E091E803F091E903042F482F63E0AC
:1006B00070E088EE93E009950F9108950F93262F2F
:1006C0002F778F708069E091E803F091E903042FA0
:1006D000482F63E070E088EE93E009950F9108954C
:1006E000AF92BF92CF92EF920F931F93CF93DF936E
:1006F000182FD091E503DF7750E0CA0188559C4F51
:100700005C01FC01C081FB018281882369F1CF3F3C
:1007100011F5C091E4039C2F9F70C595C595C595B3
:10072000C595CF52FCE09F9FC00D1124C20F602FD2
:100730006C0F4D2F812F0E945E036E2D6C0F4D2F7D
:10074000812F0E945E036C2D6C0F4D2F812F0E9414
:100750005E03F501C083DF91CF911F910F91EF9060
:10076000CF90BF90AF900895CF3F91F0602F6C0F66
:100770004D2F812F0E944C036E2D6C0F4D2F812F1A
:100780000E944C036C2D6C0F4D2F812F0E944C0347
:100790008FEFF5018083DFCF0F931F939B01305EB6
:1007A0008901000F012F001F110B11952F77482F82
:1007B000406EE091E803F091E90363E070E088EEB9
:1007C00093E009951F910F9108950F93262F042F01
:1007D0000F77482F406BE091E803F091E90363E065
:1007E00070E088EE93E009950F910895CF92DF9223
:1007F000EF92FF920F931F93CF93DF9300D00F924E
:10080000CDB7DEB77C01162FD42EC22E80910D04F9
:100810008430B9F5E0910204F0910304309709F4B3
:1008200040C0C701019763E070E00E94F92BCB0143
:10083000880F991F860F971F19834A83CB824E2DED
:10084000481B9E012F5F3F4FBC0188EE93E0099546
:10085000E0910604F0910704309739F00C2D2D2D0E
:10086000412FB70188EE93E009950F900F900F90FC
:10087000DF91CF911F910F91FF90EF90DF90CF907C
:10088000089582E0E816F10409F45AC083E0E816FE
:10089000F104A9F081E0E816F10409F484C0F12C18
:1008A000E12CE0910404F0910504309789F20C2DBD
:1008B0002D2D412FB70188EE93E00995C9CF862FE2
:1008C000807F803A11F188F48038D1F0E091EC0318
:1008D000F091ED03803929F7309719F3123F49F170
:1008E0002C2D4D2D612F6F7027C0803E99F0803FD9
:1008F000B1F0E091EA03F091EB03803B91F6ECCF8D
:10090000E091EE03F091EF03E7CFE091F003F09177
:10091000F103E2CFE091F203F091F303DDCF623F08
:1009200009F0BFCFE091F403F091F503309709F49B
:10093000B8CF2C2D4D2D62EF88EE93E0099588CF2E
:10094000862F807F803DB9F0803FD1F0E091F603A3
:10095000F091F703803C09F0A4CF309709F4A1CFC0
:10096000812F8D7F4D2D612F6F70813FC9F088EEF3
:1009700093E009956DCFE091F803F091F903EDCF85
:10098000E091FA03F091FB03633F39F0613F09F016
:1009900088CFE091FC03F091FD03309709F481CFFB
:1009A0004D2D612FE4CFE091FE03F091FF03683FEE
:1009B00038F4663F09F075CFE0910004F09101042E
:1009C000309709F46ECF612F88EE93E0099540CF00
:1009D000E8EDF0E080818E7F80831092E20010923B
:1009E000DA001092E100A0EEB0E08C9181608C936F
:1009F00080818F77808319BCA7EDB0E08C918E7FCA
:100A00008C9380818F7E808310928D030895209136
:100A1000E4003091E50095E6A9012091EC00822FD9
:100A2000817020FF06C08091E80080FF06C080E052
:100A300008952091E80022FD1AC080919A0388232E
:100A400089F0853089F08091EB0085FD0FC0209101
:100A5000E4003091E50042175307F9F29150E1F6B6
:100A600084E0089582E0089583E0089581E0089588
:100A7000EF92FF920F931F93CF937C018B010E9403
:100A80000705C82F811117C08091E80085FD0BC0B4
:100A90008091E8008E778093E8000E940705882304
:100AA00099F3C82F08C0F70181917F018093F1006D
:100AB0000150110949F78C2FCF911F910F91FF9091
:100AC000EF900895EF92FF920F931F93CF937C01C5
:100AD0008B010E940705C82F811117C08091E80083
:100AE00085FD0BC08091E8008B778093E8000E9421
:100AF0000705882399F3C82F08C08091F100F701FA
:100B000081937F010150110949F78C2FCF911F91DB
:100B10000F91FF90EF90089580919C0387FF13C081
:100B20008091E80082FF06C08091E8008B77809377
:100B3000E80004C080919A038111F2CF089580915A
:100B40009A038823D9F38091E80080FFF8CF809141
:100B5000E8008E77ECCF982F9093E900242F762F22
:100B600050E0891731F07091EC002091ED00509128
:100B7000F00021FD07C09F5F973071F78093E90077
:100B800081E008953091EB003E7F3093EB0030918F
:100B9000ED003D7F3093ED003091EB0031603093FC
:100BA000EB007093EC002093ED005093F000209147
:100BB000EE0027FDE0CF80E00895CF92DF92EF9224
:100BC000FF920F931F93CF93DF93C8EDD0E08881FE
:100BD0008F7E8883E7EDF0E080818160808384E010
:100BE00082BF81E080938D0388818E7F888302EEAF
:100BF00010E0F80110821092DA0081EEC82ED12C9C
:100C0000F601108288818F77888388818068888345
:100C100088818F7D888319BC10929A0310929B0360
:100C2000109299031092980390EEE92EF12CF7019F
:100C300080818B7F808388818160888342E060E04F
:100C400080E00E94AB05F60180818E7F8083F801F1
:100C5000808181608083808188608083F7018081CA
:100C60008E7F8083888180618883DF91CF911F91FF
:100C70000F91FF90EF90DF90CF900895FC0180914D
:100C8000A2039091A30386179707A0F06115710541
:100C900029F49091E8009E779093E80090E0611528
:100CA000710551F4911108C08091E80082FF34C0B1
:100CB00080E00895BC01F2CF80919A038823C1F1AE
:100CC0008530C1F18091E80083FD30C08091E8005B
:100CD00082FDEACF8091E80080FFE1CF8091F300B0
:100CE0002091F200382F6115710519F02830310577
:100CF00058F091E02830310509F090E02091E800AB
:100D00002E772093E800CBCF81918093F100615042
:100D100071092F5F3F4FE7CF80919A03882341F0FD
:100D2000853041F08091E80083FFBECF81E00895D7
:100D300082E0089583E00895089580918F030895D7
:100D400008950895982F907F903BE9F040F49039F2
:100D5000D1F0903AC1F09038B1F080E00895903D24
:100D600019F020F4903CC9F782E00895903E59F0C4
:100D7000903F99F7815F8F3080F7E82FF0E0E754DC
:100D8000FE4F8081089583E00895FF920F931F9393
:100D9000CF93DF9300D000D000D00F92CDB7DEB755
:100DA0008C0108511F4F80919A03843009F06CC068
:100DB00080915D018F708093E9008091E80082FF4F
:100DC00063C08091E80085FF5FC050E040E064E0D0
:100DD00070E0CE0101960E9462058091E80085FDD9
:100DE00005C08091E8008B778093E800FA808F2D12
:100DF0000E94A206282FFD828B818E838C818F8397
:100E000021110AC08981843039F1873029F1863077
:100E100029F121E0853039F630E0E5E0F0E0EC0F33
:100E2000FD1FE30FF11DF0804FB7F894D801119624
:100E3000EC911197F0E0CF01019612966C9170E061
:100E40000E940D2CD8015C915817190649F44FBF28
:100E50003F5F321710F3A7CF23E0DECF22E0DCCFD5
:100E600013968D919C911497E80FF91FF0821196BB
:100E70008C91119790E0019612966C9170E00E940F
:100E80000D2CF8018183E3CF27960FB6F894DEBFCF
:100E90000FBECDBFDF91CF911F910F91FF900895AD
:100EA000DF92EF92FF920F931F93CF93DF9300D0C7
:100EB00000D0CDB7DEB77B01142FD22E4A832B830F
:100EC0000C83842F0E94A206811141C082E0E816A3
:100ED000F104C1F183E0E816F10439F0EA94EF2857
:100EE00029F5173F29F485E004C087E0073F09F0A2
:100EF00084E0898380919A038430C1F48091580101
:100F00008F708093E90050E040E064E070E0CE0133
:100F100001960E943805811109C08091E80085FD85
:100F200005C08091E8008E778093E8000F900F90C5
:100F30000F900F90DF91CF911F910F91FF90EF9045
:100F4000DF90089587EFD812D3CF86E0D2CF1295E5
:100F50001F701983CFCF87E797E79093010880939D
:100F6000000888E19AE00FB6F894A8958093600095
:100F70000FBE90936000FFCF9C014FB7F894809113
:100F8000860390918703A0918803B09189034FBF96
:100F9000821B930B08952FB7F8946091860370918C
:100FA000870380918803909189032FBF08952FB7FD
:100FB000F8948091860390918703A0918803B09163
:100FC00089032FBF08959C01FC0132969FEF80E0BA
:100FD0004191461751F09F3F19F4411101C0982FDC
:100FE0008F5F8630A9F79F3F09F40895290F311DBF
:100FF00097FD3A95F901628308952091830330911A
:1010000084032817390771F0909384038093830336
:10101000E0918103F0918203309721F00084F18503
:10102000E02D0994089520917F03309180032817C3
:10103000390771F09093800380937F03E0918103DF
:10104000F0918203309721F00680F781E02D09941A
:101050000895FC01680F791F8FEF91E3219182279A
:1010600028E030E087FF09C0880F89272150310927
:10107000C9F7E617F70791F70895880FF7CF0E9491
:10108000D7079C0190917B0380917C03982B21F0E2
:10109000309378032093770390917D0380917E03B2
:1010A000982B21F03093760320937503E091810310
:1010B000F0918203309749F082E0809379030480B5
:1010C000F581E02D89E793E00994089540917B0331
:1010D000803F59F480917C0387FF0DC010927C0300
:1010E00041110BC01092730308C0813F81F48091BD
:1010F0007C0318169CF3442381F080917D0390912A
:101100007E03892B09F05AC0109272030895823F22
:1011100049F447FFF0CF10927B0380917C0381114B
:10112000ECCFE0CF833F19F41416ACF3E4CF9091E9
:101130007D03893F29F41916F4F610927D03DBCF65
:101140008A3F19F497FFD7CFF8CF90917E038B3F5A
:1011500029F497FFD0CF10927E03CDCF8C3F19F4A6
:101160001916CCF3C8CF9CE0980F953090F4845FAB
:10117000990B21E030E0B90102C0660F771F8A9514
:10118000E2F7CB01809590917A03892380937A03CB
:10119000B2CF8D3F31F4809174038E7F80937403BE
:1011A000AACF8E3F21F4809174038D7FF7CF8F3FBC
:1011B00009F0A1CF809174038B7FF0CF08958091C7
:1011C000740380FD16C081FD16C082FD16C080919B
:1011D00072038823A1F0883280F428E0829FC00146
:1011E000112468E270E00E940D2C862F672B39F0E5
:1011F000089582E0089584E0089588E0089581E0EC
:1012000008958091740380FD14C081FD14C082FD97
:1012100016C080917303882381F0843180F422E327
:10122000829FC001112464E170E00E940D2C862F82
:1012300008958CE0089589E1089585E0089582E39A
:101240000895803F31F40E940109819580937C03C9
:101250000895813F19F40E940109F8CF823F31F4CB
:101260000E940109819580937B030895833F19F4BF
:101270000E940109F8CF893F29F40E94DF0880937A
:101280007D0308958A3F21F40E94DF088195F7CFFE
:101290008B3F31F40E94DF08819580937E0308958F
:1012A0008C3F19F40E94DF08F8CF9CE0980F95302E
:1012B00070F4845F990B21E030E001C0220F8A9521
:1012C000EAF780917A03822B80937A0308958D3F09
:1012D00031F48091740381608093740308958E3F8C
:1012E00021F4809174038260F7CF8F3FB9F780912A
:1012F00074038460F1CF80E0089578940895F894A1
:10130000E82FE295EF70F0E031A1282F2F7081E0F7
:1013100090E001C0880F2A95EAF7982F90959323C3
:1013200091A392A1892B82A30C947D0990911A0319
:1013300092FF06C0282F28712830F9F4877F846037
:1013400093FF06C0282F28712831F1F4877E84612D
:1013500020911B0320FF06C0382F38713830D9F494
:10136000877F816021FF06C0282F28712831D1F4A2
:10137000877E816194FD877E0895282F2471243013
:10138000F9F68B7F8860DCCF282F2471243101F798
:101390008B7E8861DDCF382F3171313019F78E7F28
:1013A0008860E0CF282F2171213121F78E7E88615E
:1013B000E1CFCF93DF93EC018238910581F1B0F555
:1013C0008133910509F491C020F58932910509F422
:1013D00085C08A9709F490C0C11520E5D20708F0AE
:1013E000A7C0C11530E4D30708F0F6C0CF3BD10544
:1013F00008F089C0C83AD10508F0E1C0C53AD10566
:1014000008F0D5C0C430D105F8F4C130D105E1F001
:1014100040C08533910509F45AC0C997E9F6809117
:101420001A03837089F0C0EED0E00EC0833E9105B0
:1014300099F170F4803E910501F1823E910561F6CB
:1014400080911A0382FD21C0CE01DF91CF910895D2
:10145000863E910561F1873E910571F1843E9105CB
:1014600009F0BACF80911B0381FFEECF80911A0360
:10147000C7EED0E084FD0DC0E7CF80911A0380FD58
:10148000FEC090911B0390FFDFCFC3EED0E084FF3E
:10149000DBCFD0E0C0E0D8CF80911A0382FDF2C04C
:1014A00090911B0390FDBFCF84FFCECFF2CF8091F0
:1014B0001A0383FDDDCFC8CF80911A0383FDE5C0F9
:1014C00090911B0391FFF0CFC4EED0E0BDCF80918F
:1014D0001A0385FFB9CFC9E2D0E0B6CF80911A03D5
:1014E00085FFB2CFC5E3D0E0AFCF80911A0386FF6E
:1014F000ABCFCAE2D0E0A8CF80911A0386FFA4CF79
:10150000C1E3D0E0A1CFCF3FD10509F058F4C03FEF
:10151000D10508F05FC0CE01815E9109079708F4FC
:1015200093CFB7CFC11540E2D40708F48DCFB1CF28
:10153000C11584E5D807A0F4C11593E5D90708F0D3
:101540007CC0C11522E5D20708F066C0C11531E59F
:10155000D30708F444C0DC2FCC27C16FD06A74CF06
:10156000C1154AE5D40778F4C11589E5D80708F014
:1015700078C0C11598E5D90708F48BCFDC2FCC27AC
:10158000C06FD06A61CFCE0190568115904208F0AD
:1015900080CF8D2F8F710E94960990E0982F882719
:1015A00088279F719C012C2BE901D0624DCFC55A31
:1015B000D0E0C259DE4FC881D0E0D06445CFC85AD0
:1015C000D0E0CC0FDD1FCF58DE4F0990D881C02D61
:1015D000D4643ACFD06538CFDF70D06A35CFCE0132
:1015E00064E0969587956A95E1F783702C2F269590
:1015F0002695237040E2249F90011124382B8C2FD4
:101600008370C1E0D0E002C0CC0FDD1F8A95E2F705
:10161000C22BD32BDC6818CFCE018370992721E031
:1016200030E002C0220F331F8A95E2F7C695C695B7
:1016300080E2C89FE0011124EBCFCE01837099278F
:1016400021E030E002C0220F331F8A95E2F7C695F1
:10165000C69590E2C99FE0011124C22BD32BDA6812
:10166000F3CE8C2F8F700E94960934E0D695C795E3
:101670003A95E1F7CF709C2FEC01D069E5CEC9E334
:10168000D0E0E2CEC2EED0E0DFCEC6EED0E0DCCEDF
:101690000C94CB0780914B0290914A02892B909138
:1016A0004902892B8093DA01E0918103F091820352
:1016B000309731F00280F381E02D8AED91E00994BA
:1016C00008958091480290911702981301C00895DF
:1016D0008F5F8770FACF2AE0929F800D1124982F98
:1016E000977086958695869523E0829FF001112458
:1016F000EC51FE4F50E040E080E0219130E0092EB7
:1017000002C0369527950A94E2F721703327042EFC
:1017100001C0220F0A94EAF7822B4F5F5F4F4330DC
:10172000510559F708952AE0929F800D1124982FB2
:10173000977041E001C0440F9A95EAF78695869527
:10174000869593E0899FF0011124EC51FE4F90E0C3
:1017500080E070E05191DF0111979B01082E02C0DB
:10176000369527950A94E2F72170219525272423A1
:1017700025272C9301968330910561F7089590E019
:1017800080E00E94130890E080E00E94FD07109224
:101790004A02109249020E944A0B86E0E9E7F3E010
:1017A000DF011D928A95E9F710927303109272037C
:1017B000109274030C943F088093A4030C94BF0B05
:1017C0008091A403982F9670963019F488600C9439
:1017D000DC0B877FFCCF21E030E001C0220F8A952F
:1017E000EAF720958091A40382230C94DC0B21E07E
:1017F00030E001C0220F8A95EAF78091A403822B82
:101800000C94DC0B80934C020C94BF0B882341F0AA
:10181000809590914B02892380934B020C944A0B44
:101820000895882339F090914B02982B90934B02A6
:101830000C944A0B08958823F1F19CEF980F913A8C
:1018400078F4ECEDF1E022EE31E09191891303C0E0
:10185000DF0111971C922E173F07B9F70C944A0B22
:1018600090E2980F983088F4877021E030E0A90169
:1018700002C0440F551F8A95E2F7CA0180959091E6
:101880004B02892380934B02E9CF9BE5980F93305D
:1018900020F490E080E00C94130898E5980F9731BD
:1018A00020F490E080E00C94FD07803F20F00E943F
:1018B00066080C943F080895CF93C82F882309F435
:1018C00056C08CEF8C0F813AF8F4ECEDF1E082EE2B
:1018D00091E0DF012D91C21759F08A179B07D1F7CC
:1018E0006C2F8AED91E00E94E307CF910C944A0B94
:1018F0002191C21303C0DF0111971C928E179F071D
:10190000B9F70E944A0BECCF80E28C0F883068F464
:10191000C77021E030E001C0220FCA95EAF780913C
:101920004B02822B80934B02E0CFEBE5EC0FE330D0
:1019300040F4F0E0E259FE4F808190E0CF910C94AA
:101940001308E8E5EC0FE73150F4F0E0EE0FFF1F6D
:10195000EF58FE4F80819181CF910C94FD07C03FDD
:1019600030F08C2F0E942109CF910C943F08CF9129
:10197000089580938A0370938C0360938B03809106
:101980009A038430F9F48093E9008FEF9091E80096
:10199000815095FD06C095ED9A95F1F700008111F3
:1019A000F5CF8091E80085FF0DC050E040E063E096
:1019B00070E08AE893E00E9438058091E8008E7715
:1019C0008093E8000895BC0184E00C94B90CBC013C
:1019D00083E00C94B90C9C0184E08093E9009FEFB4
:1019E0008091E800915085FD06C085ED8A95F1F75C
:1019F00000009111F5CF8091E80085FF0CC050E008
:101A000040E066E070E0C9010E9438058091E8007E
:101A10008E778093E8000895CF93DF93EC0181E007
:101A20008093E9008FEF9091E800815095FD06C00A
:101A300095ED9A95F1F700008111F5CF8091E800BE
:101A400085FF14C050E040E068E070E0CE010E94E5
:101A500038058091E8008E778093E80088E0FE01E9
:101A6000A0E9B3E001900D928A95E1F7DF91CF9163
:101A700008959F92AF92BF92CF92DF92EF92FF9222
:101A80000F931F93CF93DF937C015B016A018091D9
:101A9000850201E010E08A3010F40AE010E0C1E0B5
:101AA000D0E0F894B501C701F6010995982E0E947F
:101AB0007D09911004C021960C171D076CF4892D27
:101AC000DF91CF911F910F91FF90EF90DF90CF901A
:101AD000BF90AF909F900895CC9F9001CD9F300D07
:101AE000300D112490E080E045E34A95F1F70000C5
:101AF000019682179307C1F7D4CF809159028111C3
:101B000010C08091D80080618093D8008AE18A95C6
:101B1000F1F700C08091D90080FF0AC081E0809376
:101B2000590281E090915902913009F080E00895C6
:101B300082E0809359020E94E80410929A03F1CF48
:101B40000E947D0D882351F0E0918103F091820382
:101B5000309721F00190F081E02D099480E0089504
:101B60001F93CF93DF93182FCAE0D0E0893311F48D
:101B7000C0E5D0E0812F0E945C0C8FE99FE00197C7
:101B8000F1F700C000002197C1F7812FDF91CF91BD
:101B90001F910C941B0C0F931F93CF93DF93C62FB1
:101BA000D42F022FFC0182818823A1F06093A70328
:101BB0000E94D7079093A6038093A503C77081E086
:101BC00001C0880FCA95EAF7DF91CF911F910F915D
:101BD0000C94110C8091A703681335C08091A50364
:101BE0009091A6030E94BC07883C910560F510E225
:101BF0001D0FCD17B9F080E28C0F883040F4C7700C
:101C000081E001C0880FCA95EAF70E94060C1830DF
:101C100048F481E09D2F977001C0880F9A95EAF7EC
:101C20000E94110C802F0E94B00D183098F4D770CC
:101C300081E001C0880FDA95EAF7DF91CF911F911B
:101C40000F910C94060CC77081E001C0880FCA95F3
:101C5000EAF7F3CFDF91CF911F910F910895CF93C2
:101C6000DF93C7EFD2E060E0CE010E94522C2196B4
:101C7000C11584E0D807B9F7DF91CF9108956F922D
:101C80007F928F929F92AF92BF92CF92DF92EF920C
:101C9000FF920F931F93CF93DF9389E3C82E82E0C7
:101CA000D82E9BE2E92EFF24F394E701C05FD1090F
:101CB00036011BC0F50185909490692DC8010E94E2
:101CC000522C682DC80101960E94522C82E0A80E69
:101CD000B11C0E5F1F4FC017D10761F784E1680E7A
:101CE000711C6496CE15DF0529F08E01045111098F
:101CF0005301E0CF7E0180EFE80EF11C80EFC80EAB
:101D0000D11C8BEFE81683E0F80679F6DF91CF91CE
:101D10001F910F91FF90EF90DF90CF90BF90AF9009
:101D20009F908F907F906F900895CF93C82F6FEF03
:101D3000811161E283E290E00E94522C6FEFC111A9
:101D400062E184E290E00E94522C6FEFC11163E2E5
:101D500085E290E0CF910C94522C80E00E94950E89
:101D600060E086E290E00E94522C0E943F0E0E94AA
:101D70002F0E81E00C94950E0F931F93CF93DF935A
:101D8000C42FD0E0CC0FDD1F24E1629FC00DD11D18
:101D9000112430EF839FC00DD11D1124CE018796F1
:101DA0000E94442C082F10E0102F0027CE018896A7
:101DB0000E94442C9801282BC901DF91CF911F91DB
:101DC0000F910895462F833038F47C3028F46A3020
:101DD00018F4672F0C94BC0E90E080E00895CF9229
:101DE000DF92FF920F931F93CF93DF936C010091CB
:101DF000A40380914C02082BC7E0D0E010E0FC2E39
:101E0000C8010C2E02C0959587950A94E2F780FDD3
:101E10000CC02197A0F7F12C8F2DDF91CF911F914E
:101E20000F91FF90DF90CF900895B6018C2F0E9404
:101E3000E20E0E94D909019761F3EECFCF93DF93B1
:101E4000EC010E94EF0EBE010E94E20EDF91CF91E5
:101E50000C94D909FC01808191810E941E0F292FC9
:101E60002F7092959F7092509E3078F4E92FF0E099
:101E7000E857F34D0C94212C803F19F020F4883E54
:101E800020F481E00895843FE1F380E00895883EE6
:101E9000C0F3813FD1F7F5CF822F86958695869541
:101EA000089583E290E00E94442C813289F484E218
:101EB00090E00E94442C823159F485E290E00E9427
:101EC000442C91E0833209F090E0892F81700895CD
:101ED00080E0FCCFCF9384E090E00E94442CC82F98
:101EE00082E290E00E94442C982F8C2FCF9108958D
:101EF00010924B02ECEDF1E086E0DF011D928A9535
:101F0000E9F70C94BF0B1F93CF93DF93CDB7DEB7E8
:101F1000AA970FB6F894DEBF0FBECDBF8CE993E051
:101F20002091F100DC012D93CD01B3E0843A9B07B1
:101F3000B9F780919D03833009F472C0B8F4813001
:101F400009F449C0823009F4B3C08091E80083FFEE
:101F500096C280919C0390919D039A3008F08FC2A5
:101F6000E92FF0E0EA56F34D0C94212C8A3009F465
:101F70008EC08B3009F471C0893039F780919C0391
:101F8000813219F78091A0039091A103009711F07D
:101F90000297D9F68091E800877F8093E8008091CE
:101FA000E80082FF38C09091F3008091F200029720
:101FB00031F48091F100813011F0863021F480916C
:101FC000F10080938F038091E8008B778093E80085
:101FD0000E948C05BACF80919C03813A09F0B5CF5D
:101FE0008091E800877F8093E8008091A003909122
:101FF000A103892B61F468E080E993E070E00E941E
:102000003E068091E8008B778093E8009ECF60E0E9
:1020100090E080E0F3CF80919A038111C0CF95CFFB
:1020200080919C03813A09F090CF8091A003909118
:10203000A103892B09F089CF8091E800877F8093E5
:10204000E8008091E80080FFFCCF809163018093DD
:10205000F1008091E8008E77B9CF80919C038132A6
:1020600009F073CF8091A0039091A103892B09F00F
:102070006CCF8091E800877F8093E8000E948C05F8
:1020800080919E03809363010E94780F5ECF8091C0
:102090009C03813209F059CF8091E800877F8093BB
:1020A000E8000E948C0580919F0380938E034DCFA2
:1020B00080919C03813A09F048CF8091E800877FA6
:1020C0008093E8008091E80080FFFCCF80918E0330
:1020D000BECF803899F0823809F0D1C18091A00339
:1020E0008F70873008F0CBC18093E9008091EB00BE
:1020F00085FB882780F91092E90006C0809198033B
:1021000090919903911182609091E800977F90934C
:10211000E8008093F1001092F1008091E8008E7742
:10212000AAC1882309F498C1823009F0A8C180911E
:102130009E0381119BC18091A0038F702FEF280F08
:10214000263008F09CC18093E9002091EB0020FF2D
:102150008DC1933031F48091EB0080628093EB006D
:1021600085C19091EB0090619093EB0021E030E00D
:1021700001C0220F8A95EAF72093EA001092EA0044
:102180008091EB008860EACF811179C110919E03A4
:102190001F778091E3008078812B8093E30080910A
:1021A000E800877F8093E8000E948C058091E8001A
:1021B00080FFFCCF8091E30080688093E30082E0A1
:1021C000111183E080939A035AC18058823008F03D
:1021D00056C120919E0330919F032C3DE3E03E07C2
:1021E000A1F583E08A838AE289834FB7F894DE0100
:1021F000139620E03EE051E2E32FF0E050935700C9
:10220000E49120FF03C0E295EF703F5FEF708E2FE7
:1022100090E0EA30C0F0C7968D939D932F5F2431F4
:1022200059F74FBF8091E800877F8093E8006AE20A
:1022300070E0CE0101960E943E068091E8008B7707
:102240008093E8001CC1C096E7CF8091A0039091D5
:10225000A103432F55274330510509F44AC078F5AF
:102260004130510509F47AC08FEB90E0E9E0F5E0E8
:102270004230510509F003C12091E800277F2093E7
:10228000E8002091A2033091A3038217930708F47A
:102290009C0140E02115310509F065C0411163C082
:1022A0008091E80082FDC9CF80919A03882329F2AA
:1022B000853019F28091E80083FFF2CFBECF413222
:1022C000510509F43CC04232510509F0D8C08330B1
:1022D000910508F0D4C0FC01EE0FFF1FE553FE4F3F
:1022E0000190F081E02D88539E4FDC018C9190E0AD
:1022F0001AC0332721303105D1F02115310561F0A5
:102300002230310509F0BBC0EAEDF5E0E4918E2FF3
:1023100090E0EAEDF5E007C0E2E0F6E0E4918E2F10
:1023200090E0E2E0F6E0009709F4A9C0A5CFE2EF63
:10233000F5E0E4918E2F90E0E2EFF5E0F4CF83300A
:10234000910508F09CC0880F991FFC01EF52FE4FC9
:102350000190F081E02D89E090E08ECF82E190E065
:10236000E8ECF5E089CF80919A03882309F465CFE2
:10237000853009F462CF8091E80083FD5ECF8091C3
:10238000E80082FD8DCF8091E80080FF83CF90919F
:10239000F3008091F2002115310519F08830910584
:1023A00050F041E0089709F040E08091E8008E7716
:1023B0008093E8006FCF44914093F1003196215013
:1023C00031090196E8CF803809F059C08091E800C2
:1023D000877F8093E80080919B038093F1009DCEDE
:1023E00081114DC010919E03123008F048C08091B9
:1023F000E800877F8093E80010939B030E948C0580
:10240000112311F084E005C08091E30087FDFACF2D
:1024100081E080939A0342E061EC81E00E94AB0589
:1024200042E261EC84E00E94AB0542E261EC82E0B2
:102430000E94AB0542E260EC83E00E94AB0542E300
:1024400061E885E00E94AB0542E361E886E00E9416
:10245000AB0580919A0313C080919E03813079F47B
:1024600081E0933009F080E0809399031092E900B5
:102470008091E800877F8093E8000E948C0580911E
:10248000E80083FF0AC08091E800877F8093E8001E
:102490008091EB0080628093EB00AA960FB6F894CF
:1024A000DEBF0FBECDBFDF91CF911F9108950F9377
:1024B0001F93CF93DF9300D000D0CDB7DEB740910C
:1024C00081025091820260918302709184022FB741
:1024D000F8948091860390918703A0918803B0912E
:1024E00089032FBF841B950BA60BB70B8436910570
:1024F000A105B10588F10E947D0D882379F10E9424
:10250000CB076E5F7F4F8F4F9F4F69837A838B839B
:102510009C8380912B0190912C0182599D4F409179
:102520002A0150E04530510510F044E050E0BE0172
:102530006F5F7F4F0E943B2C84E090E00E94452B10
:10254000892BD9F40E94CB07609381027093820299
:10255000809383029093840281E010C00E94CB0795
:10256000009116031091170320911803309119035D
:10257000600F711F821F931FC4CF80E00F900F90D8
:102580000F900F90DF91CF911F910F9108956F924F
:102590007F928F929F92AF92BF92CF92DF92EF92F3
:1025A000FF920F931F93CF93DF930F92CDB7DEB7B8
:1025B000862E5A016901682E880F7708C3010E9490
:1025C000452B892B09F088C08AE0869DF001879D04
:1025D000F00D1124E050FF4F458150E041155105A9
:1025E00011F041E050E08AE0869DF001879DF00DFA
:1025F0001124E050FF4F6681778162597D4FCE01F3
:1026000001960E943B2CF5014081518162817381CA
:102610002FB7F8948091860390918703A091880347
:10262000B09189032FBF841B950BA60BB70B843683
:102630009105A105B10540F4B701C8010E94290820
:102640009981891709F44FC0082C000C9908C4011E
:102650000E94452B892B91F0B12C8B2D0F90DF918F
:10266000CF911F910F91FF90EF90DF90CF90BF908F
:10267000AF909F908F907F906F9008958AE0889D93
:10268000F001899DF00D1124E050FF4F458150E08D
:10269000E416F50608F4A7018AE0889DF001899DFB
:1026A000F00D1124E050FF4F6681778162597D4F14
:1026B000C6010E943B2CB701C8010E9429089981DC
:1026C0008913CACF0E94CB07F5016083718382838F
:1026D0009383BB24B394C1CFB12CA701B801C60129
:1026E0000E943B2CBACFBB24B394F7CFCF92DF929A
:1026F000EF92FF920F931F93CF93DF93CDB7DEB787
:102700002C970FB6F894DEBF0FBECDBF6B018CE0E7
:10271000E82EF12C0FE612E09E012F5F3F4F46E6B8
:1027200052E061E080E00E94C712882349F09CE0FB
:10273000FE013196AAE5B2E001900D929A95E1F77B
:102740009CE0EAE5F2E0D60101900D929A95E1F75E
:102750002C960FB6F894DEBF0FBECDBFDF91CF91A0
:102760001F910F91FF90EF90DF90CF90089569EE49
:102770007EEF90E080E00E94702C60E082E090E0CC
:102780000E94522C60E083E090E00E94522C109254
:102790004C0260E084E090E00E94522C60E082E213
:1027A00090E00E94522C60E085E090E00E94522C64
:1027B00060E086E090E00E94522C6FEF87E090E0AE
:1027C0000E94522C40E050E0BA0188E090E00E9464
:1027D000642C60E08DE090E00E94522C40E050E0DC
:1027E000BA0188E190E00E94642C60E087E190E00B
:1027F0000E94522C40E050E0BA018CE190E00E942F
:10280000642C70E060E080E290E00E94702C40E078
:1028100050E0BA0188E190E00E94642C80E00E94C0
:10282000950E0E94AD0E40E050E0BA018FE090E0BE
:102830000E94642C40E050E0BA0183E190E00C94E7
:10284000642C5F926F927F928F929F92AF92BF9211
:10285000CF92DF92EF92FF920F931F93CF93DF936C
:1028600000D000D00F92CDB7DEB74C01FC018381C0
:102870009481892B39F08081918189238F3F11F0D8
:102880000C94A71C0F900F900F900F900F90DF915A
:10289000CF911F910F91FF90EF90DF90CF90BF905D
:1028A000AF909F908F907F906F905F9008950E945F
:1028B000EF0E182F682F89819A810E94930B6981EE
:1028C0007A81812F0E94E20E5C01F40182818823CB
:1028D00011F40C94991C950122513F45203131058A
:1028E00008F0CEC78FEF93E00E94442C1EEE1A0D25
:1028F00007EFE02E02E0F02E8111C4CF111136C097
:102900001C821B8266246394BAE05B2E87010F5FF2
:102910001F4FC7010E94442C89831A82882309F41F
:10292000B1CF9FEF980F933080F58A83698232E0B0
:10293000E30EF11CC8010E94442C8B83882309F408
:10294000A1CFAE014F5F5F4F5A01F50120812223D5
:10295000E9F2213009F058C0918182819130B9F4B7
:10296000F2E0AF0EB11C0E94B00D18C0E114F4E00B
:10297000FF0609F487CFC7010E94442C811101C0D2
:1029800011502FEFE21AF20AB9CF7801DACF923064
:1029900049F422E0A20EB11C0E945C0C2FEFA21A97
:1029A000B20AD3CF933031F432E0A30EB11C0E94AF
:1029B0001B0CF4CF943021F04FEFA41AB40AEECFE1
:1029C00052E0A50EB11C30E020E0B5016F5F7F4FF3
:1029D000F50141818053990B8A30910550F02150C7
:1029E0003109E0F28FE99FE00197F1F700C00000A4
:1029F000F6CF529EF001539EF00D11249C012E0F34
:102A00003F1F842F5B01E1CFE22FF0E0E754FE4F40
:102A10007490822F86958695869590E0FC01E75507
:102A2000FE4F84902770912C022E02C095948794BB
:102A30000A94E2F7E1E08E229924FC01E756FE4F6A
:102A4000049110E0022E02C0159507950A94E2F752
:102A500001701127FC01E757FE4FC490D12C02C032
:102A6000D594C7942A95E2F7F1E0CF22DD248114B2
:102A7000910419F081EE0E945C0C0115110519F00A
:102A800086EE0E945C0C872D0E94B00D012B19F080
:102A900086EE0E941B0C892819F081EE0E941B0C07
:102AA000CD2809F47BCF8CE25ECF81E00E94F70B4A
:102AB00003C081E00E94EB0B0F900F900F900F90DE
:102AC0000F90DF91CF911F910F91FF90EF90DF90CA
:102AD000CF90BF90AF909F908F907F906F905F90BE
:102AE0000C94E00B82E0E2CFF5EDAF16FDE5BF06FA
:102AF00008F48BC021EEA2162DE5B20608F48EC0B4
:102B0000FEEAAF16FCE5BF0608F009C12EE9A216E1
:102B10002CE5B20608F0C6C230E9A3163CE5B306C0
:102B200008F09FC043E8A4164CE5B40608F06AC25A
:102B300051E8A5165CE5B50608F079C087E7A81648
:102B40008CE5B80608F03BC29FE2A9169CE5B906E1
:102B500008F0F3C133EFA3163CE5B30609F473C3E1
:102B600008F074C158EDA5165CE5B50609F467C315
:102B700089EDA8168CE5B80609F475C397EDA9167A
:102B80009CE5B90609F070C126E241EE61EEC40190
:102B90000F900F900F900F900F90DF91CF911F919A
:102BA0000F91FF90EF90DF90CF90BF90AF909F90EC
:102BB0008F907F906F905F900C94CB0DFF1659F023
:102BC0004E2D6F2D80E00E944C036CE06F0D4E2D5A
:102BD00080E00E944C038FEFF801808391CFE7E003
:102BE000CE2EF4E0EF2E00E095012A563140B401DC
:102BF00080E00E94700384CF67E0C62E73E0E72E6A
:102C000000E0950126573140F2CF3AE0C32E57E05D
:102C1000E52E04E0950122583140E9CF96E0C92E17
:102C200023E0E22E00E095012E583140E0CFE1E8AC
:102C3000AE16ECE5BE0609F4D3C1F2E8AF16FCE52A
:102C4000BF0609F087CFF4018281882309F41ACEE8
:102C50008091E403982F9F70993008F013CE9F5F06
:102C6000CBC12CE9A2162CE5B206D0F532E9A316A9
:102C70003CE5B30608F0E8C140E9A4164CE5B4060B
:102C800009F4CEC151E9A5165CE5B50609F062CF9D
:102C9000F4018281882309F4F5CD2091E403822F89
:102CA000859585958595859586300CF0EBCD91E0E1
:102CB000980F9295907F9595959595959595392F27
:102CC0003295307F2F70232B2093E40318160CF0DD
:102CD000D9CD97FFD7CD8295807F922F9F708EC1DF
:102CE0008CE9A8168CE5B80609F4C2C19DE9A916BD
:102CF0009CE5B90609F02ECFF4018281882309F4FE
:102D0000C1CD8091E503982F9F779F3709F4BACD05
:102D1000933708F0C5C1935F9F778078BFC1E4EB1C
:102D2000AE16ECE5BE0609F42CC208F03EC020EB5E
:102D3000A2162CE5B20609F4E9C1F8F44EEAA4168D
:102D40004CE5B40609F4C3C15FEAA5165CE5B50617
:102D500009F000CFF4018281882309F493CD2091FA
:102D6000E503322F331F3327331F9091E603892F5A
:102D70008770880F832B8F5FBCC1F4012281809103
:102D8000E5039091E603F2EBAF16FCE5BF0609F40C
:102D9000EEC108F4E2C140E021114FE7881F882707
:102DA000881F9770990F62E4C1C147EBA4164CE5E8
:102DB000B40609F4F8C1A0F485EBA8168CE5B806B2
:102DC00009F4DFC196EBA9169CE5B90609F0C2CE5D
:102DD000F40182818111E5C18FEF80933D0352CDD3
:102DE000E9EBAE16ECE5BE0609F415C208F4FDC128
:102DF0002AEBA2162CE5B20609F0ACCE8091E503D1
:102E0000982F991F9927991F8091E6038770880F43
:102E1000892BF40192816FEF7FE1992309F40CC2B1
:102E20000F900F900F900F900F90DF91CF911F9107
:102E30000F91FF90EF90DF90CF90BF90AF909F9059
:102E40008F907F906F905F900C94CC03E5EFAE165F
:102E5000ECE5BE0609F4FFC108F4F9C126EFA2169D
:102E60002CE5B20609F4FBC1F4018281882309F440
:102E700081C51092A703F3E0AF16FDE5BF0608F089
:102E8000F5C12AEFA2162CE5B20638F495012250BE
:102E90003C452431310508F0EFC10E946A0F909340
:102EA0001B0380931A0340E1A4164CE5B40609F411
:102EB000E0C208F04EC288E0A8168CE5B80609F416
:102EC000C6C208F01AC2E4E0AE16ECE5BE0609F48C
:102ED000B0C208F0FCC122E0A2162CE5B20609F44B
:102EE000A2C280911A03826033E0A3163CE5B306C8
:102EF00009F49CC260911A0310911B0384E090E0D6
:102F00000E94522C612F82E290E00E94522C0F907E
:102F10000F900F900F900F90DF91CF911F910F9115
:102F2000FF90EF90DF90CF90BF90AF909F908F90E9
:102F30007F906F905F900C94780F4091E503942FF1
:102F4000991F9927991F8091E6038770880F892B15
:102F50004F7701ED0A0D10E0F40192810A571D4FE1
:102F60009923F1F09091E403292F2F709595959571
:102F7000959595959F52FCE02F9F900D1124A90ED9
:102F80006A2D0E945E03F801E85BFF4F80818F5F2E
:102F90008083F80180818F3F09F074CCA08272CCCD
:102FA000F8016081E85BFF4F90819150908391110F
:102FB00069CC0E944C038FEFF801808363CCF4014D
:102FC0008281882309F45ECCF9E8AF0E2A2D2F7098
:102FD000A22E8091E403807FA82AA092E40352CC21
:102FE000F4018281882309F44DCC8091E403982F69
:102FF0009F7009F447CC915F9F70807F892B8093ED
:10300000E40340CCF4018281882309F43BCCF7E748
:10301000AF0EA29480EFA8228091E4038F70DCCFE2
:10302000F4018281882309F42DCC8091E403982F48
:1030300095959595959595959B3F0CF423CC915F2F
:103040009295907F8F70DACFF4018281882309F402
:1030500019CCFEE6AF0E8EE0A89EA02C1124E894B9
:10306000A7F88091E5038078A82AA092E5030ACC0E
:10307000F4018281882309F405CC8091E503982F1F
:103080009F7709F4FFCB80789F3721F48567809381
:10309000E503F8CB9D30D8F39D509F77892BF7CF70
:1030A0008F67F5CFF4018281882309F4EBCBF2E638
:1030B000AF0E8091E503A0FA87F98093E5038A2D8E
:1030C000869587709091E603987F892B8BC0F401D9
:1030D0008281882309F4D6CB2091E503322F331F58
:1030E0003327331F9091E603892F8770880F832B36
:1030F000815F382F3F7080FB27F92093E503832FF2
:103100008695987F982B9093E603BCCBF40182813F
:10311000882309F4B7CB9091E503991F9927991F4C
:103120008091E6038770880F40E06BE7892B0F9052
:103130000F900F900F900F90DF91CF911F910F91F3
:10314000FF90EF90DF90CF90BF90AF909F908F90C7
:103150007F906F905F900C94E50340E021114FE762
:10316000881F8827881F9770990F60E4DFCF40E0A1
:1031700021114FE7881F8827881F9770990F61E4F6
:10318000D5CFF401828140E081114FE79091E503B2
:10319000991F9927991F8091E6038770880F63E430
:1031A000C5CF81E01ACEF4018281882309F46ACB6D
:1031B0009091E603292F2695269526952F7081E07C
:1031C000820F8F70880F880F880F9778892B8093D4
:1031D000E603982F987709F055CB220F220F220F84
:1031E0008778822B8093E6034DCBF401828188237C
:1031F00009F448CB8091E603982F987709F442CBE5
:10320000982F969596959695915F9F70990F990F27
:10321000990F87785ACF8091E503982F991F9927A6
:10322000991F8091E6038770880F892BF4019281A2
:1032300060E070EE9111F4CD70E060E0F1CD27E236
:1032400045EE65EEA4CC26E241EE60EEA0CC27E28E
:1032500045EE64EE9CCC26E241EE62EE98CC27E28D
:1032600045EE66EE94CC28E241E0EBCF31E6A316C2
:103270003DE5B30609F411CE26E1A2162CE5B2060F
:1032800009F01EC180914B028A7A91E009F490E026
:103290009093E30169E2811165E38AED91E00E9478
:1032A000E3070F900F900F900F900F90DF91CF9149
:1032B0001F910F91FF90EF90DF90CF90BF90AF9054
:1032C0009F908F907F906F905F900C944A0B8091AD
:1032D0001A03806146E0A4164CE5B40609F4A6C0C2
:1032E00080911A03886057E0A5165CE5B50608F4DE
:1032F0009DC080911A03806299C08CE0A8168CE56D
:10330000B80609F4AEC078F480911A038C60EAE044
:10331000AE16ECE5BE0609F489C008F49CC08091A5
:103320001A038E7F83C080911A03877F2EE0A21636
:103330002CE5B20609F47AC080911A038B7F3FE036
:10334000A3163CE5B30608F471C080911A038F7E82
:103350006DC04CEFA4164CE5B40609F486C0A0F588
:1033600084E1A8168CE5B80609F497C098F4E2E168
:10337000AE16ECE5BE0609F480C080911A038F7B7F
:10338000F3E1AF16FCE5BF0608F450C080911A03C4
:10339000837F4CC02AEFA2162CE5B20609F44DC07B
:1033A00008F051C045E1A4164CE5B40609F0A2CDE1
:1033B00080911A0382FB992790F921E0922790FBD4
:1033C00082F990FB83F932C0A1145DE5B50609F4DA
:1033D0005AC0A0F480911B0383609EEFA9169CE560
:1033E000B90671F180911B038D7FEFEFAE16ECE50E
:1033F000BE0630F180911B038C7F22C0F2E0AF1635
:10340000FDE5BF0609F458C008F450C031E6A31624
:103410003DE5B30609F06ECD90911A03892F8F7E9A
:1034200094FF806103C080911A03816080931A0326
:1034300061CD80911A038460F9CF80911B03816074
:1034400080931B0357CD80911B038260F9CF80913D
:103450001A038064EBCF0E94780F80911A03806872
:10346000E5CF80911A038D7FE1CF80911B038E7F82
:10347000E7CF80911A038F7DD9CF0E94780F80917A
:103480001A038F77D3CF80911B03982F909591705B
:103490008E7F892B90FB81F9D3CF0E94780F90917A
:1034A0001A03892F97FB87F98058C0CF61E08EE01F
:1034B00090E00E94522C1ECD60E0F9CF85E365C2FA
:1034C000882349F0A1144CE5B40671F15EEDA51610
:1034D0005CE5B506B1F1F40100811181882309F49E
:1034E00046C0C8010E94EF0EF82E682FC8010E9446
:1034F000930BB8018F2D0E94E20E0E94D909182F5C
:10350000F82EF40122814581342F32953F70892FA6
:1035100082958F70A82EB12C8C3008F060C0F50118
:10352000E056F34D0C94212C0E94780F8FEF94E31A
:10353000ECE081509040E040E1F700C000000E94C4
:10354000AB070F900F900F900F900F90DF91CF91DE
:103550001F910F91FF90EF90DF90CF90BF90AF90B1
:103560009F908F907F906F905F900C94B713C801DD
:103570000E946B0BF82EBDCF092F0F70907F11F0BA
:103580000295007F812F2223C9F0002369F090E289
:10359000910F983010F011110BC080914B02082B45
:1035A00000934B020E944A0B812F0E945C0C17C0B3
:1035B00080914A02082B00934A02F4CF0E941B0C10
:1035C000002369F00095105E183010F0F11025C04E
:1035D00080914B02082300934B020E944A0B98E013
:1035E000A91AB108E4E0AE16B10408F04BC90F9077
:1035F0000F900F900F900F90DF91CF911F910F912F
:10360000FF90EF90DF90CF90BF90AF909F908F9002
:103610007F906F905F900C94A00D80914A020823D8
:1036200000934A02DACF892F8F70907F903211F089
:103630008295807FF1E0FF120CC0222329F0363002
:1036400070F60E94110CCBCF353048F60E94060C64
:10365000C6CF222341F03323A1F340FFA5CF4F7003
:10366000F4014583EECF332389F3193309F000C108
:10367000FFEF27EE33E0F15020403040E1F700C08B
:103680000000812F0E941B0CAACF892F869586955A
:10369000837061F0813009F0A2CF812F93702111E6
:1036A00002C090E080E00E94FD0799CF812F9370C7
:1036B000211102C090E080E00E94130890CF812F7A
:1036C000222329F00E9421090E943F0888CF0E94EE
:1036D0006608FACF892F8370A1F5211180CF812F41
:1036E000829586958770880F880F412F4F70082E1E
:1036F00001C0440F0A94EAF7212F207114FF07C07C
:103700002FE030E001C0220F8A95EAF720959695C8
:1037100096959370923081F0822F842B933030F401
:1037200080914C02913029F0242B82230E94020CBC
:1037300056CF842B822BFACF242B80914C028227E8
:10374000F5CF8695222311F0892F8170882309F403
:1037500046CF812F829586958770880F880F412FDD
:103760004F70082E01C0440F0A94EAF7212F2071F0
:1037700014FF07C02FE030E001C0220F8A95EAF75E
:103780002095969596959370923081F0822F842B98
:10379000933030F48091A403913029F0242B8223BC
:1037A0000E94DC0B1CCF842B822BFACF242B809120
:1037B000A4038227F5CF092F0F70222329F0802F31
:1037C0000E94F70B812F3DCF812F0E94060C802F86
:1037D0000E94EB0B04CF812FE1EF1E1789F1E11757
:1037E00050F0F0EF1F17B9F02223B1F13111DCCE08
:1037F000892F8F7129C042EF141749F153EF151328
:10380000F3CF80E0222361F29F7181E001C0880F35
:103810009A95EAF7C5CF222379F0353008F0DFCE4C
:10382000292F2F7181E090E001C0880F2A95EAF7D7
:103830009091A4038927B4CF363008F0D0CEF0CFD2
:10384000892F8F71222321F20E94F70BC8CE892F76
:103850008F712223C9F3BCCF332379F0893341F42C
:103860008FEF97EEE3E081509040E040E1F707CF23
:103870008FE39CE90197F1F702CF892F8F71A8CFD1
:10388000F0E1AF16FFE5BF0609F40FC921E1A2166A
:103890002FE5B20609F426C94BE54A0D39ECA3160B
:1038A0003DE5B30608F020C95DEBA5165DE5B5065C
:1038B00008F0A2C995EAA9169DE5B90608F420C941
:1038C000E1EBAE16EDE5BE0608F089C99091E5037F
:1038D000E92EE894E7F8042F10E008551C4FF80192
:1038E000F080FFEF882309F469C9FF1209C96091CC
:1038F000E403862F8F70F62EF594F594F594F594E5
:103900002CE0829FF00C1124B5016A567140F60E2E
:10391000A1EDDA2EDF0C4E2D6D2D80E00E945E03AE
:103920006DED6F0D4E2D80E00E945E03F801D08298
:10393000E7C830E1A3163FE5B30609F4BAC841E190
:10394000A4164FE5B40609F0A7CF82E0B3C885E01E
:10395000DE01119601900D928A95E1F7F401228122
:1039600089819A8121110C9457140E946B0B182F96
:103970000C945F14F6E1AF16FCE5BF0609F0ABCD81
:103980008091E30181119ACD89E2ECEDF1E022EE24
:1039900031E09191891303C0DF0111971C922E171A
:1039A0003F07B9F77ECC1F93CF93DF938091160228
:1039B000807FA9F480911302882389F080914802C6
:1039C000D09117026091110270911202A09114021D
:1039D000B0911502C62FC72316E0D81304C0DF919B
:1039E000CF911F91089590E0109711F0CF3F19F4F7
:1039F00001968770F2CF189F9001199F300D112406
:103A0000F901E85EFD4F41814713F2CF4081461333
:103A1000EFCF42814111ECCF438154814A1B5B0BB4
:103A2000483C510528F7809116028F708061809381
:103A30001602F901E35EFD4F80818F708061808303
:103A400081E192E00E942114DF91CF911F910C94AB
:103A5000610BAF92BF92CF92DF92EF92FF920F93E2
:103A60001F93CF93DF93CDB7DEB761970FB6F8946E
:103A7000DEBF0FBECDBF8C0185E0F801DE011D96D3
:103A800001900D928A95E1F7F801E28081E1A82E7C
:103A900082E0B82E609114027091150261157105D3
:103AA00009F432C19091110240911202892F8423AE
:103AB0008F3F09F429C120813181C380D480F090E7
:103AC0001302F601E61BF70BFF2009F4E8C0809112
:103AD0001602582F507FE83CF10508F0ABC0511199
:103AE00077C0FE2C431321C092131FC0E1101DC0EC
:103AF0008F70806180931602C5010E94211480910D
:103B00001602F80185838F2D61960FB6F894DEBFFB
:103B10000FBECDBFDF91CF911F910F91FF90EF901E
:103B2000DF90CF90BF90AF900895CD2829F0822FDD
:103B300083238F3F09F003C180E0F82FF170DF2E5F
:103B400080FF3CC0809148024091170256E08413E8
:103B500015C02D873E878D859E850E941E0F292FBB
:103B600022952F702230F0F0243018F59F70F1F07C
:103B7000F8019581907FD1F4D12C1EC090E0589F20
:103B8000F001599FF00D1124E85EFD4F618136135D
:103B900006C06081261303C06281E6120FC0019641
:103BA0008770D5CF9F7011F0882331F3805E883005
:103BB00018F3C8010E942114FD2CA5CFEE2009F4B2
:103BC000A2CF80911602816080931602F12C9BCFC8
:103BD000431306C0921304C0F801EE2009F479C023
:103BE000C8010E942A0F882309F1EE20F9F0809184
:103BF0001602803270F02091110230911202388743
:103C00002F831986DB86CA868C87CE0107960E9491
:103C1000211486E0F801A1E1B2E001900D928A95AD
:103C2000E1F70E94D31CFF24F3946DCFC8010E94DA
:103C30002114F9CF51110AC081E192E00E942114B0
:103C400086E0F50111928A95E9F7C0CF43130FC0C2
:103C500092130DC0E1100BC0F8018583C8010E94CA
:103C6000211486E0F50111928A95E9F74CCFC8013D
:103C70000E942A0F8823D1F2EE20C1F28091160211
:103C8000803238F220911102309112023A83298356
:103C90001B82DD82CC828E83CE010196B8CFE83CB8
:103CA000F105F8F6FE2CEE2009F243131FC0921323
:103CB0001DC08091160280FD10C0982F907F69F082
:103CC000F8018583903F31F0982F907F905F8F703F
:103CD000892B8583C8010E94211486E0F801A1E1A7
:103CE000B2E001900D928A95E1F70DCFC8010E94D4
:103CF0002A0F81118ECF8091160281608093160267
:103D0000C8010E942114FFCEEE2009F48FCFC80114
:103D10000E942A0FF82E882309F488CF86E0F80144
:103D2000A1E1B2E001900D928A95E1F78091110234
:103D3000909112020E941E0F0E94D31CE4CE81E0DB
:103D40008E25FBCE1F93CF93DF93CDB7DEB767975A
:103D50000FB6F894DEBF0FBECDBF4B8B5C8B6D8B67
:103D60007E8B8F8B611110924A021A8A198A85E024
:103D7000FE017396DE011D9601900D928A95E1F782
:103D800086E0FE013D96DE01179601900D928A9520
:103D9000E1F7CE0107960E94291D882389F016E0DD
:103DA0008091480290911702891349C067960FB617
:103DB000F894DEBF0FBECDBFDF91CF911F91089564
:103DC00086E0FE013796DE01119601900D928A95EC
:103DD000E1F78A859B85892B11F38F81988589234B
:103DE0008F3FE9F22091170230E0C90101968770F8
:103DF0009927409148024817190671F40E94780FDC
:103E0000109217021092480286E0E1E1F2E0DF0131
:103E10001D928A95E9F7C3CF96E0929FD001939FB8
:103E2000B00D1124A85EBD4FFE01319601900D9298
:103E30009A95E1F7809317020E94610BB0CF819FA2
:103E4000C0011124885E9D4F0E94291D882309F41A
:103E5000ADCF8091480290E00196877099278093BA
:103E600048029ECF8F929F92AF92BF92CF92DF92E5
:103E7000EF92FF920F931F93CF93DF93CDB7DEB7EF
:103E8000A9970FB6F894DEBF0FBECDBF8E010F5FAE
:103E90001F4F88E1D8011D928A95E9F77CE3E72E50
:103EA00071E0F72E6801AA24A394B12CF701819147
:103EB0007F018F3F09F447C0F894E82FE295EF7037
:103EC000F0E021A18F70A50102C0440F551F8A9513
:103ED000E2F7CA01922F982B91A392A18095892392
:103EE00082A30E947D0900C0E2E3F1E021E030E01E
:103EF000912C812C41914F3F09F47FC0A42FA295B2
:103F0000AF70B0E090968C9190E04F7002C09595A4
:103F100087954A95E2F780FD70C0C901882A992AE1
:103F2000220F331F51E0EC33F50721F7F7013197EA
:103F300080818F3F11F00E947F0980EA8A95F1F716
:103F4000D6018D929C92B2E0CB0ED11CE2E4EE162B
:103F5000E1E0FE0609F0AACF48E150E0B8018CE1AB
:103F600093E00E942E2C7C01892B41F088E1F8011E
:103F7000ACE1B3E001900D928A95E1F71091350321
:103F8000E114F104E9F181E080934F020E94D70728
:103F900090934E0280934D0280914D0290914E027B
:103FA0000E94BC07059790F0ACE1B3E0E12FF0E090
:103FB000EE0FFF1FE65AFC4F8D919D9181939193D7
:103FC00023E0A832B207C1F710924F0281E090E0DF
:103FD000EF28D1F0A9960FB6F894DEBF0FBECDBF83
:103FE000DF91CF911F910F91FF90EF90DF90CF90D5
:103FF000BF90AF909F908F90089590E080E08ECF1B
:1040000080914F028111C8CF0E947D0DD82EE09182
:104010003503AE01475E5F4F7A01882309F4A4C0DF
:104020008CE0DA011D928A95E9F70E2F10E0000F5F
:10403000111F065A1C4F809185028A3008F05CC01F
:1040400046E753E1B701C8010E94390D882309F4FE
:1040500077C04FE451E2B701C8010E94390D8823AF
:1040600009F46EC047E552E1B701C8010E94390D5D
:10407000882309F465C0109285028091340390E092
:10408000880F991F4CE050E0B701865A9C4F0E9460
:104090002E2C21E020935802892B09F042C0D12C0C
:1040A00092E5E92E92E0F92E10E000E0D7018D9123
:1040B0007D018823D1F08695F80109F452C0ED55B1
:1040C000FE4F808191819EA38DA31FA20E94D707DE
:1040D0008160782F99A788A7F701319710824DA1A9
:1040E0005EA16FA189A50E94A21E0E5F1F4F043022
:1040F0001105E1F68D2D6ECF809150029091510205
:104100000E94BC07843F914008F09ACF80915802EA
:10411000882329F28CE0F70111928A95E9F7109231
:104120005802A0913403B0E0AA0FBB1FA65ABC4F9F
:104130008CE0FE01799601900D928A95E1F7B0CF5F
:10414000809185028F3F31F08F5F809385028A30A6
:1041500008F493CF0E94D7079093510280935002A6
:10416000D5CFE156FE4FADCFF0E0EE0FFF1FE65A80
:10417000FC4FF8948CE0AFE6B2E001900D928A9586
:10418000E1F76CE070E08FE692E00E9429088093EE
:104190006E020E947D09F894E0913A03F0E0E95C38
:1041A000FC4F8081898F80937C0261E070E0C701C1
:1041B0000E94290880937B020E947D09F894C09098
:1041C0007D02D0907E02E0907F02F090800280918C
:1041D000540290915502A0915602B0915702C81610
:1041E000D906EA06FB06D1F0C0925402D0925502DD
:1041F000E0925602F09257020E947D0D81110EC08E
:104200000E94CB07C61AD70AE80AF90AC092160319
:10421000D0921703E0921803F09219030E947D09CF
:1042200080E0D8CEEF92FF920F931F93CF93DF934E
:1042300000D000D00F92CDB7DEB7162FE82EF12CAC
:10424000C701880F991F662339F18D559E4FFC01D8
:10425000808191819A83898301E00B830E94D70733
:104260008160782F9D838C83F701EE5AFD4F0127E3
:10427000110F102B108349815A816B818D810F9012
:104280000F900F900F900F90DF91CF911F910F9192
:10429000FF90EF900C94A21E81569E4FD8CFCF92E4
:1042A000DF92EF92FF920F931F93CF93DF930F92C2
:1042B000CDB7DEB7EE24E394F12C0CE712E09E01BB
:1042C0002F5F3F4F4AE652E063E082E00E94C71250
:1042D000082F882321F1C09036038C2D90E09C019B
:1042E000295C3C4F79011981F9018081181BD12E7D
:1042F00080E00AC0DA94F70180818F5F808360E0FC
:104300008C2D0E941221802F1D14A4F3912F17FDD4
:1043100090E0191B11110EC081110E94480B802FD3
:104320000F90DF91CF911F910F91FF90EF90DF9051
:10433000CF9008951F5FF70180818150808361E0F5
:104340008C2D0E941221802FE5CF1F920F920FB665
:104350000F9211242F933F934F935F936F937F930B
:104360008F939F93AF93BF93CF93DF93EF93FF937D
:10437000D091E900DF708091EC00C82FC17080FD02
:10438000C0E81092E9008091F000877F8093F000F0
:1043900078940E94830F1092E9008091F000886069
:1043A0008093F000CD2BCF70C093E900FF91EF9187
:1043B000DF91CF91BF91AF919F918F917F916F913D
:1043C0005F914F913F912F910F900FBE0F901F90D3
:1043D00018951F920F920FB60F9211242F933F93AF
:1043E0004F935F936F937F938F939F93AF93BF93FD
:1043F000EF93FF938091E10082FF09C08091E2007A
:1044000082FF05C08091E1008B7F8093E100809165
:10441000DA0080FF24C08091D80080FF20C0809106
:10442000DA008E7F8093DA008091D90080FF9DC0F2
:1044300080E189BD82E189BD09B400FEFDCF81E044
:1044400080939A0380918D03811109C00E94E80432
:104450000E94DD058091E20084608093E2008091FB
:10446000E10080FF17C08091E20080FF13C08091BF
:10447000E2008E7F8093E2008091E2008061809371
:10448000E2008091D80080628093D80019BC85E05A
:1044900080939A038091E10084FF2BC08091E20019
:1044A00084FF27C080E189BD82E189BD89B5982F4D
:1044B000917080FFFBCF8091D8008F7D8093D800D2
:1044C0008091E1008F7E8093E1008091E2008F7EF9
:1044D0008093E2008091E20081608093E20080910D
:1044E0009B03882309F447C084E080939A0380915A
:1044F0009A038091E10083FF27C08091E20083FF4F
:1045000023C08091E100877F8093E10082E0809367
:104510009A0310929B038091E1008E7F8093E100CB
:104520008091E2008E7F8093E2008091E2008061C2
:104530008093E20042E060E080E00E94AB05809161
:10454000F00088608093F000FF91EF91BF91AF91F0
:104550009F918F917F916F915F914F913F912F919B
:104560000F900FBE0F901F90189519BC10929A03D0
:1045700010928D0374CF8091E30087FD93E09093B8
:104580009A03B5CF78941F921FB61F9211248F9370
:104590009F93AF93BF938091860390918703A091DF
:1045A0008803B09189030196A11DB11D80938603F4
:1045B00090938703A0938803B0938903BF91AF9131
:1045C0009F918F911F901FBE1F9018951F921FB62D
:1045D0001F9211248F939F93AF93BF938091850374
:1045E000811113C08091860390918703A091880365
:1045F000B09189034196A11DB11D809386039093CC
:104600008703A0938803B0938903BF91AF919F91D3
:104610008F911F901FBE1F901895CDB7DEB7AF9733
:104620000FB6F894DEBF0FBECDBF84E08093E403E5
:104630008FE78093E5038091E60380788064809320
:10464000E603E6E8F2E08EEC92E02FEF2193DF0143
:10465000A95BBF4F1C928E179F07C1F710923C03B6
:1046600010923D0310923F0310923E0310920D04EE
:1046700010920F0410920E0480EC8093D20480E11B
:1046800094E09093D4048093D3041092D1041092B8
:10469000D0041092ED031092EC031092EF031092ED
:1046A000EE031092F1031092F0031092F3031092B4
:1046B000F2031092F5031092F4031092F703109294
:1046C000F6031092F9031092F8031092FB03109274
:1046D000FA031092FD031092FC031092FF03109254
:1046E000FE03109201041092000410920304109231
:1046F0000204109207041092060480E597E090935C
:10470000E9038093E80385EC96E090930904809395
:10471000080481EA96E0909305048093040480EAFB
:1047200096E09093EB038093EA0384B7877F84BF7E
:104730000FB6F894A895809160008861809360001E
:10474000109260000FBE80E890E00FB6F89480935E
:104750006100909361000FBE85B7806885BF85B703
:10476000806885BF8BE799E09093D9018093D80149
:104770000E94E8040E94DD058091E200846080933D
:10478000E200789480919A038823A1F01091E900C7
:104790001F709091EC00892F817090FD80E8182B9C
:1047A0001092E9008091E80083FD0E94830F1F7042
:1047B0001093E90082E084BD93E095BD9AEF97BD28
:1047C00080936E0010921603109217031092180334
:1047D000109219030E94510F811102C00E94AD0E68
:1047E0000E947D0D91E08927809348010E947D0DF4
:1047F00081110E94382A80914801811131C0FE0147
:10480000379686E0DF011D928A95E9F781E9898371
:1048100080E98A8384E98B8386E68C8387E98D83AC
:1048200086EC8E833697ACE3B1E0CE010D962191F4
:104830002D938E179F07D9F78AE0E4E6F1E0DE01B9
:10484000919601900D928A95E1F7FE01B196A2E34F
:10485000B1E0CE018B9621912D938E179F07D9F74A
:104860008091480196E0811190E09093350386E0B5
:10487000891B809334030CE311E082E4E82E81E08D
:10488000F82EF80181918F018F3F11F00E947F096E
:10489000E016F106B1F702E311E0BCE3EB2EB1E064
:1048A000FB2ED8018D918D018F3F11F00E947F0961
:1048B000E016F106B1F788E1EAE5F3E0DF01282F21
:1048C0001D922A95E9F7ECE1F3E0DF011D928A954C
:1048D000E9F790E080E00E944C2C893E9E4F21F445
:1048E0000E94510F811102C00E94B71382E090E034
:1048F0000E94442C809341030E946A0F90931B03F3
:1049000080931A030E94321FEFE3FCE93197F1F71D
:1049100000C000000E94321F80915A0380FF08C02F
:104920006FEF7FEF90E080E00E94702C0E94AB0759
:1049300083E090E00E94442C0E94020C0E947D0DB6
:10494000811102C00E943B2A80914801811106C05A
:1049500084E38093560186E38093550120915601AC
:10496000A22FA295AF70B0E091963C9191972F70D5
:1049700081E090E0BC01022E01C0660F0A94EAF7C4
:10498000462F4095432391964C93919792963C9154
:104990009297362B92963C93929740915501E42F33
:1049A000E295EF70F0E031A14F70042E01C0880F46
:1049B0000A94EAF7982F9095932391A392A1892BBB
:1049C00082A390968C9190E002C0959587952A9548
:1049D000E2F7817020A130E002C0359527954A9515
:1049E000E2F792E020FF90E0892B80933B039091C7
:1049F000480181E0982790933A03891B80933603FE
:104A00008091E403807F82608093E4038091E503DA
:104A1000807885678093E503E8EAF3E084EE93E02D
:104A20002FEF21938E179F07E1F781E00E94020C80
:104A300089E491E09093820380938103E8E14E2E14
:104A4000512CF2E76F2EF3E07F2EA3E0AA2EB12CBB
:104A500080919A0300E112E1853009F45FC20E945F
:104A6000321F81110E94CB077AE5E72E73E0F72E03
:104A7000E2E4F3E0D70110E000E0202E8D909D905D
:104A8000819191918815990509F458C28825992535
:104A9000312CCC24C394D12C9C012C213D21232BDF
:104AA00009F446C20E947D0D8823A9F039A22AA2EA
:104AB0008C209D2081E0892809F480E08BA30E944E
:104AC000D7078160782F9DA38CA349A15AA16BA120
:104AD0008DA10E94A21E000F111FF801EE5BFC4F7A
:104AE00080819181C826D926D182C08280913B03E2
:104AF000E82FEE0FEE0F80915601A82FA295AF7010
:104B0000B0E090962C9130E08F7002C035952795DB
:104B10008A95E2F72170332790915501A92FA2952C
:104B2000AF70B0E090964C9150E09F7002C05595E8
:104B300047959A95E2F7CA018170992740FF02C014
:104B400082E090E0822B8E2B80933B0310913A03FE
:104B50008F70E82FF0E0E755FE4F80819091390388
:104B6000890F8093390320E0843064F0E12FF0E076
:104B7000E95CFC4F80818F5F808360E0812F0E9421
:104B8000122121E0809139038D3F64F4E12FF0E0A0
:104B9000E95CFC4F80818150808361E0812F0E941D
:104BA000122121E080913903082E000C990B64E05A
:104BB00070E00E940D2C8093390321110E94480B54
:104BC00086E0E9E7F3E0DE01119601900D928A9507
:104BD000E1F7D0907B03C0907C0310917D0300919E
:104BE0007E0310927B0310927C0310927D0310923F
:104BF0007E038D2D8C2909F448C080917703909114
:104C000078030E94BC079C0190917303992309F4D7
:104C1000C9C323333105C8F19F3F19F09F5F9093BB
:104C20007303DD2059F00E9401099FEF1D140CF45D
:104C300091E0899F802D112480937B03CC2059F033
:104C40000E9401099FEF1C140CF491E0899F802DB4
:104C5000112480937C0330917B033323B1F02091A6
:104C60007C03222391F045EB3403C00111249923E6
:104C700009F47BC190937B0355EB2503900111242C
:104C8000332309F476C130937C03812F802B09F400
:104C900048C080917503909176030E94BC079C01E7
:104CA00090917203992309F478C325363105C8F130
:104CB0009F3F19F09F5F90937203112359F00E9458
:104CC000DF089FEF11160CF491E0899F802D1124CD
:104CD00080937D03002359F00E94DF089FEF101698
:104CE0000CF491E0899F802D112480937E033091F4
:104CF0007D033323B1F020917E03222391F045EB15
:104D00003403C0011124992309F437C190937D0322
:104D100055EB250390011124332309F432C130935C
:104D20007E0380917B0390917C03892B90917D037E
:104D3000892B90917E03892B11F00E943F0886E019
:104D4000FE013196A9E7B3E001900D928A95E1F753
:104D5000E0910804F0910904309719F088EE93E08F
:104D600009959FB7F8940091D1048091D004081759
:104D700008F40BC1081B9FBFD12CC12C10E0882464
:104D80008394912CC016D10608F403C180913E0390
:104D900090913F030E94BC072091E603269526953B
:104DA00026952F702817190609F060F50E94D7077D
:104DB00090933F0380933E0380913D03882311F13C
:104DC0009091E503991F9927991F8091E6038770B9
:104DD000880F40913C0361E0892B0E94E50380919C
:104DE0003D0390913C0387FF8BC1E82FFF27E1959E
:104DF0000CF4F0959E171F060CF082C110923C0334
:104E000010923D030E94A00D90914003891721F05C
:104E10000E94A00D8093400380919A038430E1F4B6
:104E2000809158018F708093E9009091E80090FF85
:104E300013C090919A03943079F48093E900909193
:104E4000F3008091F200892B39F08091E8008E7791
:104E50008093E8000E94070580919A03843009F04E
:104E6000F7CD83E08093E9008091E80082FFF0CDE8
:104E70008091E80090E085FF09C050E040E060E2EA
:104E800070E0CE0101960E94620591E08091E800F9
:104E90008B778093E800992309F4DACDE981E1501A
:104EA000E33108F091C1F0E0E455F34D0C94212C6E
:104EB00080919A03843011F110928503F0E40FB6CB
:104EC000F894A895409260000FBEF093600083B7FD
:104ED000817F846083BF83B7816083BF7894889526
:104EE00083B78E7F83BF0FB6F894A895809160003A
:104EF000886180936000109260000FBE80919903DA
:104F0000882361F00E94321FEAE5F3E081919191DC
:104F1000892B09F023C26E167F06C1F780919A0390
:104F2000853009F4C5CF0E94780F0E94A00D97CD5F
:104F30003394CC0CDD1C2AE03212AECD0F5F1F4F34
:104F40000C30110509F099CD8FEF8BA78CA71DA60A
:104F50000E94D7078160782F9FA78EA74BA55CA5DD
:104F60006DA58FA50E94A21EC1CD81E080937B0319
:104F700083CE81E080937C0388CE81E080937D03A3
:104F8000C7CE81E080937E03CCCE2091D204020F65
:104F9000F1CE8091D00490E06091D20470E00E9444
:104FA0000D2C2091D3043091D404280F391FD9013E
:104FB0003C9020900D04B7EFB315F0F4E1E0E093DE
:104FC0000D0420E040E0632D81E090E00E94F603B4
:104FD00020920D042FB7F8948091D00490E00196B0
:104FE0006091D20470E00E940D2C8093D0042FBFFA
:104FF000BFEFCB1ADB0AC6CE37FE53C0F4E02F1644
:1050000031F030920A0490920F0480920E04832DA6
:105010000E94A206813069F08823D1F08230A9F085
:10502000833099F010920D0410920F0410920E0428
:10503000D1CF80930D0420E040E0632D81E090E02B
:105040000E94F60310920D04C5CF80930D04C2CFC9
:1050500020EF3216E1F047EF3412E4CF20910E0436
:1050600030910F04C901B5010E94F92BFC01E851F0
:10507000FC4F32A2C901019690930F0480930E0455
:1050800020910C0440910B0460910A04D9CF54E0A4
:1050900050930D0430920A0490920F0480920E04F3
:1050A00099CF222009F496CF20910E0430910F045D
:1050B000C901B5010E94F92BAC01FC01E851FC4F7C
:1050C00032A2C901019690930F0480930E044130DF
:1050D000510589F04230510509F07CCF20910C0434
:1050E00040910B0460910A040E94F60380910D0424
:1050F000843091F66FCFA2E020E02A126BCFF0CF80
:10510000890F87FD03C080933C037CCE8FE7FBCFE4
:105110001A8289E08B8311C08A81823009F434C1FC
:10512000833091F1813009F04FC00E94CB070E947B
:10513000272C6B837C838D839E8380919A0384309C
:1051400009F086CC1091E9001F709091EC00892F36
:10515000817090FD80E8182B82E08093E9008091B7
:10516000E80080FF0DC050E040E060E270E0CE015A
:1051700001960E9438058091E8008E778093E800C0
:105180001F701093E90064CCFE013196D7018C9119
:1051900011969C91B2E0EB0EF11C928383833296C0
:1051A00022E7E21623E0F20689F7C7CF8A81823030
:1051B00059F46B817C818D819E810E94272C86E22F
:1051C00090E00E94522CB9CF8FEF8983B6CF4C81EB
:1051D0006B818A810E94BC0E9827892798279E831D
:1051E0008D83ABCF0D811E811027012710278A8167
:1051F000EB8044E1E49E7001112450EF859FE00CA8
:10520000F11C11248C8190E0880F991FE80EF91E83
:10521000612FC70187960E94522C602FC701889684
:10522000D0CF0E943F0E89CF80E18A8386CF81E074
:105230008A836FCF0A811B81102701271027CE0197
:1052400001967C01CC80DC01AC0DB11D6D01C80163
:1052500089509D4FCE14DF0409F46FCF0930B1E0BF
:105260001B0750F40E94442CF70184830F5F1F4FEB
:10527000BFEFEB1AFB0AEBCFD70114961C92F6CFC7
:105280000A811B81102701271027FE0131966F012B
:10529000EC80E00EF12EF11CC80189509D4FE01604
:1052A000F10609F44ACF0930F1E01F0728F4D601CE
:1052B00014966C910E94522CBFEFCB1ADB0A0F5F41
:1052C0001F4FEACF0E942F0E38CF83E0AECF0A8166
:1052D0001B81102701271027FE0131967F01CC800A
:1052E000AF014C0D511D6A01C8018796CE14DF0431
:1052F00009F423CF003D52E0150758F40E94442CD6
:10530000D70114968C930F5F1F4FFFEFEF1AFF0A20
:10531000EBCFF7011482F7CF0A811B8110270127F9
:105320001027AE014F5F5F4F6A01EC80E00EF12E57
:10533000F11CC8018796E016F10609F4FECE003D87
:1053400052E0150728F4D60114966C910E94522C55
:10535000BFEFCB1ADB0A0F5F1F4FEBCF09BD19BDA3
:1053600009B400FEFDCF8091D8008F7D8093D800D6
:105370008091E00082608093E0008091E00081FDF8
:10538000FCCF0E94780FCACD86E290E00E94442CA8
:105390001B821C821D828E83D0CE2D32314008F0BC
:1053A00089CCBFCC2D32314008F038CC6ECC8EE1A8
:1053B0004A9B02C08150E1F74A9BFECF08955A985C
:1053C00080E28A95F1F75A9A0895FC013BE03A95FC
:1053D000F1F798E020E080E031E040E14A95F1F714
:1053E000880F4A9B02C08160232742E04A95F1F76B
:1053F000000040E14A95F1F7915079F790E19A95D4
:10540000F1F799B132E03A95F1F7000040E14A95A1
:10541000F1F792FB992790F992272081920F9083C0
:105420000895EF92FF920F931F93CF93DF930F9204
:10543000CDB7DEB719828C017C01E60EF11C0E158A
:105440001F0561F481E09981911180E00F90DF9157
:10545000CF911F910F91FF90EF9008950E94D7294F
:10546000CE0101960E94E529F80181938F01E7CFD3
:10547000529A5A9A089552985A9AEA9AE9E6F0E0AE
:1054800080818F7C808308956150770B91E001C00B
:10549000990F6A95EAF720E031E0911108C02223C4
:1054A00091F05A9A80E28A95F1F75A980895492F17
:1054B000482339F05A9A232740E24A95F1F7969506
:1054C000ECCF5A98F9CF5A98EDCFFF920F931F93D4
:1054D000CF93DF93EC018C01060F111DC017D1078C
:1054E00031F4DF91CF911F910F91FF900895F990C2
:1054F0000E94DF2968E08F2D0E94442AEFCF1F927F
:105500000F920FB60F921124EF92FF920F931F93F9
:105510002F933F934F935F936F937F938F939F93BB
:10552000AF93BF93EF93FF93CF93DF930F92CDB7DA
:10553000DEB719820E94D729CE0101960E94E52983
:10554000A82FA695A695A695282F229525709A2F67
:105550009570290F922F937026952695920F982774
:1055600097708981982B09F075C0A63008F072C039
:1055700080E18A95F1F75A9A529AB2E0BA95F1F71A
:1055800000C05A98EA2EF12CEAE0AE9FD001112417
:10559000A050BF4F1896ED91FC9119973097B1F03C
:1055A0006091A7017091A80116962D913C911797D3
:1055B000260F371F13968D919C911497680F791FB2
:1055C00015964C91159712968C9109958AE08E9DAF
:1055D000F0018F9DF00D1124E050FF4F658166238F
:1055E00051F02091A7013091A80186819781820F07
:1055F000931F0E94652A0E94DF29F0E1FA95F1F7D6
:105600005A9852985A9A80E18A95F1F78AE08E9DCD
:1056100080018F9D100D112400501F4FD80112964C
:105620006C911297662371F12091A7013091A80126
:1056300013968D919C91820F931F0E94112AD8017D
:10564000ED91FC91882311F088E001C082E0808315
:105650000E94D7290F90DF91CF91FF91EF91BF91D9
:10566000AF919F918F917F916F915F914F913F91FA
:105670002F911F910F91FF90EF900F900FBE0F9001
:105680001F901895ED91FC91DFCF0F931F93CF934F
:10569000DF93EC0106970CF0A9C08AE08C9FF00123
:1056A0008D9FF00D1124E050FF4F80819181892B57
:1056B00009F49CC0F894529A5A9885E08A95F1F7BB
:1056C00000008C2F869585709C2F9570890F982FE0
:1056D000937086958695890F8E0193E0000F111FB8
:1056E0009A95E1F7082B0E94DF2900C068E0802F1F
:1056F0000E94442AA0E1AA95F1F752985A9A4A9B2F
:1057000027C087E090E04A9925C08AE08C9F8001FD
:105710008D9F100D112400501F4FF80165816623E5
:10572000A1F12091A7013091A80186819781820F74
:10573000931F0E94112A811128C0529A5A9AD801A7
:10574000ED91FC9182E08083789482E090E016C035
:1057500000C0D5CF0197B9F4529A5A9A8AE08C9F2B
:10576000F0018D9FF00D1124E050FF4F0190F0816A
:10577000E02D81E08083789481E090E0DF91CF910B
:105780001F910F91089500C0BECF0E94D729B0E2AB
:10579000BA95F1F75A98529AE0E1EA95F1F78AE062
:1057A0008C9FF0018D9FF00D1124E050FF4F62811E
:1057B000662351F02091A7013091A8018381948143
:1057C000820F931F0E94652A0E94DF298AE08C9F26
:1057D000F0018D9FF00D1124E050FF4F0190F081FA
:1057E000E02D1082789490E080E0C8CF84E090E0D3
:1057F000C5CFAA1BBB1B51E107C0AA1FBB1FA61721
:10580000B70710F0A61BB70B881F991F5A95A9F769
:1058100080959095BC01CD01089597FB072E16F455
:10582000009407D077FD09D00E94F92B07FC05D022
:105830003EF4909581959F4F0895709561957F4FA7
:105840000895EE0FFF1F0590F491E02D099469274C
:10585000962769277827872778270895FB01DC0199
:1058600004C08D910190801921F441505040C8F737
:10587000881B990B0895FB01DC0102C001900D9279
:1058800041505040D8F70895F999FECF92BD81BD9F
:10589000F89A992780B50895A8E1B0E042E050E079
:1058A0000C94782C262FF999FECF92BD81BDF89AE1
:1058B000019700B4021639F01FBA20BD0FB6F89454
:1058C000FA9AF99A0FBE08950396272F0E94532C37
:1058D0000E94522C252F0E94532C242F0C94532CC1
:1058E0000196272F0E94532C0C94522CDC01CB01E3
:1058F000FC01F999FECF06C0F2BDE1BDF89A3196E0
:1059000000B40D9241505040B8F70895F894FFCF7D
:105910003C0F3C0F450F450F470F450F450F450FF7
:105920003C0F3C0F4C0F450F450F4C0F6910911069
:105930003F1291103F12C410E5103F12E311F01115
:10594000BC1ABC1A131B131B451B5F1BEF1AEF1A63
:105950006A1BDB1BEB1BEB1B88288C28D628E7284F
:10596000F2281129E428E428E428E428E42814296A
:0E59700017291A2940296229652967298C29DF
:10597E00E2010000000100000000E2010000000C46
:10598E0001000000E201000000010D000000E20134
:10599E00000000010E000000E201040F00000000F4
:1059AE00000031F7F6F5F433323690913534C69760
:1059BE006694000000000000019D060C0DEB0CE744
:1059CE000CE30C9C0637670485400000010640007E
:1059DE0000010001F4F5F6F73133326737F18182B9
:1059EE0083E200E900EA00B500B600B700CD0083FF
:1059FE0001CC008A01920194012102230224022586
:105A0E0002260227022A02B300B4006F00700008BB
:105A1E00070806090709066E0200FF0100010000D3
:105A2E00FFFF0000010001FF000203020000010061
:105A3E00010101010100010140227B49012701AC56
:085A4E00001B0534055405009E
:00000001FF
