:100000000C9436070C947D070C947D070C94531ABE
:100010000C947D070C947D070C947D070C947D0750
:100020000C947D070C947D070C9464310C9437324A
:100030000C94A6270C947D070C947D070C947D07E7
:100040000C947D070C947D070C947D070C947D0720
:100050000C947D070C9411280C947D070C947D075B
:100060000C947D070C947D070C947D070C947D0700
:100070000C947D070C947D070C947D070C947D07F0
:100080000C947D070C947D070C947D070C947D07E0
:100090000C947D070C947D070C947D070C947D07D0
:1000A0000C947D070C947D070C947D07FFFFFFFFE8
:1000B000FFFFFFFFFFFFFFFFFFFFFFFFFFFFFFFF50
:1000C000FFFFFFFFFFFFFFFFFFFFFFFFFFFFFFFF40
:1000D000FFFFFFFFFFFFFFFFFFFFFFFFFFFFFFFF30
:1000E000FFFFFFFFFFFFFFFFFFFFFFFFFFFFFFFF20
:1000F000FFFF3C3D3E3F404142FFFFFF48494A4B26
:100100004C4D4EFFFFFFFFFFFFFFFFFFFFFFFFFF15
:10011000FFFF4746454443FFFFFFFF5453525150F2
:100120004FFFFFFF000C1824300B17232F3B010D4E
:100130001925310A16222E3A020E1A2632091521E5
:100140002D39030F1B27330814202C3804101C28CA
:100150003407131F2B3705111D293506121E2A36A9
:1001600055565758595A5BFFFFFF626364656667CF
:1001700068FFFFFFFF6F7071727374FFFFFFFF6115
:10018000605F5E5D5CFFFFFFFF6E6D6C6B6A69FF19
:10019000FFFFFF7A7978777675FFFFFFA2011A02D9
:1001A000000000061CFFFF0B0100FFFF0C01000018
:1001B000FF0D010BB0FF18010000FF230180FF803D
:1001C0003C061CFFFF4A010BB0FF5501AAFFFF567A
:1001D0000180FFFF57016AFFFF580155FFFF5901DA
:1001E00040FFFF6001EA80FF62061CFFFF6B012BEE
:1001F000FFFF6C0155FFFF6E0100FFFF70010BB0A8
:10020000FF77010BB0FF780180FFFF790124FFFF2A
:100210007A016AFFFFFF00000000010A1CFFFF15C2
:10022000021CFFFF19031CFFFF1E051CFFFF250218
:100230001CFFFF2D021CFFFF39021CFFFFFF000007
:1002400000002A5D365D425D4E5D5A5D2F5D3B5D6F
:10025000475D535D5F5D315D3D5D495D555D615D50
:10026000345D405D4C5D585D645D2C5D385D445D82
:10027000505D5C5D2D5D395D455D515D5D5D335D5E
:100280003F5D4B5D575D635D325D3E5D4A5D565D32
:10029000625D2E5D3A5D465D525D5E5D2B5D375D54
:1002A000435D4F5D5B5D295D355D415D4D5D595D34
:1002B000305D3C5D485D545D605D4F5C525C555CFB
:1002C000585C5B5C5E5C615C0000000000004E5CA2
:1002D000515C545C575C5A5C5D5C605C00000000E3
:1002E00000004D5C505C535C565C595C5C5C5F5C30
:1002F0000000000000000000A849705C6D5C6A5CB2
:10030000675C645C0000000000000000725C6F5CD1
:100310006C5C695C665C635C0000000000000000CF
:10032000715C6E5C6B5C685C655C625C000000002C
:1003300000000100010001000100010001000100B6
:1003400001000100010001000100010001000100A5
:100350000100010001000100010001000100010095
:100360000100010001000100010001000100010085
:100370000100010001000100010001000100010075
:100380000100010001000100010001000100010065
:100390000100010001000100010001000100010055
:1003A00001000100010001000100505C535C565C3B
:1003B000595C5C5C5F5C625C0000000000004E5CAD
:1003C000515C545C575C5A5C5D5C605C00000000F2
:1003D00000004F5C4F5C525C555C585C5B5C5E5C43
:1003E00000000000000000000100715C6E5C6B5CAE
:1003F000685C655C0000000000000000725C6F5CDF
:100400006C5C695C665C635C0000000000000000DE
:10041000705C6D5C6A5C675C645C615C0000000041
:1004200000002E5D2A5D365D425D4E5D335D2F5DC1
:100430003B5D475D535D295D315D3D5D495D555DCA
:100440002C5D345D405D4C5D585D305D2C5D385DEC
:10045000445D505D315D2D5D395D455D515D2B5DC8
:10046000335D3F5D4B5D575D2A5D325D3E5D4A5DAC
:10047000565D325D2E5D3A5D465D525D2F5D2B5DB2
:10048000375D435D4F5D2D5D295D355D415D4D5DA2
:10049000345D305D3C5D485D545D4F5C525C555C45
:1004A000585C5B5C5E5C615C0000000000004E5CC0
:1004B000515C545C575C5A5C5D5C605C0000000001
:1004C00000004D5C505C535C565C595C5C5C5F5C4E
:1004D00000000000000000000100705C6D5C6A5CC0
:1004E000675C645C0000000000000000725C6F5CF0
:1004F0006C5C695C665C635C0000000000000000EE
:10050000715C6E5C6B5C685C655C625C000000004A
:100510000000BB5CBA5C000000002F5C485C4A5CD9
:100520004C5C4E5C505C000000000000305C325CB3
:10053000455C475C495C4B5C4D5C00002F5C315C6A
:10054000335C355C425C445C465C485C4A5C305CD5
:10055000325C345C365C385C3F5C415C435C455CDF
:10056000475C335C355C375C395C3B5C3C5C3E5CD7
:10057000405C425C445C365C385C3A5C3C5C3E5CB3
:10058000395C3B5C3D5C3F5C415C4F5C525C555C64
:10059000585C5B5C5E5C615C0000000000004E5CCF
:1005A000515C545C575C5A5C5D5C605C0000000010
:1005B00000004D5C505C535C565C595C5C5C5F5C5D
:1005C0000000000000000000A849705C6D5C6A5CDF
:1005D000675C645C0000000000000000725C6F5CFF
:1005E0006C5C695C665C635C0000000000000000FD
:1005F000715C6E5C6B5C685C655C625C000000005A
:100600000000305C315C325C335C345C465C475CDF
:10061000485C495C4A5C325C335C345C355C365C1B
:10062000445C455C465C475C485C345C355C365CED
:10063000375C385C425C435C445C455C465C365CE1
:10064000375C385C395C3A5C405C415C425C435CE2
:10065000445C385C395C3A5C3B5C3C5C3E5C3F5CD7
:10066000405C415C425C3A5C3B5C3C5C3D5C3E5CBB
:100670003C5C3D5C3E5C3F5C405C485C4A5C4C5C86
:100680004E5C505C525C545C000000000000475C13
:10069000495C4B5C4D5C4F5C515C535C000000005E
:1006A0000000475C485C4A5C4C5C4E5C505C525CB1
:1006B0000000000000000000A8495E5C5C5C5A5C21
:1006C000585C565C00000000000000005F5C5D5C50
:1006D0005B5C595C575C555C00000000000000004A
:1006E0005E5C5C5C5A5C585C565C545C00000000CC
:1006F00000002E5D2A5D365D425D4E5D335D2F5DEF
:100700003B5D475D535D295D315D3D5D495D555DF7
:100710002C5D345D405D4C5D585D305D2C5D385D19
:10072000445D505D315D2D5D395D455D515D2B5DF5
:10073000335D3F5D4B5D575D2A5D325D3E5D4A5DD9
:10074000565D325D2E5D3A5D465D525D2F5D2B5DDF
:10075000375D435D4F5D2D5D295D355D415D4D5DCF
:10076000345D305D3C5D485D545D705C6D5C6A5C21
:10077000675C645C615C5E5C000000000000715CB2
:100780006E5C6B5C685C655C625C5F5C00000000DA
:100790000000725C6F5C6C5C695C665C635C605CF6
:1007A0000000000000000000A8494F5C525C555C4E
:1007B000585C5B5C00000000000000004D5C505C79
:1007C000535C565C595C5C5C00000000000000005B
:1007D0004E5C515C545C575C5A5C5D5C00000000F0
:1007E0000000165C2B003900E100E0002A004C00FC
:1007F0002800E5004F001E00140004001D00E30067
:10080000270013003300380051001F001A001600A3
:100810001B00E200260012000F00370050002000ED
:10082000080007000600914825000C000E00360065
:10083000085121001500090019002C00240018009F
:100840000D0010006500220017000A0005002C00B2
:1008500023001C000B0011009000010001000100AA
:100860000100010001000100000000000000010083
:100870000100010001000100010001000000000072
:100880000000010001000100010001000100010061
:100890000000000000000000010001000100010054
:1008A0000100010000000000000000000100010044
:1008B0000100010001000100000000000000000034
:1008C0000100010001000100010001000000000022
:1008D0000000165C2B00E000E10039002A004C000B
:1008E000280052724F001E00140004001D00E30097
:1008F000270033001200380051001F001A001500B5
:100900001B00E20026001C000C00370050002000F5
:10091000090016000600914825001800080036005E
:10092000085121001300170019002C0024000F00AB
:1009300011001000650022000A00070005002C00CD
:1009400023000D000B000E009000010001000100CB
:100950000100010001000100000000000000010092
:100960000100010001000100010001000000000081
:100970000000010001000100010001000100010070
:100980000000000000000000010001000100010063
:100990000100010000000000000000000100010053
:1009A0000100010001000100000000000000000043
:1009B0000100010001000100010001000000000031
:1009C0000000010001000100010001000100010020
:1009D0000100010001003A000000AA00BE00010071
:1009E00043002E003500300031003B000000A9001C
:1009F000BD00010042002D004F002F0034003C00DC
:100A00000000A800000001004100000052000000AA
:100A100001003D0000000000000001004000000057
:100A20005100000001003E00000000000000010035
:100A30003F00000050000000010001000100010023
:100A400001000100010001000000000000000100A1
:100A50000100010001000100010001000000000090
:100A6000000001000100010001000100010001007F
:100A70000000000000000000010001000100010072
:100A80000100010000000000000000000100010062
:100A90000100010001000100000000000000000052
:100AA0000100010001000100010001000000000040
:100AB0000000655D0652075200000000C35C0000A4
:100AC0006C5D00000000665D6B5D000000000000D2
:100AD00000000000000000000000675D0000000052
:100AE0000000000000000000000000000000685D41
:100AF00000000000000000000000000000000000F6
:100B00000000695D0000000000000000000000001F
:100B10000000000000006A5D00000000000000000E
:100B200000000000000000000000775C785C795C49
:100B30007A5C7B5C00000000000000000000655D46
:100B4000665D675D685D695D6A5D000000000000CC
:100B50000000000000006B5D0000000000000000CD
:100B600000000000000000000100DF5C0000000049
:100B7000000000000000000000000000C35C000056
:100B80009E5C9D5C00000000000000000000000072
:100B90006F5D6E5D6D5D705D000000000000000027
:100BA00000003C3D3E3F404142434445464761547E
:100BB000535251504F4E4D4C4B4A49485556575839
:100BC000595A5B5C5D5E5F606E6D6C6B6A696867ED
:100BD00066656463626F7071727374757677787925
:100BE0007A0B0A090807060504030201000C0D0E22
:100BF0000F1011121314151617232221201F1E1D6A
:100C00001C1B1A19182425262728292A2B2C2D2E9F
:100C10002F3B3A3938373635343332313000010121
:100C200001010101010101020202020202020202AB
:100C3000030303030303030304040404040404057B
:100C4000050505050606060606070707070708083F
:100C50000808090909090A0A0A0B0B0B0C0C0C0DF0
:100C60000D0D0E0E0E0F0F0F101011111112121389
:100C7000131414151516161717181819191A1A1B04
:100C80001B1C1D1D1E1E1F20202122222324242563
:100C90002626272829292A2B2C2D2D2E2F3031329C
:100CA00032333435363738393A3B3C3D3E3F4041AC
:100CB00042434445464748494A4C4D4E4F50515394
:100CC00054555658595A5B5D5E5F6162646566684B
:100CD000696B6C6D6F7072737577787A7B7D7E80CF
:100CE00082838587888A8C8E8F91939596989A9C1B
:100CF0009EA0A2A3A5A7A9ABADAFB1B3B5B7BABC2F
:100D0000BEC0C2C4C6C9CBCDCFD1D4D6D8DBDDDFFF
:100D1000E2E4E7E9EBEEF0F3F5F8FAFDFF1603671E
:100D20000069006100620061006C0061006E00619A
:100D300000690000000E033300610072006100686A
:100D400000740000000403090409029F000401006C
:100D5000A0FA0904000001030101000921110100AA
:100D6000012240000705810308000A09040100016F
:100D70000300000009211101000122320007058251
:100D80000320000A080B020201010000090402000E
:100D90000001010000092401000109000103090408
:100DA00003000201030000072401000141000624A2
:100DB00002010100062402020200092403010301CA
:100DC00002010009240302040101010009050402D3
:100DD00040000500000525010101090583024000CE
:100DE00005000005250101031201100100000008A3
:100DF000EDFEB0F401000102000105010980A1012E
:100E0000850319012AB700150126B7009501751051
:100E10008100C0050C0901A101850419012AA00265
:100E2000150126A002950175108100C00501090673
:100E3000A101050719E029E71500250195087501AD
:100E400081029501750881010507190029FF150028
:100E500026FF0095067508810005081901290595EA
:100E60000575019102950175039101C011241FBE02
:100E7000CFEFDAE0DEBFCDBF04B603FE27C080911E
:100E8000570690915806A0915906B0915A0687309E
:100E9000904BA740B04BD1F41092570610925806D1
:100EA0001092590610925A0614BE84B7877F84BFE9
:100EB0000FB6F894A89580916000886180936000D7
:100EC000109260000FBEE0E0F8E3099511E0A0E0A9
:100ED000B1E0E2E3FAE602C005900D92A43DB1074D
:100EE000D9F726E0A4EDB1E001C01D92A735B20705
:100EF000E1F70E944F2E0C9468340C940000CF92BE
:100F0000DF92EF920F931F93CF93DF93C82FC80107
:100F1000D091DA03DF776A01C20ED11CF60110818D
:100F2000FB012281222309F11F3F71F40E945A0F15
:100F3000182F2D2F482F6C2F8DE595E0EE2061F0B6
:100F40000E942029F6011083DF91CF911F910F910C
:100F5000EF90DF90CF9008950E9420292D2F4CE034
:100F6000410F6C2F8DE595E0EBCF1F3F49F02D2F02
:100F7000412F6C2F8DE595E0EE2031F00E94302955
:100F80008FEFF6018083E0CF0E9430294CE0410FC3
:100F90002D2F6C2F8DE595E0F1CF8F929F92AF9220
:100FA000CF92EF920F931F93CF93DF93C82FC80177
:100FB0001091DA031F774A01820E911CF401D0814F
:100FC000FB012281222349F1DF3FE9F40E945A0FFD
:100FD000D82F4E2D480F212F6C2F8DE595E00E94C4
:100FE00020294C2D4D0F212F6C2F8DE595E00E946F
:100FF00020294A2D4D0F212F6C2F8DE595E00E9461
:101000002029F401D083DF91CF911F910F91EF90B0
:10101000CF90AF909F908F900895DF3FC1F04E2DFD
:101020004D0F212F6C2F8DE595E00E9430294C2D1E
:101030004D0F212F6C2F8DE595E00E9430294A2D10
:101040004D0F212F6C2F8DE595E00E9430298FEFF9
:10105000F4018083D8CFEF92FF920F931F93CF9329
:10106000DF93D82FCB01FA01B90121ED280FC091F0
:10107000DA03CF77EE2019F0CF31F8F0CE517B01B3
:10108000E20EF11CD7014C9122812223C1F04F3F87
:1010900069F40E945A0F182F402F480F2C2F6D2FE4
:1010A0008DE595E00E942029F7011083DF91CF9113
:1010B0001F910F91FF90EF900895C0E0E0CF4F3F58
:1010C00039F0400F2C2F6D2F8DE595E00E943029CF
:1010D0008FEFD7018C93EACF0F931F93CF93DF93BA
:1010E0008B01D82FC92F49E00E945C23682F80E034
:1010F0000E94791548E0B8018D2F9C2F0E945C2337
:10110000682F81E00E947915B8018D2F9C2FDF9107
:10111000CF911F910F9108958091D903807F8260B4
:101120008093D9038091DA03807885678093DA030E
:10113000EEE1F2E08FEF819392E0EA35F907D9F71B
:10114000E6EDF1E08FEF8193A2E0EE31FA07D9F7F7
:101150000E947B266093A3037093A4038093A5034E
:101160009093A6030E940F0F882351F080911701DE
:10117000882331F060E470E080E090E00E94CF22AC
:101180008CE991E09093B0028093AF0240E060E080
:1011900080E00C94E314CF93DF9300D000D0CDB760
:1011A000DEB7E3EAF3E09081892F8E7F90FF8160C4
:1011B00080838091A3039091A403A091A503B09193
:1011C000A60389839A83AB83BC83BC01CD010F90B6
:1011D0000F900F900F90DF91CF910C947F2680910C
:1011E0005C02882329F010925C0210925D0208953F
:1011F00081E080935C0282E080935D02089510920A
:10120000A3031092A4031092A5031092A60360E01A
:1012100070E0CB010E947F2680E00C94900A0F932F
:10122000FC01862F642F422F202F0F3F51F0928117
:10123000992319F00F910C94AA1540E060E080E02A
:10124000F9CF0F910895AF92CF92EF92FF920F9343
:101250001F93CF93DF93DC01EB012981888190E01C
:101260003AE0239F800D911D1124FC01EC5DFE4F9F
:10127000F490FC01E455FF4F149127ED2A0FA1379C
:101280008DE5B80708F04DC0A5333DE5B307A8F4D8
:10129000A7378CE5B80788F5AF323CE5B30708F00F
:1012A000C2C0A83A89E4B80731F0F8F4A83EB10505
:1012B00078F4149780F00F2DD3C0FD01E154FD4563
:1012C000E033F10508F087C0E659FB4C0C9411346B
:1012D000A139B84481F381E0DF91CF911F910F9143
:1012E000FF90EF90CF90AF900895A83031E5B3070D
:1012F00011F3A631BC45F9F2EECFCD0189529D45DF
:101300000C9748F7E090A303E0FAEE24E0F88D0193
:101310000E5E11094EE152E080915D020E947F074E
:10132000CACFA235B247B9F6C6CF8A81882399F2CF
:1013300080E00E94900ACFCF8A81882361F281E009
:10134000F8CF8A81882339F282E0F3CF8A8188231B
:1013500011F283E0EECF8A81882309F4BCCF84E0C8
:10136000E8CF8A81882309F4B6CF85E0E2CF8A816D
:10137000882309F4B0CF0E94CB08ADCF8A8188239F
:1013800009F4A9CF0E94EF08A6CF8A81882309F427
:10139000A2CF81E080935A0210925B029CCF8A8197
:1013A000882309F498CF10925A02F6CF8A818823B5
:1013B00009F491CF10925A0281E080935B028BCFA7
:1013C0008A81882309F487CF8091000191E08927E1
:1013D0008093000180CF8D010E5E110977E0A72E6A
:1013E000E4E0CE2EE12C4EE152E0BE0180915C02A1
:1013F0000E94CD0760CF8D010A5F110967E0A62E1C
:1014000053E0C52EEFCF8D01065011409AE0A92E72
:1014100037E0C32E44E0E42EE6CF8D0102511140A7
:1014200086E0A82EEDCF80915B02E09000010CE0F9
:10143000811107C080915A02882351F0E090000189
:1014400004EF26ED31E0AE01BD0180E00E942B08E3
:101450000F2D2AED4AED6EE1CE010E940F09012FFA
:101460002AED4AED6EE1CE010E940F0934CF8130A2
:1014700031F489EA611101C08AEA0C94F71C0895DD
:1014800081E008950C94230908950C94440A1F9355
:10149000CF93DF9300D000D00F92CDB7DEB7498352
:1014A0005A836B833091FE0289819A8131111DC06C
:1014B0006623B9F02223A9F00E94FF24182F682F79
:1014C00089819A810E94A82469817A81812F0F9055
:1014D0000F900F900F900F90DF91CF911F910C9470
:1014E000260B0E94D624182FEFCF0E94FF2469817B
:1014F0007A81EDCFFC01262F408151816281738179
:1015000084810C94470ACF93DF93D82FC92F60E0D2
:101510000E947A0A6D2F7C2FDF91CF910C94450A9F
:10152000CF93DF9300D000D0CDB7DEB721E030E01D
:1015300002C0220F331F8A95E2F73A8329838981FB
:101540000E945526A981BA81CD01B0E0A0E089832F
:101550009A83AB83BC83BC01CD010F900F900F9099
:101560000F90DF91CF910C94CF220E9442268111DF
:1015700002C00E94EA260C94020D0C94050D0895F9
:101580000E94BC1F0E94BF0A2FEF84E39CE0215001
:1015900080409040E1F700C000000C9498280F9321
:1015A0001F93CF93DF93EC0161E00E947A0A8C01D4
:1015B000BE010E94420A882389F1BE01C8010E942F
:1015C000690F882359F1BE01C8010E94D2178823F0
:1015D00029F1BE01C8010E9427188823F9F0BE0135
:1015E000C8010E94FA188823C9F0BE01C8010E94F0
:1015F000CD15882399F08A81882339F001158CE56F
:10160000180751F00F3D1C4579F0CE01DF91CF91C5
:101610001F910F910C94400A0E94C00A80E0DF9154
:10162000CF911F910F9108950E94EA26F7CF089558
:101630000C94170B81E008950C941A0BCF93C82FCC
:101640000E94180B8C2FCF910C941C0B972F70E0DD
:101650002AE0929F600D711D1124FB0198E7899F7C
:10166000E00DF11D1124EE0FFF1FEE5BFD4F859184
:1016700094910895CF93DF930E94260B0E94260C2D
:10168000EC01811522E5920708F053C0811531E580
:10169000930708F0AEC08F3B9105B8F4883A9105E6
:1016A00008F099C0853A910568F4049738F491E000
:1016B00080E0219709F090E0C92FD82FCE01DF916B
:1016C000CF910895A497D064F9CF811540E5940790
:1016D000A0F4C11580E4D80708F088C0C83ED10541
:1016E00030F4C03ED10550F7D0E0C0E0E7CFCE01E6
:1016F0009A9581159F4110F3F7CFF4E09695879561
:10170000FA95E1F783702C2F26952695237040E2F9
:10171000249F90011124382B8C2F8370C1E0D0E0DE
:1017200002C0CC0FDD1F8A95E2F7C22BD32BDC68F9
:10173000C5CFC11586E5D80730F5C11595E5D907A0
:1017400008F06BC0C11524E5D207C0F49C2F969514
:1017500096959E0123703327C115D34508F04EC0DE
:10176000C1E0D0E002C0CC0FDD1F2A95E2F720E2F5
:10177000929FC0011124C82BD92BD9CFDC2FCC27A5
:10178000C46FD06A9BCFC1153AE5D30788F4C11561
:1017900049E5D40708F04CC0CE0198558F3F91051C
:1017A00011F008F0A1CFDC2FCC27C06FD06A86CF14
:1017B000CE0190568115904208F096CF8D2F8F71F3
:1017C0000E94BE0C90E0982F882788279F719C016B
:1017D0002C2BE9012BC0C85AD0E0CC0FDD1FC45B15
:1017E000DE4F0990D881C02DD46468CFDF70D06AF5
:1017F00065CFD82FCC27C16FD06A60CFC1E0D0E0D1
:1018000002C0CC0FDD1F2A95E2F730E2939FC001A2
:101810001124C82BD92BDA6851CF8C2F0E94BE0C13
:10182000C82FD0E0DC2FCC27CC27DF71D06246CF89
:101830008C2F8F700E94BE0C34E0D695C7953A95D8
:10184000E1F7CF70DC2FC82FD06938CF803E9105EB
:1018500099F1C8F48133910509F476C048F48932CE
:10186000910509F46AC08A32910509F474C008959B
:1018700089339105D1F082389105B9F0853391050E
:1018800009F454C00895843E910599F138F4823EDC
:101890009105F9F0833E910509F10895863E910581
:1018A00099F1873E9105B9F1089520915B05237068
:1018B000A1F080EE90E0089520915B0520FD52C0DC
:1018C00030915C0530FF09C024FF4FC090E080E0FC
:1018D00004C020915B0522FDF7CF089520915B05A0
:1018E00022FD46C030915C0530FDE3CF24FFF5CFEB
:1018F000EDCF20915C0521FFF0CF80915B0584FD49
:10190000E5CF87EE90E0089520915B0523FFE5CFBA
:1019100024FDDCCFF6CF20915B0523FD2CC0309158
:101920005C0531FFE3CF84EE90E0089520915B05E4
:1019300025FFD3CF89E290E0089520915B0525FF34
:10194000CCCF85E390E0089520915B0526FFC5CFBD
:101950008AE290E0089520915B0526FFBECF81E3E7
:1019600090E0089589E390E0089583EE90E0089573
:1019700082EE90E0089586EE90E0089590915B05E8
:1019800092FF06C0282F28712830F9F4877F8460E1
:1019900093FF06C0282F28712831F1F4877E8461D7
:1019A00020915C0520FF06C0382F38713830D9F4FB
:1019B000877F816021FF06C0282F28712831D1F44C
:1019C000877E816194FD877E0895282F24712430BD
:1019D000F9F68B7F8860DCCF282F2471243101F742
:1019E0008B7E8861DDCF382F3171313019F78E7FD2
:1019F0008860E0CF282F2171213121F78E7E886108
:101A0000E1CF08950C94010D08950C94040DE82F76
:101A1000F0E0EE0FFF1FE154FC4F808191810895AB
:101A2000089580EA8A95F1F7089500C008950C940E
:101A3000110DF894E82FE295EF70F0E041A18F705E
:101A400021E030E0B90102C0660F771F8A95E2F706
:101A5000CB01962F9095942391A392A1892B82A3D9
:101A60007894089508950F931F93CF93DF93CDB784
:101A7000DEB766970FB6F894DEBF0FBECDBF0E94EB
:101A80002C0F80911701811131C087E0E0E4F1E073
:101A9000DE01119601900D928A95E1F7FE013896CC
:101AA00085E0DF011D928A95E9F7CE010196EBE012
:101AB000F1E09E01235F3F4FDC014D91CD01419349
:101AC000A217B307C9F72AE0EAE7F1E0DE011D96A5
:101AD00001900D922A95E1F7FC01A1E0B1E0CE0161
:101AE000479621912D93E817F907D9F780911701AF
:101AF00096E0811190E09093D80386E0891B809353
:101B0000D7030BE011E0F80181918F010E94190DBC
:101B1000F1E001311F07B9F701E011E0D8018D9123
:101B20008D010E94190DB1E00B301B07B9F7E7EAF0
:101B3000F3E0AFEBB3E0119211921D921D9283E09E
:101B4000EF3BF807C1F786E00E94D30E0E94B50A6A
:101B500066960FB6F894DEBF0FBECDBFDF91CF9172
:101B60001F910F910C94360FCF92DF92FF920F933B
:101B70001F93CF93DF93CDB7DEB72C970FB6F894B2
:101B8000DEBF0FBECDBF0E940F0FF82E6091D803AD
:101B9000882309F463C08E010F5F1F4F8CE0F801AA
:101BA00011928A95E9F7862F90E0880F991FB80166
:101BB00081549C4F0E94301981112AC080915E028D
:101BC0008F5F80935E02863008F446C0E091D703B1
:101BD000F0E0EE0FFF1FE154FC4FD801CE010D964F
:101BE000119211921D921D92A817B907C9F70E9470
:101BF000BD0A8F2D2C960FB6F894DEBF0FBECDBF59
:101C0000DF91CF911F910F91FF90DF90CF900895BA
:101C100010925E02E091D703F0E0EE0FFF1F9F01EC
:101C200021543C4F6901D801AE01435F5F4FF12C55
:101C3000F601619171916F012D913D9162177307CA
:101C400039F0BF0162507109FB0131832083F82E06
:101C5000A417B50769F7CBCFF12CC9CF70E0660F99
:101C6000771F61547C4F8091D70390E0880F991FB4
:101C700081549C4F0E946C190E94320DBACF8F92F2
:101C80009F92AF92BF92CF92DF92EF92FF920F930B
:101C90001F93CF930BE011E097EAE92E93E0F92E22
:101CA00021E1A22E21E0B22EC0E0CC24C394D12C9D
:101CB000F80181918F01F894E82FE295EF70F0E040
:101CC00021A18F70A60102C0440F551F8A95E2F72B
:101CD000CA01922F982B91A392A18095892382A368
:101CE00078940E94150DE1E0F1E030E020E0912CC5
:101CF000812C4191A42FA295AF70B0E090968C9169
:101D000090E04F7002C0959587954A95E2F780FD67
:101D100045C0C601022E02C0880F991F0A94E2F73F
:101D2000882A992A2F5F3F4F2A30310511F7F80191
:101D3000319780810E94190D0E94170DF701808153
:101D400091818816990669F19182808281E0C82B81
:101D5000F2E0EF0EF11CA016B10609F0A9CF6091D8
:101D6000D80370E0660F771F61547C4F2C2F46E03C
:101D700087EA93E00E94D40E0E94B40DC11101C005
:101D8000C82F8C2FCF911F910F91FF90EF90DF9074
:101D9000CF90BF90AF909F908F90089590E080E09B
:101DA000BFCF80E0D4CF0895FF920F931F93CF93BE
:101DB000DF93F82E092F162FD72FC42F222349F097
:101DC00081E0809361020E94D62790936002809305
:101DD0005F02809161028823A1F080915F0290915F
:101DE00060020E940228069760F0EF2DF02FA12FCD
:101DF000BD2F90E080E0D0E08C179D0744F010925A
:101E00006102DF91CF911F910F91FF900895219171
:101E100031912D933D930196EFCF0C94EC26809158
:101E20006202811110C08091D80080618093D80037
:101E30008AE18A95F1F700C08091D90080FD0AC03F
:101E400082E08093620281E090916202913009F019
:101E500080E0089581E0F5CF0E940D0F8093170177
:101E60000E940F0F81110C94241908950E940F0FE6
:101E7000811102C00C942A19089584E08093D9033B
:101E80008FE78093DA038091DB038078806480930E
:101E9000DB03E7E6F2E08FEF819392E0EF3AF90798
:101EA000D9F71092660210926502109264021092A5
:101EB000630208959091D903292F2F7095959595D8
:101EC000959595959F523CE0239F900D1124890F85
:101ED00008950F931F93CF93DF9300D00F92CDB748
:101EE000DEB7DB0187372CE59207B0F48F324CE583
:101EF0009407D8F481E08A838A810F900F900F9025
:101F0000DF91CF911F910F910895E656FB4C1296E9
:101F10002C912A830C941134FC01E757FC45E534DD
:101F2000F10598F341E04A83E7CF2091DA03322F9D
:101F3000331F3327331FE091DB03E770EE0FE32BF2
:101F4000EB832F7729831296FC91FA8301ED080F1A
:101F500010E009591D4FF8014081FA81FF2391F0EB
:101F60004F3F11F01A82C8CF0E945A0F8A832981ED
:101F7000482F6B818DE595E00E9420292A81F80188
:101F80002083F0CF4F3F31F029816B818DE595E0C3
:101F90000E9430298FEFF8018083AECF2A8122235F
:101FA00009F38757982F9F708091D903807F892BE1
:101FB0008093D903D7CF4A814423A1F28091D903DA
:101FC000982F9F7079F2915F9F70F0CF8A8188235C
:101FD00049F28091D903982F9F70993018F69F5F2E
:101FE000F3CF2A81222309F4BDCF8958982F9295E7
:101FF000907F8091D9038F70DACF4A81442309F40E
:10200000B1CF8091D903982F9595959595959595F4
:10201000803B0CF4A7CF915F9295907FECCF8A81A3
:10202000882309F49FCF8091D903282F25952595E2
:102030002595259580360CF095CF91E0920F9295DD
:10204000907F9595959595959595392F3295307FFB
:102050008F70832B8093D90312160CF083CF97FFD8
:1020600081CF2295207F8F70822BA2CF2A812223BD
:1020700009F478CF82599CE0899F902D11249F7795
:102080008091DA03807815C04A81442309F46ACF2D
:102090008091DA03982F9F7709F464CF80789F3777
:1020A00021F485678093DA035DCF9D30D8F39D508E
:1020B0009F77892BF7CF8A81882309F453CF8091AA
:1020C000DA03982F9F779F3709F44CCF933718F492
:1020D000935F9F77D7CF8F67E5CF2A81222309F4BB
:1020E00041CF8F599091DA0380FB97F99093DA03EF
:1020F000869587709091DB03987F892BB3C04A81C6
:10210000442309F42FCF2091DA03322F331F3327D2
:10211000331F9091DB03892F8770880F832B815F9A
:10212000382F3F7080FB27F92093DA03832F8695A1
:10213000987F982B9093DB0315CF8A81882309F42D
:1021400011CF2091DA03322F331F3327331F9091A1
:10215000DB03892F8770880F832B8F5FE1CF2A8164
:10216000222309F4FFCE6091DA03862F881F882787
:10217000881F6091DB036770660F682B20E04BE7D8
:102180008DE595E00E941029EDCE4A8120E04111B5
:102190002FE76091DA03862F881F8827881F6091B8
:1021A000DB036770660F682B40E4EACF8A8120E08A
:1021B00081112FE76091DA03862F881F8827881FF7
:1021C0006091DB036770660F682B41E4D9CF2A81E9
:1021D00021112FE76091DA03862F881F8827881F37
:1021E0006091DB036770660F682B42E4C9CF4A81B8
:1021F000411111C020E06091DA03862F881F8827E3
:10220000881F6091DB036770660F682B43E4B8CFCB
:102210008A81882379F32FE7EECF2A818FEF21116E
:1022200081E0809365029ECE4A81442309F49ACED0
:102230009091DB03292F2695269526952F7081E016
:10224000820F8F70880F880F880F9778892B809363
:10225000DB03982F987709F085CE220F220F220FEB
:102260008778822B8093DB037DCE8A81882309F4D3
:1022700079CE8091DB03982F987709F473CE982F4D
:10228000969596959695915F9F70990F990F990FD6
:10229000877833CF6091DA03862F881F8827881FBD
:1022A0006091DB036770660F682BEA8140E050EEB7
:1022B000E11117C050E040E08DE595E00E94402913
:1022C0001BCE6091DA03862F881F8827881F6091B4
:1022D000DB036770660F682BFA81FF2359F34FEF1A
:1022E0005FE18DE595E00E9440293CCE8DE595E0CB
:1022F0000E943F2B80916302909164020E94022809
:102300009C019091DB039695969596959F709217F8
:10231000130609F0A0F50E94D627909364028093DB
:10232000630280916502882351F16091DA03862F60
:10233000881F8827881F6091DB036770660F682BF2
:102340002091660241E08DE595E00E941029809180
:1023500065029091660287FF0DC0482F5527419571
:102360000CF45095941715062CF4109266021092F6
:1023700065020895890F87FD03C080936602089562
:102380008FE7FBCFCF92DF92EF92FF920F931F93D5
:10239000CF93DF93D62FC72F982F711113C04423EB
:1023A00029F0E82FF0E0E35EF34F9491692F792F45
:1023B000892FDF91CF911F910F91FF90EF90DF90C8
:1023C000CF900895272F30E0E82FF0E0442321F04C
:1023D000E35EF34FE491F0E086E0D89F70011124B2
:1023E0000FEF10E0C701B8010E94E9338D2F90E094
:1023F000880F991FA5E5A69FA001A79F500D112446
:10240000841B950BD82EDD0CD80EC801821B930BB4
:102410008E9FA0018F9F500D9E9F500D1124952FD0
:10242000DC9EE0011124CD2FDD27D801AC1BBD0BB4
:10243000ED01CE9FD001CF9FB00DDE9FB00D1124D6
:102440008B2FE801CD19D1096E01C29EE001C39E18
:10245000D00DD29ED00D1124CD2FDD270C1B1D0BCE
:102460000E9FE0010F9FD00D1E9FD00D11242E2F27
:1024700063307105D9F03CEFE31633E0F30668F4FE
:1024800061307105B9F062307105C1F0AFEFEA1645
:10249000F10448F4852F9D2F06C06430710589F042
:1024A00066307105B9F3692F722F83CF9B2F8E2F62
:1024B000252FF9CF9E2F2B2F852FF5CF8D2F9E2FD8
:1024C000F7CF8E2F2D2FEFCF41E00C94C2110C943B
:1024D0006412CF93DF93982F762F842FE901692F11
:1024E0000E946712798368838A83DF91CF91089570
:1024F000453608F044E60C9469128091DD03982F6C
:102500009E7F71F48091DD03817082608093DD0392
:102510008091E003853618F084E68093E003089507
:10252000843080F7F5CF88E090E00C9428340F9346
:102530001F93CF93DF938B01D82FC92F0E947D1259
:10254000A8016D2F7C2F88E090E0DF91CF911F9143
:102550000F910C944634CF93DF9300D000D0CDB7C9
:10256000DEB7EDEDF3E083E0808311828FEF8283AD
:1025700084E68383148280819181A281B3818983DF
:102580009A83AB83BC83BC01CD010F900F900F9059
:102590000F90DF91CF910C949712CF93DF9300D0DF
:1025A00000D0CDB7DEB79091E103933018F49F5F70
:1025B0009093E1038823B1F08091DD039091DE03D5
:1025C000A091DF03B091E00389839A83AB83BC833E
:1025D000BC01CD010F900F900F900F90DF91CF9124
:1025E0000C9497120F900F900F900F90DF91CF9156
:1025F000089581E00C94CD12CF93DF9300D000D0EA
:10260000CDB7DEB79091E103992319F091509093E3
:10261000E1038823B1F08091DD039091DE03A09166
:10262000DF03B091E00389839A83AB83BC83BC0151
:10263000CD010F900F900F900F90DF91CF910C94E0
:1026400097120F900F900F900F90DF91CF910895F8
:1026500081E00C94FC1221E030E001C0220F8A9549
:10266000EAF79091B402922381E009F480E00895A2
:1026700070E00C9424166F927F928F929F92AF928B
:10268000BF92CF92DF92EF92FF920F931F93CF935F
:10269000DF93CDB7DEB7C157D1400FB6F894DEBF98
:1026A0000FBECDBF709019019091DD0390FF47C020
:1026B000C090AF02D090B002C114D10409F052C052
:1026C000E2EAFBE09E012F5F3F4FBE016E587E4F56
:1026D000C901A4914A2F50E0DA01AA0FBB1FA40F31
:1026E000B51FAE51BC4FCD90DD90EC90D901CD928D
:1026F000DD92ED929D0131966A177B0751F720918B
:102700001801672DB3E02B9F800D911D11240E94AD
:102710003813CF58DE4F0FB6F894DEBF0FBECDBFD3
:10272000DF91CF911F910F91FF90EF90DF90CF90AD
:10273000BF90AF909F908F907F906F900895809101
:102740001A0120911B0133E0839FF0011124EE5107
:10275000FC4F821708F0ACCF1182108212828F5F7B
:102760003396F7CF90FFACCFF12CE12C43E0642EF1
:102770008E2D0E942B13882309F43CC0F701EE0F25
:10278000FF1FEC0DFD1DA590B490A114B10409F438
:1027900097CF45E050E0B501CE0101960E94173475
:1027A00009810F3F39F18A81800F9927991F8C3752
:1027B000910514F08BE790E04C01880C991C880D72
:1027C000991DDC01AE51BC4F4D01069D80011124C5
:1027D0000E511C4F0815190520F0B5E0AB0EB11CC9
:1027E000D8CF98014D816C818B810E9478120D5F4A
:1027F0001F4FF0CF2FEFE21AF20A38E0E316F10490
:1028000009F0B6CF5DCFCF93DF9300D000D0CDB726
:10281000DEB7EDEDF3E080818E7F80838081918152
:10282000A281B38189839A83AB83BC83BC01CD0130
:102830000E9497129FEFA0E7B2E09150A040B040F5
:10284000E1F700C000000F900F900F900F90DF9104
:10285000CF910C943B139091DD0390FF14C09091A5
:102860001A0120911B0133E0939FF0011124EE51D6
:10287000FC4F921710F00C943B13818360834283CA
:102880009F5F3396F6CF0895EF92FF920F931F93B9
:10289000CF93DF9300D000D000D00F92CDB7DEB73A
:1028A000F82E062F142FE22E9091DD0390FF2AC000
:1028B000E92FE695F0E0EB57FE4F80818093B2025E
:1028C0009E7F923059F49E012F5F3F4F8F2D0E94C3
:1028D00078124B8169818A810E942B14F092DE0369
:1028E0000093DF031093E003EE2061F08091DD039D
:1028F0009091DE03A091DF03B091E003BC01CD0114
:102900000E94971227960FB6F894DEBF0FBECDBF78
:10291000DF91CF911F910F91FF90EF900895282F95
:10292000EDEDF3E0818143816281885F0C94441472
:1029300081E00C948F14282FEDEDF3E08181438129
:10294000628188500C94441481E00C949B14282FCD
:10295000EDEDF3E0628131E1630F08F46FEF438145
:1029600081810C94441481E00C94A714282FEDED80
:10297000F3E0628131E1631B08F460E0438181810F
:102980000C94441481E00C94B614282FEDEDF3E080
:10299000438131E1430F08F44FEF628181810C9450
:1029A000441481E00C94C514282FEDEDF3E043812D
:1029B00031E1431B08F440E0628181810C944414AE
:1029C00081E00C94D41421E00C94441420E00C9485
:1029D0004414CF93DF9300D000D0CDB7DEB7809101
:1029E000DD0380FF24C0817082608093DD03662355
:1029F00081F08091DD039091DE03A091DF03B0911F
:102A0000E00389839A83AB83BC83BC01CD010E9420
:102A100097124091E0036091DF038091DE030F90F5
:102A20000F900F900F90DF91CF910C94E6140F90C0
:102A30000F900F900F90DF91CF910895682F81E054
:102A40000C94E91481E00C941E15682F9091DD031D
:102A500096958FEF890F913009F481E00C94E91479
:102A600081E00C94251561E00C94E914EDEDF3E0A0
:102A700080818160808386950C9433158091DD037D
:102A800080FD0C9403140C94361560E00C94E9144A
:102A90008091B10281112CC00E944226811104C094
:102AA0000E94EA260E94AB120E9493126093DD03FB
:102AB0007093DE038093DF039093E0036E7F61F4F5
:102AC0000E94AB120E9493126093DD037093DE03A9
:102AD0008093DF039093E0030E947D128091DD03D9
:102AE00080FF03C086950E94451581E08093B10266
:102AF000089521E030E0A90102C0440F551F8A95D6
:102B0000E2F7CA012091B402662361F0822B809320
:102B1000B4028091B302811108C08091DD038695D3
:102B20000C94451580958223F2CF08959091DD0392
:102B300090FF0FC02B3768F430E0F901EE0FFF1F54
:102B4000E20FF31FEE51FC4F8183608342830C94AC
:102B50003B1308951F93CF93DF9300D00F92CDB70F
:102B6000DEB7122F9091DD0390FF0BC09E012F5F07
:102B70003F4F0E947812212F4B8169818A810E94E8
:102B800096150F900F900F90DF91CF911F910895A0
:102B9000FA0181110994FB01FDCF1F93CF93DF93BD
:102BA000EC01FB011281111110C00E949C25827260
:102BB000FE01E35CFC45E431F10508F043C0E1525D
:102BC000FB4C0C9411340E943E15812FDF91CF9164
:102BD0001F91089540E355E162E275E10E94C81536
:102BE000F4CF42E255E160E375E1F8CF44EA54E105
:102BF00068E974E1F3CF48E954E164EA74E1EECFA7
:102C000042EC54E163EB74E1E9CF43EB54E162EC55
:102C100074E1E4CF40EE54E161ED74E1DFCF41EDCA
:102C200054E160EE74E1DACF48E253E169EF72E11A
:102C3000D5CF49EF52E168E273E1D0CF81E00E9445
:102C40003315C3CF11E0C1CF9C01AB01539A6BB1D7
:102C5000677F7BB17860EFB7F894CA01880F991F3E
:102C6000840F951F820F931F8217930741F4EFBFC4
:102C70008FE594E00197F1F700C000000895D901B5
:102C80004D919D0158E07BB9000000C047FF6BB932
:102C9000440F000000C000C000C06BB900C05A95CE
:102CA00091F7E2CF0C94370A80911701811106C089
:102CB00084E380931E0186E380931D0120911E0111
:102CC000A22FA295AF70B0E091963C9191972F7092
:102CD00081E090E0BC01022E01C0660F0A94EAF781
:102CE000462F4095432391964C93919792963C9111
:102CF0009297362B92963C93929740911D01E42F28
:102D0000E295EF70F0E031A14F70042E01C0880F02
:102D10000A94EAF7982F9095932391A392A1892B77
:102D200082A390968C9190E002C0959587952A9504
:102D3000E2F7817020A130E002C0359527954A95D1
:102D4000E2F792E020FF90E0892B8093BA02909105
:102D5000170181E098279093B602891B8093B502F2
:102D60000895CF93E091BA02EE0FEE0F20911E016D
:102D7000A22FA295AF70B0E090968C9190E02F704A
:102D800002C0959587952A95E2F781709927409121
:102D90001D01A42FA295AF70B0E090962C9130E069
:102DA0004F7002C0359527954A95E2F7A901417009
:102DB000552720FF02C042E050E0842BE82BE0932F
:102DC000BA02C091B602EF70F0E0E957FE4F808181
:102DD0009091B902890F8093B90220E0843074F099
:102DE000EC2F0C2E000CFF0BE954FD4F80818F5F00
:102DF000808360E08C2F0E94521621E08091B902FE
:102E00008D3F74F4EC2F0C2E000CFF0BE954FD4F9A
:102E100080818150808361E08C2F0E94521621E0D6
:102E20008091B902082E000C990B64E070E00E94BA
:102E3000FD338093B902822FCF910895E091B602BD
:102E4000F0E0E954FD4F2081FC0120830895FF92BA
:102E50000F931F93CF93DF93D091B5020D2F10E006
:102E600009541D4FFC01C081F8018081C81BFC2E54
:102E700080E01F147CF09C2FC7FD90E0C91BC1119E
:102E800014C08823E9F0DF91CF911F910F91FF903B
:102E90000C944D1BFA94F80180818F5F808360E071
:102EA0008D2F0E94521681E0E4CFCF5FF801808120
:102EB0008150808361E08D2F0E94521681E0DFCF28
:102EC000DF91CF911F910F91FF9008950F931F9362
:102ED000CF93DF93C42FD22FFC0182818823C9F0C6
:102EE0004093BD020E94D6279093BC028093BB0200
:102EF00080E28C0F883008F050C0C77081E001C0BC
:102F0000880FCA95EAF7DF91CF911F910F910C942A
:102F1000FF1C1091BD02141335C08091BB0290912B
:102F2000BC020E940228883C910560F5C0E2CD0FEA
:102F30001D17B9F080E2810F883040F4177081E0EE
:102F400001C0880F1A95EAF70E94061DC83048F4A0
:102F500081E09D2F977001C0880F9A95EAF70E9433
:102F6000FF1C802F0E94F71CC830B8F4D77081E096
:102F700001C0880FDA95EAF7DF91CF911F910F9189
:102F80000C94061D80E28C0F883038F4C77081E005
:102F900001C0880FCA95EAF7EFCFDF91CF911F915B
:102FA0000F9108950F939C01CB01243F4CE534070A
:102FB000A1F190F4293DFCE53F0749F12A3D4CE59C
:102FC0003407E9F1283D3C45C1F0FC0182818823AA
:102FD000E1F11092BD0219C0263FFCE53F0719F14F
:102FE000273F4CE5340729F1253F3C4571F707E2BF
:102FF00025EE44EE65EF7CE505C006E221EE41EEEC
:1030000068ED7CE50E94661780E00F91089507E265
:1030100025EE45EE69ED7CE5F5CF06E221EE40EECA
:1030200064EF7CE5EFCF06E221EE42EE66EF7CE551
:10303000E9CF07E225EE46EE67EF7CE5E3CF08E255
:1030400021E045EE6AED7CE5DDCF81E0DECFCF9378
:10305000DF93EC01FB018281882309F4C9C0C631EA
:10306000FCE5DF07E0F4C2309CE5D907F0F00E94F0
:103070005A2690935C0580935B05C631ECE5DE072C
:1030800020F5C230FCE5DF0798F480915B05909154
:103090005C050E9468260E94BC1F80E006C09E015D
:1030A0002B5F3C452930310510F3DF91CF91089516
:1030B000FE01E350FC4580915B058160E331F10541
:1030C00088F4ED50FB4C0C941134CB5FDC45C930D7
:1030D000D105D8F6CA5FDA4CFE010C941134809108
:1030E0005B05826080935B05D0CF80915B05846037
:1030F000F9CF80915B058860F5CF80915C05816098
:1031000080935C05C2CF80915C058260F9CF80918D
:103110005B058061E7CF80915B058062E3CF8091A2
:103120005B058064DFCF0E94BC1F80915B058068D7
:10313000D9CF80915B058C60D5CF80915C05836091
:10314000DFCF80915B058E7FCDCF80915B058D7F3A
:10315000C9CF80915B058B7FC5CF80915B05877F51
:10316000C1CF80915C058E7FCBCF80915C058D7F38
:10317000C7CF80915B058F7EB5CF80915B058F7D3A
:10318000B1CF80915B058F7BADCF0E94BC1F80913A
:103190005B058F77A7CF80915B05837FA3CF80915D
:1031A0005C058C7FADCF80915B0582FB992790F900
:1031B00021E0922790FB82F990FB83F993CF8091D5
:1031C0005C05982F909591708E7F892B90FB81F9EB
:1031D00097CF0E94BC1F90915B05892F97FB87F9C1
:1031E000805880CF81E00E94F6264FCF80E0FBCF51
:1031F00081E05BCFCF93DF93EB0186319C4511F5E6
:103200000E949C259A81992399F08A7A91E009F489
:1032100090E09093BE02811109C089E20E94772557
:103220000E94DD2580E0DF91CF91089585E3F6CF00
:103230008091BE02811104C089E20E947E25F0CFF8
:1032400085E3FBCF81E0EFCF61E070E08FE191E0BB
:103250000C94041A61E070E08FE191E00C940B1A79
:10326000CF93DF9300D000D00F92CDB7DEB76D8340
:1032700079830E94A51A9C0180E02115310521F572
:10328000ED81F981D901AA0FBB1FAC53BD4F8D91C0
:103290009C91819391932F5F3F4F2630310591F799
:1032A00080ED92E00E9427170E946728DC01CB0185
:1032B0000296A11DB11D8093C0029093C102A093FC
:1032C000C202B093C30281E00F900F900F900F9055
:1032D0000F90DF91CF910895CF93DF9300D000D06E
:1032E00000D0CDB7DEB76E837D838091C002909110
:1032F000C102A091C202B091C30289839A83AB83B9
:10330000BC83BC01CD010E943E28EE81FD8190E08E
:1033100080E021913191DC01AA0FBB1FAC53BD4F5E
:1033200011963C932E9301968630910591F780ED8E
:1033300092E026960FB6F894DEBF0FBECDBFDF91A8
:10334000CF910C941E178EE14A9B02C08150E1F789
:103350004A9BFECF08955A9880E28A95F1F75A9ACF
:103360000895FC013BE03A95F1F798E020E080E019
:1033700031E040E14A95F1F7880F4A9B02C0816035
:10338000232742E04A95F1F7000040E14A95F1F722
:10339000915079F790E19A95F1F799B132E03A9529
:1033A000F1F7000040E14A95F1F792FB992790F977
:1033B00092272081920F90830895EF92FF920F93AE
:1033C0001F93CF93DF930F92CDB7DEB719828C0195
:1033D0007C01E60EF11C0E151F0561F481E0998158
:1033E000911180E00F90DF91CF911F910F91FF908D
:1033F000EF9008950E94A319CE0101960E94B11981
:10340000F80181938F01E7CF9093D2028093D1028C
:10341000529A5A9A08959093D2028093D102529868
:103420005A9AEA9AE9E6F0E080818F7C80830895D9
:103430006150770B91E001C0990F6A95EAF720E09F
:1034400031E0911108C0222391F05A9A80E28A95C6
:10345000F1F75A980895492F482339F05A9A2327AB
:1034600040E24A95F1F79695ECCF5A98F9CF5A98E1
:10347000EDCFFF920F931F93CF93DF93EC018C015D
:10348000060F111DC017D10731F4DF91CF911F91A5
:103490000F91FF900895F9900E94AB1968E08F2D6D
:1034A0000E94181AEFCF1F920F920FB60F9211249D
:1034B0002F933F934F935F936F937F938F939F933C
:1034C000AF93BF93CF93DF93EF93FF935A98529AA2
:1034D000C091D102D091D2026D81662321F08E81FC
:1034E0009F810E94391A0E94AB1980E18A95F1F7F9
:1034F0005A9852985A9A80E18A95F1F76A81662320
:1035000009F18B819C810E94DD19E881F981882372
:1035100011F088E001C082E080830E94A319FF912E
:10352000EF91DF91CF91BF91AF919F918F917F915B
:103530006F915F914F913F912F910F900FBE0F9020
:103540001F901895E881F981E4CFCF93DF93C09164
:10355000D102D091D202F894529A5A9885E08A9575
:10356000F1F7000052985A9A80E28A95F1F74A9B47
:103570000CC0529A5A9AE881F98181E0808378944C
:1035800081E090E0DF91CF9108956D81662381F015
:103590008E819F810E94DD1981110AC0529A5A9A28
:1035A000E881F98182E08083789482E090E0EACF3C
:1035B0000E94A31980E28A95F1F75A98529A80E105
:1035C0008A95F1F76A81662321F08B819C810E94A4
:1035D000391A0E94AB19E881F9811082789490E041
:1035E00080E0D0CF9093D8028093D7020895E091E5
:1035F000D702F091D802309721F00190F081E02DB0
:10360000099480E00895E091D702F091D8023097B4
:1036100021F00280F381E02D099408952091D502D4
:103620003091D6022817390771F09093D602809313
:10363000D502E091D702F091D802309721F00680B0
:10364000F781E02D099408952091D3023091D4029E
:103650002817390771F09093D4028093D302E09138
:10366000D702F091D802309721F00084F185E02D47
:10367000099408950E94E2276093FA027093FB0276
:103680008093FC029093FD026093F6027093F70220
:103690008093F8029093F90208950E94E2276093C4
:1036A000FA027093FB028093FC029093FD026093F8
:1036B000F2027093F3028093F4029093F50208955E
:1036C00085B7806885BF85B7806885BF08950895F0
:1036D00008950C94671B0C948C080E94601B80E476
:1036E00096E20E94A9280E94681B0C94691B0C9406
:1036F0000F0F089508950E94CD270E9435280E943B
:10370000330D0E94AE280E9448150E9454160C9456
:103710006B1B8F929F92AF92BF92CF92DF92EF92EC
:10372000FF920F931F93CF93DF9300D000D00F929F
:10373000CDB7DEB70E94791B0E947A1B0E943F0E14
:1037400081110E943A1B5AED852E52E0952E10E011
:1037500000E0A02E802F0E94070D7C01F401C19093
:10376000D1904F01C816D90609F460C08091970323
:1037700081FD0E94100DC6018E259F25B12CCC2401
:10378000C394D12C9C012C213D21232B09F448C04A
:103790000E94771B8823A9F0B982AA82EC20FD2021
:1037A00081E0EF2809F480E08B830E94D6278160B6
:1037B000782F9D838C8349815A816B818D810E94F2
:1037C0003F1C000F111FF801E652FD4F80819181CF
:1037D000C826D926D182C0820E94B11681110E94CA
:1037E0004D1B0E9476110E94F71A9091D9028917F9
:1037F000A1F10E94F71A8093D9020F900F900F90B9
:103800000F900F90DF91CF911F910F91FF90EF904C
:10381000DF90CF90BF90AF909F908F900C941E0B35
:10382000B394CC0CDD1CFAE0BF12ACCF0F5F1F4F7E
:103830000C30110509F08DCF8FEF89838A831B82AD
:103840000E94D6278160782F9D838C8349815A817D
:103850006B818D810E943F1CBFCF0F900F900F9006
:103860000F900F90DF91CF911F910F91FF90EF90EC
:10387000DF90CF90BF90AF909F908F900895DF9290
:10388000EF92FF920F931F93CF93DF93CDB7DEB7E5
:103890002B970FB6F894DEBF0FBECDBF7A878B870C
:1038A000F42E052F162FE72ED82E61110E94BE256B
:1038B0007E2DEC82DD824F2D502F612F8D2D90E0DB
:1038C0002B960FB6F894DEBF0FBECDBFDF91CF9120
:1038D0001F910F91FF90EF90DF900C941F22FC013D
:1038E000808191810C944125CF93C82F8823F1F1D9
:1038F0008CEF8C0F813AA0F46C2F8091270190916E
:1039000028010E940D27882329F08C2F0E947E25F4
:103910000E94DD258C2F0E947725CF910C94DD2508
:1039200080E28C0F883048F4C77081E001C0880FB6
:10393000CA95EAF70E949F25F0CF8BE58C0F833064
:1039400038F42C2F2452330BC901CF910C940E1B49
:10395000C85AC73158F4EC2FF0E0EE0FFF1FE956BC
:10396000FE4F80819181CF910C94241BCF910895BB
:10397000882329F19CEF980F913A20F40E947E252C
:103980000C94DD2590E2980F983050F4877091E008
:1039900001C0990F8A95EAF7892F0E94A525F0CFDB
:1039A0009BE5980F933020F490E080E00C940E1B80
:1039B000885A873120F490E080E00C94241B08950D
:1039C0001F93CF93DF93182FEB010E94741C209755
:1039D00031F4812FDF91CF911F910C94B81C8FE9A6
:1039E0009FE00197F1F700C000002197F0CF6AE057
:1039F00070E0893311F460E570E00C94E01C8823DA
:103A000021F00E949F250C94DD250895882321F044
:103A10000E94A5250C94DD250895CF92DF92EF92A8
:103A2000FF920F931F93CF93DF9300D000D00F929C
:103A3000CDB7DEB77C016D837983FC0112810581EE
:103A400002950F700E949525C82E8823A1F0C12EE3
:103A5000112389F08981807F803429F08D81805EF7
:103A6000C12C883040F082E00E9428260E949525D3
:103A700091E0C82EC926D980D2948FE0D822F8E0F0
:103A8000DF1609F400C1FD1508F455C023E02D151B
:103A900018F18981807F39813F70398391E09D15CC
:103AA00008F05CC0803221F029812295207F298393
:103AB0003D81332309F489C0313009F4A6C01123B4
:103AC00009F4AEC0002309F4A5C0F701858180FF89
:103AD0005CC08F7085839EC0E4E0DE1609F4B7C039
:103AE0000D2D0850110B0430110520F40E94F71A17
:103AF0000E941E0BCC2009F4E0C10E94912580FD9C
:103B0000DCC1F70112820E948B250E949823C70115
:103B10000E94821F0E948B250F900F900F900F9094
:103B20000F90DF91CF911F910F91FF90EF90DF9059
:103B3000CF900C94C923F9E0DF1609F44EC186E05A
:103B40008D0D8F70823060F62D81223F09F056C1B5
:103B500089818F71112309F484C14DC1882321F01B
:103B600009810295007F09831123B9F0198111237E
:103B700061F08D81805E883018F00D81011109C0DF
:103B800089810E949F250E94DD258D810E94741CE1
:103B9000A7CF89810E94B025F6CF8D810E94B81CE5
:103BA0001981112309F49CCF8D81805E883018F033
:103BB0000D81011106C089810E94A5250E94DD2585
:103BC0008FCF89810E94B625F9CF112391F0011181
:103BD00007C00E94C4250981802B0E94FF1C80CF52
:103BE0000130B9F70E94C4251981812B0E94CA2592
:103BF00077CF011106C00E94D32589810E94061D3E
:103C00006FCF013009F46CCFF6CF112329F00630C5
:103C100008F066CF8981E1CF053008F061CFEDCFA4
:103C2000002359F30D81093369F41FEF27EE33E0C8
:103C3000115020403040E1F700C000008D810E940B
:103C4000B81C4ECF8FE39CE90197F1F7F5CF89813E
:103C500086958695837069F0813009F041CF8D811A
:103C600099819370111102C090E080E00E94241BA2
:103C700037CF8D8199819370111102C090E080E05F
:103C80000E940E1B2DCF8981837009F050C0111145
:103C900027CF2D81229526952770220F220F8D8107
:103CA0008F7090E0B0E0A0E0022E04C0880F991F52
:103CB000AA1FBB1F0A94D2F70D8140E050E0BA0161
:103CC00004FF0FC04FE050E060E070E004C0440F1C
:103CD000551F661F771F2A95D2F74095509560951E
:103CE000709519811695169513701D838A019B0195
:103CF000082B192B2A2B3B2B09831A832B833C83FC
:103D00001D8169817A818B819C81123051F0133041
:103D100059F0113019F00E94F922E2CE0E94D1220E
:103D2000DFCE0E942123DCCE0E94CF22D9CE869501
:103D3000112311F089818170882309F4D1CE2D815E
:103D4000229526952770220F220F8D818F7090E08B
:103D5000B0E0A0E0022E04C0880F991FAA1FBB1F6D
:103D60000A94D2F70D8140E050E0BA0104FF0FC081
:103D70004FE050E060E070E004C0440F551F661F44
:103D8000771F2A95D2F740955095609570951981C7
:103D90001695169513701D838A019B01082B192B0C
:103DA0002A2B3B2B09831A832B833C831D8169813A
:103DB0007A818B819C81123051F0133059F011308F
:103DC00019F00E9457248CCE0E942F2489CE0E9485
:103DD0007F2486CE0E944B2383CE09810F700983F6
:103DE000112329F0802F0E9498238D81F6CE8D819A
:103DF0000E94061D89810E94C92372CE2D81233F16
:103E000060F4203FE1F0213F41F1112309F440C06B
:103E10000111BBCE89818F7124C03D81333F21F1D7
:103E2000343F99F7112351F109810F710983802FD4
:103E30000E94982363E089810E94132651CE1123AA
:103E400041F0053008F04CCE89818F710E94FE232D
:103E500047CE063008F044CEF7CF89818F71112309
:103E600051F20E9498233CCE112329F089818F7151
:103E70000E94732335CE0E94572332CE81E00E94E8
:103E80002826023008F42CCE82E00E94282628CE74
:103E9000002381F01D81193341F42FEF37EE83E0C9
:103EA000215030408040E1F7C7CEEFE3FCE9319785
:103EB000F1F7C2CE89818F719ECF0F900F900F9036
:103EC0000F900F90DF91CF911F910F91FF90EF9086
:103ED000DF90CF9008950F931F93CF93DF93EC0162
:103EE000688179818A810E944D258C010E94A724D6
:103EF0000E94CE22B801CE01DF91CF911F910F9188
:103F00000C940D1DCF93DF93EC018B819C81892B49
:103F100029F08881998189238F3F59F4DF91CF91CE
:103F20000895CE010E946B1FCE01DF91CF910C94BA
:103F3000830ACE010E94CF0A8111F3CF0E949525FA
:103F4000882361F38A81882349F382E0DF91CF914E
:103F50000C94282690E080E00E940E1B90E080E008
:103F60000E94241B0E94BE250E94C1250C94DD25C1
:103F70000E9485250C94AA1F0E94AD250C94B81FA1
:103F8000282F892F82958F70903C80F48A30B0F46E
:103F9000843020F4823090F480E008958630E1F798
:103FA00081E0283E88F0213FB9F70EC08C3011F037
:103FB0008F3091F793FB882780F9089581E0203FA7
:103FC00039F018F4283E40F70895243F29F7FCCF34
:103FD00008950E9441250C94C01FCF93DF9300D019
:103FE00000D00F92CDB7DEB70F900F900F900F90CB
:103FF0000F90DF91CF910895CF93DF9300D000D041
:1040000000D0CDB7DEB726960FB6F894DEBF0FBE50
:10401000CDBFDF91CF9108951F93CF93DF93E091B0
:10402000FF0216E0809100038E1304C0DF91CF9150
:104030001F910895CE2FD0E01E9FF0011124EF5F55
:10404000FC4F4081518162817381848195810E94FE
:10405000FC1FFE013196E770E5CF4091310350918E
:104060003203609133037091340380913503909152
:1040700036030C94FC1F1F93CF93DF93809136037C
:10408000807FA9F480913303882389F08091FF0217
:10409000C09100036091310370913203A091340309
:1040A000B0913503D62FD72316E0C81304C0DF9193
:1040B000CF911F91089590E0109711F0DF3F19F410
:1040C00001968770F2CF189F9001199F300D11242F
:1040D000F901EF5FFC4F41814713F2CF4081461356
:1040E000EFCF42814111ECCF438154814A1B5B0BDE
:1040F000483C510528F7809136038F70806180938A
:104100003603F901EA5FFC4F80818F708061808304
:1041100081E393E00E94821FDF91CF911F910C9465
:104120000C20AF92BF92CF92DF92EF92FF920F934B
:104130001F93CF93DF93CDB7DEB72B970FB6F894CD
:10414000DEBF0FBECDBF8C0185E0F801DE01179602
:1041500001900D928A95E1F7F80140815181E2804A
:1041600081E3C82E83E0D82E60913403709135032B
:104170006115710509F444C1909131032091320316
:10418000822F89238F3F09F43BC1A380B480F09034
:104190003303F501E61BF70BFF2009F4E0C0809123
:1041A0003603382F307FE83CF10508F0B2C03111FA
:1041B00079C0FE2C251323C0941321C0E1101FC029
:1041C0008F708061809336030E942D20C6010E946B
:1041D000821F80913603F80185838F2D2B960FB6B1
:1041E000F894DEBF0FBECDBFDF91CF911F910F912D
:1041F000FF90EF90DF90CF90BF90AF900895AB28E5
:1042000029F0842F85238F3F09F016C180E0F82F15
:10421000F170DF2EE091FF022091000336E080FD77
:104220001CC0EE20D1F2809136038160809336036A
:10423000F12CD3CF8E2F90E03E9FF0011124EF5F41
:10424000FC4F6181651306C06081641303C0628105
:10425000E612E7CFFC013196E770E213EBCF4F8314
:1042600058878F8198850E944125292F22952F708C
:10427000903260F0225F2F70223078F49F7051F0FE
:10428000F8019581907F31F4D12C0AC09F7011F014
:104290008823D1F3805E8830B8F3C8010E94821F62
:1042A000FD2C9BCF251306C0941304C0F801EE200B
:1042B00009F470C04F8358878F8198850E94E91F49
:1042C000882319F1EE2009F180913603803270F0D5
:1042D00020913103309132033A8329831B82BD82BE
:1042E000AC828E83CE0101960E94821F86E0F80187
:1042F000A1E3B3E001900D928A95E1F70E943B2083
:104300000E942D20FF24F39468CFC8010E94821FD1
:10431000F9CF311113C07A2DBB86AA866E2D8B85FD
:104320000E94ED1F81E393E00E94821F86E0F60168
:1043300011928A95E9F70E942D207ACF2513BACFE2
:104340009413B8CFE110B6CFF8018583C8010E945D
:10435000821F86E0F60111928A95E9F73ECFE83C8C
:10436000F10508F040C0FE2CEE2079F225132AC09A
:10437000941328C08091360380FD1BC0982F907F36
:10438000C1F0F8018583903F31F0982F907F905FC6
:104390008F70892B8583C8010E94821F86E0F801F7
:1043A000A1E3B3E001900D928A95E1F70E942D20E0
:1043B00014CF86E0F801A1E3B3E001900D928A9555
:1043C000E1F70BCF4F8358878F8198850E94E91FB3
:1043D00081118CCF80913603816080933603C801B0
:1043E0000E94821FFACE7A2DBB86AA866E2D8B85FF
:1043F0000E94ED1F86E0F60111928A95E9F7D6CF6B
:10440000EE2009F482CF4F8358878F8198850E94D0
:10441000E91FF82E882309F478CF86E0F801A1E39C
:10442000B3E001900D928A95E1F781E393E00E9459
:104430006F1C0E943B20BACF81E08E25E8CE1F93EF
:10444000CF93DF93CDB7DEB72C970FB6F894DEBFCE
:104450000FBECDBF4F83588769877A878B879C872C
:10446000CE0107960E949120882369F08A859B855A
:10447000892B39F04F815885842F85238F3F09F090
:1044800077C016E065C086E0FE013796DE01119622
:1044900001900D928A95E1F76A857B85611571051A
:1044A00081F35F814885842F85238F3F51F32091CD
:1044B000000330E0C901019687709927E091FF025F
:1044C000E817190671F40E94BC1F109200031092A5
:1044D000FF0286E0E1E3F3E0DF011D928A95E9F750
:1044E000D0CF59834A837D836C8396E0929FD0011D
:1044F000939FB00D1124AF5FBC4FFE013196019028
:104500000D929A95E1F7809300030E940C20B9CF99
:10451000819FC00111248F5F9C4F0E9491208823AE
:10452000E9F0E091FF021E9FF0011124EF5FFC4FC4
:104530004081518162817381848195810E94FC1F39
:104540008091FF0290E00196877099278093FF0287
:104550008091FF02909100038913DACF2C960FB659
:10456000F894DEBF0FBECDBFDF91CF911F910895AC
:1045700069857A858B859C850E94FC1F82CF089572
:104580000C94BF220E94C02260938603709387031D
:1045900080938803909389030C94AA1F08950C9428
:1045A000C222CF93DF9300D000D0CDB7DEB76983AE
:1045B0007A838B839C838091860390918703A0915B
:1045C0008803B091890329813A814B815C81282B32
:1045D000392B4A2B5B2B29833A834B835C83CA019B
:1045E000B9010F900F900F900F90DF91CF910C9425
:1045F000C222CF93DF9300D000D0CDB7DEB769835E
:104600007A838B839C838091860390918703A0910A
:104610008803B091890329813A814B815C812823E9
:1046200039234A235B2329833A834B835C83CA0162
:10463000B9010F900F900F900F90DF91CF910C94D4
:10464000C222CF93DF9300D000D0CDB7DEB769830D
:104650007A838B839C838091860390918703A091BA
:104660008803B091890329813A814B815C81282795
:1046700039274A275B2729833A834B835C83CA0106
:10468000B9010F900F900F900F90DF91CF910C9484
:10469000C2220C946C080E94492360938203709399
:1046A000830380938403909385030C94AA1F60E096
:1046B00070E0CB010C944B23382F292FCB01A32F73
:1046C000B22F0097A105B10529F481E0442351F0F0
:1046D00080E0089504C0B695A795979587954A956B
:1046E000D2F7817008950F931F93CF93DF9300D07B
:1046F00000D0CDB7DEB741E050E060E070E08A0165
:104700009B0104C0000F111F221F331F8A95D2F78F
:1047100009831A832B833C83C901B8010F900F9042
:104720000F900F90DF91CF911F910F910C944B231D
:104730000F931F93CF93DF9300D000D0CDB7DEB798
:1047400041E050E060E070E004C0440F551F661F78
:10475000771F8A95D2F78091820390918303A0916D
:104760008403B09185038A019B01082B192B2A2B06
:104770003B2B09831A832B833C83C901B8010F901B
:104780000F900F900F90DF91CF911F910F910C948C
:104790004B230F931F93CF93DF9300D000D0CDB75F
:1047A000DEB741E050E060E070E004C0440F551F08
:1047B000661F771F8A95D2F7409550956095709542
:1047C0008091820390918303A0918403B09185032B
:1047D0008A019B01082319232A233B2309831A8377
:1047E0002B833C83C901B8010F900F900F900F905D
:1047F000DF91CF911F910F910C944B230F931F9337
:10480000CF93DF9300D000D0CDB7DEB741E050E0CA
:1048100060E070E004C0440F551F661F771F8A9543
:10482000D2F78091820390918303A0918403B09189
:1048300085038A019B01082719272A273B2709831B
:104840001A832B833C83C901B8010F900F900F90FE
:104850000F90DF91CF911F910F910C944B23CF9329
:10486000DF9300D000D0CDB7DEB769837A838B8326
:104870009C838091820390918303A0918403B091E3
:10488000850329813A814B815C81282B392B4A2B66
:104890005B2B29833A834B835C83CA01B9010F9058
:1048A0000F900F900F90DF91CF910C944B23CF93EB
:1048B000DF9300D000D0CDB7DEB769837A838B83D6
:1048C0009C838091820390918303A0918403B09193
:1048D000850329813A814B815C81282339234A232E
:1048E0005B2329833A834B835C83CA01B9010F9010
:1048F0000F900F900F90DF91CF910C944B23CF939B
:10490000DF9300D000D0CDB7DEB769837A838B8385
:104910009C838091820390918303A0918403B09142
:10492000850329813A814B815C81282739274A27D1
:104930005B2729833A834B835C83CA01B9010F90BB
:104940000F900F900F90DF91CF910C944B2308950F
:10495000E82F2AE0929FE00D11248E2F877041E00E
:1049600001C0440F8A95EAF7E695E695E69585E05D
:10497000E89FF0011124E95CFC4F30E020E070E09A
:104980005191DF011197CB01022E02C096958795B8
:104990000A94E2F7817081958527842385278C937B
:1049A0002F5F3F4F2530310559F70895E82F2AE052
:1049B000929FE00D11249E2F9770E695E695E6955F
:1049C00085E0E89FF0011124E95CFC4F50E040E0F5
:1049D00080E0219130E0092E02C0369527950A9497
:1049E000E2F721703327042E01C0220F0A94EAF760
:1049F000822B4F5F5F4F4530510559F70895BF92A5
:104A0000CF92DF92EF92FF920F931F93CF93DF939A
:104A10008C01C0908203D0908303E0908403F090D7
:104A200085038091860390918703A0918803B091BC
:104A30008903C82AD92AEA2AFB2ACFE1D0E0BC2E72
:104A4000D701C6010C2E04C0B695A79597958795FA
:104A50000A94D2F780FD0EC0219788F7B12C8B2DD8
:104A6000DF91CF911F910F91FF90EF90DF90CF904A
:104A7000BF900895B8018C2F0E943A0B019761F303
:104A8000EECFCF93DF93D82FC92F0E94FF246D2F35
:104A90007C2FDF91CF910C943A0B1F93CF93DF9330
:104AA000162FD72F9091FE02992339F0862F972F3A
:104AB000DF91CF911F910C944125882391F0862F8F
:104AC000972F0E94FF24C82F682F812F9D2F0E94AF
:104AD000A824612F7D2F8C2FDF91CF911F910C94F3
:104AE0003A0B862F972F0E94D624C82FF2CF682F1B
:104AF00080912701909128010C944727682F80917D
:104B00002701909128010C944927809127019091C9
:104B100028010C944B2780918A038595859585956E
:104B2000089580918A038770089590918A03977001
:104B300081E009F480E008958091960308959091B2
:104B40009603982B909396030895982F90958091B3
:104B500096038923809396030895109296030895EF
:104B600090919503982B909395030895982F909585
:104B7000809195038923809395030895109295035E
:104B8000089510929403089580918B0308950895D9
:104B90000C94C72590918B03981721F080938B0379
:104BA0000C94C825089580918B03882329F01092D6
:104BB0008B0380E00C94C8250895E0912701F091C3
:104BC0002801809196038083E0912701F0912801CC
:104BD000808190919503892B8083E0912701F0914A
:104BE0002801808190919403892B808390918B037D
:104BF000992381F0E0912701F09128018081892B90
:104C0000808380912701909128010E94FB268111C9
:104C10000E94D32580912701909128010C94031BB9
:104C200008950C94102698E0899F90011124622B1E
:104C300060938A030E94982380918A0385958595C5
:104C400085950C94112610928A0380E00C9411260D
:104C500090918A038095892380938A03282F277057
:104C600071F4282F082E000C330B9217130639F01D
:104C70008595859585950E94C9230C9423260895D2
:104C800080E0089590E080E00E942E349C0181E055
:104C90002B3E3E4F09F080E0089582E090E00C94B6
:104CA000203483E090E00C942034682F83E090E07F
:104CB0000C943434CF9384E090E00E942034C82FC9
:104CC00081E290E00E942034982F8C2FCF9108959C
:104CD000CF93682FC92F84E090E00E9434346C2F6A
:104CE00081E290E0CF910C943434AB01BC018FE0B1
:104CF00090E00C94463483E190E00C942834AB01AE
:104D0000BC0183E190E00C94463460E070E0CB019C
:104D10000E9475260C94FF086BEE7EEF90E080E019
:104D20000E94523460E082E090E00E94343460E0FF
:104D300083E090E00E94343410928603109287033F
:104D4000109288031092890360E084E090E00E9452
:104D5000343460E081E290E00E94343460E085E029
:104D600090E00E94343460E086E090E00E943434A9
:104D70006FEF87E090E00E94343440E050E0BA01E9
:104D800088E090E00E94463460E08DE090E00E9470
:104D9000343440E050E0BA0188E190E00E944634AB
:104DA00060E087E190E00E94343440E050E0BA01D6
:104DB0008CE190E00E94463460E080E290E00E9446
:104DC000343440E050E0BA0188E190E00E9446347B
:104DD0000C9485260C948C268EE090E00E94203462
:104DE000982F81E0911101C080E00895682F8EE036
:104DF00090E00C943434AC019C012E5F3F4F485F2F
:104E00005F4F80E02417350709F40895F901919167
:104E10009F019923B9F38F5FF5CF9C01662351F071
:104E2000FC013296285F3F4F8191861729F0E217E7
:104E3000F307D1F780E0089581E008959C01FC011B
:104E400032968FEF90E04191461751F08F3F19F461
:104E5000411101C0892F9F5F9630A9F78F3F09F458
:104E60000895280F311D87FD3A95F9016283089551
:104E70009C01FC013296285F3F4F8191861303C04D
:104E8000DF0111971C92E217F307B9F708950C940C
:104E90001E270C943827FC01329686E0DF011D9214
:104EA0008A95E9F70895089508950C945427809100
:104EB0004E06843049F10E94552780E00E941E0B67
:104EC0001092980388E190E020E40FB6F894A8953A
:104ED000809360000FBE2093600083B7817F846061
:104EE00083BF83B7816083BF7894889583B78E7FB3
:104EF00083BF0FB6F894A895809160008861809375
:104F00006000109260000FBE08950895CF930E9434
:104F100053270E943F0E0E948527C0E08C2F0E94DD
:104F2000070D892B31F4CF5FCC30C1F780E0CF91F2
:104F3000089581E0FCCF08950C949B270E94BC1F2C
:104F40000E94F71A0E941E0B0C949C271F921FB6FA
:104F50001F9211248F939F93AF93BF9380919803D7
:104F6000811113C08091530590915405A09155056E
:104F7000B09156054196A11DB11D809353059093A4
:104F80005405A0935505B0935605BF91AF919F91DD
:104F90008F911F901FBE1F90189582E084BD93E0F3
:104FA00095BD9AEF97BD80936E0008952FB7F89442
:104FB0008091530590915405A0915505B0915605E7
:104FC0002FBF0895CF93DF9300D000D0CDB7DEB7C9
:104FD0008FB7F894209153053091540540915505B1
:104FE0005091560529833A834B835C838FBF698137
:104FF0007A818B819C810F900F900F900F90DF91A1
:10500000CF9108959C014FB7F894809153059091EA
:105010005405A0915505B09156054FBF821B930BC7
:10502000089578941F921FB61F9211248F939F9317
:10503000AF93BF938091530590915405A09155056E
:10504000B09156050196A11DB11D80935305909313
:105050005405A0935505B0935605BF91AF919F910C
:105060008F911F901FBE1F90189510925705109298
:1050700058051092590510925A050895CF92DF9263
:10508000EF92FF92CF93DF9300D000D0CDB7DEB781
:105090006B017C010E940F0F81110EC00E94E2275C
:1050A000C61AD70AE80AF90AC0925705D0925805DD
:1050B000E0925905F0925A050F900F900F900F90C3
:1050C000DF91CF91FF90EF90DF90CF900895CF9335
:1050D000DF9300D000D0CDB7DEB70E940F0F88233A
:1050E00041F00F900F900F900F90DF91CF910C94A3
:1050F000E2270E94E22769837A838B839C838091D5
:10510000570590915805A0915905B0915A052981EC
:105110003A814B815C81280F391F4A1F5B1FCA01EE
:10512000B9010F900F900F900F90DF91CF910895DC
:1051300087E797E7909301088093000888E19AE059
:105140000FB6F894A895809360000FBE909360000E
:10515000FFCF9093D5018093D4010895CF93DF932F
:1051600000D000D0CDB7DEB70E944226811102C028
:105170000E94EA260E944D26809397030E945A2699
:1051800090935C0580935B050E945126282F30E0A8
:1051900050E040E0CA01B9010E94CF228091820311
:1051A00090918303A0918403B091850389839A83AE
:1051B000AB83BC83BC01CD010F900F900F900F907B
:1051C000DF91CF910C944923881F8827881F089569
:1051D000982F81E0983F08F480E00895982F907F01
:1051E000903D69F070F4903B31F038F4903A19F04A
:1051F000807E803899F483E00895903C79F482E0D1
:105200000895903EC1F3903F49F4EFE0E80F813FED
:1052100028F0F0E0EB53FE4F8081089580E0089580
:105220000F93DC01022F0F77242F2F776F70462FFB
:10523000406BED91FC9163E070E009950F9108954A
:105240000F93DC01022F0F77242F2F776F70462FDB
:105250004069ED91FC9163E070E009950F9108952C
:105260000F93DC01022F0F77242F2F776F70462FBB
:105270004068ED91FC9163E070E009950F9108950D
:105280000F931F93DC019A01411580E25807C4F483
:105290004115504EC4F0305E8901000F012F001FF0
:1052A000110B11952F776F70462F406EED91FC9189
:1052B000119763E070E0CD0109951F910F9108955A
:1052C0002FEF3FE3E9CF30E020E0E6CFFC0173832E
:1052D00062830895FC01758F648F0895CF93DF93E7
:1052E000EC011DA21FA21EA2BC01685D7F4F40EC15
:1052F00088519F4F0E94732B1B821A821D821C8231
:105300001F821E82198618861B861A861D861C8699
:105310001F861E86198A188A1B8A1A8A1D8A1C8A69
:105320001F8A1E8A198E188E1B8E1A8E1D8E1C8E39
:105330001F8E1E8E19A218A2DF91CF910895EF92B1
:10534000FF920F931F93CF93DF93EA018A01060F19
:10535000111D7C0128EEE20EF11CC017D10739F4B3
:10536000DF91CF911F910F91FF90EF900895699178
:10537000C7010E947A2BF1CFFC01718360830895ED
:10538000FC0171A360A30895AF92BF92CF92DF9208
:10539000EF92FF920F931F93CF93DF9300D00F9262
:1053A000CDB7DEB77C016B01142FB22EA02EDC012D
:1053B00095968C9195978430A9F55A96ED91FC912C
:1053C0003097E9F1CB01019763E070E00E94E93387
:1053D000CB01880F991F860F971F4983BA820B83D1
:1053E0004C2D481B9E012F5F3F4FBC01C701099503
:1053F000D7015E96ED91FC91309731F00A2D2B2D5F
:10540000412FB601C70109950F900F900F90DF91C2
:10541000CF911F910F91FF90EF90DF90CF90BF90B1
:10542000AF9008956230710509F452C06330710580
:1054300099F06130710509F47AC0D12CC12CD701E3
:105440005C96ED91FC91309799F20A2D2B2D412F0E
:10545000B601C7010995CCCF842F807F803BF1F046
:1054600058F4803931F1803A49F1803841F7D70159
:105470001696ED91FC9116C0803E29F1803FF9F619
:10548000423FE9F6D7011C96ED91FC91202F4B2D60
:1054900062EF3097A1F2C7010995AACFD701129602
:1054A000ED91FC91309759F22A2D4B2D612F6F70A1
:1054B000F2CFD7011496ED91FC91F4CFD701189655
:1054C000ED91FC91EFCFD7011A96ED91FC91EACFC7
:1054D000842F807F803D81F0803F99F0803C09F0EF
:1054E000AECFD7011E96ED91FC91309709F4A7CF6E
:1054F0004B2D612F6F7010C0D7015096ED91FC912C
:10550000F4CF433F61F4D7015296ED91FC914B2DBE
:10551000612F309709F493CFC701099569CF413FB7
:1055200009F08DCFD7015496ED91FC91F0CF842FE7
:105530000E94E828882359F0D7015696ED91FC91F6
:10554000309709F47CCF612FC701099551CF163FE1
:1055500009F075CFD7015896ED91FC91F1CFFF92EC
:105560000F931F93CF93DF93EC01162F862F0E948A
:10557000E828882391F0FDA081E08DA300E020E0E1
:10558000412F61E070E0CE010E94C429FDA2DF91AD
:10559000CF911F910F91FF900895812F0E94E428D1
:1055A0004DA1882309F443C0443029F01AA381E0B7
:1055B00090E09FA38EA3812F0E94EE28823069F194
:1055C000D0F481111EC0103F51F1173FB1F42EA14C
:1055D0003FA1C90163E070E00E94E933FE01E80FDA
:1055E000F91F12A3B9016F5F7F4F7FA36EA30CA1B8
:1055F0002BA14AA10DC0833081F01DA21FA21EA2C3
:10560000C6CF81E08DA300E020E0412F61E070E093
:10561000CE010E94C4291DA2BACF8DA3B8CF84E0C9
:105620008DA31AA381E090E09FA38EA3B0CF442363
:1056300009F4ADCF2EA13FA1C90163E070E00E9443
:10564000E933FE01E80FF91F12A3B9016F5F7F4F25
:105650007FA36EA38130910569F0029709F097CF7F
:105660000CA12BA14AA1CE010E94C4298DA1843096
:10567000C9F68DCF00E0423009F089CFF2CFCF924A
:10568000DF92EF92FF920F931F93CF93DF93EC0182
:10569000E8A1F9A1309709F009956E0188EEC80ECE
:1056A000D11CC6010E94A82B10E000E0E82EF12CCE
:1056B0000E151F0548F0DF91CF911F910F91FF90BC
:1056C000EF90DF90CF90089560E0C6010E94BC2B60
:1056D000682FCE010E94AF2A61E0C6010E94CC2B48
:1056E0000F5F1F4FE5CFFC014283748363831182F8
:1056F000108208951F93CF93DF93EC01162F0E9421
:10570000E32B282FE981F0E0CF0101966A8170E058
:105710000E94FD3338813817190641F4822F0E9408
:10572000E62B80E0DF91CF911F9108958B819C81C2
:10573000E80FF91F1083898190E001966A8170E07B
:105740000E94FD338983822F0E94E62B81E0EACFFD
:10575000CF93DF93EC010E94E32B9981288192176C
:1057600040F0C92FC21B0E94E62B8C2FDF91CF91F6
:105770000895CA819C0FF5CFFC018081860F99277F
:10578000991F628170E00E94FD3323813481280FCC
:10579000391FF901808108951F93CF93DF93EC01A6
:1057A000162F0E94E32B282F8881810F9927991F9C
:1057B0006A8170E00E94FD338883822FDF91CF9150
:1057C0001F910C94E62B8FB7F89408958FBF08951E
:1057D000089508950F931F93CF93DF9300D000D0C7
:1057E00000D00F92CDB7DEB7182F092FCE0101964A
:1057F0000E944A2E81110BC027960FB6F894DEBF87
:105800000FBECDBFDF91CF911F910F9108958A8177
:105810000E94EE28682F8A818D838B818E838C81F4
:105820008F8361110AC02981243079F0273069F013
:10583000263069F061E02530C9F6AE014B5F5F4F5D
:10584000812F902F0E949F29D1CF63E0F6CF62E095
:10585000F4CFDF92EF92FF920F931F93CF93DF93DA
:1058600000D000D0CDB7DEB77B01142FD22E4A83F3
:105870002B830C83842F0E94EE28811129C082E0A3
:10588000E816F10401F183E0E816F10439F0EA9436
:10589000EF2869F485E0173F21F404C087E0073F53
:1058A00009F084E08983CE0101960E94452E0F9075
:1058B0000F900F900F90DF91CF911F910F91FF905C
:1058C000EF90DF90089587EFD812EBCF86E0EACF14
:1058D00012951F701983E7CF0E943D0F8DE595E06B
:1058E0000E946E2969E27CE28DE595E00E94BC2968
:1058F0006AEE7BE28DE595E00E94C02968EE7BE2CE
:105900008DE595E00E946A2969EE7BE28DE595E0E0
:105910000C946629FC01CB0120914E062430B1F491
:1059200021812F702093E90050E040E064E070E0B6
:105930000E94122F81110BC09091E80095FD07C0C5
:105940009091E8009E779093E800089582E0089592
:10595000FC0180914E06843089F481818F708093A0
:10596000E9009091F3008091F200892B49F0809139
:10597000E8008E778093E8000C94B83082E00895B8
:1059800080E00895FC0180914E06843059F48181B5
:105990008F708093E9008091E80080FF03C0CF0101
:1059A0000C94A82C0895FC01CB0120914E062430C4
:1059B00011F080E0089526812F702093E900209156
:1059C000E80022FFF6CF2091E80025FFF2CF50E05B
:1059D00040E064E070E00E94612F8091E80085FD66
:1059E00005C08091E8008B778093E80081E00895FE
:1059F0008091A10308950895CF93DF9300D00F9273
:105A0000CDB7DEB790914E06943019F589836A833D
:105A10007B8382E08093E9008FEF9091E8008150D2
:105A200095FD06C095ED9A95F1F700008111F5CF2F
:105A30008091E80085FF0DC050E040E063E070E039
:105A4000CE0101960E94122F8091E8008E778093FC
:105A5000E8000F900F900F90DF91CF910895BC0157
:105A600084E00C94FC2CBC0183E00C94FC2CCF93C0
:105A7000DF93D82FC92F81E08093E9008FEF9091B9
:105A8000E800815095FD06C095ED9A95F1F700006C
:105A90008111F5CF8091E80085FF16C050E040E00D
:105AA00068E070E08D2F9C2F0E94122F8091E800FB
:105AB0008E778093E80088E0ED2FFC2FA9E9B3E012
:105AC00001900D928A95E1F7DF91CF910895809131
:105AD0004D06811109C00E94E9300E944631809133
