:100000000C9436070C947D070C947D070C944230B9
:100010000C947D070C947D070C947D070C947D0750
:100020000C947D070C947D070C94C2290C947E29B6
:100030000C94BF2A0C947D070C947D070C947D07CB
:100040000C947D070C947D070C947D070C947D0720
:100050000C947D070C949B2A0C947D070C947D07CF
:100060000C947D070C947D070C947D070C947D0700
:100070000C947D070C947D070C947D070C947D07F0
:100080000C947D070C947D070C947D070C947D07E0
:100090000C947D070C947D070C947D070C947D07D0
:1000A0000C947D070C947D070C947D07010A1CFFBE
:1000B000FF15021CFFFF19031CFFFF1E051CFFFF9D
:1000C00025021CFFFF2D021CFFFF39021CFFFFFF52
:1000D0000000000000061CFFFF0B0100FFFF0C01E9
:1000E0000000FF0D010BB0FF18010000FF2301808D
:1000F000FF803C061CFFFF4A010BB0FF5501AAFF21
:10010000FF560180FFFF57016AFFFF580155FFFFAF
:10011000590140FFFF6001EA80FF62061CFFFF6B90
:10012000012BFFFF6C0155FFFF6E0100FFFF700107
:100130000BB0FF77010BB0FF780180FFFF7901243E
:10014000FFFF7A016AFFFFFF00000000FFFFFFFFD3
:10015000FFFFFFFFFFFFFFFFFFFFFFFFFFFFFFFFAF
:10016000FFFFFFFFFFFFFFFFFFFFFFFFFFFFFFFF9F
:10017000FFFFFFFFFFFFFFFFFFFFFFFFFFFFFFFF8F
:10018000FFFFFFFFFFFFFFFFFFFFFFFFFFFFFFFF7F
:10019000FFFF3C3D3E3F404142FFFFFF48494A4B85
:1001A0004C4D4EFFFFFFFFFFFFFFFFFFFFFFFFFF75
:1001B000FFFF4746454443FFFFFFFF545352515052
:1001C0004FFFFFFF000C1824300B17232F3B010DAE
:1001D0001925310A16222E3A020E1A263209152145
:1001E0002D39030F1B27330814202C3804101C282A
:1001F0003407131F2B3705111D293506121E2A3609
:1002000055565758595A5BFFFFFF6263646566672E
:1002100068FFFFFFFF6F7071727374FFFFFFFF6174
:10022000605F5E5D5CFFFFFFFF6E6D6C6B6A69FF78
:10023000FFFFFF7A7978777675FFFFFFA75DB35DE3
:10024000BF5DCB5DD75DAC5DB85DC45DD05DDC5D91
:10025000AE5DBA5DC65DD25DDE5DB15DBD5DC95DA1
:10026000D55DE15DA95DB55DC15DCD5DD95DAA5D81
:10027000B65DC25DCE5DDA5DB05DBC5DC85DD45D6E
:10028000E05DAF5DBB5DC75DD35DDF5DAB5DB75D61
:10029000C35DCF5DDB5DA85DB45DC05DCC5DD85D49
:1002A000A65DB25DBE5DCA5DD65DAD5DB95DC55D85
:1002B000D15DDD5D4F5C525C555C585C5B5C5E5CA7
:1002C000615C0000AA00A9004E5C515C545C575C64
:1002D0005A5C5D5C605C0000000000004D5C505C9E
:1002E000535C565C595C5C5C5F5C00000000000085
:1002F0000000A849705C6D5C6A5C675C645C00002F
:10030000000000000000725C6F5C6C5C695C665C05
:10031000635C0000000000000000715C6E5C6B5CC0
:10032000685C655C625C0000000000000100010088
:1003300001000100010001000100010001000100B5
:1003400001000100010001000100010001000100A5
:100350000100010001000100010001000100010095
:100360000100010001000100010001000100010085
:100370000100010001000100010001000100010075
:100380000100010001000100010001000100010065
:100390000100010001000100010001000100010055
:1003A00001000100505C535C565C595C5C5C5F5C16
:1003B000625C0000010001004E5C515C545C575CC3
:1003C0005A5C5D5C605C0000000000004F5C4F5CAC
:1003D000525C555C585C5B5C5E5C00000000000099
:1003E00000000100715C6E5C6B5C685C655C000029
:1003F000000000000000725C6F5C6C5C695C665C15
:10040000635C0000000000000000705C6D5C6A5CD2
:10041000675C645C615C000000000000AB5DA75D90
:10042000B35DBF5DCB5DB05DAC5DB85DC45DD05DFF
:10043000A65DAE5DBA5DC65DD25DA95DB15DBD5D17
:10044000C95DD55DAD5DA95DB55DC15DCD5DAE5DDF
:10045000AA5DB65DC25DCE5DA85DB05DBC5DC85DE8
:10046000D45DA75DAF5DBB5DC75DD35DAF5DAB5DCB
:10047000B75DC35DCF5DAC5DA85DB45DC05DCC5DB7
:10048000AA5DA65DB25DBE5DCA5DB15DAD5DB95DE3
:10049000C55DD15D4F5C525C555C585C5B5C5E5CDD
:1004A000615C0000010001004E5C515C545C575CD3
:1004B0005A5C5D5C605C0000000000004D5C505CBC
:1004C000535C565C595C5C5C5F5C000000000000A3
:1004D00000000100705C6D5C6A5C675C645C00003D
:1004E000000000000000725C6F5C6C5C695C665C24
:1004F000635C0000000000000000715C6E5C6B5CDF
:10050000685C655C625C000000000000BB5CBA5C7B
:10051000000000002F5C485C4A5C4C5C4E5C505C08
:10052000000000000000305C325C455C475C495CC8
:100530004B5C4D5C00002F5C315C335C355C425C95
:10054000445C465C485C4A5C305C325C345C365CE3
:10055000385C3F5C415C435C455C475C335C355CCC
:10056000375C395C3B5C3C5C3E5C405C425C445CC0
:10057000365C385C3A5C3C5C3E5C395C3B5C3D5CC8
:100580003F5C415C4F5C525C555C585C5B5C5E5C04
:10059000615C0000010001004E5C515C545C575CE2
:1005A0005A5C5D5C605C0000000000004D5C505CCB
:1005B000535C565C595C5C5C5F5C000000000000B2
:1005C0000000A849705C6D5C6A5C675C645C00005C
:1005D000000000000000725C6F5C6C5C695C665C33
:1005E000635C0000000000000000715C6E5C6B5CEE
:1005F000685C655C625C000000000000305C315C9F
:10060000325C335C345C465C475C485C495C4A5C09
:10061000325C335C345C355C365C445C455C465C27
:10062000475C485C345C355C365C375C385C425C0B
:10063000435C445C455C465C365C375C385C395CEA
:100640003A5C405C415C425C435C445C385C395CD5
:100650003A5C3B5C3C5C3E5C3F5C405C415C425CC9
:100660003A5C3B5C3C5C3D5C3E5C3C5C3D5C3E5CC7
:100670003F5C405C485C4A5C4C5C4E5C505C525C4D
:10068000545C000001000100475C495C4B5C4D5C20
:100690004F5C515C535C000000000000475C485C0C
:1006A0004A5C4C5C4E5C505C525C000000000000F8
:1006B0000000A8495E5C5C5C5A5C585C565C0000BB
:1006C0000000000000005F5C5D5C5B5C595C575C97
:1006D000555C00000000000000005E5C5C5C5A5C41
:1006E000585C565C545C000000000000AB5DA75DE8
:1006F000B35DBF5DCB5DB05DAC5DB85DC45DD05D2D
:10070000A65DAE5DBA5DC65DD25DA95DB15DBD5D44
:10071000C95DD55DAD5DA95DB55DC15DCD5DAE5D0C
:10072000AA5DB65DC25DCE5DA85DB05DBC5DC85D15
:10073000D45DA75DAF5DBB5DC75DD35DAF5DAB5DF8
:10074000B75DC35DCF5DAC5DA85DB45DC05DCC5DE4
:10075000AA5DA65DB25DBE5DCA5DB15DAD5DB95D10
:10076000C55DD15D705C6D5C6A5C675C645C615C9E
:100770005E5C000001000100715C6E5C6B5C685C9B
:10078000655C625C5F5C000000000000725C6F5C96
:100790006C5C695C665C635C605C0000000000008F
:1007A0000000A8494F5C525C555C585C5B5C0000E3
:1007B0000000000000004D5C505C535C565C595CCE
:1007C0005C5C00000000000000004E5C515C545C6A
:1007D000575C5A5C5D5C000000000000165C2B005A
:1007E0003900E100E0002A004C002800E5004F003D
:1007F0001E00140004001D00E30027001300330056
:10080000380051001F001A0016001B00E2002600ED
:1008100012000F00370050002000080007000600FB
:10082000914825000C000E003600085121001500EB
:10083000090019002C00240018000D0010006500AC
:10084000220017000A0005002C0023001C000B00EA
:1008500011009000010001000100010001000100F1
:100860000100000001000100010001000100010081
:100870000100010001000000000000000100010073
:100880000100010001000100010000000000000063
:100890000000010001000100010001000100000052
:1008A0000000000000000100010001000100010043
:1008B0000100000000000000000001000100010034
:1008C000010001000100000000000000165C2B0088
:1008D000E000E10039002A004C00280052724F006D
:1008E0001E00140004001D00E30027003300120066
:1008F000380051001F001A0015001B00E2002600FE
:100900001C000C00370050002000090016000600F3
:1009100091482500180008003600085121001300F6
:10092000170019002C0024000F00110010006500B2
:1009300022000A00070005002C0023000D000B0018
:100940000E00900001000100010001000100010003
:100950000100000001000100010001000100010090
:100960000100010001000000000000000100010082
:100970000100010001000100010000000000000072
:100980000000010001000100010001000100000061
:100990000000000000000100010001000100010052
:1009A0000100000000000000000001000100010043
:1009B0000100010001000000000000000100010032
:1009C000010001000100010001000100010001001F
:1009D0003A000000AA00BE00010043002E003500CE
:1009E000300031003B000000A900BD0001004200C2
:1009F0002D004F002F0034003C000000A800000034
:100A00000100410000005200000001003D00000014
:100A10000000000001004000000051000000010043
:100A20003E0000000000000001003F0000005000F8
:100A300000000100010001000100010001000100AF
:100A4000010000000100010001000100010001009F
:100A50000100010001000000000000000100010091
:100A60000100010001000100010000000000000081
:100A70000000010001000100010001000100000070
:100A80000000000000000100010001000100010061
:100A90000100000000000000000001000100010052
:100AA000010001000100000000000000E25D0652AC
:100AB000075200000000C35C0000E95D0000000078
:100AC000E35DE85D000000000000000000000000A1
:100AD00000000000E45D00000000000000000000D5
:100AE0000000000000000000E55D000000000000C4
:100AF000000000000000000000000000E65D0000B3
:100B000000000000000000000000000000000000E5
:100B1000E75D000000000000000000000000000091
:100B200000000000775C785C795C7A5C7B5C00009C
:100B30000000000000000000E25DE35DE45DE55DB3
:100B4000E65DE75D0000000000000000000000001E
:100B5000E85D000000000000000000000000000050
:100B600000000100DF5C0000000000000000000049
:100B7000000000000000C35C00009E5C9D5C000063
:100B800000000000000000000000EC5DEB5DEA5D8D
:100B9000ED5D00000000000000000000D400AC008B
:100BA0000000000101010101010101010202020234
:100BB0000202020202030303030303030304040407
:100BC00004040404050505050506060606060707D0
:100BD00007070708080808090909090A0A0A0B0B88
:100BE0000B0C0C0C0D0D0D0E0E0E0F0F0F10101127
:100BF00011111212131314141515161617171818AD
:100C000019191A1A1B1B1C1D1D1E1E1F2020212214
:100C100022232424252626272829292A2B2C2D2D5A
:100C20002E2F30313232333435363738393A3B3C77
:100C30003D3E3F404142434445464748494A4C4D6A
:100C40004E4F50515354555658595A5B5D5E5F6133
:100C50006264656668696B6C6D6F707273757778C6
:100C60007A7B7D7E8082838587888A8C8E8F919324
:100C70009596989A9C9EA0A2A3A5A7A9ABADAFB14B
:100C8000B3B5B7BABCBEC0C2C4C6C9CBCDCFD1D430
:100C9000D6D8DBDDDFE2E4E7E9EBEEF0F3F5F8FAD6
:100CA000FDFF3C3D3E3F4041424344454647615481
:100CB000535251504F4E4D4C4B4A49485556575838
:100CC000595A5B5C5D5E5F606E6D6C6B6A696867EC
:100CD00066656463626F7071727374757677787924
:100CE0007A0B0A090807060504030201000C0D0E21
:100CF0000F1011121314151617232221201F1E1D69
:100D00001C1B1A19182425262728292A2B2C2D2E9E
:100D10002F3B3A3938373635343332313005010913
:100D200080A101850319012AB700150126B7009596
:100D30000175108100C0050C0901A101850419018C
:100D40002AA002150126A002950175108100C00598
:100D5000010906A101050719E029E71500250195FC
:100D6000087501810295017508810105071900299F
:100D7000FF150026FF00950675088100050819017A
:100D80002905950575019102950175039101C00929
:100D9000029F00040100A0FA090400000103010100
:100DA000000921110100012240000705810308000C
:100DB0000A090401000103000000092111010001DA
:100DC0002232000705820320000A080B02020101FB
:100DD00000000904020000010100000924010001D3
:100DE00009000103090403000201030000072401B4
:100DF0000001410006240201010006240202020053
:100E00000924030103010201000924030204010172
:100E1000010009050402400005000005250101014B
:100E200009058302400005000005250101031201A8
:100E3000000200000008EDFEB0F401000102000114
:100E40001603670069006100620061006C006100C8
:100E50006E006100690000000E0333006100720043
:100E600061006800740000000403090411241FBE1F
:100E7000CFEFDAE0DEBFCDBF04B603FE27C080911E
:100E8000640690916506A0916606B091670687306A
:100E9000904BA740B04BD1F41092640610926506B7
:100EA000109266061092670614BE84B7877F84BFCF
:100EB0000FB6F894A89580916000886180936000D7
:100EC000109260000FBEE0E0F8E3099511E0A0E0A9
:100ED000B1E0EEEEF4E602C005900D92AC3CB10735
:100EE000D9F726E0ACECB1E001C01D92A436B20700
:100EF000E1F70E94E62A0C9451320C9400000F9303
:100F0000262F2F778F708068E0917705F091780514
:100F1000042F482F63E070E087E795E009950F9173
:100F200008950F93262F2F778F708069E0917705B2
:100F3000F0917805042F482F63E070E087E795E093
:100F400009950F9108950F931F939B01305E8901BE
:100F5000000F012F001F110B11952F77482F406EA6
:100F6000E0917705F091780563E070E087E795E020
:100F700009951F910F9108950F93262F042F0F7736
:100F8000482F406BE0917705F091780563E070E0C1
:100F900087E795E009950F910895CF92DF92EF9240
:100FA000FF920F931F93CF93DF9300D00F92CDB793
:100FB000DEB77C01162FD42EC22E80919C05843082
:100FC000B9F5E0919105F0919205309709F440C090
:100FD000C701019763E070E00E94BC31CB01880F2C
:100FE000991F860F971F19834A83CB824E2D481B6A
:100FF0009E012F5F3F4FBC0187E795E00995E09187
:101000009505F0919605309739F00C2D2D2D412F37
:10101000B70187E795E009950F900F900F90DF914A
:10102000CF911F910F91FF90EF90DF90CF90089597
:1010300082E0E816F10409F45AC083E0E816F104EE
:10104000A9F081E0E816F10409F484C0F12CE12C48
:10105000E0919305F0919405309789F20C2D2D2D98
:10106000412FB70187E795E00995C9CF862F807F8B
:10107000803A11F188F48038D1F0E0917B05F0914D
:101080007C05803929F7309719F3123F49F12C2D4F
:101090004D2D612F6F7027C0803E99F0803FB1F0D9
:1010A000E0917905F0917A05803B91F6ECCFE091E3
:1010B0007D05F0917E05E7CFE0917F05F0918005F9
:1010C000E2CFE0918105F0918205DDCF623F09F02A
:1010D000BFCFE0918305F0918405309709F4B8CF34
:1010E0002C2D4D2D62EF87E795E0099588CF862F4F
:1010F000807F803DB9F0803FD1F0E0918505F0918F
:101100008605803C09F0A4CF309709F4A1CF812F48
:101110008D7F4D2D612F6F70813FC9F087E795E07E
:1011200009956DCFE0918705F0918805EDCFE091AD
:101130008905F0918A05633F39F0613F09F088CF56
:10114000E0918B05F0918C05309709F481CF4D2DFE
:10115000612FE4CFE0918D05F0918E05683F38F462
:10116000663F09F075CFE0918F05F09190053097BB
:1011700009F46ECF612F87E795E0099540CFE8ED40
:10118000F0E080818E7F80831092E2001092DA007E
:101190001092E100A0EEB0E08C9181608C93808190
:1011A0008F77808319BCA7EDB0E08C918E7F8C93F4
:1011B00080818F7E80831092D50408952091E40071
:1011C0003091E50095E6A9012091EC00822F817015
:1011D00020FF06C08091E80080FF06C080E00895EF
:1011E0002091E80022FD1AC08091E204882389F052
:1011F000853089F08091EB0085FD0FC02091E400DF
:101200003091E50042175307F9F29150E1F684E07E
:10121000089582E0089583E0089581E00895EF92B3
:10122000FF920F931F93CF937C018B010E94DE08E6
:10123000C82F811117C08091E80085FD0BC08091F7
:10124000E8008E778093E8000E94DE08882399F3F7
:10125000C82F08C0F70181917F018093F1000150F0
:10126000110949F78C2FCF911F910F91FF90EF90AB
:1012700008958091E40487FF13C08091E80082FF05
:1012800006C08091E8008B778093E80004C08091CD
:10129000E2048111F2CF08958091E2048823D9F30A
:1012A0008091E80080FFF8CF8091E8008E77ECCF46
:1012B000982F9093E900242F762F50E0891731F072
:1012C0007091EC002091ED005091F00021FD07C0DD
:1012D0009F5F973071F78093E90081E00895309126
:1012E000EB003E7F3093EB003091ED003D7F30937B
:1012F000ED003091EB0031603093EB007093EC0027
:101300002093ED005093F0002091EE0027FDE0CFF8
:1013100080E00895CF92DF92EF92FF920F931F9398
:10132000CF93DF93C8EDD0E088818F7E8883E7ED8F
:10133000F0E080818160808384E082BF81E08093DF
:10134000D50488818E7F888302EE10E0F801108238
:101350001092DA0081EEC82ED12CF601108288811D
:101360008F77888388818068888388818F7D888350
:1013700019BC1092E2041092E3041092E10410925E
:10138000E00490EEE92EF12CF70180818B7F8083C1
:1013900088818160888342E060E080E00E94580993
:1013A000F60180818E7F8083F80180818160808357
:1013B000808188608083F70180818E7F808388812F
:1013C00080618883DF91CF911F910F91FF90EF9003
:1013D000DF90CF900895FC018091EA049091EB0496
:1013E00086179707A0F06115710529F49091E80020
:1013F0009E779093E80090E06115710551F491118A
:1014000008C08091E80082FF34C080E00895BC01EC
:10141000F2CF8091E2048823C1F18530C1F180913F
:10142000E80083FD30C08091E80082FDEACF809122
:10143000E80080FFE1CF8091F3002091F200382F87
:101440006115710519F02830310558F091E0283008
:10145000310509F090E02091E8002E772093E80014
:10146000CBCF81918093F100615071092F5F3F4F85
:10147000E7CF8091E204882341F0853041F08091EC
:10148000E80083FFBECF81E0089582E0089583E005
:101490000895089508958091D704089508950895B2
:1014A000982F907F903BE9F040F49039D1F0903A3A
:1014B000C1F09038B1F080E00895903D19F020F42B
:1014C000903CC9F782E00895903E59F0903F99F71B
:1014D000815F8F3080F7E82FF0E0E454FE4F808189
:1014E000089583E00895CF92DF92EF92FF920F93D9
:1014F0001F93CF93DF9300D000D000D00F92CDB7D1
:10150000DEB78C0108511F4F8091E204843009F04E
:1015100087C080915E018F708093E9008091E80020
:1015200082FF7EC08091E80085FF7AC00E94DE08BD
:10153000811113C084E0E82EF12CCE0101966C01DC
:101540008091E80085FD61C08091E8008B778093F1
:10155000E8000E94DE08882399F38091E80085FD69
:1015600005C08091E8008B778093E800FA808F2D8A
:101570000E94500A282FFD828B818E838C818F835D
:1015800021110BC08981843041F1873031F18630DF
:1015900031F121E0853009F0B7CF30E0E5E0F0E04F
:1015A000EC0FFD1FE30FF11DF0804FB7F894D80149
:1015B0001196EC911197F0E0CF01019612966C9183
:1015C00070E00E94D031D8015C915817190649F497
:1015D0004FBF3F5F321710F397CF23E0DECF22E0FB
:1015E000DCCF13968D919C911497E80FF91FF08230
:1015F00011968C91119790E0019612966C9170E083
:101600000E94D031F8018183E3CF8091F100D601AF
:101610008D936D01B1E0EB1AF10809F091CF9DCFE8
:1016200027960FB6F894DEBF0FBECDBFDF91CF91E6
:101630001F910F91FF90EF90DF90CF900895DF9270
:10164000EF92FF920F931F93CF93DF9300D000D0C0
:10165000CDB7DEB77B01142FD22E4A832B830C83A8
:10166000842F0E94500A811141C082E0E816F104E3
:10167000C1F183E0E816F10439F0EA94EF2829F586
:10168000173F29F485E004C087E0073F09F084E0B4
:1016900089838091E2048430C1F4809159018F7074
:1016A0008093E90050E040E064E070E0CE010196F4
:1016B0000E940F09811109C08091E80085FD05C0D5
:1016C0008091E8008E778093E8000F900F900F9044
:1016D0000F90DF91CF911F910F91FF90EF90DF90CE
:1016E000089587EFD812D3CF86E0D2CF12951F701E
:1016F0001983CFCF9C014FB7F8948091CE0490917D
:10170000CF04A091D004B091D1044FBF821B930BA2
:1017100008952FB7F8946091CE047091CF04809112
:10172000D0049091D1042FBF08952FB7F8948091E1
:10173000CE049091CF04A091D004B091D1042FBFDA
:1017400008959C01FC0132969FEF80E0419146177D
:1017500051F09F3F19F4411101C0982F8F5F8630DF
:10176000A9F79F3F09F40895290F311D97FD3A9578
:10177000F901628308952091CB043091CC0428179D
:10178000390771F09093CC048093CB04E091C904A5
:10179000F091CA04309721F00084F185E02D09947E
:1017A00008952091C7043091C8042817390771F0B3
:1017B0009093C8048093C704E091C904F091CA04CF
:1017C000309721F00680F781E02D09940895FC01FF
:1017D000680F791F8FEF91E32191822728E030E095
:1017E00087FF09C0880F892721503109C9F7E617FB
:1017F000F70791F70895880FF7CFFA01811101C01B
:10180000FB0109948091C204982F9E7F71F480910E
:10181000C204817082608093C2048091C5048135C6
:1018200018F080E58093C5040895843080F7F5CFE3
:10183000AF92BF92DF92EF92FF920F931F93CF93DD
:10184000DF93082F162FE901E42FF0E0EE55F44F57
:10185000611110C0E4915E2F4E2F4983E8835A83B3
:10186000DF91CF911F910F91FF90EF90DF90BF908C
:10187000AF900895E62EF12C4491D42EE42FF0E0A1
:1018800026E0829FC00111242FEF30E0B9010E94B1
:10189000BC31802F90E0880F991F55E5569FD001ED
:1018A000579FB00D11248A1B9B0B982F990F890FFE
:1018B0005901AE18BF08AE9ED001AF9EB00DBE9EBE
:1018C000B00D11245B2F189F80011124012F1127C7
:1018D0005901A01AB10AAE9E8001AF9E100DBE9EA6
:1018E000100D11245901A81AB108AE9CC001AF9C7B
:1018F000900DBE9C900D1124892F9927281B390B20
:101900002E9FC0012F9F900D3E9F900D1124E92F17
:1019100062307105A1F050F46115710509F49DCF95
:101920006130710581F0EB2F512F97CF6430710535
:1019300069F080F06630710509F48FCFF4CFE42FA1
:101940004B2F592F8ACFE42F412F87CFEB2F542FC6
:10195000492F83CF4B2F5D2DE12F7FCF90917305C2
:10196000292F2F7095959595959595959F523CE0CB
:10197000239F900D1124890F0895AF92BF92CF92AB
:10198000EF920F931F93CF93DF93D82FC901C0918C
:101990007405CF7750E09A01295C3A4F5901F9015B
:1019A0001081FB012281222311F11F3FB9F40E9413
:1019B000AE0C182F602F680F4C2F8D2F0E949107AF
:1019C0006E2D610F4C2F8D2F0E9491076C2D610F92
:1019D0004C2F8D2F0E949107F5011083DF91CF913D
:1019E0001F910F91EF90CF90BF90AF9008951F3F40
:1019F00091F0602F610F4C2F8D2F0E947F076E2D6D
:101A0000610F4C2F8D2F0E947F076C2D610F4C2F83
:101A10008D2F0E947F078FEFF5018083DFCFFF922C
:101A20000F931F93CF93DF93D42F01ED080FC09135
:101A30007405CF77222319F0CF31E8F0CE5110E0B2
:101A400001511B4FF8012081FB0132813323A9F0A2
:101A50002F3F59F40E94AE0CF82E6D2F680F4C2FBB
:101A600080E00E949107F801F082DF91CF911F91F1
:101A70000F91FF900895C0E0E2CF2F3F31F06D2F1E
:101A8000620F4C2F80E00E947F078FEFF801808368
:101A9000ECCF84E0809373058FE780937405809189
:101AA00075058078806480937505E4E0F3E08FEF3E
:101AB000819393E0EC34F907D9F710920303109265
:101AC00002031092010310920003089580E008952C
:101AD00078940895F894E82FE295EF70F0E031A142
:101AE000282F2F7081E090E001C0880F2A95EAF737
:101AF000982F9095932391A392A1892B82A30C9464
:101B0000680D9091A70292FF06C0282F28712830F7
:101B1000F9F4877F846093FF06C0282F287128314D
:101B2000F1F4877E84612091A80220FF06C0382F3F
:101B300038713830D9F4877F816021FF06C0282FA3
:101B400028712831D1F4877E816194FD877E0895C4
:101B5000282F24712430F9F68B7F8860DCCF282F62
:101B60002471243101F78B7E8861DDCF382F3171EC
:101B7000313019F78E7F8860E0CF282F2171213115
:101B800021F78E7E8861E1CFCF93DF93EC0182381D
:101B9000910581F1B0F58133910509F491C020F5EB
:101BA0008932910509F485C08A9709F490C0C1155E
:101BB00021E5D20708F0AAC0C11530E5D30708F027
:101BC000F2C0CF3BD10508F089C0C83AD10508F072
:101BD000DFC0C53AD10508F0D3C0C430D105F8F450
:101BE000C130D105E1F040C08533910509F45AC0F8
:101BF000C997E9F68091A702837089F0C0EED0E022
:101C00000EC0833E910599F170F4803E910501F17B
:101C1000823E910561F68091A70282FD21C0CE012E
:101C2000DF91CF910895863E910561F1873E910540
:101C300071F1843E910509F0BACF8091A80281FF2D
:101C4000EECF8091A702C7EED0E084FD0DC0E7CFB4
:101C50008091A70280FDF7C09091A80290FFDFCF8E
:101C6000C3EED0E084FFDBCFD0E0C0E0D8CF8091DE
:101C7000A70282FDEBC09091A80290FDBFCF84FF28
:101C8000CECFF2CF8091A70283FDDDCFC8CF809168
:101C9000A70283FDDEC09091A80291FFF0CFC4EEB1
:101CA000D0E0BDCF8091A70285FFB9CFC9E2D0E0D7
:101CB000B6CF8091A70285FFB2CFC5E3D0E0AFCF0A
:101CC0008091A70286FFABCFCAE2D0E0A8CF809177
:101CD000A70286FFA4CFC1E3D0E0A1CFC11540E2A7
:101CE000D40760F4C11581E0D80708F098CFCE0181
:101CF000805E9109089708F492CFB6CFC11590E4A1
:101D0000D90708F4B1CFDF70D06A89CFC11524E5B7
:101D1000D20778F4C11533E5D30708F072C0C115B6
:101D200042E5D40708F05CC0DC2FCC27C16FD06A35
:101D300076CFC1158AE5D80778F4C11599E5D9079A
:101D400008F073C0C11528E5D20708F48DCFDC2F49
:101D5000CC27C06FD06A63CFCE01905681159042D8
:101D600008F082CF8D2F8F710E94810D90E0982F07
:101D7000882788279F719C012C2BE901D0624FCFC7
:101D8000C55AD0E0C159DE4FC881D0E0D06447CFFA
:101D9000C85AD0E0CC0FDD1FCE58DE4F0990D88155
:101DA000C02DD4643CCFCE0164E0969587956A95AA
:101DB000E1F783702C2F26952695237040E2249F0F
:101DC00090011124382B8C2F8370C1E0D0E002C029
:101DD000CC0FDD1F8A95E2F7C22BD32BDC681FCF17
:101DE000CE018370992721E030E002C0220F331F1B
:101DF0008A95E2F7C695C69580E2C89FE001112456
:101E0000EBCFCE018370992721E030E002C0220F92
:101E1000331F8A95E2F7C695C69590E2C99FE00107
:101E20001124C22BD32BDA68FACE8C2F8F700E942C
:101E3000810D34E0D695C7953A95E1F7CF709C2F88
:101E4000EC01D069ECCEC9E3D0E0E9CEC2EED0E03F
:101E5000E6CEC6EED0E0E3CE0C94890B80915D0215
:101E600090915C02892B90915B02892B8093CE012B
:101E7000E091C904F091CA04309731F00280F381F7
:101E8000E02D8EEC91E00994089580915A02909192
:101E90002902981301C008958F5F8770FACFAF921F
:101EA000BF92CF92DF92EF92FF920F931F93CF9347
:101EB000DF93C090A302D090A402E090A502F0901E
:101EC000A602409162025091630260916402709197
:101ED0006502C42AD52AE62AF72ACFE1D0E0082FE6
:101EE00010E02AE0929F000D111D112498E7A92E01
:101EF000BC2ED701C6010C2E04C0B695A7959795A8
:101F000087950A94D2F780FD0FC0219788F7B12CEE
:101F10008B2DDF91CF911F910F91FF90EF90DF906C
:101F2000CF90BF90AF900895AC9EF001AD9EF00DA4
:101F30001124E00FF11FEE0FFF1FE45CFD4F8591B0
:101F400094910E94C40D019701F3E2CFCF93DF93E8
:101F5000EC010E944F0FEC2FF0E09AE0D99FE00DCA
:101F6000F11D112498E7899FE00DF11D1124EE0F5A
:101F7000FF1FE45CFD4F85919491DF91CF910C940C
:101F8000C40D2AE0929F800D1124982F977086959A
:101F90008695869525E0829FF0011124E852FE4F38
:101FA00050E040E080E0219130E0092E02C03695FB
:101FB00027950A94E2F721703327042E01C0220FDF
:101FC0000A94EAF7822B4F5F5F4F4530510559F76E
:101FD00008952AE0929F800D1124982F977041E078
:101FE00001C0440F9A95EAF786958695869595E007
:101FF000899FF0011124E852FE4F90E080E070E0EC
:102000005191DF0111979B01082E02C0369527954B
:102010000A94E2F7217021952527242325272C9364
:1020200001968530910561F70895FC0180819181C9
:102030000E94A60F292F2F7092959F7092509E306C
:1020400078F4E92FF0E0ED5AFD4C0C94E431803F38
:1020500019F020F4883E20F481E00895843FE1F3F4
:1020600080E00895883EC0F3813FD1F7F5CF822FFD
:10207000869586958695089590E080E00E94D10B24
:1020800090E080E00E94BB0B10925C0210925B0219
:102090000C942E0F6093620270936302809364022B
:1020A000909365020C943C10882341F080959091A8
:1020B0005D02892380935D020C942E0F089588237E
:1020C00039F090915D02982B90935D020C942E0F45
:1020D00008958823B1F19CEF980F913A70F4E0EDE8
:1020E000F1E09191891303C0DF0111971C9241E047
:1020F000E63DF407B1F70C942E0F90E2980F98305C
:1021000088F4877021E030E0A90102C0440F551F18
:102110008A95E2F7CA01809590915D0289238093A8
:102120005D02E9CF9BE5980F933020F490E080E0CA
:102130000C94D10B885A873120F490E080E00C9405
:10214000BB0B0895CF93C82F882309F44EC08CEFA2
:102150008C0F813AF8F4E0EDF1E086ED91E0DF01DB
:102160002D91C21759F08A179B07D1F76C2F8EEC6F
:1021700091E00E94A10BCF910C942E0F2191C213DC
:1021800003C0DF0111971C928E179F07B9F70E94B9
:102190002E0FECCF80E28C0F883068F4C77021E0FE
:1021A00030E001C0220FCA95EAF780915D02822BD0
:1021B00080935D02E0CFEBE5EC0FE33040F4F0E01C
:1021C000E159FE4F808190E0CF910C94D10BC85A19
:1021D000C73158F4EC2FF0E0EE0FFF1FEE58FE4F22
:1021E00080819181CF910C94BB0BCF910895CF92B8
:1021F000DF92EF92FF926C01EE24FF2420E0C114E5
:10220000D104E104F10419F0C701B60120E1C72EA1
:10221000D82EE92EFF24C114D104E104F10419F0F1
:10222000285FC701B6016B017C0154E0F694E79486
:10223000D794C7945A95D1F7C114D104E104F1049D
:1022400019F02C5FC701B6016B017C0142E0F694E6
:10225000E794D794C7944A95D1F7C114D104E10407
:10226000F10419F02E5FC701B60196958795779511
:102270006795672B682B692B09F02F5F822FFF90E2
:10228000EF90DF90CF9008951F93CF93DF93C62FE9
:10229000D42F122FFC018281882399F06093EE04E1
:1022A0000E94950B9093ED048093EC04C77081E03D
:1022B00001C0880FCA95EAF7DF91CF911F910C9466
:1022C0005F108091EE04681343C08091EC049091FC
:1022D000ED040E947A0B883C9105D0F5CD17C9F02A
:1022E00080E28C0F883040F4C77081E001C0880F15
:1022F000CA95EAF70E94541080E28D0F883048F4A6
:1023000081E09D2F977001C0880F9A95EAF70E948F
:102310005F10812F0E94A2108AE090E0EFE9FFE0B9
:102320003197F1F700C000000197C1F7812F0E949B
:10233000691080E28D0F883090F4D77081E001C081
:10234000880FDA95EAF7DF91CF911F910C94541022
:10235000C77081E001C0880FCA95EAF7F4CFDF911A
:10236000CF911F9108958093D2047093D404609309
:10237000D3048091E204843001F582E08093E90087
:102380008FEF9091E800815095FD06C095ED9A95EC
:10239000F1F700008111F5CF8091E80085FF0DC0B5
:1023A00050E040E063E070E082ED94E00E940F09AD
:1023B0008091E8008E778093E8000895BC0184E066
:1023C0000C94B311BC0183E00C94B311CF93DF9351
:1023D000EC0181E08093E9008FEF9091E80081505B
:1023E00095FD06C095ED9A95F1F700008111F5CFA6
:1023F0008091E80085FF14C050E040E068E070E0A4
:10240000CE010E940F098091E8008E778093E8004A
:1024100088E0FE01A8EDB4E001900D928A95E1F705
:10242000DF91CF9108959F92AF92BF92CF92DF92AA
:10243000EF92FF920F931F93CF93DF937C015B0189
:102440006A0180919E0201E010E08A3010F40AE0F7
:1024500010E0C1E0D0E0F894B501C701F60109959C
:10246000982E0E94680D911004C021960C171D072C
:102470006CF4892DDF91CF911F910F91FF90EF9018
:10248000DF90CF90BF90AF909F900895CC9F900128
:10249000CD9F300D300D112490E080E045E34A954A
:1024A000F1F70000019682179307C1F7D4CF80910E
:1024B0007202811110C08091D80080618093D80091
:1024C0008AE18A95F1F700C08091D90080FF0AC0A7
:1024D00081E08093720281E090917202913009F064
:1024E00080E0089582E0809372020E94BF081092FB
:1024F000E204F1CF0E945712882351F0E091C90401
:10250000F091CA04309721F00190F081E02D0994F8
:1025100080E008955F926F927F928F929F92AF9228
:10252000BF92CF92DF92EF92FF920F931F93CF93C0
:10253000DF93CDB7DEB7C157D1400FB6F894DEBFF9
:102540000FBECDBF8091C20480FD0AC0E1E5F3E07B
:10255000118210821282339624E0E23CF207C1F726
:1025600080904F03909050038114910409F45AC055
:1025700080FF58C0D12CC12C66246394712C13E0C9
:10258000512E80914E0393010C2C01C0220F0A940E
:10259000EAF7822309F43EC0F601EE0FFF1FE80DB3
:1025A000F91DE590F490E114F104E1F145E050E00B
:1025B000B701CE0101960E94EA3109810F3F51F126
:1025C0008A81800F9927991F8C37910514F08BE72A
:1025D00090E05C01AA0CBB1C8A0D9B1DFC01EF5A0C
:1025E000FC4F5F01059D800111240F5A1C4F0A15F5
:1025F0001B0520F0F5E0EF0EF11CD8CF4D814135E1
:1026000008F040E598016C818B810E94180C0D5FE9
:102610001F4FEDCF2FEFC21AD20A38E0C316D104F4
:1026200009F0AFCF72EAA72E7CE0B72EDE0111963B
:10263000AE014E585E4F1A2F7B2FF5018491282F43
:1026400030E0C901880F991F820F931F8F5A9C4F4A
:10265000FC01C080D180E280CD92DD92ED92FFEF4F
:10266000AF1ABF0AA417B50741F7539A3BB1377F9A
:102670002BB128606FB7F894812F972FFC017191CF
:10268000CF01E8E02BB9000000C077FF3BB9770F1E
:10269000000000C000C000C03BB900C0EA9591F73F
:1026A0008417950759F76FBF8FE594E00197F1F70D
:1026B00000C00000CF58DE4F0FB6F894DEBF0FBE4B
:1026C000CDBFDF91CF911F910F91FF90EF90DF90E1
:1026D000CF90BF90AF909F908F907F906F905F90C2
:1026E00008951F93CF93DF9300D00F92CDB7DEB73D
:1026F000122F9091C20490FF1BC0413508F040E5B5
:102700009E012F5F3F4F0E94180C1B3788F48B816E
:102710009981212F30E0F901EE0FFF1FE20FF31F27
:10272000EF5AFC4F2A812183908382830E948A1270
:102730000F900F900F90DF91CF911F9108950F93FD
:10274000FC01862F642F422F202F0F3F51F09281E2
:10275000992319F00F910C94711340E060E080E030
:10276000F9CF0F9108950F93CF93DF93EC01062FCC
:10277000609162027091630280916402909165029F
:102780000E94F710813089F0882341F0823089F06F
:10279000853099F0DF91CF910F9108952FEF4FEF92
:1027A0006AE6CE010E949F13F5CF2FEF4FEF6BE249
:1027B000F8CF2AED4AED6EE1F4CF2FEF4FEF65ED44
:1027C000F0CFCF92DF92EF92FF926B017C010E94DB
:1027D000020CB701A60188E090E0FF90EF90DF9037
:1027E000CF900C942F32EF92FF920F931F93CF93C1
:1027F000DF9300D00F92CDB7DEB7F82E062F142F3F
:10280000E22E8091C20480FF3AC0E82FE695F0E006
:10281000E654FE4F908190934C038E7F8230E9F412
:10282000413508F040E59E012F5F3F4F602F8F2D0F
:102830000E94180C8091C20480FF0FC08B81998187
:102840002A81E1E5F3E0218390838283339634E0AB
:10285000E23CF307C1F70E948A12F092C30400938E
:10286000C4041093C504EE2051F06091C20470912D
:10287000C3048091C4049091C5040E94E1130F9099
:102880000F900F90DF91CF911F910F91FF90EF90DC
:102890000895E2ECF4E0438121E1421B08F440E0BA
:1028A00021E0628181810C94F313E2ECF4E0438136
:1028B00021E1420F08F44FEF21E0628181810C9405
:1028C000F313E2ECF4E0628121E1621B08F460E0C2
:1028D00021E0438181810C94F313E2ECF4E0628106
:1028E00021E1620F08F46FEF21E0438181810C94B4
:1028F000F313E2ECF4E0818121E0438162818850AE
:102900000C94F313E2ECF4E0818121E043816281D5
:10291000885F0C94F3138091C604882319F08150CA
:102920008093C6046091C2047091C3048091C40472
:102930009091C5040C94E1138091C604833018F47F
:102940008F5F8093C6046091C2047091C30480912C
:10295000C4049091C5040C94E1138091C20480FFDB
:1029600019C0817082608093C204662351F0609127
:10297000C2047091C3048091C4049091C5040E9464
:10298000E11320E04091C5046091C4048091C30428
:102990000C94F313089521E030E0A90102C0440F24
:1029A000551F8A95E2F7CA0120914E03662369F00C
:1029B000822B80934E0380914D03811109C0809139
:1029C000C20460E086950C94AD1480958223F1CF0B
:1029D0000895CF92DF92EF92FF926B017C01D1FAC2
:1029E000662760F9C114D104E104F10409F460E040
:1029F00080E00E94CB146D2D6170C114D104E104FC
:102A0000F10409F460E081E00E94CB14C701B60133
:102A1000FF90EF90DF90CF9008950E94E9146093AB
:102A2000A3027093A4028093A5029093A6020C9433
:102A30003C100F931F9341E050E060E070E004C051
:102A4000440F551F661F771F8A95D2F7CB01BA0135
:102A500060957095809590950091A3021091A402C5
:102A60002091A5023091A602602371238223932333
:102A70001F910F910C940D150F931F9341E050E09F
:102A800060E070E004C0440F551F661F771F8A95F1
:102A9000D2F78091A3029091A402A091A502B091D7
:102AA000A6028A019B01082B192B2A2B3B2BC9015B
:102AB000B8011F910F910C940D158091C204869559
:102AC000815009F481E061E00C94AD1461E081E093
:102AD0000C94AD14E2ECF4E083E0808311828FEF7C
:102AE000828380E5838314826081718182819381F6
:102AF0000C94E11310925D02E0EDF1E086E0DF015D
:102B00001D928A95E9F70C943C101F93CF93DF93A5
:102B1000CDB7DEB7AA970FB6F894DEBF0FBECDBF14
:102B200084EE94E02091F100FC012193CF01F4E0C8
:102B30008C3E9F07B9F78091E504833009F470C09B
:102B4000B8F4813009F447C0823009F4B1C08091F3
:102B5000E80083FF88C28091E4049091E5049A30F4
:102B600008F081C2E92FF0E0EF59FD4C0C94E431FC
:102B70008A3009F48CC08B3009F46FC0893039F782
:102B80008091E404813219F78091E8049091E9047E
:102B90000297E8F68091E800877F8093E8008091B3
:102BA000E80082FF38C09091F3008091F200029714
:102BB00031F48091F100813011F0863021F4809160
:102BC000F1008093D7048091E8008B778093E80030
:102BD0000E943909BCCF8091E404813A09F0B7CF53
:102BE0008091E800877F8093E8008091E8049091CD
:102BF000E904892B61F468E088ED94E070E00E94BC
:102C0000EB098091E8008B778093E800A0CF60E02B
:102C100090E080E0F3CF8091E2048111C0CF97CFA4
:102C20008091E404813A09F092CF8091E804909178
:102C3000E904892B09F08BCF8091E800877F80938E
:102C4000E8008091E80080FFFCCF809164018093D0
:102C5000F1008091E8008E77B9CF8091E404813251
:102C600009F075CF8091E8049091E904892B09F06F
:102C70006ECF8091E800877F8093E8000E94390939
:102C80008091E604809364010E947A1560CF809160
:102C9000E404813209F05BCF8091E800877F809364
:102CA000E8000E9439098091E7048093D6044FCF51
:102CB0008091E404813A09F04ACF8091E800877F4F
:102CC0008093E8008091E80080FFFCCF8091D604DB
:102CD000BECF803899F0823809F0C5C18091E804F0
:102CE0008F70873008F0BFC18093E9008091EB00BE
:102CF00085FB882780F91092E90006C08091E004E6
:102D00009091E104911182609091E800977F9093F7
:102D1000E8008093F1001092F1008091E8008E7736
:102D20009EC1882309F48CC1823009F09CC1809136
:102D3000E60481118FC18091E8048F702FEF280F76
:102D4000263008F090C18093E9002091EB0020FF2D
:102D500081C1933031F48091EB0080628093EB006D
:102D600079C19091EB0090619093EB0021E030E00D
:102D700001C0220F8A95EAF72093EA001092EA0038
:102D80008091EB008860EACF81116DC11091E6045B
:102D90001F778091E3008078812B8093E3008091FE
:102DA000E800877F8093E8000E9439098091E8005D
:102DB00080FFFCCF8091E30080688093E30082E095
:102DC000111183E08093E2044EC18058823008F0F4
:102DD0004AC18091E6049091E7048C3D23E092077C
:102DE000A1F583E08A838AE289834FB7F894DE01F4
:102DF000139620E03EE051E2E32FF0E050935700BD
:102E0000E49120FF03C0E295EF703F5FEF708E2FDB
:102E100090E0EA30C0F0C7968D939D932F5F2431E8
:102E200059F74FBF8091E800877F8093E8006AE2FE
:102E300070E0CE0101960E94EB098091E8008B774B
:102E40008093E80010C1C096E7CF4091E80450910C
:102E5000E904292F33272330310509F444C078F5DC
:102E60002130310509F46FC08FE990E0EFE8FDE013
:102E70002230310509F0F7C02091E800277F209328
:102E8000E8002091EA043091EB048217930708F4DC
:102E90009C0140E02115310509F064C0411162C078
:102EA0008091E80082FDC9CF8091E204882329F255
:102EB000853019F28091E80083FFF2CFBECF213236
:102EC0003105A9F12232310509F0CDC04115510576
:102ED00009F443C04130510509F0C5C082E390E0D8
:102EE000EDE1FDE0C9CF992781309105C1F0009750
:102EF00059F0029709F0B7C0E0E4FEE0E4918E2FAC
:102F000090E0E0E4FEE007C0E8E6FEE0E4918E2F0A
:102F100090E0E8E6FEE0009709F4A5C0ADCFE8E553
:102F2000FEE0E4918E2F90E0E8E5FEE0F4CF41155D
:102F3000510571F04130510509F095C089E090E0EC
:102F4000EAEBFDE099CF82E190E0EEE2FEE094CF83
:102F500089E090E0E1EAFDE08FCF80E490E0EFE4EB
:102F6000FDE08ACF8091E204882309F466CF8530A2
:102F700009F463CF8091E80083FD5FCF8091E80082
:102F800082FD8ECF8091E80080FF84CF9091F30086
:102F90008091F2002115310519F08830910550F02B
:102FA00041E0089709F040E08091E8008E77809337
:102FB000E80070CF44914093F100319621503109DF
:102FC0000196E8CF803809F04EC08091E800877FF5
:102FD0008093E8008091E3048093F1009ECE8111FC
:102FE00042C01091E6041230F0F58091E800877F2E
:102FF0008093E8001093E3040E943909112311F033
:1030000084E005C08091E30087FDFACF81E08093E2
:10301000E20442E061EC81E00E94580942E261EC86
:1030200082E00E94580942E361E883E00E94580967
:1030300042E361E884E00E9458098091E20413C0F1
:103040008091E604813079F481E0933009F080E0EA
:103050008093E1041092E9008091E800877F8093DB
:10306000E8000E9439098091E80083FF0AC080913E
:10307000E800877F8093E8008091EB008062809376
:10308000EB00AA960FB6F894DEBF0FBECDBFDF915E
:10309000CF911F910895CF9384E090E00E94093270
:1030A000C82F82E290E00E940932982F8C2FCF9196
:1030B00008950F931F93CF93DF9300D000D0CDB727
:1030C000DEB740919A0250919B0260919C027091F0
:1030D0009D022FB7F8948091CE049091CF04A091D7
:1030E000D004B091D1042FBF841B950BA60BB70B56
:1030F00084369105A105B10588F10E9457128823F5
:1031000079F10E94890B6E5F7F4F8F4F9F4F6983CC
:103110007A838B839C8380912C0190912D01895718
:103120009D4F40912B0150E04530510510F044E097
:1031300050E0BE016F5F7F4F0E94003284E090E05C
:103140000E940831892BD9F40E94890B60939A025E
:1031500070939B0280939C0290939D0281E010C02B
:103160000E94890B00919F021091A0022091A10260
:103170003091A202600F711F821F931FC4CF80E0A5
:103180000F900F900F900F90DF91CF911F910F91A3
:1031900008956F927F928F929F92AF92BF92CF923B
:1031A000DF92EF92FF920F931F93CF93DF930F92D3
:1031B000CDB7DEB7862E5A016901682E880F7708D1
:1031C000C3010E940831892B09F088C08AE0869DDE
:1031D000F001879DF00D1124EF5FFE4F458150E017
:1031E0004115510511F041E050E08AE0869DF00163
:1031F000879DF00D1124EF5FFE4F6681778169573F
:103200007D4FCE0101960E940032F501408151812F
:10321000628173812FB7F8948091CE049091CF048E
:10322000A091D004B091D1042FBF841B950BA60BA5
:10323000B70B84369105A105B10540F4B701C8016B
:103240000E94E70B9981891709F44FC0082C000CE4
:103250009908C4010E940831892B91F0B12C8B2D63
:103260000F90DF91CF911F910F91FF90EF90DF9022
:10327000CF90BF90AF909F908F907F906F90089568
:103280008AE0889DF001899DF00D1124EF5FFE4FCB
:10329000458150E0E416F50608F4A7018AE0889D10
:1032A000F001899DF00D1124EF5FFE4F668177815B
:1032B00069577D4FC6010E940032B701C8010E94C4
:1032C000E70B99818913CACF0E94890BF5016083AE
:1032D000718382839383BB24B394C1CFB12CA701A4
:1032E000B801C6010E940032BACFBB24B394F7CF15
:1032F000CF92DF92EF92FF920F931F93CF93DF93C2
:10330000CDB7DEB72C970FB6F894DEBF0FBECDBF9A
:103310006B018CE0E82EF12C08E812E09E012F5F93
:103320003F4F4FE752E061E080E00E94C9188823D8
:1033300049F09CE0FE013196A3E7B2E001900D92C6
:103340009A95E1F79CE0E3E7F2E0D60101900D9257
:103350009A95E1F72C960FB6F894DEBF0FBECDBF5D
:10336000DF91CF911F910F91FF90EF90DF90CF9061
:103370000895CF92DF92EF92FF92C12CD12C76016B
:10338000C39404C0CC0CDD1CEE1CFF1C8A95D2F744
:103390006C2D83E090E00E941D32C701B601FF90C2
:1033A000EF90DF90CF900C944A1069EE7EEF90E0A2
:1033B00080E00E943B3260E082E090E00E941D329B
:1033C00060E083E090E00E941D3210926202109251
:1033D0006302109264021092650260E084E090E063
:1033E0000E941D3260E082E290E00E941D3260E0A7
:1033F00085E090E00E941D3260E086E090E00E944F
:103400001D326FEF87E090E00E941D3240E050E0F7
:10341000BA0188E090E00E942F3260E08DE090E0F9
:103420000E941D3240E050E0BA0188E190E00E9425
:103430002F3260E087E190E00E941D3240E050E0D2
:10344000BA018CE190E00E942F3270E060E080E2EF
:1034500090E00E943B3240E050E0BA0188E190E009
:103460000E942F3240E050E0BA018FE090E00E94CD
:103470002F320E94490DE3E7F5E08081807F826072
:103480008083E4E7F5E0808180788567808310920F
:1034900061021092600210925F0210925E0281E05F
:1034A000809300011092C5021092C6021092C702CA
:1034B0001092C80240E050E0BA0183E190E00E941F
:1034C0002F3282E00C94B9197F928F929F92AF9223
:1034D000BF92CF92DF92EF92FF920F931F93CF9301
:1034E000DF9300D000D00F92CDB7DEB74C01FC01C6
:1034F00083819481892B41F01081F180812F8F216C
:103500008F3F11F00C94AA230F900F900F900F9003
:103510000F90DF91CF911F910F91FF90EF90DF906F
:10352000CF90BF90AF909F908F907F9008950E9412
:103530004F0F082F682F89819A810E94E90F2AE096
:10354000E12FF0E0F29EE00DF11D112438E7039F1A
:10355000E00DF11D1124EE0FFF1FE45CFD4FA5905F
:10356000B490F4013181808190E0329F800D911DF3
:103570001124FC01EC53FE4F1491FC01E45BFE4F5F
:10358000F4904AE54A0DF6EDAF16FDE5BF0608F0EA
:10359000ECC02AECA2162DE5B20608F055C237E7BA
:1035A000A3163CE5B30608F08AC04FE2A4164CE52A
:1035B000B40608F052C251E9A51658E4B50609F45C
:1035C00026C108F062C0C5010497843E910508F445
:1035D0001EC1FFEAAF16FCE5BF0608F0EDC22FE9F9
:1035E000A2162CE5B20608F01FC430E9A3163CE58C
:1035F000B30608F083C243E8A4164CE5B40608F00D
:10360000C3C351E8A5165CE5B50608F05DC287E7BF
:10361000A8168CE5B80608F094C39FE2A9169CE5AD
:10362000B90608F05CC334EFA3163CE5B30609F411
:10363000DDC408F042C359EDA5165CE5B50609F4F2
:10364000D1C48AEDA8168CE5B80609F4DBC498ED60
:10365000A9169CE5B90609F0E6C026E241EE61EE46
:10366000C4010F900F900F900F900F90DF91CF91AA
:103670001F910F91FF90EF90DF90CF90BF90AF9090
:103680009F908F907F900C94441198E0A91691E53B
:10369000B90609F4BCC0E6E1AE16ECE5BE0609F4D5
:1036A000B6C0F8EAAF16F9E4BF0609F092CF012FD1
:1036B0002AED4AED6EE1C4010E949F13B4C02EEBC7
:1036C000A2162DE5B20608F0B6C132EBA3163DE511
:1036D000B30608F09EC156EAA5165DE5B50608F4E6
:1036E00078CFC090C502C0FACC24C0F870906102B7
:1036F000009174050F7750E09A01295C3A4F7901E7
:10370000F901D080F4018281FFEF882309F45BC1C5
:10371000DF1210C0C5018B5691400E94AE0CD82E0E
:10372000402F682F872DCC2009F446C10E949107B5
:10373000F701D0826091620270916302809164020D
:10374000909165020E94F710813009F458C18823D6
:1037500009F44DC1823009F457C1853009F039CFE1
:10376000012F2FEF4FEF6FEB46C187EEA8168DE5C7
:10377000B80609F4D0C020F5E3EEAE16EDE5BE06BE
:1037800009F4B8C078F422EEA2162DE5B20608F0CE
:1037900043C036E0C32E53E0E52E00E095012F58DC
:1037A00031403FC1F4018281F5EEAF16FDE5BF0661
:1037B00009F4ACC008F4A5C08823A9F184E031C0A5
:1037C0003BEEA3163DE5B30609F4D7C090F4F4012F
:1037D0008281F9EEAF16FDE5BF0609F4BBC008F41F
:1037E000A1C0882301F181E080935E0210925F0204
:1037F0001AC03DEEA3163DE5B30609F4D1C008F4A6
:10380000C4C052E5A51652E7B50609F0E2CE012F75
:103810002FEF4FEF60E0EFC0F4018281882319F0B1
:1038200080E00E94B919F4019281992309F4A5C797
:103830001092EE04F4E0AF16FDE5BF0608F0E5C314
:103840002BEFA2162CE5B20638F4950122503C4528
:103850002431310508F0DFC30E944B189093A80271
:103860008093A70240E1A4164CE5B40609F4CEC447
:1038700008F03CC488E0A8168CE5B80609F4B4C486
:1038800008F008C4E4E0AE16ECE5BE0609F49EC4F8
:1038900008F0EAC322E0A2162CE5B20609F490C4AF
:1038A0008091A702826033E0A3163CE5B30609F4D9
:1038B0008AC46091A7021091A80284E090E00E945F
:1038C0001D32612F82E290E00E941D320F900F9016
:1038D0000F900F900F90DF91CF911F910F91FF905C
:1038E000EF90DF90CF90BF90AF909F908F907F90A0
:1038F0000C947A15F4018281882309F494CF81E035
:1039000090CF882309F48FCF82E08BCF882309F4EE
:103910008ACF83E086CFF4018281882309F483CFA4
:1039200085E07FCF882309F47ECF9091C502892F4F
:103930008E7F90FF81608093C5024091C5025091B7
:10394000C6026091C7027091C80283E190E00E94B4
:103950002F3269CF882309F466CF809160028823D3
:1039600029F010926002109261025DCF81E0809395
:10397000600282E08093610256CFF4018281882345
:1039800009F451CF10925E0231CFF4018281882375
:1039900009F449CF10925E0281E080935F0243CF29
:1039A000F4018281882309F43ECF8091000191E0E7
:1039B00089278093000137CF0E949107402F6CE048
:1039C0006D0D872DB3CEDF1639F0402F6D2D872D6D
:1039D000CC2031F00E947F078FEFF7018083AACEC1
:1039E0000E947F076CE06D0D402F872DF3CF012FD4
:1039F0002FEF4FEF65E5C4010E949F13EACD012F21
:103A00002FEF4FEF6CE1F7CF012F2FEF4FEF6BE26E
:103A1000F2CFA7E0CA2EB4E0EB2E00E095012B56C2
:103A20003140B401809160020E94BD0C612FC4013D
:103A30000E94B313CECDE7E0CE2EF3E0EF2E00E0F0
:103A4000950127573140EDCF6AE0C62E77E0E72E8B
:103A500004E0950123583140E4CF80915F02882330
:103A600081F0209100014CE0B401C5010E940F0DCE
:103A7000012F2FEF4FEF60E0C4010E949F130F2D25
:103A8000C7CE80915E02882399F02091000144EF17
:103A9000B401C5010E940F0D012F2FEF4FEF60E819
:103AA000C4010E949F130F2D2FEF4FEF60E8A3CFAB
:103AB000012F2AED4AED6EE1C4010E949F130F2DE4
:103AC0002AED4AED6EE197CFE1E8AE16ECE5BE06D1
:103AD00009F448C1F2E8AF16FCE5BF0609F0A3CD32
:103AE000F4018281882309F40FCD80917305982F0A
:103AF0009F70993008F008CD9F5F40C12DE9A21654
:103B00002CE5B206D0F532E9A3163CE5B30608F081
:103B10005DC140E9A4164CE5B40609F443C151E97E
:103B2000A5165CE5B50609F07ECDF40182818823F7
:103B300009F4EACC20917305822F859585958595AA
:103B4000859586300CF0E0CC91E0980F9295907FAF
:103B50009595959595959595392F3295307F2F7040
:103B6000232B2093730518160CF0CECC97FFCCCCEA
:103B70008295807F922F9F7003C18DE9A8168CE5F6
:103B8000B80609F437C19EE9A9169CE5B90609F003
:103B90004ACDF4018281882309F4B6CC8091740562
:103BA000982F9F779F3709F4AFCC933708F03AC12D
:103BB000935F9F77807834C1E5EBAE16ECE5BE06E7
:103BC00009F49FC108F03EC021EBA2162CE5B20615
:103BD00009F45EC1F8F44FEAA4164CE5B40609F402
:103BE00038C150EBA5165CE5B50609F01CCDF40113
:103BF0008281882309F488CC20917405322F331FE9
:103C00003327331F90917505892F8770880F832B79
:103C10008F5F31C1F4012281809174059091750507
:103C2000F3EBAF16FCE5BF0609F457C108F05FC11E
:103C300040E021114FE7881F8827881F9770990F50
:103C400060E436C148EBA4164CE5B40609F46BC138
:103C5000A0F486EBA8168CE5B80609F452C197EBE0
:103C6000A9169CE5B90609F0DECCF4018281811128
:103C700058C18FEF8093020347CCEAEBAE16ECE518
:103C8000BE0609F488C108F470C12BEBA2162CE51E
:103C9000B20609F0C8CC80917405982F991F992716
:103CA000991F809175058770880F892BF401928187
:103CB0006FEF7FE1911182C17FC1E6EFAE16ECE5B7
:103CC000BE0609F49BC108F495C127EFA2162CE5A6
:103CD000B20609F0A8CD27E245EE66EEC1CC009110
:103CE0007405802F881F8827881F1091750517700D
:103CF000110F182B0F7781ED8A0D90E0AC014C5F0E
:103D00005C4F7A01FA016081F4018281882379F0A5
:103D10006F3F09F0F9CBC5010E94AE0CD82E402FA1
:103D2000682F812F0E949107F701D082EDCB6F3F62
:103D300021F0402F812F0E947F078FEFF7018083B2
:103D4000E3CBF4018281882309F4DECBF9E8AF0EDE
:103D50002A2D2F70A22E80917305807FA82AA09211
:103D60007305D2CBF4018281882309F4CDCB8091F5
:103D70007305982F9F7009F4C7CB915F9F70807F68
:103D8000892B80937305C0CBF4018281882309F4C9
:103D9000BBCBF7E7AF0EA29420EFA2228091730570
:103DA0008F70DCCFF4018281882309F4ADCB809140
:103DB0007305982F95959595959595959B3F0CF442
:103DC000A3CB915F9295907F8F70DACFF4018281BF
:103DD000882309F499CBFEE6AF0E8CE0A89EA02CB8
:103DE0001124E894A7F8809174058078A82AA092FD
:103DF00074058ACBF4018281882309F485CB8091F4
:103E00007405982F9F7709F47FCB80789F3721F432
:103E100085678093740578CB9D30D8F39D509F774C
:103E2000892BF7CF8F67F5CFF4018281882309F4BE
:103E30006BCBF1E6AF0E80917405A0FA87F9809301
:103E400074058A2D8695877090917505987F892BCA
:103E500089C0F4018281882309F456CB209174052E
:103E6000322F331F3327331F90917505892F8770A9
:103E7000880F832B815F382F3F7080FB27F92093B9
:103E80007405832F8695987F982B909375053CCB6E
:103E9000F4018281882309F437CB90917405991F2E
:103EA0009927991F809175058770880F40E06BE70F
:103EB000892B0F900F900F900F900F90DF91CF9163
:103EC0001F910F91FF90EF90DF90CF90BF90AF9038
:103ED0009F908F907F900C94BC0740E021114FE79A
:103EE000881F8827881F9770990F61E4E1CF40E011
:103EF00021114FE7881F8827881F9770990F62E468
:103F0000D7CFF401828140E081114FE79091740591
:103F1000991F9927991F809175058770880F63E411
:103F2000C7CF81E0A7CEF4018281882309F4ECCACF
:103F300090917505292F2695269526952F7081E05D
:103F4000820F8F70880F880F880F9778892B809346
:103F50007505982F987709F0D7CA220F220F220FE4
:103F60008778822B80937505CFCAF40182818823DC
:103F700009F4CACA80917505982F987709F4C4CAC4
:103F8000982F969596959695915F9F70990F990F9A
:103F9000990F87785CCF80917405982F991F992786
:103FA000991F809175058770880F892BF401928184
:103FB00060E070EE911102C070E060E00F900F9031
:103FC0000F900F900F90DF91CF911F910F91FF9065
:103FD000EF90DF90CF90BF90AF909F908F907F90A9
:103FE0000C94A30727E245EE65EE3ACB26E241EEBC
:103FF00060EE36CB27E245EE64EE32CB26E241EEB0
:1040000062EE2ECB28E241E0EFCF32E6A3163DE58B
:10401000B30609F421CC46E1A4164CE5B40609F038
:10402000C5C380915D028A7A91E009F490E0909393
:10403000D70169E2811165E38EEC91E00E94A10B4A
:104040000F900F900F900F900F90DF91CF911F91D5
:104050000F91FF90EF90DF90CF90BF90AF909F9027
:104060008F907F900C942E0F8091A702806146E084
:10407000A4164CE5B40609F4A6C08091A702886096
:1040800057E0A5165CE5B50608F49DC08091A7022F
:10409000806299C08CE0A8168CE5B80609F4AEC021
:1040A00078F48091A7028C60EAE0AE16ECE5BE06DB
:1040B00009F489C008F49CC08091A7028E7F83C058
:1040C0008091A702877F2EE0A2162CE5B20609F4A4
:1040D0007AC08091A7028B7F3FE0A3163CE5B30630
:1040E00008F471C08091A7028F7E6DC04DEFA416B9
:1040F0004CE5B40609F486C0A0F584E1A8168CE569
:10410000B80609F497C098F4E2E1AE16ECE5BE06F5
:1041100009F480C08091A7028F7BF3E1AF16FCE524
:10412000BF0608F450C08091A702837F4CC02BEFDC
:10413000A2162CE5B20609F44DC008F051C045E1C5
:10414000A4164CE5B40609F0B4CB8091A70282FB1B
:10415000992790F921E0922790FB82F990FB83F94F
:1041600032C051E0A5165DE5B50609F459C098F4D2
:104170008091A80283609FEFA9169CE5B90669F1BA
:104180008091A8028D7FA114EDE5BE0630F18091EB
:10419000A8028C7F22C0F3E0AF16FDE5BF0609F44C
:1041A00058C008F450C032E6A3163DE5B30609F046
:1041B00080CB9091A702892F8F7E94FF806103C0EE
:1041C0008091A70281608093A70273CB8091A702A0
:1041D0008460F9CF8091A80281608093A80269CBA6
:1041E0008091A8028260F9CF8091A7028064EBCF12
:1041F0000E947A158091A7028068E5CF8091A7027E
:104200008D7FE1CF8091A8028E7FE7CF8091A702BA
:104210008F7DD9CF0E947A158091A7028F77D3CF57
:104220008091A802982F909591708E7F892B90FB9A
:1042300081F9D3CF0E947A159091A702892F97FB1D
:1042400087F98058C0CF61E08EE090E00E941D3277
:1042500030CB60E0F9CF85E39BC281608093C204DC
:1042600061E086950F900F900F900F900F90DF9167
:10427000CF911F910F91FF90EF90DF90CF90BF9063
:10428000AF909F908F907F900C94AD144DE555E1C9
:1042900066E675E10F900F900F900F900F90DF91F1
:1042A000CF911F910F91FF90EF90DF90CF90BF9033
:1042B000AF909F908F907F900C94FD0B46E655E158
:1042C0006DE575E1E7CF49E754E162E874E1E2CFDB
:1042D00041E654E16DE674E1DDCF49E454E165E582
:1042E00074E1D8CF61E081E0BDCF0E947A15EFEF95
:1042F000F4E32CE0E150F0402040E1F700C0000082
:1043000087E797E7909301088093000888E19AE097
:104310000FB6F894A895809360000FBE909360004C
:10432000FFCF0F900F900F900F900F90DF91CF91D4
:104330001F910F91FF90EF90DF90CF90BF90AF90C3
:104340009F908F907F900C94D519902F0E94C10F51
:10435000F82E47C2092F0F70907F11F00295007F51
:10436000812F2223C9F0002369F090E2910F983049
:1043700010F011110BC080915D02082B00935D02BB
:104380000E942E0F812F0E94A21017C080915C0204
:10439000082B00935C02F4CF0E946910002369F09F
:1043A0000095105E183010F0F11030C080915D0261
:1043B000082300935D020E942E0F98E0A91AB1080D
:1043C000E4E0AE16B10410F40E947A1285E0F40124
:1043D000DE01119601900D928A95E1F789819A810B
:1043E0000E94C10F9A81E981F0E02AE0929FE00DDE
:1043F000F11D112438E7839FE00DF11D1124EE0F0C
:10440000FF1FE45CFD4F859194917EC880915C0212
:10441000082300935C02CFCF892F8F70907F90325A
:1044200011F08295807FF1E0FF120EC0222331F05F
:10443000363008F0C2CF0E945F10BFCF353008F091
:10444000BCCF0E945410B9CF222341F0332399F3FB
:1044500040FF98CF4F70F4014583EDCF332389F3AC
:10446000193309F06FC1FFEF27EE33E0F150204020
:104470003040E1F700C00000812F0E9469109DCFFD
:10448000892F86958695837061F0813009F095CFEC
:10449000812F9370211102C090E080E00E94BB0B3D
:1044A0008CCF812F9370211102C090E080E00E9498
:1044B000D10B83CF892F837009F065C021117DCF87
:1044C000812F829586958770880F880F612F6F7076
:1044D000C62ED12CF12CE12C082E04C0CC0CDD1CF6
:1044E000EE1CFF1C0A94D2F740E050E0BA0114FF22
:1044F0000FC04FE050E060E070E004C0440F551F73
:10450000661F771F8A95D2F74095509560957095F4
:10451000969596959370923019F1D8F400916202B5
:10452000109163022091640230916502913069F02C
:104530004C295D296E297F29CB01BA0160237123A3
:10454000822393230E944A1038CFC02AD12AE22A1C
:10455000F32ACB01BA016C297D298E299F29F2CF3C
:104560004C295D296E297F29009162021091630216
:104570002091640230916502CB01BA016027712756
:1045800082279327DFCF8695222311F0892F817010
:10459000882309F412CF812F829586958770880F22
:1045A000880F612F6F70C62ED12CF12CE12C082EB4
:1045B00004C0CC0CDD1CEE1CFF1C0A94D2F740E0BA
:1045C00050E0BA0114FF0FC04FE050E060E070E02F
:1045D00004C0440F551F661F771F8A95D2F7409578
:1045E000509560957095969596959370923019F1C7
:1045F000D8F40091A3021091A4022091A502309159
:10460000A602913069F04C295D296E297F29CB01E2
:10461000BA0160237123822393230E940D15CDCE0E
:10462000C02AD12AE22AF32ACB01BA016C297D29BA
:104630008E299F29F2CF4C295D296E297F2900916F
:10464000A3021091A4022091A5023091A602CB01F1
:10465000BA016027712782279327DFCF092F0F70B8
:10466000222329F0802F0E943C15812FE4CE812F38
:104670000E945410802F0E9419159FCE812FE1EFC8
:104680001E1709F442C0E11758F0F0EF1F17F1F0C0
:10469000222309F44BC0311175CE892F8F713AC096
:1046A00042EF1417D1F153EF1513F2CF2223D1F1BA
:1046B000292F2F7161E070E080E090E004C0660F68
:1046C000771F881F991F2A95D2F7A7CF2223C9F0F9
:1046D000353008F072CE292F2F7161E070E080E054
:1046E00090E004C0660F771F881F991F2A95D2F7A4
:1046F0000091A3021091A4022091A5023091A6027C
:10470000A8CF363008F059CEE6CF892F8F712223FB
:1047100009F4B1CF0E943C1550CE892F8F7122230E
:10472000C9F3A9CF60E070E0CB0177CF332379F0F4
:10473000893341F48FEF97EEE3E081509040E04001
:10474000E1F798CE8FE39CE90197F1F793CE892F9B
:104750008F7191CF85E0DE01119601900D928A95BF
:10476000E1F7F401228189819A8121110C94971A31
:104770000E94C10F082F0C949F1AF6E1AF16FCE5BA
:10478000BF0609F057C08091D701811164CD89E23D
:10479000E0EDF1E026ED31E09191891303C0DF01F6
:1047A00011971C922E173F07B9F74ACCA1142CE59C
:1047B000B20609F49ACD3FEDA3163CE5B30609F421
:1047C000B0CDF40110810181812F992309F4BDCD71
:1047D000902F0E944F0FF82E682F812F902F0E944C
:1047E000E90FE12FF0E02AE0029FE00DF11D112416
:1047F00038E7F39EE00DF11D1124EE0FFF1FE45C7E
:10480000FD4F859194910E94C40D182FF82EF4014C
:1048100022814581342F32953F70892F82958F7088
:10482000A82EB12C8C3008F0C8CDF501E559FD4C0F
:104830000C94E43180915D0282724AECA4164CE53E
:10484000B40609F44ACD08F058C0E6ECAE16ECE523
:10485000BE0609F438CDE0F524ECA2162CE5B2062C
:1048600009F414CD08F02ACD43ECA4164CE5B406A7
:1048700009F0A7CF8091C20480FFEFCC8E7F809398
:10488000C2046091C2047091C3048091C4049091E9
:10489000C5040E94E1135FEF80E792E05150804031
:1048A0009040E1F700C000000F900F900F900F9024
:1048B0000F90DF91CF911F910F91FF90EF90DF90BC
:1048C000CF90BF90AF909F908F907F900C948A1262
:1048D00058ECA5165CE5B50609F4FACC42E854E1BB
:1048E00069E774E199ECA9169CE5B90608F4D2CC05
:1048F0004DE654E161E674E1CDCCEEECAE16ECE5AC
:10490000BE0609F4EFCCC8F44BE854E16CE974E15D
:104910002CECA2162CE5B20609F4BCCC45E554E11A
:1049200069E474E13DECA3163CE5B30608F4B2CCAF
:104930004CE954E16BE874E1ADCC47EDA4164CE5CD
:10494000B40610F40C94841A5EE5A5165DE5B50670
:1049500011F40C94841A35CF1F93CF93DF93809179
:104960002802807FA9F480912502882389F0809114
:104970005A02D09129026091230270912402A091E1
:104980002602B0912702C62FC72316E0D81304C011
:10499000DF91CF911F91089590E0109711F0CF3FD4
:1049A00019F401968770F2CF189F9001199F300D6E
:1049B0001124F901E65DFD4F41814713F2CF40819B
:1049C0004613EFCF42814111ECCF438154814A1B02
:1049D0005B0B483C510528F7809128028F7080615D
:1049E00080932802F901E15DFD4F80818F70806125
:1049F000808383E292E00E94641ADF91CF911F913D
:104A00000C94450FAF92BF92CF92DF92EF92FF923C
:104A10000F931F93CF93DF93CDB7DEB761970FB698
:104A2000F894DEBF0FBECDBF8C0185E0F801DE013A
:104A30001D9601900D928A95E1F7F801E28083E2DC
:104A4000A82E82E0B82E609126027091270261158F
:104A5000710509F432C19091230240912402892FFB
:104A600084238F3F09F429C120813181C380D48000
:104A7000F0902502F601E61BF70BFF2009F4E8C0D1
:104A800080912802582F507FE83CF10508F0ABC018
:104A9000511177C0FE2C431321C092131FC0E110A7
:104AA0001DC08F70806180932802C5010E94641A26
:104AB00080912802F80185838F2D61960FB6F894B6
:104AC000DEBF0FBECDBFDF91CF911F910F91FF9041
:104AD000EF90DF90CF90BF90AF900895CD2829F050
:104AE000822F83238F3F09F003C180E0F82FF170FC
:104AF000DF2E80FF3CC080915A024091290256E08F
:104B0000841315C02D873E878D859E850E94A60F34
:104B1000292F22952F702230F0F0243018F59F7045
:104B2000F1F0F8019581907FD1F4D12C1EC090E076
:104B3000589FF001599FF00D1124E65DFD4F6181F2
:104B4000361306C06081261303C06281E6120FC0CF
:104B500001968770D5CF9F7011F0882331F3805E66
:104B6000883018F3C8010E94641AFD2CA5CFEE20EE
:104B700009F4A2CF80912802816080932802F12C51
:104B80009BCF431306C0921304C0F801EE2009F432
:104B900079C0C8010E941510882309F1EE20F9F0B0
:104BA00080912802803270F02091230230912402FB
:104BB00038872F831986DB86CA868C87CE010796B5
:104BC0000E94641A86E0F801A3E2B2E001900D921F
:104BD0008A95E1F70E94AC24FF24F3946DCFC801BD
:104BE0000E94641AF9CF51110AC083E292E00E9438
:104BF000641A86E0F50111928A95E9F7C0CF431354
:104C00000FC092130DC0E1100BC0F8018583C801DD
:104C10000E94641A86E0F50111928A95E9F74CCF5B
:104C2000C8010E9415108823D1F2EE20C1F28091B4
:104C30002802803238F220912302309124023A83F4
:104C400029831B82DD82CC828E83CE010196B8CF70
:104C5000E83CF105F8F6FE2CEE2009F243131FC0E4
:104C600092131DC08091280280FD10C0982F907F64
:104C700069F0F8018583903F31F0982F907F905F25
:104C80008F70892B8583C8010E94641A86E0F80121
:104C9000A3E2B2E001900D928A95E1F70DCFC80131
:104CA0000E94151081118ECF80912802816080931F
:104CB0002802C8010E94641AFFCEEE2009F48FCFAB
:104CC000C8010E941510F82E882309F488CF86E0C9
:104CD000F801A3E2B2E001900D928A95E1F780918C
:104CE0002302909124020E94A60F0E94AC24E4CEDD
:104CF00081E08E25FBCE1F93CF93DF93CDB7DEB738
:104D000067970FB6F894DEBF0FBECDBF4B8B5C8BA1
:104D10006D8B7E8B8F8B611110925C021A8A198ABF
:104D200085E0FE017396DE011D9601900D928A9535
:104D3000E1F786E0FE013D96DE01179601900D92A7
:104D40008A95E1F7CE0107960E940225882389F013
:104D500016E080915A0290912902891349C0679602
:104D60000FB6F894DEBF0FBECDBFDF91CF911F917C
:104D7000089586E0FE013796DE01119601900D92AE
:104D80008A95E1F78A859B85892B11F38F81988518
:104D900089238F3FE9F22091290230E0C901019671
:104DA0008770992740915A024817190671F40E949A
:104DB0007A151092290210925A0286E0E3E2F2E09C
:104DC000DF011D928A95E9F7C3CF96E0929FD0014B
:104DD000939FB00D1124A65DBD4FFE013196019049
:104DE0000D929A95E1F7809329020E94450FB0CF6A
:104DF000819FC0011124865D9D4F0E94022588235A
:104E000009F4ADCF80915A0290E0019687709927FE
:104E100080935A029ECF8F929F92AF92BF92CF9271
:104E2000DF92EF92FF920F931F93CF93DF93CDB753
:104E3000DEB7A9970FB6F894DEBF0FBECDBF8E01C7
:104E40000F5F1F4F88E1D8011D928A95E9F77DE336
:104E5000E72E71E0F72E6801AA24A394B12CF70184
:104E600081917F018F3F09F447C0F894E82FE295C4
:104E7000EF70F0E021A18F70A50102C0440F551F13
:104E80008A95E2F7CA01922F982B91A392A180955F
:104E9000892382A30E94680D00C0E3E3F1E021E0D2
:104EA00030E0912C812C41914F3F09F47FC0A42F19
:104EB000A295AF70B0E090968C9190E04F7002C0D8
:104EC000959587954A95E2F780FD70C0C901882ABB
:104ED000992A220F331F51E0ED33F50721F7F7012F
:104EE000319780818F3F11F00E946A0D80EA8A9588
:104EF000F1F7D6018D929C92B2E0CB0ED11CE3E487
:104F0000EE16E1E0FE0609F0AACF48E150E0B80154
:104F100089EA92E00E94F3317C01892B41F088E11B
:104F2000F801A9EAB2E001900D928A95E1F710919B
:104F3000C202E114F104E9F181E0809368020E9469
:104F4000950B909367028093660280916602909120
:104F500067020E947A0B059790F0A9EAB2E0E12F70
:104F6000F0E0EE0FFF1FE753FD4F8D919D91819370
:104F7000919322E0A53BB207C1F71092680281E04D
:104F800090E0EF28D1F0A9960FB6F894DEBF0FBEDF
:104F9000CDBFDF91CF911F910F91FF90EF90DF90E8
:104FA000CF90BF90AF909F908F90089590E080E059
:104FB0008ECF809168028111C8CF0E945712D82EDF
:104FC000E091C202AE01475E5F4F7A01882309F487
:104FD000A4C08CE0DA011D928A95E9F70E2F10E04B
:104FE000000F111F07531D4F80919E028A3008F059
:104FF0005CC048E759E1B701C8010E941312882339
:1050000009F477C048E259E2B701C8010E941312BF
:10501000882309F46EC049E558E1B701C8010E9430
:105020001312882309F465C010929E028091C10278
:1050300090E0880F991F4CE050E0B70187539D4FD7
:105040000E94F33121E020937102892B09F042C0C4
:10505000D12C9BE6E92E92E0F92E10E000E0D7017A
:105060008D917D018823D1F08695F80109F452C015
:10507000EC55FE4F808191819EA38DA31FA20E94BB
:10508000950B8160782F99A788A7F7013197108237
:105090004DA15EA16FA189A50E947B260E5F1F4FC7
:1050A00004301105E1F68D2D6ECF8091690290914B
:1050B0006A020E947A0B843F914008F09ACF809157
:1050C0007102882329F28CE0F70111928A95E9F7A1
:1050D00010927102A091C102B0E0AA0FBB1FA753AA
:1050E000BD4F8CE0FE01799601900D928A95E1F713
:1050F000B0CF80919E028F3F31F08F5F80939E02F0
:105100008A3008F493CF0E94950B90936A028093A3
:105110006902D5CFE056FE4FADCFF0E0EE0FFF1F96
:10512000E753FD4FF8948CE0A8E8B2E001900D92AF
:105130008A95E1F76CE070E088E892E00E94E70B66
:10514000809387020E94680DF894E091E402F0E0F9
:10515000EF51FD4F8081898F8093950261E070E06F
:10516000C7010E94E70B809394020E94680DF89497
:10517000C0909602D0909702E0909802F090990229
:1051800080916D0290916E02A0916F02B0917002B9
:10519000C816D906EA06FB06D1F0C0926D02D0927D
:1051A0006E02E0926F02F09270020E94571281111B
:1051B0000EC00E94890BC61AD70AE80AF90AC092E3
:1051C0009F02D092A002E092A102F092A2020E945D
:1051D000680D80E0D8CEEF92FF920F931F93CF938C
:1051E000DF9300D000D00F92CDB7DEB7162FE82E98
:1051F000F12CC701880F991F662339F18C559E4FFA
:10520000FC01808191819A83898301E00B830E9454
:10521000950B8160782F9D838C83F701E559FD4FB5
:105220000127110F102B108349815A816B818D81C9
:105230000F900F900F900F900F90DF91CF911F91D3
:105240000F91FF90EF900C947B2680569E4FD8CF05
:10525000CF92DF92EF92FF920F931F93CF93DF9342
:105260000F92CDB7DEB7EE24E394F12C05E912E0FE
:105270009E012F5F3F4F43E852E063E082E00E94CF
:10528000C918082F882321F1C090C4028C2D90E00A
:105290009C012F513D4F79011981F9018081181B23
:1052A000D12E80E00AC0DA94F70180818F5F80837D
:1052B00060E08C2D0E94EB28802F1D14A4F3912F09
:1052C00017FD90E0191B11110EC081110E942C0FC7
:1052D000802F0F90DF91CF911F910F91FF90EF9052
:1052E000DF90CF9008951F5FF70180818150808308
:1052F00061E08C2D0E94EB28802FE5CF1F920F924A
:105300000FB60F9211242F933F934F935F936F9398
:105310007F938F939F93AF93BF93CF93DF93EF933D
:10532000FF93D091E900DF708091EC00C82FC1702D
:1053300080FDC0E81092E9008091F000877F8093A3
:10534000F00078940E9485151092E9008091F00099
:1053500088608093F000CD2BCF70C093E900FF915F
:10536000EF91DF91CF91BF91AF919F918F917F91FD
:105370006F915F914F913F912F910F900FBE0F90C2
:105380001F9018951F920F920FB60F9211242F9312
:105390003F934F935F936F937F938F939F93AF93BD
:1053A000BF93EF93FF938091E10082FF09C080914A
:1053B000E20082FF05C08091E1008B7F8093E100D5
:1053C0008091DA0080FF24C08091D80080FF20C047
:1053D0008091DA008E7F8093DA008091D90080FF7F
:1053E0009DC080E189BD82E189BD09B400FEFDCF89
:1053F00081E08093E2048091D504811109C00E946C
:10540000BF080E948A098091E20084608093E200D4
:105410008091E10080FF17C08091E20080FF13C0FF
:105420008091E2008E7F8093E2008091E2008061B3
:105430008093E2008091D80080628093D80019BCEC
:1054400085E08093E2048091E10084FF2BC080918D
:10545000E20084FF27C080E189BD82E189BD89B572
:10546000982F917080FFFBCF8091D8008F7D809323
:10547000D8008091E1008F7E8093E1008091E2006E
:105480008F7E8093E2008091E20081608093E20051
:105490008091E304882309F447C084E08093E20408
:1054A0008091E2048091E10083FF27C08091E200B7
:1054B00083FF23C08091E100877F8093E10082E039
:1054C0008093E2041092E3048091E1008E7F809348
:1054D000E1008091E2008E7F8093E2008091E20003
:1054E00080618093E20042E060E080E00E94580921
:1054F0008091F00088608093F000FF91EF91BF9160
:10550000AF919F918F917F916F915F914F913F915B
:105510002F910F900FBE0F901F90189519BC1092ED
:10552000E2041092D50474CF8091E30087FD93E0EC
:105530009093E204B5CF78941F921FB61F92112466
:105540008F939F93AF93BF938091CE049091CF049C
:10555000A091D004B091D1040196A11DB11D8093FA
:10556000CE049093CF04A093D004B093D104BF9104
:10557000AF919F918F911F901FBE1F9018951F9202
:105580001FB61F9211248F939F93AF93BF93809167
:10559000CD04811113C08091CE049091CF04A091CD
:1055A000D004B091D1044196A11DB11D8093CE04C9
:1055B0009093CF04A093D004B093D104BF91AF9146
:1055C0009F918F911F901FBE1F901895CDB7DEB78A
:1055D00066970FB6F894DEBF0FBECDBF0E94490D8F
:1055E00010929C0510929E0510929D0580EC809370
:1055F00061068FE995E090936306809362061092AE
:10560000600610925F0610927C0510927B05109246
:105610007E0510927D051092800510927F051092F4
:1056200082051092810510928405109283051092D4
:1056300086051092850510928805109287051092B4
:105640008A051092890510928C0510928B05109294
:105650008E0510928D051092900510928F05109274
:1056600092051092910510929605109295058FE182
:105670009BE0909378058093770583E79AE0909379
:105680009805809397058FE49AE090939405809312
:1056900093058EE49AE090937A058093790584B718
:1056A000877F84BF0FB6F894A895809160008861C9
:1056B00080936000109260000FBE80E890E00FB60B
:1056C000F89480936100909361000FBE85B7806865
:1056D00085BF85B7806885BF86E69DE09093CD0144
:1056E0008093CC010E94BF080E948A098091E20049
:1056F00084608093E20078948091E2048823A1F092
:105700001091E9001F709091EC00892F817090FD3D
:1057100080E8182B1092E9008091E80083FD0E9438
:1057200085151F701093E90082E084BD93E095BD5C
:105730009AEF97BD80936E0010929F021092A00284
:105740001092A1021092A2020E94571291E08927A2
:10575000809349010E94571281110E94FB2F809172
:105760004901811130C0FE01379686E0DF011D92AC
:105770008A95E9F781E9898380E98A8384E98B83C3
:1057800086E68C8387E98D8386EC8E833697ADE33E
:10579000B1E0CE010D9621912D938E179F07D9F779
:1057A0002AE0E5E6F1E0DE011D9601900D922A95D2
:1057B000E1F7FC01A3E3B1E0CE01479621912D93DF
:1057C0008E179F07D9F78091490196E0811190E0EB
:1057D0009093C20286E0891B8093C1020DE311E021
:1057E000A3E4EA2EA1E0FA2EF80181918F018F3F08
:1057F00011F00E946A0DE016F106B1F703E311E023
:10580000FDE3EF2EF1E0FF2ED8018D918D018F3F4A
:1058100011F00E946A0DE016F106B1F788E1E9EC9B
:10582000F2E0DF01282F1D922A95E9F7E9EAF2E07C
:10583000DF011D928A95E9F790E080E00E9417321F
:10584000893E9E4F11F00E94D51982E090E00E949F
:1058500009328093E7020E944B189093A80280932C
:10586000A70283E090E00E940932682F70E090E088
:1058700080E00E944A106091A3027091A40280917E
:10588000A5029091A6020E94E9140E94571281116C
:1058900002C00E94FE2F8091C302811134C090E0AB
:1058A00080E00E941732893E9E4F21F00E94D51958
:1058B0000E946A1588E090E00E9411326093C20451
:1058C0007093C3048093C4049093C5046E7F71F4F5
:1058D0000E946A1588E090E00E9411326093C20431
:1058E0007093C3048093C4049093C5040E94020C77
:1058F0008091C20480FF04C060E086950E94AD14D0
:1059000081E08093C30280914901811106C084E344
:105910008093570186E38093560120915701A22F6F
:10592000A295AF70B0E091963C9191972F7081E075
:1059300090E0BC01022E01C0660F0A94EAF7462FE0
:105940004095432391964C93919792963C919297D0
:10595000362B92963C93929740915601E42FE29514
:10596000EF70F0E031A14F70042E01C0880F0A944F
:10597000EAF7982F9095932391A392A1892B82A364
:1059800090968C9190E002C0959587952A95E2F7C4
:10599000817020A130E002C0359527954A95E2F745
:1059A00092E020FF90E0892B8093E50290914901DD
:1059B00081E098279093E402891B8093C402809130
:1059C0007305807F82608093730580917405807871
:1059D000856780937405E7E3F5E083E795E02FEFB3
:1059E00021938E179F07E1F7EFEEF4E087E395E050
:1059F0002FEF21938E179F07E1F783E190E00E943C
:105A000011326093C5027093C6028093C7029093CF
:105A1000C8028CE99BE09093500380934F0321E0F0
:105A200040E060E080E00E94F3138AE491E090930C
:105A3000CA048093C90458E1452E512C61EE662EAC
:105A400062E0762E73E0872E912CAA24A394B12CC9
:105A50008091E20400E112E1853009F46DC10E94F9
:105A60000B2781110E94890BA9ECB2E0E8EEF2E06D
:105A700010E000E0202ECD90DD90819191918C1569
:105A80009D0509F469C18C259D25312CEE24E394F4
:105A9000F12C9C012E213F21232B09F457C10E9498
:105AA00057128823A9F039822A82CE20DF2081E094
:105AB000CD2809F480E08B830E94950B8160782FBC
:105AC0009D838C8349815A816B818D810E947B26C5
:105AD000000F111FF801E851FD4F80819181E826E8
