:100000000C9425070C946C070C946C070C946618E0
:100010000C946C070C946C070C946C070C946C0794
:100020000C946C070C946C070C94AA2E0C947D2FE6
:100030000C947B250C946C070C946C070C946C0747
:100040000C946C070C946C070C946C070C946C0764
:100050000C946C070C94C6250C946C070C946C07DC
:100060000C946C070C946C070C946C070C946C0744
:100070000C946C070C946C070C946C070C946C0734
:100080000C946C070C946C070C946C070C946C0724
:100090000C946C070C946C070C946C070C946C0714
:1000A0000C946C070C946C070C946C07B20007015D
:1000B000000000061CFFFF0B0100FFFF0C01000009
:1000C000FF0D010BB0FF18010000FF3C061CFFFFF5
:1000D0004A010BB0FF5501AAFFFF560180FFFF57F1
:1000E000016AFFFF580155FFFF590140FFFF600102
:1000F000EA80FF62061CFFFF6E0100FFFF70010B2C
:10010000B0FFFF00000000010A1CFFFF15021CFFEA
:10011000FF19031CFFFF1E051CFFFF25021CFFFF2C
:100120002D021CFFFF39021CFFFFFF000000002A08
:100130005D365D425D4E5D5A5D2F5D3B5D475D53B3
:100140005D5F5D315D3D5D495D555D615D345D4087
:100150005D4C5D585D645D2C5D385D445D505D5C5B
:100160005D2D5D395D455D515D5D5D335D3F5D4B91
:100170005D575D635D325D3E5D4A5D565D625D2E3D
:100180005D3A5D465D525D5E5D2B5D375D435D4F63
:100190005D5B5D295D355D415D4D5D595D305D3C6B
:1001A0005D485D545D605D4F5C525C555C585C5BC6
:1001B0005C5E5C615C0000000000004E5C515C54C1
:1001C0005C575C5A5C5D5C605C0000000000004DA8
:1001D0005C505C535C565C595C5C5C5F5C0000008E
:1001E0000000000000A849705C6D5C6A5C675C649C
:1001F0005C0000000000000000725C6F5C6C5C69D9
:100200005C665C635C0000000000000000715C6ED6
:100210005C6B5C685C655C625C0000000000000177
:1002200000010001000100010001000100010001C6
:1002300000010001000100010001000100010001B6
:1002400000010001000100010001000100010001A6
:100250000001000100010001000100010001000196
:100260000001000100010001000100010001000186
:100270000001000100010001000100010001000176
:100280000001000100010001000100010001000166
:1002900000010001000100505C535C565C595C5C3D
:1002A0005C5F5C625C0000000000004E5C515C54CE
:1002B0005C575C5A5C5D5C605C0000000000004FB5
:1002C0005C4F5C525C555C585C5B5C5E5C000000A3
:1002D00000000000000100715C6E5C6B5C685C6596
:1002E0005C0000000000000000725C6F5C6C5C69E8
:1002F0005C665C635C0000000000000000705C6DE8
:100300005C6A5C675C645C615C0000000000002E5D
:100310005D2A5D365D425D4E5D335D2F5D3B5D4721
:100320005D535D295D315D3D5D495D555D2C5D34FD
:100330005D405D4C5D585D305D2C5D385D445D50C9
:100340005D315D2D5D395D455D515D2B5D335D3FFB
:100350005D4B5D575D2A5D325D3E5D4A5D565D32A7
:100360005D2E5D3A5D465D525D2F5D2B5D375D43D1
:100370005D4F5D2D5D295D355D415D4D5D345D30C9
:100380005D3C5D485D545D4F5C525C555C585C5B08
:100390005C5E5C615C0000000000004E5C515C54DF
:1003A0005C575C5A5C5D5C605C0000000000004DC6
:1003B0005C505C535C565C595C5C5C5F5C000000AC
:1003C00000000000000100705C6D5C6A5C675C64AA
:1003D0005C0000000000000000725C6F5C6C5C69F7
:1003E0005C665C635C0000000000000000715C6EF5
:1003F0005C6B5C685C655C625C0000000000000097
:10040000000000000000002F5C485C4A5C4C5C4E21
:100410005C505C000000000000305C325C455C47D2
:100420005C495C4B5C4D5C00002F5C315C335C359F
:100430005C425C445C465C485C4A5C305C325C34E8
:100440005C365C385C3F5C415C435C455C475C33DC
:100450005C355C375C395C3B5C3C5C3E5C405C42E0
:100460005C445C365C385C3A5C3C5C3E5C395C3BD2
:100470005C3D5C3F5C415C4F5C525C555C585C5B36
:100480005C5E5C615C0000000000004E5C515C54EE
:100490005C575C5A5C5D5C605C0000000000004DD5
:1004A0005C505C535C565C595C5C5C5F5C000000BB
:1004B0000000000000A849705C6D5C6A5C675C64C9
:1004C0005C0000000000000000725C6F5C6C5C6906
:1004D0005C665C635C0000000000000000715C6E04
:1004E0005C6B5C685C655C625C0000000000003076
:1004F0005C315C325C335C345C465C475C485C4934
:100500005C4A5C325C335C345C355C365C445C4534
:100510005C465C475C485C345C355C365C375C3818
:100520005C425C435C445C455C465C365C375C38F2
:100530005C395C3A5C405C415C425C435C445C38E6
:100540005C395C3A5C3B5C3C5C3E5C3F5C405C41E3
:100550005C425C3A5C3B5C3C5C3D5C3E5C3C5C3DD4
:100560005C3E5C3F5C405C485C4A5C4C5C4E5C5072
:100570005C525C545C000000000000475C495C4B2E
:100580005C4D5C4F5C515C535C0000000000004718
:100590005C485C4A5C4C5C4E5C505C525C00000009
:1005A0000000000000A8495E5C5C5C5A5C585C5628
:1005B0005C00000000000000005F5C5D5C5B5C595B
:1005C0005C575C555C00000000000000005E5C5C55
:1005D0005C5A5C585C565C545C0000000000002EC5
:1005E0005D2A5D365D425D4E5D335D2F5D3B5D474F
:1005F0005D535D295D315D3D5D495D555D2C5D342B
:100600005D405D4C5D585D305D2C5D385D445D50F6
:100610005D315D2D5D395D455D515D2B5D335D3F28
:100620005D4B5D575D2A5D325D3E5D4A5D565D32D4
:100630005D2E5D3A5D465D525D2F5D2B5D375D43FE
:100640005D4F5D2D5D295D355D415D4D5D345D30F6
:100650005D3C5D485D545D705C6D5C6A5C675C64CC
:100660005C615C5E5C000000000000715C6E5C6BB5
:100670005C685C655C625C5F5C00000000000072AE
:100680005C6F5C6C5C695C665C635C605C00000079
:100690000000000000A8494F5C525C555C585C5B50
:1006A0005C00000000000000004D5C505C535C5694
:1006B0005C595C5C5C00000000000000004E5C5176
:1006C0005C545C575C5A5C5D5C00000000000016E6
:1006D0005C2B003900E100E0002A004C002800E516
:1006E000004F001E00140004001D00E3002700134B
:1006F000003300380051001F001A0016001B00E2F2
:1007000000260012000F00370050002000080007EC
:10071000000600914825000C000E0036000851210B
:10072000001500090019002C00240018000D00100D
:10073000006500220017000A0005002C0023001CA1
:10074000000B0011009000010001000100010001F8
:100750000001000100000000000000010001000194
:100760000001000100010001000000000000000184
:100770000001000100010001000100010000000073
:100780000000000000010001000100010001000163
:100790000000000000000000000100010001000155
:1007A0000001000100000000000000000001000145
:1007B000000100010001000100000000000000161F
:1007C0005C2B00E000E10039002A004C00280052B8
:1007D000724F001E00140004001D00E300270033C8
:1007E000001200380051001F001A0015001B00E223
:1007F0000026001C000C00370050002000090016E5
:100800000006009148250018000800360008512114
:10081000001300170019002C0024000F0011001015
:1008200000650022000A00070005002C0023000DCF
:10083000000B000E0090000100010001000100010A
:1008400000010001000000000000000100010001A3
:100850000001000100010001000000000000000193
:100860000001000100010001000100010000000082
:100870000000000000010001000100010001000172
:100880000000000000000000000100010001000164
:100890000001000100000000000000000001000154
:1008A0000001000100010001000000000000000143
:1008B0000001000100010001000100010001000130
:1008C0000001003A000000AA00BE00010043002E13
:1008D000003500300031003B000000A900BD0001E0
:1008E0000042002D004F002F0034003C000000A803
:1008F0000000000100410000005200000001003D26
:100900000000000000000001004000000051000055
:100910000001003E0000000000000001003F000058
:100920000050000000010001000100010001000171
:1009300000010001000000000000000100010001B2
:1009400000010001000100010000000000000001A2
:100950000001000100010001000100010000000091
:100960000000000000010001000100010001000181
:100970000000000000000000000100010001000173
:100980000001000100000000000000000001000163
:1009900000010001000100010000000000000065EE
:1009A0005D0652075200000000C35C00000000001A
:1009B000000000665D6B5D000000000000000000AC
:1009C00000000000000000675D0000000000000063
:1009D0000000000000000000000000685D00000052
:1009E000000000000000000000000000000000699E
:1009F0005D0000000000000000000000000000009A
:100A00000000006A5D00000000000000000000001F
:100A100000000000000000775C785C795C7A5C7B09
:100A20005C00000000000000000000655D665D677E
:100A30005D685D695D6A5D00000000000000000007
:100A40000000006B5D0000000000000000000000DE
:100A500000000000000100DF5C000000000000005A
:100A6000000000000000000000C35C000000000067
:100A70000000000000000000000000000000000076
:100A8000000000000000000000000000000000FF67
:100A9000FFFFFFFFFFFFFFFFFFFFFFFFFFFFFFFF66
:100AA000FFFFFFFFFFFFFFFFFFFFFFFFFFFFFFFF56
:100AB000FFFFFFFFFFFFFFFFFFFFFFFFFFFFFFFF46
:100AC000FFFFFFFFFFFFFFFFFFFFFFFFFFFFFFFF36
:100AD000FFFFFFFFFF3C3D3E3F404142FFFFFF481D
:100AE000494A4B4C4D4EFFFFFFFFFFFFFFFFFFFF4B
:100AF000FFFFFFFFFF4746454443FFFFFFFF5453FF
:100B00005251504FFFFFFF000C1824300B17232FBA
:100B10003B010D1925310A16222E3A020E1A2632F1
:100B20000915212D39030F1B27330814202C3804F5
:100B3000101C283407131F2B3705111D29350612E9
:100B40001E2A3655565758595A5BFFFFFF62636499
:100B500065666768FFFFFFFF6F7071727374FFFF58
:100B6000FFFF61605F5E5D5CFFFFFFFF6E6D6C6BA2
:100B70006A69FFFFFFFF7A7978777675FFFFFF3CA0
:100B80003D3E3F40414243444546476154535251E4
:100B9000504F4E4D4C4B4A494855565758595A5B41
:100BA0005C5D5E5F606E6D6C6B6A696867666564EC
:100BB00063626F707172737475767778797A0B0AE5
:100BC000090807060504030201000C0D0E0F1011A1
:100BD000121314151617232221201F1E1D1C1B1A69
:100BE00019182425262728292A2B2C2D2E2F3B3A6D
:100BF00039383736353433323130000101010101E3
:100C000001010101020202020202020202030303C5
:100C10000303030303040404040404040505050595
:100C20000506060606060707070707080808080955
:100C30000909090A0A0A0B0B0B0C0C0C0D0D0D0E01
:100C40000E0E0F0F0F101011111112121313141496
:100C5000151516161717181819191A1A1B1B1C1D0B
:100C60001D1E1E1F20202122222324242526262764
:100C70002829292A2B2C2D2D2E2F30313232333496
:100C800035363738393A3B3C3D3E3F40414243449C
:100C900045464748494A4C4D4E4F5051535455567E
:100CA00058595A5B5D5E5F616264656668696B6C2A
:100CB0006D6F7072737577787A7B7D7E80828385A5
:100CC00087888A8C8E8F91939596989A9C9EA0A2E5
:100CD000A3A5A7A9ABADAFB1B3B5B7BABCBEC0C2EF
:100CE000C4C6C9CBCDCFD1D4D6D8DBDDDFE2E4E7B3
:100CF000E9EBEEF0F3F5F8FAFDFF16036700690083
:100D00006100620061006C0061006E0061006900BA
:100D100000000E033300610072006100680074007F
:100D200000000403090409029F00040100A0FA095D
:100D3000040000010301010009211101000122400A
:100D4000000705810308000A0904010001030000EF
:100D50000009211101000122320007058203200051
:100D60000A080B020201010000090402000001014F
:100D70000000092401000109000103090403000225
:100D800001030000072401000141000624020101C3
:100D900000062402020200092403010301020100EB
:100DA00009240302040101010009050402400005B1
:100DB000000005250101010905830240000500002E
:100DC00005250101031201100100000008EDFEB02D
:100DD000F401000102000105010980A10185031948
:100DE000012AB700150126B700950175108100C0D2
:100DF000050C0901A101850419012AA0021501268B
:100E0000A002950175108100C005010906A1010528
:100E10000719E029E715002501950875018102955C
:100E200001750881010507190029FF150026FF003B
:100E300095067508810005081901290595057501B4
:100E40009102950175039101C00011241FBECFEFDF
:100E5000DAE0DEBFCDBF04B603FE27C08091B9053E
:100E60009091BA05A091BB05B091BC058730904B1D
:100E7000A740B04BD1F41092B9051092BA05109268
:100E8000BB051092BC0514BE84B7877F84BF0FB624
:100E9000F894A8958091600088618093600010921A
:100EA00060000FBEE0E0F8E3099511E0A0E0B1E0DA
:100EB000E4E8F4E602C005900D92A43DB107D9F72D
:100EC00025E0A4EDB1E001C01D92A93BB207E1F716
:100ED0000E949D2B0C94AE310C9400000F931F9335
:100EE000CF93DF938B01D82FC92F49E00E94312186
:100EF000682F80E00E941B1448E0B8018D2F9C2FC2
:100F00000E943121682F81E00E941B14B8018D2FAF
:100F10009C2FDF91CF911F910F91089580913F03F6
:100F2000807F826080933F030E944E246093090378
:100F300070930A0380930B0390930C030E946D0D32
:100F4000882351F080911601882331F060E470E02D
:100F500080E090E00E94A4208CEA90E0909334021C
:100F60008093330240E060E080E00C948513CF93DF
:100F7000DF9300D000D0CDB7DEB7E9E0F3E0908199
:100F8000892F8E7F90FF81608083809109039091EB
:100F90000A03A0910B03B0910C0389839A83AB835E
:100FA000BC83BC01CD010F900F900F900F90DF918B
:100FB000CF910C9452241092090310920A031092BC
:100FC0000B0310920C0360E070E0CB010E945224EE
:100FD00080E00C944D090F93FC01862F642F422F63
:100FE000202F0F3F51F09281992319F00F910C940B
:100FF0004C1440E060E080E0F9CF0F910895EF924B
:10100000FF920F931F93CF93DF93EC017B01FB01C2
:101010002181808190E0FAE02F9F800D911D1124A5
:10102000FC01E95FF44F0491FC01E157F54F149185
:10103000CC363DE5D30708F061C0CD348DE5D80747
:1010400000F5C533EDE5DE0708F041C0C932FDE526
:10105000DF0708F08CC0C83031E5D30701F130F567
:10106000C139E8E4DE07D9F0B8F42497C43ED105CD
:10107000B0F081E0DF91CF911F910F91FF90EF9041
:101080000895FE01E955FD45E331F10508F08CC0F6
:10109000E055FE4C0C945731C83AD94451F72AED2B
:1010A0004AED6EE1C7010E94EB07E3CFC6318CE544
:1010B000D807A9F3CF52DC45C834D105D0F62AEDC4
:1010C0004AED6EE1C7010E94EB07012FE8CFCE0188
:1010D000C134EDE5DE0708F458C08A5F91090E942B
:1010E0000B0EB701CE01875F91090E940B0EB7016D
:1010F000CE01835F91090E940B0ED1CFC235D2473A
:1011000009F0B7CFCCCFFB018281882309F4B1CF9E
:1011100080E00E944D09ADCFFB018281882309F454
:10112000A8CF81E0F6CFFB018281882309F4A1CF0B
:1011300082E0EFCFFB018281882309F49ACF83E01C
:10114000E8CFFB018281882309F493CF84E0E1CFCB
:10115000FB018281882309F48CCF85E0DACFFB0183
:101160008281882309F485CF0E94B70782CFCE0100
:101170008E5E91092091090320FDBDCF0E940B0EC8
:10118000B701CE01825E9109B6CF8E5E91090E94B1
:101190000B0EB701CE018A5E91090E940B0EB701BA
:1011A000CE01875E9109A7CFCE01865091400E9463
:1011B0000B0EB701CE01825091400E940B0EB70179
:1011C000CE018C5F910997CFCE01825191400E9450
:1011D0000B0EB701CE018F5091400E940B0EB7014C
:1011E000CE018C50914087CF813031F489EA611172
:1011F00001C08AEA0C94B81A089581E008950C940D
:10120000FF0708950C9401091F93CF93DF9300D03B
:1012100000D00F92CDB7DEB749835A836B833091EC
:10122000640289819A8131111DC06623B9F022239D
:10123000A9F00E94D422182F682F89819A810E94D8
:101240007D2269817A81812F0F900F900F900F90EE
:101250000F90DF91CF911F910C94E3090E94AB2274
:10126000182FEFCF0E94D42269817A81EDCFFC0143
:10127000262F408151816281738184810C940409FD
:10128000CF93DF93D82FC92F60E00E9437096D2FCD
:101290007C2FDF91CF910C940209CF93DF9300D084
:1012A00000D0CDB7DEB721E030E002C0220F331FFF
:1012B0008A95E2F73A83298389810E942824A981AB
:1012C000BA81CD01B0E0A0E089839A83AB83BC836F
:1012D000BC01CD010F900F900F900F90DF91CF9137
:1012E0000C94A4200E941524811102C00E94BD24E8
:1012F0000C94BF0B0C94C20B08950E94911D0E9488
:101300007C092FEF84E39CE0215080409040E1F77E
:1013100000C000000C94EA250F931F93CF93DF9336
:10132000EC0161E00E9437098C01BE010E94FF08B8
:10133000882389F1BE01C8010E940B0E882359F150
:10134000BE01C8010E946416882329F1BE01C801AC
:101350000E94B9168823F9F0BE01C8010E948C17BB
:101360008823C9F0BE01C8010E946F14882399F038
:101370008A81882339F001158CE5180751F00F3D5B
:101380001C4579F0CE01DF91CF911F910F910C9404
:10139000FD080E947D0980E0DF91CF911F910F91A0
:1013A00008950E94BD24F7CF08950C94D40981E0DC
:1013B00008950C94D709CF93C82F0E94D5098C2F7C
:1013C000CF910C94D909972F70E02AE0929F600D7D
:1013D000711D1124FB0198E7899FE00DF11D112477
:1013E000EE0FFF1FE15DFE4F859194910895CF931D
:1013F000DF930E94E3090E94E30AEC01811522E5D4
:10140000920708F053C0811531E5930708F0AEC08C
:101410008F3B9105B8F4883A910508F099C0853A58
:10142000910568F4049738F491E080E0219709F081
:1014300090E0C92FD82FCE01DF91CF910895A497C6
:10144000D064F9CF811540E59407A0F4C11580E47C
:10145000D80708F088C0C83ED10530F4C03ED10599
:1014600050F7D0E0C0E0E7CFCE019A9581159F41BB
:1014700010F3F7CFF4E096958795FA95E1F783702E
:101480002C2F26952695237040E2249F900111244D
:10149000382B8C2F8370C1E0D0E002C0CC0FDD1F51
:1014A0008A95E2F7C22BD32BDC68C5CFC11586E540
:1014B000D80730F5C11595E5D90708F06BC0C115FF
:1014C00024E5D207C0F49C2F969596959E01237033
:1014D0003327C115D34508F04EC0C1E0D0E002C0AB
:1014E000CC0FDD1F2A95E2F720E2929FC001112464
:1014F000C82BD92BD9CFDC2FCC27C46FD06A9BCF78
:10150000C1153AE5D30788F4C11549E5D40708F0B9
:101510004CC0CE0198558F3F910511F008F0A1CF36
:10152000DC2FCC27C06FD06A86CFCE0190568115B4
:10153000904208F096CF8D2F8F710E947B0B90E028
:10154000982F882788279F719C012C2BE9012BC09D
:10155000C85AD0E0CC0FDD1FC55BDE4F0990D881A3
:10156000C02DD46468CFDF70D06A65CFD82FCC2768
:10157000C16FD06A60CFC1E0D0E002C0CC0FDD1FE8
:101580002A95E2F730E2939FC0011124C82BD92B92
:10159000DA6851CF8C2F0E947B0BC82FD0E0DC2F54
:1015A000CC27CC27DF71D06246CF8C2F8F700E9462
:1015B0007B0B34E0D695C7953A95E1F7CF70DC2FD9
:1015C000C82FD06938CF803E910599F1C8F4813396
:1015D000910509F476C048F48932910509F46AC08E
:1015E0008A32910509F474C0089589339105D1F0C8
:1015F00082389105B9F08533910509F454C00895F6
:10160000843E910599F138F4823E9105F9F0833ECC
:10161000910509F10895863E910599F1873E91055E
:10162000B9F108952091BD042370A1F080EE90E0FF
:1016300008952091BD0420FD52C03091BE0430FFBA
:1016400009C024FF4FC090E080E004C02091BD0499
:1016500022FDF7CF08952091BD0422FD46C03091B0
:10166000BE0430FDE3CF24FFF5CFEDCF2091BE04C3
:1016700021FFF0CF8091BD0484FDE5CF87EE90E09F
:1016800008952091BD0423FFE5CF24FDDCCFF6CFE4
:101690002091BD0423FD2CC03091BE0431FFE3CF67
:1016A00084EE90E008952091BD0425FFD3CF89E218
:1016B00090E008952091BD0425FFCCCF85E390E014
:1016C00008952091BD0426FFC5CF8AE290E00895D9
:1016D0002091BD0426FFBECF81E390E0089589E309
:1016E00090E0089583EE90E0089582EE90E00895F2
:1016F00086EE90E008959091BD0492FF06C0282FD9
:1017000028712830F9F4877F846093FF06C0282F62
:1017100028712831F1F4877E84612091BE0420FF76
:1017200006C0382F38713830D9F4877F816021FFA7
:1017300006C0282F28712831D1F4877E816194FD5D
:10174000877E0895282F24712430F9F68B7F8860D6
:10175000DCCF282F2471243101F78B7E8861DDCF07
:10176000382F3171313019F78E7F8860E0CF282F04
:101770002171213121F78E7E8861E1CF08950C948B
:10178000BE0B08950C94C10BE82FF0E0EE0FFF1F85
:10179000EB5DFC4F808191810895089580EA8A95E0
:1017A000F1F70895F894E82FE295EF70F0E041A189
:1017B0008F7021E030E0B90102C0660F771F8A9573
:1017C000E2F7CB01962F9095942391A392A1892BB8
:1017D00082A37894089508950F931F93CF93DF9376
:1017E000CDB7DEB766970FB6F894DEBF0FBECDBF9C
:1017F0000E948A0D80911601811131C087E0EFE3CC
:10180000F1E0DE01119601900D928A95E1F7FE015B
:10181000389685E0DF011D928A95E9F7CE010196A1
:10182000EAE0F1E09E01235F3F4FDC014D91CD01E5
:101830004193A217B307C9F72AE0E9E7F1E0DE0117
:101840001D9601900D922A95E1F7FC01A0E0B1E010
:10185000CE01479621912D93E817F907D9F780918A
:10186000160196E0811190E090933E0386E0891B7B
:1018700080933D030AE011E0F80181918F010E94FD
:10188000D20BF1E000311F07B9F700E011E0D801F9
:101890008D918D010E94D20BB1E00A301B07B9F780
:1018A000EDE0F3E0A5E2B3E0119211921D921D92DA
:1018B00083E0E532F807C1F786E00E94310D0E940F
:1018C000720966960FB6F894DEBF0FBECDBFDF91EA
:1018D000CF911F910F910C94940D0E946D0D882350
:1018E00031F180913D0390E0880F991F8B5D9C4FF3
:1018F0000E94A70D811118C08091D4018F5F809341
:10190000D401863078F0E0913D03F0E0EE0FFF1F48
:10191000EB5DFC4F90E080E01192119201968630D1
:101920009105D1F70C947A091092D401FBCF8091E4
:101930003E0390E0880F991F8B5D9C4F0E94CA0D5B
:101940000C94EB0B8F929F92AF92BF92CF92DF924B
:10195000EF92FF920F931F93CF930AE011E09DE067
:10196000E92E93E0F92E20E1A22E21E0B22EC0E074
:10197000CC24C394D12CF80181918F01F894E82FE5
:10198000E295EF70F0E021A18F70A60102C0440F34
:10199000551F8A95E2F7CA01922F982B91A392A125
:1019A0008095892382A378940E94CE0BE0E0F1E039
:1019B00030E020E0912C812C4191A42FA295AF70B2
:1019C000B0E090968C9190E04F7002C0959587950D
:1019D0004A95E2F780FD40C0C601022E02C0880F82
:1019E000991F0A94E2F7882A992A2F5F3F4F2A30DD
:1019F000310511F7F801319780810E94D20BF70170
:101A0000808191818816990651F19182808281E0CE
:101A1000C82BF2E0EF0EF11CA016B10609F0ABCF17
:101A200060913E0370E0660F771F6B5D7C4F2C2F3B
:101A300046E08DE093E00E94320D0E946D0C8C2FE9
:101A4000CF911F910F91FF90EF90DF90CF90BF90BB
:101A5000AF909F908F90089590E080E0C4CF80E099
:101A6000D7CF0895FF920F931F93CF93DF93F82E54
:101A7000092F162FD72FC42F222349F081E08093FE
:101A8000D7010E94AB259093D6018093D501809118
:101A9000D7018823A1F08091D5019091D6010E94B1
:101AA000B725069760F0EF2DF02FA12FBD2F90E006
:101AB00080E0D0E08C179D0744F01092D701DF91B1
:101AC000CF911F910F91FF900895219131912D9306
:101AD0003D930196EFCF0C94BF248091D8018111E2
:101AE00010C08091D80080618093D8008AE18A95E7
:101AF000F1F700C08091D90080FD0AC082E0809398
:101B0000D80181E09091D801913009F080E00895EA
:101B100081E0F5CF0E946B0D809316010E946D0D40
:101B200081110C949B0D08950E946D0D811102C0CE
:101B30000C94A10D089561E070E087E191E00C94B0
:101B4000171861E070E087E191E00C941E18CF93C4
:101B5000DF93D82FC92F0E94B8189C0180E021156F
:101B60003105A9F4ED2FFC2FD901AA0FBB1FA652F6
:101B7000BE4F8D919C91819391932F5F3F4F263063
:101B8000310591F786EE91E00E94C51581E0DF9165
:101B9000CF910895FC0190E080E021913191DC012A
:101BA000AA0FBB1FA652BE4F11963C932E930196CF
:101BB0008630910591F786EE91E00C94BC1584E097
:101BC00080933F038FE780934003809141038078A7
:101BD000806480934103EBEEF1E08FEF819392E01C
:101BE000E333F907D9F71092EA011092E901109254
:101BF000E8011092E701089590913F03292F2F707B
:101C000095959595959595959F523CE0239F900DC0
:101C10001124890F08950F931F93CF93DF9300D062
:101C20000F92CDB7DEB7DB0187372CE59207B0F412
:101C30008F324CE59407D8F481E08A838A810F9033
:101C40000F900F90DF91CF911F910F910895ED5359
:101C5000FE4C12962C912A830C945731FC01E757C5
:101C6000FC45E534F10598F341E04A83E7CF209144
:101C70004003322F331F3327331FE0914103E770B6
:101C8000EE0FE32BEB832F7729831296FC91FA83D7
:101C900001ED080F10E005511E4FF8014081FA8157
:101CA000FF2391F04F3F11F01A82C8CF0E94FC0D24
:101CB0008A832981482F6B818FEB94E00E946D26E7
:101CC0002A81F8012083F0CF4F3F31F029816B81C9
:101CD0008FEB94E00E947D268FEFF8018083AECFDA
:101CE0002A81222309F38757982F9F7080913F0301
:101CF000807F892B80933F03D7CF4A814423A1F271
:101D000080913F03982F9F7079F2915F9F70F0CF81
:101D10008A81882349F280913F03982F9F709930E0
:101D200018F69F5FF3CF2A81222309F4BDCF89588B
:101D3000982F9295907F80913F038F70DACF4A81E0
:101D4000442309F4B1CF80913F03982F9595959541
:101D500095959595803B0CF4A7CF915F9295907FD8
:101D6000ECCF8A81882309F49FCF80913F03282FED
:101D7000259525952595259580360CF095CF91E0F4
:101D8000920F9295907F9595959595959595392F6C
:101D90003295307F8F70832B80933F0312160CF0A7
:101DA00083CF97FF81CF2295207F8F70822BA2CF88
:101DB0002A81222309F478CF82599CE0899F902DB3
:101DC00011249F7780914003807815C04A81442375
:101DD00009F46ACF80914003982F9F7709F464CF6C
:101DE00080789F3721F48567809340035DCF9D30D5
:101DF000D8F39D509F77892BF7CF8A81882309F4E8
:101E000053CF80914003982F9F779F3709F44CCF91
:101E1000933718F4935F9F77D7CF8F67E5CF2A81E9
:101E2000222309F441CF8F599091400380FB97F909
:101E3000909340038695877090914103987F892BFA
:101E4000B3C04A81442309F42FCF20914003322F9D
:101E5000331F3327331F90914103892F8770880FD9
:101E6000832B815F382F3F7080FB27F9209340033D
:101E7000832F8695987F982B9093410315CF8A8165
:101E8000882309F411CF20914003322F331F3327C9
:101E9000331F90914103892F8770880F832B8F5FA9
:101EA000E1CF2A81222309F4FFCE60914003862FDF
:101EB000881F8827881F609141036770660F682B11
:101EC00020E04BE78FEB94E00E945D26EDCE4A8147
:101ED00020E041112FE760914003862F881F88275B
:101EE000881F609141036770660F682B40E4EACF5A
:101EF0008A8120E081112FE760914003862F881F9F
:101F00008827881F609141036770660F682B41E442
:101F1000D9CF2A8121112FE760914003862F881F96
:101F20008827881F609141036770660F682B42E421
:101F3000C9CF4A81411111C020E060914003862F32
:101F4000881F8827881F609141036770660F682B80
:101F500043E4B8CF8A81882379F32FE7EECF2A8133
:101F60008FEF211181E08093E9019ECE4A814423C5
:101F700009F49ACE90914103292F2695269526950E
:101F80002F7081E0820F8F70880F880F880F9778ED
:101F9000892B80934103982F987709F085CE220FE3
:101FA000220F220F8778822B809341037DCE8A8176
:101FB000882309F479CE80914103982F987709F40A
:101FC00073CE982F969596959695915F9F70990FE1
:101FD000990F990F877833CF60914003862F881F20
:101FE0008827881F609141036770660F682BEA811C
:101FF00040E050EEE11117C050E040E08FEB94E07C
:102000000E948D261BCE60914003862F881F882753
:10201000881F609141036770660F682BFA81FF2368
:1020200059F34FEF5FE18FEB94E00E948D263CCE99
:102030008FEB94E00E948C288091E7019091E80159
:102040000E94B7259C01909141039695969596958F
:102050009F709217130609F0A0F50E94AB2590938C
:10206000E8018093E7018091E901882351F16091B3
:102070004003862F881F8827881F6091410367705F
:10208000660F682B2091EA0141E08FEB94E00E94FB
:102090005D268091E9019091EA0187FF0DC0482FEC
:1020A000552741950CF45095941715062CF4109271
:1020B000EA011092E9010895890F87FD03C080931A
:1020C000EA0108958FE7FBCFCF92DF92EF92FF9264
:1020D0000F931F93CF93DF93D62FC72F982F711194
:1020E00013C0442329F0E82FF0E0E650F44F949118
:1020F000692F792F892FDF91CF911F910F91FF9039
:10210000EF90DF90CF900895272F30E0E82FF0E098
:10211000442321F0E650F44FE491F0E086E0D89FAC
:10212000700111240FEF10E0C701B8010E942F3198
:102130008D2F90E0880F991FA5E5A69FA001A79F6E
:10214000500D1124841B950BD82EDD0CD80EC80120
:10215000821B930B8E9FA0018F9F500D9E9F500D51
:102160001124952FDC9EE0011124CD2FDD27D8010D
:10217000AC1BBD0BED01CE9FD001CF9FB00DDE9FFC
:10218000B00D11248B2FE801CD19D1096E01C29E2B
:10219000E001C39ED00DD29ED00D1124CD2FDD279E
:1021A0000C1B1D0B0E9FE0010F9FD00D1E9FD00D2D
:1021B00011242E2F63307105D9F03CEFE31633E084
:1021C000F30668F461307105B9F062307105C1F051
:1021D000AFEFEA16F10448F4852F9D2F06C0643056
:1021E000710589F066307105B9F3692F722F83CFBD
:1021F0009B2F8E2F252FF9CF9E2F2B2F852FF5CF9D
:102200008D2F9E2FF7CF8E2F2D2FEFCF41E00C94E7
:1022100064100C940611CF93DF93982F762F842FA0
:10222000E901692F0E940911798368838A83DF910C
:10223000CF910895453608F044E60C940B11809137
:102240004303982F9E7F71F48091430381708260D5
:102250008093430380914603853618F084E680938B
:1022600046030895843080F7F5CF88E090E00C9421
:102270006E310F931F93CF93DF938B01D82FC92F0C
:102280000E941F11A8016D2F7C2F88E090E0DF9144
:10229000CF911F910F910C948C31CF93DF9300D08D
:1022A00000D0CDB7DEB7E3E4F3E083E080831182B2
:1022B0008FEF828384E68383148280819181A2815F
:1022C000B38189839A83AB83BC83BC01CD010F901A
:1022D0000F900F900F90DF91CF910C943911CF9305
:1022E000DF9300D000D0CDB7DEB790914703933095
:1022F00018F49F5F909347038823B1F080914303C4
:1023000090914403A0914503B091460389839A8339
:10231000AB83BC83BC01CD010F900F900F900F9049
:10232000DF91CF910C9439110F900F900F900F9077
:10233000DF91CF91089581E00C946F11CF93DF93DB
:1023400000D000D0CDB7DEB790914703992319F0A4
:102350009150909347038823B1F08091430390916B
:102360004403A0914503B091460389839A83AB83CC
:10237000BC83BC01CD010F900F900F900F90DF91A7
:10238000CF910C9439110F900F900F900F90DF9117
:10239000CF91089581E00C949E1121E030E001C0BE
:1023A000220F8A95EAF790913802922381E009F48E
:1023B00080E0089570E00C94C6146F927F928F9223
:1023C0009F92AF92BF92CF92DF92EF92FF920F93C4
:1023D0001F93CF93DF93CDB7DEB7C157D1400FB670
:1023E000F894DEBF0FBECDBF7090200190914303E3
:1023F00090FF47C0C0903302D0903402C114D10482
:1024000009F052C0EFE7FBE09E012F5F3F4FBE0196
:102410006E587E4FC901A4914A2F50E0DA01AA0FED
:10242000BB1FA40FB51FA85BBC4FCD90DD90EC90F7
:10243000D901CD92DD92ED929D0131966A177B070D
:1024400051F720911F01672DB3E02B9F800D911D47
:1024500011240E94DA11CF58DE4F0FB6F894DEBF78
:102460000FBECDBFDF91CF911F910F91FF90EF90E5
:10247000DF90CF90BF90AF909F908F907F906F90A4
:102480000895809121012091220133E0839FF00182
:102490001124E85BFC4F821708F0ACCF1182108248
:1024A00012828F5F3396F7CF90FFACCFF12CE12CE7
:1024B00043E0642E8E2D0E94CD11882309F43CC088
:1024C000F701EE0FFF1FEC0DFD1DA590B490A114B8
:1024D000B10409F497CF45E050E0B501CE01019673
:1024E0000E945D3109810F3F39F18A81800F992760
:1024F000991F8C37910514F08BE790E04C01880C04
:10250000991C880D991DDC01A85BBC4F4D01069DEF
:1025100080011124085B1C4F0815190520F0B5E057
:10252000AB0EB11CD8CF98014D816C818B810E947C
:102530001A110D5F1F4FF0CF2FEFE21AF20A38E0A9
:10254000E316F10409F0B6CF5DCFCF93DF9300D04F
:1025500000D0CDB7DEB7E3E4F3E080818E7F8083E7
:1025600080819181A281B38189839A83AB83BC836B
:10257000BC01CD010E9439119FEFA0E7B2E091505C
:10258000A040B040E1F700C000000F900F900F9006
:102590000F90DF91CF910C94DD119091430390FF48
:1025A00014C0909121012091220133E0939FF0010A
:1025B0001124E85BFC4F921710F00C94DD1181831D
:1025C000608342839F5F3396F6CF0895EF92FF9228
:1025D0000F931F93CF93DF9300D000D000D00F92C2
:1025E000CDB7DEB7F82E062F142FE22E90914303BD
:1025F00090FF2AC0E92FE695F0E0EC57FE4F80816E
:10260000809336029E7F923059F49E012F5F3F4F98
:102610008F2D0E941A114B8169818A810E94CD12EF
:10262000F09244030093450310934603EE2061F0BB
:102630008091430390914403A0914503B0914603D8
:10264000BC01CD010E94391127960FB6F894DEBF68
:102650000FBECDBFDF91CF911F910F91FF90EF90F3
:102660000895282FE3E4F3E0818143816281885F4C
:102670000C94E61281E00C943113282FE3E4F3E08C
:1026800081814381628188500C94E61281E00C9430
:102690003D13282FE3E4F3E0628131E1630F08F496
:1026A0006FEF438181810C94E61281E00C94491311
:1026B000282FE3E4F3E0628131E1631B08F460E07A
:1026C000438181810C94E61281E00C945813282FE9
:1026D000E3E4F3E0438131E1430F08F44FEF62811B
:1026E00081810C94E61281E00C946713282FE3E4B7
:1026F000F3E0438131E1431B08F440E062818181D2
:102700000C94E61281E00C94761321E00C94E6120E
:1027100020E00C94E612CF93DF9300D000D0CDB729
:10272000DEB78091430380FF24C081708260809374
:102730004303662381F08091430390914403A09169
:102740004503B091460389839A83AB83BC83BC0164
:10275000CD010E943911409146036091450380915B
:1027600044030F900F900F900F90DF91CF910C9436
:1027700088130F900F900F900F90DF91CF910895D5
:10278000682F81E00C948B1381E00C94C013682FA8
:102790009091430396958FEF890F913009F481E072
:1027A0000C948B1381E00C94C71361E00C948B1391
:1027B000E3E4F3E080818160808386950C94D513F7
:1027C0008091430380FD0C94A5120C94D81360E013
:1027D0000C948B138091350281112CC00E9415241A
:1027E000811104C00E94BD240E944D110E94351128
:1027F000609343037093440380934503909346038F
:102800006E7F61F40E944D110E9435116093430365
:102810007093440380934503909346030E941F11D5
:102820008091430380FF03C086950E94E71381E0F7
:1028300080933502089521E030E0A90102C0440FE1
:10284000551F8A95E2F7CA0120913802662361F08C
:10285000822B8093380280913702811108C08091C9
:10286000430386950C94E71380958223F2CF089555
:102870009091430390FF0FC02B3768F430E0F901CB
:10288000EE0FFF1FE20FF31FE85BFC4F81836083B5
:1028900042830C94DD1108951F93CF93DF9300D0F2
:1028A0000F92CDB7DEB7122F9091430390FF0BC06C
:1028B0009E012F5F3F4F0E941A11212F4B8169818A
:1028C0008A810E9438140F900F900F90DF91CF9162
:1028D0001F910895FA0181110994FB01FDCF1F9307
:1028E000CF93DF93EC01FB011281111110C00E9404
:1028F00071238272FE01E35CFC45E431F10508F0CE
:1029000043C0E85FFD4C0C9457310E94E013812FC7
:10291000DF91CF911F91089542ED53E164EC73E193
:102920000E946A14F4CF44EC53E162ED73E1F8CFF6
:1029300046E453E16AE373E1F3CF4AE353E166E42B
:1029400073E1EECF44E653E165E573E1E9CF45E598
:1029500053E164E673E1E4CF42E853E163E773E1F6
:10296000DFCF43E753E162E873E1DACF4AEC51E1AC
:102970006BE971E1D5CF4BE951E16AEC71E1D0CF60
:1029800081E00E94D513C3CF11E0C1CF9C01AB0100
:10299000539A6BB1677F7BB17860EFB7F894CA0147
:1029A000880F991F840F951F820F931F821793071B
:1029B00041F4EFBF8FE594E00197F1F700C000000C
:1029C0000895D9014D919D0158E07BB9000000C0E8
:1029D00047FF6BB9440F000000C000C000C06BB9D6
:1029E00000C05A9591F7E2CF0C94F408809116013B
:1029F000811106C084E38093250186E3809324013E
:102A000020912501A22FA295AF70B0E091963C9144
:102A100091972F7081E090E0BC01022E01C0660FFB
:102A20000A94EAF7462F4095432391964C93919749
:102A300092963C919297362B92963C939297409126
:102A40002401E42FE295EF70F0E031A14F70042EE5
:102A500001C0880F0A94EAF7982F9095932391A3C9
:102A600092A1892B82A390968C9190E002C09595BB
:102A700087952A95E2F7817020A130E002C0359554
:102A800027954A95E2F792E020FF90E0892B80930A
:102A90003E029091160181E0982790933A02891B9B
:102AA000809339020895CF93E0913E02EE0FEE0F2E
:102AB00020912501A22FA295AF70B0E090968C9145
:102AC00090E02F7002C0959587952A95E2F7817066
:102AD000992740912401A42FA295AF70B0E0909661
:102AE0002C9130E04F7002C0359527954A95E2F75A
:102AF000A9014170552720FF02C042E050E0842B1D
:102B0000E82BE0933E02C0913A02EF70F0E0EA5702
:102B1000FE4F808190913D02890F80933D02843069
:102B20006CF0EC2F0C2E000CFF0BE55CFD4F808150
:102B30008F5F808360E08C2F0E94F41480913D02AF
:102B40008D3F6CF4EC2F0C2E000CFF0BE55CFD4F61
:102B500080818150808361E08C2F0E94F4148091E9
:102B60003D02082E000C990B64E070E00E94433196
:102B700080933D02CF910895E0913A02F0E0E55C48
:102B8000FD4F2081FC0120830895FF920F931F9336
:102B9000CF93DF93D09139020D2F10E0055C1D4FCC
:102BA000FC01C081F8018081C81BFC2E1F1464F059
:102BB0008C2FC7FD80E0C81BC11110C0DF91CF91E1
:102BC0001F910F91FF900895FA94F80180818F5F13
:102BD000808360E08D2F0E94F414E8CFCF5FF8016E
:102BE00080818150808361E08D2F0E94F414E4CFB6
:102BF0000F931F93CF93DF93C42FD22FFC018281B9
:102C00008823C9F0409341020E94AB259093400273
:102C100080933F0280E28C0F883008F050C0C7706C
:102C200081E001C0880FCA95EAF7DF91CF911F912B
:102C30000F910C94D01A10914102141335C0809159
:102C40003F02909140020E94B725883C910560F5B3
:102C5000C0E2CD0F1D17B9F080E2810F883040F43B
:102C6000177081E001C0880F1A95EAF70E94D71A01
:102C7000C83048F481E09D2F977001C0880F9A9565
:102C8000EAF70E94D01A802F0E94B81AC830B8F410
:102C9000D77081E001C0880FDA95EAF7DF91CF9114
:102CA0001F910F910C94D71A80E28C0F883038F462
:102CB000C77081E001C0880FCA95EAF7EFCFDF91B6
:102CC000CF911F910F9108950F939C01CB01243F49
:102CD0004CE53407A1F190F4293DFCE53F0749F1AB
:102CE0002A3D4CE53407E9F1283D3C45C1F0FC01A3
:102CF00082818823E1F11092410219C0263FFCE550
:102D00003F0719F1273F4CE5340729F1253F3C45A2
:102D100071F707E225EE44EE65EF7CE505C006E2BB
:102D200021EE41EE68ED7CE50E94F81580E00F9100
:102D3000089507E225EE45EE69ED7CE5F5CF06E264
:102D400021EE40EE64EF7CE5EFCF06E221EE42EEAD
:102D500066EF7CE5E9CF07E225EE46EE67EF7CE51E
:102D6000E3CF08E221E045EE6AED7CE5DDCF81E0CE
:102D7000DECFCF93DF93EC01FB018281882309F43E
:102D8000C9C0C631FCE5DF07E0F4C2309CE5D907D5
:102D9000F0F00E942D249093BE048093BD04C631B0
:102DA000ECE5DE0720F5C230FCE5DF0798F4809102
:102DB000BD049091BE040E943B240E94911D80E0BE
:102DC00006C09E012B5F3C452930310510F3DF9191
:102DD000CF910895FE01E350FC458091BD048160D0
:102DE000E331F10588F4E45EFD4C0C945731CB5F80
:102DF000DC45C930D105D8F6C15DDD4CFE010C942F
:102E000057318091BD0482608093BD04D0CF809102
:102E1000BD048460F9CF8091BD048860F5CF8091B6
:102E2000BE0481608093BE04C2CF8091BE048260E4
:102E3000F9CF8091BD048061E7CF8091BD048062AD
:102E4000E3CF8091BD048064DFCF0E94911D80910B
:102E5000BD048068D9CF8091BD048C60D5CF8091AE
:102E6000BE048360DFCF8091BD048E7FCDCF809183
:102E7000BD048D7FC9CF8091BD048B7FC5CF80916C
:102E8000BD04877FC1CF8091BE048E7FCBCF809160
:102E9000BE048D7FC7CF8091BD048F7EB5CF80915A
:102EA000BD048F7DB1CF8091BD048F7BADCF0E94DB
:102EB000911D8091BD048F77A7CF8091BD04837F42
:102EC000A3CF8091BE048C7FADCF8091BD0482FBE7
:102ED000992790F921E0922790FB82F990FB83F9E2
:102EE00093CF8091BE04982F909591708E7F892BFF
:102EF00090FB81F997CF0E94911D9091BD04892F7D
:102F000097FB87F9805880CF81E00E94C9244FCF7A
:102F100080E0FBCF81E05BCFCF93DF93EB01863185
:102F20009C4511F50E9471239A81992399F08A7A20
:102F300091E009F490E090934202811109C089E286
:102F40000E944C230E94B22380E0DF91CF9108952C
:102F500085E3F6CF80914202811104C089E20E948C
:102F60005323F0CF85E3FBCF81E0EFCF8EE14A9B87
:102F700002C08150E1F74A9BFECF08955A9880E243
:102F80008A95F1F75A9A0895FC013BE03A95F1F7DA
:102F900098E020E080E031E040E14A95F1F7880FC9
:102FA0004A9B02C08160232742E04A95F1F7000066
:102FB00040E14A95F1F7915079F790E19A95F1F750
:102FC00099B132E03A95F1F7000040E14A95F1F706
:102FD00092FB992790F992272081920F9083089570
:102FE000EF92FF920F931F93CF93DF930F92CDB782
:102FF000DEB719828C017C01E60EF11C0E151F054F
:1030000061F481E09981911180E00F90DF91CF917F
:103010001F910F91FF90EF9008950E94B617CE0177
:1030200001960E94C417F80181938F01E7CF909316
:10303000440280934302529A5A9A0895909344020C
:103040008093430252985A9AEA9AE9E6F0E0808126
:103050008F7C808308956150770B91E001C0990FB8
:103060006A95EAF720E031E0911108C0222391F03F
:103070005A9A80E28A95F1F75A980895492F482381
:1030800039F05A9A232740E24A95F1F79695ECCF0A
:103090005A98F9CF5A98EDCFFF920F931F93CF9381
:1030A000DF93EC018C01060F111DC017D10731F41D
:1030B000DF91CF911F910F91FF900895F9900E9499
:1030C000BE1768E08F2D0E942B18EFCF1F920F9232
:1030D0000FB60F9211242F933F934F935F936F93EB
:1030E0007F938F939F93AF93BF93CF93DF93EF9390
:1030F000FF935A98529AC0914302D09144026D8135
:10310000662321F08E819F810E944C180E94BE1779
:1031100080E18A95F1F75A9852985A9A80E18A95F7
:10312000F1F76A81662309F18B819C810E94F01777
:10313000E881F981882311F088E001C082E0808372
:103140000E94B617FF91EF91DF91CF91BF91AF91A0
:103150009F918F917F916F915F914F913F912F91AF
:103160000F900FBE0F901F901895E881F981E4CF62
:10317000CF93DF93C0914302D0914402F894529AC6
:103180005A9885E08A95F1F7000052985A9A80E2A1
:103190008A95F1F74A9B0CC0529A5A9AE881F981B4
:1031A00081E08083789481E090E0DF91CF91089571
:1031B0006D81662381F08E819F810E94F0178111BD
:1031C0000AC0529A5A9AE881F98182E08083789401
:1031D00082E090E0EACF0E94B61780E28A95F1F78C
:1031E0005A98529A80E18A95F1F76A81662321F014
:1031F0008B819C810E944C180E94BE17E881F98146
:103200001082789490E080E0D0CF90934A0280932F
:1032100049020895E0914902F0914A02309721F065
:103220000190F081E02D099480E00895E091490239
:10323000F0914A02309721F00280F381E02D099449
:10324000089520914702309148022817390771F0FC
:103250009093480280934702E0914902F0914A021C
:10326000309721F00680F781E02D09940895209190
:103270004502309146022817390771F090934602B3
:1032800080934502E0914902F0914A02309721F083
:103290000084F185E02D0994089585B7806885BF85
:1032A00085B7806885BF0895089508950C945419D2
:1032B0000C948E070E944D190E9455190C945619B2
:1032C0000C946D0D089508950E94A2250E94EC0BA8
:1032D0000E94FB250E94EA130E94F6140C945819D0
:1032E0009F92AF92BF92CF92DF92EF92FF920F9395
:1032F0001F93CF93DF9300D000D00F92CDB7DEB7EE
:103300000E9462190E9463190E94A20C0E94601917
:10331000882309F471C05CE4A52E52E0B52E10E0BC
:1033200000E0902E802F0E94C40B7C01F501C1901B
:10333000D1905F01C816D90609F458C08091FD02EA
:1033400081FD0E94CD0B96012E253F2580E0CC24E7
:10335000C394D12CA9014C215D21452B09F440C017
:1033600089839A82EC20FD2081E0EF2809F480E037
:103370008B830E94AB258160782F9D838C8349814C
:103380005A816B818D810E941E1A000F111FF80156
:10339000E45BFD4F80819181C826D926D182C0820D
:1033A0000E9453150E9418100E940A1990914B0216
:1033B000891799F10E940A1980934B020F900F9080
:1033C0000F900F900F90DF91CF911F910F91FF9071
:1033D000EF90DF90CF90BF90AF909F900C94DB095F
:1033E0008F5FCC0CDD1C8A3009F0B4CF0F5F1F4F0C
:1033F0000C30110509F095CF8FEF89838A831B82EA
:103400000E94AB258160782F9D838C8349815A81EE
:103410006B818D810E941E1AC3CF0F900F900F9069
:103420000F900F90DF91CF911F910F91FF90EF9030
:10343000DF90CF90BF90AF909F900895CF93DF9390
:10344000CDB7DEB72B970FB6F894DEBF0FBECDBF5A
:103450004F83588769877A878B871E8285E0FE01B4
:103460003796DE01119601900D928A95E1F7498118
:103470005A816B817C818D819E812B960FB6F89449
:10348000DEBF0FBECDBFDF91CF910C94F41FFC01C6
:10349000808191810C941623CF93C82F8823F1F15A
:1034A0008CEF8C0F813AA0F46C2F809126019091C3
:1034B00027010E94E024882329F08C2F0E945323A7
:1034C0000E94B2238C2F0E944C23CF910C94B223E4
:1034D00080E28C0F883048F4C77081E001C0880F0B
:1034E000CA95EAF70E947423F0CF8BE58C0F8330E6
:1034F00038F42C2F2452330BC901CF910C9421198D
:10350000C85AC73158F4EC2FF0E0EE0FFF1FEA560F
:10351000FE4F80819181CF910C943719CF910895FE
:10352000882329F19CEF980F913A20F40E945323AD
:103530000C94B22390E2980F983050F4877091E089
:1035400001C0990F8A95EAF7892F0E947A23F0CF5C
:103550009BE5980F933020F490E080E00C942119C3
:10356000885A873120F490E080E00C943719089550
:10357000CF93C82F0E944C1AC93369F42FEF87EEFE
:1035800093E0215080409040E1F700C000008C2F74
:10359000CF910C94901A8FE39CE90197F1F7F5CF46
:1035A000882321F00E9474230C94B2230895882369
:1035B00021F00E947A230C94B2230895CF92DF92D7
:1035C000EF92FF920F931F93CF93DF9300D000D021
:1035D0000F92CDB7DEB77C016D837983FC01058145
:1035E00002950F70128111110E9493230E946A2389
:1035F000C82E882399F0112309F441C08981807F66
:10360000803421F08D81805E8830C8F182E00E9494
:10361000FD230E946A2391E0C82EC926D980D29446
:103620008FE0D822F8E0DF1609F402C1FD1508F496
:1036300057C023E02D1528F18981807F39813F70A3
:10364000398391E09D1508F05EC0803221F0298118
:103650002295207F29833D81332309F48BC03130AB
:1036600009F4A8C0112309F4B0C0002309F4A7C0CD
:10367000F701858180FF5EC08F708583A0C0C12C5B
:10368000CDCFE4E0DE1609F4B7C00D2D0850110BC4
:103690000430110520F40E940A190E94DB09CC2095
:1036A00009F4E0C10E94662380FDDCC1F7011282AB
:1036B0000E9460230E946D21C7010E94571D0E9435
:1036C00060230F900F900F900F900F90DF91CF918C
:1036D0001F910F91FF90EF90DF90CF900C949E215F
:1036E000F9E0DF1609F44EC186E08D0D8F7082304F
:1036F00060F62D81223F09F056C189818F71112317
:1037000009F484C14DC1882321F009810295007F0D
:1037100009831123B9F01981112361F08D81805E35
:10372000883018F00D81011109C089810E9474232D
:103730000E94B2238D810E944C1AA7CF89810E94DA
:103740008523F6CF8D810E94901A1981112309F4E7
:103750009CCF8D81805E883018F00D81011106C0EC
:1037600089810E947A230E94B2238FCF89810E948F
:103770008B23F9CF112391F0011107C00E949923E7
:103780000981802B0E94D01A80CF0130B9F70E94A6
:1037900099231981812B0E949F2377CF011106C0A5
:1037A0000E94A82389810E94D71A6FCF013009F4A3
:1037B0006CCFF6CF112329F0063008F066CF89814F
:1037C000E1CF053008F061CFEDCF002359F30D8133
:1037D000093369F41FEF27EE33E0115020403040E9
:1037E000E1F700C000008D810E94901A4ECF8FE358
:1037F0009CE90197F1F7F5CF8981869586958370CD
:1038000069F0813009F041CF8D8199819370111158
:1038100002C090E080E00E94371937CF8D819981F6
:103820009370111102C090E080E00E9421192DCF09
:103830008981837009F050C0111127CF2D81229505
:1038400026952770220F220F8D818F7090E0B0E0B7
:10385000A0E0022E04C0880F991FAA1FBB1F0A9464
:10386000D2F70D8140E050E0BA0104FF0FC04FE0F5
:1038700050E060E070E004C0440F551F661F771FE2
:103880002A95D2F7409550956095709519811695B7
:10389000169513701D838A019B01082B192B2A2B67
:1038A0003B2B09831A832B833C831D8169817A8199
:1038B0008B819C81123051F0133059F0113019F086
:1038C0000E94CE20E2CE0E94A620DFCE0E94F620EB
:1038D000DCCE0E94A420D9CE8695112311F08981D7
:1038E0008170882309F4D1CE2D81229526952770E9
:1038F000220F220F8D818F7090E0B0E0A0E0022EA9
:1039000004C0880F991FAA1FBB1F0A94D2F70D810C
:1039100040E050E0BA0104FF0FC04FE050E060E02B
:1039200070E004C0440F551F661F771F2A95D2F719
:103930004095509560957095198116951695137060
:103940001D838A019B01082B192B2A2B3B2B0983F2
:103950001A832B833C831D8169817A818B819C81B1
:10396000123051F0133059F0113019F00E942C220E
:103970008CCE0E94042289CE0E94542286CE0E94C0
:10398000202183CE09810F700983112329F0802F14
:103990000E946D218D81F6CE8D810E94D71A89817A
:1039A0000E949E2172CE2D81233F60F4203FE1F0E2
:1039B000213F41F1112309F440C00111BBCE89819F
:1039C0008F7124C03D81333F21F1343F99F711239A
:1039D00051F109810F710983802F0E946D2163E0ED
:1039E00089810E94E82351CE112341F0053008F06F
:1039F0004CCE89818F710E94D32147CE063008F0CA
:103A000044CEF7CF89818F71112351F20E946D212D
:103A10003CCE112329F089818F710E94482135CE37
:103A20000E942C2132CE81E00E94FD23023008F456
:103A30002CCE82E00E94FD2328CE002381F01D8140
:103A4000193341F42FEF37EE83E0215030408040AE
:103A5000E1F7C7CEEFE3FCE93197F1F7C2CE8981F8
:103A60008F719ECF0F900F900F900F900F90DF915E
:103A7000CF911F910F91FF90EF90DF90CF9008951D
:103A80000F931F93CF93DF93EC01688179818A8133
:103A90000E9422238C010E947C220E94A320B80154
:103AA000CE01DF91CF911F910F910C94DE1ACF932D
:103AB000DF93EC018B819C81892B29F0888199818E
:103AC00089238F3F59F4DF91CF910895CE010E9451
:103AD000401DCE01DF91CF910C944009CE010E9490
:103AE0008C098111F3CF0E946A23882361F38A81B4
:103AF000882349F382E0DF91CF910C94FD230E944B
:103B000093230E9496230E94B22390E080E00E94BB
:103B1000211990E080E00C9437190E945A230C94EC
:103B20007F1D0E9482230C948D1D282F892F829542
:103B30008F70903C80F48A30B0F4843020F482306E
:103B400090F480E008958630E1F781E0283E88F027
:103B5000213FB9F70EC08C3011F08F3091F793FBF5
:103B6000882780F9089581E0203F39F018F4283E35
:103B700040F70895243F29F7FCCF08950E941623AB
:103B80000C94951DCF93DF9300D000D00F92CDB74A
:103B9000DEB70F900F900F900F900F90DF91CF91A5
:103BA0000895CF93DF9300D000D000D0CDB7DEB71B
:103BB00026960FB6F894DEBF0FBECDBFDF91CF9132
:103BC00008951F93CF93DF93E091650216E08091F3
:103BD00066028E1304C0DF91CF911F910895CE2FFE
:103BE000D0E01E9FF0011124E959FD4F4081518121
:103BF00062817381848195810E94D11DFE0131967D
:103C0000E770E5CF40919702509198026091990238
:103C100070919A0280919B0290919C020C94D11D0C
:103C20001F93CF93DF9380919C02807FA9F48091B2
:103C30009902882389F080916502C09166026091A3
:103C4000970270919802A0919A02B0919B02D62F90
:103C5000D72316E0C81304C0DF91CF911F910895B8
:103C600090E0109711F0DF3F19F401968770F2CFC2
:103C7000189F9001199F300D1124F901E959FD4F4A
:103C800041814713F2CF40814613EFCF428141116A
:103C9000ECCF438154814A1B5B0B483C510528F70C
:103CA00080919C028F70806180939C02F901E4599D
:103CB000FD4F80818F708061808387E992E00E9450
:103CC000571DDF91CF911F910C94E11DAF92BF92D0
:103CD000CF92DF92EF92FF920F931F93CF93DF93D8
:103CE000CDB7DEB72B970FB6F894DEBF0FBECDBFB2
:103CF0008C0185E0F801DE01179601900D928A95FE
:103D0000E1F7F80140815181E28087E9C82E82E025
:103D1000D82E60919A0270919B026115710509F489
:103D200044C19091970220919802822F89238F3F5E
:103D300009F43BC1A380B480F0909902F501E61B21
:103D4000F70BFF2009F4E0C080919C02382F307FF0
:103D5000E83CF10508F0B2C0311179C0FE2C251302
:103D600023C0941321C0E1101FC08F708061809325
:103D70009C020E94021EC6010E94571D80919C0257
:103D8000F80185838F2D2B960FB6F894DEBF0FBEFA
:103D9000CDBFDF91CF911F910F91FF90EF90DF90FA
:103DA000CF90BF90AF900895AB2829F0842F852342
:103DB0008F3F09F016C180E0F82FF170DF2EE091FF
:103DC00065022091660236E080FD1CC0EE20D1F233
:103DD00080919C02816080939C02F12CD3CF8E2F26
:103DE00090E03E9FF0011124E959FD4F6181651378
:103DF00006C06081641303C06281E612E7CFFC0154
:103E00003196E770E213EBCF4F8358878F81988507
:103E10000E941623292F22952F70903260F0225F86
:103E20002F70223078F49F7051F0F8019581907FC7
:103E300031F4D12C0AC09F7011F08823D1F3805E39
:103E40008830B8F3C8010E94571DFD2C9BCF251365
:103E500006C0941304C0F801EE2009F470C04F832B
:103E600058878F8198850E94BE1D882319F1EE2006
:103E700009F180919C02803270F02091970230917C
:103E800098023A8329831B82BD82AC828E83CE0145
:103E900001960E94571D86E0F801A7E9B2E0019063
:103EA0000D928A95E1F70E94101E0E94021EFF24C7
:103EB000F39468CFC8010E94571DF9CF311113C088
:103EC0007A2DBB86AA866E2D8B850E94C21D87E93E
:103ED00092E00E94571D86E0F60111928A95E9F75B
:103EE0000E94021E7ACF2513BACF9413B8CFE110E7
:103EF000B6CFF8018583C8010E94571D86E0F60100
:103F000011928A95E9F73ECFE83CF10508F040C0F0
:103F1000FE2CEE2079F225132AC0941328C080913C
:103F20009C0280FD1BC0982F907FC1F0F801858313
:103F3000903F31F0982F907F905F8F70892B858311
:103F4000C8010E94571D86E0F801A7E9B2E0019080
:103F50000D928A95E1F70E94021E14CF86E0F801C7
:103F6000A7E9B2E001900D928A95E1F70BCF4F835C
:103F700058878F8198850E94BE1D81118CCF8091BA
:103F80009C02816080939C02C8010E94571DFACE5A
:103F90007A2DBB86AA866E2D8B850E94C21D86E077
:103FA000F60111928A95E9F7D6CFEE2009F482CF77
:103FB0004F8358878F8198850E94BE1DF82E8823D5
:103FC00009F478CF86E0F801A7E9B2E001900D92FC
:103FD0008A95E1F787E992E00E94471A0E94101E35
:103FE000BACF81E08E25E8CE1F93CF93DF93CDB774
:103FF000DEB72C970FB6F894DEBF0FBECDBF4F8350
:10400000588769877A878B879C87CE0107960E949D
:10401000661E882369F08A859B85892B39F04F813C
:104020005885842F85238F3F09F077C016E065C03F
:1040300086E0FE013796DE01119601900D928A9579
:10404000E1F76A857B856115710581F35F8148859C
:10405000842F85238F3F51F32091660230E0C90100
:10406000019687709927E0916502E817190671F4A7
:104070000E94911D109266021092650286E0E7E9A7
:10408000F2E0DF011D928A95E9F7D0CF59834A8388
:104090007D836C8396E0929FD001939FB00D112495
:1040A000A959BD4FFE01319601900D929A95E1F705
:1040B000809366020E94E11DB9CF819FC001112447
:1040C00089599D4F0E94661E8823E9F0E0916502A0
:1040D0001E9FF0011124E959FD4F408151816281F9
:1040E0007381848195810E94D11D8091650290E049
:1040F000019687709927809365028091650290915F
:1041000066028913DACF2C960FB6F894DEBF0FBE85
:10411000CDBFDF91CF911F91089569857A858B85F9
:104120009C850E94D11D82CF08950C9494200E94FA
:1041300095206093EC027093ED028093EE029093D1
:10414000EF020C947F1D08950C949720CF93DF937A
:1041500000D000D0CDB7DEB769837A838B839C8390
:104160008091EC029091ED02A091EE02B091EF02ED
:1041700029813A814B815C81282B392B4A2B5B2B7F
:1041800029833A834B835C83CA01B9010F900F9056
:104190000F900F90DF91CF910C949720CF93DF93E6
:1041A00000D000D0CDB7DEB769837A838B839C8340
:1041B0008091EC029091ED02A091EE02B091EF029D
:1041C00029813A814B815C81282339234A235B234F
:1041D00029833A834B835C83CA01B9010F900F9006
:1041E0000F900F90DF91CF910C949720CF93DF9396
:1041F00000D000D0CDB7DEB769837A838B839C83F0
:104200008091EC029091ED02A091EE02B091EF024C
:1042100029813A814B815C81282739274A275B27EE
:1042200029833A834B835C83CA01B9010F900F90B5
:104230000F900F90DF91CF910C9497200C946E0704
:104240000E941E216093E8027093E9028093EA02C3
:104250009093EB020C947F1D60E070E0CB010C9416
:104260002021382F292FCB01A32FB22F0097A10592
:10427000B10529F481E0442351F080E0089504C0A1
:10428000B695A795979587954A95D2F78170089529
:104290000F931F93CF93DF9300D000D0CDB7DEB73D
:1042A00041E050E060E070E08A019B0104C0000F33
:1042B000111F221F331F8A95D2F709831A832B837C
:1042C0003C83C901B8010F900F900F900F90DF91C0
:1042D000CF911F910F910C9420210F931F93CF9397
:1042E000DF9300D000D0CDB7DEB741E050E060E012
:1042F00070E004C0440F551F661F771F8A95D2F7E0
:104300008091E8029091E902A091EA02B091EB025B
:104310008A019B01082B192B2A2B3B2B09831A831B
:104320002B833C83C901B8010F900F900F900F9021
:10433000DF91CF911F910F910C9420210F931F9328
:10434000CF93DF9300D000D0CDB7DEB741E050E08F
:1043500060E070E004C0440F551F661F771F8A9508
:10436000D2F740955095609570958091E8029091B4
:10437000E902A091EA02B091EB028A019B010823B5
:1043800019232A233B2309831A832B833C83C901E6
:10439000B8010F900F900F900F90DF91CF911F9168
:1043A0000F910C9420210F931F93CF93DF9300D094
:1043B00000D0CDB7DEB741E050E060E070E004C06F
:1043C000440F551F661F771F8A95D2F78091E80228
:1043D0009091E902A091EA02B091EB028A019B015F
:1043E000082719272A273B2709831A832B833C8315
:1043F000C901B8010F900F900F900F90DF91CF91EE
:104400001F910F910C942021CF93DF9300D000D007
:10441000CDB7DEB769837A838B839C838091E80272
:104420009091E902A091EA02B091EB0229813A81D0
:104430004B815C81282B392B4A2B5B2B29833A83B8
:104440004B835C83CA01B9010F900F900F900F90BE
:10445000DF91CF910C942021CF93DF9300D000D037
:10446000CDB7DEB769837A838B839C838091E80222
:104470009091E902A091EA02B091EB0229813A8180
:104480004B815C81282339234A235B2329833A8388
:104490004B835C83CA01B9010F900F900F900F906E
:1044A000DF91CF910C942021CF93DF9300D000D0E7
:1044B000CDB7DEB769837A838B839C838091E802D2
:1044C0009091E902A091EA02B091EB0229813A8130
:1044D0004B815C81282739274A275B2729833A8328
:1044E0004B835C83CA01B9010F900F900F900F901E
:1044F000DF91CF910C9420210895E82F2AE0929F1C
:10450000E00D11248E2F877041E001C0440F8A9581
:10451000EAF7E695E695E69585E0E89FF001112437
:10452000E356FD4F30E020E070E05191DF0111973C
:10453000CB01022E02C0969587950A94E2F781700E
:1045400081958527842385278C932F5F3F4F2530C6
:10455000310559F70895E82F2AE0929FE00D1124C4
:104560009E2F9770E695E695E69585E0E89FF00129
:104570001124E356FD4F50E040E080E0219130E00F
:10458000092E02C0369527950A94E2F72170332749
:10459000042E01C0220F0A94EAF7822B4F5F5F4F6F
:1045A0004530510559F70895BF92CF92DF92EF92AF
:1045B000FF920F931F93CF93DF938C01C090E8027B
:1045C000D090E902E090EA02F090EB028091EC02D8
:1045D0009091ED02A091EE02B091EF02C82AD92A83
:1045E000EA2AFB2ACFE1D0E0BC2ED701C6010C2E6F
:1045F00004C0B695A795979587950A94D2F780FD44
:104600000EC0219788F7B12C8B2DDF91CF911F9190
:104610000F91FF90EF90DF90CF90BF900895B80179
:104620008C2F0E94F709019761F3EECFCF93DF93B0
:10463000D82FC92F0E94D4226D2F7C2FDF91CF91CC
:104640000C94F7091F93CF93DF93162FD72F9091D8
:104650006402992339F0862F972FDF91CF911F9114
:104660000C941623882391F0862F972F0E94D42232
:10467000C82F682F812F9D2F0E947D22612F7D2FB3
:104680008C2FDF91CF911F910C94F709862F972FD4
:104690000E94AB22C82FF2CF682F80912601909103
:1046A00027010C941A25682F8091260190912701EB
:1046B0000C941C2580912601909127010C941E25B5
:1046C0008091F00285958595859508958091F002F9
:1046D000877008959091F002977081E009F480E06E
:1046E00008958091FC0208959091FC02982B90937C
:1046F000FC020895982F90958091FC028923809365
:10470000FC0208951092FC0208959091FB02982BF0
:104710009093FB020895982F90958091FB02892336
:104720008093FB0208951092FB0208951092FA0202
:1047300008958091F102089508950C949C2390911E
:10474000F102981721F08093F1020C949D230895B3
:104750008091F102882329F01092F10280E00C94FC
:104760009D230895E0912601F09127018091FC029C
:104770008083E0912601F091270180819091FB02D6
:10478000892B8083E0912601F0912701808190910F
:10479000FA02892B80839091F102992381F0E091B4
:1047A0002601F09127018081892B80838091260149
:1047B000909127010E94CE2481110E94A82380910C
:1047C0002601909127010C94161908950C94E52365
:1047D00098E0899F90011124622B6093F0020E945F
:1047E0006D218091F0028595859585950C94E62341
:1047F0001092F00280E00C94E6239091F0028095F4
:1048000089238093F002282F277071F4282F082E17
:10481000000C330B9217130639F085958595859515
:104820000E949E210C94F823089590E080E00E945D
:1048300074319C0181E02C3E3E4F09F080E00895E8
:1048400082E090E00C94663183E090E00C94663155
:10485000682F83E090E00C947A31CF9384E090E06D
:104860000E946631C82F81E290E00E946631982F45
:104870008C2FCF910895CF93682FC92F84E090E0BB
:104880000E947A316C2F81E290E0CF910C947A31C2
:10489000AB01BC018FE090E00C948C3183E190E09F
:1048A0000C946E31AB01BC0183E190E00C948C312F
:1048B00060E070E0CB010E9448240C94DB076CEEB2
:1048C0007EEF90E080E00E94983160E082E090E02E
:1048D0000E947A3160E083E090E00E947A31109289
:1048E000EC021092ED021092EE021092EF0260E0E4
:1048F00084E090E00E947A3160E081E290E00E94E2
:104900007A3160E085E090E00E947A3160E086E0F4
:1049100090E00E947A316FEF87E090E00E947A3158
:1049200040E050E0BA0188E090E00E948C3160E005
:104930008DE090E00E947A3140E050E0BA0188E1D9
:1049400090E00E948C3160E087E190E00E947A3133
:1049500040E050E0BA018CE190E00E948C3160E0D0
:1049600080E290E00E947A3140E050E0BA0188E1B4
:1049700090E00E948C310C9458240C945F248EE0BB
:1049800090E00E946631982F81E0911101C080E093
:104990000895682F8EE090E00C947A31AC019C0170
:1049A0002E5F3F4F485F5F4F80E02417350709F4C3
:1049B0000895F90191919F019923B9F38F5FF5CF84
:1049C0009C01662351F0FC013296285F3F4F819194
:1049D000861729F0E217F307D1F780E0089581E008
:1049E00008959C01FC0132968FEF90E041914617AB
:1049F00051F08F3F19F4411101C0892F9F5F96300C
:104A0000A9F78F3F09F40895280F311D87FD3A95C6
:104A1000F901628308959C01FC013296285F3F4FA3
:104A20008191861303C0DF0111971C92E217F307EF
:104A3000B9F708950C94F1240C940B25FC013296DF
:104A400086E0DF011D928A95E9F70895089508959B
:104A50000C9427250E9428258091B005843049F1C7
:104A60001092FE0288E190E020E40FB6F894A89539
:104A7000809360000FBE2093600080E00E94DB09FD
:104A80000E94282583B7817F846083BF83B78160BC
:104A900083BF7894889583B78E7F83BF0FB6F894D1
:104AA000A8958091600088618093600010926000FA
:104AB0000FBE08950895CF930E9426250E94A20C50
:104AC0000E945A25C0E08C2F0E94C40B892B31F420
:104AD000CF5FCC30C1F780E0CF91089581E0FCCF6B
:104AE00008950C9470250E94911D0E940A190E943D
:104AF000DB090C9471251F921FB61F9211248F930E
:104B00009F93AF93BF938091FE02811113C0809158
:104B1000B9049091BA04A091BB04B091BC04419631
:104B2000A11DB11D8093B9049093BA04A093BB0456
:104B3000B093BC04BF91AF919F918F911F901FBE06
:104B40001F90189582E084BD93E095BD9AEF97BDC4
:104B500080936E0008952FB7F8948091B9049091D6
:104B6000BA04A091BB04B091BC042FBF08959C016E
:104B70004FB7F8948091B9049091BA04A091BB0406
:104B8000B091BC044FBF821B930B089578941F9281
:104B90001FB61F9211248F939F93AF93BF93809161
:104BA000B9049091BA04A091BB04B091BC040196E1
:104BB000A11DB11D8093B9049093BA04A093BB04C6
:104BC000B093BC04BF91AF919F918F911F901FBE76
:104BD0001F90189587E797E7909301088093000846
:104BE00088E19AE00FB6F894A895809360000FBE14
:104BF00090936000FFCFCF93DF9300D000D0CDB76C
:104C0000DEB70E941524811102C00E94BD240E94BB
:104C100020248093FD020E942D249093BE04809353
:104C2000BD040E942424282F30E050E040E0CA0157
:104C3000B9010E94A4208091E8029091E902A0911C
:104C4000EA02B091EB0289839A83AB83BC83BC01F7
:104C5000CD010F900F900F900F90DF91CF910C949A
:104C60001E21881F8827881F0895982F81E0983F6C
:104C700008F480E00895982F907F903D69F070F4DB
:104C8000903B31F038F4903A19F0807E803899F4F6
:104C900083E00895903C79F482E00895903EC1F35A
:104CA000903F49F4EFE0E80F813F28F0F0E0EC534B
:104CB000FE4F8081089580E008950F93DC01022F5C
:104CC0000F77242F2F776F70462F406BED91FC915B
:104CD00063E070E009950F9108950F93DC01022FB6
:104CE0000F77242F2F776F70462F4069ED91FC913D
:104CF00063E070E009950F9108950F93DC01022F96
:104D00000F77242F2F776F70462F4068ED91FC911D
:104D100063E070E009950F9108950F931F93DC01F4
:104D20009A01411580E25807C4F44115504EC4F071
:104D3000305E8901000F012F001F110B11952F7795
:104D40006F70462F406EED91FC91119763E070E01B
:104D5000CD0109951F910F9108952FEF3FE3E9CF02
:104D600030E020E0E6CFFC01738362830895FC010C
:104D7000758F648F0895CF93DF93EC011DA21FA25E
:104D80001EA2BC01685D7F4F40EC88519F4F0E947E
:104D9000C0281B821A821D821C821F821E821986D5
:104DA00018861B861A861D861C861F861E86198AF3
:104DB000188A1B8A1A8A1D8A1C8A1F8A1E8A198EC3
:104DC000188E1B8E1A8E1D8E1C8E1F8E1E8E19A283
:104DD00018A2DF91CF910895EF92FF920F931F9346
:104DE000CF93DF93EA018A01060F111D7C0128EEA3
:104DF000E20EF11CC017D10739F4DF91CF911F915A
:104E00000F91FF90EF9008956991C7010E94C72804
:104E1000F1CFFC01718360830895FC0171A360A34D
:104E20000895AF92BF92CF92DF92EF92FF920F93CD
:104E30001F93CF93DF9300D00F92CDB7DEB77C01E5
:104E40006B01142FB22EA02EDC0195968C919597B4
:104E50008430A9F55A96ED91FC913097E9F1CB0198
:104E6000019763E070E00E942F31CB01880F991FFA
:104E7000860F971F4983BA820B834C2D481B9E01D6
:104E80002F5F3F4FBC01C7010995D7015E96ED9199
:104E9000FC91309731F00A2D2B2D412FB601C7011F
:104EA00009950F900F900F90DF91CF911F910F9167
:104EB000FF90EF90DF90CF90BF90AF900895623059
:104EC000710509F452C06330710599F061307105C4
:104ED00009F47AC0D12CC12CD7015C96ED91FC91DC
:104EE000309799F20A2D2B2D412FB601C701099554
:104EF000CCCF842F807F803BF1F058F4803931F1A2
:104F0000803A49F1803841F7D7011696ED91FC912E
:104F100016C0803E29F1803FF9F6423FE9F6D701FD
:104F20001C96ED91FC91202F4B2D62EF3097A1F252
:104F3000C7010995AACFD7011296ED91FC91309740
:104F400059F22A2D4B2D612F6F70F2CFD701149695
:104F5000ED91FC91F4CFD7011896ED91FC91EFCF34
:104F6000D7011A96ED91FC91EACF842F807F803D86
:104F700081F0803F99F0803C09F0AECFD7011E96BA
:104F8000ED91FC91309709F4A7CF4B2D612F6F70F5
:104F900010C0D7015096ED91FC91F4CF433F61F4DE
:104FA000D7015296ED91FC914B2D612F309709F46A
:104FB00093CFC701099569CF413F09F08DCFD70144
:104FC0005496ED91FC91F0CF842F0E9435268823D2
:104FD00059F0D7015696ED91FC91309709F47CCFAA
:104FE000612FC701099551CF163F09F075CFD70141
:104FF0005896ED91FC91F1CFFF920F931F93CF93B1
:10500000DF93EC01162F862F0E943526882391F01E
:10501000FDA081E08DA300E020E0412F61E070E081
:10502000CE010E941127FDA2DF91CF911F910F9118
:10503000FF900895812F0E9431264DA1882309F405
:1050400043C0443029F01AA381E090E09FA38EA3CF
:10505000812F0E943B26823069F1D0F481111EC05D
:10506000103F51F1173FB1F42EA13FA1C90163E0F8
:1050700070E00E942F31FE01E80FF91F12A3B90161
:105080006F5F7F4F7FA36EA30CA12BA14AA10DC020
:10509000833081F01DA21FA21EA2C6CF81E08DA386
:1050A00000E020E0412F61E070E0CE010E94112776
:1050B0001DA2BACF8DA3B8CF84E08DA31AA381E03F
:1050C00090E09FA38EA3B0CF442309F4ADCF2EA1CF
:1050D0003FA1C90163E070E00E942F31FE01E80F9B
:1050E000F91F12A3B9016F5F7F4F7FA36EA38130B9
:1050F000910569F0029709F097CF0CA12BA14AA165
:10510000CE010E9411278DA18430C9F68DCF00E019
:10511000423009F089CFF2CFCF92DF92EF92FF9227
:105120000F931F93CF93DF93EC01E8A1F9A1309780
:1051300009F009956E0188EEC80ED11CC6010E94C7
:10514000F52810E000E0E82EF12C0E151F0548F0C0
:10515000DF91CF911F910F91FF90EF90DF90CF9053
:10516000089560E0C6010E940929682FCE010E94BF
:10517000FC2761E0C6010E9419290F5F1F4FE5CF90
:10518000FC014283748363831182108208951F930C
:10519000CF93DF93EC01162F0E943029282FE9814D
:1051A000F0E0CF0101966A8170E00E9443313881BE
:1051B0003817190641F4822F0E94332980E0DF91CD
:1051C000CF911F9108958B819C81E80FF91F108367
:1051D000898190E001966A8170E00E944331898361
:1051E000822F0E94332981E0EACFCF93DF93EC0135
:1051F0000E94302999812881921740F0C92FC21B43
:105200000E9433298C2FDF91CF910895CA819C0F82
:10521000F5CFFC018081860F9927991F628170E08C
:105220000E94433123813481280F391FF901808185
:1052300008951F93CF93DF93EC01162F0E9430291E
:10524000282F8881810F9927991F6A8170E00E9419
:1052500043318883822FDF91CF911F910C943329A2
:105260008FB7F89408958FBF0895089508950F9308
:105270001F93CF93DF9300D000D000D00F92CDB713
:10528000DEB7182F092FCE0101960E94982B8111AD
:105290000BC027960FB6F894DEBF0FBECDBFDF91CF
:1052A000CF911F910F9108958A810E943B26682F0C
:1052B0008A818D838B818E838C818F8361110AC05B
:1052C0002981243079F0273069F0263069F061E0D7
:1052D0002530C9F6AE014B5F5F4F812F902F0E94A2
:1052E000EC26D1CF63E0F6CF62E0F4CFDF92EF920D
:1052F000FF920F931F93CF93DF9300D000D0CDB7D1
:10530000DEB77B01142FD22E4A832B830C83842F8C
:105310000E943B26811129C082E0E816F10401F1C8
:1053200083E0E816F10439F0EA94EF2869F485E0A7
:10533000173F21F404C087E0073F09F084E0898328
:10534000CE0101960E94932B0F900F900F900F901B
:10535000DF91CF911F910F91FF90EF90DF90089513
:1053600087EFD812EBCF86E0EACF12951F70198332
:10537000E7CF0E94DF0D8FEB94E00E94BB2666E72B
:1053800079E28FEB94E00E94092767E379E28FEBE3
:1053900094E00E940D2765E379E28FEB94E00E9490
:1053A000B72666E379E28FEB94E00C94B326FC0118
:1053B000CB012091B0052430B1F421812F702093CE
:1053C000E90050E040E064E070E00E94582C811158
:1053D0000BC09091E80095FD07C09091E8009E7782
:1053E0009093E800089582E00895FC018091B00553
:1053F000843089F481818F708093E9009091F3006B
:105400008091F200892B49F08091E8008E7780939B
:10541000E8000C94FE2D82E0089580E00895FC01E0
:105420008091B005843059F481818F708093E900B8
:105430008091E80080FF03C0CF010C94F529089506
:10544000FC01CB012091B005243011F080E00895DB
:1054500026812F702093E9002091E80022FFF6CFEB
:105460002091E80025FFF2CF50E040E064E070E0DA
:105470000E94A72C8091E80085FD05C08091E8007E
:105480008B778093E80081E0089580910703089569
:105490000895CF93DF9300D00F92CDB7DEB79091F0
:1054A000B005943019F589836A837B8382E0809309
:1054B000E9008FEF9091E800815095FD06C095EDD1
:1054C0009A95F1F700008111F5CF8091E80085FFF2
:1054D0000DC050E040E063E070E0CE0101960E9414
:1054E000582C8091E8008E778093E8000F900F9001
:1054F0000F90DF91CF910895BC0184E00C94492A6C
:10550000BC0183E00C94492ACF93DF93D82FC92F95
:1055100081E08093E9008FEF9091E800815095FD44
:1055200006C095ED9A95F1F700008111F5CF8091B5
:10553000E80085FF16C050E040E068E070E08D2F85
:105540009C2F0E94582C8091E8008E778093E80071
:1055500088E0ED2FFC2FAFEFB2E001900D928A951D
:10556000E1F7DF91CF9108958091AF05811109C0D6
:105570000E942F2E0E948C2E8091E20084608093E6
:10558000E20008951092AF050895089508950C94CF
:10559000732542E061EC81E00E94AB2D42E261ECB8
:1055A00082E00E94AB2D42E361E883E00E94AB2DD4
:1055B00042E361E884E00C94AB2D8091B205893020
:1055C00089F148F4823009F49DC0833009F458C051
:1055D000813041F008958A3009F484C08B3009F499
:1055E0006AC008958091B105813A09F048C0809160
:1055F000E800877F8093E8008091B5059091B6051B
:10560000892B61F468E08FEF92E070E00E94F62C45
:105610008091E8008B778093E800089560E090E047
:1056200080E0F3CF8091B105813249F58091B505D5
:105630009091B605029718F58091E800877F8093D6
:10564000E8008091E80082FF16C09091F3008091FD
:10565000F200029729F48091F1008B7F813021F4D0
:105660008091F100809307038091E8008B7780930D
:10567000E8000C94DF2D8091B0058111E2CF0895F0
:105680008091B105813AD9F78091B5059091B60521
:10569000892BA9F78091E800877F8093E8008091AB
:1056A000E80080FFFCCF80913E018093F100809163
:1056B000E8008E77DCCF8091B105813201F78091CF
:1056C000B5059091B605892BD1F68091E800877FCA
:1056D0008093E8000E94DF2D8091B30580933E0106
:1056E0000C94911D8091B105813249F68091E800BA
:1056F000877F8093E8000E94DF2D8091B40580931E
:10570000080308958091B105813A09F0B8CF8091DE
:10571000E800877F8093E8008091E80080FFFCCF5D
:1057200080910803C2CFBC0188E291E00C94D72994
:10573000BC0188E291E00C94202A0E94B92984B728
:10574000877F84BF0FB6F894A89580916000886128
:1057500080936000109260000FBE80E890E00FB66A
:10576000F89480936100909361000FBE0E945A19D3
:105770000E942F2E0E948C2E8091E20084608093E4
:10578000E20078940E9414310E94641984E391E04D
:105790000E9405198091B005853059F00E9470195A
:1057A00088E291E00E940F2A0E9462190E94631908
:1057B000F1CF0E942A258091AE05882359F30E94DB
:1057C0005B25882339F30E94422CE4CF0C94E82B0C
:1057D000FC01CB01DA012F2F332723303105D1F023
:1057E00070F42130310509F43EC02230310569F4EE
:1057F0008FE990E026E23DE02D933C93089521321D
:105800003105E9F02232310521F190E080E030E00D
:1058100020E0F2CFCF019927E13059F08230910595
:1058200059F0E2E2FDE0892B81F7849190E09F013D
:10583000E3CFE2E1FDE0F9CFEAEFFCE0F6CF892B20
:10584000B9F06130710509F789E090E021E53DE0AC
:10585000D3CF892B91F061307105B9F682E390E0E6
:1058600027ED3DE0C9CF82E190E025EC3DE0C4CFDB
:1058700089E090E028E33DE0BFCF80E490E029E0BC
:105880003EE0BACF80E189BD82E189BD09B400FE66
:10589000FDCF8091D8008F7D8093D8008091E0006B
:1058A00082608093E0008091E00081FDFCCF08954C
:1058B000AF92BF92CF92DF92FF920F931F93CF933D
:1058C000DF936C01EB018A010E94FE2DF82E8111FD
:1058D00023C00115110539F0F80180819181C81BA1
:1058E000D90BC80ED91EB12CA12C2097A9F08091FC
:1058F000E80085FD22C08091E8008E778093E80063
:1059000001151105A1F0F80180819181A80EB91E41
:10591000B182A08285E0F82E8F2DDF91CF911F916B
:105920000F91FF90DF90CF90BF90AF9008950E94AD
:10593000FE2D8823D1F2F82EEFCFF60181916F0171
:105940008093F1002197FFEFAF1ABF0ACECFAF923D
:10595000BF92CF92DF92FF920F931F93CF93DF936B
:105960006C01EB018A010E94FE2DF82E811123C0EB
:105970000115110539F0F80180819181C81BD90BFF
:10598000C80ED91EB12CA12C2097A9F08091E80057
:1059900085FD22C08091E8008B778093E800011597
:1059A0001105A1F0F80180819181A80EB91EB18284
:1059B000A08285E0F82E8F2DDF91CF911F910F915E
:1059C000FF90DF90CF90BF90AF9008950E94FE2D82
:1059D0008823D1F2F82EEFCF8091F100F601819368
:1059E0006F012197FFEFAF1ABF0ACECFFC01CB01A9
:1059F0002091B7053091B8052617370790F000972A
:105A000029F42091E8002E772093E80040E00097E9
:105A100051F4411108C08091E80082FF31C080E05C
:105A20000895C901F3CF2091B0052223A9F12530B3
:105A3000A9F12091E80023FD2DC02091E80022FD6E
:105A4000EACF2091E80020FFE2CF3091F3002091CF
:105A5000F200009719F02830310558F041E0283065
:105A6000310509F040E02091E8002E772093E8000E
:105A7000CECF41914093F10001972F5F3F4FE9CF87
:105A80008091B005882341F0853041F08091E80095
:105A900083FFC1CF81E0089582E0089583E00895F7
:105AA000FC01CB012091B7053091B80526173707C7
:105AB00090F0009729F42091E8002E772093E800D9
:105AC00040E0009751F4411108C08091E80082FF46
:105AD00032C080E00895C901F3CF2091B0052223A0
