:100000000C9407030C9424030C9424030C949C2557
:100010000C9424030C9424030C9424030C942403C4
:100020000C9424030C9424030C94A41E0C94601EC2
:100030000C94A11F0C9424030C9424030C9424030B
:100040000C9424030C9424030C9424030C94240394
:100050000C9424030C947D1F0C9424030C9424030F
:100060000C9424030C9424030C9424030C94240374
:100070000C9424030C9424030C9424030C94240364
:100080000C9424030C9424030C9424030C94240354
:100090000C9424030C9424030C9424030C94240344
:1000A0000C9424030C9424030C942403050109806C
:1000B000A101850319012AB700150126B700950192
:1000C00075108100C0050C0901A101850419012AE0
:1000D000A002150126A002950175108100C00660DE
:1000E000FF0961A1010962150026FF00952075082E
:1000F00081020963150026FF00952075089102C052
:1001000005010906A101050719E029E715002501E8
:10011000950875018102950175088101050719008F
:1001200029FF150026FF00950675088100050819AE
:1001300001290515002501950575019102950175A7
:10014000039101C067696162616C616E61693A76B1
:1001500069615F676961626172696E6169783220A5
:100160004020302E32322E322D32312D6735613221
:100170006239342D6469727479207C2032303233D4
:100180002D30392D32322D31383A32343A30380070
:10019000000000000000000000000000000000005F
:1001A000000000000000000000000000000000004F
:1001B000000000007E0F00D4FFFFFFC700000078A2
:1001C00000000000000000002A2B280000000000B2
:1001D00000000000000000000000002900000000F6
:1001E0002C1E3420212224342627252E362D373864
:1001F000271E1F202122232425263333362E37386D
:100200001F0405060708090A0B0C0D0E0F1011122A
:10021000131415161718191A1B1C1D2F3130232DF6
:10022000350405060708090A0B0C0D0E0F101112F4
:10023000131415161718191A1B1C1D2F3130354CA5
:10024000417E4D7E597E657E717E467E527E5E7E0B
:100250006A7E767E487E547E607E6C7E787E4B7EA3
:10026000577E637E6F7E7B7E437E4F7E5B7E677EA6
:10027000737E447E507E5C7E687E747E4A7E567EAF
:10028000627E6E7E7A7E497E557E617E6D7E797E4F
:10029000457E517E5D7E697E757E427E4E7E5A7EB3
:1002A000667E727E407E4C7E587E647E707E477E87
:1002B000537E5F7E6B7E777EA842437141713F71B2
:1002C0003D712471227120711E711C714271407147
:1002D0003E713C713A7127712571237121711F7133
:1002E0003F713D713B71397137712A7128712671E7
:1002F000247122713C713A713871367134712D71EB
:100300002B712971277125713971377135713371ED
:10031000317130712E712C712A71287136713471DE
:10032000327130712E71337131712F712D712B71CA
:10033000167C2B003900E100E0002A004C00280068
:10034000E500E4001E00140004001D00E300270087
:10035000130033003800E7001F001A0016001B00CE
:10036000E200260012000F003700E600200008001F
:1003700007000600910025000C000E0036009000DA
:1003800021001500090019002C00240018000D00A0
:1003900010002C00220017000A0005002C0023008A
:1003A0001C000B0011002C000100E50028004C008F
:1003B0002A00E000E10039002B00167CE70038003D
:1003C000330013002700E3001D00040014001E008A
:1003D000E60037000F0012002600E2001B001600A6
:1003E0001A001F00900036000E000C00250091003E
:1003F00006000700080020002C0010000D00180067
:1004000024002C0019000900150021002C00110007
:100410000B001C0023002C0005000A00170022001E
:1004200040524152000000000000000000000000A7
:1004300000000000000000000000000000000000BC
:1004400000000000000000000000000000000000AC
:10045000000000000000000000000000000000009C
:10046000000000000000000000000000000000008C
:10047000000000000000000000000000000000007C
:10048000000000000000000000000000000000006C
:10049000000000000000000001000000000000005B
:1004A0000000000000000000415240520000000027
:1004B000007E0000000000000000000000000000BE
:1004C000000000000000000000000000000000002C
:1004D000000000000000000000000000000000001C
:1004E000000000000000000000000000000000000C
:1004F00000000000000000000000000000000000FC
:1005000000000000000000000000000000000000EB
:100510000902BF00050100A0FA090400000103015F
:10052000010009211101000122440007058103088F
:10053000000109040100020300000009211101006B
:100540000122220007058203200001070503032082
:10055000000109040200010300000009211101004B
:100560000122320007058403200001080B03020169
:10057000010000090403000001010000092401003A
:10058000010900010409040400020103000007241A
:1005900001000141000624020101000624020202BA
:1005A00000092403010301020100092403020401DC
:1005B00001010009050602400005000005250101B2
:1005C000010905850240000500000525010103120F
:1005D00001000200000008EDFEB0F401000102007D
:1005E000011603670069006100620061006C006130
:1005F000006E006100690000000E033300610072AC
:100600000061006800740000000403090400112464
:100610001FBECFEFDAE0DEBFCDBF11E0A0E0B1E05A
:10062000E0ECFFE402C005900D92A839B107D9F7BC
:1006300024E0A8E9B1E001C01D92A034B207E1F7BF
:100640000E94C81F0C948C270C9400000F93262F37
:100650002F778F708068E0915303F0915403042F3B
:10066000482F63E070E083E593E009950F910895CA
:100670000F93262F2F778F708069E0915303F091AD
:100680005403042F482F63E070E083E593E009955D
:100690000F910895AF92BF92CF92EF920F931F9355
:1006A000CF93DF93182FD0915003DF7750E0CA012A
:1006B0008D5E9C4F5C01FC01C081FB01858188231C
:1006C00069F1CF3F11F5C0914F039C2F9F70C595E5
:1006D000C595C595C595C350FCE09F9FC00D1124DD
:1006E000C20F602F6C0F4D2F812F0E9438036E2D8B
:1006F0006C0F4D2F812F0E9438036C2D6C0F4D2FE6
:10070000812F0E943803F501C083DF91CF911F91A3
:100710000F91EF90CF90BF90AF900895CF3F91F0A1
:10072000602F6C0F4D2F812F0E9426036E2D6C0FB2
:100730004D2F812F0E9426036C2D6C0F4D2F812F82
:100740000E9426038FEFF5018083DFCF0F931F9365
:100750009B01305E8901000F012F001F110B1195C5
:100760002F77482F406EE0915303F091540363E0DC
:1007700070E083E593E009951F910F9108950F9321
:10078000262F042F0F77482F406BE0915303F091F1
:10079000540363E070E083E593E009950F910895B9
:1007A000482F20910F039091D60257E0291302C0E1
:1007B00080E0089530E0529FF001539FF00D112426
:1007C000E952FD4F8181681306C08081481303C040
:1007D00085818111EECF2F5F3F4F2770E7CFFC015E
:1007E000AC01445F5F4F8FEF91E32191822728E0B6
:1007F00030E087FF09C0880F892721503109C9F7E8
:10080000E417F50791F70895880FF7CFA3E0B0E05C
:10081000ECE0F4E00C94C2267C01162FD42EC22EFC
:1008200080917803843071F5E0916D03F0916E034F
:100830003097C1F1C701019763E070E00E94EF2695
:10084000CB01880F991F860F971F19834A83CB828C
:100850004E2D481B9E012F5F3F4FBC0183E593E067
:100860000995E0917103F0917203309739F00C2DE6
:100870002D2D412FB70183E593E009952396E8E0FC
:100880000C94DE2682E0E816F10409F45AC083E0F5
:10089000E816F104A9F081E0E816F10409F484C037
:1008A000F12CE12CE0916F03F09170033097C9F2C5
:1008B0000C2D2D2D412FB70183E593E00995D1CF64
:1008C000862F807F803A11F188F48038D1F0E09152
:1008D0005703F0915803803929F7309719F3123FE5
:1008E00049F12C2D4D2D612F6F7027C0803E99F05E
:1008F000803FB1F0E0915503F0915603803B91F6B3
:10090000ECCFE0915903F0915A03E7CFE0915B03FC
:10091000F0915C03E2CFE0915D03F0915E03DDCFE7
:10092000623F09F0BFCFE0915F03F0916003309721
:1009300009F4B8CF2C2D4D2D62EF83E593E0099596
:1009400090CF862F807F803DB9F0803FD1F0E0913D
:100950006103F0916203803C09F0A4CF309709F461
:10096000A1CF812F8D7F4D2D612F6F70813FC9F0F9
:1009700083E593E0099575CFE0916303F0916403FB
:10098000EDCFE0916503F0916603633F39F0613F7D
:1009900009F088CFE0916703F0916803309709F47C
:1009A00081CF4D2D612FE4CFE0916903F0916A036F
:1009B000683F38F4663F09F075CFE0916B03F09122
:1009C0006C03309709F46ECF612F83E593E00995AE
:1009D00048CFE8EDF0E080818E7F80831092E200C6
:1009E0001092DA001092E100A0EEB0E08C918160EC
:1009F0008C9380818F77808319BCA7EDB0E08C91B8
:100A00008E7F8C9380818F7E80831092BF020895A9
:100A10002091E4003091E50095E6A9012091EC00D9
:100A2000822F817020FF06C08091E80080FF06C001
:100A300080E008952091E80022FD1AC08091CC0248
:100A4000882389F0853089F08091EB0085FD0FC007
:100A50002091E4003091E50042175307F9F29150DC
:100A6000E1F684E0089582E0089583E0089581E04E
:100A70000895EF92FF920F931F93CF937C018B0108
:100A80000E940805C82F811117C08091E80085FDDC
:100A90000BC08091E8008E778093E8000E940805E3
:100AA000882399F3C82F08C0F70181917F018093B3
:100AB000F1000150110949F78C2FCF911F910F912F
:100AC000FF90EF900895EF92FF920F931F93CF93B3
:100AD0007C018B010E940805C82F811117C08091ED
:100AE000E80085FD0BC08091E8008B778093E800DB
:100AF0000E940805882399F3C82F08C08091F1004F
:100B0000F70181937F010150110949F78C2FCF9193
:100B10001F910F91FF90EF9008958091CE0287FF73
:100B200013C08091E80082FF06C08091E8008B77B7
:100B30008093E80004C08091CC028111F2CF089527
:100B40008091CC028823D9F38091E80080FFF8CF10
:100B50008091E8008E77ECCF982F9093E900242FB6
:100B6000762F50E0891731F07091EC002091ED0064
:100B70005091F00021FD07C09F5F973071F780937F
:100B8000E90081E008953091EB003E7F3093EB0067
:100B90003091ED003D7F3093ED003091EB003160FE
:100BA0003093EB007093EC002093ED005093F00035
:100BB0002091EE0027FDE0CF80E00895B0E0A0E0B6
:100BC000E4EEF5E00C94C226C8EDD0E088818F7E7B
:100BD0008883E7EDF0E080818160808384E082BFDC
:100BE00081E08093BF0288818E7F888302EE10E0CF
:100BF000F80110821092DA0081EEC82ED12CF60195
:100C0000108288818F778883888180688883888133
:100C10008F7D888319BC1092CC021092CD02109265
:100C2000CB021092CA0290EEE92EF12CF7018081DE
:100C30008B7F808388818160888342E060E080E0F0
:100C40000E94AC05F60180818E7F8083F80180814F
:100C500081608083808188608083F70180818E7FBE
:100C60008083888180618883CDB7DEB7E8E00C940B
:100C7000DE26FC018091D4029091D5028617970759
:100C8000A0F06115710529F49091E8009E7790938A
:100C9000E80090E06115710551F4911108C0809150
:100CA000E80082FF34C080E00895BC01F2CF80915B
:100CB000CC028823C1F18530C1F18091E80083FD29
:100CC00030C08091E80082FDEACF8091E80080FF8B
:100CD000E1CF8091F3002091F200382F611571056A
:100CE00019F02830310558F091E02830310509F02D
:100CF00090E02091E8002E772093E800CBCF8191FF
:100D00008093F100615071092F5F3F4FE7CF8091D1
:100D1000CC02882341F0853041F08091E80083FFC8
:100D2000BECF81E0089582E0089583E0089508959C
:100D30008091C102089587E797E790930108809317
:100D4000000888E19AE00FB6F894A89580936000B7
:100D50000FBE90936000FFCF9C014FB7F894809135
:100D6000BB029091BC02A091BD02B091BE024FBFE8
:100D7000821B930B08952FB7F8946091BB0270917A
:100D8000BC028091BD029091BE022FBF08952FB783
:100D9000F8948091BB029091BC02A091BD02B091E9
:100DA000BE022FBF08959C01FC0132969FEF80E0A8
:100DB0004191461751F09F3F19F4411101C0982FFE
:100DC0008F5F8630A9F79F3F09F40895290F311DE1
:100DD00097FD3A95F90162830895A3E0B0E0E3EF4F
:100DE000F6E00C94C8262091B8023091B902281779
:100DF0003907A1F09093B9028093B802E091B6024E
:100E0000F091B702309751F024E029839B838A83C5
:100E10000680F781E02DCE01019609952396E2E048
:100E20000C94E426A3E0B0E0E8E1F7E00C94C826D7
:100E30002091B4023091B50228173907A1F09093A0
:100E4000B5028093B402E091B602F091B7023097F8
:100E500051F023E029839B838A830680F781E02D6C
:100E6000CE01019609952396E2E00C94E4260895BC
:100E70000895982F907F903BE9F040F49039D1F09D
:100E8000903AC1F09038B1F080E00895903D19F0AB
:100E900020F4903CC9F782E00895903E59F0903FCD
:100EA00099F7815F8F3080F7E82FF0E0E758FE4F29
:100EB0008081089583E00895A7E0B0E0E2E6F7E0DE
:100EC0000C94C5268C0108511F4F8091CC028430B0
:100ED00009F06CC0809127018F708093E9008091A8
:100EE000E80082FF63C08091E80085FF5FC050E0AA
:100EF00040E064E070E0CE0101960E9463058091BD
:100F0000E80085FD05C08091E8008B778093E800BC
:100F1000FA808F2D0E943907282FFD828B818E83C6
:100F20008C818F8321110AC08981843039F1873007
:100F300029F1863029F121E0853039F630E0E5E00D
:100F4000F0E0EC0FFD1FE30FF11DF0804FB7F894B8
:100F5000D8011196EC911197F0E0CF01019612960D
:100F60006C9170E00E940327D8015C915817190614
:100F700049F44FBF3F5F321710F3A7CF23E0DECF16
:100F800022E0DCCF13968D919C911497E80FF91F06
:100F9000F08211968C91119790E0019612966C91C7
:100FA00070E00E940327F8018183E3CF2796E5E0F4
:100FB0000C94E126A4E0B0E0E0EEF7E00C94C32648
:100FC0007B01142FD22E4A832B830C83842F0E9403
:100FD000390781113AC082E0E816F10489F183E013
:100FE000E816F10441F081E0E816F10429F5173F15
:100FF00029F485E004C087E0073F09F084E0898395
:101000008091CC028430C1F4809122018F70809352
:10101000E90050E040E064E070E0CE0101960E94FB
:101020003905811109C08091E80085FD05C08091D6
:10103000E8008E778093E8002496E7E00C94DF26A2
:1010400087EFD812DBCF86E0DACF12951F701983B5
:10105000D7CF80E00895F894E82FE295EF70F0E0A4
:1010600031A1282F2F7081E090E001C0880F2A95D0
:10107000EAF7982F9095932391A392A1892B82A3AD
:101080007894089590917C0292FF10C041E0282F3F
:101090002471243009F040E031E0282F28712830F5
:1010A00009F030E0431711F02CE0822793FF10C0C5
:1010B00041E0282F2471243109F040E031E0282F4D
:1010C0002871283109F030E0431711F02CE0822715
:1010D00030917D0230FF10C051E0282F2171213066
:1010E00009F050E041E0282F2871283009F040E055
:1010F000541711F029E0822731FF10C041E0282F5A
:101100002171213109F040E031E0282F2871283188
:1011100009F030E0431711F029E0822794FD877E23
:10112000089582389105B9F1B0F48133910509F43D
:101130007DC048F48932910509F46DC08A32910569
:1011400009F47BC008958533910509F45FC08933A4
:10115000910509F10895833E9105D9F138F4803E57
:10116000910529F1823E910579F10895863E910518
:10117000D9F1873E910509F43EC0843E910541F5C1
:1011800020917D0221FF24C080917C0284FD19C042
:1011900087EE90E0089520917C02237009F05AC0F8
:1011A00020917D0223FF14C089E290E008952091F0
:1011B0007C0220FD38C030917D0230FF09C024FF41
:1011C00043C090E080E0089520917C0222FDF7CF9B
:1011D000089520917C0222FD3AC030917D0230FDBD
:1011E00039C024FFF5CFEDCF20917C0223FFF0CF53
:1011F00024FDE7CFCDCF20917C0223FD2EC030917E
:101200007D0231FFEECF84EE90E0089520917C02C4
:1012100025FFDECFC9CF20917C0225FD21C0209182
:101220007D0223FFD5CF89E390E0D2CF20917C02CD
:1012300026FFCECF8AE290E0089520917C0226FF1F
:10124000C7CF81E390E0089583EE90E0089582EEA9
:1012500090E0089580EE90E0089586EE90E0089585
:1012600085E390E008951F93CF93DF930E94910848
:10127000EC01C11580E5D807F0F5C11580E4D80769
:1012800008F0AAC0C03ED10520F5CD3CD10508F03C
:1012900090C0C83AD10578F4C53AD10508F081C0AC
:1012A000C130D10519F1209709F1C430D105F0F40E
:1012B000D0E0C0E01BC0C33CD105D0F7C85AD0E095
:1012C000CC0FDD1FCF5CDE4F0990D881C02DD464D8
:1012D0000DC0C11580E2D80708F0C9C0C11581E072
:1012E000D80708F068C0C83ED10510F7CE01DF91DD
:1012F000CF911F910895C03682E5D80718F5C03404
:1013000082E5D80708F079C0C03282E5D80708F036
:101310006DC0C11582E5D80708F48FC02C2F269523
:10132000269580E2289F900111248C2F8370C1E0C4
:10133000D0E002C0CC0FDD1F8A95E2F7C22BD32B81
:10134000DD68D4CFC03C82E5D807F8F4C03A82E526
:10135000D80708F067C0C03882E5D80708F0A8CFE2
:101360002C2F26952695277080E2289F9001112426
:101370008C2F8370C1E0D0E002C0CC0FDD1F8A95B6
:10138000E2F7C22BD32BDA68B1CFC03E82E5D80793
:1013900008F08ECFDC2FCC27CC27DF71C06FD06A4E
:1013A000A5CFC55AD0E0C25DDE4FC881D0E0D06481
:1013B0009DCFD0659BCF8D2F0E944208182FCE0164
:1013C00099270E949108C12FD0E0DC2FCC27CC2791
:1013D000DF71C82BD92B8ACFCE0199270E949108A3
:1013E000CC27DF70C82BD92BD06A80CFCF71D0E04B
:1013F000DC2FCC27C16FD06A79CF2C2F269526956C
:10140000277080E2289F900111248C2F8370C1E007
:10141000D0E002C0CC0FDD1F8A95E2F7C22BD32BA0
:10142000DC6864CF8C2F8F710E944208C82FD0E0F7
:10143000DC2FCC27CC27DF7159CF8C2F8F710E94E6
:10144000420855E0D695C7955A95E1F7CF70D0E0A0
:10145000DC2FCC27282F30E084FF05C044E0220F8A
:10146000331F4A95E1F7C22BD32BD0693FCF8D2F85
:101470008F710E944208182FCE0199270E9491086F
:10148000C12FD0E0DC2FCC27CC27DF71C82BD92B84
:10149000D0622CCF80910F039091D602981301C097
:1014A00008958F5F8770FACF292F9C3078F58A30A6
:1014B00068F590E03AE0239F800D911D1124682F7C
:1014C000677023E0969587952A95E1F7FC01EE0F6A
:1014D000FF1FE80FF91FED55FE4F50E040E080E0A0
:1014E000219130E0062E02C0369527950A94E2F746
:1014F00021703327042E01C0220F0A94EAF7822BB1
:101500004F5F5F4F4330510559F7089580E00895CC
:10151000292F9C3098F58A3088F590E03AE0239F97
:10152000800D911D1124282F277041E001C0440F28
:101530002A95EAF723E0969587952A95E1F7FC012D
:10154000EE0FFF1FE80FF91FED55FE4F30E020E0D2
:1015500070E05191DF011197CB01022E02C09695E8
:1015600087950A94E2F781708195852784238527E2
:101570008C932F5F3F4F2330310559F708958093A7
:101580007B02089590917B0221E030E0F90101C0D7
:10159000EE0F8A95EAF7D90102C0AA0FBB1F6A9520
:1015A000E2F7EA2B01C0220F4A95EAF7892F8E2332
:1015B000E81305C0292B822F0E94BF0A08952095A9
:1015C0002923F9CF21E030E001C0220F8A95EAF704
:1015D000209580917B0282230E94BF0A089521E01A
:1015E00030E001C0220F8A95EAF780917B02822BBE
:1015F0000E94BF0A089580937A0208959B01BA0160
:101600009091CC029430E1F48093E9009FEF8091B7
:10161000E800915085FD06C085ED8A95F1F7000040
:101620009111F5CF8091E80085FF0AC050E040E0BD
:10163000C9010E9439058091E8008E778093E80007
:10164000089543E050E0BC0184E00E94FE0A089542
:10165000CF93DF93EC0148E050E0BC0181E00E94B1
:10166000FE0A88E0FE01A2ECB2E001900D928A959C
:10167000E1F7DF91CF910895B0E0A0E0E2E4FBE074
:101680000C94C0267C015B016A018091130201E089
:1016900010E08A3010F40AE010E0C1E0D0E0B501BB
:1016A000C701F6010995811104C021960C171D0789
:1016B0002CF4CDB7DEB7EAE00C94DC26CC9F900189
:1016C000CD9F300D300D112490E080E045E34A9528
:1016D000F1F70000019682179307C1F7E0CF8091E0
:1016E000ED01811119C088EC90E02091E30027FD05
:1016F00010C0EFE3FCE93197F1F700C0000001975B
:10170000A1F782E08093ED010E94E9041092CC02DF
:1017100003C081E08093ED0181E09091ED01913073
:1017200011F080E0089508950E946F0B882359F00E
:10173000E091B602F091B702309729F00190F08164
:10174000E02D0995089580E008950F931F930E945E
:101750006F0B882329F00E94BB061F910F910895FB
:101760000E94BB0600915C0210915D0220915E0216
:1017700030915F02600F711F821F931FEECFCF93D6
:10178000DF93C9EFD2E060E0CE010E9442272196AC
:10179000C11584E0D807B9F7DF91CF9108951F9361
:1017A000CF93DF93122F8330E0F46C30D0F44A30C3
:1017B000C0F4C42FD0E0CC0FDD1F94E1699FC00DB1
:1017C000D11D112490EF899FC00DD11D1124632FCD
:1017D000CE0189960E944227612FCE018A960E94EF
:1017E0004227DF91CF911F910895AF92BF92CF9280
:1017F000DF92EF92FF921F93CF93DF9380E4C82E86
:1018000082E0D82ED0E07601C0E014C0F501259129
:101810003491412F6C2F8D2F0E94CF0B82E0A80EA8
:10182000B11C1F5F1A3091F784E1E80EF11CCF5F05
:10183000CC3019F0570110E0E9CFDF5F80EFC80E20
:10184000D11CD33001F7DF91CF911F91FF90EF9022
:10185000DF90CF90BF90AF900895CF93C82F6FEFD8
:10186000811163E285E290E00E9442276FEFC1118F
:1018700069E086E290E00E9442276FEFC11162E2C8
:1018800087E290E00E944227CF91089580E00E9475
:101890002D0C60E088E290E00E9442270E94F50B48
:1018A0000E94BF0B81E00E942D0C08950F931F939F
:1018B000CF93DF93833030F56C3020F54A3010F54C
:1018C000C42FD0E0CC0FDD1F24E1629FC00DD11DDD
:1018D000112430EF839FC00DD11D1124CE018996B4
:1018E0000E942427082F10E0102F0027CE018A968F
:1018F0000E9424279801282BC901DF91CF911F91C5
:101900000F91089590E080E0F8CF462F7C3040F4AE
:101910006A3030F4833020F4672F0E94560C08950B
:1019200090E080E00895CF92DF92FF920F931F9393
:10193000CF93DF936C0100917B0280917A02082B98
:10194000C2E0D0E010E0FC2EC8010C2E02C095953C
:1019500087950A94E2F780FD0CC02197A0F7F12C3F
:101960008F2DDF91CF911F910F91FF90DF90CF903E
:101970000895B6018C2F0E94850C0E9433090197AF
:1019800061F3EECFCF93DF93EC010E94930CBE0185
:101990000E94850C0E943309DF91CF910895FC01CC
:1019A00024812223C1F0808191810E94C20C9295F2
:1019B0009F70963091F058F4925F9F70923058F477
:1019C000803F19F030F4883E30F481E008959A5F4A
:1019D000F4CF843FD1F380E00895883EB0F3813F97
:1019E000D1F7F3CFA6E0B0E0E8EFFCE00C94C72617
:1019F00049835A8349815A819923A1F0222391F086
:101A0000CA010E94930C182F682F89819A810E9425
:101A1000880A69817A81812F0E94850C2696E3E0ED
:101A20000C94E326CA010E94540A182FF2CF85E2D3
:101A300090E00E942427833289F486E290E00E949D
:101A40002427893059F487E290E00E94242791E00E
:101A5000823209F090E0892F8170089580E0FCCFF8
:101A6000A4E0B0E0E6E3FDE00C94C72640910F024D
:101A70005091100260911102709112022FB7F894E8
:101A80008091BB029091BC02A091BD02B091BE02B8
:101A90002FBF841B950BA60BB70B11E08436910565
:101AA000A105B10570F10E94A50B6E5F7F4F8F4FAE
:101AB0009F4F69837A838B839C83809111019091DE
:101AC000120182509E4F4091100150E04530510567
:101AD00010F044E050E0BE016F5F7F4F0E9483270B
:101AE00082E090E00E944226182F882351F00E9445
:101AF000BB0660930F0270931002809311029093C3
:101B00001202812F2496E3E00C94E326EF92FF92D9
:101B10001F93CF93DF93CDB7DEB72D970FB6F89411
:101B2000DEBF0FBECDBF7B0190E080E00E94422669
:101B3000182F882309F480C04091030150E041151B
:101B4000510511F041E050E06091040170910501F0
:101B500062507E4FCE010D960E9483274091FA017C
:101B60005091FB016091FC017091FD012FB7F89439
:101B70008091BB029091BC02A091BD02B091BE02C7
:101B80002FBF841B950BA60BB70B84369105A105BF
:101B9000B10540F48FEF91E00E94EF039D85891716
:101BA00009F44AC081E090E00E944226811116C0EB
:101BB00010E08CE0EEEEF1E0D70101900D928A95F5
:101BC000E1F7812F2D960FB6F894DEBF0FBECDBF83
:101BD000DF91CF911F91FF90EF90089540910B01FD
:101BE00050E04D30510510F04CE050E060910C0198
:101BF00070910D0162507E4FCE0101960E948327A5
:101C00008FEF91E00E94EF039D858913D1CF0E9451
:101C1000BB066093FA017093FB018093FC019093E3
:101C2000FD018CE0FE013196AEEEB1E001900D9227
:101C30008A95E1F711E0BDCF8CE0EFEFF1E0DE0136
:101C4000119601900D928A95E1F71111EACFB1CF6B
:101C5000A4E2B0E0EEE2FEE00C94BA268E010F5F43
:101C60001F4F88E1D8011D928A95E9F769E6E62EB3
:101C700061E0F62E68017FE6472E71E0572E66245C
:101C80006394712CF9E78F2EF1E09F2EF70181917B
:101C90007F018F3F09F445C0F894E82FE295EF707B
:101CA000F0E021A18F70A30102C0440F551F8A9557
:101CB000E2F7CA01922F982B91A392A180958923D4
:101CC00082A3789400C0EFE6F1E021E030E0B12C8F
:101CD000A12C41914F3F09F46DC0A42FA295AF7084
:101CE000B0E090968C9190E04F7002C095958795EA
:101CF0004A95E2F780FD5EC0C901A82AB92A220FE1
:101D0000331F8E169F0629F7F701319780818F3F89
:101D100011F00E942B0850EA5A95F1F7D601AD92C6
:101D2000BC92B2E0CB0ED11C4E145F0409F0AECFD2
:101D300048E150E0B80180E692E00E9476270097E3
:101D400041F028E1F801A0E6B2E001900D922A9559
:101D5000E1F700917902892B81F181E08093E5011F
:101D60000E94C7069093E4018093E3018091E30110
:101D70009091E4010E94AC06059718F110E0000F65
:101D8000111F04561D4F4CE050E060E672E0C801A0
:101D90000E947627F12C892B51F08CE0E0E6F2E0EE
:101DA000D80101900D928A95E1F7FF24F3941092E7
:101DB000E50108C090E080E0A0CF8091E5018111AD
:101DC000D5CFF12C0E946F0BE82EE0917902882389
:101DD00009F472C06E01F9E1CF0ED11C8CE0D6017E
:101DE0001D928A95E9F70E2F10E0000F111F04567F
:101DF0001D4F809113028A3030F546E85DE0B60150
:101E0000C8010E943C0B882309F445C040E35DE013
:101E1000B601C8010E943C0B8823E9F1109213021D
:101E20008091780290E0880F991F4CE050E0B60155
:101E300084569D4F0E94762721E02093EC01892B48
:101E4000B1F4E12C22C08091E6019091E7010E945B
:101E5000AC06843F914088F68091EC01882389F399
:101E60008CE0F60111928A95E9F71092EC01A091AD
:101E70007802B0E0AA0FBB1FA456BD4F8CE0FE0154
:101E8000799601900D928A95E1F78E2D8F29A4966F
:101E9000E0E10C94D626809113028F3F31F08F5FE2
:101EA000809313028A3008F4BBCF0E94C706909338
:101EB000E7018093E601D0CFF0E0EE0FFF1FE4567C
:101EC000FD4F8CE0AFEFB1E001900D928A95E1F704
:101ED0008FEF91E00E94EF038093FE0180900B0250
:101EE00090900C02A0900D02B0900E028091E8013B
:101EF0009091E901A091EA01B091EB018816990651
:101F0000AA06BB0609F49DCF8092E8019092E901F0
:101F1000A092EA01B092EB010E946F0BE82E8111B2
:101F200090CF0E94BB06861A970AA80AB90A809227
:101F30005C0290925D02A0925E02B0925F02A5CF19
:101F40008091E0019091DF01892B80939A0148E014
:101F500050E067ED71E08AE991E00E947627892BD5
:101F6000A9F088E0EAE9F1E0A7EDB1E001900D9277
:101F70008A95E1F7E091B602F091B702309731F01F
:101F80000280F381E02D8AE991E00995089510928D
:101F9000E001ECE9F1E086E0DF011D928A95E9F7C6
:101FA00090E080E00E94120790E080E00E94ED0641
:101FB0001092DF010E94A00F0895AAE2B0E0E3EEC4
:101FC000FFE00C94C7268EEC92E02091F100DC013A
:101FD0002D93CD01B2E0863D9B07B9F78091CF02EA
:101FE000833009F472C0B8F4813009F449C08230FA
:101FF00009F4B3C08091E80083FF96C28091CE02BD
:102000009091CF029A3008F08FC2E92FF0E0E257AA
:10201000F84D0C9417278A3009F48EC08B3009F4E0
:1020200071C0893039F78091CE02813219F78091E1
:10203000D2029091D302009711F00297D9F68091C5
:10204000E800877F8093E8008091E80082FF38C035
:102050009091F3008091F200029731F48091F100A9
:10206000813011F0863021F48091F1008093C1021B
:102070008091E8008B778093E8000E948D05BACFAD
:102080008091CE02813A09F0B5CF8091E800877F38
:102090008093E8008091D2029091D302892B61F461
:1020A00068E082EC92E070E00E9439068091E800DE
:1020B0008B778093E8009ECF60E090E080E0F3CFE4
:1020C0008091CC028111C0CF95CF8091CE02813A10
:1020D00009F090CF8091D2029091D302892B09F020
:1020E00089CF8091E800877F8093E8008091E800A5
:1020F00080FFFCCF80912D018093F1008091E8005A
:102100008E77B9CF8091CE02813209F073CF809162
:10211000D2029091D302892B09F06CCF8091E80014
:10212000877F8093E8000E948D058091D002809384
:102130002D010E94C70F5ECF8091CE02813209F03F
:1021400059CF8091E800877F8093E8000E948D0539
:102150008091D1028093C0024DCF8091CE02813A0E
:1021600009F048CF8091E800877F8093E800809154
:10217000E80080FFFCCF8091C002BECF803899F08C
:10218000823809F0D1C18091D2028F70873008F077
:10219000CBC18093E9008091EB0085FB882780F913
:1021A0001092E90006C08091CA029091CB02911171
:1021B00082609091E800977F9093E8008093F1000F
:1021C0001092F1008091E8008E77AAC1882309F46B
:1021D00098C1823009F0A8C18091D00281119BC1C1
:1021E0008091D2028F702FEF280F263008F09CC10B
:1021F0008093E9002091EB0020FF8DC1933031F4F2
:102200008091EB0080628093EB0085C19091EB00A0
:1022100090619093EB0021E030E001C0220F8A959D
:10222000EAF72093EA001092EA008091EB008860C0
:10223000EACF811179C11091D0021F778091E3001C
:102240008078812B8093E3008091E800877F8093E2
:10225000E8000E948D058091E80080FFFCCF80910E
:10226000E30080688093E30082E0111183E08093B3
:10227000CC025AC18058823008F056C12091D00259
:102280003091D1022C3DE3E03E07A1F583E08A8343
:102290008AE289834FB7F894DE01139620E03EE08E
:1022A00051E2E32FF0E050935700E49120FF03C088
:1022B000E295EF703F5FEF708E2F90E0EA30C0F054
:1022C000C7968D939D932F5F243159F74FBF80910F
:1022D000E800877F8093E8006AE270E0CE01019613
:1022E0000E9439068091E8008B778093E8001CC13A
:1022F000C096E7CF8091D2029091D302432F552709
:102300004330510509F44AC078F54130510509F4CC
:102310007AC08FEB90E0E0E1F5E04230510509F042
:1023200003C12091E800277F2093E8002091D40288
:102330003091D5028217930708F49C0140E02115E3
:10234000310509F065C0411163C08091E80082FD4C
:10235000C9CF8091CC02882329F2853019F280916F
:10236000E80083FFF2CFBECF4132510509F43CC0F3
:102370004232510509F0D8C08330910508F0D4C02D
:10238000FC01EE0FFF1FE557FE4F0190F081E02D9D
:1023900088579E4FDC018C9190E01AC03327213082
:1023A0003105D1F02115310561F02230310509F0F8
:1023B000BBC0E1EEF5E0E4918E2F90E0E1EEF5E0B8
:1023C00007C0E9E0F6E0E4918E2F90E0E9E0F6E066
:1023D000009709F4A9C0A5CFE9EFF5E0E4918E2FAD
:1023E00090E0E9EFF5E0F4CF8330910508F09CC070
:1023F000880F991FFC01EF56FE4F0190F081E02DF0
:1024000089E090E08ECF82E190E0EFECF5E089CFBB
:102410008091CC02882309F465CF853009F462CF1E
:102420008091E80083FD5ECF8091E80082FD8DCF32
:102430008091E80080FF83CF9091F3008091F200BB
:102440002115310519F08830910550F041E00897C9
:1024500009F040E08091E8008E778093E8006FCF2C
:1024600044914093F1003196215031090196E8CF13
:10247000803809F059C08091E800877F8093E80098
:102480008091CD028093F1009DCE81114DC01091BD
:10249000D002123008F048C08091E800877F809316
:1024A000E8001093CD020E948D05112311F084E005
:1024B00005C08091E30087FDFACF81E08093CC02D4
:1024C00042E061EC81E00E94AC0542E261EC84E014
:1024D0000E94AC0542E261EC82E00E94AC0542E25F
:1024E00060EC83E00E94AC0542E361E885E00E9475
:1024F000AC0542E360E886E00E94AC058091CC0226
:1025000013C08091D002813079F481E0933009F0DA
:1025100080E08093CB021092E9008091E800877FF1
:102520008093E8000E948D058091E80083FF0AC037
:102530008091E800877F8093E8008091EB008062C3
:102540008093EB00AA96E3E00C94E3260E94C70F69
:102550002FEF84E39CE0215080409040E1F700C0E1
:10256000000088E19AE00FB6F894A8958093600087
:102570000FBE90936000FFCF882341F0809590912B
:10258000E00189238093E0010E94A00F0895882331
:1025900039F09091E001982B9093E0010E94A00FF8
:1025A00008958823C1F19CEF980F913A78F4ECE9F3
:1025B000F1E09191891303C0DF0111971C9241E072
:1025C000E23AF407B1F70E94A00F089590E2980F45
:1025D000983088F4877021E030E0A90102C0440FF0
:1025E000551F8A95E2F7CA0180959091E0018923F1
:1025F0008093E001E8CF9BE5980F933028F490E0BA
:1026000080E00E9412070895885A8B3120F490E0F0
:1026100080E00E94ED060895CF93C82F8823B1F083
:102620008CEF8C0F813A00F5ECE9F1E082EA91E061
:10263000DF012D91C21761F08A179B07D1F76C2F2C
:102640008AE991E00E94D3060E94A00FCF910895DD
:102650002191C21303C0DF0111971C928E179F07AF
:10266000B9F70E94A00FEBCF80E28C0F883068F49E
:10267000C77021E030E001C0220FCA95EAF78091CF
:10268000E001822B8093E001DFCFEBE5EC0FE3303C
:1026900040F4F0E0E25DFE4F808190E00E9412077E
:1026A000D5CFC85ACB3190F6EC2FF0E0EE0FFF1FDC
:1026B000EF5CFE4F808191810E94ED06C7CF1F9392
:1026C000CF93DF93182FCAE0D0E0893311F4C0E52F
:1026D000D0E0812F0E940C138FE99FE00197F1F762
:1026E00000C000002197C1F7812F0E94D112DF9115
:1026F000CF911F9108950F931F93CF93DF93C62F10
:10270000D42F022FFC0185818823A9F06093120346
:102710000E94C7069093110380931003C77081E055
:1027200001C0880FCA95EAF70E94C712DF91CF91C6
:102730001F910F91089580911203681332C0809108
:102740001003909111030E94AC06883C910548F556
:1027500010E21D0FCD17B9F080E28C0F883040F4E5
:10276000C77081E001C0880FCA95EAF70E94BC12C9
:10277000183048F481E09D2F977001C0880F9A951A
:10278000EAF70E94C712802F0E945F13183070F67C
:10279000D77081E001C0880FDA95EAF70E94BC1279
:1027A000C5CFC77081E001C0880FCA95EAF7F6CFA0
:1027B000B0E0A0E0EEEDF3E10C94C326E82FF0E0EA
:1027C000E054FE4FD490282F26952695269530E08C
:1027D000F901E055FE4F0491877010E0082E02C009
:1027E000159507950A94E2F701701127F901E05653
:1027F000FE4FE490F12C082E02C0F594E7940A9461
:10280000E2F791E0E922FF24F901E057FE4FC4917D
:10281000D0E002C0D595C7958A95E2F7C170DD2753
:102820000115110519F081EE0E940C13E114F10459
:1028300019F086EE0E940C138D2D0E945F13E11497
:10284000F10419F086EE0E94D1120115110519F05C
:1028500081EE0E94D112CD2B19F08CE20E945F1301
:10286000CDB7DEB7E7E00C94DF26A8E0B0E0EBE3FD
:10287000F4E10C94BE264C01DC0114968C91149763
:10288000882309F4B5C021E04C9111965C91119711
:1028900012966C91129713967C91139715969C91B2
:1028A0000E94F20C5C01F4018581882309F4E8C0E0
:1028B000950137572038310508F0E2C01A2D103144
:1028C00008F096C08FEF93E00E942427811190C0FA
:1028D00029EF822E22E0922E111157C0FE0133966D
:1028E00086E0DF011D928A95E9F79AE0B92E84010E
:1028F0000F5F1F4FC4010E94242789831A828823F7
:1029000009F476C0813009F077C07401B2E0EB0EB3
:10291000F11CC8010E9424278A83882309F468C017
:102920009FEF980F933008F03EC0E3E08E0E911CAD
:10293000C7010E9424278B83882309F459C01C8275
:102940008E010F5F1F4FD8018C91882381F2813057
:1029500009F093C011968C911197813009F04EC007
:102960007801B2E0EB0EF11CF80182810E945F1346
:1029700087010F5F1F4F8BE0815029F3EFE9FFE0E4
:102980003197F1F700C00000F7CF8114F4E09F0603
:1029900079F1C4010E942427811101C011502FEF49
:1029A000821A920A99CF4701843051F602E010E072
:1029B0004701FFEF8F1A9F0AC7010E942427E1E019
:1029C000F0E0EC0FFD1FE00FF11F8083882381F002
:1029D0008C3741F4E2E0F0E0EC0FFD1FE00FF11F57
:1029E0001082AECF0F5F1F4F74010730110501F742
:1029F0002896ECE00C94DA264801A2CF823049F404
:102A00007801F2E0EF0EF11C12968C910E940C13EB
:102A1000AFCF833049F47801B2E0EB0EF11CF8013E
:102A200082810E94D112A4CF843019F00F5F1F4F12
:102A3000A0CF12962C910E5F1F4F90E080E0A8016E
:102A40004F5F5F4F2053330B2A30310550F0019711
:102A500008F48FCFAFE9BFE01197F1F700C0000095
:102A6000F6CFB89EB001B99E700D1124C901860F32
:102A7000971FF80121818A01E2CF0E94D81379CFF4
:102A800040EC4A0DF4E6AF16FEE7BF0608F04CC076
:102A900028E5A2162EE7B20608F00AC13CE4A31608
:102AA0003EE7B30608F0F7C090E4A9169EE7B90622
:102AB00008F0AEC0A114AEE7BA0609F44AC0F3E8C4
:102AC000AF16F1E7BF0608F07CC123E7A21621E7A5
:102AD000B20608F0ABC234E6A31631E7B30608F03D
:102AE00013C147E5A41641E7B40608F04DC285E5D9
:102AF000A81681E7B80608F0EDC09BE4A91691E797
:102B0000B90608F01DC2A3E0AA16A1E7BA0608F0AC
:102B1000E0C1F501E851FC47E730F10508F073C367
:102B2000E856F84D0C941727B0E7AB16BEE7BB0686
:102B300008F4C7C0ECE7AE16EEE7BE0608F0BFCF5C
:102B400096E0C92E23E0E22E00E0950125553D4098
:102B5000AAC0882309F457C3B4E4EB2EB1E0FB2EDE
:102B60008AE0D82EF7018491882309F44CC3813080
:102B700009F04AC087010F5F1F4FF801849181302F
:102B800059F40F5F1F4FF80184910E945F13780181
:102B9000EFEFEE1AFE0AE6CF823041F487010E5FB6
:102BA0001F4FF80184910E940C13F1CF833041F440
:102BB00087010E5F1F4FF80184910E94D112E7CF69
:102BC000843029F787010E5F1F4FF801249190E0B0
:102BD00080E0F80131962053330B2A30310548F05C
:102BE0000197A8F2AFE9BFE01197F1F700C000002C
:102BF000F7CFD89EA001D99E500D1124C901840F92
:102C0000951F24918F01E5CF0E94D8138701BFCF74
:102C100090915003E92EE894E7F8042F10E00D5E40
:102C20001C4FD801FC90BFEF882321F1FB1247CF46
:102C300060914F03862F8F70F62EF594F594F594DE
:102C4000F594ECE08E9FF00C1124B50161537D40AA
:102C5000F60EADEFDA2EDF0C4E2D6D2D80E00E94CA
:102C6000380369E06F0D4E2D80E00E943803D801D3
:102C7000DC9225CFFB1659F04E2D6F2D80E00E947F
:102C800026036CE06F0D4E2D80E00E9426038FEF2F
:102C9000F801808314CFE7E0CE2EF4E0EF2E00E0C1
:102CA000950121533D40B40180E00E944A0307CFC3
:102CB00067E0C62E73E0E72E00E095012D533D40FE
:102CC000F2CF3AE0C32E57E0E52E04E095012954F7
:102CD0003D40E9CFB5E5AB16B1E7BB0609F441C10C
:102CE000E6E5AE16E1E7BE0609F013CFF4018581F3
:102CF000882309F47DCE80914F03982F9F709930DF
:102D000008F076CE9F5F3AC1F1E7AF16BF06D8F55F
:102D100026E6A21621E7B20608F059C134E6A3164A
:102D200031E7B30609F43FC145E6A41641E7B4060E
:102D300009F0EFCED40115968C91882309F458CE72
:102D400020914F03822F85958595859585958630B1
:102D50000CF04ECE91E0980F9295907F95959595B9
:102D600095959595392F3295307F2F70232B209391
:102D70004F0318160CF03CCE97FF3ACE8295807F19
:102D8000922F9F70FDC081E7A816B80609F433C1E1
:102D900092E7A91691E7B90609F0BBCEF401858147
:102DA000882309F425CE80915003982F9F779F3771
:102DB00009F41ECE933708F037C1935F9F77807870
:102DC00031C1A9E8AA16A1E7BA0609F48DC108F035
:102DD00040C0E5E8AE16E1E7BE0609F45DC100F5C6
:102DE00023E8A21621E7B20609F437C134E8A31696
:102DF00031E7B30609F08DCED40115968C91882366
:102E000009F4F6CD20915003322F331F3327331F9F
:102E100090915103892F8770880F832B8F5F2FC16B
:102E2000D40115962C918091500390915103B7E8ED
:102E3000AB16B1E7BB0609F443C108F04BC140E053
:102E400021114FE7881F8827881F9770990F60E42A
:102E500033C1FCE8AF16F1E7BF0609F468C1A8F476
:102E60003AE8A31631E7B30609F44FC14BE8A416BC
:102E700041E7B40609F04DCED40115968C9181112D
:102E800054C18FEF80939802B3CD8EE8A81681E7E6
:102E9000B80609F486C108F46CC1AFE8AA16A1E728
:102EA000BA0609F036CE80915003982F991F9927C2
:102EB000991F809151038770880F892BD401159633
:102EC0009C916FEF7FE1992309F47CC10E94A603D6
:102ED0008FCD40915003942F991F9927991F80916E
:102EE00051038770880F892B4F770DEF0A0D10E083
:102EF0000C5E1D4FF8016081D40115969C919923B9
:102F0000B9F06F3F09F074CD90914F03292F2F70C6
:102F100095959595959595959350BCE02B9F900D23
:102F20001124A90E6A2D0E943803F801A08260CDF9
:102F30006F3F11F00E9426038FEFD8018C9358CD7C
:102F4000F4018581882309F453CDF5EBAF0E2A2DCA
:102F50002F70A22E80914F03807FA82AA0924F034A
:102F600047CDD40115968C91882309F441CD8091E9
:102F70004F03982F9F7009F43BCD915F9F70807F26
:102F8000892B80934F0334CDD40115968C918823DF
:102F900009F42ECDB3EAAB0EA29480EFA822809163
:102FA0004F038F70DACFF4018581882309F420CD97
:102FB00080914F03982F95959595959595959B3F65
:102FC0000CF416CD915F9295907F8F70D9CFF4015C
:102FD0008581882309F40CCDFAE9AF0E8CE0A89E18
:102FE000A02C1124E894A7F8809150038078A82A97
:102FF000A0925003FDCCD40115968C91882309F43E
:10300000F7CC80915003982F9F7709F4F1CC80780A
:103010009F3721F4856780935003EACC9D30D8F325
:103020009D509F77892BF7CF8F67F5CFD4011596E9
:103030008C91882309F4DCCCEDE8EA0D80915003F3
:10304000E0FB87F980935003E695E7708091510388
:10305000887FE82BE0935103CBCCF4018581882352
:1030600009F4C6CC20915003322F331F3327331F6E
:1030700090915103892F8770880F832B815F382FA0
:103080003F7080FB27F920935003832F8695987F0C
:10309000982B90935103ACCCF4018581882309F4DB
:1030A000A7CC90915003991F9927991F80915103A4
:1030B0008770880F40E06BE7892B0E94BF0398CC94
:1030C00040E021114FE7881F8827881F9770990FCC
:1030D00061E4F2CF40E021114FE7881F8827881F65
:1030E0009770990F62E4E8CFD40115968C9140E077
:1030F00081114FE790915003991F9927991F809153
:1031000051038770880F63E4D7CFF401858140E0D5
:1031100081114FE790915003991F9927991F809132
:1031200051038770880F64E4C7CF81E0ABCEF40110
:103130008581882309F45CCC90915103292F269531
:10314000269526952F7081E0820F8F70880F880F4B
:10315000880F9778892B80935103982F987709F0DF
:1031600047CC220F220F220F8778822B80935103A6
:103170003FCCD40115968C91882309F439CC8091E9
:103180005103982F987709F433CC982F96959695FC
:103190009695915F9F70990F990F990F8778892B5A
:1031A000E5CF80915003982F991F9927991F8091FF
:1031B00051038770880F892BF401958160E070EED0
:1031C000911184CE70E060E081CE26E241EE61EEA6
:1031D000C4010E947B130CCC27E245EE65EEF8CFCC
:1031E00026E241EE60EEF4CF27E245EE64EEF0CF4A
:1031F00026E241EE62EEECCF27E245EE66EEE8CF46
:1032000028E241E0EBCFF4018581882309F471C203
:1032100010921203950130572332310508F052C243
:1032200084E090E00E942C2790937D0280937C02A2
:10323000F501E150F047E232F10520F4E156F84D96
:103240000C94172780917C02816080937C0295C04A
:1032500080917D02886080937D028FC080917C0286
:103260008260F3CF80917C028460EFCF80917C02FA
:103270008860EBCF80917D028160EDCF80917D02EF
:103280008260E9CF80917C028061DFCF80917C02F7
:103290008062DBCF80917C028064D7CF0E94C70F11
:1032A00080917C028068D1CF80917C028C60CDCFF0
:1032B00080917D028360CFCF80917C028E7FC5CFCD
:1032C00080917D02877FC7CF80917C028D7FBDCFAB
:1032D00080917C028B7FB9CF80917C02877FB5CFB4
:1032E00080917D028E7FB7CF80917D028D7FB3CF9D
:1032F00080917C028F7EA9CF80917C028F7DA5CFAB
:1033000080917C028F7BA1CF0E94C70F80917C02AD
:103310008F779BCF80917C02837F97CF80917D02B6
:103320008C7F99CF80917C0282FB992790F921E0D4
:10333000922790FB82F990FB83F987CF80917D02E1
:10334000982F909591708E7F892B90FB81F983CF78
:1033500090917C02892F8F7B96FF806476CF0E94AC
:10336000C70F90917C02892F97FB87F980586DCF0A
:1033700061E08EE090E00E94422760917C027091B3
:103380007D0284E090E00E9460270E94C70F30CB4E
:1033900060E0EFCF90917C02892F8F7E94FF806157
:1033A00054CF90917C02892F8E7F90FF81604DCF0A
:1033B00090917D02892F877F93FF88604CCF85E3B2
:1033C000A2C181E00E94EF0A03C081E00E94E20AEC
:1033D00043E062E081E00E94C20A0ACB82E0F6CFBD
:1033E00082E0F0CF6FEF7FEF90E080E00E946027F7
:1033F0000E94A612C8010E94540AF82ED5C1092FB6
:103400000F70907F11F00295007F812F2223C9F069
:10341000002369F090E2910F983010F011110BC069
:103420008091E001082B0093E0010E94A00F812F02
:103430000E940C1317C08091DF01082B0093DF015D
:10344000F4CF0E94D112002369F00095105E18306D
:1034500010F0F1101BC08091E00108230093E001FF
:103460000E94A00F98E0A91AB108A4E0AA16B1041E
:1034700010F40E94940B20E0F4014081518162819C
:103480007381848195810E94F20CB2CA8091DF0120
:1034900008230093DF01E4CF892F8F70907F903253
:1034A00011F08295807FF1E0FF120CC0222329F0F9
:1034B0003630C0F60E94C712D5CF353098F60E943C
:1034C000BC12D0CF222319F03323A1F3B0CF332382
:1034D000B1F3193309F0EEC02FEF37EE43E021507E
:1034E00030404040E1F700C00000812F0E94D1121F
:1034F000B9CF892F86958695837061F0813009F068
:10350000B1CF812F9370211102C080E090E00E9422
:10351000ED06A8CF812F9370211102C080E090E0CA
:103520000E9412079FCF892F8370A1F521119ACF96
:10353000812F829586958770880F880F412F4F7055
:10354000082E01C0440F0A94EAF7212F207114FFBE
:1035500007C02FE030E001C0220F8A95EAF72095DE
:10356000969596959370923081F0822F842B9330AC
:1035700030F480917A02913029F0242B82230E942A
:10358000FB0A70CF842B822BFACF242B80917A02F6
:103590008227F5CF8695222311F0892F8170882309
:1035A00009F460CF812F829586958770880F880FE8
:1035B000412F4F70082E01C0440F0A94EAF7212FC3
:1035C000207114FF07C02FE030E001C0220F8A9560
:1035D000EAF72095969596959370923081F0822F18
:1035E000842B933030F480917B02913029F0242B8E
:1035F00082230E94BF0A36CF842B822BFACF242B42
:1036000080917B028227F5CF092F0F70222329F0AA
:10361000802F0E94EF0A812F4DCF812F0E94BC1274
:10362000802F0E94E20A1ECF812FA1EF1A1789F185
:10363000A11750F0B0EF1B17B9F02223B1F13111EF
:10364000F6CE892F8F7129C0E2EF1E1749F1F3EFF3
:103650001F13F3CF80E0222361F29F7181E001C04C
:10366000880F9A95EAF7C5CF222379F0353008F014
:10367000F9CE292F2F7181E090E001C0880F2A95A3
:10368000EAF790917B028927B4CF363008F0EACE72
:10369000F0CF892F8F71222321F20E94EF0AE2CE10
:1036A000892F8F712223C9F3BCCF332341F0893393
:1036B00009F412CF8FE39CE90197F1F714CF892F1A
:1036C0008F71AFCFF6E1AF16FCE7BF0651F58091E1
:1036D000E0018A7A91E009F490E09093A20169E216
:1036E000811165E38AE991E00E94D3060E94A00F50
:1036F0007FC926E1A2162CE7B206E1F58091A2016E
:1037000081115DCE89E2ECE9F1E022EA31E09191AC
:10371000891303C0DF0111971C922E173F07B9F7D9
:10372000E5CF37E7A3163CE7B30609F44ACE48E7EE
:10373000A4164CE7B40609F453CEF1E0AF16FCE74B
:10374000BF0609F455CE23E0A2162CE7B20609F411
:1037500049CEA1143CE7B306C9F40E94C70F4FEF4E
:1037600084E39CE0415080409040E1F700C00000BD
:103770000E949B0697E7A9169CE7B90609F425CE97
:10378000A8E7AA16ACE7BA0609F428CED4010D9131
:103790001C91882309F42ECEC8010E94930CF82EA8
:1037A000682FC8010E94880AB8018F2D0E94850CDD
:1037B0000E943309182FF82EF401258136813295A5
:1037C0003F70892F82958F70A82EB12C8C3008F015
:1037D00049CEF501EF53F84D0C941727CF93DF93A3
:1037E0008091D601807F09F04DC08091D50188235A
:1037F00009F448C0E0910F035091D602C091D10165
:10380000D091D0016091D2017091D30147E05E1751
:10381000C9F18E2F90E0E49FF0011124E952FD4F91
:103820002481222391F1489FF001499FF00D11243A
:10383000DF01A952BD4F11962C9111972C1325C071
:103840002C912D1322C015962C91159721111DC076
:1038500012962D913C91261B370B283C3105A8F47C
:103860008091D6018F7080618093D601E352FD4F25
:1038700080818F708061808380ED91E00E9435149B
:103880000E944A0ADF91CF910895FC013196E770BA
:10389000BECFA4E1B0E0EFE4FCE10C94BE268C01C5
:1038A00086E0F801DE011F9601900D928A95E1F7FE
:1038B000F8018481E58090EDA92E91E0B92E9091D8
:1038C000D401911128C0882319F1EE20F1F0C8012C
:1038D0000E94CF0CF82E8823C1F087E0F801D501B3
:1038E00001900D928A95E1F78091D401813031F4F5
:1038F0008091D0019091D1010E94C20C0E94EE1BD8
:103900008F2D6496ECE00C94DA26C8010E943514E1
:10391000FF24F394F5CFD080C18082809380F09013
:10392000D5012091D2013091D301A401421B530B48
:10393000FF2009F4D9C0483C510508F092C0882303
:10394000F9F29091D1018091D601282F207F09F0C2
:1039500056C0C91214C09091D001D91210C0E11004
:1039600048C08F7080618093D60180ED91E00E9405
:1039700035148091D601F8018683F12CC1CFE11076
:1039800038C06C2D8D2D0E94D0036C2D8D2D0E9482
:10399000D003E82E8111F1CFDF86C88A8F85988900
:1039A0000E94C20C292F22952F70243058F49F704A
:1039B000223088F0992399F0F8019681907F79F46C
:1039C000FE2C9ECF2A5F2F70223068F0C8010E9423
:1039D0003514EF2CF5CF992311F0882389F3805EFD
:1039E000883070F3F3CF803F58F3815F833070F7F6
:1039F000E7CF8091D60181608093D601BECFC912F6
:103A000007C09091D001D91203C0EE2009F48DC0F7
:103A1000C8010E94CF0C882309F477CFEE2009F467
:103A200074CF8091D601803288F02091D0013091FE
:103A3000D101398728879B868A869091D4019C87FB
:103A40001D868E87CE0108960E94351487E0F80106
:103A5000A0EDB1E001900D928A95E1F70E94EE1B76
:103A600057CF9091D601292F207F51F480ED91E01E
:103A70000E94351487E0F50111928A95E9F77DCF10
:103A8000882309F43DCF8091D1018C1110C0809121
:103A9000D001D8120CC0E1100AC09683C8010E9460
:103AA000351487E0F50111928A95E9F729CFC8010D
:103AB0000E94CF0C882309F428CFEE2009F425CFEB
:103AC0008091D601803210F22091D0013091D10145
:103AD0003A8329839C828B829091D4019D831E829C
:103AE0008F83CE010196B0CF483C5105D0F6882394
:103AF00009F40ECFFE2CEE2009F407CF8091D101FE
:103B00008C1120C08091D001D8121CC08091D601A8
:103B100080FD0FC0982F907F61F08683903F31F039
:103B2000982F907F905F8F70892B8683C8010E94A9
:103B3000351487E0F801A0EDB1E001900D928A956F
:103B4000E1F7DECEC8010E94CF0C81117FCF8091BA
:103B5000D60181608093D601C8010E943514D0CE71
:103B6000ABE1B0E0E6EBFDE10C94C6264E8B5F8B3B
:103B7000688F798F8A8F9B8F192F91111092DF0197
:103B80001D8A86E0FE017696DE011F9601900D9259
:103B90008A95E1F70A8D002341F021E04F8558898D
:103BA00069897A89C8010E94F20C0B8B1C8B87E013
:103BB000FE013F96DE01189601900D928A95E1F77D
:103BC000CE0108960E94491C81110CC087E0FE01BD
:103BD0003896DE01119601900D928A95E1F78C8559
:103BE00081110BC017E080910F039091D6028913C9
:103BF00031C06B96E4E00C94E2262091D60230E0CE
:103C0000C90101968770992740910F03481719063B
:103C100099F097E0929FD001939FB00D1124A95283
:103C2000BD4FFE01319601900D929A95E1F7809378
:103C3000D6020E944A0AD6CF0E94C70F1092D6021F
:103C400010920F0387E0E0EDF1E0DF011D928A950D
:103C5000E9F7C8CF819FC001112489529D4F0E946E
:103C6000491C882331F280910F0390E00196877000
:103C7000992780930F03B7CFA6E0B0E0E2E4FEE11E
:103C80000C94C6260E94C7068C018091E101909198
:103C9000E2018017910781F019821A820E94C706FB
:103CA000682F49815A81792F80E090E00E94B01DF1
:103CB0001093E2010093E1012696E4E00C94E226E1
:103CC0001F920F920FB60F9211242F933F934F9391
:103CD0005F936F937F938F939F93AF93BF93CF9394
:103CE000DF93EF93FF93D091E900DF708091EC00B8
:103CF000C82FC17080FDC0E81092E9008091F000EB
:103D0000877F8093F00078940E94DD0F1092E90085
:103D10008091F00088608093F000CD2BCF70C0932D
:103D2000E900FF91EF91DF91CF91BF91AF919F910A
:103D30008F917F916F915F914F913F912F910F9054
:103D40000FBE0F901F9018951F920F920FB60F92F3
:103D500011242F933F934F935F936F937F938F9390
:103D60009F93AF93BF93EF93FF938091E10082FF06
:103D700009C08091E20082FF05C08091E1008B7F45
:103D80008093E1008091DA0080FF24C08091D80008
:103D900080FF20C08091DA008E7F8093DA008091CE
:103DA000D90080FF9DC080E189BD82E189BD09B451
:103DB00000FEFDCF81E08093CC028091BF02811193
:103DC00009C00E94E9040E94DE058091E20084603F
:103DD0008093E2008091E10080FF17C08091E200B3
:103DE00080FF13C08091E2008E7F8093E20080917B
:103DF000E20080618093E2008091D800806280932D
:103E0000D80019BC85E08093CC028091E10084FF4A
:103E10002BC08091E20084FF27C080E189BD82E150
:103E200089BD89B5982F917080FFFBCF8091D80014
:103E30008F7D8093D8008091E1008F7E8093E10098
:103E40008091E2008F7E8093E2008091E2008160A9
:103E50008093E2008091CD02882309F447C084E07A
:103E60008093CC028091CC028091E10083FF27C037
:103E70008091E20083FF23C08091E100877F8093DF
:103E8000E10082E08093CC021092CD028091E100AB
:103E90008E7F8093E1008091E2008E7F8093E2002C
:103EA0008091E20080618093E20042E060E080E087
:103EB0000E94AC058091F00088608093F000FF9133
:103EC000EF91BF91AF919F918F917F916F915F9192
:103ED0004F913F912F910F900FBE0F901F9018950B
:103EE00019BC1092CC021092BF0274CF8091E300F3
:103EF00087FD93E09093CC02B5CF78941F921FB6C4
:103F00001F9211248F939F93AF93BF938091BB0215
:103F10009091BC02A091BD02B091BE020196A11D7C
:103F2000B11D8093BB029093BC02A093BD02B093DD
:103F3000BE02BF91AF919F918F911F901FBE1F90A6
:103F400018951F921FB61F9211248F939F93AF93C2
:103F5000BF938091BA02811113C08091BB029091EE
:103F6000BC02A091BD02B091BE024196A11DB11D3F
:103F70008093BB029093BC02A093BD02B093BE029B
:103F8000BF91AF919F918F911F901FBE1F90189569
:103F9000CDB7DEB7A6970FB6F894DEBF0FBECDBF84
:103FA00085B7806885BF85B7806885BF84E08093CA
:103FB0004F038FE780935003809151038078806492
:103FC00080935103E4E1F2E08CE592E02FEF21933E
:103FD0008E179F07E1F710929702109298021092A5
:103FE0009A02109299021092780310927A0310921A
:103FF000790380EC80933D048BE793E090933F043A
:1040000080933E0410923C0410923B04109258039B
:104010001092570310925A031092590310925C03A6
:1040200010925B0310925E0310925D031092600386
:1040300010925F0310926203109261031092640366
:104040001092630310926603109265031092680346
:104050001092670310926A031092690310926C0326
:1040600010926B0310926E0310926D031092720304
:10407000109271038AED97E0909354038093530359
:104080008CE597E0909374038093730388E397E043
:104090009093700380936F0387E397E090935603A8
:1040A0008093550384B7877F84BF0FB6F894A89593
:1040B00080916000886180936000109260000FBE64
:1040C00080E890E00FB6F8948093610090936100CF
:1040D0000FBE89E298E090939901809398010E9425
:1040E000E9040E94DE058091E20084608093E20092
:1040F00078948091CC028823A1F01091E9001F7080
:104100009091EC00892F817090FD80E8182B10921F
:10411000E9008091E80083FD0E94DD0F1F7010937D
:10412000E90082E084BD93E095BD9AEF97BD80934E
:104130006E0010925C0210925D0210925E0210926C
:104140005F020E94170D811102C00E94460C0E945E
:104150006F0B91E08927809318010E946F0B8111EA
:104160000E945625809118018091180196E08111D6
:1041700090E09093790286E0891B8093780209E6AB
:1041800011E08FE6E82E81E0F82ED8018D918D01A7
:104190008F3F11F00E942B08E016F106B1F70FE6F1
:1041A00011E0B9E7EB2EB1E0FB2EF80181918F0110
:1041B0008F3F11F00E942B08E016F106B1F788E15D
:1041C000ECE9F2E0DF01282F1D922A95E9F7E0E6FD
:1041D000F2E0DF011D928A95E9F790E080E00E940D
:1041E0002C27863E9E4F21F40E94170D811167C037
:1041F00066EE7EEF90E080E00E94602760E082E063
:1042000090E00E94422760E083E090E00E94422715
:1042100010927A0260E074E184E090E00E946027EE
:1042200060E086E090E00E9442276FEF87E090E038
:104230000E94422740E050E0BA0188E090E00E94EE
:10424000542760E084E290E00E94422760E087E12A
:1042500090E00E94422760E08CE090E00E944227BC
:1042600060E08DE090E00E94422719821A821B8252
:104270001C821D821E821F82188648E050E068E181
:1042800070E0CE0101960E94322740E050E0BA0172
:1042900080E290E00E94542780E00E942D0C0E9452
:1042A000460C40E050E0BA018FE090E00E945427B5
:1042B00040E050E0BA0183E190E00E94542782E0A0
:1042C00090E00E94242780937E0284E090E00E9488
:1042D0002C2790937D0280937C020E94280EEFEFA2
:1042E000F6E721E0E150F0402040E1F700C0000097
:1042F0000E94280E80919C0280FF08C06FEF7FEF24
:1043000090E080E00E9460270E949B0683E090E09E
:104310000E9424270E94FB0A0E946F0B811102C099
:104320000E94592580914F03807F826080934F03C4
:10433000809150038078856780935003E3E1F3E038
:104340008FEF819343E0EF34F407D9F781E00E94C7
:10435000FB0A89E191E09093B7028093B602A3E053
:104360008A2E912C8091CC0200E112E1853009F473
:1043700098C00E94280EEFE7AE2EE2E0BE2EFCE9C8
:104380006F2EF2E07F2E47E952E0D301F501219133
:1043900031918D919D914E175F0709F48CC02817BC
:1043A0003907A9F30E946F0B382E512C2224239435
:1043B000D3010D911D913D01F501C190D1905F0197
:1043C000C016D10669F1C026D126412CEE24E39413
:1043D000F12CC6018E219F21892BC1F03320B1F031
:1043E00049A25AA20E94C7069CA38BA32DA291E0CA
:1043F00098012E213F21232B09F490E09EA349A18F
:104400005AA16BA17CA18DA10E94B01D4394EE0C1A
:10441000FF1CFAE04F12DDCFF501329711830083C4
:1044200053942CE05212C4CF0E94A50B4AC0809135
:10443000CC02843021F11092BA0288E190E0A0E42D
:104440000FB6F894A895809360000FBEA09360000B
:1044500083B7817F846083BF83B7816083BF789493
:10446000889583B78E7F83BF0FB6F894A895809107
:104470006000886180936000109260000FBE8091A0
:10448000CB02882371F00E94280EECE9F2E08191C2
:104490009191892B09F091C244EB52E04E175F07CE
:1044A000B1F78091CC02853009F4C1CF0E94C70FCB
:1044B0000E94940B5ECF2817390709F073CF0E9432
:1044C0003C1E0E946F0BE0917303F09174033097D0
:1044D00019F083E593E009959FB7F89400913C04A7
:1044E00080913B04081708F4A2C0081B9FBFF12C61
:1044F000E12C10E0CC24C394D12C54E0752E66241A
:104500006394E016F10608F496C0809199029091A8
:104510009A020E94AC062091510326952695269575
:104520002F702817190609F060F50E94C7069093AE
:104530009A028093990280919802882311F19091B8
:104540005003991F9927991F809151038770880FF5
:104550004091970261E0892B0E94BF0380919802ED
:104560009091970287FF1CC1A82FBB27A1950CF43F
:10457000B0959A171B060CF013C110929702109277
:1045800098020E94940B90919B02891721F08093CE
:104590009B020E94BB068091CC028430E1F48091A2
:1045A00022018F708093E9009091E80090FF13C082
:1045B0009091CC02943079F48093E9009091F300CB
:1045C0008091F200892B39F08091E8008E778093FA
:1045D000E8000E9408058091CC02843009F0C2CE28
:1045E00083E08093E9008091E80082FFBBCE809158
:1045F000E80090E085FF09C050E040E060E270E034
:10460000CE0101960E94630591E08091E8008B77CE
:104610008093E800992309F4A5CEE981E150E331C4
:1046200008F0D1C0F0E0E353F84D0C941727209127
:104630003D04020F5ACF80913B0490E060913D040D
:1046400070E00E94032720913E0430913F04280F20
:10465000391FD901BC90A0907803B7EFBB15E8F4DF
:104660006092780320E040E06B2D81E090E00E94B2
:104670000604A09278032FB7F89480913B0490E051
:10468000019660913D0470E00E94032780933B04F3
:104690002FBF5FEFE51AF50A34CFB7FE52C0E4E052
:1046A000AE1631F0B0927503D0927A03C0927903BE
:1046B0008B2D0E943907813069F08823D1F0823038
:1046C000A9F0833099F01092780310927A03109237
:1046D0007903D1CF8093780320E040E06B2D81E017
:1046E00090E00E94060410927803C5CF809378036F
:1046F000C2CFF0EFBF16E1F027EFB212E4CF209166
:10470000790330917A03C901B4010E94EF26FC01BC
:10471000ED5AFC4FB2A2C901019690937A0380939F
:104720007903209177034091760360917503D9CF87
:1047300070927803B0927503D0927A03C092790395
:104740009ACFAA2009F497CF2091790330917A0368
:10475000C901B4010E94EF26AC01FC01ED5AFC4FE7
:10476000B2A2C901019690937A03809379034130F4
:10477000510589F04230510509F07DCF2091770332
:1047800040917603609175030E940604809178033E
:10479000843091F670CF42E020E0A4126CCFF0CFCD
:1047A000890F87FD03C080939702EBCE8FE7FBCF85
:1047B0001A828CE08B831BC08A81823009F413C17A
:1047C00028F4813061F08FEF898311C08330C1F00C
:1047D0008430C9F71B821C821D821E8208C00E9481
:1047E000BB060E941D276B837C838D839E8340E2E2
:1047F00050E0BE016F5F7F4F82E00E94FE0AB2CDA3
:104800002B81822F90E0FE013196225F8C30910542
:1048100070F7DC01AA0FBB1FA456BD4F3C91119647
:104820004C9143833483019632962813EFCFDFCF28
:104830008A81823019F08530D1F2C5CF6B817C81BD
:104840008D819E810E941D2788E290E00E94422770
:10485000CECF4C816B818A810E94560C9827892784
:1048600098279E838D83C3CF2D813E8132272327B6
:1048700032274C816B818A810E94CF0BB8CF0E9476
:10488000F50BB5CF80E18A83B2CF81E08A8387E0E0
:1048900091CFEA80FB80FE24EF24FE248E010F5F7F
:1048A0001F4FCC80C00ED12ED11CC70187509D4F09
:1048B000C016D10609F49BCFB7E0EB16B1E0FB06BA
:1048C00050F40E942427F8018483BFEFEB1AFB0AFF
:1048D0000F5F1F4FEACFD80114961C92F6CF0A81C2
:1048E0001B81102701271027FE0131966F01EC80F4
:1048F000E00EF12EF11CC80187509D4F0E151F05CB
:1049000009F475CF0730F1E01F0728F4D60114969B
:104910006C910E944227BFEFCB1ADB0A0F5F1F4F3B
:10492000EACF0E94BF0B63CF83E0ADCFEA80FB806C
:10493000FE24EF24FE248E010F5F1F4FCC80C00E9B
:10494000D12ED11CC7018996C016D10609F44FCFCC
:10495000E0EDEE16E2E0FE0658F40E942427D801AE
:1049600014968C93FFEFEF1AFF0A0F5F1F4FEACFE9
:10497000F8011482F7CF0A811B8110270127102725
:10498000AE014F5F5F4F6A01EC80E00EF12EF11C2B
:10499000C80189960E151F0509F429CF003D52E084
:1049A000150728F4D60114966C910E944227BFEF98
:1049B000CB1ADB0A0F5F1F4FEBCF09BD19BD09B43E
:1049C00000FEFDCF8091D8008F7D8093D80080912C
:1049D000E00082608093E0008091E00081FDFCCFE8
:1049E0000E94C70F5ECD88E290E00E9424271B82C0
:1049F0001C821D828E83FBCE8EE14A9B02C08150B9
:104A0000E1F74A9BFECF08955A9880E28A95F1F724
:104A10005A9A0895FC013BE03A95F1F798E020E0BE
:104A200080E031E040E14A95F1F7880F4A9B02C0EF
:104A30008160232742E04A95F1F7000040E14A9562
:104A4000F1F7915079F790E19A95F1F799B132E049
:104A50003A95F1F7000040E14A95F1F792FB99276A
:104A600090F992272081920F90830895A1E0B0E001
:104A7000ECE3F5E20C94C42619828C017C01E60E6D
:104A8000F11C0E151F0541F481E09981911180E020
:104A90002196E6E00C94E0260E94FC24CE010196CB
:104AA0000E940A25F80181938F01EBCF529A5A9AFE
:104AB000089552985A9AEA9AE9E6F0E080818F7C4C
:104AC000808308956150770B91E001C0990F6A953A
:104AD000EAF720E031E0911108C0222391F05A9AC0
:104AE00080E28A95F1F75A980895492F482339F0C2
:104AF0005A9A232740E24A95F1F79695ECCF5A98B7
:104B0000F9CF5A98EDCFFF920F931F93CF93DF9376
:104B1000EC018C01060F111DC017D10729F4CDB788
:104B2000DEB7E5E00C94E126F9900E94042568E0E8
:104B30008F2D0E946225F0CF1F920F920FB60F9219
:104B400011240F931F932F933F934F935F936F9372
:104B50007F938F939F93AF93BF93EF93FF93CF93E5
:104B6000DF930F92CDB7DEB719820E94FC24CE01ED
:104B700001960E940A25082F069506950695282F6E
:104B800022952570902F9570290F922F937026955E
:104B90002695920F982797708981982B09F05CC011
:104BA000043008F059C080E18A95F1F75A9A529A78
:104BB00082E08A95F1F700C05A9888E0089F80014A
:104BC0001124D801A050BF4F1696ED91FC91179774
:104BD0003097A9F0609167017091680114962D914A
:104BE0003C911597260F371F11968D919C91129726
:104BF000680F791F13964C9113978C910995F801C2
:104C0000E050FF4F6381662351F02091670130919E
:104C1000680184819581820F931F0E9483250E94E1
:104C2000042580E18A95F1F75A9852985A9A80E1C2
:104C30008A95F1F7F801E050FF4F6081662351F04B
:104C4000209167013091680181819281820F931FC9
:104C50000E9436250E94FC240F90DF91CF91FF9196
:104C6000EF91BF91AF919F918F917F916F915F91E4
:104C70004F913F912F911F910F910F900FBE0F9069
:104C80001F9018950F931F93CF93DF93EC01049718
:104C90000CF04CC0F894529A5A9885E08A95F1F736
:104CA00000009C2F969595708C2F8570980F892FFA
:104CB00083709695969523E0CC0FDD1F2A95E1F73A
:104CC000980F8E01092B0E94042500C068E0802FF8
:104CD0000E94622580E18A95F1F752985A9A4A9B80
:104CE0001EC087E090E04A991CC0FE01E050FF4FD3
:104CF00063816623F9F02091670130916801848116
:104D00009581820F931F0E943625811113C0529AFC
:104D10005A9A7894DF91CF911F910F91089500C016
:104D2000DECF019729F4529A5A9A789480E0F2CF14
:104D300000C0D9CF0E94FC2480E28A95F1F75A98EE
:104D4000529A80E18A95F1F7C050DF4F688166235F
:104D500051F0209167013091680189819A81820F19
:104D6000931F0E9483250E940425789481E0D2CF6E
:104D70002F923F924F925F926F927F928F929F926B
:104D8000AF92BF92CF92DF92EF92FF920F931F9359
:104D9000CF93DF93CDB7DEB7CA1BDB0B0FB6F8940A
:104DA000DEBF0FBECDBF09942A88398848885F844A
:104DB0006E847D848C849B84AA84B984C884DF80BB
:104DC000EE80FD800C811B81AA81B981CE0FD11D9F
:104DD0000FB6F894DEBF0FBECDBFED010895AA1B3C
:104DE000BB1B51E107C0AA1FBB1FA617B70710F0D6
:104DF000A61BB70B881F991F5A95A9F78095909508
:104E0000BC01CD01089597FB072E16F4009407D03E
:104E100077FD09D00E94EF2607FC05D03EF490955F
:104E200081959F4F0895709561957F4F0895EE0F7E
:104E3000FF1F0590F491E02D0994692796276927B3
:104E40007827872778270895F999FECF92BD81BDED
:104E5000F89A992780B50895A8E1B0E042E050E0C3
:104E60000C946827DC01A40FB51F4150504048F056
:104E7000CB01840F951F2E910E9443274150504033
:104E8000D0F70895262FF999FECF92BD81BDF89AEB
:104E9000019700B4021639F01FBA20BD0FB6F8947E
:104EA000FA9AF99A0FBE08950396272F0E94432776
:104EB0000E944227252F0E944327242F0C9443272A
:104EC0000196272F0E9443270C944227DC01CB0137
:104ED000FC01F999FECF06C0F2BDE1BDF89A31960A
:104EE00000B40D9241505040B8F70895FB01DC0129
:104EF00004C08D910190801921F441505040C8F7B1
:104F0000881B990B0895FB01DC0102C001900D92F2
:104F100041505040D8F70895F894FFCFBE10E610E6
:104F20009412E610941219113A1194123812451283
:104F3000F018F418E518EC18F818FC1800195C19AA
:104F4000D11964192E193219681936196C19781982
:104F50004219CA1946197C194A198019A8194E19FB
:104F60008419AF1954198A1992193A1970193E19EE
:104F7000741958198E199E19B819C8192819601969
:104F8000D819FF19FF194C1A4C1A791A321A321A09
:104F9000321A931A041B141B141BD823DC23182465
:104FA000292434243F24E323E323E323E323E323DB
:104FB0004224452449246F24912494249624BB241C
:104FC00000000001000000000000000C01000000D3
:104FD000040D000000000000019806280B97062130
:104FE0000B048540000001064000000100018182A1
:104FF00083E200E900EA00B500B600B700CD008307
:1050000001CC008A0192019401210223022402258D
:1050100002260227022A02B300B4006F0070009F2C
:1050200001CB019F02A002FE013534C69766943180
:10503000F7F6F5F4333236909102030200000100D6
:1050400001010101010001014422320001DE00AC36
:085050000022053B055B050091
:00000001FF
