:100000000C9406050C944D050C944D050C948B1422
:100010000C944D050C944D050C944D050C944D0518
:100020000C944D050C944D050C9494290C94682A5D
:100030000C9455200C944D050C944D050C944D05D5
:100040000C944D050C944D050C944D050C944D05E8
:100050000C944D050C94A0200C944D050C944D056A
:100060000C944D050C944D050C944D050C944D05C8
:100070000C944D050C944D050C944D050C944D05B8
:100080000C944D050C944D050C944D050C944D05A8
:100090000C944D050C944D050C944D050C944D0598
:1000A0000C944D050C944D050C944D05095D155DA2
:1000B000215D2D5D395D0E5D1A5D265D325D3E5D13
:1000C000105D1C5D285D345D405D135D1F5D2B5D23
:1000D000375D435D0B5D175D235D2F5D3B5D0C5D03
:1000E000185D245D305D3C5D125D1E5D2A5D365DF0
:1000F000425D115D1D5D295D355D415D0D5D195DE3
:10010000255D315D3D5D0A5D165D225D2E5D3A5DCA
:10011000085D145D205D2C5D385D0F5D1B5D275D06
:10012000335D3F5D4F5C525C555C585C5B5C5E5C74
:10013000615C0000000000004E5C515C545C575C48
:100140005A5C5D5C605C0000000000004D5C505C2F
:10015000535C565C595C5C5C5F5C00000000000016
:100160000000A845705C6D5C6A5C675C645C0000C4
:10017000000000000000725C6F5C6C5C695C665C97
:10018000635C0000000000000000715C6E5C6B5C52
:10019000685C655C625C000000000000010001001A
:1001A0000100010001000100010001000100010047
:1001B0000100010001000100010001000100010037
:1001C0000100010001000100010001000100010027
:1001D0000100010001000100010001000100010017
:1001E0000100010001000100010001000100010007
:1001F00001000100010001000100010001000100F7
:1002000001000100010001000100010001000100E6
:1002100001000100505C535C565C595C5C5C5F5CA7
:10022000625C0000000000004E5C515C545C575C56
:100230005A5C5D5C605C00000000000000004F5CE8
:10024000525C555C585C5B5C5E5C0000000000002A
:1002500000000100715C6E5C6B5C685C655C0000BA
:10026000000000000000725C6F5C6C5C695C665CA6
:10027000635C0000000000000000705C6D5C6A5C64
:10028000675C645C615C0000000000000D5D095D5E
:10029000155D215D2D5D125D0E5D1A5D265D325D81
:1002A000085D105D1C5D285D345D0B5D135D1F5D99
:1002B0002B5D375D0F5D0B5D175D235D2F5D105D61
:1002C0000C5D185D245D305D0A5D125D1E5D2A5D6A
:1002D000365D095D115D1D5D295D355D115D0D5D4D
:1002E000195D255D315D0E5D0A5D165D225D2E5D39
:1002F0000C5D085D145D205D2C5D135D0F5D1B5D65
:10030000275D335D4F5C525C555C585C5B5C5E5CAA
:10031000615C0000000000004E5C515C545C575C66
:100320005A5C5D5C605C0000000000004D5C505C4D
:10033000535C565C595C5C5C5F5C00000000000034
:1003400000000100705C6D5C6A5C675C645C0000CE
:10035000000000000000725C6F5C6C5C695C665CB5
:10036000635C0000000000000000715C6E5C6B5C70
:10037000685C655C625C000000000000165C2B009D
:100380003900E100E0002A004C002800E500E4000C
:100390001E00140004001D00E300270013003300BA
:1003A0003800E7001F001A0016001B00E2002600BC
:1003B00012000F003700E6002000080007000600CA
:1003C000910025000C000E00360090002100150061
:1003D000090019002C00240018000D0010002C004A
:1003E000220017000A0005002C0023001C000B004F
:1003F00011002C00010001000100010001000100BA
:1004000001000000000000000100010001000100E7
:1004100001000100010000000000000001000100D7
:1004200001000100010001000100000000000000C7
:1004300000000100010001000100010001000000B6
:1004400000000000000001000100010001000100A7
:100450000100000000000000000001000100010098
:10046000010001000100000000000000165C2B00EC
:100470003900E100E0002A004C002800E500E4001B
:100480001E00140004001D00E300270033001200CA
:100490003800E7001F001A0015001B00E2002600CC
:1004A0001C000C003700E6002000090016000600C2
:1004B000910025001800080036009000210013006C
:1004C000170019002C0024000F00110010002C0050
:1004D00022000A00070005002C0023000D000B007D
:1004E0000E002C00010001000100010001000100CC
:1004F00001000000000000000100010001000100F7
:1005000001000100010000000000000001000100E6
:1005100001000100010001000100000000000000D6
:1005200000000100010001000100010001000000C5
:1005300000000000000001000100010001000100B6
:1005400001000000000000000000010001000100A7
:10055000010001000100000000000000445D0352A2
:10056000045200000000C25C000000000000000017
:10057000455D0000000000000000000000000000D9
:1005800000000000465D00000000000000000000C8
:10059000000000000000000000000000000000005B
:1005A000000000000000000000000000000000004B
:1005B000000000000000000000000000000000003B
:1005C000000000000000000000000000000000002B
:1005D00000000000775C785C795C7A5C7B5C0000F2
:1005E000000000000000000000000000000000000B
:1005F00000000000000000000000000000000000FB
:1006000000000000000000000000000000000000EA
:1006100000000100000000000000000000000000D9
:1006200000000000000000000000000000000000CA
:1006300000000000000000000000000000000000BA
:10064000000000000000000000000000FFFFFFFFAE
:10065000FFFFFFFFFFFFFFFFFFFFFFFFFFFFFFFFAA
:10066000FFFFFFFFFFFFFFFFFFFFFFFFFFFFFFFF9A
:10067000FFFFFFFFFFFFFFFFFFFFFFFFFFFFFFFF8A
:10068000FFFFFFFFFFFFFFFFFFFFFFFFFFFFFFFF7A
:10069000FFFF3C3D3E3F404142FFFFFF48494A4B80
:1006A0004C4D4EFFFFFFFFFFFFFFFFFFFFFFFFFF70
:1006B000FFFF4746454443FFFFFFFF54535251504D
:1006C0004FFFFFFF000C1824300B17232F3B010DA9
:1006D0001925310A16222E3A020E1A263209152140
:1006E0002D39030F1B27330814202C3804101C2825
:1006F0003407131F2B3705111D293506121E2A3604
:1007000055565758595A5BFFFFFF62636465666729
:1007100068FFFFFFFF6F7071727374FFFFFFFF616F
:10072000605F5E5D5CFFFFFFFF6E6D6C6B6A69FF73
:10073000FFFFFF7A7978777675FFFFFF3C3D3E3FFC
:1007400040414243444546476154535251504F4EF5
:100750004D4C4B4A494855565758595A5B5C5D5E5B
:100760005F606E6D6C6B6A69686766656463626F13
:10077000707172737475767778797A0B0A09080745
:10078000060504030201000C0D0E0F1011121314C4
:10079000151617232221201F1E1D1C1B1A19182491
:1007A00025262728292A2B2C2D2E2F3B3A3938375E
:1007B00036353433323130000101010101010101CC
:1007C0000102020202020202020203030303030304
:1007D00003030404040404040405050505050606D2
:1007E0000606060707070707080808080909090990
:1007F0000A0A0A0B0B0B0C0C0C0D0D0D0E0E0E0F36
:100800000F0F1010111111121213131414151516C5
:10081000161717181819191A1A1B1B1C1D1D1E1E36
:100820001F20202122222324242526262728292987
:100830002A2B2C2D2D2E2F303132323334353637B2
:1008400038393A3B3C3D3E3F4041424344454647B0
:1008500048494A4C4D4E4F50515354555658595A89
:100860005B5D5E5F616264656668696B6C6D6F702D
:1008700072737577787A7B7D7E8082838587888A9C
:100880008C8E8F91939596989A9C9EA0A2A3A5A7D3
:10089000A9ABADAFB1B3B5B7BABCBEC0C2C4C6C9CF
:1008A000CBCDCFD1D4D6D8DBDDDFE2E4E7E9EBEE88
:1008B000F0F3F5F8FAFDFF040330000000160367BB
:1008C0000069006100620061006C0061006E0061FF
:1008D00000690000000E03330061007200610068CF
:1008E00000740000000403090409029F00040100D1
:1008F000A0FA09040000010301010009211101000F
:10090000012240000705810308000A0904010001D3
:1009100003000000092111010001223200070582B5
:100920000320000A080B0202010100000904020072
:10093000000101000009240100010900010309046C
:100940000300020103000007240100014100062406
:10095000020101000624020202000924030103012E
:100960000201000924030204010101000905040237
:100970004000050000052501010109058302400032
:100980000500000525010103120110010000000807
:10099000EDFEB0F401000102030105010980A1018F
:1009A000850319012AB700150126B70095017510B6
:1009B0008100C0050C0901A101850419012AA002CA
:1009C000150126A002950175108100C005010906D8
:1009D000A101050719E029E7150025019508750112
:1009E00081029501750881010507190029FF15008D
:1009F00026FF00950675088100050819012905954F
:100A00000575019102950175039101C011241FBE66
:100A1000CFEFDAE0DEBFCDBF04B603FE27C0809182
:100A2000AB059091AC05A091AD05B091AE058730B6
:100A3000904BA740B04BD1F41092AB051092AC058F
:100A40001092AD051092AE0514BE84B7877F84BFA7
:100A50000FB6F894A895809160008861809360003B
:100A6000109260000FBEE0E0F8E3099511E0A0E00D
:100A7000B1E0E4E9F9E502C005900D92AC3CB107A4
:100A8000D9F725E0ACECB1E001C01D92AB3AB2075A
:100A9000E1F70E9470260C94902C0C940000E1E386
:100AA000F3E08081807F8260808340E060E080E0CE
:100AB0000C94A60F0F93FC01862F642F422F202F3A
:100AC0000F3F51F09281992319F00F910C94371038
:100AD00040E060E080E0F9CF0F910895EF92FF923F
:100AE0000F931F93CF93DF93EC017B01FB012181D7
:100AF000808190E0FAE02F9F800D911D1124FC0170
:100B0000EC53F94F0491FC01E45BF94F1491CC32A2
:100B10003DE5D30710F5C0328DE5D80708F068C071
:100B2000C431EDE5DE0708F053C0C830FDE5DF074E
:100B3000E8F5C83A35E4D30709F443C030F0CF52A2
:100B4000DC45C834D10508F473C081E0DF91CF9152
:100B50001F910F91FF90EF900895C434EDE5DE07EB
:100B6000A8F4C833FDE5DF0708F452C0CE01815F69
:100B700091090E94530BB701CE018E5E91090E942C
:100B8000530BB701CE018B5E910919C0C5343DE509
:100B9000D30751F038F082E0C634DD45B1F60E944B
:100BA0007706D3CF80E0FBCF81E0F9CFCE018D5C1B
:100BB00091090E94530BB701CE01815C91090E94FB
:100BC000530B2AED4AED6EE1C7010E945A05BDCFD5
:100BD000CE018D5C91090E94530BB701CE01895C57
:100BE00091090E94530BB701CE01865C9109E7CFB2
:100BF000CE01895D91090E94530BB701CE01865D3C
:100C000091090E94530BB701CE01825D9109D7CFA4
:100C1000CE01855E91090E94530BB701CE01815E22
:100C200091090E94530BB701CE018B5D9109C7CF8B
:100C30002AED4AED6EE1C7010E945A05012FC1CF8E
:100C4000813031F489EA611101C08AEA0C94DF161F
:100C5000089581E008950C946E0508950C942D0676
:100C60001F93CF93DF9300D000D00F92CDB7DEB7A4
:100C700049835A836B833091590289819A8131115A
:100C80001DC06623B9F02223A9F00E94CD1D182FA4
:100C9000682F89819A810E94791D69817A81812FCB
:100CA0000F900F900F900F900F90DF91CF911F91A9
:100CB0000C94FB060E94A51D182FEFCF0E94CD1D9E
:100CC00069817A81EDCFFC01262F408151816281BB
:100CD000738184810C943006CF93DF93EC0160E044
:100CE0000E946306BE01DF91CF910C942E06CF9334
:100CF000DF93C1E0D0E002C0CC0FDD1F8A95E2F7A0
:100D00008C2F0E94171FBE0190E080E0DF91CF91F1
:100D10000C947B1C0E94041F811102C00E94A61F1C
:100D20000C94D6080C94D90808950C94940681E08C
:100D300008950C949706CF93C82F0E9495068C2F88
:100D4000CF910C94990608950E945B190E94A30606
:100D50002FEF84E39CE0215080409040E1F700C0F9
:100D600000000C94C4200F931F93CF93DF93EC01EA
:100D700061E00E9463068C01BE010E942B0688235D
:100D800089F1BE01C8010E94530B882359F1BE01AD
:100D9000C8010E944D12882329F1BE01C8010E949A
:100DA0008E128823F9F0BE01C8010E94B113882376
:100DB000C9F0BE01C8010E945A10882399F08A81A7
:100DC000882339F001158CE5180751F00E3D1C45BC
:100DD00079F0CE01DF91CF911F910F910C942906EC
:100DE0000E94A40680E0DF91CF911F910F9108959A
:100DF0000E94A61FF7CF972F70E02AE0929F600D08
:100E0000711D1124FB0198E7899FE00DF11D11244C
:100E1000EE0FFF1FE455FF4F859194910895CF93F6
:100E2000DF930E94FB060E94FB07EC01811522E57F
:100E30009207E8F5811531E5930708F0ACC0883ECC
:100E4000910510F5803E910570F5883A910570F492
:100E5000853A910508F078C08130910521F100971D
:100E600011F1049700F5D0E0C0E01DC08F3B910563
:100E7000D0F7C85AD0E0CC0FDD1FC75BDE4F09901A
:100E8000D881C02DD4640FC0811540E5940708F0C7
:100E900066C0C11580E4D80708F05EC0CE019A95FF
:100EA00081159F4100F7CE01DF91CF910895811503
:100EB00036E5930718F5811545E5940708F083C0DA
:100EC000C11584E5D80708F079C09C2F96959695B2
:100ED0009E0123703327C115D34508F461C0C1E0DA
:100EE000D0E002C0CC0FDD1F2A95E2F730E2939FDD
:100EF000C0011124C82BD92BDA68D5CFC1158AE5DA
:100F0000D80778F4C11599E5D90708F066C0C1156E
:100F100028E5D20708F4A7CFDC2FCC27C06FD06A12
:100F2000C2CFCE0190568115904208F09CCF8D2FF4
:100F30008F710E94920890E0982F882788279F71D0
:100F40009C012C2BE90147C0C55AD0E0C958DE4F9F
:100F5000C881D0E0D064A7CFDF70D06AA4CFE4E02E
:100F600096958795EA95E1F783702C2F269526951F
:100F7000237040E2249F90011124382B8C2F837022
:100F8000C1E0D0E002C0CC0FDD1F8A95E2F7C22B92
:100F9000D32BDC6888CFD82FCC27C16FD06A83CF02
:100FA000C1E0D0E002C0CC0FDD1F2A95E2F720E2BD
:100FB000929FC0011124C82BD92BEBCFDC2FCC275B
:100FC000C46FD06A70CF0E949208C82FD0E0DC2F87
:100FD000CC27CC27DF71D06266CF8C2F8F700E9418
:100FE000920834E0D695C7953A95E1F7CF709C2FDB
:100FF000EC01D06958CF82389105B1F1B0F481335A
:10100000910509F475C048F48932910509F469C065
:101010008A32910509F473C008958533910509F466
:1010200059C08933910501F10895833E9105A9F1D5
:1010300038F4803E9105F9F0823E910549F108951A
:10104000863E9105A9F1873E9105C9F1843E91053F
:1010500019F52091B00421FF1FC08091AF0484FDD9
:1010600014C087EE90E008952091AF042370A1F0A2
:1010700080EE90E008952091AF0420FD47C03091AC
:10108000B00430FF09C024FF44C090E080E004C0F9
:101090002091AF0422FDF7CF08952091AF0422FDE7
:1010A0003BC03091B00430FDE3CF24FFF5CFEDCF4E
:1010B0002091AF0423FFF0CF24FDE7CFD2CF2091C2
:1010C000AF0423FD2CC03091B00431FFEECF84EE8D
:1010D00090E008952091AF0425FFDECF89E290E0F3
:1010E00008952091AF0425FFD7CF85E390E00895C0
:1010F0002091AF0426FFD0CF8AE290E0089520919E
:10110000AF0426FFC9CF81E390E0089589E390E022
:10111000089583EE90E0089582EE90E0089586EEC3
:1011200090E008959091AF0492FF06C0282F287197
:101130002830F9F4877F846093FF06C0282F287138
:101140002831F1F4877E84612091B00420FF06C02D
:10115000382F38713830D9F4877F816021FF06C07D
:10116000282F28712831D1F4877E816194FD877EF4
:101170000895282F24712430F9F68B7F8860DCCF06
:10118000282F2471243101F78B7E8861DDCF382F21
:101190003171313019F78E7F8860E0CF282F2171AF
:1011A000213121F78E7E8861E1CF08950C94D50816
:1011B00008950C94D808E82FF0E0EE0FFF1FE95EC9
:1011C000FC4F808191810895089580EA8A95F1F716
:1011D000089508951F93CF93DF93CDB7DEB7669739
:1011E0000FB6F894DEBF0FBECDBF0E94D30A809128
:1011F0001601811130C0FE01379686E0DF011D9295
:101200008A95E9F781E9898380E98A8384E98B8378
:1012100086E68C8387E98D8386EC8E833697AAE0F9
:10122000B1E0CE010D9621912D938E179F07D9F72E
:101230002AE0EFE3F1E0DE011D9601900D922A9580
:10124000E1F7FC01A0E0B1E0CE01479621912D939A
:101250008E179F07D9F78091160196E0811190E0D3
:101260009093300386E0891B80932F03AAE0B1E0BE
:1012700040E151E061E070E08D91E82FE295EF7080
:10128000F0E011A18F709B0101C0220F8A95EAF74F
:10129000922F9095912391A382A1822B82A34A172A
:1012A0005B0751F7A0E0B1E04AE051E061E070E097
:1012B0008D91E82FE295EF70F0E011A18F709B0106
:1012C00001C0220F8A95EAF7922F9095912391A35E
:1012D00082A1822B82A34A175B0751F7EFEFF2E05E
:1012E000A7E1B3E087E193E0119211921D921D9264
:1012F0008E179F07C9F786E00E94780A0E948A0627
:1013000066960FB6F894DEBF0FBECDBFDF91CF91CA
:101310001F910C94DD0A0E94B20A882331F180915A
:101320002F0390E0880F991F895E9C4F0E94F00A5E
:10133000811118C08091CC018F5F8093CC018630E1
:1013400078F0E0912F03F0E0EE0FFF1FE95EFC4F15
:1013500090E080E011921192019686309105D1F7CC
:101360000C9492061092CC01FBCF8091300390E058
:10137000880F991F895E9C4F0E94110B0C94E908FD
:101380008F929F92AF92BF92CF92DF92EF92FF9295
:101390001F93CF93DF939AE0E92E91E0F92E2FEF80
:1013A000C22E22E0D22E30E1832E31E0932E10E0C7
:1013B000C1E0D0E0F70181917F01E82FE295EF7065
:1013C000F0E091A18F709E0101C0220F8A95EAF78B
:1013D000892F822B81A3F70192915F01E92FE2957A
:1013E000EF70F0E022A19F70AE0102C0440F551FC4
:1013F0009A95E2F7CA018095822382A30E94E508AC
:10140000E0E0F1E050E040E030E020E06191A62F24
:10141000A295AF70B0E090968C9190E06F7002C092
:10142000959587956A95E2F780FD5DC0CE01042E03
:1014300002C0880F991F0A94E2F7282B392B4F5FBF
:101440005F4F4A30510511F7F5019081E92FE29580
:10145000EF70F0E041A19F70BE0102C0660F771FE0
:101460009A95E2F7CB018095842381A3F5018081D1
:10147000E82FE295EF70F0E092A18F70AE0101C00D
:10148000440F8A95EAF7892F842B82A3F601808185
:1014900091812817390751F13183208381E0182B7E
:1014A000F2E0CF0ED11C8E149F0409F083CF60911F
:1014B000300370E0660F771F695E7C4F212F46E096
:1014C0008FEF92E00E94790A0E948B09812FDF91B1
:1014D000CF911F91FF90EF90DF90CF90BF90AF9092
:1014E0009F908F90089590E080E0A7CF80E0D7CFC5
:1014F0000895FF920F931F93CF93DF93F82E092F38
:10150000162FD72FC42F222349F081E08093CF01DB
:101510000E9485209093CE018093CD018091CF01D0
:101520008823A1F08091CD019091CE010E9491205D
:10153000069760F0EF2DF02FA12FBD2F90E080E0F7
:10154000D0E08C179D0744F01092CF01DF91CF912E
:101550001F910F91FF900895219131912D933D930B
:101560000196EFCF8091D001811111C08091D800F8
:1015700080618093D8008AE18A95F1F700C090914C
:10158000D900892F817090FF82E08093D00181E0A3
:101590009091D001913009F080E008950E94B20A44
:1015A00091E0892708950E94CE0A809316010E9437
:1015B000B20A81110C94E40A08950E94B20A8111C2
:1015C00002C00C94EA0A089561E070E087E191E0BE
:1015D0000C943C1461E070E087E191E00C944314BA
:1015E000CF93DF93D82FC92F0E94DD140097B9F451
:1015F000ED2FFC2FDC01AA0FBB1FAE52BE4F2D9169
:101600003C912193319301968630910599F78EEDA7
:1016100091E00E94AD1181E0DF91CF91089580E0CB
:10162000FBCF30E020E0FC0141915191CF01F90165
:10163000EE0FFF1FEE52FE4F518340832F5F3F4F4F
:101640002630310581F78EED91E00C94A41184E0F1
:101650008093310389E08093320380913303807F4C
:10166000886080933303E3EEF1E08FEF819392E0A3
:10167000EB32F907D9F71092E2011092E1011092D2
:10168000E0011092DF01089590913103292F2F700E
:1016900095959595959595959F523CE0239F900D36
:1016A0001124890F0895FF920F931F93CF93DF9317
:1016B000FB018E3A2CE5920708F07DC08E393CE59F
:1016C000930708F05FC180392CE5920750F5833805
:1016D0003CE5930708F01EC181382CE5920760F4C1
:1016E00087373CE5930708F0FDC08F322CE5920761
:1016F00008F0C0C0C1E0EFC081383CE5930709F4B1
:10170000FEC082389C45B1F78281882309F4C9C0A4
:1017100080913103982F9F70993008F0C2C09F5F6D
:10172000F7C08C393CE59307A0F582392CE5920788
:1017300008F00DC180393CE5930709F4F6C0813902
:101740009C45C1F68281882309F4ABC02091310306
:10175000822F859585958595859586300CF0A1C05D
:1017600091E0980F9295907F959595959595959583
:10177000392F3295307F2F70232B20933103181689
:101780000CF08FC097FF8DC08295807F922F9F7045
:10179000B2C08C393CE5930709F4E7C08D399C450C
:1017A00009F0A8CF8281882309F47BC0809132039D
:1017B00091E0980FE5C0843B3CE5930709F413C121
:1017C00048F5803B3CE5930709F4F2C098F48E3A63
:1017D0003CE5930709F4E1C08F3A9C4509F08ACFB4
:1017E0008281882309F45DC080913203982F907F15
:1017F000905FDCC0609132032281823B3CE593071D
:1018000009F4EBC008F4E3C021112FE762956F7073
:1018100042E4D8C0873B2CE5920709F4F0C080F47D
:10182000853B2CE5920709F4DEC0863B9C4509F018
:1018300061CF82818111E1C08FEF8093E10131C0DE
:10184000893B2CE5920709F401C108F4F0C08A3BFA
:101850009C4509F04FCFC2816091320362956F7051
:10186000CC2309F4FCC04FEF5FE181EB94E00E94D0
:101870004A2117C020913203F22EF2943FE0F32266
:101880002F70DCE02D9FD00D1124C28101ED080FD7
:1018900010E00D511E4FF8014081CC2389F04F3FDD
:1018A00011F0C0E018C00E94440BC82F2D2F482F04
:1018B0006F2D81EB94E00E942A21F801C083F1CFC3
:1018C0004F3F31F02D2F6F2D81EB94E00E943A2194
:1018D0008FEFF80180838C2FDF91CF911F910F91B3
:1018E000FF90089522812223E1F28757982F9F705D
:1018F00080913103807F892B80933103D2CF828105
:10190000882379F280913103982F9F7051F2915F73
:101910009F70F0CF2281222321F28958982F92952F
:10192000907F809131038F70E6CF8281882309F404
:10193000B8CF80913103982F95959595959595956C
:101940009B3F0CF4AECF915F9295907FECCF2281BC
:10195000222309F4A6CF8259982F9F7080913203D9
:10196000807F892B809332039CCF8281882309F466
:1019700098CF80913203982F9F7009F492CF915F96
:101980009F70EECF2281222309F48BCF8E5982954E
:10199000807F909132039F70E4CF8281882309F485
:1019A00080CF80913203982F907F90518F70D9CF44
:1019B0008281882309F475CF6091320362956F703C
:1019C00020E04BE781EB94E00E941A216ACF2111BD
:1019D0002FE762956F7040E4F5CF21112FE76295F4
:1019E0006F7041E4EFCF828120E081112FE7609199
:1019F000320362956F7043E4E5CF81E01ECF8281B0
:101A0000882309F44ECF90913303292F2F7081E062
:101A1000820F8F70907F892B80933303982F9F7054
:101A2000807F822B91113DCF809333033ACF828107
:101A3000882309F436CF80913303982F9F7009F4DF
:101A400030CF915F9F70807F892BEECFC2816091F4
:101A5000320362956F7040E050EEC11106CF50E046
:101A600040E081EB94E00E944A2135CF81EB94E085
:101A70000E944C238091DF019091E0010E9491200F
:101A8000209133032F702817190609F068F50E947A
:101A900085209093E0018093DF018091E10188230C
:101AA00019F16091320362956F702091E20141E07B
:101AB00081EB94E00E941A218091E1019091E20172
:101AC00087FF0DC0482F552741950CF4509594176A
:101AD00015062CF41092E2011092E1010895890F8D
:101AE00087FD03C08093E20108958FE7FBCFAF929B
:101AF000BF92CF92DF92FF920F931F93CF93DF930A
:101B0000362F472FE82FF0E0E954F84F71110DC040
:101B10006491762F862FDF91CF911F910F91FF90C7
:101B2000DF90CF90BF90AF900895C72FD0E0249161
:101B3000F22E022F10E056E0659FC0011124EFEF56
:101B4000F0E0BF010E941A2C832F90E0880F991FAC
:101B500035E5369FD001379FB00D11248A1B9B0BB2
:101B6000982F990F980F6F01CC1ADD0AC09ED001F3
:101B7000C19EB00DD09EB00D11248B2F949FA0015B
:101B80001124452F55276F01C41AD50AC09EA00104
:101B9000C19E500DD09E500D11245F01A91AB108AD
:101BA000AC9E6001AD9ED00CBC9ED00C1124CD2CFF
:101BB000DD24EC19FD09E09FE001E19FD00DF09FCD
:101BC000D00D1124ED2F62307105A1F048F461159C
:101BD000710569F06130710589F0EB2F852F07C021
:101BE0006430710571F088F066307105B1F76E2FC1
:101BF000722F91CFE22F2B2F8D2FF9CFE22F252F90
:101C0000F6CFEB2F822F2D2FF2CF2B2F8F2DE52FFD
:101C1000EECFCF93DF93762FE901682F842F0E94B8
:101C2000770D798368838A83DF91CF910895453654
:101C300008F044E60C94090E80913503982F9E7F9E
:101C400071F48091350381708260809335038091B7
:101C50003803853618F084E680933803089584307D
:101C600080F7F5CF88E090E00C94502CCF92DF9273
:101C7000EF92FF926B017C010E941C0EB701A6013E
:101C800088E090E0FF90EF90DF90CF900C946E2C66
:101C9000E5E3F3E083E0808311828FEF828384E6C3
:101CA0008383148260817181828193810C94360ECA
:101CB00080913903833018F48F5F809339036091EA
:101CC00035037091360380913703909138030C945B
:101CD000360E80913903882319F08150809339039F
:101CE00060913503709136038091370390913803EA
:101CF0000C94360E70E00C94B110CF92DF92EF92FC
:101D00000F931F93CF93DF93CDB7DEB7C157D14069
:101D10000FB6F894DEBF0FBECDBF60912001809159
:101D2000350380FF37C0ECE3F7E09E012F5F3F4FA4
:101D30008E010E581E4FC901A4914A2F50E0DA01BE
:101D4000AA0FBB1FA40FB51FA65CBC4FCD90DD90A2
:101D5000EC90D901CD92DD92ED929D013196A017C4
:101D6000B10751F720911F01B3E02B9F800D911D0A
:101D700011240E947A0ECF58DE4F0FB6F894DEBFC2
:101D80000FBECDBFDF91CF911F910F91EF90DF90EC
:101D9000CF900895809121019091220123E0829FAC
:101DA000F0011124E65CFC4F891708F0BCCF1182CA
:101DB000108212828F5F3396F7CFE5E3F3E08081E4
:101DC0008E7F808360817181828193810E94360E33
:101DD0002FEF80E792E0215080409040E1F700C073
:101DE00000000C947D0E9091350390FF14C09091EB
:101DF00021012091220133E0939FF0011124E65C40
:101E0000FC4F921710F00C947D0E81836083428307
:101E10009F5F3396F6CF0895EF92FF920F931F9333
:101E2000CF93DF9300D00F92CDB7DEB7F82E062FF9
:101E3000142FE22E8091350380FF28C0E82FE6950D
:101E4000F0E0E658FE4F908190932C028E7F823016
:101E500059F49E012F5F3F4F8F2D0E94170E4B812B
:101E600069818A810E94F30EF09236030093370352
:101E700010933803EE2051F06091350370913603D2
:101E800080913703909138030E94360E0F900F9087
:101E90000F90DF91CF911F910F91FF90EF900895D8
:101EA000E5E3F3E09181282F4381628188E0890F87
:101EB0000C940C0F81E00C94500FE5E3F3E091815A
:101EC000282F4381628188EF890F0C940C0F81E0E9
:101ED0000C945D0FE5E3F3E0628121E1620F08F409
:101EE0006FEF282F438181810C940C0F81E00C94BB
:101EF0006A0FE5E3F3E0628121E1621B08F460E030
:101F0000282F438181810C940C0F81E00C94790F70
:101F1000E5E3F3E0438121E1420F08F44FEF282F7E
:101F2000628181810C940C0F81E00C94880FE5E3B1
:101F3000F3E0438121E1421B08F440E0282F628155
:101F400081810C940C0F81E00C94970F21E00C948C
:101F50000C0F20E00C940C0F8091350380FF18C00B
:101F60008170826080933503662351F06091350360
:101F70007091360380913703909138030E94360E9A
:101F80004091380360913703809136030C94A90F78
:101F90000895682F81E00C94AC0F81E00C94C90F78
:101FA000682F9091350396958FEF890F09F481E0A2
:101FB0000C94AC0F81E00C94D00F61E00C94AC0F4A
:101FC000E5E3F3E080818160808386950C94DD0FEA
:101FD0008091350380FD0C94DD0E0C94E00F60E0E1
:101FE0000C94AC0F80912B0281112CC00E94041F15
:101FF000811104C00E94A61F0E94480E0E94320E4A
:1020000060933503709336038093370390933803BE
:102010006E7F61F40E94480E0E94320E6093350379
:102020007093360380933703909338030E941C0EFD
:102030008091350380FF03C086950E94EF0F81E0F9
:1020400080932B0208959091350390FF0FC02B379A
:1020500068F430E0F901EE0FFF1FE20FF31FE65CBA
:10206000FC4F8183608342830C947D0E08951F93FF
:10207000CF93DF9300D00F92CDB7DEB7122F9091A0
:10208000350390FF0BC09E012F5F3F4F0E94170E3C
:10209000212F4B8169818A810E9423100F900F901C
:1020A0000F90DF91CF911F910895FA01811101C026
:1020B000FB0109941F93CF93DF93EC01FB01128185
:1020C000111110C00E94621E8272FE01E25CFC458A
:1020D000E431F10508F043C0EE56F34D0C94422C68
:1020E0000E94E80F812FDF91CF911F9108954AED53
:1020F0005FE06DEC7FE00E945510F4CF4DEC5FE0A7
:102100006AED7FE0F8CF47E65FE06AE57FE0F3CF76
:102110004AE55FE067E67FE0EECF45E85FE066E72F
:102120007FE0E9CF46E75FE065E87FE0E4CF43EAA0
:102130005FE064E97FE0DFCF44E95FE063EA7FE0EE
:10214000DACF49E65EE068E57EE0D5CF48E55EE0BF
:1021500069E67EE0D0CF81E00E94DD0FC3CF11E0C1
:10216000C1CF539A4BB1477F5BB15860EFB7F8943A
:102170009B01220F331F260F371F280F391F2817E7
:10218000390741F4EFBF8FE594E00197F1F700C004
:1021900000000895DC016D91CD0178E05BB900008D
:1021A00000C067FF4BB9660F000000C000C000C050
:1021B0004BB900C07A9591F7E2CF0C94200680913C
:1021C0001601811106C084E38093250186E3809384
:1021D000240120912501A22FA295AF70B0E0919625
:1021E0003C9191972F7081E090E0BC01022E01C0DC
:1021F000660F0A94EAF7462F4095432391964C9335
:10220000919792963C919297362B92963C93929707
:1022100040912401E42FE295EF70F0E031A14F707E
:10222000042E01C0880F0A94EAF7982F9095932303
:1022300091A392A1892B82A390968C9190E002C0E9
:10224000959587952A95E2F7817020A130E002C02C
:10225000359527954A95E2F792E020FF90E0892B8B
:10226000809333029091160181E0982790932F027A
:10227000891B80932E020895CF93E0913302EE0FD5
:10228000EE0F20912501A22FA295AF70B0E090969D
:102290008C9190E02F7002C0959587952A95E2F772
:1022A0008170992740912401A42FA295AF70B0E0CE
:1022B00090962C9130E04F7002C0359527954A9545
:1022C000E2F7A9014170552720FF02C042E050E02B
:1022D000842BE82BE0933302C0912F02EF70F0E0E3
:1022E000E458FE4F808190913202890F8093320230
:1022F00084306CF0EC2F0C2E000CFF0BE05DFD4FDA
:1023000080818F5F808360E08C2F0E94DD10809140
:1023100032028D3F6CF4EC2F0C2E000CFF0BE05DB5
:10232000FD4F80818150808361E08C2F0E94DD1001
:1023300080913202837887FF03C081508C6F8F5F5A
:1023400080933202CF910895E0912F02F0E0E05D9A
:10235000FD4F2081FC0120830895FF920F931F936E
:10236000CF93DF93D0912E020D2F10E0005D1D4F13
:10237000FC01C081F8018081C81BFC2E1F1464F091
:102380008C2FC7FD80E0C81BC11110C0DF91CF9119
:102390001F910F91FF900895FA94F80180818F5F4B
:1023A000808360E08D2F0E94DD10E8CFCF5FF801C1
:1023B00080818150808361E08D2F0E94DD10E4CF09
:1023C0000F931F93CF93DF93C62FD42F022FFC01BF
:1023D00082818823C9F0609336020E948520909301
:1023E00035028093340280E28C0F883008F050C0B0
:1023F000C77081E001C0880FCA95EAF7DF91CF91DD
:102400001F910F910C94F71610913602161335C0D8
:1024100080913402909135020E949120883C910570
:1024200060F5C0E2CD0F1D17B9F080E2810F883052
:1024300040F4177081E001C0880F1A95EAF70E94F6
:10244000FE16C83048F481E09D2F977001C0880FB8
:102450009A95EAF70E94F716802F0E94DF16C8307F
:10246000B8F4D77081E001C0880FDA95EAF7DF9100
:10247000CF911F910F910C94FE1680E28C0F883043
:1024800038F4C77081E001C0880FCA95EAF7EFCF32
:10249000DF91CF911F910F9108959C01CB01233FB4
:1024A0004CE5340731F190F4283DFCE53F07E9F0B5
:1024B000293D4CE5340769F1273D3C4579F426E296
:1024C00041EE61EE0E94E01180E00895253FFCE5B9
:1024D0003F07B9F090F0263F3C45B9F0FC018281FE
:1024E0008823D1F010923602089527E245EE65EE7A
:1024F000E9CF26E241EE60EEE5CF27E245EE64EE5D
:10250000E1CF26E241EE62EEDDCF27E245EE66EE58
:10251000D9CF28E241E0EBCF81E00895CF93DF935C
:10252000EC01FB018281882309F419C1C230FCE56A
:10253000DF07C0F1C6319CE5D90730F09E012A5F64
:102540003C452930310570F50E941C1F9093B00462
:102550008093AF04C031ECE5DE0709F4CFC008F08A
:102560005BC0C8308CE5D80709F4B6C088F5C43024
:10257000ECE5DE0709F4A8C0C0F4C2308CE5D8074A
:1025800009F49CC08091AF048260C330DC4509F43B
:1025900098C08091AF049091B0040E942A1F0E94BD
:1025A0005B1980E0DF91CF9108958091AF04806145
:1025B000C630ECE5DE0709F484C08091AF04886082
:1025C000C730DC4508F47DC08091AF04806279C0DB
:1025D000CC308CE5D80709F489C070F48091AF0441
:1025E0008C60CA30ECE5DE0709F46BC008F478C0F3
:1025F0008091AF048E7F65C0CE308CE5D80709F49A
:1026000079C08091AF048B7FCF30DC4508F459C08E
:102610008091AF048F7E55C0CB3FECE5DE0709F417
:1026200057C030F5C3318CE5D80709F46FC078F492
:10263000C131ECE5DE0709F465C0C231DC4509F0C3
:10264000A8CF0E945B198091AF048F773AC0C53143
:102650008CE5D80709F462C008F476C08091B00414
:102660008160CA3FDC4509F094CF8093B00491CFDC
:10267000CF3FFCE5DF0709F44DC088F48091B0043A
:102680008D7FCD3F9CE5D90781F38091B0048E7F8B
:10269000CE3FDC4550F38091B0048360E6CFC1307B
:1026A000FDE5DF0709F459C008F444C080E0C230FA
:1026B000DD4509F06ECF0E94A81F6BCF8091AF045B
:1026C00081608093AF0465CF8091AF048460F9CFBF
:1026D0008091B0048260C9CF8091AF048064F1CF53
:1026E0000E945B198091AF048068EBCF8091AF04AA
:1026F0008D7FE7CF8091AF04877FE3CF8091AF04D8
:102700008F7DDFCF8091AF048F7BDBCF8091AF04D3
:10271000837FD7CF8091B0048C7FA7CF8091AF0407
:1027200082FB992790F921E0922790FB82F990FB98
:1027300083F9C7CF8091B004982F909591708E7FC8
:10274000892B90FB81F991CF0E945B199091AF0486
:10275000892F97FB87F98058B4CF81E0ACCF81E017
:1027600021CFCF93DF93EB0186319C4511F50E9479
:10277000621E9A81992399F08A7A91E009F490E097
:1027800090933702811109C089E20E943D1E0E9488
:10279000A11E80E0DF91CF91089585E3F6CF80916F
:1027A0003702811104C089E20E94441EF0CF85E304
:1027B000FBCF81E0EFCF8EE14A9B02C08150E1F771
:1027C0004A9BFECF08955A9880E28A95F1F75A9A6B
:1027D0000895FC013BE03A95F1F798E020E080E0B5
:1027E00031E040E14A95F1F7880F4A9B02C08160D1
:1027F000232742E04A95F1F7000040E14A95F1F7BE
:10280000915079F790E19A95F1F799B132E03A95C4
:10281000F1F7000040E14A95F1F792FB992790F912
:1028200092272081920F90830895EF92FF920F9349
:102830001F93CF93DF930F92CDB7DEB719828C0130
:102840007C01E60EF11C0E151F0561F481E09981F3
:10285000911180E00F90DF91CF911F910F91FF9028
:10286000EF9008950E94DB13CE0101960E94E913B8
:10287000F80181938F01E7CF90933902809338025A
:10288000529A5A9A08959093390280933802529836
:102890005A9AEA9AE9E6F0E080818F7C8083089575
:1028A0006150770B91E001C0990F6A95EAF720E03B
:1028B00031E0911108C0222391F05A9A80E28A9562
:1028C000F1F75A980895492F482339F05A9A232747
:1028D00040E24A95F1F79695ECCF5A98F9CF5A987D
:1028E000EDCFFF920F931F93CF93DF93EC018C01F9
:1028F000060F111DC017D10731F4DF91CF911F9141
:102900000F91FF900895F9900E94E31368E08F2DD6
:102910000E945014EFCF1F920F920FB60F92112406
:102920002F933F934F935F936F937F938F939F93D7
:10293000AF93BF93CF93DF93EF93FF935A98529A3D
:10294000C0913802D09139026D81662321F08E81C9
:102950009F810E9471140E94E31380E18A95F1F730
:102960005A9852985A9A80E18A95F1F76A816623BB
:1029700009F18B819C810E941514E881F9818823DB
:1029800011F088E001C082E080830E94DB13FF9198
:10299000EF91DF91CF91BF91AF919F918F917F91F7
:1029A0006F915F914F913F912F910F900FBE0F90BC
:1029B0001F901895E881F981E4CFCF93DF93C09100
:1029C0003802D0913902F894529A5A9885E08A9543
:1029D000F1F7000052985A9A80E28A95F1F74A9BE3
:1029E0000CC0529A5A9AE881F98181E080837894E8
:1029F00081E090E0DF91CF9108956D81662381F0B1
:102A00008E819F810E94151481110AC0529A5A9A90
:102A1000E881F98182E08083789482E090E0EACFD7
:102A20000E94DB1380E28A95F1F75A98529A80E16E
:102A30008A95F1F76A81662321F08B819C810E943F
:102A400071140E94E313E881F9811082789490E078
:102A500080E0D0CF90933F0280933E020895E091B2
:102A60003E02F0913F02309721F00190F081E02D7D
:102A7000099480E00895E0913E02F0913F02309782
:102A800021F00280F381E02D0994089520913C0209
:102A900030913D022817390771F090933D028093E1
:102AA0003C02E0913E02F0913F02309721F0068017
:102AB000F781E02D0994089520913A0230913B026C
:102AC0002817390771F090933B0280933A02E09106
:102AD0003E02F0913F02309721F00084F185E02D15
:102AE0000994089585B7806885BF85B7806885BFDC
:102AF0000895089508950C9479150C944F050E943B
:102B000072150E947A150C947B150C94B20A0E94DF
:102B10007C200E94EA080E94D5200E94F20F0E94A9
:102B2000DF100C947D159F92AF92BF92CF92DF92EF
:102B3000EF92FF920F931F93CF93DF93CDB7DEB742
:102B40002A970FB6F894DEBF0FBECDBF0E94C00912
:102B50000E948515882309F472C051E4A52E52E025
:102B6000B52E10E000E0902E802F0E94DB086C0153
:102B7000F501E190F1905F01E816F90609F459C0FA
:102B80008091F20281FD0E94E40897012C253D25E9
:102B900080E0EE24E394F12CA9014E215F21452B26
:102BA00009F441C08E839F82CE20DF2081E0CD28B2
:102BB00009F480E088870E9485208160782F9A87B9
:102BC00089874E815F8168858A850E944216000F41
:102BD000111FF801EF5BFD4F80819181E826F926F6
:102BE000F182E0820E943C110E94360D0E942F1556
:102BF000909140028917A1F10E942F158093400205
:102C00002A960FB6F894DEBF0FBECDBFDF91CF91ED
:102C10001F910F91FF90EF90DF90CF90BF90AF90FA
:102C20009F900C949B068F5FEE0CFF1C8A3009F07E
:102C3000B3CF0F5F1F4F0C30110509F094CF8FEF0A
:102C400089838A831B820E9485208160782F9D83DF
:102C50008C8349815A816B818D810E944216C2CF3B
:102C60002A960FB6F894DEBF0FBECDBFDF91CF918D
:102C70001F910F91FF90EF90DF90CF90BF90AF909A
:102C80009F900895CF93DF93CDB7DEB72B970FB604
:102C9000F894DEBF0FBECDBF4F83588769877A8710
:102CA0008B871E821D8285E0FE013796DE0111961C
:102CB00001900D928A95E1F749815A816B817C815F
:102CC0008D819E812B960FB6F894DEBF0FBECDBFCF
:102CD000DF91CF910C94D11BFC01808191810C94E8
:102CE0000F1ECF93C82F882309F43FC08CEF8C0FA1
:102CF000813AA0F46C2F80912601909127010E94C7
:102D0000BF1F882329F08C2F0E94441E0E94A11E01
:102D10008C2F0E943D1ECF910C94A11E80E28C0F3F
:102D2000883048F4C77081E001C0880FCA95EAF77F
:102D30000E94651EF0CFEBE5EC0FE33040F4F0E0CD
:102D4000E654FE4F808190E0CF910C944615C85A0E
:102D5000C73158F4EC2FF0E0EE0FFF1FE457FE4FA1
:102D600080819181CF910C945C15CF910895882337
:102D700029F19CEF980F913A20F40E94441E0C9484
:102D8000A11E90E2980F983050F4877091E001C036
:102D9000990F8A95EAF7892F0E946B1EF0CF9BE569
:102DA000980F933020F490E080E00C944615885AF8
:102DB000873120F490E080E00C945C150895CF9367
:102DC000C82F0E947116C93369F42FEF87EE93E084
:102DD000215080409040E1F700C000008C2FCF913F
:102DE0000C94B7168FE39CE90197F1F7F5CF882390
:102DF00021F00E94651E0C94A11E0895882321F0E5
:102E00000E946B1E0C94A11E0895BF92CF92DF9278
:102E1000EF92FF920F931F93CF93DF936C01D62F06
:102E2000C72FFC01058102950F70128111110E94BC
:102E3000821E0E945B1EE82E882391F01123E9F088
:102E40008C2F807F803421F080E28D0F8830A8F0B5
:102E500082E00E94EC1E0E945B1E91E0E82EE926B3
:102E6000BC2EB2949FE0B922FBE0FB15A8F1EB2D3C
:102E7000F0E0EA55F34D0C94422CE12CF1CF0C2FED
:102E80000F70C07F11F00295007F1123A9F000237D
:102E900059F080E28D0F883010F0D11109C0802FD9
:102EA0000E94651E0E94A11E8D2F0E94711614C0E3
:102EB000802F0E94751EF6CF8D2F0E94B71600231B
:102EC00059F080E28D0F883010F0D1112BC0802F87
:102ED0000E946B1E0E94A11EEB2DE850FF0B349741
:102EE00020F40E942F150E949B06EE2009F488C151
:102EF0000E94571E80FD84C1F60112820E94511E5D
:102F00000E94DD1CC6010E9421190E94511EDF9102
:102F1000CF911F910F91FF90EF90DF90CF90BF90D6
:102F20000C94FE1C802F0E947B1ED4CF2C2F2F7060
:102F3000F22EC07FC03219F0F29480EFF822DD2328
:102F400069F0D13049F1112391F1002351F1F601DB
:102F5000858180FFA9CF8F70858323C0112381F0E5
:102F6000011106C00E94881E8F290E94F716B4CF57
:102F70000130C1F70E94881E8F290E948E1EACCF9F
:102F8000011106C00E94971E8F2D0E94FE16A4CF2D
:102F9000013009F4A1CFF6CF112329F0063008F053
:102FA0009BCF8F2DE2CF053008F096CFEDCF0023D9
:102FB00059F3D93309F01CC1FFEF27EE33E0F1508C
:102FC00020403040E1F700C000008D2F0E94B7166E
:102FD00083CF8C2F86958695837069F0813009F0B8
:102FE0007BCF8D2F9C2F9370111102C090E080E059
:102FF0000E945C1571CF8D2F9C2F9370111102C010
:1030000090E080E00E94461567CF8C2F837009F016
:1030100041C0111161CF4D2F429546954770440F25
:10302000440F0D2F0F7010E030E020E0042E04C09C
:10303000000F111F221F331F0A94D2F760E070E0C7
:10304000CB01D4FF0FC06FE070E080E090E004C0DF
:10305000660F771F881F991F4A95D2F76095709564
:1030600080959095C695C695C370602B712B822B69
:10307000932BC23049F058F4C13019F00E948F1CD4
:103080002BCF0E947D1C28CF0E94A11C25CF0E941F
:103090007B1C22CF8695112311F08C2F8170882301
:1030A00009F41ACF4D2F429546954770440F440FAF
:1030B0000D2F0F7010E030E020E0042E04C0000F50
:1030C000111F221F331F0A94D2F760E070E0CB017A
:1030D000D4FF0FC06FE070E080E090E004C0660FA6
:1030E000771F881F991F4A95D2F760957095809534
:1030F0009095C695C695C370602B712B822B932B30
:10310000C23049F058F4C13019F00E94541DE4CE89
:103110000E94421DE1CE0E94661DDECE0E94B71CB9
:10312000DBCECF70112329F08C2F0E94DD1C8D2F58
:103130001CCF8D2F0E94FE168C2F0E94FE1CCCCE21
:10314000D23F89F160F4D03FC9F0D13F29F111237A
:1031500009F442C00111A8CE8C2F8F7121C0D33F3A
:1031600039F1D43FA1F7112369F1CF718C2F0E945F
:10317000DD1C63E08C2F0E94D71EAECE112341F0E0
:10318000053008F0A9CE8C2F8F710E94211DA4CE8E
:10319000063008F0A1CEF7CF8C2F8F71112369F282
:1031A0000E94DD1C99CE8C2F8F711123C9F3C5CFDE
:1031B000112329F08C2F8F710E94C81C8DCE0E9484
:1031C000C31C8ACE81E00E94EC1E023008F484CE3B
:1031D00082E00E94EC1E80CE002379F0D93341F4C6
:1031E0009FEFE7EEF3E09150E040F040E1F7EBCEE7
:1031F0008FE39CE90197F1F7E6CE8C2F8F719DCF7D
:10320000DF91CF911F910F91FF90EF90DF90CF90C2
:10321000BF9008950F931F93CF93DF93EC016881C4
:1032200079818A810E94191E8C010E94781D0E945A
:103230007A1CB801CE01DF91CF911F910F910C94B0
:103240000517CF93DF93EC018B819C81892B29F0AB
:103250008881998189238F3F59F4DF91CF91089517
:10326000CE010E940A19CE01DF91CF910C946C0619
:10327000CE010E94B3068111F3CF0E945B1E88230A
:1032800061F38A81882349F382E0DF91CF910C9426
:10329000EC1E0E94821E0E94851E0E94A11E90E0CC
:1032A00080E00E94461590E080E00C945C150E943E
:1032B0004B1E0C9449190E94721E0C945719E92F49
:1032C000E295EF70E250EE3070F4F0E0EE54F34D22
:1032D0000C94422C803F19F020F4883E20F481E0C9
:1032E0000895843FE1F380E00895883EC0F3813F74
:1032F000D1F7F5CF93FB882780F908950E940F1E20
:103300000C945F19CF93DF9300D000D00F92CDB70C
:10331000DEB70F900F900F900F900F90DF91CF912D
:103320000895CF93DF9300D000D000D0CDB7DEB7A3
:1033300026960FB6F894DEBF0FBECDBFDF91CF91BA
:1033400008951F93CF93DF93C0915A0216E08091A6
:103350005B028C1304C0DF91CF911F910895D0E0E0
:103360001C9FF0011D9FF00D1124E45AFD4F408178
:10337000518162817381848195810E949119219686
:10338000C770E5CF40918C0250918D0260918E0202
:1033900070918F0280919002909191020C949119FA
:1033A0001F93CF93DF9380919102807FA9F4809146
:1033B0008E02882389F080915A02C0915B0260914D
:1033C0008C0270918D02A0918F02B0919002D62F45
:1033D000D72316E0C81304C0DF91CF911F91089541
:1033E00090E0109711F0DF3F19F401968770F2CF4B
:1033F000189F9001199F300D1124F901E45AFD4FD7
:1034000041814713F2CF40814613EFCF42814111F2
:10341000ECCF438154814A1B5B0B483C510528F794
:10342000809191028F70806180939102F901EF5930
:10343000FD4F80818F70806180838CE892E00E94D4
:103440002119DF91CF911F910C94A119AF92BF92D6
:10345000CF92DF92EF92FF920F931F93CF93DF9360
:10346000CDB7DEB761970FB6F894DEBF0FBECDBF04
:103470008C0185E0F801DE011D9601900D928A9580
:10348000E1F7F80140815181E2808CE8C82E82E0AA
:10349000D82E60918F02709190026115710509F428
:1034A00061C190918C0220918D02892F82238F3FE0
:1034B00009F458C1A380B480F0908E02F501E61B98
:1034C000F70BFF2009F4FCC080919102382F307F68
:1034D000E83CF10508F0B2C0311179C0FE2C25138B
:1034E00023C0941321C0E1101FC08F7080618093AE
:1034F00091020E94C219C6010E9421198091910275
:10350000F80185838F2D61960FB6F894DEBF0FBE4C
:10351000CDBFDF91CF911F910F91FF90EF90DF9082
:10352000CF90BF90AF900895AB2829F0842F8523CA
:103530008F3F09F033C180E0F82FF170DF2E80FF5C
:103540003CC080915A0220915B0236E0821315C084
:103550004D875E878D859E850E940F1E292F22959F
:103560002F702230F0F0243018F59F70F1F0F80140
:103570009581907FD1F4D12C1EC090E0389FF0014E
:10358000399FF00D1124E45AFD4F6181651306C087
:103590006081641303C062816E110FC00196877051
:1035A000D5CF9F7011F0882331F3805E883018F3F7
:1035B000C8010E942119FD2CA5CFEE2009F4A2CF4D
:1035C00080919102816080939102F12C9BCF251311
:1035D00006C0941304C0F801EE2009F48DC04D8795
:1035E0005E878D859E850E947E19882319F1EE20C5
:1035F00009F180919102803270F020918C0230911B
:103600008D0238872F831986BB86AA868C87CE01C8
:1036100007960E94211986E0F801ACE8B2E001901B
:103620000D928A95E1F70E94D0190E94C219FF24D9
:10363000F39468CFC8010E942119F9CF311113C04A
:103640007A2DB98AA88A6E2D89890E9482198CE800
:1036500092E00E94211986E0F60111928A95E9F71D
:103660000E94C219B2CF25130FC094130DC0E110F0
:103670000BC0F8018583C8010E94211986E0F6017C
:1036800011928A95E9F73ECF4D875E878D859E859D
:103690000E947E19882371F2EE2061F280919102DE
:1036A000803208F4B8CF20918C0230918D023A8399
:1036B00029831B82BD82AC828E83CE010196A9CF65
:1036C000E83CF10508F041C0FE2CEE2009F4B2CF31
:1036D00025132AC0941328C08091910280FD1BC03D
:1036E000982F907FC1F0F8018583903F31F0982F9B
:1036F000907F905F8F70892B8583C8010E9421196C
:1037000086E0F801ACE8B2E001900D928A95E1F70D
:103710000E94C219F7CE86E0F801ACE8B2E0019051
:103720000D928A95E1F7EECE4D875E878D859E8559
:103730000E947E1981116FCF8091910281608093E8
:103740009102C8010E942119DDCE7A2DB98AA88A7A
:103750006E2D89890E94821986E0F60111928A9560
:10376000E9F7D6CFEE2009F465CF4D875E878D85CA
:103770009E850E947E19F82E882309F45BCF86E08F
:10378000F801ACE8B2E001900D928A95E1F78CE87F
:1037900092E00E946C160E94D019BACF81E08E256B
:1037A000CBCE1F93CF93DF93CDB7DEB72C970FB659
:1037B000F894DEBF0FBECDBF4F83588769877A87E5
:1037C0008B879C87CE0107960E94261A882369F072
:1037D0008A859B85892B39F04F815885842F8523D5
:1037E0008F3F09F071C016E05FC086E0FE0137969A
:1037F000DE01119601900D928A95E1F78A859B85ED
:10380000892B89F38F81988589238F3F61F32091DC
:103810005B0230E0C90101968770992740915A02F6
:103820004817190671F40E945B1910925B021092FE
:103830005A0286E0ECE8F2E0DF011D928A95E9F792
:10384000D2CF96E0929FD001939FB00D1124A45A3D
:10385000BD4FFE01319601900D929A95E1F780934C
:103860005B020E94A119BFCF819FC0011124845A1D
:103870009D4F0E94261A8823E9F0E0915A021E9F6C
:10388000F0011124E45AFD4F40815181628173811E
:10389000848195810E94911980915A0290E001964D
:1038A0008770992780935A0280915A0290915B0207
:1038B0008913DACF2C960FB6F894DEBF0FBECDBFBA
:1038C000DF91CF911F91089569857A858B859C85BD
:1038D0000E94911988CF08950C946B1C0E946C1C57
:1038E0006093E1027093E2028093E3029093E4021A
:1038F0000C94491908950C946E1C0F931F9300911A
:10390000E1021091E2022091E3023091E402602B87
:10391000712B822B932B1F910F910C946E1C0F9384
:103920001F930091E1021091E2022091E302309195
:10393000E40260237123822393231F910F910C943F
:103940006E1C0F931F930091E1021091E2022091EF
:10395000E3023091E40260277127822793271F91A9
:103960000F910C946E1C0C946B1C0C94B31C0E9455
:10397000B51C6093DD027093DE028093DF029093AA
:10398000E0020C94491960E070E0CB010C94B71C84
:103990000F931F9341E050E060E070E08A019B01CB
:1039A00004C0000F111F221F331F8A95D2F7C901CF
:1039B000B8011F910F910C94B71C0F931F9341E016
:1039C00050E060E070E004C0440F551F661F771F91
:1039D0008A95D2F78091DD029091DE02A091DF02FC
:1039E000B091E0028A019B01082B192B2A2B3B2B5B
:1039F000C901B8011F910F910C94B71C0F931F932D
:103A000041E050E060E070E004C0440F551F661FC5
:103A1000771F8A95D2F7CB01BA0160957095809592
:103A200090950091DD021091DE022091DF0230912D
:103A3000E00260237123822393231F910F910C9442
:103A4000B71C0F931F9341E050E060E070E004C0AA
:103A5000440F551F661F771F8A95D2F78091DD02AC
:103A60009091DE02A091DF02B091E0028A019B01F9
:103A7000082719272A273B27C901B8011F910F9151
:103A80000C94B71C0F931F930091DD021091DE027E
:103A90002091DF023091E002602B712B822B932B5F
:103AA0001F910F910C94B71C0F931F930091DD028F
:103AB0001091DE022091DF023091E0026023712339
:103AC000822393231F910F910C94B71C0F931F9384
:103AD0000091DD021091DE022091DF023091E002C0
:103AE00060277127822793271F910F910C94B71C91
:103AF00008952AE0929F800D1124982F977041E03D
:103B000001C0440F9A95EAF786958695869595E0CB
:103B1000899FF0011124EE56FD4F90E080E070E0A7
:103B20005191DF0111979B01082E02C03695279510
:103B30000A94E2F7217021952527242325272C9329
:103B400001968530910561F708952AE0929F800DD6
:103B50001124982F977086958695869525E0829FEB
:103B6000F0011124EE56FD4F50E040E080E021913D
:103B700030E0092E02C0369527950A94E2F72170AD
:103B80003327042E01C0220F0A94EAF7822B4F5FDD
:103B90005F4F4530510559F70895BF92CF92DF929C
:103BA000EF92FF920F931F93CF93DF938C01C090FE
:103BB000DD02D090DE02E090DF02F090E002809122
:103BC000E1029091E202A091E302B091E402C82ADE
:103BD000D92AEA2AFB2ACFE1D0E0BC2ED701C601C0
:103BE0000C2E04C0B695A795979587950A94D2F7A1
:103BF00080FD0EC0219788F7B12C8B2DDF91CF91DE
:103C00001F910F91FF90EF90DF90CF90BF9008959C
:103C1000B8018C2F0E940F07019761F3EECFCF936D
:103C2000DF93EC010E94CD1DBE01DF91CF910C947A
:103C30000F071F93CF93DF93EB01909159029923C4
:103C400031F0CB01DF91CF911F910C940F1E88238F
:103C500079F0CB010E94CD1D182F682FCE010E9454
:103C6000791DBE01812FDF91CF911F910C940F0719
:103C7000CB010E94A51D182FF4CF682F809126013B
:103C8000909127010C94F51F682F80912601909147
:103C900027010C94F71F80912601909127010C9425
:103CA000F91F8091E5028595859585950895809108
:103CB000E502877008959091E502977081E009F41C
:103CC00080E008958091F10208959091F102892B8E
:103CD0008093F102089580959091F102982390933A
:103CE000F10208951092F10208959091F002892B4B
:103CF0008093F002089580959091F002982390931C
:103D0000F00208951092F00208951092EF020895C3
:103D10008091E602089508950C948B1E9091E6021E
:103D2000981721F08093E6020C948C1E08958091E0
:103D3000E602882329F01092E60280E00C948C1EA3
:103D40000895E0912601F09127018091F10280838E
:103D5000E0912601F091270180819091F002892B5A
:103D60008083E0912601F091270180819091EF02FC
:103D7000892B80839091E602992381F0E0912601BE
:103D8000F09127018081892B808380912601909179
:103D900027010E94AD1F81110E94971E809126016C
:103DA000909127010C943B1508950C94D41E98E033
:103DB000899F90011124622B6093E5020E94DD1C13
:103DC0008091E5028595859585950C94D51E109278
:103DD000E50280E00C94D51E9091E5028095892340
:103DE0008093E502282F277071F4282F082E000CED
:103DF000330B9217130639F08595859585950E94AA
:103E0000FE1C0C94E71E089590E080E00E94562C62
:103E100021E08C3E9E4F09F020E0822F089582E041
:103E200090E00C94482C83E090E00C94482C682F90
:103E300083E090E00C945C2CCF9384E090E00E94AF
:103E4000482CC82F81E290E00E94482C982F8C2F9C
:103E5000CF910895CF93C92F682F84E090E00E94FE
:103E60005C2C6C2F81E290E0CF910C945C2CAB0128
:103E7000BC018FE090E00C946E2CAB01BC0183E19F
:103E800090E00C946E2C60E070E0CB010C943D1F30
:103E900060E070E0CB010E94371F0C94431F6CEE72
:103EA0007EEF90E080E00E947A2C60E082E090E07B
:103EB0000E945C2C60E083E090E00E945C2C1092F9
:103EC000E1021092E2021092E3021092E40260E03A
:103ED00084E090E00E945C2C60E081E290E00E942F
:103EE0005C2C60E085E090E00E945C2C60E086E065
:103EF00090E00E945C2C6FEF87E090E00E945C2CC9
:103F000040E050E0BA0188E090E00E946E2C60E052
:103F10008DE090E00E945C2C40E050E0BA0188E126
:103F200090E00E946E2C60E087E190E00E945C2CA3
:103F300040E050E0BA018CE190E00E946E2C60E01D
:103F400080E290E00E945C2C0C94481F0C944F1F60
:103F5000682F8EE090E00C945C2C9C012E5F3F4F0C
:103F6000AC01485F5F4F80E02417350709F40895DE
:103F7000F90191919F019923B9F38F5FF5CF6623E2
:103F800049F0FC01329608962191261729F0E8178E
:103F9000F907D1F780E0089581E008959C01FC01C4
:103FA00032969FEF80E04191461751F09F3F19F400
:103FB000411101C0982F8F5F8630A9F79F3F09F408
:103FC0000895290F311D97FD3A95F90162830895EF
:103FD000FC01329608962191261303C0DF01119748
:103FE0001C92E817F907B9F708950C94CE1F0C94AA
:103FF000E81F029626E0FC0111922A95E9F7089540
:10400000089508950C9401200E9402208091A20539
:10401000843049F11092F30288E190E020E40FB679
:10402000F894A895809360000FBE2093600080E014
:104030000E949B060E94022083B7817F846083BF19
:1040400083B7816083BF7894889583B78E7F83BF61
:104050000FB6F894A8958091600088618093600005
:10406000109260000FBE08950895CF930E94002023
:104070000E94C0090E943420C0E08C2F0E94DB08FF
:10408000892B31F4CF5FCC30C1F780E0CF91089518
:1040900081E0FCCF08950C944A200E945B190E9495
:1040A0002F150E949B060C944B201F921FB61F9247
:1040B00011248F939F93AF93BF938091F30281114B
:1040C00013C08091AB049091AC04A091AD04B09169
:1040D000AE044196A11DB11D8093AB049093AC0436
:1040E000A093AD04B093AE04BF91AF919F918F9117
:1040F0001F901FBE1F90189582E084BD93E095BD70
:104100009AEF97BD80936E0008952FB7F894809131
:10411000AB049091AC04A091AD04B091AE042FBF5C
:1041200008959C014FB7F8948091AB049091AC0432
:10413000A091AD04B091AE044FBF821B930B0895C4
:1041400078941F921FB61F9211248F939F93AF9361
:10415000BF938091AB049091AC04A091AD04B09159
:10416000AE040196A11DB11D8093AB049093AC04E5
:10417000A093AD04B093AE04BF91AF919F918F9186
:104180001F901FBE1F90189587E797E7909301082F
:104190008093000888E19AE00FB6F894A895809380
:1041A00060000FBE90936000FFCF0E94041F81113A
:1041B00002C00E94A61F0E940F1F8093F2020E945D
:1041C0001C1F9093B0048093AF040E94131F682FAC
:1041D00070E090E080E00C947B1C881F8827881F8B
:1041E000089591E0883F08F490E0892F0895982F72
:1041F000907F903BE9F040F49039D1F0903AC1F0D3
:104200009038B1F080E00895903D19F020F4903C92
:10421000C9F782E00895903E59F0903F99F7815F89
:104220008F3080F7E82FF0E0E354FE4F808108954F
:1042300083E008950F93022F0F77242F2F776F704D
:10424000462F406BDC01ED91FC9163E070E0099535
:104250000F9108950F93022F0F77242F2F776F70F0
:10426000462F4069DC01ED91FC9163E070E0099517
:104270000F9108950F93022F0F77242F2F776F70D0
:10428000462F4068DC01ED91FC9163E070E00995F8
:104290000F9108950F931F93411520E2520744F4A4
:1042A0009A01305E4115504E2CF430E020E002C0FF
:1042B0002FEF3FE38901000F012F001F110B119514
:1042C0002F776F70462F406EDC01ED91FC9163E01B
:1042D00070E009951F910F910895FC01738362832B
:1042E0000895FC01758F648F0895CF93DF93EC01DF
:1042F0001DA21FA21EA2BC01685D7F4F40EC885129
:104300009F4F0E9480231B821A821D821C821F8263
:104310001E82198618861B861A861D861C861F8695
:104320001E86198A188A1B8A1A8A1D8A1C8A1F8A65
:104330001E8A198E188E1B8E1A8E1D8E1C8E1F8E35
:104340001E8E19A218A2DF91CF910895EF92FF92CD
:104350000F931F93CF93DF93EA018A01060F111D7C
:1043600088519F4F7C01C017D10739F4DF91CF915D
:104370001F910F91FF90EF9008956991C7010E94DE
:104380008723F1CFFC01718360830895FC0171A341
:1043900060A30895AF92BF92CF92DF92EF92FF9207
:1043A0000F931F93CF93DF9300D00F92CDB7DEB75B
:1043B0007C016B01142FB22EA02EDC0195968C91FE
:1043C00095978430A9F55A96ED91FC913097E9F1D3
:1043D000CB01019763E070E00E941A2CCB01880F9B
:1043E000991F860F971F4983BA820B834C2D481B58
:1043F0009E012F5F3F4FBC01C7010995D7015E9613
:10440000ED91FC91309731F00A2D2B2D412FB60103
:10441000C70109950F900F900F90DF91CF911F91D9
:104420000F91FF90EF90DF90CF90BF90AF900895E5
:104430006230710509F455C06330710599F061303F
:10444000710509F481C0D12CC12CD7015C96ED9186
:10445000FC91309799F20A2D2B2D412FB601C701FF
:104460000995CCCF842F807F803A11F148F48038B1
:10447000D1F0803951F7D7011496ED91FC910AC023
:10448000803ED9F0803FF1F0803BF9F6D7011296DB
:10449000ED91FC913097C9F2123FE9F02A2D4B2D96
:1044A000612F6F701BC0D7011696ED91FC91F2CF72
:1044B000D7011896ED91FC91EDCFD7011A96ED91A9
:1044C000FC91E8CF423F09F6D7011C96ED91FC9193
:1044D000309709F4BACF2A2D4B2D62EFC701099509
:1044E0008DCF842F807F803DB1F0803FC9F0803C2C
:1044F00009F0ABCFD7011E96ED91FC91309709F4EE
:10450000A4CF812F8D7F4B2D612F6F70813F89F05C
:10451000C701099573CFD7015096ED91FC91EECF6D
:10452000433F51F4D7015296ED91FC91309709F435
:104530008CCF4B2D612FECCF413F09F086CFD701B7
:104540005496ED91FC91F2CF842F0E94F1208823A4
:1045500059F0D7015696ED91FC91309709F475CF3B
:10456000612FC70109954ACF163F09F06ECFD701D9
:104570005896ED91FC91F1CFFF920F931F93CF933B
:10458000DF93EC01162F862F0E94F120882391F0F3
:10459000FDA081E08DA300E020E0412F61E070E00C
:1045A000CE010E94CA21FDA2DF91CF911F910F91F0
:1045B000FF900895812F0E94ED204DA1882309F4DA
:1045C00043C0443029F01AA381E090E09FA38EA35A
:1045D000812F0E94F720813051F08823A9F082308A
:1045E00089F0833079F01DA21FA21EA2DDCF8DA31A
:1045F00000E020E0412F61E070E0CE010E94CA217E
:104600001DA2D2CF8DA3D0CF103FB1F0173F59F7E5
:104610002EA13FA1C90163E070E00E941A2CFE01A7
:10462000E80FF91F12A3B9016F5F7F4F7FA36EA33D
:104630000CA12BA14AA1E1CF84E08DA31AA381E0B4
:1046400090E09FA38EA3B0CF442309F4ADCF2EA159
:104650003FA1C90163E070E00E941A2CFE01E80F3F
:10466000F91F12A3B9016F5F7F4F7FA36EA3813043
:10467000910569F0029709F097CF0CA12BA14AA1EF
:10468000CE010E94CA218DA18430C9F68DCF00E0F1
:10469000423009F089CFF2CFCF92DF92EF92FF92B2
:1046A0000F931F93CF93DF93EC01E8A1F9A130970B
:1046B00009F009956E0188EEC80ED11CC6010E9452
:1046C000B62310E000E0E82EF12C0E151F0548F08F
:1046D000DF91CF911F910F91FF90EF90DF90CF90DE
:1046E000089560E0C6010E94CA23682FCE010E948F
:1046F000BC2261E0C6010E94DA230F5F1F4FE5CFA5
:10470000FC014283748363831182108208951F9396
:10471000CF93DF93EC01162F0E94F123482F2981BC
:1047200030E0C90101966A8170E00E942E2C588108
:104730005817190641F4842F0E94F42380E0DF917A
:10474000CF911F9108958B819C81280F391FF9010A
:104750001083898190E001966A8170E00E942E2C7E
:104760008983842F0E94F42381E0E9CFCF93DF93E4
:10477000EC010E94F12399812881921740F0C92F02
:10478000C21B0E94F4238C2FDF91CF910895CA8120
:104790009C0FF5CFFC018081860F9927991F6281BC
:1047A00070E00E942E2C23813481280F391FF901DB
:1047B000808108951F93CF93DF93EC01162F0E9401
:1047C000F123282F8881810F9927991F6A8170E032
:1047D0000E942E2C8883822FDF91CF911F910C9401
:1047E000F4238FB7F89408958FBF0895089508951E
:1047F0000F931F93CF93DF9300D000D000D00F9280
:10480000CDB7DEB78C01CE0101960E946B268111D7
:104810000BC027960FB6F894DEBF0FBECDBFDF9159
:10482000CF911F910F9108958A810E94F7209A815C
:104830009D839B819E839C819F8381110AC0898176
:10484000843079F0873069F0863069F08530D9F6A8
:1048500081E0AE014B5F5F4F682FC8010E94A62127
:10486000D2CF83E0F6CF82E0F4CFDF92EF92FF92D7
:104870000F931F93CF93DF9300D000D0CDB7DEB757
:104880007B01142FD22E4A832B830C83842F0E940A
:10489000F720811129C082E0E816F10401F183E0DC
:1048A000E816F10439F0EA94EF2869F485E0173F3F
:1048B00021F404C087E0073F09F084E08983CE013A
:1048C00001960E9466260F900F900F900F90DF9137
:1048D000CF911F910F91FF90EF90DF90089587EF98
:1048E000D812EBCF86E0EACF12951F701983E7CF7D
:1048F0000E94270B81EB94E00E94752165E374E22E
:1049000081EB94E00E94C22168EF73E281EB94E0B6
:104910000E94C62166EF73E281EB94E00E94712150
:1049200067EF73E281EB94E00C946D219B01409161
:10493000A2054430C1F4FC0191819F709093E9007D
:1049400050E040E064E070E0C9010E943A27811124
:104950000BC09091E80095FD07C09091E8009E770C
:104960009093E800089582E008952091A2052430F4
:1049700091F4FC0181818F708093E9009091F300A4
:104980008091F200892B49F08091E8008E77809326
:10499000E8000C94E82882E0089580E00895FC0186
:1049A0008091A205843059F491819F709093E90021
:1049B0008091E80080FF03C0CF010C94B5240895D6
:1049C0009B014091A205443011F080E00895FC0164
:1049D00096819F709093E9008091E80082FFF5CF67
:1049E0008091E80085FFF1CF50E040E064E070E0A6
:1049F000C9010E9489278091E80085FD05C080914A
:104A0000E8008B778093E80081E008958091FC02B4
:104A100008950895CF93DF9300D00F92CDB7DEB7FE
:104A20009091A205943019F589837B836A8382E093
:104A30008093E9008FEF9091E800815095FD06C0CA
:104A400095ED9A95F1F700008111F5CF8091E8007E
:104A500085FF0DC050E040E063E070E0CE010196BC
:104A60000E943A278091E8008E778093E8000F90AB
:104A70000F900F90DF91CF910895CF93DF93EC01CA
:104A80000E941D27823011F0843031F4BE0184E091
:104A9000DF91CF910C940A25DF91CF910895BC014D
:104AA00083E00C940A25CF93DF93EC010E941D272D
:104AB000823011F0843039F581E08093E9008FEF86
:104AC0009091E800815095FD06C095ED9A95F1F71B
:104AD00000008111F5CF8091E80085FF14C050E0FF
:104AE00040E068E070E0CE010E943A278091E80043
:104AF0008E778093E80088E0FE01A4EFB2E0019099
:104B00000D928A95E1F7DF91CF9108958091A105EB
:104B1000811109C00E9419290E9476298091E20022
:104B200084608093E20008951092A105089508958D
:104B300008950C944D2042E061EC81E00E9495289C
:104B400042E261EC82E00E94952842E361E883E062
:104B50000E94952842E360E884E00C9495288091B7
:104B6000A405833009F45FC030F48130C1F1823094
:104B700009F49BC008958A3009F487C08B3009F48A
:104B80006DC0893009F04EC08091A305813209F0D3
:104B900049C08091A7059091A805029708F042C0EE
:104BA0008091E800877F8093E8008091E80082FF91
:104BB00035C09091F3008091F200029729F4809122
:104BC000F1008B7F813021F48091F1008093FC0211
:104BD0008091E8008B778093E8000C94C92880913D
:104BE000A305813AF9F48091E800877F8093E8007B
:104BF0008091A7059091A805892B61F468E084EF66
:104C000092E070E00E94D8278091E8008B77809333
:104C1000E800089560E090E080E0F3CF8091A20585
:104C20008111C3CF08958091A305813AD9F780916E
:104C3000A7059091A805892BA9F78091E800877FA7
:104C40008093E8008091E80080FFFCCF80913E01D6
:104C50008093F1008091E8008E77BDCF8091A3050D
:104C6000813201F78091A7059091A805892BD1F693
:104C70008091E800877F8093E8000E94C928809196
:104C8000A50580933E010C945B198091A3058132A8
:104C900049F68091E800877F8093E8000E94C92848
:104CA0008091A6058093FD0208958091A305813A25
:104CB00009F0B8CF8091E800877F8093E800809169
:104CC000E80080FFFCCF8091FD02C2CFBC0188E2EA
:104CD00091E00C949624BC0188E291E00C94E024CD
:104CE0000E94782484B7877F84BF0FB6F894A89574
:104CF00080916000886180936000109260000FBE18
:104D000080E890E00FB6F894809361009093610082
:104D10000FBE0E947F150E9419290E94762980915A
:104D2000E20084608093E20078940E94FF2B0E944E
:104D3000871584E391E00E942A158091A2058530B1
:104D400039F00E94931588E291E00E94CF24F5CFBC
:104D50000E9404208091A005882379F30E943520C9
:104D6000882359F30E942427E8CF0C94B726292FD3
:104D700033272330310519F168F42130310509F466
:104D80004AC02230310509F44BC090E080E030E0A9
:104D900020E028C02132310579F122323105A9F70E
:104DA00080E490E02CEC39E061157105D9F082E3E4
:104DB00090E02AE939E061307105A1F0E6CF99274A
:104DC0008130910599F0009741F08230910589F08A
:104DD0000397D9F6E7EBF8E002C0E5EEF8E084913E
:104DE00090E09F01FA01318320830895E5EDF8E01A
:104DF000F6CFEDEBF8E0F3CF89E090E02BEF38E071
:104E00006115710579F389E090E024E139E06130C2
:104E1000710541F3BACF82E190E028E839E0E2CFB2
:104E20008FE990E029EE38E0DDCF8091A205843053
:104E300011F482E0089581E008958091FE028111CD
:104E400002C00C941527089580E189BD82E189BDD7
:104E500009B400FEFDCF8091D8008F7D8093D800EB
:104E60008091E00082608093E0008091E00081FD0D
:104E7000FCCF0895AF92BF92CF92DF92FF920F9333
:104E80001F93CF93DF936C01EB018A010E94E82806
:104E9000F82E811123C00115110539F0F801808128
:104EA0009181C81BD90BC80ED91EB12CA12C2097FB
:104EB000A9F08091E80085FD22C08091E8008E77FE
:104EC0008093E80001151105A1F0F801808191811E
:104ED000A80EB91EB182A08285E0F82E8F2DDF9139
:104EE000CF911F910F91FF90DF90CF90BF90AF9027
:104EF00008950E94E8288823D1F2F82EEFCFF6011A
:104F000081916F018093F1002197FFEFAF1ABF0AE3
:104F1000CECFAF92BF92CF92DF92FF920F931F93AB
:104F2000CF93DF936C01EB018A010E94E828F82EF1
:104F3000811123C00115110539F0F801808191819B
:104F4000C81BD90BC80ED91EB12CA12C2097A9F0D3
:104F50008091E80085FD22C08091E8008B778093E6
:104F6000E80001151105A1F0F80180819181A80EDA
:104F7000B91EB182A08285E0F82E8F2DDF91CF91EE
:104F80001F910F91FF90DF90CF90BF90AF90089549
:104F90000E94E8288823D1F2F82EEFCF8091F1000B
:104FA000F60181936F012197FFEFAF1ABF0ACECFB1
:104FB000FC018091A9059091AA0586179707A0F09A
:104FC0006115710529F49091E8009E779093E800AF
:104FD00090E06115710551F4911108C08091E800CD
:104FE00082FF34C080E00895BC01F2CF8091A20519
:104FF0008823C1F18530C1F18091E80083FD30C084
:105000008091E80082FDEACF8091E80080FFE1CF47
:105010008091F3002091F200382F6115710519F08D
:105020002830310558F091E02830310509F090E042
:105030002091E8002E772093E800CBCF81918093D8
:10504000F100615071092F5F3F4FE7CF8091A205BA
:10505000882341F0853041F08091E80083FFBECF86
:1050600081E0089582E0089583E00895FC01809135
:10507000A9059091AA0586179707A0F061157105FB
:1050800029F48091E8008E778093E80090E0611524
:10509000710551F4911108C08091E80082FF35C07C
:1050A00080E00895BC01F2CF8091A2058823C9F168
:1050B0008530C9F18091E80083FD31C08091E8001E
:1050C00082FDEACF8091E80080FFE1CF8091F3007C
:1050D0002091F200382F6115710519F02830310543
:1050E00058F091E02830310509F090E08091E80017
:1050F0008E778093E800CBCF84918093F100319636
:10510000615071092F5F3F4FE6CF8091A205882340
:1051100041F0853041F08091E80083FFBDCF81E010
:10512000089582E0089583E00895982F973028F03D
:105130008F708093E90081E008959093E900242F17
:10514000762F50E0981731F07091EC002091ED002F
:105150005091F00021FD02C09F5FE8CF3091EB003D
:105160003E7F3093EB003091ED003D7F3093ED00BA
:105170003091EB0031603093EB007093EC002093A2
:10518000ED005093F0002091EE0027FDE5CF80E088
:1051900008958091A30587FF13C08091E80082FFE6
:1051A00006C08091E8008B778093E80004C080916E
:1051B000A2058111F2CF08958091A2058823D9F329
:1051C0008091E80080FFF8CF8091E8008E77ECCFE7
:1051D0002091E4003091E50095E6A9012091EC00D2
:1051E000822F817020FF06C08091E80080FF06C0FA
:1051F00080E008952091E80022FD1AC08091A20568
:10520000882389F0853089F08091EB0085FD0FC0FF
:105210002091E4003091E50042175307F9F29150D4
:10522000E1F684E0089582E0089583E0089581E046
:1052300008950E9487290E948F29E0EEF0E0808186
:1052400081608083E8EDF0E080818F77808319BCF6
:10525000A7EDB0E08C918E7F8C9380818F7E8083D0
:105260001092A10508950F931F93CF93DF930E948F
:1052700087290E948F29C8EDD0E088818F778883A5
:1052800088818068888388818F7D888319BC10928B
:10529000A20510929E051092A00510929F0500EEA7
:1052A00010E0F80180818B7F808388818160888312
:1052B00042E060E080E00E949528E1EEF0E080812D
:1052C0008E7F8083E2EEF0E0808181608083808148
:1052D00088608083F80180818E7F808388818061EF
:1052E0008883DF91CF911F910F910895E8EDF0E051
:1052F00080818F7E8083E7EDF0E080818160808314
:1053000084E082BF81E08093A1050C943329E8ED0D
:10531000F0E080818E7F80831092E20008951092E9
:10532000DA001092E10008951F920F920FB60F92CB
:1053300011242F933F934F935F936F937F938F939A
:105340009F93AF93BF93EF93FF938091E10082FF10
:105350000BC08091E20082FF07C08091E1008B7F4B
:105360008093E1000E94FE2B8091DA0080FF19C03B
:105370008091D80080FF15C08091DA008E7F8093E5
:10538000DA008091D90080FF96C080E189BD82E17A
:1053900089BD09B400FEFDCF81E08093A2050E9483
:1053A00086258091E10080FF19C08091E20080FF96
:1053B00015C08091E2008E7F8093E2008091E20030
:1053C00080618093E2008091D80080628093D80051
:1053D00019BC85E08093A2050E9498258091E10088
:1053E00084FF2BC08091E20084FF27C080E189BD4B
:1053F00082E189BD89B5982F917080FFFBCF8091A4
:10540000D8008F7D8093D8008091E1008F7E8093BB
:10541000E1008091E2008F7E8093E2008091E200C3
:1054200081608093E20080919E05882309F449C041
:1054300084E08093A2050E9499258091E10083FF7A
:1054400029C08091E20083FF25C08091E100877F21
:105450008093E10082E08093A20510929E058091E6
:10546000E1008E7F8093E1008091E2008E7F809347
:10547000E2008091E20080618093E20042E060E01F
:1054800080E00E9495288091F00088608093F00071
:105490000E949725FF91EF91BF91AF919F918F91BE
:1054A0007F916F915F914F913F912F910F900FBE20
:1054B0000F901F90189519BC1092A2050E94942578
:1054C00070CF8091E30087FD93E09093A205B3CF66
:1054D0001F920F920FB60F9211242F933F934F9369
:1054E0005F936F937F938F939F93AF93BF93CF936C
:1054F000DF93EF93FF93D091E900DF708091EC0090
:10550000C82FC17080FDC0E81092E9008091F000C2
:10551000877F8093F00078940E94AC2A1092E90073
:105520008091F00088608093F000CD2BCF70C09305
:10553000E900FF91EF91DF91CF91BF91AF919F91E2
:105540008F917F916F915F914F913F912F910F902C
:105550000FBE0F901F9018951F93CF93DF93CDB779
:10556000DEB7AA970FB6F894DEBF0FBECDBF83EAB1
:1055700095E02091F100FC012193CF01F5E08B3AF9
:105580009F07B9F70E94AF258091E80083FF1EC1F5
:105590008091A3059091A4059A3008F017C1E92FD6
:1055A000F0E0E054F34D0C94422C803899F08238AE
:1055B00009F00CC18091A7058F70873008F006C1F3
:1055C0008093E9008091EB0085FB882780F9109299
:1055D000E90006C080919F059091A005911182601D
:1055E0009091E800977F9093E8008093F1001092EB
:1055F000F1008091E8008E77E5C0882309F4D3C0DC
:10560000823009F0E3C08091A5058111D6C0809158
:10561000A7058F702FEF280F263008F0D7C0809392
:10562000E9002091EB0020FFC8C0933031F4809155
:10563000EB0080628093EB00C0C09091EB00906122
:105640009093EB0021E030E001C0220F8A95EAF749
:105650002093EA001092EA008091EB008860EACF84
:105660008111B4C01091A5051F778091E300807867
:10567000812B8093E3008091E800877F8093E8008E
:105680000E94C9288091E80080FFFCCF8091E30050
:1056900080688093E30082E0111183E08093A2058B
:1056A00095C08058823008F091C08091A5059091F6
:1056B000A6058C3D23E09207A1F583E08A838AE268
:1056C00089834FB7F894DE01139620E03EE051E263
:1056D000E32FF0E050935700E49120FF03C0E295E0
:1056E000EF703F5FEF708E2F90E0EA30C0F0C7960A
:1056F0008D939D932F5F243159F74FBF8091E80020
:10570000877F8093E8006AE270E0CE0101960E94F4
:10571000D8278091E8008B778093E80057C0C09627
:10572000E7CF6091A7057091A805AE014F5F5F4F6D
:105730000E94B526BC01892B09F448C09091E8006D
:10574000977F9093E80089819A810E943628E1CF63
:105750008038E1F58091E800877F8093E8008091B0
:105760009E058093F10045CF811130C09091A50531
:10577000923060F58091E800877F8093E8009093F5
:105780009E050E94C92880919E05882311F084E01F
:1057900005C08091E30087FDFACF81E08093A205E8
:1057A0000E949B2513C08091A505813079F481E08A
:1057B000933009F080E08093A0051092E900809179
:1057C000E800877F8093E8000E94C9288091E80064
:1057D00083FF0AC08091E800877F8093E800809172
:1057E000EB0080628093EB00AA960FB6F894DEBFC0
:1057F0000FBECDBFDF91CF911F9108950895CF9334
:105800008091A2058823A1F0C091E900CF7090910A
:10581000EC00892F817090FD80E8C82B1092E90080
:105820008091E80083FD0E94AC2ACF70C093E9000C
:10583000CF910895AA1BBB1B51E107C0AA1FBB1F34
:10584000A617B70710F0A61BB70B881F991F5A950C
:10585000A9F780959095BC01CD01089597FB072E7F
:1058600016F4009407D077FD09D00E941A2C07FC8B
:1058700005D03EF4909581959F4F08957095619560
:105880007F4F0895EE0FFF1F0590F491E02D0994CE
:10589000F999FECF92BD81BDF89A992780B50895F8
:1058A000A6E1B0E044E050E00C94822CA8E1B0E026
:1058B00042E050E00C94822C262FF999FECF92BD45
:1058C00081BDF89A019700B4021639F01FBA20BDC5
:1058D0000FB6F894FA9AF99A0FBE08950396272FF7
:1058E0000E945D2C0E945C2C252F0E945D2C242F91
:1058F0000C945D2C0196272F0E945D2C0C945C2C3F
:10590000DC01CB01FC01F999FECF06C0F2BDE1BD7F
:10591000F89A319600B40D9241505040B8F708956E
:10592000F894FFCF701077107E10831088108D10C0
:10593000921097109C10A110A610AB10721072104C
:105940007210721072107210721072103F173F179F
:1059500096179617E9176C176C176C17051891189E
:10596000A018A0186A196A1973197319751973198F
:10597000731973196A196A197A19731973197A19CB
:10598000D52AFD2AE62BFD2AE62B302B512BE62BC0
:04599000A82BB42B61
:1059940031F7F6F5F433323690913534C697669480
:1059A40000000000000001D10100D2010DD201006D
:1059B4007B007B7B3767E7020383400000010440E0
:1059C400000001000625532509254F253D2501F436
:1059D400F5F6F73133326737F1E200E900EA00B552
:1059E40000B600B700CD008301CC008A0192019477
:1059F400012102230224022502260227022A02B3DD
:105A040000B4006F007000818283000100FF010078
:105A1400010000FFFF0000010001FF00E200E900B7
:105A2400EA00B500B600B700CD008301CC008A01BE
:105A34009201940121022302240225022602270254
:105A44002A02B300B4006F00700081828302030253
:0C5A54000000010001010101010001013E
:00000001FF
