:100000000C9407030C9424030C9424030C940D25E6
:100010000C9424030C9424030C9424030C942403C4
:100020000C9424030C9424030C94741E0C94301E22
:100030000C94711F0C9424030C9424030C9424033B
:100040000C9424030C9424030C9424030C94240394
:100050000C9424030C944D1F0C9424030C9424033F
:100060000C9424030C9424030C9424030C94240374
:100070000C9424030C9424030C9424030C94240364
:100080000C9424030C9424030C9424030C94240354
:100090000C9424030C9424030C9424030C94240344
:1000A0000C9424030C9424030C942403050109806C
:1000B000A101850319012AB700150126B700950192
:1000C00075108100C0050C0901A101850419012AE0
:1000D000A002150126A002950175108100C00660DE
:1000E000FF0961A1010962150026FF00952075082E
:1000F00081020963150026FF00952075089102C052
:1001000005010906A101050719E029E715002501E8
:10011000950875018102950175088101050719008F
:1001200029FF150026FF00950675088100050819AE
:10013000012905950575019102950175039101C08D
:1001400000000000000000000000000000000000AF
:10015000000000000000000000000000000000009F
:10016000000000007E0F00D4FFFFFFC700000078F2
:1001700000000000000000002A2B28000000000002
:100180000000000000000000000000290000000046
:100190002C1E3420212224342627252E362D3738B4
:1001A000271E1F202122232425263333362E3738BD
:1001B0001F0405060708090A0B0C0D0E0F1011127B
:1001C000131415161718191A1B1C1D2F3130232D47
:1001D000350405060708090A0B0C0D0E0F10111245
:1001E000131415161718191A1B1C1D2F3130354CF6
:1001F00067696162616C616E61693A7669615F67C6
:100200006961626172696E61697832204020302EC6
:1002100031372E362D3137362D67326261616332C8
:100220002D6469727479207C20323032322D30385E
:100230002D30392D32313A30323A343900AE5DBA90
:100240005DC65DD25DDE5DB35DBF5DCB5DD75DE359
:100250005DB55DC15DCD5DD95DE55DB85DC45DD069
:100260005DDC5DE85DB05DBC5DC85DD45DE05DB149
:100270005DBD5DC95DD55DE15DB75DC35DCF5DDB36
:100280005DE75DB65DC25DCE5DDA5DE65DB25DBE29
:100290005DCA5DD65DE25DAF5DBB5DC75DD35DDF11
:1002A0005DAD5DB95DC55DD15DDD5DB45DC05DCC4D
:1002B0005DD85DE45DA8426F5C6D5C6B5C695C5011
:1002C0005C4E5C4C5C4A5C485C6E5C6C5C6A5C6876
:1002D0005C665C535C515C4F5C4D5C4B5C6B5C6979
:1002E0005C675C655C635C565C545C525C505C4E65
:1002F0005C685C665C645C625C605C595C575C5525
:100300005C535C515C655C635C615C5F5C5D5C5C28
:100310005C5A5C585C565C545C625C605C5E5C5C25
:100320005C5A5C5F5C5D5C5B5C595C575C165C2B8B
:10033000003900E100E0002A004C002800E500E45C
:10034000001E00140004001D00E30027001300330A
:10035000003800E7001F001A0016001B00E200260C
:100360000012000F003700E600200008000700061A
:1003700000910025000C000E0036009000210015B1
:1003800000090019002C00240018000D0010002C9A
:1003900000220017000A0005002C0023001C000B9F
:1003A0000011002C000100E50028004C002A00E0AC
:1003B00000E10039002B00165CE700380033001321
:1003C000002700E3001D00040014001E00E60037B3
:1003D000000F0012002600E2001B0016001A001F8A
:1003E00000900036000E000C00250091000600076A
:1003F00000080020002C0010000D00180024002C24
:100400000019000900150021002C0011000B001C30
:100410000023002C0005000A0017002200005201F2
:10042000520000000000000000000000000000007A
:1004300000000000000000000000000000000000BC
:1004400000000000000000000000000000000000AC
:10045000000000000000000000000000000000009C
:10046000000000000000000000000000000000008C
:10047000000000000000000000000000000000007C
:10048000000000000000000000000000000000006C
:10049000000000000001000000000000000000005B
:1004A00000000000000152005200000000805F00C8
:1004B000000000000000000000000000000000003C
:1004C000000000000000000000000000000000002C
:1004D000000000000000000000000000000000001C
:1004E000000000000000000000000000000000000C
:1004F00000000000000000000000000000000000FC
:10050000000000000000000000000000000902BF21
:1005100000050100A0FA090400000103010100091F
:100520002111010001224000070581030800010993
:100530000401000203000000092111010001222230
:1005400000070582032000010705030320000109BD
:100550000402000103000000092111010001223200
:100560000007058403200001080B030201010000BD
:100570000904030000010100000924010001090031
:100580000104090404000201030000072401000122
:10059000410006240201010006240202020009248F
:1005A0000301030102010009240302040101010007
:1005B00009050602400005000005250101010905A5
:1005C000850240000500000525010103120100021B
:1005D00000000008EDFEB2F40100010200011A0360
:1005E00067006900610062006100720069006E00CE
:1005F000610069007800320000000E0333006100E2
:1006000072006100680074000000040309041124F2
:100610001FBECFEFDAE0DEBFCDBF11E0A0E0B1E05A
:10062000E0E3FEE402C005900D92A439B107D9F7CA
:1006300024E0A4E9B1E001C01D92A433B207E1F7C0
:100640000E94981F0C94ED260C9400000F93262F07
:100650002F778F708068E0914703F0914803042F53
:10066000482F63E070E087E493E009950F910895C7
:100670000F93262F2F778F708069E0914703F091B9
:100680004803042F482F63E070E087E493E0099566
:100690000F910895AF92BF92CF92EF920F931F9355
:1006A000CF93DF93182FD0914403DF7750E0CA0136
:1006B000895F9C4F5C01FC01C081FB018281882322
:1006C00069F1CF3F11F5C09143039C2F9F70C595F1
:1006D000C595C595C595CF52FCE09F9FC00D1124CF
:1006E000C20F602F6C0F4D2F812F0E9438036E2D8B
:1006F0006C0F4D2F812F0E9438036C2D6C0F4D2FE6
:10070000812F0E943803F501C083DF91CF911F91A3
:100710000F91EF90CF90BF90AF900895CF3F91F0A1
:10072000602F6C0F4D2F812F0E9426036E2D6C0FB2
:100730004D2F812F0E9426036C2D6C0F4D2F812F82
:100740000E9426038FEFF5018083DFCF0F931F9365
:100750009B01305E8901000F012F001F110B1195C5
:100760002F77482F406EE0914703F091480363E0F4
:1007700070E087E493E009951F910F9108950F931E
:10078000262F042F0F77482F406BE0914703F091FD
:10079000480363E070E087E493E009950F910895C2
:1007A000FC01AC01445F5F4F8FEF91E32191822701
:1007B00028E030E087FF09C0880F892721503109E0
:1007C000C9F7E417F50791F70895880FF7CFA3E06D
:1007D000B0E0EDEEF3E00C9433267C01162FD42E1E
:1007E000C22E80916C03843071F5E0916103F09129
:1007F00062033097C1F1C701019763E070E00E9486
:100800006026CB01880F991F860F971F19834A8393
:10081000CB824E2D481B9E012F5F3F4FBC0187E4CA
:1008200093E00995E0916503F0916603309739F004
:100830000C2D2D2D412FB70187E493E009952396C8
:10084000E8E00C944F2682E0E816F10409F45AC05F
:1008500083E0E816F104A9F081E0E816F10409F458
:1008600084C0F12CE12CE0916303F0916403309794
:10087000C9F20C2D2D2D412FB70187E493E0099586
:10088000D1CF862F807F803A11F188F48038D1F063
:10089000E0914B03F0914C03803929F7309719F31D
:1008A000123F49F12C2D4D2D612F6F7027C0803ED6
:1008B00099F0803FB1F0E0914903F0914A03803B09
:1008C00091F6ECCFE0914D03F0914E03E7CFE0912C
:1008D0004F03F0915003E2CFE0915103F0915203A6
:1008E000DDCF623F09F0BFCFE0915303F091540395
:1008F000309709F4B8CF2C2D4D2D62EF87E493E0AB
:10090000099590CF862F807F803DB9F0803FD1F050
:10091000E0915503F0915603803C09F0A4CF309745
:1009200009F4A1CF812F8D7F4D2D612F6F70813FF5
:10093000C9F087E493E0099575CFE0915703F091F2
:100940005803EDCFE0915903F0915A03633F39F01A
:10095000613F09F088CFE0915B03F0915C03309731
:1009600009F481CF4D2D612FE4CFE0915D03F0912B
:100970005E03683F38F4663F09F075CFE0915F038E
:10098000F0916003309709F46ECF612F87E493E014
:10099000099548CFE8EDF0E080818E7F808310924A
:1009A000E2001092DA001092E100A0EEB0E08C912B
:1009B00081608C9380818F77808319BCA7EDB0E034
:1009C0008C918E7F8C9380818F7E80831092EC023D
:1009D00008952091E4003091E50095E6A901209169
:1009E000EC00822F817020FF06C08091E80080FF1C
:1009F00006C080E008952091E80022FD1AC0809191
:100A0000F902882389F0853089F08091EB0085FD1B
:100A10000FC02091E4003091E50042175307F9F22E
:100A20009150E1F684E0089582E0089583E008950E
:100A300081E00895EF92FF920F931F93CF937C0173
:100A40008B010E94E904C82F811117C08091E80032
:100A500085FD0BC08091E8008E778093E8000E94AE
:100A6000E904882399F3C82F08C0F70181917F0119
:100A70008093F1000150110949F78C2FCF911F91FC
:100A80000F91FF90EF900895EF92FF920F931F93B5
:100A9000CF937C018B010E94E904C82F811117C0FC
:100AA0008091E80085FD0BC08091E8008B778093F2
:100AB000E8000E94E904882399F3C82F08C08091B8
:100AC000F100F70181937F010150110949F78C2F43
:100AD000CF911F910F91FF90EF9008958091FB02AD
:100AE00087FF13C08091E80082FF06C08091E80074
:100AF0008B778093E80004C08091F9028111F2CFD6
:100B000008958091F9028823D9F38091E80080FF4D
:100B1000F8CF8091E8008E77ECCF982F9093E90082
:100B2000242F762F50E0891731F07091EC0020913E
:100B3000ED005091F00021FD07C09F5F973071F7E5
:100B40008093E90081E008953091EB003E7F30937F
:100B5000EB003091ED003D7F3093ED003091EB00E4
:100B600031603093EB007093EC002093ED005093D4
:100B7000F0002091EE0027FDE0CF80E00895B0E086
:100B8000A0E0E5ECF5E00C943326C8EDD0E08881D8
:100B90008F7E8883E7EDF0E080818160808384E050
:100BA00082BF81E08093EC0288818E7F888302EE91
:100BB00010E0F80110821092DA0081EEC82ED12CDC
:100BC000F601108288818F77888388818068888386
:100BD00088818F7D888319BC1092F9021092FA02E5
:100BE0001092F8021092F70290EEE92EF12CF70124
:100BF00080818B7F808388818160888342E060E090
:100C000080E00E948D05F60180818E7F8083F8014F
:100C1000808181608083808188608083F70180810A
:100C20008E7F8083888180618883CDB7DEB7E8E0DE
:100C30000C944F26FC0180910103909102038617CA
:100C40009707A0F06115710529F49091E8009E774F
:100C50009093E80090E06115710551F4911108C07E
:100C60008091E80082FF34C080E00895BC01F2CF9B
:100C70008091F9028823C1F18530C1F18091E800AB
:100C800083FD30C08091E80082FDEACF8091E800CA
:100C900080FFE1CF8091F3002091F200382F6115A1
:100CA000710519F02830310558F091E028303105F0
:100CB00009F090E02091E8002E772093E800CBCF58
:100CC00081918093F100615071092F5F3F4FE7CF11
:100CD0008091F902882341F0853041F08091E8004D
:100CE00083FFBECF81E0089582E0089583E00895F8
:100CF000089508958091EE02089508950895982F1B
:100D0000907F903BE9F040F49039D1F0903AC1F0F7
:100D10009038B1F080E00895903D19F020F4903CB7
:100D2000C9F782E00895903E59F0903F99F7815FAE
:100D30008F3080F7E82FF0E0EB58FE4F8081089568
:100D400083E00895A7E0B0E0E8EAF6E00C943626E8
:100D50008C0108511F4F8091F902843009F06CC05A
:100D600080912B018F708093E9008091E80082FFD1
:100D700063C08091E80085FF5FC050E040E064E020
:100D800070E0CE0101960E9444058091E80085FD47
:100D900005C08091E8008B778093E800FA808F2D62
:100DA0000E947F06282FFD828B818E838C818F830A
:100DB00021110AC08981843039F1873029F18630C8
:100DC00029F121E0853039F630E0E5E0F0E0EC0F84
:100DD000FD1FE30FF11DF0804FB7F894D801119675
:100DE000EC911197F0E0CF01019612966C9170E0B2
:100DF0000E947426D8015C915817190649F44FBF18
:100E00003F5F321710F3A7CF23E0DECF22E0DCCF25
:100E100013968D919C911497E80FF91FF08211960B
:100E20008C91119790E0019612966C9170E00E945F
:100E30007426F8018183E3CF2796E5E00C945226CF
:100E4000A4E0B0E0E6E2F7E00C9434267B01142F36
:100E5000D22E4A832B830C83842F0E947F0681111C
:100E60003AC082E0E816F10489F183E0E816F10463
:100E700041F081E0E816F10429F5173F29F485E0F7
:100E800004C087E0073F09F084E089838091F9027C
:100E90008430C1F4809126018F708093E90050E086
:100EA00040E064E070E0CE0101960E941A058111D5
:100EB00009C08091E80085FD05C08091E8008E772B
:100EC0008093E8002496E7E00C94502687EFD81230
:100ED000DBCF86E0DACF12951F701983D7CF87E773
:100EE00097E7909301088093000888E19AE00FB695
:100EF000F894A895809360000FBE90936000FFCF98
:100F00009C014FB7F8948091E5029091E602A09180
:100F1000E702B091E8024FBF821B930B08952FB7F1
:100F2000F8946091E5027091E6028091E702909159
:100F3000E8022FBF08952FB7F8948091E5029091B1
:100F4000E602A091E702B091E8022FBF08959C014C
:100F5000FC0132969FEF80E04191461751F09F3F90
:100F600019F4411101C0982F8F5F8630A9F79F3F78
:100F700009F40895290F311D97FD3A95F90162830F
:100F800008952091E2023091E3022817390771F0A9
:100F90009093E3028093E202E091E002F091E1029B
:100FA000309721F00084F185E02D09950895209176
:100FB000DE023091DF022817390771F09093DF02CB
:100FC0008093DE02E091E002F091E102309721F09F
:100FD0000680F781E02D0995089580E00895F89442
:100FE000E82FE295EF70F0E031A1282F2F7081E01B
:100FF00090E001C0880F2A95EAF7982F90959323E7
:1010000091A392A1892B82A3789408959091A6022E
:1010100092FF06C0282F28712830F9F4877F84605A
:1010200093FF06C0282F28712831F1F4877E846150
:101030002091A70220FF06C0382F38713830D9F42C
:10104000877F816021FF06C0282F28712831D1F4C5
:10105000877E816194FD877E0895282F2471243036
:10106000F9F68B7F8860DCCF282F2471243101F7BB
:101070008B7E8861DDCF382F3171313019F78E7F4B
:101080008860E0CF282F2171213121F78E7E886181
:10109000E1CFCF93DF93EC018238910581F1B0F578
:1010A0008133910509F491C020F58932910509F445
:1010B00085C08A9709F490C0C11521E5D20708F0D0
:1010C000AAC0C11530E5D30708F0F2C0CF3BD10567
:1010D00008F089C0C83AD10508F0DFC0C53AD1058B
:1010E00008F0D3C0C430D105F8F4C130D105E1F027
:1010F00040C08533910509F45AC0C997E9F680913B
:10110000A602837089F0C0EED0E00EC0833E910548
:1011100099F170F4803E910501F1823E910561F6EE
:101120008091A60282FD21C0CE01DF91CF9108956A
:10113000863E910561F1873E910571F1843E9105EE
:1011400009F0BACF8091A70281FFEECF8091A6026D
:10115000C7EED0E084FD0DC0E7CF8091A60280FDF0
:10116000F7C09091A70290FFDFCFC3EED0E084FFDD
:10117000DBCFD0E0C0E0D8CF8091A60282FDEBC0EB
:101180009091A70290FDBFCF84FFCECFF2CF809188
:10119000A60283FDDDCFC8CF8091A60283FDDEC00D
:1011A0009091A70291FFF0CFC4EED0E0BDCF809127
:1011B000A60285FFB9CFC9E2D0E0B6CF8091A602E2
:1011C00085FFB2CFC5E3D0E0AFCF8091A60286FF06
:1011D000ABCFCAE2D0E0A8CF8091A60286FFA4CF11
:1011E000C1E3D0E0A1CFC11540E2D40760F4C1153E
:1011F00081E0D80708F098CFCE01805E910908976A
:1012000008F492CFB6CFC11590E4D90708F4B1CF56
:10121000DF70D06A89CFC11524E5D20778F4C115F3
:1012200033E5D30708F072C0C11542E5D40708F0D2
:101230005CC0DC2FCC27C16FD06A76CFC1158AE5A0
:10124000D80778F4C11599E5D90708F073C0C1151E
:1012500028E5D20708F48DCFDC2FCC27C06FD06AE9
:1012600063CFCE0190568115904208F082CF8D2F2A
:101270008F710E94060890E0982F882788279F7119
:101280009C012C2BE901D0624FCFC55AD0E0CE5C37
:10129000DE4FC881D0E0D06447CFC85AD0E0CC0F31
:1012A000DD1FCB5CDE4F0990D881C02DD4643CCFCC
:1012B000CE0164E0969587956A95E1F783702C2FAF
:1012C00026952695237040E2249F90011124382B07
:1012D0008C2F8370C1E0D0E002C0CC0FDD1F8A9557
:1012E000E2F7C22BD32BDC681FCFCE018370992786
:1012F00021E030E002C0220F331F8A95E2F7C69545
:10130000C69580E2C89FE0011124EBCFCE01837027
:10131000992721E030E002C0220F331F8A95E2F7BF
:10132000C695C69590E2C99FE0011124C22BD32B2C
:10133000DA68FACE8C2F8F700E94060834E0D695BA
:10134000C7953A95E1F7CF709C2FEC01D069ECCEB0
:10135000C9E3D0E0E9CEC2EED0E0E6CEC6EED0E002
:10136000E3CE809103029091D201981301C00895B9
:101370008F5F8770FACF292F9C3078F58A3068F517
:1013800090E03AE0239F800D911D1124682F677033
:1013900023E0969587952A95E1F7FC01EE0FFF1F54
:1013A000E80FF91FE156FE4F50E040E080E0219148
:1013B00030E0062E02C0369527950A94E2F7217098
:1013C0003327042E01C0220F0A94EAF7822B4F5FC5
:1013D0005F4F4330510559F7089580E00895292F54
:1013E0009C3098F58A3088F590E03AE0239F800D94
:1013F000911D1124282F277041E001C0440F2A9528
:10140000EAF723E0969587952A95E1F7FC01EE0F20
:10141000FF1FE80FF91FE156FE4F30E020E070E0BB
:101420005191DF011197CB01022E02C0969587954D
:101430000A94E2F7817081958527842385278C9310
:101440002F5F3F4F2330310559F708958093E9020C
:101450007093EB026093EA028091F9028430F9F410
:101460008093E9008FEF9091E800815095FD06C0D0
:1014700095ED9A95F1F700008111F5CF8091E80084
:1014800085FF0DC050E040E063E070E089EE92E03F
:101490000E941A058091E8008E778093E8000895F5
:1014A000BC0184E00E94260A0895BC0183E00E94EA
:1014B000260A0895CF93DF93EC0181E08093E90041
:1014C0008FEF9091E800815095FD06C095ED9A95BB
:1014D000F1F700008111F5CF8091E80085FF14C07D
:1014E00050E040E068E070E0CE010E941A05809173
:1014F000E8008E778093E80088E0FE01AFEEB2E06E
:1015000001900D928A95E1F7DF91CF910895B0E0B7
:10151000A0E0EDE8FAE00C9431267C015B016A0161
:1015200080913F0201E010E08A3010F40AE010E000
:10153000C1E0D0E0B501C701F6010995811104C0F1
:1015400021960C171D072CF4CDB7DEB7EAE00C94FA
:101550004D26CC9F9001CD9F300D300D112490E091
:1015600080E045E34A95F1F7000001968217930762
:10157000C1F7E0CF80911902811118C088EC9091D9
:10158000E30097FD10C0EFE3FCE93197F1F700C0ED
:1015900000008150A1F782E0809319020E94CA04E2
:1015A0001092F90203C081E08093190281E09091CA
:1015B0001902913011F080E0089508950E94BA0A4E
:1015C000882359F0E091E002F091E102309729F090
:1015D0000190F081E02D0995089580E00895CF9362
:1015E000DF93C7EFD2E060E0CE010E94B9262196DA
:1015F000C11584E0D807B9F7DF91CF9108951F9303
:10160000CF93DF93122F8330E0F46C30D0F44A3064
:10161000C0F4C42FD0E0CC0FDD1F94E1699FC00D52
:10162000D11D112490EF899FC00DD11D1124632F6E
:10163000CE0187960E94B926612FCE0188960E941E
:10164000B926DF91CF911F910895AF92BF92CF92AB
:10165000DF92EF92FF921F93CF93DF938DE3C82E1B
:1016600082E0D82ED0E07601C0E014C0F5012591CB
:101670003491412F6C2F8D2F0E94FF0A82E0A80E1B
:10168000B11C1F5F1A3091F784E1E80EF11CCF5FA7
:10169000CC3019F0570110E0E9CFDF5F80EFC80EC2
:1016A000D11CD33001F7DF91CF911F91FF90EF90C4
:1016B000DF90CF90BF90AF900895CF93C82F6FEF7A
:1016C000811162E283E290E00E94B9266FEFC111BE
:1016D00068E084E290E00E94B9266FEFC11169E0F2
:1016E00085E290E00E94B926CF91089580E00E94A3
:1016F0005D0B60E086E290E00E94B9260E94250B17
:101700000E94EF0A81E00E945D0B08950F931F93E2
:10171000CF93DF93833030F56C3020F54A3010F5ED
:10172000C42FD0E0CC0FDD1F24E1629FC00DD11D7E
:10173000112430EF839FC00DD11D1124CE01879657
:101740000E94AB26082F10E0102F0027CE018896AC
:101750000E94AB269801282BC901DF91CF911F91E0
:101760000F91089590E080E0F8CF462F833040F449
:101770007C3030F46A3020F4672F0E94860B089585
:1017800090E080E00895CF92DF92FF920F931F9335
:10179000CF93DF936C010091060380910E02082B1A
:1017A000C7E0D0E010E0FC2EC8010C2E02C09595D9
:1017B00087950A94E2F780FD0CC02197A0F7F12CE1
:1017C0008F2DDF91CF911F910F91FF90DF90CF90E0
:1017D0000895B6018C2F0E94B50B0E94490801970D
:1017E00061F3EECFCF93DF93EC010E94C30BBE01F8
:1017F0000E94B50B0E944908DF91CF910895FC012A
:10180000808191810E94F20B92959F70963091F0A9
:1018100058F4925F9F70923058F4803F19F030F482
:10182000883E30F481E008959A5FF4CF843FD1F38D
:1018300080E00895883EB0F3813FD1F7F3CF83E293
:1018400090E00E94AB26823289F484E290E00E940C
:10185000AB26883059F485E290E00E94AB2691E0F7
:10186000893009F090E0892F8170089580E0FCCFE5
:10187000CF9384E090E00E94AB26C82F82E290E0F4
:101880000E94AB26982F8C2FCF910895A4E0B0E052
:10189000ECE4FCE00C94372640913B0250913C0272
:1018A00060913D0270913E022FB7F8948091E5025D
:1018B0009091E602A091E702B091E8022FBF841B4D
:1018C000950BA60BB70B11E084369105A105B10568
:1018D00090F10E94BA0A882399F10E948F076E5FE7
:1018E0007F4F8F4F9F4F69837A838B839C83809137
:1018F000110190911201865D9D4F4091100150E0C1
:101900004530510510F044E050E0BE016F5F7F4F5D
:101910000E94A22682E090E00E94B325182F88231F
:1019200051F00E948F0760933B0270933C028093BA
:101930003D0290933E02812F2496E4E00C945326BE
:101940000E948F07009188021091890220918A02DB
:1019500030918B02600F711F821F931FC0CFEF92D7
:10196000FF921F93CF93DF93CDB7DEB72D970FB6BE
:10197000F894DEBF0FBECDBF7B0190E080E00E94F7
:10198000B325182F882309F480C04091030150E04B
:101990004115510511F041E050E060910401709152
:1019A0000501665D7D4FCE010D960E94A2264091F5
:1019B00026025091270260912802709129022FB7C8
:1019C000F8948091E5029091E602A091E702B0912F
:1019D000E8022FBF841B950BA60BB70B843691052D
:1019E000A105B10540F48BE292E00E94D0039D85F1
:1019F000891709F44AC081E090E00E94B325811163
:101A000016C010E08CE0EAE1F2E0D70101900D92FF
:101A10008A95E1F7812F2D960FB6F894DEBF0FBEA1
:101A2000CDBFDF91CF911F91FF90EF90089540912E
:101A30000B0150E04D30510510F04CE050E060914A
:101A40000C0170910D01665D7D4FCE0101960E94E3
:101A5000A2268BE292E00E94D0039D858913D1CF0C
:101A60000E948F07609326027093270280932802BA
:101A7000909329028CE0FE013196AAE1B2E0019038
:101A80000D928A95E1F711E0BDCF8CE0EBE2F2E038
:101A9000DE01119601900D928A95E1F71111EACFBE
:101AA000B1CFA4E2B0E0E7E5FDE00C942F268E0173
:101AB0000F5F1F4F88E1D8011D928A95E9F765E60F
:101AC000E62E61E0F62E6801AA24A394B12CF7015A
:101AD00081917F018F3F09F446C0F894E82FE29589
:101AE000EF70F0E021A18F70A50102C0440F551FD7
:101AF0008A95E2F7CA01922F982B91A392A1809523
:101B0000892382A3789400C0EBE6F1E021E030E085
:101B1000912C812C41914F3F09F472C0A42FA295C2
:101B2000AF70B0E090968C9190E04F7002C09595A8
:101B300087954A95E2F780FD63C0C901882A992AF2
:101B4000220F331F51E0E537F50721F7F7013197F1
:101B500080818F3F11F00E94EF0780EA8A95F1F7AC
:101B6000D6018D929C92B2E0CB0ED11CEBE6EE1624
:101B7000E1E0FE0609F0ABCF48E150E0B8018CE8A7
:101B800092E00E9495267C01892B41F088E1F801C2
:101B9000ACE8B2E001900D928A95E1F71091A502B0
:101BA000E114F10481F181E0809311020E949B070E
:101BB0009093100280930F0280910F029091100277
:101BC0000E948007059798F0ACE8B2E0E12FF0E0C2
:101BD000EE0FFF1FEA53FD4F88E992E02D913D91F2
:101BE000219331938A179B07C9F71092110281E064
:101BF00090E0E114F10459F0A496ECE00C944B262B
:101C000090E080E09BCF809111028111D5CF0E949E
:101C1000BA0AF82EE091A502882309F46EC06E017D
:101C2000F9E1CF0ED11C8CE0D6011D928A95E9F71F
:101C30000E2F10E0000F111F0A531D4F80913F021D
:101C40008A3030F54FEA5CE0B601C8010E94870A8D
:101C5000882369F146E45CE0B601C8010E94870A66
:101C6000882329F110923F028091A40290E0880F0E
:101C7000991F4CE050E0B6018A539D4F0E94952673
:101C800021E020931802892B49F5F12C8F2DB4CF38
:101C900080911202909113020E948007843F91402C
:101CA00088F680911802811112C080E0A5CF809142
:101CB0003F028F3F29F08F5F80933F028A30A0F26E
:101CC0000E949B079093130280931202EACF8CE04C
:101CD000F60111928A95E9F710921802A091A402D8
:101CE000B0E0AA0FBB1FAA53BD4F8CE0FE0179964E
:101CF00001900D928A95E1F7C9CFF0E0EE0FFF1F3A
:101D0000EA53FD4F8CE0ABE2B2E001900D928A9570
:101D1000E1F78BE292E00E94D00380932A02C09008
:101D20003702D0903802E0903902F0903A02809168
:101D3000140290911502A0911602B0911702C816D4
:101D4000D906EA06FB0609F4B0CFC0921402D0927D
:101D50001502E0921602F09217020E94BA0A81114F
:101D6000A4CF0E948F07C61AD70AE80AF90AC092C0
:101D70008802D0928902E0928A02F0928B0295CF7B
:101D800080910D0290910C02892B8093960148E07E
:101D900050E064E072E086E991E00E949526892B8C
:101DA000A9F088E0E6E9F1E0A4E0B2E001900D924C
:101DB0008A95E1F7E091E002F091E102309731F08D
:101DC0000280F381E02D86E991E00995089590E085
:101DD00080E00E94D70790E080E00E94C107109247
:101DE0000C020E94C00E0895809306030E94E70E25
:101DF000089580910603982F9670963021F488609C
:101E00000E94F40E0895877FFBCF21E030E001C0EF
:101E1000220F8A95EAF720958091060382230E947B
:101E2000F40E089521E030E001C0220F8A95EAF710
:101E300080910603822B0E94F40E089580930E0277
:101E40000E94E70E089510920D02E8E9F1E086E0A5
:101E5000DF011D928A95E9F70E94E70E0895AAE234
:101E6000B0E0E5E3FFE00C9438268BEF92E02091A0
:101E7000F100DC012D93CD01B3E083309B07B9F76E
:101E80008091FC02833009F472C0B8F4813009F407
:101E900049C0823009F4B3C08091E80083FF96C244
:101EA0008091FB029091FC029A3008F08FC2E92FDA
:101EB000F0E0E151F94D0C9488268A3009F48EC087
:101EC0008B3009F471C0893039F78091FB0281327F
:101ED00019F78091FF0290910003009711F002978B
:101EE000D9F68091E800877F8093E8008091E80030
:101EF00082FF38C09091F3008091F200029731F494
:101F00008091F100813011F0863021F48091F10050
:101F10008093EE028091E8008B778093E8000E9426
:101F20006E05BACF8091FB02813A09F0B5CF80915E
:101F3000E800877F8093E8008091FF029091000382
:101F4000892B61F468E08FEE92E070E00E941A063F
:101F50008091E8008B778093E8009ECF60E090E06E
:101F600080E0F3CF8091F9028111C0CF95CF8091AD
:101F7000FB02813A09F090CF8091FF02909100031B
:101F8000892B09F089CF8091E800877F8093E80052
:101F90008091E80080FFFCCF809131018093F100B7
:101FA0008091E8008E77B9CF8091FB02813209F0F1
:101FB00073CF8091FF0290910003892B09F06CCFC1
:101FC0008091E800877F8093E8000E946E058091F1
:101FD000FD02809331010E94230F5ECF8091FB02AE
:101FE000813209F059CF8091E800877F8093E80023
:101FF0000E946E058091FE028093ED024DCF80918C
:10200000FB02813A09F048CF8091E800877F8093F6
:10201000E8008091E80080FFFCCF8091ED02BECF08
:10202000803899F0823809F0D1C18091FF028F7019
:10203000873008F0CBC18093E9008091EB0085FBED
:10204000882780F91092E90006C08091F7029091EC
:10205000F802911182609091E800977F9093E800D8
:102060008093F1001092F1008091E8008E77AAC170
:10207000882309F498C1823009F0A8C18091FD023B
:1020800081119BC18091FF028F702FEF280F2630A6
:1020900008F09CC18093E9002091EB0020FF8DC1E6
:1020A000933031F48091EB0080628093EB0085C126
:1020B0009091EB0090619093EB0021E030E001C043
:1020C000220F8A95EAF72093EA001092EA008091A5
:1020D000EB008860EACF811179C11091FD021F7772
:1020E0008091E3008078812B8093E3008091E80069
:1020F000877F8093E8000E946E058091E80080FF52
:10210000FCCF8091E30080688093E30082E01111AE
:1021100083E08093F9025AC18058823008F056C19A
:102120002091FD023091FE022C3DE3E03E07A1F537
:1021300083E08A838AE289834FB7F894DE0113969D
:1021400020E03EE051E2E32FF0E050935700E491AD
:1021500020FF03C0E295EF703F5FEF708E2F90E09D
:10216000EA30C0F0C7968D939D932F5F243159F7C5
:102170004FBF8091E800877F8093E8006AE270E0BB
:10218000CE0101960E941A068091E8008B77809319
:10219000E8001CC1C096E7CF8091FF029091000338
:1021A000432F55274330510509F44AC078F5413093
:1021B000510509F47AC08FEB90E0EDE0F5E0423094
:1021C000510509F003C12091E800277F2093E80022
:1021D00020910103309102038217930708F49C01B8
:1021E00040E02115310509F065C0411163C08091BF
:1021F000E80082FDC9CF8091F902882329F2853059
:1022000019F28091E80083FFF2CFBECF4132510531
:1022100009F43CC04232510509F0D8C08330910521
:1022200008F0D4C0FC01EE0FFF1FE957FE4F0190EC
:10223000F081E02D8C579E4FDC018C9190E01AC00C
:10224000332721303105D1F02115310561F02230DD
:10225000310509F0BBC0EEEDF5E0E4918E2F90E082
:10226000EEEDF5E007C0EAE0F6E0E4918E2F90E0B5
:10227000EAE0F6E0009709F4A9C0A5CFEAEFF5E09F
:10228000E4918E2F90E0EAEFF5E0F4CF83309105F2
:1022900008F09CC0880F991FFC01E357FE4F019086
:1022A000F081E02D89E090E08ECF82E190E0ECECCF
:1022B000F5E089CF8091F902882309F465CF853054
:1022C00009F462CF8091E80083FD5ECF8091E80041
:1022D00082FD8DCF8091E80080FF83CF9091F30045
:1022E0008091F2002115310519F08830910550F0E8
:1022F00041E0089709F040E08091E8008E778093F4
:10230000E8006FCF44914093F1003196215031099C
:102310000196E8CF803809F059C08091E800877FA6
:102320008093E8008091FA028093F1009DCE8111A4
:102330004DC01091FD02123008F048C08091E800B5
:10234000877F8093E8001093FA020E946E051123A4
:1023500011F084E005C08091E30087FDFACF81E0B1
:102360008093F90242E061EC81E00E948D0542E237
:1023700061EC84E00E948D0542E261EC82E00E9403
:102380008D0542E260EC83E00E948D0542E361E846
:1023900085E00E948D0542E361E886E00E948D059C
:1023A0008091F90213C08091FD02813079F481E0BF
:1023B000933009F080E08093F8021092E900809158
:1023C000E800877F8093E8000E946E058091E80016
:1023D00083FF0AC08091E800877F8093E8008091A6
:1023E000EB0080628093EB00AA96E3E00C94542605
:1023F0000E94230F2FEF84E39CE021508040904007
:10240000E1F700C0000088E19AE00FB6F894A895C3
:10241000809360000FBE90936000FFCF882341F04F
:10242000809590910D02892380930D020E94C00E29
:102430000895882339F090910D02982B90930D0206
:102440000E94C00E08958823C1F19CEF980F913A25
:1024500078F4E8E9F1E09191891303C0DF01119765
:102460001C9241E0EE39F407B1F70E94C00E0895C6
:1024700090E2980F983088F4877021E030E0A9014D
:1024800002C0440F551F8A95E2F7CA0180959091CA
:102490000D02892380930D02E8CF9BE5980F9330BE
:1024A00028F490E080E00E94D7070895885A873189
:1024B00020F490E080E00E94C1070895CF93C82FD8
:1024C0008823B1F08CEF8C0F813A00F5E8E9F1E058
:1024D0008EE991E0DF012D91C21761F08A179B0709
:1024E000D1F76C2F86E991E00E94A7070E94C00EE9
:1024F000CF9108952191C21303C0DF0111971C925F
:102500008E179F07B9F70E94C00EEBCF80E28C0FA9
:10251000883068F4C77021E030E001C0220FCA950E
:10252000EAF780910D02822B80930D02DFCFEBE55D
:10253000EC0FE33040F4F0E0EE5CFE4F808190E081
:102540000E94D707D5CFC85AC73190F6EC2FF0E0DC
:10255000EE0FFF1FEB5CFE4F808191810E94C1074F
:10256000C7CF1F93CF93DF93182FD0E0C0E08933FC
:1025700011F4C0E5D0E0812F0E945E12209739F45B
:10258000812F0E942312DF91CF911F9108958FE92F
:102590009FE00197F1F700C000002197EFCF0F9364
:1025A0001F93CF93DF93C62FD42F022FFC0182817C
:1025B0008823A9F0609305030E949B07909304036E
:1025C00080930303C77081E001C0880FCA95EAF7C2
:1025D0000E941912DF91CF911F910F910895809160
:1025E0000503681332C080910303909104030E9495
:1025F0008007883C910548F510E21D0FCD17B9F012
:1026000080E28C0F883040F4C77081E001C0880FF1
:10261000CA95EAF70E940E12183048F481E09D2F07
:10262000977001C0880F9A95EAF70E941912802FBF
:102630000E94B112183070F6D77081E001C0880F87
:10264000DA95EAF70E940E12C5CFC77081E001C08B
:10265000880FCA95EAF7F6CFB0E0A0E0E2E3F3E135
:102660000C943426E82FF0E0E059FE4FD490282F48
:1026700026952695269530E0F901E05AFE4F049103
:10268000877010E0082E02C0159507950A94E2F7AE
:1026900001701127F901E05BFE4FE490F12C082E48
:1026A00002C0F594E7940A94E2F791E0E922FF244E
:1026B000F901E05CFE4FC491D0E002C0D595C7950A
:1026C0008A95E2F7C170DD270115110519F081EE39
:1026D0000E945E12E114F10419F086EE0E945E126F
:1026E0008D2D0E94B112E114F10419F086EE0E94C2
:1026F00023120115110519F081EE0E942312CD2B32
:1027000019F08CE20E94B112CDB7DEB7E7E00C946D
:10271000502668EE7EEF90E080E00E94D72660E0D1
:1027200082E090E00E94B92660E083E090E00E94A1
:10273000B92610920E0260E084E090E00E94B92673
:1027400064E082E290E00E94B92660E085E090E0DB
:102750000E94B92660E086E090E00E94B9266FEF03
:1027600087E090E00E94B92640E050E0BA0188E09E
:1027700090E00E94CB2660E08DE090E00E94B926B8
:1027800040E050E0BA0188E190E00E94CB2660E092
:1027900087E190E00E94B92640E050E0BA018CE168
:1027A00090E00E94CB2670E060E080E290E00E9422
:1027B000D72640E050E0BA0188E190E00E94CB26A5
:1027C00080E00E945D0B0E94760B40E050E0BA0171
:1027D0008FE090E00E94CB2640E050E0BA0183E118
:1027E00090E00E94CB260895A5E0B0E0EAEFF3E187
:1027F0000C942F264C01FC0183819481892B31F0AC
:102800008081918189238F3F09F0C5C72596ECE02F
:102810000C944B260E94C30B182F682F89819A8134
:102820000E94EF0969817A81812F0E94B50B5C01BA
:10283000F4018281882309F4A0C7950122513F4504
:102840002031310508F0A6C68FEF93E00E94AB2639
:102850008111DCCFFEEEAF0E07EF12E0A11038C001
:102860001C821B82DD24D3949AE0992E78013FEFDD
:10287000E31AF30AC8010E94AB2689831A828823CF
:1028800029F29FEF980F933088F58A83D9820E5FE3
:102890001F4FC7010E94AB268B83882309F4B6CF54
:1028A000AE014F5F5F4F5A01F50180818823F1F23D
:1028B000813009F057C0918182819130C9F4F2E0F2
:1028C000AF0EB11C0E94B112EFEFAE1ABE0AECCFF0
:1028D000011524E0120709F499CFC8010E94AB2624
:1028E000811101C0AA940F5F1F4FB8CF8701D8CFC5
:1028F000923031F422E0A20EB11C0E945E12E4CFAD
:10290000933031F432E0A30EB11C0E942312DCCFCD
:10291000943021F04FEFA41AB40AD6CF52E0A50E9E
:10292000B11C30E020E0B5016F5F7F4FF5014181C0
:102930008053990B8A30910550F02150310920F2D3
:102940008FE99FE00197F1F700C00000F6CF929E5B
:10295000F001939EF00D11249C012E0F3F1F842F38
:102960005B01E1CF0E942C13AFCF81E00E94120FD8
:1029700003C081E00E94050F0E94F90E47CF82E05C
:10298000F5CF99EEA9169DE5B90678F4EDEDAE16F2
:10299000EDE5BE0608F495C096E0C92E23E0E22ED0
:1029A00000E09501265931407EC0F0E8AF16FFE502
:1029B000BF0609F046C6882309F487C6B0EFEB2EA0
:1029C000B1E0FB2E8AE0D82EF7018491882309F428
:1029D0007CC6813009F04AC087010F5F1F4FF801A4
:1029E0008491813059F40F5F1F4FF80184910E9448
:1029F000B11278012FEFE21AF20AE6CF823041F4E9
:102A000087010E5F1F4FF80184910E945E12F1CF83
:102A1000833041F487010E5F1F4FF80184910E94BB
:102A20002312E7CF843029F787010E5F1F4FF8018B
:102A3000249190E080E0F80131962053330B2A3046
:102A4000310548F00197A8F2EFE9FFE03197F1F77F
:102A500000C00000F7CFD89EA001D99E500D1124D0
:102A6000C901840F951F24918F01E5CF0E942C137B
:102A70008701BFCFFF1659F04E2D6F2D80E00E94C9
:102A800026036CE06F0D4E2D80E00E9426038FEF31
:102A9000F8018083D6C5E7E0CE2EF4E0EF2E00E00B
:102AA000950122573140B40180E00E944A03C9C514
:102AB00067E0C62E73E0E72E00E095012E57314007
:102AC000F2CF3AE0C32E57E0E52E04E095012A58F4
:102AD0003140E9CFE1E8AE16ECE5BE0609F44FC19E
:102AE000F2E8AF16FCE5BF0609F0D5C5F401828116
:102AF000882309F48BCE80914303982F9F709930DF
:102B000008F084CE9F5F47C12CE9A2162CE5B206DF
:102B1000D0F532E9A3163CE5B30608F064C140E9FC
:102B2000A4164CE5B40609F44AC151E9A5165CE5C2
:102B3000B50609F0B0C5F4018281882309F466CE98
:102B400020914303822F85958595859585958630BF
:102B50000CF05CCE91E0980F9295907F95959595AD
:102B600095959595392F3295307F2F70232B209393
:102B7000430318160CF04ACE97FF48CE8295807F0B
:102B8000922F9F700AC18CE9A8168CE5B80609F44B
:102B90003EC19DE9A9169CE5B90609F07CC5F40182
:102BA0008281882309F432CE80914403982F9F7745
:102BB0009F3709F42BCE933708F041C1935F9F777D
:102BC00080783BC1E4EBAE16ECE5BE0609F495C196
:102BD00008F03EC020EBA2162CE5B20609F465C150
:102BE000F8F44EEAA4164CE5B40609F43FC15FEAD6
:102BF000A5165CE5B50609F04EC5F401828188236F
:102C000009F404CE20914403322F331F3327331F9E
:102C100090914503892F8770880F832B8F5F38C170
:102C2000F40122818091440390914503F2EBAF16A9
:102C3000FCE5BF0609F44DC108F055C140E0211183
:102C40004FE7881F8827881F9770990F60E43DC160
:102C500047EBA4164CE5B40609F461C1A0F485EB7A
:102C6000A8168CE5B80609F448C196EBA9169CE5B0
:102C7000B90609F010C5F401828181114EC18FEFB0
:102C80008093C202C3CDE9EBAE16ECE5BE0609F4B3
:102C90007EC108F466C12AEBA2162CE5B20609F043
:102CA000FAC480914403982F991F9927991F809106
:102CB00045038770880F892BF40192816FEF7FE1C4
:102CC000992309F475C10E94A603A0CDE5EFAE16C5
:102CD000ECE5BE0609F482C108F47CC126EFA21619
:102CE0002CE5B20609F0F1C427E245EE66EE66C1B6
:102CF00040914403942F991F9927991F8091450370
:102D00008770880F892B4F7701ED0A0D10E0005C6A
:102D10001D4FF8016081F40192819923B9F06F3F52
:102D200009F074CD90914303292F2F7095959595B7
:102D3000959595959F52FCE02F9F900D1124A90E1B
:102D40006A2D0E943803F801A08260CD6F3F11F018
:102D50000E9426038FEFF801808358CDF401828111
:102D6000882309F453CDF9E8AF0E2A2D2F70A22E37
:102D700080914303807FA82AA092430347CDF401AA
:102D80008281882309F442CD80914303982F9F705C
:102D900009F43CCD915F9F70807F892B8093430322
:102DA00035CDF4018281882309F430CDF7E7AF0EE9
:102DB000A29480EFA822809143038F70DCCFF401AE
:102DC0008281882309F422CD80914303982F959521
:102DD0009595959595959B3F0CF418CD915F92959F
:102DE000907F8F70DACFF4018281882309F40ECDB1
:102DF000FEE6AF0E8EE0A89EA02C1124E894A7F862
:102E0000809144038078A82AA0924403FFCCF40167
:102E10008281882309F4FACC80914403982F9F770C
:102E200009F4F4CC80789F3721F4856780934403BC
:102E3000EDCC9D30D8F39D509F77892BF7CF8F67CE
:102E4000F5CFF4018281882309F4E0CCF2E6AF0EDD
:102E500080914403A0FA87F9809344038A2D8695D4
:102E6000877090914503987F892B78C0F401828107
:102E7000882309F4CBCC20914403322F331F33270E
:102E8000331F90914503892F8770880F832B815FB3
:102E9000382F3F7080FB27F920934403832F8695BA
:102EA000987F982B90934503B1CCF40182818823BD
:102EB00009F4ACCC90914403991F9927991F8091F4
:102EC00045038770880F40E06BE7892B0E94BF03A2
:102ED0009DCC40E021114FE7881F8827881F9770FD
:102EE000990F61E4F2CF40E021114FE7881F882756
:102EF000881F9770990F62E4E8CFF401828140E067
:102F000081114FE790914403991F9927991F809150
:102F100045038770880F63E4D8CF81E0B1CEF40118
:102F20008281882309F472CC90914503292F26953C
:102F3000269526952F7081E0820F8F70880F880F5D
:102F4000880F9778892B80934503982F987709F0FD
:102F50005DCC220F220F220F8778822B80934503AE
:102F600055CCF4018281882309F450CC809145032B
:102F7000982F987709F44ACC982F96959695969520
:102F8000915F9F70990F990F990F87786DCF8091FE
:102F90004403982F991F9927991F809145038770A3
:102FA000880F892BF401928160E070EE91118BCE35
:102FB00070E060E088CE26E241EE61EEC4010E943E
:102FC000CF1224CC27E245EE65EEF8CF26E241EEA3
:102FD00060EEF4CF27E245EE64EEF0CF26E241EE5C
:102FE00062EEECCF28E241E0EFCF31E6A3163DE5FB
:102FF000B30609F483C345EAA4164DE5B40609F403
:103000007DC326E1A2162CE5B20609F015C1809118
:103010000D028A7A91E009F490E090939E0169E2B2
:10302000811165E386E991E00E94A7070E94C00E26
:10303000EDCB87E0A8168CE5B80609F4BFC08091F7
:10304000A602806198E0A9169CE5B90608F4A7C01D
:103050008091A6028064A3C08091A6028B7FEDE0E0
:10306000AE16ECE5BE0609F49AC0B0F48091A60253
:103070008E7F2BE0A2162CE5B20609F490C0809159
:10308000A6028C603CE0A3163CE5B30608F487C0BA
:103090008091A6028D7F83C08091A6028F7E4FE033
:1030A000A4164CE5B40609F47AC08091A602877F85
:1030B00050E1A5165CE5B50608F471C08091A60242
:1030C0008F7D6DC08DEFA8168CE5B80609F484C01D
:1030D00078F5E5E1AE16ECE5BE0609F48BC0A0F488
:1030E0008091A602837F23E1A2162CE5B20609F4A3
:1030F00056C008F479C00E94230F9091A602892F30
:1031000097FB87F980584BC04BEFA4164CE5B406EB
:1031100009F450C008F05CC08AEFA8168CE5B80628
:1031200009F01BC38091A70281608093A70215C399
:1031300091E0A9169DE5B90609F468C0C8F480912C
:10314000A7028C7FFFEFAF16FCE5BF0671F38091FD
:10315000A7028360A1142DE5B20638F38091A7027F
:10316000982F909591708E7F892B90FB81F9DDCF00
:1031700031E6A3163DE5B30609F44EC045EAA416B0
:103180004DE5B40609F44FC052E0A5165DE5B5065D
:1031900009F0E3C260E03BC08091A60282608093A8
:1031A000A602DBC28091A6028460F9CF8091A602BC
:1031B0008860F5CF8091A7028260B7CF8091A60288
:1031C0008062EDCF0E94230F8091A6028068E7CF36
:1031D0008091A7028E7FA9CF8091A7028D7FA5CF76
:1031E0008091A6028F7BDBCF0E94230F8091A602E5
:1031F0008F77D5CF8091A60282FB992790F921E0A5
:10320000922790FB82F990FB83F9C9CF61E08EE0B1
:1032100090E00E94B926A1C29091A602892F8F7ECC
:1032200094FF8061BCCF9091A602892F8E7F90FF82
:103230008160B5CF85E3CBC28823F9F09EEDA91656
:103240009CE5B906B1F0E7EAAE16EDE5BE0699F0E9
:10325000A114FCE5BF0689F40E94230F2FEF34E38D
:103260004CE0215030404040E1F700C000000E9497
:103270006F070E9489130E94F811F40100811181E7
:10328000882311F1C8010E94C30BF82E682FC801D2
:103290000E94EF09B8018F2D0E94B50B0E944908CA
:1032A000182FF82EF40122814581342F32953F707A
:1032B000892F82958F70A82EB12C8C30E8F5F501FE
:1032C000E750F94D0C948826C8010E94BB09F82EDE
:1032D000E1CF092F0F70907F11F00295007F812FB1
:1032E0002223C9F0002369F090E2910F983010F08A
:1032F00011110BC080910D02082B00930D020E944A
:10330000C00E812F0E945E1217C080910C02082B04
:1033100000930C02F4CF0E942312002369F0009561
:10332000105E183010F0F11012C080910D020823C9
:1033300000930D020E94C00E58E0A51AB10884E067
:10334000A816B10408F062CA0E94DE0A5FCA809122
:103350000C02082300930C02EDCF892F8F70907F11
:10336000903211F08295807FF1E0FF120CC0222391
:1033700029F0363008F70E941912DECF3530E0F61A
:103380000E940E12D9CF222341F03323A1F340FF34
:10339000B8CF4F70F4014583EECF332389F319334F
:1033A00049F4FFEF27EE33E0F15020403040E1F7E1
:1033B00000C00000812F0E942312BECF892F869566
:1033C0008695837061F0813009F0B6CF812F9370BC
:1033D000211102C090E080E00E94C107ADCF812F93
:1033E0009370211102C090E080E00E94D707A4CF23
:1033F000892F8370A1F521119FCF812F829586950A
:103400008770880F880F412F4F70082E01C0440F1E
:103410000A94EAF7212F207114FF07C02FE030E053
:1034200001C0220F8A95EAF720959695969593709C
:10343000923081F0822F842B933030F480910E02F1
:10344000913029F0242B82230E941E0F75CF842BEC
:10345000822BFACF242B80910E028227F5CF8695FE
:10346000222311F0892F8170882309F465CF812FE1
:10347000829586958770880F880F412F4F70082E90
:1034800001C0440F0A94EAF7212F207114FF07C0EE
:103490002FE030E001C0220F8A95EAF7209596953B
:1034A00096959370923081F0822F842B933030F474
:1034B00080910603913029F0242B82230E94F40E80
:1034C0003BCF842B822BFACF242B809106038227BB
:1034D000F5CF092F0F70222329F0802F0E94120FA1
:1034E000812F49CF812F0E940E12802F0E94050F3D
:1034F00023CF812F41EF141789F1411750F050EF7E
:103500001517B9F02223B1F13111FBCE892F8F713C
:1035100029C0E2EF1E1749F1F3EF1F13F3CF80E04C
:10352000222361F29F7181E001C0880F9A95EAF72A
:10353000C5CF222379F0353008F0FECE292F2F7128
:1035400081E090E001C0880F2A95EAF79091060388
:103550008927B4CF363008F0EFCEF0CF892F8F71A6
:10356000222321F20E94120FE7CE892F8F7122238E
:10357000C9F3BCCF332359F0893309F01BCF2FEFA8
:1035800037EE43E0215030404040E1F711CF892F22
:103590008F71ACCF90E1A9169FE5B90609F4E5C992
:1035A000E1E1AE16EFE5BE0609F4E9C943E54A0DCF
:1035B000F1EDAF16FDE5BF0608F0E3C925ECA21654
:1035C0002DE5B20608F074CA3DEAA3163DE5B30640
:1035D000C0F159EBA5165DE5B50608F05CCA9091FF
:1035E0004403E92EE894E7F8042F10E0095F1C4F2C
:1035F000F801F080FFEF882309F43CCAFF1221C0D4
:1036000060914303862F8F70F62EF594F594F59410
:10361000F5942CE0829FF00C1124B50162577140A3
:10362000F60EA1EDDA2EDF0C4E2D6D2D80E00E94FE
:1036300038036DED6F0D4E2D80E00E943803F801C8
:10364000D082FEEAAF16FCE5BF0608F0BBCA2EE941
:10365000A2162CE5B20608F0F4CB30E9A3163CE53F
:10366000B30608F051CA43E8A4164CE5B40608F0C6
:1036700098CB51E8A5165CE5B50608F02BCA87E79C
:10368000A8168CE5B80608F069CB9FE2A9169CE560
:10369000B90608F02DCB33EFA3163CE5B30609F4C9
:1036A00095CC08F013CB58EDA5165CE5B50609F4EA
:1036B00089CC89EDA8168CE5B80609F493CC97ED72
:1036C000A9169CE5B90609F476CCF4018281882319
:1036D00009F472C010920503F3E0AF16FDE5BF06D2
:1036E00008F083CC2AEFA2162CE5B20638F4950137
:1036F00022503C452431310508F083CC0E94380C1F
:103700009093A7028093A60251E1A5165CE5B50649
:1037100009F466CD08F0D6CC99E0A9169CE5B90667
:1037200009F450CD08F098CCF5E0AF16FCE5BF06E3
:1037300009F43CCD08F07DCC33E0A3163CE5B3069C
:1037400009F42ACD08F02ECD8091A602816052E0C6
:10375000A5165CE5B50609F422CD6091A60210918C
:10376000A70284E090E00E94B926612F82E290E0F7
:103770000E94B9260E94230F49C8F0E1AF16FFE569
:10378000BF0609F4F6C821E1A2162FE5B20609F03A
:103790000DCF82E0EFC885E0DE01119601900D9219
:1037A0008A95E1F7F401228189819A81211132C839
:1037B0000E94BB09182F36C8F6E1AF16FCE5BF061C
:1037C00009F05BCD80919E01811134CD89E2E8E959
:1037D000F1E02EE931E09191891303C0DF011197E7
:1037E0001C922E173F07B9F721CC1F93CF93DF937D
:1037F0008091D101807F09F049C08091CE0188235A
:1038000009F444C080910302D091D2016091CC01AF
:103810007091CD01A091CF01B091D001C62FC723E7
:1038200016E0D81799F190E0109711F0CF3F19F4F6
:1038300001968770F6CF189F9001199F300D1124C3
:10384000F901ED52FE4F41814713F2CF40814613FB
:10385000EFCF42814111ECCF438154814A1B5B0B76
:10386000483C510528F78091D1018F708061809389
:10387000D101F901E852FE4F80818F708061808311
:103880008CEC91E00E94F4130E94B109DF91CF917A
:103890001F910895A1E1B0E0E0E5FCE10C94312630
:1038A0008C0185E0F801DE011D9601900D928A954C
:1038B000E1F7F801E2808CECA82E81E0B82E60914F
:1038C000CF017091D0016115710509F426C1909165
:1038D000CC014091CD01892F84238F3F09F41DC174
:1038E00020813181C380D480F090CE01F601E61BA7
:1038F000F70BFF2009F4DCC08091D101582F507FD5
:10390000E83CF10508F09FC051116BC0FE2C431339
:1039100014C0921312C0E11010C08F7080618093A8
:10392000D101C5010E94F4138091D101F801858372
:103930008F2D6196EAE00C944D26C114D10429F034
:10394000822F83238F3F09F003C180E0F82FF170AD
:10395000DF2E80FF3CC0809103024091D20156E0EF
:10396000841315C02D873E878D859E850E94F20B9E
:10397000292F22952F702230F0F0243018F59F70F7
:10398000F1F0F8019581907FD1F4D12C1EC090E028
:10399000589FF001599FF00D1124ED52FE4F6181A7
:1039A000361306C06081261303C06281E6120FC081
:1039B00001968770D5CF9F7011F0882331F3805E18
:1039C000883018F3C8010E94F413FD2CB1CFEE200B
:1039D00009F4AECF8091D10181608093D101F12CA7
:1039E000A7CF431306C0921304C0F801EE2009F4D8
:1039F00079C0C8010E94FF0B882309F1EE20F9F07D
:103A00008091D101803270F02091CC013091CD01B4
:103A100038872F831986DB86CA868C87CE01079666
:103A20000E94F41386E0F801ACECB1E001900D9235
:103A30008A95E1F70E94F51BFF24F39479CFC80122
:103A40000E94F413F9CF51110AC08CEC91E00E944E
:103A5000F41386E0F50111928A95E9F7C0CF43137C
:103A60000FC092130DC0E1100BC0F8018583C8018F
:103A70000E94F41386E0F50111928A95E9F758CF78
:103A8000C8010E94FF0B8823D1F2EE20C1F2809181
:103A9000D101803238F22091CC013091CD013A83AE
:103AA00029831B82DD82CC828E83CE010196B8CF22
:103AB000E83CF105F8F6FE2CEE2009F243131FC096
:103AC00092131DC08091D10180FD10C0982F907F6E
:103AD00069F0F8018583903F31F0982F907F905FD7
:103AE0008F70892B8583C8010E94F41386E0F8014A
:103AF000ACECB1E001900D928A95E1F719CFC801C5
:103B00000E94FF0B81118ECF8091D1018160809343
:103B1000D101C8010E94F4130BCFEE2009F48FCF1E
:103B2000C8010E94FF0BF82E882309F488CF86E095
:103B3000F801ACECB1E001900D928A95E1F780912B
:103B4000CC019091CD010E94F20B0E94F51BF0CEAA
:103B500081E08E25FBCEA7E1B0E0E1EBFDE10C9426
:103B600038264B8B5C8B6D8B7E8B8F8B611110920B
:103B70000C021A8A198A85E0FE017396DE011D96F1
:103B800001900D928A95E1F786E0FE013D96DE01F7
:103B9000179601900D928A95E1F7CE0107960E9443
:103BA0004A1C882359F016E0809103029091D201BB
:103BB000891343C06796E3E00C94542686E0FE0127
:103BC0003796DE01119601900D928A95E1F78A856C
:103BD0009B85892B41F38F81988589238F3F19F32A
:103BE0002091D20130E0C901019687709927409158
:103BF00003024817190671F40E94230F1092D20194
:103C00001092030286E0ECECF1E0DF011D928A9550
:103C1000E9F7C9CF96E0929FD001939FB00D112490
:103C2000AD52BE4FFE01319601900D929A95E1F78B
:103C30008093D2010E94B109B6CF819FC0011124A7
:103C40008D529E4F0E944A1C882309F4B3CF809165
:103C5000030290E001968770992780930302A4CF16
:103C60001F920F920FB60F9211242F933F934F93F1
:103C70005F936F937F938F939F93AF93BF93CF93F4
:103C8000DF93EF93FF93D091E900DF708091EC0018
:103C9000C82FC17080FDC0E81092E9008091F0004B
:103CA000877F8093F00078940E942F0F1092E90094
:103CB0008091F00088608093F000CD2BCF70C0938E
:103CC000E900FF91EF91DF91CF91BF91AF919F916B
:103CD0008F917F916F915F914F913F912F910F90B5
:103CE0000FBE0F901F9018951F920F920FB60F9254
:103CF00011242F933F934F935F936F937F938F93F1
:103D00009F93AF93BF93EF93FF938091E10082FF66
:103D100009C08091E20082FF05C08091E1008B7FA5
:103D20008093E1008091DA0080FF24C08091D80068
:103D300080FF20C08091DA008E7F8093DA0080912E
:103D4000D90080FF9DC080E189BD82E189BD09B4B1
:103D500000FEFDCF81E08093F9028091EC02811199
:103D600009C00E94CA040E94BF058091E2008460DD
:103D70008093E2008091E10080FF17C08091E20013
:103D800080FF13C08091E2008E7F8093E2008091DB
:103D9000E20080618093E2008091D800806280938D
:103DA000D80019BC85E08093F9028091E10084FF7E
:103DB0002BC08091E20084FF27C080E189BD82E1B1
:103DC00089BD89B5982F917080FFFBCF8091D80075
:103DD0008F7D8093D8008091E1008F7E8093E100F9
:103DE0008091E2008F7E8093E2008091E20081600A
:103DF0008093E2008091FA02882309F447C084E0AE
:103E00008093F9028091F9028091E10083FF27C03D
:103E10008091E20083FF23C08091E100877F80933F
:103E2000E10082E08093F9021092FA028091E100B1
:103E30008E7F8093E1008091E2008E7F8093E2008C
:103E40008091E20080618093E20042E060E080E0E7
:103E50000E948D058091F00088608093F000FF91B2
:103E6000EF91BF91AF919F918F917F916F915F91F2
:103E70004F913F912F910F900FBE0F901F9018956B
:103E800019BC1092F9021092EC0274CF8091E300F9
:103E900087FD93E09093F902B5CF78941F921FB6F7
:103EA0001F9211248F939F93AF93BF938091E5024C
:103EB0009091E602A091E702B091E8020196A11D5F
:103EC000B11D8093E5029093E602A093E702B093C0
:103ED000E802BF91AF919F918F911F901FBE1F90DD
:103EE00018951F921FB61F9211248F939F93AF9323
:103EF000BF938091E402811113C08091E5029091FB
:103F0000E602A091E702B091E8024196A11DB11D21
:103F10008093E5029093E602A093E702B093E80253
:103F2000BF91AF919F918F911F901FBE1F901895C9
:103F3000CDB7DEB7AA970FB6F894DEBF0FBECDBFE0
:103F400085B7806885BF85B7806885BF84E080932A
:103F500043038FE780934403809145038078806416
:103F600080934503E0E4F2E08FEF819322E0E838AC
:103F7000F207D9F71092C1021092C2021092C40245
:103F80001092C30210926C0310926E0310926D0394
:103F900080EC809331048FE693E090933304809318
:103FA00032041092300410922F0410924C0310929D
:103FB0004B0310924E0310924D0310925003109237
:103FC0004F03109252031092510310925403109217
:103FD00053031092560310925503109258031092F7
:103FE000570310925A031092590310925C031092D7
:103FF0005B0310925E0310925D03109260031092B7
:104000005F03109262031092610310926603109294
:10401000650380E297E0909348038093470382EA28
:1040200096E090936803809367038EE796E0909301
:104030006403809363038DE796E090934A03809333
:10404000490384B7877F84BF0FB6F894A895809101
:104050006000886180936000109260000FBE80E86D
:1040600090E00FB6F89480936100909361000FBECA
:104070008DEE97E090939501809394010E94CA047D
:104080000E94BF058091E20084608093E2007894F2
:104090008091F9028823A1F01091E9001F7090919E
:1040A000EC00892F817090FD80E8182B1092E900B8
:1040B0008091E80083FD0E942F0F1F701093E9008C
:1040C00082E084BD93E095BD9AEF97BD80936E002A
:1040D000109288021092890210928A0210928B022A
:1040E0000E941F0C811102C00E94760B0E94BA0A26
:1040F00091E08927809318010E94BA0A81110E94D9
:10410000C724809118018091180196E0811190E0F8
:104110009093A50286E0891B8093A40205E611E036
:10412000ABE6EA2EA1E0FA2ED8018D918D018F3FEA
:1041300011F00E94EF07E016F106B1F70BE611E06F
:10414000F5E7EF2EF1E0FF2EF80181918F018F3F0F
:1041500011F00E94EF07E016F106B1F788E1E6ECF6
:10416000F2E0DF01282F1D922A95E9F7ECE8F2E052
:10417000DF011D928A95E9F790E080E00E94B32666
:10418000883E9E4F21F40E941F0C811102C00E94A4
:10419000891382E090E00E94AB268093A8020E94DF
:1041A000380C9093A7028093A6020E94510DEFE372
:1041B000FCE93197F1F700C000000E94510D809199
:1041C000C60280FF08C06FEF7FEF90E080E00E94A2
:1041D000D7260E946F0783E090E00E94AB260E94E2
:1041E0001E0F0E94BA0A811102C00E94CA24809147
:1041F0004303807F826080934303809144038078EF
:10420000856780934403E7E0F3E08FEF819323E039
:10421000E334F207D9F781E00E941E0F89E191E0B3
:104220009093E1028093E00268E1462E512C7EEDEE
:10423000672E72E0772EE3E0AE2EB12C8091F9026A
:1042400000E112E1853009F42CC10E94510D811169
:104250000E948F0756ECE52E52E0F52EE9EAF2E0D7
:10426000D70110E000E0202E8D909D9081919191DA
:104270008815990509F425C188259925312CCC2468
:10428000C394D12C9C012C213D21232B09F413C173
:104290000E94BA0A8823A9F039A22AA28C209D2064
:1042A00081E0892809F480E08BA30E949B0781604C
:1042B000782F9DA38CA349A15AA16BA18DA10E9427
:1042C000AB1D000F111FF801E755FD4F8081918153
:1042D000C826D926D182C0820E94BA0AE09167031B
:1042E000F0916803309719F087E493E009959FB740
:1042F000F8940091300480912F04081708F4F8C056
:10430000081B9FBFD12CC12C10E088248394912CD2
:10431000C016D10608F4F0C08091C3029091C40287
:104320000E948007209145032695269526952F709B
:104330002817190609F060F50E949B079093C402A4
:104340008093C3028091C202882311F190914403AB
:10435000991F9927991F809145038770880F409175
:10436000C10261E0892B0E94BF038091C20290913B
:10437000C10287FF78C1E82FFF27E1950CF4F09583
:104380009E171F060CF06FC11092C1021092C2025C
:104390000E94DE0A9091C50289138093C502809124
:1043A000F9028430E1F4809126018F708093E90056
:1043B0009091E80090FF13C09091F902943079F445
:1043C0008093E9009091F3008091F200892B39F0FD
:1043D0008091E8008E778093E8000E94E904809144
:1043E000F902843009F02ACF83E08093E9008091BC
:1043F000E80082FF23CF8091E80090E085FF09C0AC
:1044000050E040E060E270E0CE0101960E94440579
:1044100091E08091E8008B778093E800992309F47C
:104420000DCFE981E150E33108F081C1F0E0EB5FAD
:10443000F84D0C9488268091F902843011F1109285
:10444000E40240E40FB6F894A895409260000FBED5
:104450004093600083B7817F846083BF83B78160AE
:1044600083BF7894889583B78E7F83BF0FB6F89407
:10447000A895809160008861809360001092600030
:104480000FBE8091F802882361F00E94510DE6EC86
:10449000F2E081919191892B09F000C26E167F069E
:1044A000C1F78091F902853009F4C5CF0E94230F2E
:1044B0000E94DE0ACACE3394CC0CDD1C5AE03512C1
:1044C000E1CE0F5F1F4F0C30110509F0CCCE8FEFFE
:1044D0008EA38FA318A60E949B078160782F9AA7AE
:1044E00089A74EA15FA168A58AA50E94AB1DF4CE45
:1044F00020913104020F04CF80912F0490E060914D
:10450000310470E00E94742620913204309133040B
:10451000280F391FD9013C9020906C03B7EFB315D9
:10452000F0F4E1E0E0936C0320E040E0632D81E0F3
:1045300090E00E94E70320926C032FB7F8948091DB
:104540002F0490E001966091310470E00E9474267F
:1045500080932F042FBFBFEFCB1ADB0AD9CE37FED3
:1045600053C0F4E02F1631F03092690390926E033D
:1045700080926D03832D0E947F06813069F088232D
:10458000D1F08230A9F0833099F010926C03109230
:104590006E0310926D03D1CF80936C0320E040E056
:1045A000632D81E090E00E94E70310926C03C5CF79
:1045B00080936C03C2CF20EF3216E1F047EF341244
:1045C000E4CF20916D0330916E03C901B5010E94C3
:1045D0006026FC01E95BFC4F32A2C9010196909371
:1045E0006E0380936D0320916B0340916A03609189
:1045F0006903D9CF54E050936C03309269039092D1
:104600006E0380926D0399CF222009F496CF2091FA
:104610006D0330916E03C901B5010E946026AC01A3
:10462000FC01E95BFC4F32A2C901019690936E0335
:1046300080936D034130510589F04230510509F0F6
:104640007CCF20916B0340916A03609169030E94C3
:10465000E70380916C03843091F66FCFA2E020E0F5
:104660002A126BCFF0CF890F87FD03C08093C10260
:104670008FCE8FE7FBCF1A8289E08B8311C08A81AE
:10468000823009F421C1833091F1813009F04FC0AB
:104690000E948F070E948E266B837C838D839E836E
:1046A0008091F902843009F0C9CD1091E9001F70A2
:1046B0009091EC00892F817090FD80E8182B82E0AA
:1046C0008093E9008091E80080FF0DC050E040E059
:1046D00060E270E0CE0101960E941A058091E80028
:1046E0008E778093E8001F701093E900A7CDFE013C
:1046F0003196D7018C9111969C91B2E0EB0EF11C92
:104700009283838332962EEDE21622E0F20689F739
:10471000C7CF8A81823059F46B817C818D819E81E3
:104720000E948E2686E290E00E94B926B9CF8FEFD4
:104730008983B6CF4C816B818A810E94860B982732
:10474000892798279E838D83ABCF2D813E81322789
:10475000232732274C816B818A810E94FF0AA0CFD8
:104760000E94250B9DCF80E18A839ACF81E08A83C6
:1047700083CFEA80FB80FE24EF24FE248E010F5FAE
:104780001F4FCC80C00ED12ED11CC70189509D4F28
:10479000C016D10609F484CF49E0E41641E0F406DE
:1047A00058F40E94AB26D80114968C93FFEFEF1AB1
:1047B000FF0A0F5F1F4FE9CFF8011482F7CF0A817C
:1047C0001B81102701271027AE014F5F5F4F6A0141
:1047D000EC80E00EF12EF11CC80189509D4FE016CF
:1047E000F10609F45DCF093051E0150728F4D60130
:1047F00014966C910E94B926BFEFCB1ADB0A0F5FAB
:104800001F4FEACF0E94EF0A4BCF83E0ADCFEA8083
:10481000FB80FE24EF24FE248E010F5F1F4FCC800F
:10482000C00ED12ED11CC7018796C016D10609F43F
:1048300037CFE0EDEE16E2E0FE0658F40E94AB261C
:10484000D80114968C93FFEFEF1AFF0A0F5F1F4FEA
:10485000EACFF8011482F7CF0A811B8110270127C4
:104860001027AE014F5F5F4F6A01EC80E00EF12E22
:10487000F11CC80187960E151F0509F411CF003DE4
:1048800052E0150728F4D60114966C910E94B926BF
:10489000BFEFCB1ADB0A0F5F1F4FEBCF09BD19BD6E
:1048A00009B400FEFDCF8091D8008F7D8093D800A1
:1048B0008091E00082608093E0008091E00081FDC3
:1048C000FCCF0E94230FEDCD86E290E00E94AB2644
:1048D0001B821C821D828E83E3CE8EE14A9B02C026
:1048E0008150E1F74A9BFECF08955A9880E28A955D
:1048F000F1F75A9A0895FC013BE03A95F1F798E0F8
:1049000020E080E031E040E14A95F1F7880F4A9BD2
:1049100002C08160232742E04A95F1F7000040E1A0
:104920004A95F1F7915079F790E19A95F1F799B19D
:1049300032E03A95F1F7000040E14A95F1F792FB39
:10494000992790F992272081920F90830895A1E0F2
:10495000B0E0EDEAF4E20C94352619828C017C017A
:10496000E60EF11C0E151F0541F481E099819111AD
:1049700080E02196E6E00C9451260E946D24CE0141
:1049800001960E947B24F80181938F01EBCF529A0C
:104990005A9A089552985A9AEA9AE9E6F0E0808184
:1049A0008F7C808308956150770B91E001C0990F4F
:1049B0006A95EAF720E031E0911108C0222391F0D6
:1049C0005A9A80E28A95F1F75A980895492F482318
:1049D00039F05A9A232740E24A95F1F79695ECCFA1
:1049E0005A98F9CF5A98EDCFFF920F931F93CF9318
:1049F000DF93EC018C01060F111DC017D10729F4BC
:104A0000CDB7DEB7E5E00C945226F9900E947524EC
:104A100068E08F2D0E94D324F0CF1F920F920FB623
:104A20000F9211240F931F932F933F934F935F93F4
:104A30006F937F938F939F93AF93BF93EF93FF9366
:104A4000CF93DF930F92CDB7DEB719820E946D240A
:104A5000CE0101960E947B24082F069506950695A7
:104A6000282F22952570902F9570290F922F9370E3
:104A700026952695920F982797708981982B09F093
:104A80005CC0043008F059C080E18A95F1F75A9A69
:104A9000529A82E08A95F1F700C05A9888E0089F00
:104AA00080011124D801A050BF4F1696ED91FC91C2
:104AB00017973097A9F06091630170916401149683
:104AC0002D913C911597260F371F11968D919C9132
:104AD0001297680F791F13964C9113978C91099533
:104AE000F801E050FF4F6381662351F0209163018C
:104AF0003091640184819581820F931F0E94F42478
:104B00000E94752480E18A95F1F75A9852985A9A32
:104B100080E18A95F1F7F801E050FF4F608166234C
:104B200051F0209163013091640181819281820F63
:104B3000931F0E94A7240E946D240F90DF91CF91B4
:104B4000FF91EF91BF91AF919F918F917F916F9165
:104B50005F914F913F912F911F910F910F900FBE39
:104B60000F901F9018950F931F93CF93DF93EC0135
:104B700004970CF04CC0F894529A5A9885E08A95A4
:104B8000F1F700009C2F969595708C2F8570980FEB
:104B9000892F83709695969523E0CC0FDD1F2A957B
:104BA000E1F7980F8E01092B0E94752400C068E080
:104BB000802F0E94D32480E18A95F1F752985A9A67
:104BC0004A9B1EC087E090E04A991CC0FE01E0505D
:104BD000FF4F63816623F9F02091630130916401F6
:104BE00084819581820F931F0E94A724811113C095
:104BF000529A5A9A7894DF91CF911F910F9108950C
:104C000000C0DECF019729F4529A5A9A789480E036
:104C1000F2CF00C0D9CF0E946D2480E28A95F1F7CF
:104C20005A98529A80E18A95F1F7C050DF4F688117
:104C3000662351F0209163013091640189819A814A
:104C4000820F931F0E94F4240E947524789481E0BF
:104C5000D2CF2F923F924F925F926F927F928F921C
:104C60009F92AF92BF92CF92DF92EF92FF920F93FB
:104C70001F93CF93DF93CDB7DEB7CA1BDB0B0FB605
:104C8000F894DEBF0FBECDBF09942A8839884888C2
:104C90005F846E847D848C849B84AA84B984C88458
:104CA000DF80EE80FD800C811B81AA81B981CE0F4F
:104CB000D11D0FB6F894DEBF0FBECDBFED01089534
:104CC000AA1BBB1B51E107C0AA1FBB1FA617B70732
:104CD00010F0A61BB70B881F991F5A95A9F780954E
:104CE0009095BC01CD01089597FB072E16F4009412
:104CF00007D077FD09D00E94602607FC05D03EF45E
:104D0000909581959F4F0895709561957F4F089577
:104D1000EE0FFF1F0590F491E02D09946927962767
:104D200069277827872778270895FB01DC0104C0CD
:104D30008D910190801921F441505040C8F7881B93
:104D4000990B0895FB01DC0102C001900D924150C6
:104D50005040D8F70895F999FECF92BD81BDF89AD9
:104D6000992780B50895A8E1B0E042E050E00C94A6
:104D7000DF26262FF999FECF92BD81BDF89A0197C3
:104D800000B4021639F01FBA20BD0FB6F894FA9A93
:104D9000F99A0FBE08950396272F0E94BA260E9403
:104DA000B926252F0E94BA26242F0C94BA260196E4
:104DB000272F0E94BA260C94B926DC01CB01FC01F6
:104DC000F999FECF06C0F2BDE1BDF89A319600B464
:104DD0000D9241505040B8F70895F894FFCF10104D
:104DE0003810E6113810E6116B108C10E6118A119C
:104DF000971169196919AD19AD19DE199C199C191A
:104E00009C19F819691A791A791A3B233F238923C7
:104E10009A23A523B0239723972397239723972398
:104E2000B323B623B923DF230224052407242C242B
:104E300000000001000000000000000C0100000064
:104E4000040D000000000000017A065A0A79065598
:104E50000A500A780604854000000106400000015F
:104E60000001818283E200E900EA00B500B600B7E4
:104E700000CD008301CC008A01920194012102231C
:104E80000224022502260227022A02B300B4006F80
:104E90000070002A023534C697669431F7F6F5F4AF
:104EA000333236909102030200000100010101013A
:104EB000010001014022320001DE00AC001F053874
:044EC000055805008C
:00000001FF
