:100000000C9436070C947D070C947D070C943D1AD4
:100010000C947D070C947D070C947D070C947D0750
:100020000C947D070C947D070C944E310C94213276
:100030000C9490270C947D070C947D070C947D07FD
:100040000C947D070C947D070C947D070C947D0720
:100050000C947D070C94FB270C947D070C947D0772
:100060000C947D070C947D070C947D070C947D0700
:100070000C947D070C947D070C947D070C947D07F0
:100080000C947D070C947D070C947D070C947D07E0
:100090000C947D070C947D070C947D070C947D07D0
:1000A0000C947D070C947D070C947D07B2002A0107
:1000B000000000061CFFFF0B0100FFFF0C01000009
:1000C000FF0D010BB0FF18010000FF230180FF802E
:1000D0003C061CFFFF4A010BB0FF5501AAFFFF566B
:1000E0000180FFFF57016AFFFF580155FFFF5901CB
:1000F00040FFFF6001EA80FF62061CFFFF6B012BDF
:10010000FFFF6C0155FFFF6E0100FFFF70010BB098
:10011000FF77010BB0FF780180FFFF790124FFFF1B
:100120007A016AFFFFFF00000000010A1CFFFF15B3
:10013000021CFFFF19031CFFFF1E051CFFFF250209
:100140001CFFFF2D021CFFFF39021CFFFFFF0000F8
:1001500000002A5D365D425D4E5D5A5D2F5D3B5D60
:10016000475D535D5F5D315D3D5D495D555D615D41
:10017000345D405D4C5D585D645D2C5D385D445D73
:10018000505D5C5D2D5D395D455D515D5D5D335D4F
:100190003F5D4B5D575D635D325D3E5D4A5D565D23
:1001A000625D2E5D3A5D465D525D5E5D2B5D375D45
:1001B000435D4F5D5B5D295D355D415D4D5D595D25
:1001C000305D3C5D485D545D605D4F5C525C555CEC
:1001D000585C5B5C5E5C615C0000000000004E5C93
:1001E000515C545C575C5A5C5D5C605C00000000D4
:1001F00000004D5C505C535C565C595C5C5C5F5C21
:100200000000000000000000A849705C6D5C6A5CA2
:10021000675C645C0000000000000000725C6F5CC2
:100220006C5C695C665C635C0000000000000000C0
:10023000715C6E5C6B5C685C655C625C000000001D
:1002400000000100010001000100010001000100A7
:100250000100010001000100010001000100010096
:100260000100010001000100010001000100010086
:100270000100010001000100010001000100010076
:100280000100010001000100010001000100010066
:100290000100010001000100010001000100010056
:1002A0000100010001000100010001000100010046
:1002B00001000100010001000100505C535C565C2C
:1002C000595C5C5C5F5C625C0000000000004E5C9E
:1002D000515C545C575C5A5C5D5C605C00000000E3
:1002E00000004F5C4F5C525C555C585C5B5C5E5C34
:1002F00000000000000000000100715C6E5C6B5C9F
:10030000685C655C0000000000000000725C6F5CCF
:100310006C5C695C665C635C0000000000000000CF
:10032000705C6D5C6A5C675C645C615C0000000032
:1003300000002E5D2A5D365D425D4E5D335D2F5DB2
:100340003B5D475D535D295D315D3D5D495D555DBB
:100350002C5D345D405D4C5D585D305D2C5D385DDD
:10036000445D505D315D2D5D395D455D515D2B5DB9
:10037000335D3F5D4B5D575D2A5D325D3E5D4A5D9D
:10038000565D325D2E5D3A5D465D525D2F5D2B5DA3
:10039000375D435D4F5D2D5D295D355D415D4D5D93
:1003A000345D305D3C5D485D545D4F5C525C555C36
:1003B000585C5B5C5E5C615C0000000000004E5CB1
:1003C000515C545C575C5A5C5D5C605C00000000F2
:1003D00000004D5C505C535C565C595C5C5C5F5C3F
:1003E00000000000000000000100705C6D5C6A5CB1
:1003F000675C645C0000000000000000725C6F5CE1
:100400006C5C695C665C635C0000000000000000DE
:10041000715C6E5C6B5C685C655C625C000000003B
:100420000000BB5CBA5C000000002F5C485C4A5CCA
:100430004C5C4E5C505C000000000000305C325CA4
:10044000455C475C495C4B5C4D5C00002F5C315C5B
:10045000335C355C425C445C465C485C4A5C305CC6
:10046000325C345C365C385C3F5C415C435C455CD0
:10047000475C335C355C375C395C3B5C3C5C3E5CC8
:10048000405C425C445C365C385C3A5C3C5C3E5CA4
:10049000395C3B5C3D5C3F5C415C4F5C525C555C55
:1004A000585C5B5C5E5C615C0000000000004E5CC0
:1004B000515C545C575C5A5C5D5C605C0000000001
:1004C00000004D5C505C535C565C595C5C5C5F5C4E
:1004D0000000000000000000A849705C6D5C6A5CD0
:1004E000675C645C0000000000000000725C6F5CF0
:1004F0006C5C695C665C635C0000000000000000EE
:10050000715C6E5C6B5C685C655C625C000000004A
:100510000000305C315C325C335C345C465C475CD0
:10052000485C495C4A5C325C335C345C355C365C0C
:10053000445C455C465C475C485C345C355C365CDE
:10054000375C385C425C435C445C455C465C365CD2
:10055000375C385C395C3A5C405C415C425C435CD3
:10056000445C385C395C3A5C3B5C3C5C3E5C3F5CC8
:10057000405C415C425C3A5C3B5C3C5C3D5C3E5CAC
:100580003C5C3D5C3E5C3F5C405C485C4A5C4C5C77
:100590004E5C505C525C545C000000000000475C04
:1005A000495C4B5C4D5C4F5C515C535C000000004F
:1005B0000000475C485C4A5C4C5C4E5C505C525CA2
:1005C0000000000000000000A8495E5C5C5C5A5C12
:1005D000585C565C00000000000000005F5C5D5C41
:1005E0005B5C595C575C555C00000000000000003B
:1005F0005E5C5C5C5A5C585C565C545C00000000BD
:1006000000002E5D2A5D365D425D4E5D335D2F5DDF
:100610003B5D475D535D295D315D3D5D495D555DE8
:100620002C5D345D405D4C5D585D305D2C5D385D0A
:10063000445D505D315D2D5D395D455D515D2B5DE6
:10064000335D3F5D4B5D575D2A5D325D3E5D4A5DCA
:10065000565D325D2E5D3A5D465D525D2F5D2B5DD0
:10066000375D435D4F5D2D5D295D355D415D4D5DC0
:10067000345D305D3C5D485D545D705C6D5C6A5C12
:10068000675C645C615C5E5C000000000000715CA3
:100690006E5C6B5C685C655C625C5F5C00000000CB
:1006A0000000725C6F5C6C5C695C665C635C605CE7
:1006B0000000000000000000A8494F5C525C555C3F
:1006C000585C5B5C00000000000000004D5C505C6A
:1006D000535C565C595C5C5C00000000000000004C
:1006E0004E5C515C545C575C5A5C5D5C00000000E1
:1006F0000000165C2B003900E100E0002A004C00ED
:100700002800E5004F001E00140004001D00E30057
:10071000270013003300380051001F001A00160094
:100720001B00E200260012000F00370050002000DE
:10073000080007000600914825000C000E00360056
:10074000085121001500090019002C002400180090
:100750000D0010006500220017000A0005002C00A3
:1007600023001C000B00110090000100010001009B
:100770000100010001000100000000000000010074
:100780000100010001000100010001000000000063
:100790000000010001000100010001000100010052
:1007A0000000000000000000010001000100010045
:1007B0000100010000000000000000000100010035
:1007C0000100010001000100000000000000000025
:1007D0000100010001000100010001000000000013
:1007E0000000165C2B00E000E10039002A004C00FC
:1007F000280052724F001E00140004001D00E30088
:10080000270033001200380051001F001A001500A5
:100810001B00E20026001C000C00370050002000E6
:10082000090016000600914825001800080036004F
:10083000085121001300170019002C0024000F009C
:1008400011001000650022000A00070005002C00BE
:1008500023000D000B000E009000010001000100BC
:100860000100010001000100000000000000010083
:100870000100010001000100010001000000000072
:100880000000010001000100010001000100010061
:100890000000000000000000010001000100010054
:1008A0000100010000000000000000000100010044
:1008B0000100010001000100000000000000000034
:1008C0000100010001000100010001000000000022
:1008D0000000010001000100010001000100010011
:1008E0000100010001003A000000AA00BE00010062
:1008F00043002E003500300031003B000000A9000D
:10090000BD00010042002D004F002F0034003C00CC
:100910000000A8000000010041000000520000009B
:1009200001003D0000000000000001004000000048
:100930005100000001003E00000000000000010026
:100940003F00000050000000010001000100010014
:100950000100010001000100000000000000010092
:100960000100010001000100010001000000000081
:100970000000010001000100010001000100010070
:100980000000000000000000010001000100010063
:100990000100010000000000000000000100010053
:1009A0000100010001000100000000000000000043
:1009B0000100010001000100010001000000000031
:1009C0000000655D0652075200000000C35C000095
:1009D0006C5D00000000665D6B5D000000000000C3
:1009E00000000000000000000000675D0000000043
:1009F0000000000000000000000000000000685D32
:100A000000000000000000000000000000000000E6
:100A10000000695D00000000000000000000000010
:100A20000000000000006A5D0000000000000000FF
:100A300000000000000000000000775C785C795C3A
:100A40007A5C7B5C00000000000000000000655D37
:100A5000665D675D685D695D6A5D000000000000BD
:100A60000000000000006B5D0000000000000000BE
:100A700000000000000000000100DF5C000000003A
:100A8000000000000000000000000000C35C000047
:100A90009E5C9D5C00000000000000000000000063
:100AA0006F5D6E5D6D5D705D000000000000000018
:100AB0000000FFFFFFFFFFFFFFFFFFFFFFFFFFFF44
:100AC000FFFFFFFFFFFFFFFFFFFFFFFFFFFFFFFF36
:100AD000FFFFFFFFFFFFFFFFFFFFFFFFFFFFFFFF26
:100AE000FFFFFFFFFFFFFFFFFFFFFFFFFFFFFFFF16
:100AF000FFFFFFFFFFFFFFFF3C3D3E3F404142FF46
:100B0000FFFF48494A4B4C4D4EFFFFFFFFFFFFFFE1
:100B1000FFFFFFFFFFFFFFFF4746454443FFFFFF87
:100B2000FF54535251504FFFFFFF000C1824300B5D
:100B300017232F3B010D1925310A16222E3A020EDA
:100B40001A26320915212D39030F1B2733081420CB
:100B50002C3804101C283407131F2B3705111D29AE
:100B60003506121E2A3655565758595A5BFFFFFF55
:100B700062636465666768FFFFFFFF6F7071727381
:100B800074FFFFFFFF61605F5E5D5CFFFFFFFF6E54
:100B90006D6C6B6A69FFFFFFFF7A7978777675FF76
:100BA000FFFF3C3D3E3F4041424344454647615480
:100BB000535251504F4E4D4C4B4A49485556575839
:100BC000595A5B5C5D5E5F606E6D6C6B6A696867ED
:100BD00066656463626F7071727374757677787925
:100BE0007A0B0A090807060504030201000C0D0E22
:100BF0000F1011121314151617232221201F1E1D6A
:100C00001C1B1A19182425262728292A2B2C2D2E9F
:100C10002F3B3A3938373635343332313000010121
:100C200001010101010101020202020202020202AB
:100C3000030303030303030304040404040404057B
:100C4000050505050606060606070707070708083F
:100C50000808090909090A0A0A0B0B0B0C0C0C0DF0
:100C60000D0D0E0E0E0F0F0F101011111112121389
:100C7000131414151516161717181819191A1A1B04
:100C80001B1C1D1D1E1E1F20202122222324242563
:100C90002626272829292A2B2C2D2D2E2F3031329C
:100CA00032333435363738393A3B3C3D3E3F4041AC
:100CB00042434445464748494A4C4D4E4F50515394
:100CC00054555658595A5B5D5E5F6162646566684B
:100CD000696B6C6D6F7072737577787A7B7D7E80CF
:100CE00082838587888A8C8E8F91939596989A9C1B
:100CF0009EA0A2A3A5A7A9ABADAFB1B3B5B7BABC2F
:100D0000BEC0C2C4C6C9CBCDCFD1D4D6D8DBDDDFFF
:100D1000E2E4E7E9EBEEF0F3F5F8FAFDFF1603671E
:100D20000069006100620061006C0061006E00619A
:100D300000690000000E033300610072006100686A
:100D400000740000000403090409029F000401006C
:100D5000A0FA0904000001030101000921110100AA
:100D6000012240000705810308000A09040100016F
:100D70000300000009211101000122320007058251
:100D80000320000A080B020201010000090402000E
:100D90000001010000092401000109000103090408
:100DA00003000201030000072401000141000624A2
:100DB00002010100062402020200092403010301CA
:100DC00002010009240302040101010009050402D3
:100DD00040000500000525010101090583024000CE
:100DE00005000005250101031201100100000008A3
:100DF000EDFEB0F401000102000105010980A1012E
:100E0000850319012AB700150126B7009501751051
:100E10008100C0050C0901A101850419012AA00265
:100E2000150126A002950175108100C00501090673
:100E3000A101050719E029E71500250195087501AD
:100E400081029501750881010507190029FF150028
:100E500026FF0095067508810005081901290595EA
:100E60000575019102950175039101C011241FBE02
:100E7000CFEFDAE0DEBFCDBF04B603FE27C080911E
:100E8000570690915806A0915906B0915A0687309E
:100E9000904BA740B04BD1F41092570610925806D1
:100EA0001092590610925A0614BE84B7877F84BFE9
:100EB0000FB6F894A89580916000886180936000D7
:100EC000109260000FBEE0E0F8E3099511E0A0E0A9
:100ED000B1E0E6E0FAE602C005900D92A43DB1074C
:100EE000D9F726E0A4EDB1E001C01D92A735B20705
:100EF000E1F70E94392E0C9452340C9400000F93A9
:100F00001F93CF93DF938B01D82FC92F49E00E9405
:100F10004623682F80E00E94631548E0B8018D2FBA
:100F20009C2F0E944623682F81E00E946315B80120
:100F30008D2F9C2FDF91CF911F910F91089580915C
:100F4000D903807F82608093D9038091DA0380780F
:100F500085678093DA03EEE1F2E08FEF819392E010
:100F6000EA35F907D9F7E6EDF1E08FEF8193A2E0DA
:100F7000EE31FA07D9F70E9465266093A3037093B8
:100F8000A4038093A5039093A6030E94F90E8823DF
:100F900051F080911701882331F060E470E080E027
:100FA00090E00E94B9228CEA90E09093B002809386
:100FB000AF0240E060E080E00C94CD14CF93DF936B
:100FC00000D000D0CDB7DEB7E3EAF3E09081892FFF
:100FD0008E7F90FF816080838091A3039091A40312
:100FE000A091A503B091A60389839A83AB83BC83A8
:100FF000BC01CD010F900F900F900F90DF91CF911A
:101000000C94692680915C02882329F010925C027E
:1010100010925D02089581E080935C0282E08093EB
:101020005D0208951092A3031092A4031092A503E9
:101030001092A60360E070E0CB010E94692680E078
:101040000C947A0A0F93FC01862F642F422F202FD5
:101050000F3F51F09281992319F00F910C94941540
:1010600040E060E080E0F9CF0F910895EF92FF92A9
:101070000F931F93CF93DF93F82ECB01FA01D22F5A
:1010800001ED060FC091DA03CF77209100012223F2
:1010900019F0CF31F8F0CE5110E00A521E4FD801AE
:1010A0004C9122812223C1F04F3F69F40E94440FEA
:1010B000E82E4D2F480F2C2F6F2D8DE595E00E94C7
:1010C0000A29F801E082DF91CF911F910F91FF90E3
:1010D000EF900895C0E0E0CF4F3F39F04D0F2C2F37
:1010E0006F2D8DE595E00E941A298FEFD8018C9322
:1010F000EACFCF92DF92EF92FF920F931F93CF939D
:10110000DF93182FFA01C901D02E0091DA030F776F
:101110006952C62FD0E0C25EDD4FF88022812223C3
:1011200041F12FEFF2121CC00E94440FF82E4D2DFA
:10113000480F202F612F8DE595E00E940A294E2D42
:101140004F0D202F612F8DE595E00E940A294C2D2F
:101150004F0D202F612F8DE595E00E940A29F8821E
:10116000DF91CF911F910F91FF90EF90DF90CF9083
:1011700008958FEFF816C1F04D2D4F0D202F612FE0
:101180008DE595E00E941A294E2D4F0D202F612FDD
:101190008DE595E00E941A294C2D4F0D202F612FCF
:1011A0008DE595E00E941A298FEF8883D9CFCF92E1
:1011B000DF92EF92FF920F931F93CF93DF93DC01A7
:1011C000EB012981888190E03AE0239F800D911DF9
:1011D0001124FC01E65DF44FF490FC01EE54F54F50
:1011E0001491A1378DE5B80708F065C0A533EDE58A
:1011F000BE07A8F4A737FCE5BF0788F5AF322CE59A
:10120000B20708F000C1A83A39E4B30731F0F8F4A6
:10121000A83EB10578F4149780F00F2D0BC1FD01A5
:10122000E154FD45E033F10508F0C7C0EC5AFB4C32
:101230000C94FB33A139B84481F381E0DF91CF9165
:101240001F910F91FF90EF90DF90CF900895A830FD
:10125000F1E5BF0711F3A631BC45F9F2EECFCD01A0
:1012600089529D450C9748F7E0905D021091DA0392
:101270001F7787ED8A0F90E0FC01E25EFD4F6F0162
:1012800000818A81882309F47EC00F3F31F6CD01A9
:101290008E5E91090E94440F082F8091A303212F95
:1012A000402F6E2D80FF66C08DE595E00E940A29D3
:1012B000F6010083B2CFA235B24709F0BECFADCF61
:1012C0008A81882309F4B9CF80E00E947A0AB5CFD9
:1012D0008A81882309F4B1CF81E0F7CF8A818823FE
:1012E00009F4ABCF82E0F1CF8A81882309F4A5CF3E
:1012F00083E0EBCF8A81882309F49FCF84E0E5CF98
:101300008A81882309F499CF85E0DFCF8A818823F9
:1013100009F493CF0E94DE0790CF8A81882309F4D5
:101320008CCF0E94020889CF8A81882309F485CF57
:1013300081E080935A0210925B027FCF8A818823DA
:1013400009F47BCF10925A02F6CF8A81882309F4E0
:1013500074CF10925A0281E080935B026ECF8A8133
:10136000882309F46ACF8091000191E08927809356
:10137000000163CF8DE595E00E940A29212F4CE002
:10138000400F6E2D91CF0F3F59F08091A303212F75
:10139000402F6E2D80FF08C08DE595E00E941A2930
:1013A0008FEFF601808339CF8DE595E00E941A29F1
:1013B0004CE0400F212F6E2DEFCF9D012E5E3109A5
:1013C00077E0C72EE4E0EE2E00E0AE01BD01809193
:1013D0005C020E94790821CF9D012A5F310967E0F4
:1013E000C62E53E0E52EF0CF9D01265031409AE005
:1013F000C92E47E0E42E04E0E8CF9D0122513140A0
:1014000086E0C82EEECF80915B022CE0811105C0F2
:1014100080915A02882331F024EFAE01BD0180E0B3
:101420000E9436080F2D2AED4AED6EE1CE010E9492
:101430002208012F2AED4AED6EE1CE010E9422081A
:10144000FCCE813031F489EA611101C08AEA0C9442
:10145000E11C089581E008950C94D70808950C9438
:101460002E0A1F93CF93DF9300D000D00F92CDB7F9
:10147000DEB749835A836B833091FE0289819A815A
:1014800031111DC06623B9F02223A9F00E94E9247E
:10149000182F682F89819A810E94922469817A810C
:1014A000812F0F900F900F900F900F90DF91CF91A1
:1014B0001F910C94100B0E94C024182FEFCF0E9494
:1014C000E92469817A81EDCFFC01262F4081518189
:1014D0006281738184810C94310ACF93DF93D82F7A
:1014E000C92F60E00E94640A6D2F7C2FDF91CF919D
:1014F0000C942F0ACF93DF9300D000D0CDB7DEB786
:1015000021E030E002C0220F331F8A95E2F73A83D0
:10151000298389810E943F26A981BA81CD01B0E04B
:10152000A0E089839A83AB83BC83BC01CD010F907B
:101530000F900F900F90DF91CF910C94B9220E94E1
:101540002C26811102C00E94D4260C94EC0C0C9421
:10155000EF0C08950E94A61F0E94A90A2FEF84E3B2
:101560009CE0215080409040E1F700C000000C94C6
:1015700082280F931F93CF93DF93EC0161E00E94C9
:10158000640A8C01BE010E942C0A882389F1BE01E5
:10159000C8010E94530F882359F1BE01C8010E945F
:1015A000BC17882329F1BE01C8010E9411188823A5
:1015B000F9F0BE01C8010E94E4188823C9F0BE01F9
:1015C000C8010E94B715882399F08A81882339F0D1
:1015D00001158CE5180751F00F3D1C4579F0CE013F
:1015E000DF91CF911F910F910C942A0A0E94AA0AB1
:1015F00080E0DF91CF911F910F9108950E94D42632
:10160000F7CF08950C94010B81E008950C94040B1E
:10161000CF93C82F0E94020B8C2FCF910C94060BF6
:10162000972F70E02AE0929F600D711D1124FB013D
:1016300098E7899FE00DF11D1124EE0FFF1FEE5A70
:10164000FE4F859194910895CF93DF930E94100BE4
:101650000E94100CEC01811522E5920708F053C09E
:10166000811531E5930708F0AEC08F3B9105B8F4C2
:10167000883A910508F099C0853A910568F4049775
:1016800038F491E080E0219709F090E0C92FD82F3D
:10169000CE01DF91CF910895A497D064F9CF811541
:1016A00040E59407A0F4C11580E4D80708F088C08D
:1016B000C83ED10530F4C03ED10550F7D0E0C0E0BF
:1016C000E7CFCE019A9581159F4110F3F7CFF4E053
:1016D00096958795FA95E1F783702C2F2695269598
:1016E000237040E2249F90011124382B8C2F8370AB
:1016F000C1E0D0E002C0CC0FDD1F8A95E2F7C22B1B
:10170000D32BDC68C5CFC11586E5D80730F5C115E8
:1017100095E5D90708F06BC0C11524E5D207C0F4E0
:101720009C2F969596959E0123703327C115D3451E
:1017300008F04EC0C1E0D0E002C0CC0FDD1F2A95FA
:10174000E2F720E2929FC0011124C82BD92BD9CFF8
:10175000DC2FCC27C46FD06A9BCFC1153AE5D307E5
:1017600088F4C11549E5D40708F04CC0CE0198555E
:101770008F3F910511F008F0A1CFDC2FCC27C06F6F
:10178000D06A86CFCE0190568115904208F096CF50
:101790008D2F8F710E94A80C90E0982F88278827A2
:1017A0009F719C012C2BE9012BC0C85AD0E0CC0FB3
:1017B000DD1FC45BDE4F0990D881C02DD46468CF93
:1017C000DF70D06A65CFD82FCC27C16FD06A60CFC9
:1017D000C1E0D0E002C0CC0FDD1F2A95E2F730E275
:1017E000939FC0011124C82BD92BDA6851CF8C2FBD
:1017F0000E94A80CC82FD0E0DC2FCC27CC27DF71AB
:10180000D06246CF8C2F8F700E94A80C34E0D69502
:10181000C7953A95E1F7CF70DC2FC82FD06938CF44
:10182000803E910599F1C8F48133910509F476C0A1
:1018300048F48932910509F46AC08A32910509F4A5
:1018400074C0089589339105D1F082389105B9F0BB
:101850008533910509F454C00895843E910599F1AA
:1018600038F4823E9105F9F0833E910509F108951F
:10187000863E910599F1873E9105B9F10895209131
:101880005B052370A1F080EE90E0089520915B0548
:1018900020FD52C030915C0530FF09C024FF4FC0CD
:1018A00090E080E004C020915B0522FDF7CF089511
:1018B00020915B0522FD46C030915C0530FDE3CFF1
:1018C00024FFF5CFEDCF20915C0521FFF0CF809173
:1018D0005B0584FDE5CF87EE90E0089520915B05E0
:1018E00023FFE5CF24FDDCCFF6CF20915B0523FD60
:1018F0002CC030915C0531FFE3CF84EE90E0089579
:1019000020915B0525FFD3CF89E290E008952091D7
:101910005B0525FFCCCF85E390E0089520915B0522
:1019200026FFC5CF8AE290E0089520915B0526FF4F
:10193000BECF81E390E0089589E390E0089583EEBF
:1019400090E0089582EE90E0089586EE90E008958C
:1019500090915B0592FF06C0282F28712830F9F47A
:10196000877F846093FF06C0282F28712831F1F407
:10197000877E846120915C0520FF06C0382F387176
:101980003830D9F4877F816021FF06C0282F287165
:101990002831D1F4877E816194FD877E0895282FB8
:1019A00024712430F9F68B7F8860DCCF282F2471D6
:1019B000243101F78B7E8861DDCF382F31713130D2
:1019C00019F78E7F8860E0CF282F2171213121F710
:1019D0008E7E8861E1CF08950C94EB0C08950C94F1
:1019E000EE0CE82FF0E0EE0FFF1FE154FC4F80817A
:1019F00091810895089580EA8A95F1F7089500C0CD
:101A000008950C94FB0CF894E82FE295EF70F0E049
:101A100041A18F7021E030E0B90102C0660F771F4D
:101A20008A95E2F7CB01962F9095942391A392A1EA
:101A3000892B82A37894089508950F931F93CF93D1
:101A4000DF93CDB7DEB766970FB6F894DEBF0FBE53
:101A5000CDBF0E94160F80911701811131C087E020
:101A6000E0E4F1E0DE01119601900D928A95E1F734
:101A7000FE01389685E0DF011D928A95E9F7CE01D7
:101A80000196EBE0F1E09E01235F3F4FDC014D91B9
:101A9000CD014193A217B307C9F72AE0EAE7F1E0C5
:101AA000DE011D9601900D922A95E1F7FC01A1E05F
:101AB000B1E0CE01479621912D93E817F907D9F7A8
:101AC0008091170196E0811190E09093D80386E011
:101AD000891B8093D7030BE011E0F80181918F01FE
:101AE0000E94030DF1E001311F07B9F701E011E099
:101AF000D8018D918D010E94030DB1E00B301B07C1
:101B0000B9F7E7EAF3E0AFEBB3E0119211921D925F
:101B10001D9283E0EF3BF807C1F786E00E94BD0EFF
:101B20000E949F0A66960FB6F894DEBF0FBECDBF27
:101B3000DF91CF911F910F910C94200FCF92DF92E4
:101B4000FF920F931F93CF93DF93CDB7DEB72C9700
:101B50000FB6F894DEBF0FBECDBF0E94F90EF82E6F
:101B60006091D803882309F463C08E010F5F1F4F73
:101B70008CE0F80111928A95E9F7862F90E0880FA2
:101B8000991FB80181549C4F0E941A1981112AC0D3
:101B900080915E028F5F80935E02863008F446C0BB
:101BA000E091D703F0E0EE0FFF1FE154FC4FD801A6
:101BB000CE010D96119211921D921D92A817B90790
:101BC000C9F70E94A70A8F2D2C960FB6F894DEBF96
:101BD0000FBECDBFDF91CF911F910F91FF90DF908E
:101BE000CF90089510925E02E091D703F0E0EE0FDF
:101BF000FF1F9F0121543C4F6901D801AE01435F93
:101C00005F4FF12CF601619171916F012D913D9122
:101C10006217730739F0BF0162507109FB0131830C
:101C20002083F82EA417B50769F7CBCFF12CC9CFC5
:101C300070E0660F771F61547C4F8091D70390E06E
:101C4000880F991F81549C4F0E9456190E941C0DA9
:101C5000BACF8F929F92AF92BF92CF92DF92EF92C4
:101C6000FF920F931F93CF930BE011E097EAE92EB9
:101C700093E0F92E21E1A22E21E0B22EC0E0CC2487
:101C8000C394D12CF80181918F01F894E82FE2954B
:101C9000EF70F0E021A18F70A60102C0440F551F24
:101CA0008A95E2F7CA01922F982B91A392A1809571
:101CB000892382A378940E94FF0CE1E0F1E030E0F8
:101CC00020E0912C812C4191A42FA295AF70B0E01F
:101CD00090968C9190E04F7002C0959587954A95AB
:101CE000E2F780FD45C0C601022E02C0880F991F91
:101CF0000A94E2F7882A992A2F5F3F4F2A3031054C
:101D000011F7F801319780810E94030D0E94010DA7
:101D1000F701808191818816990669F1918280820C
:101D200081E0C82BF2E0EF0EF11CA016B10609F01D
:101D3000A9CF6091D80370E0660F771F61547C4F84
:101D40002C2F46E087EA93E00E94BE0E0E949E0D73
:101D5000C11101C0C82F8C2FCF911F910F91FF90FF
:101D6000EF90DF90CF90BF90AF909F908F900895AD
:101D700090E080E0BFCF80E0D4CF0895FF920F9332
:101D80001F93CF93DF93F82E092F162FD72FC42F31
:101D9000222349F081E0809361020E94C027909342
:101DA000600280935F02809161028823A1F080919C
:101DB0005F02909160020E94EC27069760F0EF2D81
:101DC000F02FA12FBD2F90E080E0D0E08C179D0771
:101DD00044F010926102DF91CF911F910F91FF901B
:101DE0000895219131912D933D930196EFCF0C945D
:101DF000D62680916202811110C08091D800806146
:101E00008093D8008AE18A95F1F700C08091D900CB
:101E100080FD0AC082E08093620281E090916202BC
:101E2000913009F080E0089581E0F5CF0E94F70E2F
:101E3000809317010E94F90E81110C940E190895D8
:101E40000E94F90E811102C00C941419089584E0C7
:101E50008093D9038FE78093DA038091DB03807846
:101E600080648093DB03E7E6F2E08FEF819392E0FA
:101E7000EF3AF907D9F710926602109265021092B4
:101E800064021092630208959091D903292F2F7054
:101E900095959595959595959F523CE0239F900D2E
:101EA0001124890F08950F931F93CF93DF9300D0D0
:101EB0000F92CDB7DEB7DB0187372CE59207B0F480
:101EC0008F324CE59407D8F481E08A838A810F90A1
:101ED0000F900F90DF91CF911F910F910895EC57C4
:101EE000FB4C12962C912A830C94FB33FC01E75790
:101EF000FC45E534F10598F341E04A83E7CF2091B2
:101F0000DA03322F331F3327331FE091DB03E770EF
:101F1000EE0FE32BEB832F7729831296FC91FA8344
:101F200001ED080F10E009591D4FF8014081FA81B9
:101F3000FF2391F04F3F11F01A82C8CF0E94440F47
:101F40008A832981482F6B818DE595E00E940A29BB
:101F50002A81F8012083F0CF4F3F31F029816B8136
:101F60008DE595E00E941A298FEFF8018083AECFAE
:101F70002A81222309F38757982F9F708091D903D4
:101F8000807F892B8093D903D7CF4A814423A1F244
:101F90008091D903982F9F7079F2915F9F70F0CF55
:101FA0008A81882349F28091D903982F9F709930B4
:101FB00018F69F5FF3CF2A81222309F4BDCF8958F9
:101FC000982F9295907F8091D9038F70DACF4A81B4
:101FD000442309F4B1CF8091D903982F9595959515
:101FE00095959595803B0CF4A7CF915F9295907F46
:101FF000ECCF8A81882309F49FCF8091D903282FC1
:10200000259525952595259580360CF095CF91E061
:10201000920F9295907F9595959595959595392FD9
:102020003295307F8F70832B8093D90312160CF07A
:1020300083CF97FF81CF2295207F8F70822BA2CFF5
:102040002A81222309F478CF82599CE0899F902D20
:1020500011249F778091DA03807815C04A81442348
:1020600009F46ACF8091DA03982F9F7709F464CF3F
:1020700080789F3721F485678093DA035DCF9D30A8
:10208000D8F39D509F77892BF7CF8A81882309F455
:1020900053CF8091DA03982F9F779F3709F44CCF65
:1020A000933718F4935F9F77D7CF8F67E5CF2A8157
:1020B000222309F441CF8F599091DA0380FB97F9DD
:1020C0009093DA03869587709091DB03987F892B34
:1020D000B3C04A81442309F42FCF2091DA03322F71
:1020E000331F3327331F9091DB03892F8770880FAD
:1020F000832B815F382F3F7080FB27F92093DA0311
:10210000832F8695987F982B9093DB0315CF8A8138
:10211000882309F411CF2091DA03322F331F33279C
:10212000331F9091DB03892F8770880F832B8F5F7C
:10213000E1CF2A81222309F4FFCE6091DA03862FB2
:10214000881F8827881F6091DB036770660F682BE4
:1021500020E04BE78DE595E00E94FA28EDCE4A811C
:1021600020E041112FE76091DA03862F881F88272E
:10217000881F6091DB036770660F682B40E4EACF2D
:102180008A8120E081112FE76091DA03862F881F72
:102190008827881F6091DB036770660F682B41E416
:1021A000D9CF2A8121112FE76091DA03862F881F6A
:1021B0008827881F6091DB036770660F682B42E4F5
:1021C000C9CF4A81411111C020E06091DA03862F06
:1021D000881F8827881F6091DB036770660F682B54
:1021E00043E4B8CF8A81882379F32FE7EECF2A81A1
:1021F0008FEF211181E0809365029ECE4A814423B6
:1022000009F49ACE9091DB03292F269526952695E1
:102210002F7081E0820F8F70880F880F880F97785A
:10222000892B8093DB03982F987709F085CE220FB6
:10223000220F220F8778822B8093DB037DCE8A8149
:10224000882309F479CE8091DB03982F987709F4DD
:1022500073CE982F969596959695915F9F70990F4E
:10226000990F990F877833CF6091DA03862F881FF3
:102270008827881F6091DB036770660F682BEA81EF
:1022800040E050EEE11117C050E040E08DE595E0F0
:102290000E942A291BCE6091DA03862F881F882787
:1022A000881F6091DB036770660F682BFA81FF233C
:1022B00059F34FEF5FE18DE595E00E942A293CCE6E
:1022C0008DE595E00E94292B809163029091640234
:1022D0000E94EC279C019091DB039695969596952C
:1022E0009F709217130609F0A0F50E94C0279093E3
:1022F00064028093630280916502882351F16091AA
:10230000DA03862F881F8827881F6091DB03677098
:10231000660F682B2091660241E08DE595E00E94F2
:10232000FA28809165029091660287FF0DC0482FC0
:10233000552741950CF45095941715062CF41092DE
:102340006602109265020895890F87FD03C080938D
:10235000660208958FE7FBCFCF92DF92EF92FF9254
:102360000F931F93CF93DF93D62FC72F982F711101
:1023700013C0442329F0E82FF0E0E35EF34F94917B
:10238000692F792F892FDF91CF911F910F91FF90A6
:10239000EF90DF90CF900895272F30E0E82FF0E006
:1023A000442321F0E35EF34FE491F0E086E0D89F10
:1023B000700111240FEF10E0C701B8010E94D33360
:1023C0008D2F90E0880F991FA5E5A69FA001A79FDC
:1023D000500D1124841B950BD82EDD0CD80EC8018E
:1023E000821B930B8E9FA0018F9F500D9E9F500DBF
:1023F0001124952FDC9EE0011124CD2FDD27D8017B
:10240000AC1BBD0BED01CE9FD001CF9FB00DDE9F69
:10241000B00D11248B2FE801CD19D1096E01C29E98
:10242000E001C39ED00DD29ED00D1124CD2FDD270B
:102430000C1B1D0B0E9FE0010F9FD00D1E9FD00D9A
:1024400011242E2F63307105D9F03CEFE31633E0F1
:10245000F30668F461307105B9F062307105C1F0BE
:10246000AFEFEA16F10448F4852F9D2F06C06430C3
:10247000710589F066307105B9F3692F722F83CF2A
:102480009B2F8E2F252FF9CF9E2F2B2F852FF5CF0A
:102490008D2F9E2FF7CF8E2F2D2FEFCF41E00C9455
:1024A000AC110C944E12CF93DF93982F762F842F7C
:1024B000E901692F0E945112798368838A83DF9131
:1024C000CF910895453608F044E60C94531280915C
:1024D000DD03982F9E7F71F48091DD03817082600F
:1024E0008093DD038091E003853618F084E68093C5
:1024F000E0030895843080F7F5CF88E090E00C94F5
:1025000012340F931F93CF93DF938B01D82FC92FD2
:102510000E946712A8016D2F7C2F88E090E0DF9168
:10252000CF911F910F910C943034CF93DF9300D053
:1025300000D0CDB7DEB7EDEDF3E083E0808311820C
:102540008FEF828384E68383148280819181A281CC
:10255000B38189839A83AB83BC83BC01CD010F9087
:102560000F900F900F90DF91CF910C948112CF9329
:10257000DF9300D000D0CDB7DEB79091E103933068
:1025800018F49F5F9093E1038823B1F08091DD03FD
:102590009091DE03A091DF03B091E00389839A83D9
:1025A000AB83BC83BC01CD010F900F900F900F90B7
:1025B000DF91CF910C9481120F900F900F900F909C
:1025C000DF91CF91089581E00C94B712CF93DF9300
:1025D00000D000D0CDB7DEB79091E103992319F078
:1025E00091509093E1038823B1F08091DD039091A5
:1025F000DE03A091DF03B091E00389839A83AB836C
:10260000BC83BC01CD010F900F900F900F90DF9114
:10261000CF910C9481120F900F900F900F90DF913B
:10262000CF91089581E00C94E61221E030E001C0E2
:10263000220F8A95EAF79091B402922381E009F47F
:1026400080E0089570E00C940E166F927F928F9246
:102650009F92AF92BF92CF92DF92EF92FF920F9331
:102660001F93CF93DF93CDB7DEB7C157D1400FB6DD
:10267000F894DEBF0FBECDBF709019019091DD03BD
:1026800090FF47C0C090AF02D090B002C114D104F7
:1026900009F052C0E2EAFBE09E012F5F3F4FBE010E
:1026A0006E587E4FC901A4914A2F50E0DA01AA0F5B
:1026B000BB1FA40FB51FAE51BC4FCD90DD90EC9069
:1026C000D901CD92DD92ED929D0131966A177B077B
:1026D00051F720911801672DB3E02B9F800D911DBC
:1026E00011240E942213CF58DE4F0FB6F894DEBF9C
:1026F0000FBECDBFDF91CF911F910F91FF90EF9053
:10270000DF90CF90BF90AF909F908F907F906F9011
:10271000089580911A0120911B0133E0839FF001FD
:102720001124EE51FC4F821708F0ACCF11821082B9
:1027300012828F5F3396F7CF90FFACCFF12CE12C54
:1027400043E0642E8E2D0E941513882309F43CC0AB
:10275000F701EE0FFF1FEC0DFD1DA590B490A11425
:10276000B10409F497CF45E050E0B501CE010196E0
:102770000E94013409810F3F39F18A81800F992726
:10278000991F8C37910514F08BE790E04C01880C71
:10279000991C880D991DDC01AE51BC4F4D01069D61
:1027A000800111240E511C4F0815190520F0B5E0C9
:1027B000AB0EB11CD8CF98014D816C818B810E94EA
:1027C00062120D5F1F4FF0CF2FEFE21AF20A38E0CE
:1027D000E316F10409F0B6CF5DCFCF93DF9300D0BD
:1027E00000D0CDB7DEB7EDEDF3E080818E7F808342
:1027F00080819181A281B38189839A83AB83BC83D9
:10280000BC01CD010E9481129FEFA0E7B2E0915080
:10281000A040B040E1F700C000000F900F900F9073
:102820000F90DF91CF910C9425139091DD0390FFD1
:1028300014C090911A0120911B0133E0939FF00185
:102840001124EE51FC4F921710F00C942513818344
:10285000608342839F5F3396F6CF0895EF92FF9295
:102860000F931F93CF93DF9300D000D000D00F922F
:10287000CDB7DEB7F82E062F142FE22E9091DD0390
:1028800090FF2AC0E92FE695F0E0EB57FE4F8081DC
:102890008093B2029E7F923059F49E012F5F3F4F8A
:1028A0008F2D0E9462124B8169818A810E941514CA
:1028B000F092DE030093DF031093E003EE2061F05B
:1028C0008091DD039091DE03A091DF03B091E003DE
:1028D000BC01CD010E94811227960FB6F894DEBF8D
:1028E0000FBECDBFDF91CF911F910F91FF90EF9061
:1028F0000895282FEDEDF3E0818143816281885FA7
:102900000C942E1481E00C947914282FEDEDF3E053
:1029100081814381628188500C942E1481E00C9453
:102920008514282FEDEDF3E0628131E1630F08F4A7
:102930006FEF438181810C942E1481E00C949114EB
:10294000282FEDEDF3E0628131E1631B08F460E0D4
:10295000438181810C942E1481E00C94A014282FC3
:10296000EDEDF3E0438131E1430F08F44FEF628175
:1029700081810C942E1481E00C94AF14282FEDED7E
:10298000F3E0438131E1431B08F440E0628181813F
:102990000C942E1481E00C94BE1421E00C942E149F
:1029A00020E00C942E14CF93DF9300D000D0CDB74D
:1029B000DEB78091DD0380FF24C081708260809348
:1029C000DD03662381F08091DD039091DE03A09109
:1029D000DF03B091E00389839A83AB83BC83BC019E
:1029E000CD010E9481124091E0036091DF0380914C
:1029F000DE030F900F900F900F90DF91CF910C940A
:102A0000D0140F900F900F900F90DF91CF910895F9
:102A1000682F81E00C94D31481E00C940815682F82
:102A20009091DD0396958FEF890F913009F481E045
:102A30000C94D31481E00C940F1561E00C94D31422
:102A4000EDEDF3E080818160808386950C941D1507
:102A50008091DD0380FD0C94ED130C94201560E053
:102A60000C94D3148091B10281112CC00E942C26A9
:102A7000811104C00E94D4260E9495120E947D12EA
:102A80006093DD037093DE038093DF039093E00394
:102A90006E7F61F40E9495120E947D126093DD03A7
:102AA0007093DE038093DF039093E0030E9467122C
:102AB0008091DD0380FF03C086950E942F1581E081
:102AC0008093B102089521E030E0A90102C0440FD3
:102AD000551F8A95E2F7CA012091B402662361F07E
:102AE000822B8093B4028091B302811108C080913F
:102AF000DD0386950C942F1580958223F2CF0895DF
:102B00009091DD0390FF0FC02B3768F430E0F9019E
:102B1000EE0FFF1FE20FF31FEE51FC4F8183608326
:102B200042830C94251308951F93CF93DF9300D015
:102B30000F92CDB7DEB7122F9091DD0390FF0BC03F
:102B40009E012F5F3F4F0E946212212F4B816981AE
:102B50008A810E9480150F900F900F90DF91CF9186
:102B60001F910895FA0181110994FB01FDCF1F9374
:102B7000CF93DF93EC01FB011281111110C00E9471
:102B800086258272FE01E35CFC45E431F10508F024
:102B900043C0E753FB4C0C94FB330E942815812F54
:102BA000DF91CF911F9108954AE155E16CE075E105
:102BB0000E94B215F4CF4CE055E16AE175E1F8CF1F
:102BC0004EE854E162E874E1F3CF42E854E16EE884
:102BD00074E1EECF4CEA54E16DE974E1E9CF4DE9DF
:102BE00054E16CEA74E1E4CF4AEC54E16BEB74E13C
:102BF000DFCF4BEB54E16AEC74E1DACF42E153E111
:102C000063EE72E1D5CF43EE52E162E173E1D0CFE2
:102C100081E00E941D15C3CF11E0C1CF9C01AB0123
:102C2000539A6BB1677F7BB17860EFB7F894CA01B4
:102C3000880F991F840F951F820F931F8217930788
:102C400041F4EFBF8FE594E00197F1F700C0000079
:102C50000895D9014D919D0158E07BB9000000C055
:102C600047FF6BB9440F000000C000C000C06BB943
:102C700000C05A9591F7E2CF0C94210A8091170178
:102C8000811106C084E380931E0186E380931D01B9
:102C900020911E01A22FA295AF70B0E091963C91B9
:102CA00091972F7081E090E0BC01022E01C0660F69
:102CB0000A94EAF7462F4095432391964C939197B7
:102CC00092963C919297362B92963C939297409194
:102CD0001D01E42FE295EF70F0E031A14F70042E5A
:102CE00001C0880F0A94EAF7982F9095932391A337
:102CF00092A1892B82A390968C9190E002C0959529
:102D000087952A95E2F7817020A130E002C03595C1
:102D100027954A95E2F792E020FF90E0892B809377
:102D2000BA029091170181E098279093B602891B0F
:102D30008093B5020895CF93E091BA02EE0FEE0FA3
:102D400020911E01A22FA295AF70B0E090968C91B9
:102D500090E02F7002C0959587952A95E2F78170D3
:102D6000992740911D01A42FA295AF70B0E09096D5
:102D70002C9130E04F7002C0359527954A95E2F7C7
:102D8000A9014170552720FF02C042E050E0842B8A
:102D9000E82BE093BA02C091B602EF70F0E0E95779
:102DA000FE4F80819091B902890F8093B90220E093
:102DB000843074F0EC2F0C2E000CFF0BE954FD4F07
:102DC00080818F5F808360E08C2F0E943C1621E021
:102DD0008091B9028D3F74F4EC2F0C2E000CFF0B88
:102DE000E954FD4F80818150808361E08C2F0E94E7
:102DF0003C1621E08091B902082E000C990B64E08A
:102E000070E00E94E7338093B902822FCF9108953A
:102E1000E091B602F0E0E954FD4F2081FC012083EF
:102E20000895FF920F931F93CF93DF93D091B50234
:102E30000D2F10E009541D4FFC01C081F801808165
:102E4000C81BFC2E80E01F147CF09C2FC7FD90E077
:102E5000C91BC11114C08823E9F0DF91CF911F91E4
:102E60000F91FF900C94371BFA94F80180818F5FCB
:102E7000808360E08D2F0E943C1681E0E4CFCF5F1D
:102E8000F80180818150808361E08D2F0E943C1683
:102E900081E0DFCFDF91CF911F910F91FF900895D7
:102EA0000F931F93CF93DF93C42FD22FFC01828106
:102EB0008823C9F04093BD020E94C0279093BC02B2
:102EC0008093BB0280E28C0F883008F050C0C7703E
:102ED00081E001C0880FCA95EAF7DF91CF911F9179
:102EE0000F910C94E91C1091BD02141335C0809110
:102EF000BB029091BC020E94EC27883C910560F5D2
:102F0000C0E2CD0F1D17B9F080E2810F883040F488
:102F1000177081E001C0880F1A95EAF70E94F01C33
:102F2000C83048F481E09D2F977001C0880F9A95B2
:102F3000EAF70E94E91C802F0E94E11CC830B8F417
:102F4000D77081E001C0880FDA95EAF7DF91CF9161
:102F50001F910F910C94F01C80E28C0F883038F494
:102F6000C77081E001C0880FCA95EAF7EFCFDF9103
:102F7000CF911F910F9108950F939C01CB01243F96
:102F80004CE53407A1F190F4293DFCE53F0749F1F8
:102F90002A3D4CE53407E9F1283D3C45C1F0FC01F0
:102FA00082818823E1F11092BD0219C0263FFCE521
:102FB0003F0719F1273F4CE5340729F1253F3C45F0
:102FC00071F707E225EE44EE65EF7CE505C006E209
:102FD00021EE41EE68ED7CE50E94501780E00F91F4
:102FE000089507E225EE45EE69ED7CE5F5CF06E2B2
:102FF00021EE40EE64EF7CE5EFCF06E221EE42EEFB
:1030000066EF7CE5E9CF07E225EE46EE67EF7CE56B
:10301000E3CF08E221E045EE6AED7CE5DDCF81E01B
:10302000DECFCF93DF93EC01FB018281882309F48B
:10303000C9C0C631FCE5DF07E0F4C2309CE5D90722
:10304000F0F00E94442690935C0580935B05C631A6
:10305000ECE5DE0720F5C230FCE5DF0798F480914F
:103060005B0590915C050E9452260E94A61F80E09D
:1030700006C09E012B5F3C452930310510F3DF91DE
:10308000CF910895FE01E350FC4580915B0581607E
:10309000E331F10588F4E352FB4C0C94FB33CB5F36
:1030A000DC45C930D105D8F6C051DB4CFE010C948B
:1030B000FB3380915B05826080935B05D0CF80916C
:1030C0005B058460F9CF80915B058860F5CF8091C6
:1030D0005C05816080935C05C2CF80915C05826055
:1030E000F9CF80915B058061E7CF80915B058062BD
:1030F000E3CF80915B058064DFCF0E94A61F8091A3
:103100005B058068D9CF80915B058C60D5CF8091BD
:103110005C058360DFCF80915B058E7FCDCF809192
:103120005B058D7FC9CF80915B058B7FC5CF80917B
:103130005B05877FC1CF80915C058E7FCBCF80916F
:103140005C058D7FC7CF80915B058F7EB5CF809169
:103150005B058F7DB1CF80915B058F7BADCF0E94EA
:10316000A61F80915B058F77A7CF80915B05837F3A
:10317000A3CF80915C058C7FADCF80915B0582FBF6
:10318000992790F921E0922790FB82F990FB83F92F
:1031900093CF80915C05982F909591708E7F892BAD
:1031A00090FB81F997CF0E94A61F90915B05892F14
:1031B00097FB87F9805880CF81E00E94E0264FCFAF
:1031C00080E0FBCF81E05BCFCF93DF93EB018631D3
:1031D0009C4511F50E9486259A81992399F08A7A57
:1031E00091E009F490E09093BE02811109C089E258
:1031F0000E9461250E94C72580E0DF91CF9108954C
:1032000085E3F6CF8091BE02811104C089E20E945D
:103210006825F0CF85E3FBCF81E0EFCF61E070E080
:103220008FE191E00C94EE1961E070E08FE191E0A4
:103230000C94F519CF93DF9300D000D00F92CDB747
:10324000DEB76D8379830E948F1A9C0180E021157F
:10325000310521F5ED81F981D901AA0FBB1FAC53CE
:10326000BD4F8D919C91819391932F5F3F4F26305D
:10327000310591F780ED92E00E9411170E945128CC
:10328000DC01CB010296A11DB11D8093C002909379
:10329000C102A093C202B093C30281E00F900F90CD
:1032A0000F900F900F90DF91CF910895CF93DF9300
:1032B00000D000D000D0CDB7DEB76E837D83809183
:1032C000C0029091C102A091C202B091C302898351
:1032D0009A83AB83BC83BC01CD010E942828EE8178
:1032E000FD8190E080E021913191DC01AA0FBB1FAC
:1032F000AC53BD4F11963C932E93019686309105A9
:1033000091F780ED92E026960FB6F894DEBF0FBEDF
:10331000CDBFDF91CF910C9408178EE14A9B02C07C
:103320008150E1F74A9BFECF08955A9880E28A9532
:10333000F1F75A9A0895FC013BE03A95F1F798E0CD
:1033400020E080E031E040E14A95F1F7880F4A9BA8
:1033500002C08160232742E04A95F1F7000040E176
:103360004A95F1F7915079F790E19A95F1F799B173
:1033700032E03A95F1F7000040E14A95F1F792FB0F
:10338000992790F992272081920F90830895EF92C8
:10339000FF920F931F93CF93DF930F92CDB7DEB7BA
:1033A00019828C017C01E60EF11C0E151F0561F4DB
:1033B00081E09981911180E00F90DF91CF911F9171
:1033C0000F91FF90EF9008950E948D19CE01019604
:1033D0000E949B19F80181938F01E7CF9093D2024D
:1033E0008093D102529A5A9A08959093D202809370
:1033F000D10252985A9AEA9AE9E6F0E080818F7CED
:10340000808308956150770B91E001C0990F6A9510
:10341000EAF720E031E0911108C0222391F05A9A96
:1034200080E28A95F1F75A980895492F482339F098
:103430005A9A232740E24A95F1F79695ECCF5A988D
:10344000F9CF5A98EDCFFF920F931F93CF93DF934D
:10345000EC018C01060F111DC017D10731F4DF916B
:10346000CF911F910F91FF900895F9900E949519A7
:1034700068E08F2D0E94021AEFCF1F920F920FB6B5
:103480000F9211242F933F934F935F936F937F93EA
:103490008F939F93AF93BF93CF93DF93EF93FF935C
:1034A0005A98529AC091D102D091D2026D8166236E
:1034B00021F08E819F810E94231A0E94951980E13C
:1034C0008A95F1F75A9852985A9A80E18A95F1F7BD
:1034D0006A81662309F18B819C810E94C719E8816A
:1034E000F981882311F088E001C082E080830E9486
:1034F0008D19FF91EF91DF91CF91BF91AF919F9186
:103500008F917F916F915F914F913F912F910F908C
:103510000FBE0F901F901895E881F981E4CFCF93EB
:10352000DF93C091D102D091D202F894529A5A9866
:1035300085E08A95F1F7000052985A9A80E28A95C0
:10354000F1F74A9B0CC0529A5A9AE881F98181E0BE
:103550008083789481E090E0DF91CF9108956D8130
:10356000662381F08E819F810E94C71981110AC054
:10357000529A5A9AE881F98182E08083789482E0B5
:1035800090E0EACF0E948D1980E28A95F1F75A986F
:10359000529A80E18A95F1F76A81662321F08B8146
:1035A0009C810E94231A0E949519E881F98110825A
:1035B000789490E080E0D0CF9093D8028093D702A7
:1035C0000895E091D702F091D802309721F0019050
:1035D000F081E02D099480E00895E091D702F09108
:1035E000D802309721F00280F381E02D09940895EC
:1035F0002091D5023091D6022817390771F09093A7
:10360000D6028093D502E091D702F091D80230978C
:1036100021F00680F781E02D099408952091D302CE
:103620003091D4022817390771F09093D402809317
:10363000D302E091D702F091D802309721F00084B4
:10364000F185E02D099408950E94CC276093FA0239
:103650007093FB028093FC029093FD026093F6024C
:103660007093F7028093F8029093F90208950E94F4
:10367000CC276093FA027093FB028093FC02909334
:10368000FD026093F2027093F3028093F402909330
:10369000F502089585B7806885BF85B7806885BFC6
:1036A0000895089508950C94511B0C949F070E944F
:1036B0004A1B8AE296E20E9493280E94521B0C94B5
:1036C000531B0C94F90E089508950E94B7270E9489
:1036D0001F280E941D0D0E9498280E9432150E94EA
:1036E0003E160C94551B8F929F92AF92BF92CF9231
:1036F000DF92EF92FF920F931F93CF93DF9300D04F
:1037000000D00F92CDB7DEB70E94631B0E94641BEE
:103710000E94290E81110E94241B5AED852E52E031
:10372000952E10E000E0A02E802F0E94F10C7C016D
:10373000F401C190D1904F01C816D90609F460C0B8
:103740008091970381FD0E94FA0CC6018E259F256A
:10375000B12CCC24C394D12C9C012C213D21232BB2
:1037600009F448C00E94611B8823A9F0B982AA828B
:10377000EC20FD2081E0EF2809F480E08B830E949B
:10378000C0278160782F9D838C8349815A816B810A
:103790008D810E94291C000F111FF801E652FD4F78
:1037A00080819181C826D926D182C0820E949B1631
:1037B00081110E94371B0E9460110E94E11A9091B2
:1037C000D9028917A1F10E94E11A8093D9020F90C2
:1037D0000F900F900F900F90DF91CF911F910F914D
:1037E000FF90EF90DF90CF90BF90AF909F908F9021
:1037F0000C94080BB394CC0CDD1CFAE0BF12ACCFD8
:103800000F5F1F4F0C30110509F08DCF8FEF8983AB
:103810008A831B820E94C0278160782F9D838C83BE
:1038200049815A816B818D810E94291CBFCF0F90E5
:103830000F900F900F900F90DF91CF911F910F91EC
:10384000FF90EF90DF90CF90BF90AF909F908F90C0
:103850000895DF92EF92FF920F931F93CF93DF9320
:10386000CDB7DEB72B970FB6F894DEBF0FBECDBF36
:103870007A878B87F42E052F162FE72ED82E61110D
:103880000E94A8257E2DEC82DD824F2D502F612FC6
:103890008D2D90E02B960FB6F894DEBF0FBECDBFF6
:1038A000DF91CF911F910F91FF90EF90DF900C94DB
:1038B0000922FC01808191810C942B25CF93C82F84
:1038C0008823F1F18CEF8C0F813AA0F46C2F80915A
:1038D0002701909128010E94F726882329F08C2F38
:1038E0000E9468250E94C7258C2F0E946125CF91D8
:1038F0000C94C72580E28C0F883048F4C77081E0B3
:1039000001C0880FCA95EAF70E948925F0CF8BE5A0
:103910008C0F833038F42C2F2452330BC901CF91F4
:103920000C94F81AC85AC73158F4EC2FF0E0EE0F97
:10393000FF1FE956FE4F80819181CF910C940E1BA1
:10394000CF910895882329F19CEF980F913A20F4A4
:103950000E9468250C94C72590E2980F983050F487
:10396000877091E001C0990F8A95EAF7892F0E942C
:103970008F25F0CF9BE5980F933020F490E080E006
:103980000C94F81A885A873120F490E080E00C9467
:103990000E1B08951F93CF93DF93182FEB010E9406
:1039A0005E1C209731F4812FDF91CF911F910C94F1
:1039B000A21C8FE99FE00197F1F700C0000021975A
:1039C000F0CF6AE070E0893311F460E570E00C94A8
:1039D000CA1C882321F00E9489250C94C7250895CC
:1039E000882321F00E948F250C94C7250895CF923B
:1039F000DF92EF92FF920F931F93CF93DF9300D04C
:103A000000D00F92CDB7DEB77C016D837983FC01C6
:103A10001281058102950F700E947F25C82E882390
:103A2000A1F0C12E112389F08981807F803429F093
:103A30008D81805EC12C883040F082E00E94122689
:103A40000E947F2591E0C82EC926D980D2948FE0AC
:103A5000D822F8E0DF1609F400C1FD1508F455C0BE
:103A600023E02D1518F18981807F39813F703983DA
:103A700091E09D1508F05CC0803221F029812295EB
:103A8000207F29833D81332309F489C0313009F433
:103A9000A6C0112309F4AEC0002309F4A5C0F701A4
:103AA000858180FF5CC08F7085839EC0E4E0DE1658
:103AB00009F4B7C00D2D0850110B0430110520F486
:103AC0000E94E11A0E94080BCC2009F4E0C10E9478
:103AD0007B2580FDDCC1F70112820E9475250E94C2
:103AE0008223C7010E946C1F0E9475250F900F90C2
:103AF0000F900F900F90DF91CF911F910F91FF903A
:103B0000EF90DF90CF900C94B323F9E0DF1609F427
:103B10004EC186E08D0D8F70823060F62D81223F80
:103B200009F056C189818F71112309F484C14DC1F7
:103B3000882321F009810295007F09831123B9F0C0
:103B40001981112361F08D81805E883018F00D811C
:103B5000011109C089810E9489250E94C7258D8194
:103B60000E945E1CA7CF89810E949A25F6CF8D8185
:103B70000E94A21C1981112309F49CCF8D81805EC3
:103B8000883018F00D81011106C089810E948F25AF
:103B90000E94C7258FCF89810E94A025F9CF1123CC
:103BA00091F0011107C00E94AE250981802B0E946F
:103BB000E91C80CF0130B9F70E94AE251981812B15
:103BC0000E94B42577CF011106C00E94BD258981CE
:103BD0000E94F01C6FCF013009F46CCFF6CF112397
:103BE00029F0063008F066CF8981E1CF053008F072
:103BF00061CFEDCF002359F30D81093369F41FEF35
:103C000027EE33E0115020403040E1F700C00000C3
:103C10008D810E94A21C4ECF8FE39CE90197F1F7A2
:103C2000F5CF898186958695837069F0813009F09A
:103C300041CF8D8199819370111102C090E080E095
:103C40000E940E1B37CF8D8199819370111102C094
:103C500090E080E00E94F81A2DCF8981837009F0EE
:103C600050C0111127CF2D81229526952770220F44
:103C7000220F8D818F7090E0B0E0A0E0022E04C092
:103C8000880F991FAA1FBB1F0A94D2F70D8140E02D
:103C900050E0BA0104FF0FC04FE050E060E070E078
:103CA00004C0440F551F661F771F2A95D2F7409511
:103CB00050956095709519811695169513701D8312
:103CC0008A019B01082B192B2A2B3B2B09831A8372
:103CD0002B833C831D8169817A818B819C81123089
:103CE00051F0133059F0113019F00E94E322E2CE66
:103CF0000E94BB22DFCE0E940B23DCCE0E94B922A1
:103D0000D9CE8695112311F089818170882309F419
:103D1000D1CE2D81229526952770220F220F8D81DD
:103D20008F7090E0B0E0A0E0022E04C0880F991FD1
:103D3000AA1FBB1F0A94D2F70D8140E050E0BA01E0
:103D400004FF0FC04FE050E060E070E004C0440F9B
:103D5000551F661F771F2A95D2F74095509560959D
:103D6000709519811695169513701D838A019B0114
:103D7000082B192B2A2B3B2B09831A832B833C837B
:103D80001D8169817A818B819C81123051F01330C1
:103D900059F0113019F00E9441248CCE0E94192450
:103DA00089CE0E94692486CE0E94352383CE098164
:103DB0000F700983112329F0802F0E9482238D81A7
:103DC000F6CE8D810E94F01C89810E94B32372CEB1
:103DD0002D81233F60F4203FE1F0213F41F1112389
:103DE00009F440C00111BBCE89818F7124C03D818F
:103DF000333F21F1343F99F7112351F109810F71BC
:103E00000983802F0E94822363E089810E94FD251F
:103E100051CE112341F0053008F04CCE89818F71CD
:103E20000E94E82347CE063008F044CEF7CF8981C0
:103E30008F71112351F20E9482233CCE112329F06D
:103E400089818F710E945D2335CE0E94412332CE3D
:103E500081E00E941226023008F42CCE82E00E94FB
:103E6000122628CE002381F01D81193341F42FEF53
:103E700037EE83E0215030408040E1F7C7CEEFE3DA
:103E8000FCE93197F1F7C2CE89818F719ECF0F90F7
:103E90000F900F900F900F90DF91CF911F910F9186
:103EA000FF90EF90DF90CF9008950F931F93CF93E3
:103EB000DF93EC01688179818A810E9437258C012A
:103EC0000E9491240E94B822B801CE01DF91CF91C7
:103ED0001F910F910C94F71CCF93DF93EC018B8112
:103EE0009C81892B29F08881998189238F3F59F4FE
:103EF000DF91CF910895CE010E94551FCE01DF9131
:103F0000CF910C946D0ACE010E94B90A8111F3CFB2
:103F10000E947F25882361F38A81882349F382E008
:103F2000DF91CF910C94122690E080E00E94F81A65
:103F300090E080E00E940E1B0E94A8250E94AB2505
:103F40000C94C7250E946F250C94941F0E949725FE
:103F50000C94A21F282F892F82958F70903C80F49B
:103F60008A30B0F4843020F4823090F480E00895F8
:103F70008630E1F781E0283E88F0213FB9F70EC096
:103F80008C3011F08F3091F793FB882780F90895DA
:103F900081E0203F39F018F4283E40F70895243F8F
:103FA00029F7FCCF08950E942B250C94AA1FCF93CC
:103FB000DF9300D000D00F92CDB7DEB70F900F90F7
:103FC0000F900F900F90DF91CF910895CF93DF93D3
:103FD00000D000D000D0CDB7DEB726960FB6F8944B
:103FE000DEBF0FBECDBFDF91CF9108951F93CF935A
:103FF000DF93E091FF0216E0809100038E1304C06E
:10400000DF91CF911F910895CE2FD0E01E9FF00138
:104010001124EF5FFC4F4081518162817381848163
:1040200095810E94E61FFE013196E770E5CF409131
:1040300031035091320360913303709134038091C6
:104040003503909136030C94E61F1F93CF93DF93B3
:1040500080913603807FA9F480913303882389F00F
:104060008091FF02C091000360913103709132038F
:10407000A0913403B0913503D62FD72316E0C8138F
:1040800004C0DF91CF911F91089590E0109711F037
:10409000DF3F19F401968770F2CF189F9001199FA6
:1040A000300D1124F901EF5FFC4F41814713F2CF2E
:1040B00040814613EFCF42814111ECCF43815481BF
:1040C0004A1B5B0B483C510528F7809136038F70E3
:1040D000806180933603F901EA5FFC4F80818F7025
:1040E0008061808381E393E00E946C1FDF91CF9118
:1040F0001F910C94F61FAF92BF92CF92DF92EF9276
:10410000FF920F931F93CF93DF93CDB7DEB72B971B
:104110000FB6F894DEBF0FBECDBF8C0185E0F8016D
:10412000DE01179601900D928A95E1F7F801408122
:104130005181E28081E3C82E83E0D82E6091340360
:10414000709135036115710509F444C190913103F3
:1041500020913203822F89238F3F09F43BC1A38032
:10416000B480F0903303F501E61BF70BFF2009F450
:10417000E0C080913603382F307FE83CF10508F02D
:10418000B2C0311179C0FE2C251323C0941321C075
:10419000E1101FC08F708061809336030E9417204A
:1041A000C6010E946C1F80913603F80185838F2D14
:1041B0002B960FB6F894DEBF0FBECDBFDF91CF9127
:1041C0001F910F91FF90EF90DF90CF90BF90AF9035
:1041D0000895AB2829F0842F85238F3F09F016C15D
:1041E00080E0F82FF170DF2EE091FF0220910003B4
:1041F00036E080FD1CC0EE20D1F280913603816054
:1042000080933603F12CD3CF8E2F90E03E9FF001A8
:104210001124EF5FFC4F6181651306C06081641358
:1042200003C06281E612E7CFFC013196E770E2132A
:10423000EBCF4F8358878F8198850E942B25292F9C
:1042400022952F70903260F0225F2F70223078F428
:104250009F7051F0F8019581907F31F4D12C0AC004
:104260009F7011F08823D1F3805E8830B8F3C801C5
:104270000E946C1FFD2C9BCF251306C0941304C015
:10428000F801EE2009F470C04F8358878F8198851C
:104290000E94D31F882319F1EE2009F18091360383
:1042A000803270F020913103309132033A832983B8
:1042B0001B82BD82AC828E83CE0101960E946C1F50
:1042C00086E0F801A1E3B3E001900D928A95E1F751
:1042D0000E9425200E941720FF24F39468CFC80174
:1042E0000E946C1FF9CF311113C07A2DBB86AA86AC
:1042F0006E2D8B850E94D71F81E393E00E946C1F77
:1043000086E0F60111928A95E9F70E9417207ACF8C
:104310002513BACF9413B8CFE110B6CFF801858337
:10432000C8010E946C1F86E0F60111928A95E9F798
:104330003ECFE83CF10508F040C0FE2CEE2079F2BB
:1043400025132AC0941328C08091360380FD1BC01A
:10435000982F907FC1F0F8018583903F31F0982F1E
:10436000907F905F8F70892B8583C8010E946C1F9E
:1043700086E0F801A1E3B3E001900D928A95E1F7A0
:104380000E94172014CF86E0F801A1E3B3E001906A
:104390000D928A95E1F70BCF4F8358878F819885CF
:1043A0000E94D31F81118CCF80913603816080934E
:1043B0003603C8010E946C1FFACE7A2DBB86AA86EE
:1043C0006E2D8B850E94D71F86E0F60111928A958B
:1043D000E9F7D6CFEE2009F482CF4F8358878F813B
:1043E00098850E94D31FF82E882309F478CF86E0A1
:1043F000F801A1E3B3E001900D928A95E1F781E322
:1044000093E00E94591C0E942520BACF81E08E259E
:10441000E8CE1F93CF93DF93CDB7DEB72C970FB6BF
:10442000F894DEBF0FBECDBF4F83588769877A8768
:104430008B879C87CE0107960E947B20882369F09A
:104440008A859B85892B39F04F815885842F852358
:104450008F3F09F077C016E065C086E0FE01379611
:10446000DE01119601900D928A95E1F76A857B85B0
:104470006115710581F35F814885842F85238F3F06
:1044800051F32091000330E0C9010196877099270C
:10449000E091FF02E817190671F40E94A61F10921E
:1044A00000031092FF0286E0E1E3F3E0DF011D92DA
:1044B0008A95E9F7D0CF59834A837D836C8396E050
:1044C000929FD001939FB00D1124AF5FBC4FFE01AE
:1044D000319601900D929A95E1F7809300030E9426
:1044E000F61FB9CF819FC00111248F5F9C4F0E949E
:1044F0007B208823E9F0E091FF021E9FF001112448
:10450000EF5FFC4F4081518162817381848195818D
:104510000E94E61F8091FF0290E001968770992724
:104520008093FF028091FF02909100038913DACFFC
:104530002C960FB6F894DEBF0FBECDBFDF91CF91A2
:104540001F91089569857A858B859C850E94E61F59
:1045500082CF08950C94A9220E94AA226093860318
:104560007093870380938803909389030C94941F1E
:1045700008950C94AC22CF93DF9300D000D0CDB738
:10458000DEB769837A838B839C83809186039091C5
:104590008703A0918803B091890329813A814B81D7
:1045A0005C81282B392B4A2B5B2B29833A834B8345
:1045B0005C83CA01B9010F900F900F900F90DF91AB
:1045C000CF910C94AC22CF93DF9300D000D0CDB725
:1045D000DEB769837A838B839C8380918603909175
:1045E0008703A0918803B091890329813A814B8187
:1045F0005C81282339234A235B2329833A834B8315
:104600005C83CA01B9010F900F900F900F90DF915A
:10461000CF910C94AC22CF93DF9300D000D0CDB7D4
:10462000DEB769837A838B839C8380918603909124
:104630008703A0918803B091890329813A814B8136
:104640005C81282739274A275B2729833A834B83B4
:104650005C83CA01B9010F900F900F900F90DF910A
:10466000CF910C94AC220C947F070E94332360936B
:1046700082037093830380938403909385030C9447
:10468000941F60E070E0CB010C943523382F292F64
:10469000CB01A32FB22F0097A105B10529F481E02A
:1046A000442351F080E0089504C0B695A7959795EE
:1046B00087954A95D2F7817008950F931F93CF93F2
:1046C000DF9300D000D0CDB7DEB741E050E060E02E
:1046D00070E08A019B0104C0000F111F221F331FCD
:1046E0008A95D2F709831A832B833C83C901B801C9
:1046F0000F900F900F900F90DF91CF911F910F911E
:104700000C9435230F931F93CF93DF9300D000D0E9
:10471000CDB7DEB741E050E060E070E004C0440F88
:10472000551F661F771F8A95D2F78091820390915B
:104730008303A0918403B09185038A019B01082B18
:10474000192B2A2B3B2B09831A832B833C83C9010A
:10475000B8010F900F900F900F90DF91CF911F91A4
:104760000F910C9435230F931F93CF93DF9300D0B9
:1047700000D0CDB7DEB741E050E060E070E004C0AB
:10478000440F551F661F771F8A95D2F740955095A5
:10479000609570958091820390918303A09184032A
:1047A000B09185038A019B01082319232A233B2307
:1047B00009831A832B833C83C901B8010F900F90A2
:1047C0000F900F90DF91CF911F910F910C94352393
:1047D0000F931F93CF93DF9300D000D0CDB7DEB7F8
:1047E00041E050E060E070E004C0440F551F661FD8
:1047F000771F8A95D2F78091820390918303A091CD
:104800008403B09185038A019B01082719272A2771
:104810003B2709831A832B833C83C901B8010F907E
:104820000F900F900F90DF91CF911F910F910C94EB
:104830003523CF93DF9300D000D0CDB7DEB76983A7
:104840007A838B839C838091820390918303A091D0
:104850008403B091850329813A814B815C81282BA7
:10486000392B4A2B5B2B29833A834B835C83CA0108
:10487000B9010F900F900F900F90DF91CF910C9492
:104880003523CF93DF9300D000D0CDB7DEB7698357
:104890007A838B839C838091820390918303A09180
:1048A0008403B091850329813A814B815C8128235F
:1048B00039234A235B2329833A834B835C83CA01D0
:1048C000B9010F900F900F900F90DF91CF910C9442
:1048D0003523CF93DF9300D000D0CDB7DEB7698307
:1048E0007A838B839C838091820390918303A09130
:1048F0008403B091850329813A814B815C8128270B
:1049000039274A275B2729833A834B835C83CA0173
:10491000B9010F900F900F900F90DF91CF910C94F1
:1049200035230895E82F2AE0929FE00D11248E2F61
:10493000877041E001C0440F8A95EAF7E695E69555
:10494000E69585E0E89FF0011124E95CFC4F30E03A
:1049500020E070E05191DF011197CB01022E02C0DF
:10496000969587950A94E2F781708195852784232F
:1049700085278C932F5F3F4F2530310559F70895D8
:10498000E82F2AE0929FE00D11249E2F9770E69564
:10499000E695E69585E0E89FF0011124E95CFC4F7F
:1049A00050E040E080E0219130E0092E02C03695D1
:1049B00027950A94E2F721703327042E01C0220FB5
:1049C0000A94EAF7822B4F5F5F4F4530510559F744
:1049D0000895BF92CF92DF92EF92FF920F931F93B1
:1049E000CF93DF938C01C0908203D0908303E0903B
:1049F0008403F09085038091860390918703A091B2
:104A00008803B0918903C82AD92AEA2AFB2ACFE170
:104A1000D0E0BC2ED701C6010C2E04C0B695A795D8
:104A2000979587950A94D2F780FD0EC0219788F755
:104A3000B12C8B2DDF91CF911F910F91FF90EF90B3
:104A4000DF90CF90BF900895B8018C2F0E94240B67
:104A5000019761F3EECFCF93DF93D82FC92F0E9438
:104A6000E9246D2F7C2FDF91CF910C94240B1F93A1
:104A7000CF93DF93162FD72F9091FE02992339F011
:104A8000862F972FDF91CF911F910C942B25882390
:104A900091F0862F972F0E94E924C82F682F812F2D
:104AA0009D2F0E949224612F7D2F8C2FDF91CF911B
:104AB0001F910C94240B862F972F0E94C024C82F7F
:104AC000F2CF682F80912701909128010C94312713
:104AD000682F80912701909128010C9433278091B1
:104AE0002701909128010C94352780918A038595A0
:104AF00085958595089580918A0387700895909192
:104B00008A03977081E009F480E00895809196030C
:104B1000089590919603982B909396030895982F5B
:104B2000909580919603892380939603089510921F
:104B30009603089590919503982B9093950308956B
:104B4000982F9095809195038923809395030895DC
:104B500010929503089510929403089580918B0309
:104B6000089508950C94B12590918B03981721F026
:104B700080938B030C94B225089580918B03882336
:104B800029F010928B0380E00C94B2250895E091F7
:104B90002701F0912801809196038083E0912701FD
:104BA000F0912801808190919503892B8083E09179
:104BB0002701F0912801808190919403892B8083B3
:104BC00090918B03992381F0E0912701F0912801C6
:104BD0008081892B808380912701909128010E94F8
:104BE000E52681110E94BD25809127019091280121
:104BF0000C94ED1A08950C94FA2598E0899F900181
:104C00001124622B60938A030E94822380918A037D
:104C10008595859585950C94FB2510928A0380E0F7
:104C20000C94FB2590918A038095892380938A03B5
:104C3000282F277071F4282F082E000C330B9217A1
:104C4000130639F08595859585950E94B3230C94BC
:104C50000D26089580E0089590E080E00E941834C9
:104C60009C0181E02B3E3E4F09F080E0089582E0F8
:104C700090E00C940A3483E090E00C940A34682F9E
:104C800083E090E00C941E34CF9384E090E00E9487
:104C90000A34C82F81E290E00E940A34982F8C2FAA
:104CA000CF910895CF93682FC92F84E090E00E94A0
:104CB0001E346C2F81E290E0CF910C941E34AB0136
:104CC000BC018FE090E00C94303483E190E00C94D0
:104CD0001234AB01BC0183E190E00C94303460E00D
:104CE00070E0CB010E945F260C9412086BEE7EEF01
:104CF00090E080E00E943C3460E082E090E00E941E
:104D00001E3460E083E090E00E941E34109286031F
:104D100010928703109288031092890360E084E068
:104D200090E00E941E3460E081E290E00E941E3418
:104D300060E085E090E00E941E3460E086E090E054
:104D40000E941E346FEF87E090E00E941E3440E026
:104D500050E0BA0188E090E00E94303460E08DE0DD
:104D600090E00E941E3440E050E0BA0188E190E0FB
:104D70000E94303460E087E190E00E941E3440E001
:104D800050E0BA018CE190E00E94303460E080E2B3
:104D900090E00E941E3440E050E0BA0188E190E0CB
:104DA0000E9430340C946F260C9476268EE090E0AE
:104DB0000E940A34982F81E0911101C080E008958B
:104DC000682F8EE090E00C941E34AC019C012E5FA5
:104DD0003F4F485F5F4F80E02417350709F408957F
:104DE000F90191919F019923B9F38F5FF5CF9C0150
:104DF000662351F0FC013296285F3F4F8191861760
:104E000029F0E217F307D1F780E0089581E00895D3
:104E10009C01FC0132968FEF90E04191461751F0D2
:104E20008F3F19F4411101C0892F9F5F9630A9F778
:104E30008F3F09F40895280F311D87FD3A95F90138
:104E4000628308959C01FC013296285F3F4F819157
:104E5000861303C0DF0111971C92E217F307B9F71D
:104E600008950C9408270C942227FC01329686E0C2
:104E7000DF011D928A95E9F70895089508950C942D
:104E80003E2780914E06843049F10E943F2780E002
:104E90000E94080B1092980388E190E020E40FB67E
:104EA000F894A895809360000FBE2093600083B7AC
:104EB000817F846083BF83B7816083BF7894889546
:104EC00083B78E7F83BF0FB6F894A895809160005A
:104ED000886180936000109260000FBE089508956D
:104EE000CF930E943D270E94290E0E946F27C0E0A9
:104EF0008C2F0E94F10C892B31F4CF5FCC30C1F79D
:104F000080E0CF91089581E0FCCF08950C9485272F
:104F10000E94A61F0E94E11A0E94080B0C9486278B
:104F20001F921FB61F9211248F939F93AF93BF932D
:104F300080919803811113C080915305909154057D
:104F4000A0915505B09156054196A11DB11D8093C4
:104F5000530590935405A0935505B0935605BF9102
:104F6000AF919F918F911F901FBE1F90189582E067
:104F700084BD93E095BD9AEF97BD80936E00089530
:104F80002FB7F8948091530590915405A091550541
:104F9000B09156052FBF0895CF93DF9300D000D076
:104FA000CDB7DEB78FB7F8942091530530915405F3
:104FB000409155055091560529833A834B835C8374
:104FC0008FBF69817A818B819C810F900F900F90A8
:104FD0000F90DF91CF9108959C014FB7F894809185
:104FE000530590915405A0915505B09156054FBFBA
:104FF000821B930B089578941F921FB61F92112461
:105000008F939F93AF93BF938091530590915405D5
:10501000A0915505B09156050196A11DB11D809333
:10502000530590935405A0935505B0935605BF9131
:10503000AF919F918F911F901FBE1F901895109256
:105040005705109258051092590510925A05089567
:10505000CF92DF92EF92FF92CF93DF9300D000D0F8
:10506000CDB7DEB76B017C010E94F90E81110EC035
:105070000E94CC27C61AD70AE80AF90AC092570537
:10508000D0925805E0925905F0925A050F900F9072
:105090000F900F90DF91CF91FF90EF90DF90CF9026
:1050A0000895CF93DF9300D000D0CDB7DEB70E9434
:1050B000F90E882341F00F900F900F900F90DF9121
:1050C000CF910C94CC270E94CC2769837A838B8361
:1050D0009C838091570590915805A0915905B091F6
:1050E0005A0529813A814B815C81280F391F4A1F5B
:1050F0005B1FCA01B9010F900F900F900F90DF91C5
:10510000CF91089587E797E790930108809300086F
:1051100088E19AE00FB6F894A895809360000FBEDE
:1051200090936000FFCF9093D5018093D4010895B0
:10513000CF93DF9300D000D0CDB7DEB70E942C26EE
:10514000811102C00E94D4260E94372680939703C3
:105150000E94442690935C0580935B050E943B2649
:10516000282F30E050E040E0CA01B9010E94B92286
:105170008091820390918303A0918403B091850371
:1051800089839A83AB83BC83BC01CD010F900F90C0
:105190000F900F90DF91CF910C943323881F8827B5
:1051A000881F0895982F81E0983F08F480E00895C3
:1051B000982F907F903D69F070F4903B31F038F477
:1051C000903A19F0807E803899F483E00895903CFD
:1051D00079F482E00895903EC1F3903F49F4EFE006
:1051E000E80F813F28F0F0E0EB53FE4F80810895F7
:1051F00080E008950F93DC01022F0F77242F2F7783
:105200006F70462F406BED91FC9163E070E0099563
:105210000F9108950F93DC01022F0F77242F2F7722
:105220006F70462F4069ED91FC9163E070E0099545
:105230000F9108950F93DC01022F0F77242F2F7702
:105240006F70462F4068ED91FC9163E070E0099526
:105250000F9108950F931F93DC019A01411580E28D
:105260005807C4F44115504EC4F0305E8901000F58
:10527000012F001F110B11952F776F70462F406E75
:10528000ED91FC91119763E070E0CD0109951F91BC
:105290000F9108952FEF3FE3E9CF30E020E0E6CF14
:1052A000FC01738362830895FC01758F648F0895F8
:1052B000CF93DF93EC011DA21FA21EA2BC01685D6B
:1052C0007F4F40EC88519F4F0E945D2B1B821A82BA
:1052D0001D821C821F821E82198618861B861A86D2
:1052E0001D861C861F861E86198A188A1B8A1A8AA2
:1052F0001D8A1C8A1F8A1E8A198E188E1B8E1A8E72
:105300001D8E1C8E1F8E1E8E19A218A2DF91CF91AA
:105310000895EF92FF920F931F93CF93DF93EA01CB
:105320008A01060F111D7C0128EEE20EF11CC01748
:10533000D10739F4DF91CF911F910F91FF90EF903A
:1053400008956991C7010E94642BF1CFFC0171831C
:1053500060830895FC0171A360A30895AF92BF928A
:10536000CF92DF92EF92FF920F931F93CF93DF9331
:1053700000D00F92CDB7DEB77C016B01142FB22E97
:10538000A02EDC0195968C9195978430A9F55A96BC
:10539000ED91FC913097E9F1CB01019763E070E06A
:1053A0000E94D333CB01880F991F860F971F498323
:1053B000BA820B834C2D481B9E012F5F3F4FBC01CF
:1053C000C7010995D7015E96ED91FC91309731F0B8
:1053D0000A2D2B2D412FB601C70109950F900F9073
:1053E0000F90DF91CF911F910F91FF90EF90DF9081
:1053F000CF90BF90AF9008956230710509F452C00C
:105400006330710599F06130710509F47AC0D12CCF
:10541000C12CD7015C96ED91FC91309799F20A2D41
:105420002B2D412FB601C7010995CCCF842F807F4A
:10543000803BF1F058F4803931F1803A49F18038FD
:1054400041F7D7011696ED91FC9116C0803E29F1E7
:10545000803FF9F6423FE9F6D7011C96ED91FC91A9
:10546000202F4B2D62EF3097A1F2C7010995AACFEB
:10547000D7011296ED91FC91309759F22A2D4B2DC0
:10548000612F6F70F2CFD7011496ED91FC91F4CF9C
:10549000D7011896ED91FC91EFCFD7011A96ED91B7
:1054A000FC91EACF842F807F803D81F0803F99F08E
:1054B000803C09F0AECFD7011E96ED91FC9130975C
:1054C00009F4A7CF4B2D612F6F7010C0D7015096F4
:1054D000ED91FC91F4CF433F61F4D7015296ED91E9
:1054E000FC914B2D612F309709F493CFC70109959B
:1054F00069CF413F09F08DCFD7015496ED91FC91D2
:10550000F0CF842F0E94D228882359F0D7015696D5
:10551000ED91FC91309709F47CCF612FC70109957B
:1055200051CF163F09F075CFD7015896ED91FC91F8
:10553000F1CFFF920F931F93CF93DF93EC01162FC0
:10554000862F0E94D228882391F0FDA081E08DA3B0
:1055500000E020E0412F61E070E0CE010E94AE2922
:10556000FDA2DF91CF911F910F91FF900895812FA0
:105570000E94CE284DA1882309F443C0443029F06D
:105580001AA381E090E09FA38EA3812F0E94D828C8
:10559000823069F1D0F481111EC0103F51F1173FE4
:1055A000B1F42EA13FA1C90163E070E00E94D333A2
:1055B000FE01E80FF91F12A3B9016F5F7F4F7FA3B0
:1055C0006EA30CA12BA14AA10DC0833081F01DA2B6
:1055D0001FA21EA2C6CF81E08DA300E020E0412FD4
:1055E00061E070E0CE010E94AE291DA2BACF8DA36A
:1055F000B8CF84E08DA31AA381E090E09FA38EA38F
:10560000B0CF442309F4ADCF2EA13FA1C90163E07F
:1056100070E00E94D333FE01E80FF91F12A3B90115
:105620006F5F7F4F7FA36EA38130910569F0029772
:1056300009F097CF0CA12BA14AA1CE010E94AE295F
:105640008DA18430C9F68DCF00E0423009F089CFBA
:10565000F2CFCF92DF92EF92FF920F931F93CF93EF
:10566000DF93EC01E8A1F9A1309709F009956E01EB
:1056700088EEC80ED11CC6010E94922B10E000E0FB
:10568000E82EF12C0E151F0548F0DF91CF911F91E8
:105690000F91FF90EF90DF90CF90089560E0C601EA
:1056A0000E94A62B682FCE010E94992A61E0C601B4
:1056B0000E94B62B0F5F1F4FE5CFFC01428374831E
:1056C00063831182108208951F93CF93DF93EC01BF
:1056D000162F0E94CD2B282FE981F0E0CF010196F3
:1056E0006A8170E00E94E73338813817190641F467
:1056F000822F0E94D02B80E0DF91CF911F910895DF
:105700008B819C81E80FF91F1083898190E00196BD
:105710006A8170E00E94E7338983822F0E94D02B38
:1057200081E0EACFCF93DF93EC010E94CD2B9981EA
:105730002881921740F0C92FC21B0E94D02B8C2FBA
:10574000DF91CF910895CA819C0FF5CFFC01808134
:10575000860F9927991F628170E00E94E7332381A9
:105760003481280F391FF901808108951F93CF9349
:10577000DF93EC01162F0E94CD2B282F8881810FFB
:105780009927991F6A8170E00E94E7338883822FEE
:10579000DF91CF911F910C94D02B8FB7F89408957F
:1057A0008FBF0895089508950F931F93CF93DF93AC
:1057B00000D000D000D00F92CDB7DEB7182F092F40
:1057C000CE0101960E94342E81110BC027960FB690
:1057D000F894DEBF0FBECDBFDF91CF911F910F9127
:1057E00008958A810E94D828682F8A818D838B81B1
:1057F0008E838C818F8361110AC02981243079F0D6
:10580000273069F0263069F061E02530C9F6AE0135
:105810004B5F5F4F812F902F0E948929D1CF63E08A
:10582000F6CF62E0F4CFDF92EF92FF920F931F93D7
:10583000CF93DF9300D000D0CDB7DEB77B01142F1C
:10584000D22E4A832B830C83842F0E94D828811167
:1058500029C082E0E816F10401F183E0E816F104C2
:1058600039F0EA94EF2869F485E0173F21F404C089
:1058700087E0073F09F084E08983CE0101960E940A
:105880002F2E0F900F900F900F90DF91CF911F91BF
:105890000F91FF90EF90DF90089587EFD812EBCF34
:1058A00086E0EACF12951F701983E7CF0E94270F79
:1058B0008DE595E00E94582963E17CE28DE595E055
:1058C0000E94A62964ED7BE28DE595E00E94AA295D
:1058D00062ED7BE28DE595E00E94542963ED7BE269
:1058E0008DE595E00C945029FC01CB0120914E06EA
:1058F0002430B1F421812F702093E90050E040E082
:1059000064E070E00E94FC2E81110BC09091E800D1
:1059100095FD07C09091E8009E779093E800089568
:1059200082E00895FC0180914E06843089F48181E3
:105930008F708093E9009091F3008091F200892BA1
:1059400049F08091E8008E778093E8000C94A230B3
:1059500082E0089580E00895FC0180914E06843035
:1059600059F481818F708093E9008091E80080FF75
:1059700003C0CF010C94922C0895FC01CB0120911F
:105980004E06243011F080E0089526812F70209378
:10599000E9002091E80022FFF6CF2091E80025FFE2
:1059A000F2CF50E040E064E070E00E944B2F809125
:1059B000E80085FD05C08091E8008B778093E800C2
:1059C00081E008958091A10308950895CF93DF9316
:1059D00000D00F92CDB7DEB790914E06943019F5F6
:1059E00089836A837B8382E08093E9008FEF9091C3
:1059F000E800815095FD06C095ED9A95F1F70000FD
:105A00008111F5CF8091E80085FF0DC050E040E0A6
:105A100063E070E0CE0101960E94FC2E8091E800C8
:105A20008E778093E8000F900F900F90DF91CF91C9
:105A30000895BC0184E00C94E62CBC0183E00C9436
:105A4000E62CCF93DF93D82FC92F81E08093E90014
:105A50008FEF9091E800815095FD06C095ED9A95E5
:105A6000F1F700008111F5CF8091E80085FF16C0A5
:105A700050E040E068E070E08D2F9C2F0E94FC2EEB
:105A80008091E8008E778093E80088E0ED2FFC2F6E
:105A9000A9E9B3E001900D928A95E1F7DF91CF91EA
:105AA000089580914D06811109C00E94D3300E9453
:105AB00030318091E20084608093E200089510927A
:105AC0004D06089508950895089542E061EC81E03F
:105AD0000E944F3042E261EC82E00E944F3042E38C
