:100000000C9428070C946F070C946F070C9413182A
:100010000C946F070C946F070C946F070C946F0788
:100020000C946F070C946F070C94182D0C94EC2D06
:100030000C94F2230C946F070C946F070C946F07C9
:100040000C946F070C946F070C946F070C946F0758
:100050000C946F070C943D240C946F070C946F075D
:100060000C946F070C946F070C946F070C946F0738
:100070000C946F070C946F070C946F070C946F0728
:100080000C946F070C946F070C946F070C946F0718
:100090000C946F070C946F070C946F070C946F0708
:1000A0000C946F070C946F070C946F07B200070154
:1000B000000000061CFFFF0B0100FFFF0C01000009
:1000C000FF0D010BB0FF18010000FF3C061CFFFFF5
:1000D0004A010BB0FF5501AAFFFF560180FFFF57F1
:1000E000016AFFFF580155FFFF590140FFFF600102
:1000F000EA80FF62061CFFFF6E0100FFFF70010B2C
:10010000B0FFFF00000000010A1CFFFF15021CFFEA
:10011000FF19031CFFFF1E051CFFFF25021CFFFF2C
:100120002D021CFFFF39021CFFFFFF000000002909
:100130005D355D415D4D5D595D2E5D3A5D465D52BB
:100140005D5E5D305D3C5D485D545D605D335D3F8F
:100150005D4B5D575D635D2B5D375D435D4F5D5B63
:100160005D2C5D385D445D505D5C5D325D3E5D4A99
:100170005D565D625D315D3D5D495D555D615D2D45
:100180005D395D455D515D5D5D2A5D365D425D4E6B
:100190005D5A5D285D345D405D4C5D585D2F5D3B73
:1001A0005D475D535D5F5D4F5C525C555C585C5BC9
:1001B0005C5E5C615C0000000000004E5C515C54C1
:1001C0005C575C5A5C5D5C605C0000000000004DA8
:1001D0005C505C535C565C595C5C5C5F5C0000008E
:1001E0000000000000A849705C6D5C6A5C675C649C
:1001F0005C0000000000000000725C6F5C6C5C69D9
:100200005C665C635C0000000000000000715C6ED6
:100210005C6B5C685C655C625C0000000000000177
:1002200000010001000100010001000100010001C6
:1002300000010001000100010001000100010001B6
:1002400000010001000100010001000100010001A6
:100250000001000100010001000100010001000196
:100260000001000100010001000100010001000186
:100270000001000100010001000100010001000176
:100280000001000100010001000100010001000166
:1002900000010001000100505C535C565C595C5C3D
:1002A0005C5F5C625C0000000000004E5C515C54CE
:1002B0005C575C5A5C5D5C605C0000000000004FB5
:1002C0005C4F5C525C555C585C5B5C5E5C000000A3
:1002D00000000000000100715C6E5C6B5C685C6596
:1002E0005C0000000000000000725C6F5C6C5C69E8
:1002F0005C665C635C0000000000000000705C6DE8
:100300005C6A5C675C645C615C0000000000002D5E
:100310005D295D355D415D4D5D325D2E5D3A5D4629
:100320005D525D285D305D3C5D485D545D2B5D3305
:100330005D3F5D4B5D575D2F5D2B5D375D435D4FD1
:100340005D305D2C5D385D445D505D2A5D325D3E03
:100350005D4A5D565D295D315D3D5D495D555D31AF
:100360005D2D5D395D455D515D2E5D2A5D365D42D9
:100370005D4E5D2C5D285D345D405D4C5D335D2FD1
:100380005D3B5D475D535D4F5C525C555C585C5B0B
:100390005C5E5C615C0000000000004E5C515C54DF
:1003A0005C575C5A5C5D5C605C0000000000004DC6
:1003B0005C505C535C565C595C5C5C5F5C000000AC
:1003C00000000000000100705C6D5C6A5C675C64AA
:1003D0005C0000000000000000725C6F5C6C5C69F7
:1003E0005C665C635C0000000000000000715C6EF5
:1003F0005C6B5C685C655C625C0000000000000097
:10040000000000000000002F5C485C4A5C4C5C4E21
:100410005C505C000000000000305C325C455C47D2
:100420005C495C4B5C4D5C00002F5C315C335C359F
:100430005C425C445C465C485C4A5C305C325C34E8
:100440005C365C385C3F5C415C435C455C475C33DC
:100450005C355C375C395C3B5C3C5C3E5C405C42E0
:100460005C445C365C385C3A5C3C5C3E5C395C3BD2
:100470005C3D5C3F5C415C4F5C525C555C585C5B36
:100480005C5E5C615C0000000000004E5C515C54EE
:100490005C575C5A5C5D5C605C0000000000004DD5
:1004A0005C505C535C565C595C5C5C5F5C000000BB
:1004B0000000000000A849705C6D5C6A5C675C64C9
:1004C0005C0000000000000000725C6F5C6C5C6906
:1004D0005C665C635C0000000000000000715C6E04
:1004E0005C6B5C685C655C625C0000000000003076
:1004F0005C315C325C335C345C465C475C485C4934
:100500005C4A5C325C335C345C355C365C445C4534
:100510005C465C475C485C345C355C365C375C3818
:100520005C425C435C445C455C465C365C375C38F2
:100530005C395C3A5C405C415C425C435C445C38E6
:100540005C395C3A5C3B5C3C5C3E5C3F5C405C41E3
:100550005C425C3A5C3B5C3C5C3D5C3E5C3C5C3DD4
:100560005C3E5C3F5C405C485C4A5C4C5C4E5C5072
:100570005C525C545C000000000000475C495C4B2E
:100580005C4D5C4F5C515C535C0000000000004718
:100590005C485C4A5C4C5C4E5C505C525C00000009
:1005A0000000000000A8495E5C5C5C5A5C585C5628
:1005B0005C00000000000000005F5C5D5C5B5C595B
:1005C0005C575C555C00000000000000005E5C5C55
:1005D0005C5A5C585C565C545C0000000000002DC6
:1005E0005D295D355D415D4D5D325D2E5D3A5D4657
:1005F0005D525D285D305D3C5D485D545D2B5D3333
:100600005D3F5D4B5D575D2F5D2B5D375D435D4FFE
:100610005D305D2C5D385D445D505D2A5D325D3E30
:100620005D4A5D565D295D315D3D5D495D555D31DC
:100630005D2D5D395D455D515D2E5D2A5D365D4206
:100640005D4E5D2C5D285D345D405D4C5D335D2FFE
:100650005D3B5D475D535D705C6D5C6A5C675C64CF
:100660005C615C5E5C000000000000715C6E5C6BB5
:100670005C685C655C625C5F5C00000000000072AE
:100680005C6F5C6C5C695C665C635C605C00000079
:100690000000000000A8494F5C525C555C585C5B50
:1006A0005C00000000000000004D5C505C535C5694
:1006B0005C595C5C5C00000000000000004E5C5176
:1006C0005C545C575C5A5C5D5C00000000000016E6
:1006D0005C2B003900E100E0002A004C002800E516
:1006E000004F001E00140004001D00E3002700134B
:1006F000003300380051001F001A0016001B00E2F2
:1007000000260012000F00370050002000080007EC
:10071000000600914825000C000E0036000851210B
:10072000001500090019002C00240018000D00100D
:10073000006500220017000A0005002C0023001CA1
:10074000000B0011009000010001000100010001F8
:100750000001000100000000000000010001000194
:100760000001000100010001000000000000000184
:100770000001000100010001000100010000000073
:100780000000000000010001000100010001000163
:100790000000000000000000000100010001000155
:1007A0000001000100000000000000000001000145
:1007B000000100010001000100000000000000161F
:1007C0005C2B00E000E10039002A004C00280052B8
:1007D000724F001E00140004001D00E300270033C8
:1007E000001200380051001F001A0015001B00E223
:1007F0000026001C000C00370050002000090016E5
:100800000006009148250018000800360008512114
:10081000001300170019002C0024000F0011001015
:1008200000650022000A00070005002C0023000DCF
:10083000000B000E0090000100010001000100010A
:1008400000010001000000000000000100010001A3
:100850000001000100010001000000000000000193
:100860000001000100010001000100010000000082
:100870000000000000010001000100010001000172
:100880000000000000000000000100010001000164
:100890000001000100000000000000000001000154
:1008A0000001000100010001000000000000000143
:1008B0000001000100010001000100010001000130
:1008C0000001003A000000AA00BE00010043002E13
:1008D000003500300031003B000000A900BD0001E0
:1008E0000042002D004F002F0034003C000000A803
:1008F0000000000100410000005200000001003D26
:100900000000000000000001004000000051000055
:100910000001003E0000000000000001003F000058
:100920000050000000010001000100010001000171
:1009300000010001000000000000000100010001B2
:1009400000010001000100010000000000000001A2
:100950000001000100010001000100010000000091
:100960000000000000010001000100010001000181
:100970000000000000000000000100010001000173
:100980000001000100000000000000000001000163
:1009900000010001000100010000000000000064EF
:1009A0005D0652075200000000C25C00000000001B
:1009B000000000655D6A5D000000000000000000AE
:1009C00000000000000000665D0000000000000064
:1009D0000000000000000000000000675D00000053
:1009E000000000000000000000000000000000689F
:1009F0005D0000000000000000000000000000009A
:100A0000000000695D000000000000000000000020
:100A100000000000000000775C785C795C7A5C7B09
:100A20005C00000000000000000000645D655D6681
:100A30005D675D685D695D0000000000000000000A
:100A40000000006A5D0000000000000000000000DF
:100A500000000000000100DE5C000000000000005B
:100A6000000000000000000000C25C000000000068
:100A70000000000000000000000000000000000076
:100A8000000000000000000000000000000000FF67
:100A9000FFFFFFFFFFFFFFFFFFFFFFFFFFFFFFFF66
:100AA000FFFFFFFFFFFFFFFFFFFFFFFFFFFFFFFF56
:100AB000FFFFFFFFFFFFFFFFFFFFFFFFFFFFFFFF46
:100AC000FFFFFFFFFFFFFFFFFFFFFFFFFFFFFFFF36
:100AD000FFFFFFFFFF3C3D3E3F404142FFFFFF481D
:100AE000494A4B4C4D4EFFFFFFFFFFFFFFFFFFFF4B
:100AF000FFFFFFFFFF4746454443FFFFFFFF5453FF
:100B00005251504FFFFFFF000C1824300B17232FBA
:100B10003B010D1925310A16222E3A020E1A2632F1
:100B20000915212D39030F1B27330814202C3804F5
:100B3000101C283407131F2B3705111D29350612E9
:100B40001E2A3655565758595A5BFFFFFF62636499
:100B500065666768FFFFFFFF6F7071727374FFFF58
:100B6000FFFF61605F5E5D5CFFFFFFFF6E6D6C6BA2
:100B70006A69FFFFFFFF7A7978777675FFFFFF3CA0
:100B80003D3E3F40414243444546476154535251E4
:100B9000504F4E4D4C4B4A494855565758595A5B41
:100BA0005C5D5E5F606E6D6C6B6A696867666564EC
:100BB00063626F707172737475767778797A0B0AE5
:100BC000090807060504030201000C0D0E0F1011A1
:100BD000121314151617232221201F1E1D1C1B1A69
:100BE00019182425262728292A2B2C2D2E2F3B3A6D
:100BF00039383736353433323130000101010101E3
:100C000001010101020202020202020202030303C5
:100C10000303030303040404040404040505050595
:100C20000506060606060707070707080808080955
:100C30000909090A0A0A0B0B0B0C0C0C0D0D0D0E01
:100C40000E0E0F0F0F101011111112121313141496
:100C5000151516161717181819191A1A1B1B1C1D0B
:100C60001D1E1E1F20202122222324242526262764
:100C70002829292A2B2C2D2D2E2F30313232333496
:100C800035363738393A3B3C3D3E3F40414243449C
:100C900045464748494A4C4D4E4F5051535455567E
:100CA00058595A5B5D5E5F616264656668696B6C2A
:100CB0006D6F7072737577787A7B7D7E80828385A5
:100CC00087888A8C8E8F91939596989A9C9EA0A2E5
:100CD000A3A5A7A9ABADAFB1B3B5B7BABCBEC0C2EF
:100CE000C4C6C9CBCDCFD1D4D6D8DBDDDFE2E4E7B3
:100CF000E9EBEEF0F3F5F8FAFDFF04033000000035
:100D00001603670069006100620061006C00610009
:100D10006E006100690000000E0333006100720084
:100D200061006800740000000403090409029F00C8
:100D3000040100A0FA0904000001030101000921D7
:100D4000110100012240000705810308000A09047F
:100D500001000103000000092111010001223200FD
:100D60000705820320000A080B02020101000009A6
:100D70000402000001010000092401000109000132
:100D800003090403000201030000072401000141DC
:100D900000062402010100062402020200092403C5
:100DA00001030102010009240302040101010009F9
:100DB0000504024000050000052501010109058325
:100DC0000240000500000525010103120110010089
:100DD000000008EDFEB0F401000102030105010965
:100DE00080A101850319012AB700150126B70095D6
:100DF0000175108100C0050C0901A10185041901CC
:100E00002AA002150126A002950175108100C005D7
:100E1000010906A101050719E029E715002501953B
:100E200008750181029501750881010507190029DE
:100E3000FF150026FF0095067508810005081901B9
:100E40002905950575019102950175039101C00071
:100E500011241FBECFEFDAE0DEBFCDBF04B603FE24
:100E600027C08091B1059091B205A091B305B091D2
:100E7000B4058730904BA740B04BD1F41092B10528
:100E80001092B2051092B3051092B40514BE84B747
:100E9000877F84BF0FB6F894A89580916000886121
:100EA00080936000109260000FBEE0E0F8E30995C7
:100EB00011E0A0E0B1E0EEEAF0E602C005900D928C
:100EC000AC3CB107D9F725E0ACECB1E001C01D9214
:100ED000A13BB207E1F70E94032A0C941D300C9449
:100EE0000000CF92DF92EF92FF926B017C0149E00C
:100EF0000E945120682F80E00E945F1348E0C701E4
:100F0000B6010E945120682F81E00E945F13C70143
:100F1000B601FF90EF90DF90CF900895E7E3F3E004
:100F20008081807F826080830E94DB226093010346
:100F30007093020380930303909304038CEA90E080
:100F400090932C0280932B0240E060E080E00C94B0
:100F5000E212E1E0F3E09081892F8E7F90FF8160C3
:100F6000808360910103709102038091030390914B
:100F700004030C94DF2210920103109202031092DA
:100F800003031092040360E070E0CB010E94DF22B3
:100F900080E00C942C090F93FC01862F642F422FC4
:100FA000202F0F3F51F09281992319F00F910C944B
:100FB000901340E060E080E0F9CF0F910895EF9248
:100FC000FF920F931F93CF93DF937C01EB01298155
:100FD000888190E03AE0239F800D911D1124FC014F
:100FE000E95FF44F0491FC01E157F54F149188E556
:100FF000E8168DE5F80608F03FC03CE4E3163DE551
:10100000F30608F0AAC084E3E8168DE5F806F0F4CC
:1010100038E2E3163DE5F30608F078C088EAE81602
:1010200089E4F80609F47BC048F08FE2E81A8CE501
:10103000F80A38E4E316F10408F4AFC081E0DF9168
:10104000CF911F910F91FF90EF90089580E4E816E3
:101050008DE5F80608F071C0C7018D5E91090E9408
:10106000080EBE01C701895E91090E94080EBE01EB
:10107000C701865E910951C036E6E3163DE5F306E9
:1010800069F160F434E6E3163DE5F306F9F008F49F
:1010900074C08A81882391F281E01DC038E6E3168E
:1010A0003DE5F30639F100F139E6E3163DE5F306D7
:1010B00039F18AE6E8168DE5F80609F0BFCF8A8196
:1010C000882309F4BBCF0E94A907B8CF8A8188235F
:1010D00009F4B4CF80E00E942C09B0CF8A81882324
:1010E00009F4ACCF82E0F7CF8A81882309F4A6CF38
:1010F00083E0F1CF8A81882309F4A0CF84E0EBCF8D
:101100008A81882309F49ACF85E0E5CFC7018D5EF7
:1011100091092091010320FF09C00E94080E2AEDC9
:101120004AED6EE1CE010E94CB0788CF0E94080EE7
:10113000BE01C701815E9109F0CFC701895F9109A6
:101140000E94080EBE01C701865F91090E94080E29
:10115000BE01C701825F9109E0CFC7018550914070
:101160000E94080EBE01C701815091400E94080EE6
:10117000BE01C7018B5F9109D0CFC701815191405A
:101180000E94080EBE01C7018E5091400E94080EB9
:10119000BE01C7018B509140C0CF2AED4AED6EE1F0
:1011A000CE010E94CB07012FBACF813031F489EAFA
:1011B000611101C08AEA0C94671A089581E00895CC
:1011C0000C94DF0708950C94E2081F93CF93DF93EC
:1011D00000D000D00F92CDB7DEB749835A836B831E
:1011E00030915C0289819A8131111DC06623B9F06A
:1011F0002223A9F00E946B21182F682F89819A81E0
:101200000E94172169817A81812F0F900F900F9092
:101210000F900F90DF91CF911F910C94B0090E9415
:101220004321182FEFCF0E946B2169817A81EDCF86
:10123000FC01262F408151816281738184810C944D
:10124000E508CF93DF93EC0160E00E941809BE012E
:10125000DF91CF910C94E308CF93DF93C1E0D0E00E
:1012600002C0CC0FDD1F8A95E2F78C2F0E94B522B9
:10127000BE0190E080E0DF91CF910C9406200E94A7
:10128000A222811102C00E9443230C948B0B0C9468
:101290008E0B08950C94490981E008950C944C0933
:1012A000CF93C82F0E944A098C2FCF910C944E09DE
:1012B00008950E94E31C0E9458092FEF84E39CE0EC
:1012C000215080409040E1F700C000000C94612460
:1012D0000F931F93CF93DF93EC0161E00E941809F5
:1012E0008C01BE010E94E008882389F1BE01C8017B
:1012F0000E94080E882359F1BE01C8010E94C4153E
:10130000882329F1BE01C8010E9416168823F9F02E
:10131000BE01C8010E9439178823C9F0BE01C80167
:101320000E94B313882399F08A81882339F001152C
:101330008CE5180751F00E3D1C4579F0CE01DF9188
:10134000CF911F910F910C94DE080E94590980E003
:10135000DF91CF911F910F9108950E944323F7CF02
:10136000972F70E02AE0929F600D711D1124FB0100
:1013700098E7899FE00DF11D1124EE0FFF1FE15D3D
:10138000FE4F859194910895CF93DF930E94B00909
:101390000E94B00AEC01811522E59207E8F581155B
:1013A00031E5930708F0ACC0883E910510F5803E0A
:1013B000910570F5883A910570F4853A910508F029
:1013C00078C08130910521F1009711F1049700F563
:1013D000D0E0C0E01DC08F3B9105D0F7C85AD0E0E7
:1013E000CC0FDD1FC75BDE4F0990D881C02DD464C0
:1013F0000FC0811540E5940708F066C0C11580E470
:10140000D80708F05EC0CE019A9581159F4100F77C
:10141000CE01DF91CF910895811536E5930718F538
:10142000811545E5940708F083C0C11584E5D80708
:1014300008F079C09C2F969596959E0123703327CE
:10144000C115D34508F461C0C1E0D0E002C0CC0FA3
:10145000DD1F2A95E2F730E2939FC0011124C82BCB
:10146000D92BDA68D5CFC1158AE5D80778F4C1152C
:1014700099E5D90708F066C0C11528E5D20708F438
:10148000A7CFDC2FCC27C06FD06AC2CFCE01905639
:101490008115904208F09CCF8D2F8F710E94470BD1
:1014A00090E0982F882788279F719C012C2BE901B9
:1014B00047C0C55AD0E0C958DE4FC881D0E0D064DB
:1014C000A7CFDF70D06AA4CFE4E096958795EA9520
:1014D000E1F783702C2F26952695237040E2249FF8
:1014E00090011124382B8C2F8370C1E0D0E002C012
:1014F000CC0FDD1F8A95E2F7C22BD32BDC6888CF97
:10150000D82FCC27C16FD06A83CFC1E0D0E002C012
:10151000CC0FDD1F2A95E2F720E2929FC001112433
:10152000C82BD92BEBCFDC2FCC27C46FD06A70CF60
:101530000E94470BC82FD0E0DC2FCC27CC27DF71CF
:10154000D06266CF8C2F8F700E94470B34E0D69507
:10155000C7953A95E1F7CF709C2FEC01D06958CF31
:1015600082389105B1F1B0F48133910509F475C069
:1015700048F48932910509F469C08A32910509F469
:1015800073C008958533910509F459C089339105D5
:1015900001F10895833E9105A9F138F4803E91054B
:1015A000F9F0823E910549F10895863E9105A9F131
:1015B000873E9105C9F1843E910519F52091B60445
:1015C00021FF1FC08091B50484FD14C087EE90E018
:1015D00008952091B5042370A1F080EE90E0089565
:1015E0002091B50420FD47C03091B60430FF09C0FA
:1015F00024FF44C090E080E004C02091B50422FDA7
:10160000F7CF08952091B50422FD3BC03091B60478
:1016100030FDE3CF24FFF5CFEDCF2091B50423FFBC
:10162000F0CF24FDE7CFD2CF2091B50423FD2CC00D
:101630003091B60431FFEECF84EE90E00895209112
:10164000B50425FFDECF89E290E008952091B5042E
:1016500025FFD7CF85E390E008952091B50426FFBC
:10166000D0CF8AE290E008952091B50426FFC9CF3B
:1016700081E390E0089589E390E0089583EE90E09F
:10168000089582EE90E0089586EE90E0089590919E
:10169000B50492FF06C0282F28712830F9F4877FFF
:1016A000846093FF06C0282F28712831F1F4877ECB
:1016B00084612091B60420FF06C0382F387138307D
:1016C000D9F4877F816021FF06C0282F2871283137
:1016D000D1F4877E816194FD877E0895282F24713F
:1016E0002430F9F68B7F8860DCCF282F24712431D9
:1016F00001F78B7E8861DDCF382F3171313019F7DA
:101700008E7F8860E0CF282F2171213121F78E7ED6
:101710008861E1CF08950C948A0B08950C948D0B89
:10172000E82FF0E0EE0FFF1FE35EFC4F8081918118
:101730000895089580EA8A95F1F7089508951F9312
:10174000CF93DF93CDB7DEB766970FB6F894DEBFC1
:101750000FBECDBF0E94880D80911601811130C04F
:10176000FE01379686E0DF011D928A95E9F781E94F
:10177000898380E98A8384E98B8386E68C8387E981
:101780008D8386EC8E833697AAE0B1E0CE010D966C
:1017900021912D938E179F07D9F72AE0EFE3F1E00F
:1017A000DE011D9601900D922A95E1F7FC01A0E063
:1017B000B1E0CE01479621912D938E179F07D9F75F
:1017C0008091160196E0811190E09093360386E0B7
:1017D000891B80933503AAE0B1E040E151E061E06C
:1017E00070E08D91E82FE295EF70F0E011A18F701D
:1017F0009B0101C0220F8A95EAF7922F90959123C1
:1018000091A382A1822B82A34A175B0751F7A0E024
:10181000B1E04AE051E061E070E08D91E82FE2959F
:10182000EF70F0E011A18F709B0101C0220F8A952B
:10183000EAF7922F9095912391A382A1822B82A304
:101840004A175B0751F7E5E0F3E0ADE1B3E08DE166
:1018500093E0119211921D921D928E179F07C9F766
:1018600086E00E942D0D0E943F0966960FB6F894FF
:10187000DEBF0FBECDBFDF91CF911F910C94920DB3
:101880000E94670D882331F18091350390E0880F25
:10189000991F835E9C4F0E94A50D811118C08091F5
:1018A000CC018F5F8093CC01863078F0E0913503D6
:1018B000F0E0EE0FFF1FE35EFC4F90E080E011923E
:1018C0001192019686309105D1F70C944709109238
:1018D000CC01FBCF8091360390E0880F991F835E87
:1018E0009C4F0E94C60D0C949E0B8F929F92AF92BC
:1018F000BF92CF92DF92EF92FF921F93CF93DF932D
:101900009AE0E92E91E0F92E25E0C22E23E0D22EB6
:1019100030E1832E31E0932E10E0C1E0D0E0F701FA
:1019200081917F01E82FE295EF70F0E091A18F7037
:101930009E0101C0220F8A95EAF7892F822B81A38D
:10194000F70192915F01E92FE295EF70F0E022A19B
:101950009F70AE0102C0440F551F9A95E2F7CA016D
:101960008095822382A30E949A0BE0E0F1E050E090
:1019700040E030E020E06191A62FA295AF70B0E08A
:1019800090968C9190E06F7002C0959587956A95BE
:10199000E2F780FD5DC0CE01042E02C0880F991FC2
:1019A0000A94E2F7282B392B4F5F5F4F4A305105DD
:1019B00011F7F5019081E92FE295EF70F0E041A178
:1019C0009F70BE0102C0660F771F9A95E2F7CB01A8
:1019D0008095842381A3F5018081E82FE295EF7043
:1019E000F0E092A18F70AE0101C0440F8A95EAF732
:1019F000892F842B82A3F6018081918128173907D2
:101A000051F13183208381E0182BF2E0CF0ED11CFD
:101A10008E149F0409F083CF6091360370E0660F47
:101A2000771F635E7C4F212F46E085E093E00E94A4
:101A30002E0D0E94400C812FDF91CF911F91FF90BE
:101A4000EF90DF90CF90BF90AF909F908F900895D0
:101A500090E080E0A7CF80E0D7CF0895FF920F936A
:101A60001F93CF93DF93F82E092F162FD72FC42F54
:101A7000222349F081E08093CF010E942224909399
:101A8000CE018093CD018091CF018823A1F0809178
:101A9000CD019091CE010E942E24069760F0EF2D8B
:101AA000F02FA12FBD2F90E080E0D0E08C179D0794
:101AB00044F01092CF01DF91CF911F910F91FF90D1
:101AC0000895219131912D933D930196EFCF80910F
:101AD000D001811111C08091D80080618093D8001D
:101AE0008AE18A95F1F700C09091D900892F817021
:101AF00090FF82E08093D00181E09091D0019130FD
:101B000009F080E008950E94670D91E0892708950B
:101B10000E94830D809316010E94670D81110C9421
:101B2000990D08950E94670D811102C00C949F0DBC
:101B3000089561E070E087E191E00C94C41761E0E2
:101B400070E087E191E00C94CB17CF93DF93D82F0F
:101B5000C92F0E9465180097B9F4ED2FFC2FDC0106
:101B6000AA0FBB1FAE52BE4F2D913C9121933193D2
:101B700001968630910599F78EED91E00E94061549
:101B800081E0DF91CF91089580E0FBCF30E020E04D
:101B9000FC0141915191CF01F901EE0FFF1FEE526F
:101BA000FE4F518340832F5F3F4F2630310581F731
:101BB0008EED91E00C94FD1484E08093370389E06E
:101BC0008093380380913903807F88608093390344
:101BD000E3EEF1E08FEF819392E0EB32F907D9F772
:101BE0001092E2011092E1011092E0011092DF01E7
:101BF000089590913703292F2F7095959595959578
:101C000095959F523CE0239F900D1124890F0895D4
:101C1000FF920F931F93CF93DF93FB018E3A2CE536
:101C2000920708F07DC08E393CE5930708F05FC14C
:101C300080392CE5920750F583383CE5930708F08E
:101C40001EC181382CE5920760F487373CE5930785
:101C500008F0FDC08F322CE5920708F0C0C0C1E04B
:101C6000EFC081383CE5930709F4FEC082389C45FB
:101C7000B1F78281882309F4C9C080913703982F76
:101C80009F70993008F0C2C09F5FF7C08C393CE567
:101C90009307A0F582392CE5920708F00DC1803931
:101CA0003CE5930709F4F6C081399C45C1F6828171
:101CB000882309F4ABC020913703822F8595859541
:101CC0008595859586300CF0A1C091E0980F92958E
:101CD000907F9595959595959595392F3295307F6F
:101CE0002F70232B2093370318160CF08FC097FF0B
:101CF0008DC08295807F922F9F70B2C08C393CE559
:101D0000930709F4E7C08D399C4509F0A8CF82817B
:101D1000882309F47BC08091380391E0980FE5C0D7
:101D2000843B3CE5930709F413C148F5803B3CE54F
:101D3000930709F4F2C098F48E3A3CE5930709F44E
:101D4000E1C08F3A9C4509F08ACF8281882309F44B
:101D50005DC080913803982F907F905FDCC06091C8
:101D600038032281823B3CE5930709F4EBC008F479
:101D7000E3C021112FE762956F7042E4D8C0873B22
:101D80002CE5920709F4F0C080F4853B2CE592071E
:101D900009F4DEC0863B9C4509F061CF8281811148
:101DA000E1C08FEF8093E10131C0893B2CE59207C0
:101DB00009F401C108F4F0C08A3B9C4509F04FCFFB
:101DC000C2816091380362956F70CC2309F4FCC026
:101DD0004FEF5FE187EB94E00E94F12417C0209160
:101DE0003803F22EF2943FE0F3222F70DCE02D9FB7
:101DF000D00D1124C28101ED080F10E00D511E4FCE
:101E0000F8014081CC2389F04F3F11F0C0E018C0A9
:101E10000E94F90DC82F2D2F482F6F2D87EB94E0CE
:101E20000E94D124F801C083F1CF4F3F31F02D2F14
:101E30006F2D87EB94E00E94E1248FEFF8018083FF
:101E40008C2FDF91CF911F910F91FF9008952281E8
:101E50002223E1F28757982F9F7080913703807F6C
:101E6000892B80933703D2CF8281882379F28091A6
:101E70003703982F9F7051F2915F9F70F0CF2281AE
:101E8000222321F28958982F9295907F80913703D1
:101E90008F70E6CF8281882309F4B8CF8091370311
:101EA000982F95959595959595959B3F0CF4AECF6C
:101EB000915F9295907FECCF2281222309F4A6CFE7
:101EC0008259982F9F7080913803807F892B80934F
:101ED00038039CCF8281882309F498CF80913803FE
:101EE000982F9F7009F492CF915F9F70EECF22815F
:101EF000222309F48BCF8E598295807F90913803ED
:101F00009F70E4CF8281882309F480CF80913803C9
:101F1000982F907F90518F70D9CF8281882309F4B8
:101F200075CF6091380362956F7020E04BE787EBC7
:101F300094E00E94C1246ACF21112FE762956F704F
:101F400040E4F5CF21112FE762956F7041E4EFCFA8
:101F5000828120E081112FE76091380362956F70D4
:101F600043E4E5CF81E01ECF8281882309F44ECF80
:101F700090913903292F2F7081E0820F8F70907F0D
:101F8000892B80933903982F9F70807F822B91112A
:101F90003DCF809339033ACF8281882309F436CF2D
:101FA00080913903982F9F7009F430CF915F9F7013
:101FB000807F892BEECFC2816091380362956F706C
:101FC00040E050EEC11106CF50E040E087EB94E0D6
:101FD0000E94F12435CF87EB94E00E94F326809194
:101FE000DF019091E0010E942E24209139032F708F
:101FF0002817190609F068F50E9422249093E00141
:102000008093DF018091E101882319F16091380309
:1020100062956F702091E20141E087EB94E00E94AD
:10202000C1248091E1019091E20187FF0DC0482F0A
:10203000552741950CF45095941715062CF41092E1
:10204000E2011092E1010895890F87FD03C080939A
:10205000E20108958FE7FBCFEF92FF920F931F935A
:10206000CF93DF93EB01E82FD11110C0442321F06F
:10207000F0E0E650F44FE4916E2F7E2F8E2FDF912B
:10208000CF911F910F91FF90EF9008950D2F10E0C9
:10209000282F30E0442329F02650344FF9012491B1
:1020A00030E0F6E0CF9FC0011124EFEFF0E0BF0178
:1020B0000E949E2FAB018C2F90E0880F991FA5E501
:1020C000A49FB001A59F700D1124861B970B982F1C
:1020D000990F980FBF01601B710B629FD001639F26
:1020E000B00D729FB00D11248B2F9D9FB001112454
:1020F000672F7727EF01C61BD70BBE01629FE00158
:10210000639FD00D729FD00D11247F01E91AF10851
:10211000E09EB001E19E700DF09E700D1124672FBE
:102120007727E61BF70BE29F8001E39F100DF29FDC
:10213000100D1124E12F722F4230510599F048F40F
:102140004115510569F04130510581F0EB2F8D2F7C
:1021500007C04430510569F080F046305105B1F7B1
:102160006E2F8DCFE22F7B2F812FFACFE22F7D2F85
:10217000F7CFEB2F822F712FF3CF7B2F822FED2FF5
:10218000EFCF41E00C942C10CF93DF93762FE90131
:10219000682F842F0E94C110798368838A83DF911E
:1021A000CF910895453608F044E60C94C410809110
:1021B0003B03982F9E7F71F480913B038170826076
:1021C00080933B0380913E03853618F084E680932C
:1021D0003E030895843080F7F5CF88E090E00C94BA
:1021E000DD2FCF92DF92EF92FF926B017C010E9474
:1021F000D710B701A60188E090E0FF90EF90DF9044
:10220000CF900C94FB2FEBE3F3E083E0808311820B
:102210008FEF828384E6838314826081718182815F
:1022200093810C94F11090913F03933018F49F5FC9
:1022300090933F03882351F060913B0370913C03DE
:1022400080913D0390913E030C94F110089581E03C
:102250000C94131190913F03992319F0915090938E
:102260003F03882351F060913B0370913C038091C0
:102270003D0390913E030C94F110089581E00C947D
:102280002A1121E030E001C0220F8A95EAF79091EF
:102290003002922381E009F480E0089570E00C940C
:1022A0000A146F927F928F929F92AF92BF92CF92B9
:1022B000DF92EF92FF920F931F93CF93DF93CDB7EF
:1022C000DEB7C157D1400FB6F894DEBF0FBECDBF09
:1022D0007090200190913B0390FF47C0C0902B026B
:1022E000D0902C02C114D10409F052C0EFE7FBE0FA
:1022F0009E012F5F3F4FBE016E587E4FC901A491D2
:102300004A2F50E0DA01AA0FBB1FA40FB51FA05C33
:10231000BC4FCD90DD90EC90D901CD92DD92ED9245
:102320009D0131966A177B0751F720911F01672D98
:10233000B3E02B9F800D911D11240E944E11CF58A8
:10234000DE4F0FB6F894DEBF0FBECDBFDF91CF9149
:102350001F910F91FF90EF90DF90CF90BF90AF90C3
:102360009F908F907F906F90089580912101209190
:10237000220133E0839FF0011124E05CFC4F8217BF
:1023800008F0ACCF1182108212828F5F3396F7CFA4
:1023900090FFACCFF12CE12C43E0642E8E2D0E94F7
:1023A0004111882309F43CC0F701EE0FFF1FEC0D2B
:1023B000FD1DA590B490A114B10409F497CF45E098
:1023C00050E0B501CE0101960E94CC2F09810F3F4C
:1023D00039F18A81800F9927991F8C37910514F064
:1023E0008BE790E04C01880C991C880D991DDC014D
:1023F000A05CBC4F4D01069D80011124005C1C4F68
:102400000815190520F0B5E0AB0EB11CD8CF980126
:102410004D816C818B810E94D2100D5F1F4FF0CFD8
:102420002FEFE21AF20A38E0E316F10409F0B6CF12
:102430005DCFEBE3F3E080818E7F808360817181EB
:10244000828193810E94F1102FEF80E792E021506A
:1024500080409040E1F700C000000C945111909131
:102460003B0390FF14C0909121012091220133E0A1
:10247000939FF0011124E05CFC4F921710F00C9434
:1024800051118183608342839F5F3396F6CF089515
:10249000EF92FF920F931F93CF93DF9300D00F9291
:1024A000CDB7DEB7F82E062F142FE22E80913B0316
:1024B00080FF28C0E82FE695F0E0E658FE4F9081B7
:1024C00090932E028E7F823059F49E012F5F3F4FF2
:1024D0008F2D0E94D2104B8169818A810E942F1218
:1024E000F0923C0300933D0310933E03EE2051F025
:1024F00060913B0370913C0380913D0390913E03BA
:102500000E94F1100F900F900F90DF91CF911F91CB
:102510000F91FF90EF900895EBE3F3E09181282F66
:102520004381628188E0890F0C94481281E00C9409
:102530008C12EBE3F3E09181282F4381628188EFD5
:10254000890F0C94481281E00C949912EBE3F3E0AC
:10255000628121E1620F08F46FEF282F43818181AE
:102560000C94481281E00C94A612EBE3F3E0628134
:1025700021E1621B08F460E0282F438181810C94E3
:10258000481281E00C94B512EBE3F3E0438121E1C2
:10259000420F08F44FEF282F628181810C9448127A
:1025A00081E00C94C412EBE3F3E0438121E1421B90
:1025B00008F440E0282F628181810C94481281E068
:1025C0000C94D31221E00C94481220E00C94481291
:1025D00080913B0380FF18C08170826080933B0331
:1025E000662351F060913B0370913C0380913D0361
:1025F00090913E030E94F11040913E0360913D0393
:1026000080913C030C94E5120895682F81E00C94AE
:10261000E81281E00C940513682F90913B03969586
:102620008FEF890F09F481E00C94E81281E00C949B
:102630000C1361E00C94E812EBE3F3E0808181601D
:10264000808386950C94191380913B0380FD0C9434
:1026500019120C941C1360E00C94E81280912D0266
:1026600081112CC00E94A222811104C00E94432328
:102670000E9403110E94ED1060933B0370933C0392
:1026800080933D0390933E036E7F61F40E9403119B
:102690000E94ED1060933B0370933C0380933D03D5
:1026A00090933E030E94D71080913B0380FF03C0AC
:1026B00086950E942B1381E080932D02089521E0DE
:1026C00030E0A90102C0440F551F8A95E2F7CA0104
:1026D00020913002662361F0822B8093300280913A
:1026E0002F02811108C080913B0386950C942B1317
:1026F00080958223F2CF089590913B0390FF0FC005
:102700002B3768F430E0F901EE0FFF1FE20FF31FE3
:10271000E05CFC4F8183608342830C9451110895E7
:102720001F93CF93DF9300D00F92CDB7DEB7122F58
:1027300090913B0390FF0BC09E012F5F3F4F0E9483
:10274000D210212F4B8169818A810E947C130F90C6
:102750000F900F90DF91CF911F910895FA01811191
:1027600001C0FB0109941F93CF93DF93EC01FB01A0
:102770001281111110C00E9400228272FE01E25CDF
:10278000FC45E431F10508F043C0E15EFF4C0C94D8
:10279000C62F0E942413812FDF91CF911F9108959E
:1027A00046E153E169E073E10E94AE13F4CF49E0E2
:1027B00053E166E173E1F8CF43EA52E166E972E181
:1027C000F3CF46E952E163EA72E1EECF41EC52E128
:1027D00062EB72E1E9CF42EB52E161EC72E1E4CFEE
:1027E0004FED52E160ED72E1DFCF40ED52E16FED70
:1027F00072E1DACF4EE351E167E271E1D5CF47E212
:1028000051E16EE371E1D0CF81E00E941913C3CF93
:1028100011E0C1CF539A4BB1477F5BB15860EFB71E
:10282000F8949B01220F331F260F371F280F391FE3
:102830002817390741F4EFBF8FE594E00197F1F7CE
:1028400000C000000895DC016D91CD0178E05BB916
:10285000000000C067FF4BB9660F000000C000C059
:1028600000C04BB900C07A9591F7E2CF0C94D5081F
:1028700080911601811106C084E38093250186E3CF
:102880008093240120912501A22FA295AF70B0E082
:1028900091963C9191972F7081E090E0BC01022EBF
:1028A00001C0660F0A94EAF7462F4095432391969C
:1028B0004C93919792963C919297362B92963C939B
:1028C000929740912401E42FE295EF70F0E031A15E
:1028D0004F70042E01C0880F0A94EAF7982F909544
:1028E000932391A392A1892B82A390968C9190E03F
:1028F00002C0959587952A95E2F7817020A130E076
:1029000002C0359527954A95E2F792E020FF90E0C6
:10291000892B809336029091160181E0982790933D
:102920003202891B809331020895CF93E0913602E1
:10293000EE0FEE0F20912501A22FA295AF70B0E00F
:1029400090968C9190E02F7002C0959587952A956E
:10295000E2F78170992740912401A42FA295AF70CE
:10296000B0E090962C9130E04F7002C035952795DD
:102970004A95E2F7A9014170552720FF02C042E0C5
:1029800050E0842BE82BE0933602C0913202EF70C6
:10299000F0E0E458FE4F808190913502890F8093DA
:1029A000350284306CF0EC2F0C2E000CFF0BED5C2C
:1029B000FD4F80818F5F808360E08C2F0E943614F2
:1029C000809135028D3F6CF4EC2F0C2E000CFF0B28
:1029D000ED5CFD4F80818150808361E08C2F0E94EF
:1029E000361480913502837887FF03C081508C6F45
:1029F0008F5F80933502CF910895E0913202F0E02D
:102A0000ED5CFD4F2081FC0120830895FF920F9320
:102A10001F93CF93DF93D09131020D2F10E00D5C07
:102A20001D4FFC01C081F8018081C81BFC2E1F14C2
:102A300064F08C2FC7FD80E0C81BC11110C0DF916E
:102A4000CF911F910F91FF900895FA94F801808122
:102A50008F5F808360E08D2F0E943614E8CFCF5FB8
:102A6000F80180818150808361E08D2F0E943614AF
:102A7000E4CFAF92BF92CF92DF92EF92FF920F938B
:102A80001F93CF93DF937C015B01C42FD22FFC01F6
:102A900082818823F9F0409339020E942224909386
:102AA00038028093370280E28C0F883008F061C0D2
:102AB000C77081E001C0880FCA95EAF7DF91CF9116
:102AC0001F910F91FF90EF90DF90CF90BF90AF904C
:102AD0000C947F1A10913902141340C08091370270
:102AE000909138020E942E246C01B701C5010E940A
:102AF000591FC816D90690F5C0E2CD0F1D17B9F0C1
:102B000080E2810F883040F4177081E001C0880FA7
:102B10001A95EAF70E94861AC83048F481E09D2F82
:102B2000977001C0880F9A95EAF70E947F1A802F4C
:102B30000E94671AC830E8F4D77081E001C0880F9E
:102B4000DA95EAF7DF91CF911F910F91FF90EF9007
:102B5000DF90CF90BF90AF900C94861A80E28C0FDC
:102B6000883038F4C77081E001C0880FCA95EAF751
:102B7000E9CFDF91CF911F910F91FF90EF90DF9000
:102B8000CF90BF90AF9008950F939C01CB01233F4E
:102B90004CE5340759F1A8F4283DFCE53F0701F165
:102BA000293D4CE53407D1F1273D3C4591F406E23F
:102BB00021EE41EE67ED7CE50E94391580E00F9132
:102BC0000895253FFCE53F07E9F0B0F0263F3C457E
:102BD000F9F0FC018281882339F110923902EFCF9C
:102BE00007E225EE45EE68ED7CE5E6CF06E221EE54
:102BF00040EE63EF7CE5E0CF07E225EE44EE64EFC4
:102C00007CE5DACF06E221EE42EE65EF7CE5D4CF3B
:102C100007E225EE46EE66EF7CE5CECF08E221E046
:102C200045EE69ED7CE5C8CF81E0C9CFCF93DF9356
:102C3000EC01FB018281882309F419C1C230FCE553
:102C4000DF07C0F1C6319CE5D90730F09E012A5F4D
:102C50003C452930310570F50E94BA229093B604A4
:102C60008093B504C031ECE5DE0709F4CFC008F06D
:102C70005BC0C8308CE5D80709F4B6C088F5C4300D
:102C8000ECE5DE0709F4A8C0C0F4C2308CE5D80733
:102C900009F49CC08091B5048260C330DC4509F41E
:102CA00098C08091B5049091B6040E94C8220E94F9
:102CB000E31C80E0DF91CF9108958091B50480619D
:102CC000C630ECE5DE0709F484C08091B504886065
:102CD000C730DC4508F47DC08091B504806279C0BE
:102CE000CC308CE5D80709F489C070F48091B50424
:102CF0008C60CA30ECE5DE0709F46BC008F478C0DC
:102D00008091B5048E7F65C0CE308CE5D80709F47C
:102D100079C08091B5048B7FCF30DC4508F459C071
:102D20008091B5048F7E55C0CB3FECE5DE0709F4FA
:102D300057C030F5C3318CE5D80709F46FC078F47B
:102D4000C131ECE5DE0709F465C0C231DC4509F0AC
:102D5000A8CF0E94E31C8091B5048F773AC0C5319B
:102D60008CE5D80709F462C008F476C08091B604F7
:102D70008160CA3FDC4509F094CF8093B60491CFBF
:102D8000CF3FFCE5DF0709F44DC088F48091B6041D
:102D90008D7FCD3F9CE5D90781F38091B6048E7F6E
:102DA000CE3FDC4550F38091B6048360E6CFC1305E
:102DB000FDE5DF0709F459C008F444C080E0C230E3
:102DC000DD4509F06ECF0E9445236BCF8091B5049D
:102DD00081608093B50465CF8091B5048460F9CF9C
:102DE0008091B6048260C9CF8091B5048064F1CF30
:102DF0000E94E31C8091B5048068EBCF8091B504FC
:102E00008D7FE7CF8091B504877FE3CF8091B504B4
:102E10008F7DDFCF8091B5048F7BDBCF8091B504B0
:102E2000837FD7CF8091B6048C7FA7CF8091B504E4
:102E300082FB992790F921E0922790FB82F990FB81
:102E400083F9C7CF8091B604982F909591708E7FAB
:102E5000892B90FB81F991CF0E94E31C9091B504DE
:102E6000892F97FB87F98058B4CF81E0ACCF81E000
:102E700021CFCF93DF93EB0186319C4511F50E9462
:102E800000229A81992399F08A7A91E009F490E0DE
:102E900090933A02811109C089E20E94DB210E94CD
:102EA0003F2280E0DF91CF91089585E3F6CF8091B6
:102EB0003A02811104C089E20E94E221F0CF85E349
:102EC000FBCF81E0EFCF8EE14A9B02C08150E1F75A
:102ED0004A9BFECF08955A9880E28A95F1F75A9A54
:102EE0000895FC013BE03A95F1F798E020E080E09E
:102EF00031E040E14A95F1F7880F4A9B02C08160BA
:102F0000232742E04A95F1F7000040E14A95F1F7A6
:102F1000915079F790E19A95F1F799B132E03A95AD
:102F2000F1F7000040E14A95F1F792FB992790F9FB
:102F300092272081920F90830895EF92FF920F9332
:102F40001F93CF93DF930F92CDB7DEB719828C0119
:102F50007C01E60EF11C0E151F0561F481E09981DC
:102F6000911180E00F90DF91CF911F910F91FF9011
:102F7000EF9008950E946317CE0101960E94711789
:102F8000F80181938F01E7CF90933C0280933B023D
:102F9000529A5A9A089590933C0280933B02529819
:102FA0005A9AEA9AE9E6F0E080818F7C808308955E
:102FB0006150770B91E001C0990F6A95EAF720E024
:102FC00031E0911108C0222391F05A9A80E28A954B
:102FD000F1F75A980895492F482339F05A9A232730
:102FE00040E24A95F1F79695ECCF5A98F9CF5A9866
:102FF000EDCFFF920F931F93CF93DF93EC018C01E2
:10300000060F111DC017D10731F4DF91CF911F9129
:103010000F91FF900895F9900E946B1768E08F2D33
:103020000E94D817EFCF1F920F920FB60F92112464
:103030002F933F934F935F936F937F938F939F93C0
:10304000AF93BF93CF93DF93EF93FF935A98529A26
:10305000C0913B02D0913C026D81662321F08E81AC
:103060009F810E94F9170E946B1780E18A95F1F702
:103070005A9852985A9A80E18A95F1F76A816623A4
:1030800009F18B819C810E949D17E881F981882339
:1030900011F088E001C082E080830E946317FF91F5
:1030A000EF91DF91CF91BF91AF919F918F917F91E0
:1030B0006F915F914F913F912F910F900FBE0F90A5
:1030C0001F901895E881F981E4CFCF93DF93C091E9
:1030D0003B02D0913C02F894529A5A9885E08A9526
:1030E000F1F7000052985A9A80E28A95F1F74A9BCC
:1030F0000CC0529A5A9AE881F98181E080837894D1
:1031000081E090E0DF91CF9108956D81662381F099
:103110008E819F810E949D1781110AC0529A5A9AEE
:10312000E881F98182E08083789482E090E0EACFC0
:103130000E94631780E28A95F1F75A98529A80E1CB
:103140008A95F1F76A81662321F08B819C810E9428
:10315000F9170E946B17E881F9811082789490E04A
:1031600080E0D0CF90934202809341020895E09195
:103170004102F0914202309721F00190F081E02D60
:10318000099480E00895E0914102F0914202309765
:1031900021F00280F381E02D0994089520913F02EF
:1031A000309140022817390771F0909340028093C4
:1031B0003F02E0914102F0914202309721F00680F7
:1031C000F781E02D0994089520913D0230913E024F
:1031D0002817390771F090933E0280933D02E091E9
:1031E0004102F0914202309721F00084F185E02DF8
:1031F0000994089585B7806885BF85B7806885BFC5
:103200000895089508950C9401190C948E070E9456
:10321000FA180E9402190C9403190C94670D0E946D
:1032200019240E949F0B0E9472240E942E130E9458
:1032300038140C9405199F92AF92BF92CF92DF92EF
:10324000EF92FF920F931F93CF93DF93CDB7DEB72B
:103250002A970FB6F894DEBF0FBECDBF0E94750C43
:103260000E940D19882309F472C054E4A52E52E07F
:10327000B52E10E000E0902E802F0E94900B6C0184
:10328000F501E190F1905F01E816F90609F459C0E3
:103290008091F50281FD0E94990B97012C253D2517
:1032A00080E0EE24E394F12CA9014E215F21452B0F
:1032B00009F441C08E839F82CE20DF2081E0CD289B
:1032C00009F480E088870E9422248160782F9A8701
:1032D00089874E815F8168858A850E94CA19000F9F
:1032E000111FF801EC5BFD4F80819181E826F926E2
:1032F000F182E0820E9495140E94EB0F0E94B718A1
:10330000909143028917A1F10E94B718809343025C
:103310002A960FB6F894DEBF0FBECDBFDF91CF91D6
:103320001F910F91FF90EF90DF90CF90BF90AF90E3
:103330009F900C9450098F5FEE0CFF1C8A3009F0AF
:10334000B3CF0F5F1F4F0C30110509F094CF8FEFF3
:1033500089838A831B820E9422248160782F9D8327
:103360008C8349815A816B818D810E94CA19C2CF99
:103370002A960FB6F894DEBF0FBECDBFDF91CF9176
:103380001F910F91FF90EF90DF90CF90BF90AF9083
:103390009F900895CF93DF93CDB7DEB72B970FB6ED
:1033A000F894DEBF0FBECDBF4F83588769877A87F9
:1033B0008B871E821D8285E0FE013796DE01119605
:1033C00001900D928A95E1F749815A816B817C8148
:1033D0008D819E812B960FB6F894DEBF0FBECDBFB8
:1033E000DF91CF910C945C1FFC01808191810C9442
:1033F000AD21CF93C82F882309F43FC08CEF8C0FE9
:10340000813AA0F46C2F80912601909127010E94AF
:103410005C23882329F08C2F0E94E2210E943F2206
:103420008C2F0E94DB21CF910C943F2280E28C0FE5
:10343000883048F4C77081E001C0880FCA95EAF768
:103440000E940322F0CFEBE5EC0FE33040F4F0E014
:10345000E654FE4F808190E0CF910C94CE18C85A6C
:10346000C73158F4EC2FF0E0EE0FFF1FE457FE4F8A
:1034700080819181CF910C94E418CF910895882395
:1034800029F19CEF980F913A20F40E94E2210C94CC
:103490003F2290E2980F983050F4877091E001C07D
:1034A000990F8A95EAF7892F0E940922F0CF9BE5B0
:1034B000980F933020F490E080E00C94CE18885A56
:1034C000873120F490E080E00C94E4180895CF93C5
:1034D000C82F0E94F919C93369F42FEF87EE93E0E2
:1034E000215080409040E1F700C000008C2FCF9128
:1034F0000C943F1A8FE39CE90197F1F7F5CF8823ED
:1035000021F00E9403220C943F220895882321F089
:103510000E9409220C943F220895BF92CF92DF921D
:10352000EF92FF920F931F93CF93DF936C01D62FEF
:10353000C72FFC01058102950F70128111110E94A5
:1035400020220E94F921E82E882391F01123E9F02E
:103550008C2F807F803421F080E28D0F8830A8F09E
:1035600082E00E948A220E94F92191E0E82EE92659
:10357000BC2EB2949FE0B922FBE0FB15A8F1EB2D25
:10358000F0E0ED5CFF4C0C94C62FE12CF1CF0C2F3A
:103590000F70C07F11F00295007F1123A9F0002366
:1035A00059F080E28D0F883010F0D11109C0802FC2
:1035B0000E9403220E943F228D2F0E94F91914C0FD
:1035C000802F0E941322F6CF8D2F0E943F1A0023D6
:1035D00059F080E28D0F883010F0D1112BC0802F70
:1035E0000E9409220E943F22EB2DE850FF0B3497E6
:1035F00020F40E94B7180E945009EE2009F488C1F7
:103600000E94F52180FD84C1F60112820E94EF2103
:103610000E947B20C6010E94A91C0E94EF21DF911D
:10362000CF911F910F91FF90EF90DF90CF90BF90BF
:103630000C949C20802F0E941922D4CF2C2F2F7005
:10364000F22EC07FC03219F0F29480EFF822DD2311
:1036500069F0D13049F1112391F1002351F1F601C4
:10366000858180FFA9CF8F70858323C0112381F0CE
:10367000011106C00E9426228F290E947F1AB4CF12
:103680000130C1F70E9426228F290E942C22ACCF44
:10369000011106C00E9435228F2D0E94861AA4CFE8
:1036A000013009F4A1CFF6CF112329F0063008F03C
:1036B0009BCF8F2DE2CF053008F096CFEDCF0023C2
:1036C00059F3D93309F01CC1FFEF27EE33E0F15075
:1036D00020403040E1F700C000008D2F0E943F1ACB
:1036E00083CF8C2F86958695837069F0813009F0A1
:1036F0007BCF8D2F9C2F9370111102C090E080E042
:103700000E94E41871CF8D2F9C2F9370111102C06D
:1037100090E080E00E94CE1867CF8C2F837009F074
:1037200041C0111161CF4D2F429546954770440F0E
:10373000440F0D2F0F7010E030E020E0042E04C085
:10374000000F111F221F331F0A94D2F760E070E0B0
:10375000CB01D4FF0FC06FE070E080E090E004C0C8
:10376000660F771F881F991F4A95D2F7609570954D
:1037700080959095C695C695C370602B712B822B52
:10378000932BC23049F058F4C13019F00E941A202E
:103790002BCF0E94082028CF0E942C2025CF0E94EA
:1037A000062022CF8695112311F08C2F817088235B
:1037B00009F41ACF4D2F429546954770440F440F98
:1037C0000D2F0F7010E030E020E0042E04C0000F39
:1037D000111F221F331F0A94D2F760E070E0CB0163
:1037E000D4FF0FC06FE070E080E090E004C0660F8F
:1037F000771F881F991F4A95D2F76095709580951D
:103800009095C695C695C370602B712B822B932B18
:10381000C23049F058F4C13019F00E94F220E4CED1
:103820000E94E020E1CE0E940421DECE0E944020D2
:10383000DBCECF70112329F08C2F0E947B208D2F9F
:103840001CCF8D2F0E94861A8C2F0E949C20CCCEDC
:10385000D23F89F160F4D03FC9F0D13F29F1112363
:1038600009F442C00111A8CE8C2F8F7121C0D33F23
:1038700039F1D43FA1F7112369F1CF718C2F0E9448
:103880007B2063E08C2F0E947522AECE112341F085
:10389000053008F0A9CE8C2F8F710E94BF20A4CED6
:1038A000063008F0A1CEF7CF8C2F8F71112369F26B
:1038B0000E947B2099CE8C2F8F711123C9F3C5CF25
:1038C000112329F08C2F8F710E9466208DCE0E94CB
:1038D0004C208ACE81E00E948A22023008F484CEF5
:1038E00082E00E948A2280CE002379F0D93341F40D
:1038F0009FEFE7EEF3E09150E040F040E1F7EBCED0
:103900008FE39CE90197F1F7E6CE8C2F8F719DCF65
:10391000DF91CF911F910F91FF90EF90DF90CF90AB
:10392000BF9008950F931F93CF93DF93EC016881AD
:1039300079818A810E94B7218C010E9416210E9400
:103940000520B801CE01DF91CF911F910F910C940A
:103950008D1ACF93DF93EC018B819C81892B29F009
:103960008881998189238F3F59F4DF91CF91089500
:10397000CE010E94921CCE01DF91CF910C942109BF
:10398000CE010E9468098111F3CF0E94F92188239A
:1039900061F38A81882349F382E0DF91CF910C940F
:1039A0008A220E9420220E9423220E943F2290E02D
:1039B00080E00E94CE1890E080E00C94E4180E9411
:1039C000E9210C94D11C0E9410220C94DF1CE92FD9
:1039D000E295EF70E250EE3070F4F0E0E15CFF4C05
:1039E0000C94C62F803F19F020F4883E20F481E02B
:1039F0000895843FE1F380E00895883EC0F3813F5D
:103A0000D1F7F5CF93FB882780F908950E94AD2167
:103A10000C94E71CCF93DF9300D000D00F92CDB76A
:103A2000DEB70F900F900F900F900F90DF91CF9116
:103A30000895CF93DF9300D000D000D0CDB7DEB78C
:103A400026960FB6F894DEBF0FBECDBFDF91CF91A3
:103A500008951F93CF93DF93C0915D0216E080918C
:103A60005E028C1304C0DF91CF911F910895D0E0C6
:103A70001C9FF0011D9FF00D1124E15AFD4F408164
:103A8000518162817381848195810E94191D2196E3
:103A9000C770E5CF40918F025091900260919102E2
:103AA0007091920280919302909194020C94191D4E
:103AB0001F93CF93DF9380919402807FA9F480912C
:103AC0009102882389F080915D02C0915E0260912D
:103AD0008F0270919002A0919202B0919302D62F22
:103AE000D72316E0C81304C0DF91CF911F9108952A
:103AF00090E0109711F0DF3F19F401968770F2CF34
:103B0000189F9001199F300D1124F901E15AFD4FC2
:103B100041814713F2CF40814613EFCF42814111DB
:103B2000ECCF438154814A1B5B0B483C510528F77D
:103B3000809194028F70806180939402F901EC5916
:103B4000FD4F80818F70806180838FE892E00E94BA
:103B5000A91CDF91CF911F910C94291DAF92BF92A8
:103B6000CF92DF92EF92FF920F931F93CF93DF9349
:103B7000CDB7DEB761970FB6F894DEBF0FBECDBFED
:103B80008C0185E0F801DE011D9601900D928A9569
:103B9000E1F7F80140815181E2808FE8C82E82E090
:103BA000D82E60919202709193026115710509F40B
:103BB00061C190918F0220919002892F82238F3FC3
:103BC00009F458C1A380B480F0909102F501E61B7E
:103BD000F70BFF2009F4FCC080919402382F307F4E
:103BE000E83CF10508F0B2C0311179C0FE2C251374
:103BF00023C0941321C0E1101FC08F708061809397
:103C000094020E944A1DC6010E94A91C8091940240
:103C1000F80185838F2D61960FB6F894DEBF0FBE35
:103C2000CDBFDF91CF911F910F91FF90EF90DF906B
:103C3000CF90BF90AF900895AB2829F0842F8523B3
:103C40008F3F09F033C180E0F82FF170DF2E80FF45
:103C50003CC080915D0220915E0236E0821315C067
:103C60004D875E878D859E850E94AD21292F2295E7
:103C70002F702230F0F0243018F59F70F1F0F80129
:103C80009581907FD1F4D12C1EC090E0389FF00137
:103C9000399FF00D1124E15AFD4F6181651306C073
:103CA0006081641303C062816E110FC0019687703A
:103CB000D5CF9F7011F0882331F3805E883018F3E0
:103CC000C8010E94A91CFD2CA5CFEE2009F4A2CFAB
:103CD00080919402816080939402F12C9BCF2513F4
:103CE00006C0941304C0F801EE2009F48DC04D877E
:103CF0005E878D859E850E94061D882319F1EE2022
:103D000009F180919402803270F020918F023091FD
:103D1000900238872F831986BB86AA868C87CE01AE
:103D200007960E94A91C86E0F801AFE8B2E0019076
:103D30000D928A95E1F70E94581D0E944A1DFF24AA
:103D4000F39468CFC8010E94A91CF9CF311113C0A8
:103D50007A2DB98AA88A6E2D89890E940A1D8FE85A
:103D600092E00E94A91C86E0F60111928A95E9F77B
:103D70000E944A1DB2CF25130FC094130DC0E1104D
:103D80000BC0F8018583C8010E94A91C86E0F601DA
:103D900011928A95E9F73ECF4D875E878D859E8586
:103DA0000E94061D882371F2EE2061F28091940238
:103DB000803208F4B8CF20918F02309190023A837C
:103DC00029831B82BD82AC828E83CE010196A9CF4E
:103DD000E83CF10508F041C0FE2CEE2009F4B2CF1A
:103DE00025132AC0941328C08091940280FD1BC023
:103DF000982F907FC1F0F8018583903F31F0982F84
:103E0000907F905F8F70892B8583C8010E94A91CC9
:103E100086E0F801AFE8B2E001900D928A95E1F7F3
:103E20000E944A1DF7CE86E0F801AFE8B2E00190AB
:103E30000D928A95E1F7EECE4D875E878D859E8542
:103E40000E94061D81116FCF809194028160809342
:103E50009402C8010E94A91CDDCE7A2DB98AA88AD5
:103E60006E2D89890E940A1D86E0F60111928A95BD
:103E7000E9F7D6CFEE2009F465CF4D875E878D85B3
:103E80009E850E94061DF82E882309F45BCF86E0EC
:103E9000F801AFE8B2E001900D928A95E1F78FE862
:103EA00092E00E94F4190E94581DBACF81E08E253D
:103EB000CBCE88EC90E008951F93CF93DF93CDB7DE
:103EC000DEB72C970FB6F894DEBF0FBECDBF4F8381
:103ED000588769877A878B879C87CE0107960E94CF
:103EE000AE1D882369F08A859B85892B39F04F8127
:103EF0005885842F85238F3F09F071C016E05FC07D
:103F000086E0FE013796DE01119601900D928A95AA
:103F1000E1F78A859B85892B89F38F819885892391
:103F20008F3F61F320915E0230E0C90101968770F6
:103F3000992740915D024817190671F40E94E31C0D
:103F400010925E0210925D0286E0EFE8F2E0DF017F
:103F50001D928A95E9F7D2CF96E0929FD001939F68
:103F6000B00D1124A15ABD4FFE01319601900D9262
:103F70009A95E1F780935E020E94291DBFCF819F31
:103F8000C0011124815A9D4F0E94AE1D8823E9F083
:103F9000E0915D021E9FF0011124E15AFD4F408126
:103FA000518162817381848195810E94191D809164
:103FB0005D0290E001968770992780935D02809161
:103FC0005D0290915E028913DACF2C960FB6F894B9
:103FD000DEBF0FBECDBFDF91CF911F9108956985E0
:103FE0007A858B859C850E94191D88CF08950C9435
:103FF000F61F0E94F71F6093E4027093E50280931E
:10400000E6029093E7020C94D11C08950C94F91FDA
:104010000F931F930091E4021091E5022091E602B4
:104020003091E702602B712B822B932B1F910F9104
:104030000C94F91F0F931F930091E4021091E50275
:104040002091E6023091E7026023712382239323BB
:104050001F910F910C94F91F0F931F930091E4028D
:104060001091E5022091E6023091E7026027712766
:10407000822793271F910F910C94F91F0C947107BD
:104080000E943E206093E0027093E1028093E2027E
:104090009093E3020C94D11C60E070E0CB010C948F
:1040A0004020611571058105910529F481E04423C3
:1040B00061F080E00895DC01CB0104C0B695A795BE
:1040C000979587954A95D2F7817008950F931F931E
:1040D00041E050E060E070E08A019B0104C0000F05
:1040E000111F221F331F8A95D2F7C901B8011F91F2
:1040F0000F910C9440200F931F9341E050E060E03B
:1041000070E004C0440F551F661F771F8A95D2F7D1
:104110008091E0029091E102A091E202B091E3026D
:104120008A019B01082B192B2A2B3B2BC901B801B3
:104130001F910F910C9440200F931F9341E050E08A
:1041400060E070E004C0440F551F661F771F8A951A
:10415000D2F7CB01BA01609570958095909500914A
:10416000E0021091E1022091E2023091E30260232B
:104170007123822393231F910F910C9440200F935E
:104180001F9341E050E060E070E004C0440F551F11
:10419000661F771F8A95D2F78091E0029091E10225
:1041A000A091E202B091E3028A019B01082719273E
:1041B0002A273B27C901B8011F910F910C94402079
:1041C0000F931F930091E0021091E1022091E2020F
:1041D0003091E302602B712B822B932B1F910F9157
:1041E0000C9440200F931F930091E0021091E10284
:1041F0002091E2023091E302602371238223932312
:104200001F910F910C9440200F931F930091E00297
:104210001091E1022091E2023091E30260277127C0
:10422000822793271F910F910C94402008952AE034
:10423000929F800D1124982F977041E001C0440F88
:104240009A95EAF786958695869595E0899FF0017F
:104250001124EB56FD4F90E080E070E05191DF01BA
:1042600011979B01082E02C0369527950A94E2F714
:10427000217021952527242325272C93019685300D
:10428000910561F708952AE0929F800D1124982FDF
:10429000977086958695869525E0829FF00111247A
:1042A000EB56FD4F50E040E080E0219130E0092ED8
:1042B00002C0369527950A94E2F721703327042E21
:1042C00001C0220F0A94EAF7822B4F5F5F4F4530FF
:1042D000510559F70895BF92CF92DF92EF92FF9266
:1042E0000F931F93CF93DF938C01C090E002D09087
:1042F000E102E090E202F090E3028091E40290910A
:10430000E502A091E602B091E702C82AD92AEA2A7A
:10431000FB2ACFE1D0E0BC2ED701C6010C2E04C091
:10432000B695A795979587950A94D2F780FD0EC00C
:10433000219788F7B12C8B2DDF91CF911F910F9191
:10434000FF90EF90DF90CF90BF900895B8018C2F31
:104350000E94C409019761F3EECFCF93DF93EC0184
:104360000E946B21BE01DF91CF910C94C4091F9371
:10437000CF93DF93EB0190915C02992331F0CB0155
:10438000DF91CF911F910C94AD21882379F0CB015F
:104390000E946B21182F682FCE010E941721BE01A9
:1043A000812FDF91CF911F910C94C409CB010E9402
:1043B0004321182FF4CF682F809126019091270177
:1043C0000C949223682F80912601909127010C94E0
:1043D000942380912601909127010C94962380913B
:1043E000E80285958595859508958091E802877006
:1043F00008959091E802977081E009F480E00895B3
:104400008091F40208959091F402892B8093F40234
:10441000089580959091F40298239093F402089562
:104420001092F40208959091F302892B8093F30285
:10443000089580959091F30298239093F302089544
:104440001092F30208951092F20208958091E90209
:10445000089508950C9429229091E902981721F06B
:104460008093E9020C942A2208958091E90288231E
:1044700029F01092E90280E00C942A220895E0913C
:104480002601F09127018091F4028083E0912601BA
:10449000F091270180819091F302892B8083E09134
:1044A0002601F091270180819091F202892B80836F
:1044B0009091E902992381F0E0912601F091270182
:1044C0008081892B808380912601909127010E9411
:1044D0004A2381110E943522809126019091270163
:1044E0000C94C31808950C94722298E0899F90014F
:1044F0001124622B6093E8020E947B208091E802E5
:104500008595859585950C9473221092E80280E03C
:104510000C9473229091E802809589238093E8029D
:10452000282F277071F4282F082E000C330B9217B8
:10453000130639F08595859585950E949C200C94ED
:104540008522089590E080E00E94E32F21E08C3ED8
:104550009E4F09F020E0822F089582E090E00C94B5
:10456000D52F83E090E00C94D52F682F83E090E066
:104570000C94E92FCF9384E090E00E94D52FC82FB0
:1045800081E290E00E94D52F982F8C2FCF91089533
:10459000CF93C92F682F84E090E00E94E92F6C2F01
:1045A00081E290E0CF910C94E92FAB01BC018FE048
:1045B00090E00C94FB2F83E190E00C94DD2FAB0195
:1045C000BC0183E190E00C94FB2F60E070E0CB0134
:1045D0000E94D5220C94BB076CEE7EEF90E080E049
:1045E0000E94073060E082E090E00E94E92F60E0E6
:1045F00083E090E00E94E92F1092E4021092E5021D
:104600001092E6021092E70260E084E090E00E94DF
:10461000E92F60E081E290E00E94E92F60E085E010
:1046200090E00E94E92F60E086E090E00E94E92F90
:104630006FEF87E090E00E94E92F40E050E0BA0180
:1046400088E090E00E94FB2F60E08DE090E00E9407
:10465000E92F40E050E0BA0188E190E00E94FB2F92
:1046600060E087E190E00E94E92F40E050E0BA016D
:104670008CE190E00E94FB2F60E080E290E00E94DD
:10468000E92F0C94E5220C94EC22682F8EE090E048
:104690000C94E92F9C012E5F3F4FAC01485F5F4FA8
:1046A00080E02417350709F40895F90191919F01DD
:1046B0009923B9F38F5FF5CF662349F0FC01329659
:1046C00008962191261729F0E817F907D1F780E01D
:1046D000089581E008959C01FC0132969FEF80E0EF
:1046E0004191461751F09F3F19F4411101C0982F95
:1046F0008F5F8630A9F79F3F09F40895290F311D78
:1047000097FD3A95F90162830895FC013296089667
:104710002191261303C0DF0111971C92E817F907B6
:10472000B9F708950C946B230C948523029626E028
:10473000FC0111922A95E9F70895089508950C94C3
:104740009E230E949F238091A805843049F11092F6
:10475000F60288E190E020E40FB6F894A8958093E3
:1047600060000FBE2093600080E00E9450090E940C
:104770009F2383B7817F846083BF83B7816083BFBA
:104780007894889583B78E7F83BF0FB6F894A895E9
:1047900080916000886180936000109260000FBE7D
:1047A00008950895CF930E949D230E94750C0E9446
:1047B000D123C0E08C2F0E94900B892B31F4CF5F66
:1047C000CC30C1F780E0CF91089581E0FCCF08950F
:1047D0000C94E7230E94E31C0E94B7180E94500922
:1047E0000C94E8231F921FB61F9211248F939F935E
:1047F000AF93BF938091F602811113C08091B104F1
:104800009091B204A091B304B091B4044196A11D5B
:10481000B11D8093B1049093B204A093B304B093FC
:10482000B404BF91AF919F918F911F901FBE1F90B5
:10483000189582E084BD93E095BD9AEF97BD809373
:104840006E0008952FB7F8948091B1049091B2044E
:10485000A091B304B091B4042FBF08959C014FB749
:10486000F8948091B1049091B204A091B304B091F6
:10487000B4044FBF821B930B089578941F921FB608
:104880001F9211248F939F93AF93BF938091B10494
:104890009091B204A091B304B091B4040196A11D0B
:1048A000B11D8093B1049093B204A093B304B0936C
:1048B000B404BF91AF919F918F911F901FBE1F9025
:1048C000189587E797E7909301088093000888E19F
:1048D0009AE00FB6F894A895809360000FBE90936D
:1048E0006000FFCF0E94A222811102C00E944323D8
:1048F0000E94AD228093F5020E94BA229093B604E2
:104900008093B5040E94B122682F70E090E080E0AF
:104910000E9406206091E0027091E1028091E20223
:104920009091E3020C943E20881F8827881F0895E9
:1049300091E0883F08F490E0892F0895982F907FA8
:10494000903BE9F040F49039D1F0903AC1F09038C2
:10495000B1F080E00895903D19F020F4903CC9F743
:1049600082E00895903E59F0903F99F7815F8F3033
:1049700080F7E82FF0E0E354FE4F8081089583E054
:1049800008950F93022F0F77242F2F776F70462FE4
:10499000406BDC01ED91FC9163E070E009950F91B3
:1049A00008950F93022F0F77242F2F776F70462FC4
:1049B0004069DC01ED91FC9163E070E009950F9195
:1049C00008950F93022F0F77242F2F776F70462FA4
:1049D0004068DC01ED91FC9163E070E009950F9176
:1049E00008950F931F93411520E2520744F49A0152
:1049F000305E4115504E2CF430E020E002C02FEF25
:104A00003FE38901000F012F001F110B11952F7734
:104A10006F70462F406EDC01ED91FC9163E070E019
:104A200009951F910F910895FC0173836283089586
:104A3000FC01758F648F0895CF93DF93EC011DA265
:104A40001FA21EA2BC01685D7F4F40EC88519F4FA2
:104A50000E9427271B821A821D821C821F821E82AF
:104A6000198618861B861A861D861C861F861E863A
:104A7000198A188A1B8A1A8A1D8A1C8A1F8A1E8A0A
:104A8000198E188E1B8E1A8E1D8E1C8E1F8E1E8EDA
:104A900019A218A2DF91CF910895EF92FF920F9380
:104AA0001F93CF93DF93EA018A01060F111D8851EE
:104AB0009F4F7C01C017D10739F4DF91CF911F912F
:104AC0000F91FF90EF9008956991C7010E942E27E2
:104AD000F1CFFC01718360830895FC0171A360A391
:104AE0000895AF92BF92CF92DF92EF92FF920F9311
:104AF0001F93CF93DF9300D00F92CDB7DEB77C0129
:104B00006B01142FB22EA02EDC0195968C919597F7
:104B10008430A9F55A96ED91FC913097E9F1CB01DB
:104B2000019763E070E00E949E2FCB01880F991FD0
:104B3000860F971F4983BA820B834C2D481B9E0119
:104B40002F5F3F4FBC01C7010995D7015E96ED91DC
:104B5000FC91309731F00A2D2B2D412FB601C70162
:104B600009950F900F900F90DF91CF911F910F91AA
:104B7000FF90EF90DF90CF90BF90AF90089562309C
:104B8000710509F455C06330710599F06130710504
:104B900009F481C0D12CC12CD7015C96ED91FC9118
:104BA000309799F20A2D2B2D412FB601C701099597
:104BB000CCCF842F807F803A11F148F48038D1F037
:104BC000803951F7D7011496ED91FC910AC0803ECF
:104BD000D9F0803FF1F0803BF9F6D7011296ED91C4
:104BE000FC913097C9F2123FE9F02A2D4B2D612F2D
:104BF0006F701BC0D7011696ED91FC91F2CFD701D3
:104C00001896ED91FC91EDCFD7011A96ED91FC919C
:104C1000E8CF423F09F6D7011C96ED91FC91309701
:104C200009F4BACF2A2D4B2D62EFC70109958DCF1C
:104C3000842F807F803DB1F0803FC9F0803C09F037
:104C4000ABCFD7011E96ED91FC91309709F4A4CF1C
:104C5000812F8D7F4B2D612F6F70813F89F0C701B0
:104C6000099573CFD7015096ED91FC91EECF433F5C
:104C700051F4D7015296ED91FC91309709F48CCF05
:104C80004B2D612FECCF413F09F086CFD7015496D1
:104C9000ED91FC91F2CF842F0E949824882359F043
:104CA000D7015696ED91FC91309709F475CF612F9D
:104CB000C70109954ACF163F09F06ECFD701589624
:104CC000ED91FC91F1CFFF920F931F93CF93DF9360
:104CD000EC01162F862F0E949824882391F0FDA0C6
:104CE00081E08DA300E020E0412F61E070E0CE0183
:104CF0000E947125FDA2DF91CF911F910F91FF902E
:104D00000895812F0E9494244DA1882309F443C063
:104D1000443029F01AA381E090E09FA38EA3812F55
:104D20000E949E24813051F08823A9F0823089F0BE
:104D3000833079F01DA21FA21EA2DDCF8DA300E05B
:104D400020E0412F61E070E0CE010E9471251DA29C
:104D5000D2CF8DA3D0CF103FB1F0173F59F72EA17E
:104D60003FA1C90163E070E00E949E2FFE01E80FA1
:104D7000F91F12A3B9016F5F7F4F7FA36EA30CA130
:104D80002BA14AA1E1CF84E08DA31AA381E090E09A
:104D90009FA38EA3B0CF442309F4ADCF2EA13FA192
:104DA000C90163E070E00E949E2FFE01E80FF91F29
:104DB00012A3B9016F5F7F4F7FA36EA3813091056E
:104DC00069F0029709F097CF0CA12BA14AA1CE015F
:104DD0000E9471258DA18430C9F68DCF00E042304C
:104DE00009F089CFF2CFCF92DF92EF92FF920F932B
:104DF0001F93CF93DF93EC01E8A1F9A1309709F05D
:104E000009956E0188EEC80ED11CC6010E945D276F
:104E100010E000E0E82EF12C0E151F0548F0DF91A0
:104E2000CF911F910F91FF90EF90DF90CF90089559
:104E300060E0C6010E947127682FCE010E946326A0
:104E400061E0C6010E9481270F5F1F4FE5CFFC0183
:104E50004283748363831182108208951F93CF93DA
:104E6000DF93EC01162F0E949827482F298130E00C
:104E7000C90101966A8170E00E94B22F58815817CB
:104E8000190641F4842F0E949B2780E0DF91CF9187
:104E90001F9108958B819C81280F391FF901108380
:104EA000898190E001966A8170E00E94B22F898327
:104EB000842F0E949B2781E0E9CFCF93DF93EC0101
:104EC0000E94982799812881921740F0C92FC21B10
:104ED0000E949B278C2FDF91CF910895CA819C0F50
:104EE000F5CFFC018081860F9927991F628170E0C0
:104EF0000E94B22F23813481280F391FF90180814C
:104F000008951F93CF93DF93EC01162F0E949827EB
:104F1000282F8881810F9927991F6A8170E00E944C
:104F2000B22F8883822FDF91CF911F910C949B2702
:104F30008FB7F89408958FBF0895089508950F933B
:104F40001F93CF93DF9300D000D000D00F92CDB746
:104F5000DEB78C01CE0101960E94FE2981110BC0A3
:104F600027960FB6F894DEBF0FBECDBFDF91CF916D
:104F70001F910F9108958A810E949E249A819D839A
:104F80009B819E839C819F8381110AC0898184308B
:104F900079F0873069F0863069F08530D9F681E0A4
:104FA000AE014B5F5F4F682FC8010E944D25D2CFE5
:104FB00083E0F6CF82E0F4CFDF92EF92FF920F937F
:104FC0001F93CF93DF9300D000D0CDB7DEB77B0126
:104FD000142FD22E4A832B830C83842F0E949E246D
:104FE000811129C082E0E816F10401F183E0E8169E
:104FF000F10439F0EA94EF2869F485E0173F21F4D1
:1050000004C087E0073F09F084E08983CE01019660
:105010000E94F9290F900F900F900F90DF91CF9180
:105020001F910F91FF90EF90DF90089587EFD812B6
:10503000EBCF86E0EACF12951F701983E7CF0E946D
:10504000DC0D87EB94E00E941C256CED77E287EB8A
:1050500094E00E9469256FE977E287EB94E00E9473
:105060006D256DE977E287EB94E00E9418256EE9E3
:1050700077E287EB94E00C9414259B014091A805FE
:105080004430C1F4FC0191819F709093E90050E09D
:1050900040E064E070E0C9010E94BE2A81110BC0AB
:1050A0009091E80095FD07C09091E8009E7790935D
:1050B000E800089582E008952091A805243091F435
:1050C000FC0181818F708093E9009091F3008091C1
:1050D000F200892B49F08091E8008E778093E800F8
:1050E0000C946C2C82E0089580E00895FC0180917E
:1050F000A805843059F491819F709093E9008091C4
:10510000E80080FF03C0CF010C945C2808959B0148
:105110004091A805443011F080E00895FC0196818B
:105120009F709093E9008091E80082FFF5CF809115
:10513000E80085FFF1CF50E040E064E070E0C90195
:105140000E940D2B8091E80085FD05C08091E8004C
:105150008B778093E80081E008958091FF020895A5
:105160000895CF93DF9300D00F92CDB7DEB7909123
:10517000A805943019F589837B836A8382E0809344
:10518000E9008FEF9091E800815095FD06C095ED04
:105190009A95F1F700008111F5CF8091E80085FF25
:1051A0000DC050E040E063E070E0CE0101960E9447
:1051B000BE2A8091E8008E778093E8000F900F90D0
:1051C0000F90DF91CF910895BC0184E00C94B12839
:1051D000BC0183E00C94B128CF93DF93EC0181E014
:1051E0008093E9008FEF9091E800815095FD06C013
:1051F00095ED9A95F1F700008111F5CF8091E800C7
:1052000085FF14C050E040E068E070E0CE010E94ED
:10521000BE2A8091E8008E778093E80088E0FE0146
:10522000A7EFB2E001900D928A95E1F7DF91CF915F
:1052300008958091A705811109C00E949D2C0E94AC
:10524000FA2C8091E20084608093E200089510922D
:10525000A7050895089508950C94EA2342E061ECAF
:1052600081E00E94192C42E261EC82E00E94192C3C
:1052700042E361E883E00E94192C42E361E884E0A4
:105280000C94192C8091AA05833009F45FC030F486
:105290008130C1F1823009F49BC008958A3009F44D
:1052A00087C08B3009F46DC0893009F04EC0809101
:1052B000A905813209F049C08091AD059091AE05F4
:1052C000029708F042C08091E800877F8093E80051
:1052D0008091E80082FF35C09091F3008091F20048
:1052E000029729F48091F1008B7F813021F4809125
:1052F000F1008093FF028091E8008B778093E800B3
:105300000C944D2C8091A905813AF9F48091E80024
:10531000877F8093E8008091AD059091AE05892B41
:1053200061F468E087EF92E070E00E945C2B80916E
:10533000E8008B778093E800089560E090E080E0DB
:10534000F3CF8091A8058111C3CF08958091A9055D
:10535000813AD9F78091AD059091AE05892BA9F7D7
:105360008091E800877F8093E8008091E80080FFCB
:10537000FCCF80913E018093F1008091E8008E7710
:10538000BDCF8091A905813201F78091AD05909143
:10539000AE05892BD1F68091E800877F8093E800E5
:1053A0000E944D2C8091AB0580933E010C94E31C30
:1053B0008091A905813249F68091E800877F80932A
:1053C000E8000E944D2C8091AC0580930003089565
:1053D0008091A905813A09F0B8CF8091E800877FD4
:1053E0008093E8008091E80080FFFCCF809100036B
:1053F000C2CFBC0188E291E00C943D28BC0188E258
:1054000091E00C9487280E941F2884B7877F84BF6F
:105410000FB6F894A8958091600088618093600031
:10542000109260000FBE80E890E00FB6F894809371
:105430006100909361000FBE0E9407190E949D2C8D
:105440000E94FA2C8091E20084608093E2007894BC
:105450000E94832F0E940F1984E391E00E94B218EA
:105460008091A805853039F00E941B1988E291E0EF
:105470000E947628F5CF0E94A1238091A60588235B
:1054800079F30E94D223882359F30E94A82AE8CFF7
:105490000C944A2A292F33272330310519F168F457
:1054A0002130310509F44AC02230310509F44BC0DE
:1054B00090E080E030E020E028C02132310579F131
:1054C00022323105A9F780E490E02FE03EE061153B
:1054D0007105D9F082E390E02DED3DE0613071057A
:1054E000A1F0E6CF99278130910599F0009741F01E
:1054F0008230910589F00397D9F6EAEFFCE002C00B
:10550000E8E2FDE0849190E09F01FA01318320837D
:105510000895E8E1FDE0F6CFE0E0FDE0F3CF89E0BB
:1055200090E02EE33DE06115710579F389E090E0AC
:1055300027E53DE06130710541F3BACF82E190E0AB
:105540002BEC3DE0E2CF8FE990E02CE23DE0DDCFB7
:1055500080E189BD82E189BD09B400FEFDCF809163
:10556000D8008F7D8093D8008091E0008260809386
:10557000E0008091E00081FDFCCF0895AF92BF92E2
:10558000CF92DF92FF920F931F93CF93DF936C0123
:10559000EB018A010E946C2CF82E811123C00115A9
:1055A000110539F0F80180819181C81BD90BC80E13
:1055B000D91EB12CA12C2097A9F08091E80085FD7F
:1055C00022C08091E8008E778093E80001151105D4
:1055D000A1F0F80180819181A80EB91EB182A0824C
:1055E00085E0F82E8F2DDF91CF911F910F91FF90C5
:1055F000DF90CF90BF90AF9008950E946C2C8823CD
:10560000D1F2F82EEFCFF60181916F018093F10076
:105610002197FFEFAF1ABF0ACECFAF92BF92CF92C2
:10562000DF92FF920F931F93CF93DF936C01EB01F7
:105630008A010E946C2CF82E811123C001151105DE
:1056400039F0F80180819181C81BD90BC80ED91E91
:10565000B12CA12C2097A9F08091E80085FD22C0F3
:105660008091E8008B778093E80001151105A1F087
:10567000F80180819181A80EB91EB182A08285E0D7
:10568000F82E8F2DDF91CF911F910F91FF90DF901A
:10569000CF90BF90AF9008950E946C2C8823D1F2D8
:1056A000F82EEFCF8091F100F60181936F012197E1
:1056B000FFEFAF1ABF0ACECFFC018091AF059091EA
:1056C000B00586179707A0F06115710529F4909130
:1056D000E8009E779093E80090E06115710551F421
:1056E000911108C08091E80082FF34C080E00895E5
:1056F000BC01F2CF8091A8058823C1F18530C1F1AA
:105700008091E80083FD30C08091E80082FDEACFFF
:105710008091E80080FFE1CF8091F3002091F200BA
:10572000382F6115710519F02830310558F091E0D6
:105730002830310509F090E02091E8002E77209381
:10574000E800CBCF81918093F100615071092F5F08
:105750003F4FE7CF8091A805882341F0853041F085
:105760008091E80083FFBECF81E0089582E0089534
:1057700083E00895FC018091AF059091B0058617F4
:105780009707A0F06115710529F48091E8008E77E4
:105790008093E80090E06115710551F4911108C003
:1057A0008091E80082FF35C080E00895BC01F2CF0F
:1057B0008091A8058823C9F18530C9F18091E8005E
:1057C00083FD31C08091E80082FDEACF8091E8003E
:1057D00080FFE1CF8091F3002091F200382F611516
:1057E000710519F02830310558F091E02830310565
:1057F00009F090E08091E8008E778093E800CBCFAD
:1058000084918093F1003196615071092F5F3F4F71
:10581000E6CF8091A805882341F0853041F0809142
:10582000E80083FFBDCF81E0089582E0089583E022
:105830000895982F973028F08F708093E90081E0C9
:1058400008959093E900242F762F50E0981731F0B7
:105850007091EC002091ED005091F00021FD02C00C
:105860009F5FE8CF3091EB003E7F3093EB003091AB
:10587000ED003D7F3093ED003091EB0031603093CF
:10588000EB007093EC002093ED005093F00020911A
:10589000EE0027FDE5CF80E008958091A90587FF00
:1058A00013C08091E80082FF06C08091E8008B77EA
:1058B0008093E80004C08091A8058111F2CF08957B
:1058C0008091A8058823D9F38091E80080FFF8CF64
:1058D0008091E8008E77ECCF2091E4003091E500D4
:1058E00095E6A9012091EC00822F817020FF06C06F
:1058F0008091E80080FF06C080E008952091E800D4
:1059000022FD1AC08091A805882389F0853089F08E
:105910008091EB0085FD0FC02091E4003091E500FF
:1059200042175307F9F29150E1F684E0089582E0BE
:10593000089583E0089581E008950E940B2D0E9450
:10594000132DE0EEF0E0808181608083E8EDF0E0EF
:1059500080818F77808319BCA7EDB0E08C918E7F1A
:105960008C9380818F7E80831092A70508950F937A
:105970001F93CF93DF930E940B2D0E94132DC8ED30
:10598000D0E088818F778883888180688883888148
:105990008F7D888319BC1092A8051092A4051092DF
:1059A000A6051092A50500EE10E0F80180818B7F1E
:1059B000808388818160888342E060E080E00E948B
:1059C000192CE1EEF0E080818E7F8083E2EEF0E042
:1059D000808181608083808188608083F8018081FC
:1059E0008E7F8083888180618883DF91CF911F9132
:1059F0000F910895E8EDF0E080818F7E8083E7EDE0
:105A0000F0E080818160808384E082BF81E08093C8
:105A1000A7050C94B72CE8EDF0E080818E7F8083A1
:105A20001092E20008951092DA001092E1000895B9
:105A30001F920F920FB60F9211242F933F934F9303
:105A40005F936F937F938F939F93AF93BF93EF93E6
:105A5000FF938091E10082FF0BC08091E20082FF02
:105A600007C08091E1008B7F8093E1000E94822F2C
:105A70008091DA0080FF19C08091D80080FF15C0A6
:105A80008091DA008E7F8093DA008091D90080FFC8
:105A900096C080E189BD82E189BD09B400FEFDCFD9
:105AA00081E08093A8050E9419298091E10080FF80
:105AB00019C08091E20080FF15C08091E2008E7FC6
:105AC0008093E2008091E20080618093E200809107
:105AD000D80080628093D80019BC85E08093A80527
