:100000000C9436070C947D070C947D070C94ED1B23
:100010000C947D070C947D070C947D070C947D0750
:100020000C947D070C947D070C9490300C946431F3
:100030000C9437270C947D070C947D070C947D0756
:100040000C947D070C947D070C947D070C947D0720
:100050000C947D070C948E270C947D070C947D07DF
:100060000C947D070C947D070C947D070C947D0700
:100070000C947D070C947D070C947D070C947D07F0
:100080000C947D070C947D070C947D070C947D07E0
:100090000C947D070C947D070C947D070C947D07D0
:1000A0000C947D070C947D070C947D07FFFFFFFFE8
:1000B000FFFFFFFFFFFFFFFFFFFFFFFFFFFFFFFF50
:1000C000FFFFFFFFFFFFFFFFFFFFFFFFFFFFFFFF40
:1000D000FFFFFFFFFFFFFFFFFFFFFFFFFFFFFFFF30
:1000E000FFFFFFFFFFFFFFFFFFFFFFFFFFFFFFFF20
:1000F000FFFF3C3D3E3F404142FFFFFF48494A4B26
:100100004C4D4EFFFFFFFFFFFFFFFFFFFFFFFFFF15
:10011000FFFF4746454443FFFFFFFF5453525150F2
:100120004FFFFFFF000C1824300B17232F3B010D4E
:100130001925310A16222E3A020E1A2632091521E5
:100140002D39030F1B27330814202C3804101C28CA
:100150003407131F2B3705111D293506121E2A36A9
:1001600055565758595A5BFFFFFF626364656667CF
:1001700068FFFFFFFF6F7071727374FFFFFFFF6115
:10018000605F5E5D5CFFFFFFFF6E6D6C6B6A69FF19
:10019000FFFFFF7A7978777675FFFFFFA2011A02D9
:1001A000000000061CFFFF0B0100FFFF0C01000018
:1001B000FF0D010BB0FF18010000FF230180FF803D
:1001C0003C061CFFFF4A010BB0FF5501AAFFFF567A
:1001D0000180FFFF57016AFFFF580155FFFF5901DA
:1001E00040FFFF6001EA80FF62061CFFFF6B012BEE
:1001F000FFFF6C0155FFFF6E0100FFFF70010BB0A8
:10020000FF77010BB0FF780180FFFF790124FFFF2A
:100210007A016AFFFFFF00000000010A1CFFFF15C2
:10022000021CFFFF19031CFFFF1E051CFFFF250218
:100230001CFFFF2D021CFFFF39021CFFFFFF000007
:100240000000605D6C5D785D845D905D655D715DF5
:100250007D5D895D955D675D735D7F5D8B5D975DA0
:100260006A5D765D825D8E5D9A5D625D6E5D7A5DD2
:10027000865D925D635D6F5D7B5D875D935D695DAE
:10028000755D815D8D5D995D685D745D805D8C5D82
:10029000985D645D705D7C5D885D945D615D6D5DA4
:1002A000795D855D915D5F5D6B5D775D835D8F5D84
:1002B000665D725D7E5D8A5D965D4F5C525C555CED
:1002C000585C5B5C5E5C615C0000AA00A9004E5C4F
:1002D000515C545C575C5A5C5D5C605C00000000E3
:1002E00000004D5C505C535C565C595C5C5C5F5C30
:1002F0000000000000000000A849705C6D5C6A5CB2
:10030000675C645C0000000000000000725C6F5CD1
:100310006C5C695C665C635C0000000000000000CF
:10032000715C6E5C6B5C685C655C625C000000002C
:1003300000000100010001000100010001000100B6
:1003400001000100010001000100010001000100A5
:100350000100010001000100010001000100010095
:100360000100010001000100010001000100010085
:100370000100010001000100010001000100010075
:100380000100010001000100010001000100010065
:100390000100010001000100010001000100010055
:1003A00001000100010001000100505C535C565C3B
:1003B000595C5C5C5F5C625C0000010001004E5CAB
:1003C000515C545C575C5A5C5D5C605C00000000F2
:1003D00000004F5C4F5C525C555C585C5B5C5E5C43
:1003E00000000000000000000100715C6E5C6B5CAE
:1003F000685C655C0000000000000000725C6F5CDF
:100400006C5C695C665C635C0000000000000000DE
:10041000705C6D5C6A5C675C645C615C0000000041
:100420000000645D605D6C5D785D845D695D655D47
:10043000715D7D5D895D5F5D675D735D7F5D8B5D1A
:10044000625D6A5D765D825D8E5D665D625D6E5D3C
:100450007A5D865D675D635D6F5D7B5D875D615D18
:10046000695D755D815D8D5D605D685D745D805DFC
:100470008C5D685D645D705D7C5D885D655D615D02
:100480006D5D795D855D635D5F5D6B5D775D835DF2
:100490006A5D665D725D7E5D8A5D4F5C525C555C37
:1004A000585C5B5C5E5C615C0000010001004E5CBE
:1004B000515C545C575C5A5C5D5C605C0000000001
:1004C00000004D5C505C535C565C595C5C5C5F5C4E
:1004D00000000000000000000100705C6D5C6A5CC0
:1004E000675C645C0000000000000000725C6F5CF0
:1004F0006C5C695C665C635C0000000000000000EE
:10050000715C6E5C6B5C685C655C625C000000004A
:100510000000BB5CBA5C000000002F5C485C4A5CD9
:100520004C5C4E5C505C000000000000305C325CB3
:10053000455C475C495C4B5C4D5C00002F5C315C6A
:10054000335C355C425C445C465C485C4A5C305CD5
:10055000325C345C365C385C3F5C415C435C455CDF
:10056000475C335C355C375C395C3B5C3C5C3E5CD7
:10057000405C425C445C365C385C3A5C3C5C3E5CB3
:10058000395C3B5C3D5C3F5C415C4F5C525C555C64
:10059000585C5B5C5E5C615C0000010001004E5CCD
:1005A000515C545C575C5A5C5D5C605C0000000010
:1005B00000004D5C505C535C565C595C5C5C5F5C5D
:1005C0000000000000000000A849705C6D5C6A5CDF
:1005D000675C645C0000000000000000725C6F5CFF
:1005E0006C5C695C665C635C0000000000000000FD
:1005F000715C6E5C6B5C685C655C625C000000005A
:100600000000305C315C325C335C345C465C475CDF
:10061000485C495C4A5C325C335C345C355C365C1B
:10062000445C455C465C475C485C345C355C365CED
:10063000375C385C425C435C445C455C465C365CE1
:10064000375C385C395C3A5C405C415C425C435CE2
:10065000445C385C395C3A5C3B5C3C5C3E5C3F5CD7
:10066000405C415C425C3A5C3B5C3C5C3D5C3E5CBB
:100670003C5C3D5C3E5C3F5C405C485C4A5C4C5C86
:100680004E5C505C525C545C000001000100475C11
:10069000495C4B5C4D5C4F5C515C535C000000005E
:1006A0000000475C485C4A5C4C5C4E5C505C525CB1
:1006B0000000000000000000A8495E5C5C5C5A5C21
:1006C000585C565C00000000000000005F5C5D5C50
:1006D0005B5C595C575C555C00000000000000004A
:1006E0005E5C5C5C5A5C585C565C545C00000000CC
:1006F0000000645D605D6C5D785D845D695D655D75
:10070000715D7D5D895D5F5D675D735D7F5D8B5D47
:10071000625D6A5D765D825D8E5D665D625D6E5D69
:100720007A5D865D675D635D6F5D7B5D875D615D45
:10073000695D755D815D8D5D605D685D745D805D29
:100740008C5D685D645D705D7C5D885D655D615D2F
:100750006D5D795D855D635D5F5D6B5D775D835D1F
:100760006A5D665D725D7E5D8A5D705C6D5C6A5C13
:10077000675C645C615C5E5C000001000100715CB0
:100780006E5C6B5C685C655C625C5F5C00000000DA
:100790000000725C6F5C6C5C695C665C635C605CF6
:1007A0000000000000000000A8494F5C525C555C4E
:1007B000585C5B5C00000000000000004D5C505C79
:1007C000535C565C595C5C5C00000000000000005B
:1007D0004E5C515C545C575C5A5C5D5C00000000F0
:1007E0000000165C2B003900E100E0002A004C00FC
:1007F0002800E5004F001E00140004001D00E30067
:10080000270013003300380051001F001A001600A3
:100810001B00E200260012000F00370050002000ED
:10082000080007000600914825000C000E00360065
:10083000085121001500090019002C00240018009F
:100840000D0010006500220017000A0005002C00B2
:1008500023001C000B0011009000010001000100AA
:100860000100010001000100000001000100010081
:100870000100010001000100010001000000000072
:100880000000010001000100010001000100010061
:100890000000000000000000010001000100010054
:1008A0000100010000000000000000000100010044
:1008B0000100010001000100000000000000000034
:1008C0000100010001000100010001000000000022
:1008D0000000165C2B00E000E10039002A004C000B
:1008E000280052724F001E00140004001D00E30097
:1008F000270033001200380051001F001A001500B5
:100900001B00E20026001C000C00370050002000F5
:10091000090016000600914825001800080036005E
:10092000085121001300170019002C0024000F00AB
:1009300011001000650022000A00070005002C00CD
:1009400023000D000B000E009000010001000100CB
:100950000100010001000100000001000100010090
:100960000100010001000100010001000000000081
:100970000000010001000100010001000100010070
:100980000000000000000000010001000100010063
:100990000100010000000000000000000100010053
:1009A0000100010001000100000000000000000043
:1009B0000100010001000100010001000000000031
:1009C0000000010001000100010001000100010020
:1009D0000100010001003A000000AA00BE00010071
:1009E00043002E003500300031003B000000A9001C
:1009F000BD00010042002D004F002F0034003C00DC
:100A00000000A800000001004100000052000000AA
:100A100001003D0000000000000001004000000057
:100A20005100000001003E00000000000000010035
:100A30003F00000050000000010001000100010023
:100A4000010001000100010000000100010001009F
:100A50000100010001000100010001000000000090
:100A6000000001000100010001000100010001007F
:100A70000000000000000000010001000100010072
:100A80000100010000000000000000000100010062
:100A90000100010001000100000000000000000052
:100AA0000100010001000100010001000000000040
:100AB00000009B5D0652075200000000C35C00006E
:100AC000A25D000000009C5DA15D00000000000030
:100AD000000000000000000000009D5D000000001C
:100AE00000000000000000000000000000009E5D0B
:100AF00000000000000000000000000000000000F6
:100B000000009F5D000000000000000000000000E9
:100B1000000000000000A05D0000000000000000D8
:100B200000000000000000000000775C785C795C49
:100B30007A5C7B5C000000000000000000009B5D10
:100B40009C5D9D5D9E5D9F5DA05D000000000000BE
:100B5000000000000000A15D000000000000000097
:100B600000000000000000000100DF5C0000000049
:100B7000000000000000000000000000C35C000056
:100B80009E5C9D5C00000000000000000000000072
:100B9000A55DA45DA35DA65D00000000000000004F
:100BA00000003C3D3E3F404142434445464761547E
:100BB000535251504F4E4D4C4B4A49485556575839
:100BC000595A5B5C5D5E5F606E6D6C6B6A696867ED
:100BD00066656463626F7071727374757677787925
:100BE0007A0B0A090807060504030201000C0D0E22
:100BF0000F1011121314151617232221201F1E1D6A
:100C00001C1B1A19182425262728292A2B2C2D2E9F
:100C10002F3B3A3938373635343332313000010121
:100C200001010101010101020202020202020202AB
:100C3000030303030303030304040404040404057B
:100C4000050505050606060606070707070708083F
:100C50000808090909090A0A0A0B0B0B0C0C0C0DF0
:100C60000D0D0E0E0E0F0F0F101011111112121389
:100C7000131414151516161717181819191A1A1B04
:100C80001B1C1D1D1E1E1F20202122222324242563
:100C90002626272829292A2B2C2D2D2E2F3031329C
:100CA00032333435363738393A3B3C3D3E3F4041AC
:100CB00042434445464748494A4C4D4E4F50515394
:100CC00054555658595A5B5D5E5F6162646566684B
:100CD000696B6C6D6F7072737577787A7B7D7E80CF
:100CE00082838587888A8C8E8F91939596989A9C1B
:100CF0009EA0A2A3A5A7A9ABADAFB1B3B5B7BABC2F
:100D0000BEC0C2C4C6C9CBCDCFD1D4D6D8DBDDDFFF
:100D1000E2E4E7E9EBEEF0F3F5F8FAFDFF1603671E
:100D20000069006100620061006C0061006E00619A
:100D300000690000000E033300610072006100686A
:100D400000740000000403090409029F000401006C
:100D5000A0FA0904000001030101000921110100AA
:100D6000012240000705810308000A09040100016F
:100D70000300000009211101000122320007058251
:100D80000320000A080B020201010000090402000E
:100D90000001010000092401000109000103090408
:100DA00003000201030000072401000141000624A2
:100DB00002010100062402020200092403010301CA
:100DC00002010009240302040101010009050402D3
:100DD00040000500000525010101090583024000CE
:100DE00005000005250101031201100100000008A3
:100DF000EDFEB0F401000102000105010980A1012E
:100E0000850319012AB700150126B7009501751051
:100E10008100C0050C0901A101850419012AA00265
:100E2000150126A002950175108100C00501090673
:100E3000A101050719E029E71500250195087501AD
:100E400081029501750881010507190029FF150028
:100E500026FF0095067508810005081901290595EA
:100E60000575019102950175039101C011241FBE02
:100E7000CFEFDAE0DEBFCDBF04B603FE27C080911E
:100E8000570690915806A0915906B0915A0687309E
:100E9000904BA740B04BD1F41092570610925806D1
:100EA0001092590610925A0614BE84B7877F84BFE9
:100EB0000FB6F894A89580916000886180936000D7
:100EC000109260000FBEE0E0F8E3099511E0A0E0A9
:100ED000B1E0EAE9F7E602C005900D92A63DB10740
:100EE000D9F726E0A6EDB1E001C01D92A735B20703
:100EF000E1F70E94772D0C94A7330C940000CF9259
:100F0000DF92EF92FF920F931F93CF93DF93F82E10
:100F1000C801C091DC03CF776A01C20ED11CF60173
:100F2000D081FB012281222311F1DF3F71F40E9465
:100F3000DE10D82F2C2F482F6F2D8DE595E0EE2059
:100F400069F00E944628F601D083DF91CF911F916E
:100F50000F91FF90EF90DF90CF9008950E94462868
:100F60002C2F4CE04D0F6F2D8DE595E0EACFDF3F44
:100F700049F02C2F4D2F6F2D8DE595E0EE2031F0AF
:100F80000E9456288FEFF6018083DFCF0E945628FB
:100F90004CE04D0F2C2F6F2D8DE595E0F1CF8F920A
:100FA0009F92AF92CF92EF920F931F93CF93DF93C5
:100FB000D82FC801C091DC03CF774A01820E911C63
:100FC000F4011081FB012281222349F11F3FE9F442
:100FD0000E94DE10182F4E2D480F2C2F6D2F8DE5FF
:100FE00095E00E9446284C2D410F2C2F6D2F8DE54A
:100FF00095E00E9446284A2D410F2C2F6D2F8DE53C
:1010000095E00E944628F4011083DF91CF911F9153
:101010000F91EF90CF90AF909F908F9008951F3FCA
:10102000C1F04E2D410F2C2F6D2F8DE595E00E94C4
:1010300056284C2D410F2C2F6D2F8DE595E00E94E9
:1010400056284A2D410F2C2F6D2F8DE595E00E94DB
:1010500056288FEFF4018083D8CFEF92FF920F9341
:101060001F93CF93DF93182FCB0161ED680FC091D1
:10107000DC03CF77EE2019F0CF3100F1CE517901AA
:10108000E60EF11CF7012081FA0132813323C1F011
:101090002F3F69F40E94DE10D82F402F480F2C2FCD
:1010A000612F8DE595E00E944628F701D083DF91FE
:1010B000CF911F910F91FF90EF900895C0E0DFCF87
:1010C0002F3F41F0402F420F2C2F612F8DE595E0EF
:1010D0000E9456288FEFF7018083E9CF0F93FC0120
:1010E000862F642F422F202F0F3F51F0928199239A
:1010F00019F00F910C94F91640E060E080E0F9CF10
:101100000F910895DF92EF92FF920F931F93CF9369
:10111000DF9300D000D000D0CDB7DEB7D82E81E06D
:10112000D81217C084E0689FF0011124E65BFE4FDF
:10113000F080E280C7010E942825B7010E949E0C22
:101140008C01E982FA828C32ECE59E0788F40E94D9
:10115000730B81E026960FB6F894DEBF0FBECDBFAD
:10116000DF91CF911F910F91FF90EF90DF90089545
:10117000DB82BE016F5F7F4F0E94ED108AE090E03E
:10118000EFE9FFE03197F1F700C000000197C1F7E8
:101190001B82BE016F5F7F4FC8010E94ED10D9CF47
:1011A000CF92DF92EF92FF926B017C0149E00E94A7
:1011B0000E24682F80E00E94C81648E0C701B601DF
:1011C0000E940E24682F81E00E94C816C701B60154
:1011D000FF90EF90DF90CF9008958091DB03807FA8
:1011E00082608093DB038091DC0380788567809345
:1011F000DC03E0E2F2E08FEF819392E0EC35F90757
:10120000D9F7E8EDF1E08FEF819392E0E032F90752
:10121000D9F70E942C266093A3037093A4038093B4
:10122000A5039093A6038CE991E09093B20280937A
:10123000B10240E060E080E00C944B16E3EAF3E09A
:101240009081892F8E7F90FF816080836091A303BE
:101250007091A4038091A5039091A6030C9430266D
:1012600080915E02882329F010925E0210925F0244
:10127000089581E080935E0282E080935F0208958A
:101280001092A3031092A4031092A5031092A60338
:1012900060E070E0CB010E94302680E00C94D10B1E
:1012A0000F93CF93DF93EC01062F60918803709129
:1012B000890380918A0390918B030E94420C8130B4
:1012C00089F0882341F0823089F0853099F0DF91F0
:1012D000CF910F9108952FEF4FEF65E5CE010E945A
:1012E0006E08F5CF2FEF4FEF6CE1F8CF2FEF4FEFF8
:1012F0006BE2F4CF2FEF4FEF6FEBF0CF0F93CF9365
:10130000DF93EC01062F609188037091890380912F
:101310008A0390918B030E94420C813089F08823CC
:1013200041F0823089F0853099F0DF91CF910F91B3
:1013300008952FEF4FEF6AE6CE010E946E08F5CFB9
:101340002FEF4FEF6BE2F8CF2AED4AED6EE1F4CFCD
:101350002FEF4FEF65EDF0CFAF92CF92EF92FF926C
:101360000F931F93CF93DF93EB012981088110E046
:101370003AE0239F000D111D1124F801EC5DFE4F92
:10138000F490F801E455FF4F149121EA280F8F38AB
:101390003DE5930708F056C083383DE5930708F014
:1013A000FDC087373CE5930760F58F322CE5920747
:1013B00008F0FEC0813938E4930709F485C078F459
:1013C0000497843E910508F47FC081E0DF91CF91BE
:1013D0001F910F91FF90EF90CF90AF9008958830BC
:1013E00031E5930709F470C086312CE5920709F4C2
:1013F0006BC00F2D883A994441F72AED4AED6EE112
:1014000067C087373DE5930708F0C0C08B363DE5E0
:10141000930708F0A7C08F353DE59307B0F2E09041
:10142000A303E0FAEE24E0F88C010452114040E2FC
:1014300052E080915F020E947F076F2DCE010E94D3
:101440005009C3CF803A3DE5930709F45DC0E0F44D
:101450008C393DE5930709F447C050F48B393DE5DD
:101460009307D0F58C010854114086E0A82E93C054
:101470002A818E393DE5930709F441C0D8F184E013
:10148000222309F4A2CF2DC0843A2DE5920709F456
:101490004DC080F42A81823A3DE5930709F440C0AB
:1014A000C8F1222309F491CF81E080935C0210926D
:1014B0005D028BCF863A2DE5920709F448C0E8F12A
:1014C0008235924709F081CF0F2D2FEF4FEF60E06B
:1014D000CE010E946E0879CF8A81882309F475CFE6
:1014E00080E00E94D10B71CF8A81882309F46DCFEF
:1014F00081E0F7CF82E0222309F467CFF2CF83E0C7
:10150000222309F462CFEDCF8A81882309F45DCFCD
:1015100085E0E7CF222309F458CF0E941E0955CF5A
:10152000222309F452CF0E9430094FCF8A818823A9
:1015300009F44BCF10925C02BACF8A81882309F458
:1015400044CF10925C0281E080935D023ECF8A819D
:10155000882309F43ACF8091000191E08927809394
:10156000000133CF8C010452114077E0A72EE4E054
:10157000CE2EE12C40E252E0BE0180915E020E943C
:10158000CF076F2DCE010E947E091FCF8C01005323
:10159000114067E0A62E53E0C52EEBCF8C010C5313
:1015A00011409AE0A92E37E0C32E44E0E42EE2CFAA
:1015B00020915D02222399F0E09000010CE028EDDB
:1015C00031E0AB01BC0180E00E942D080F2D2FEF10
:1015D0004FEF60E0CE010E946E08012F76CF209180
:1015E0005C022223B1F0E090000104EF28ED31E02D
:1015F000AB01BC0180E00E942D080F2D2FEF4FEFB3
:1016000060E8CE010E946E08012F2FEF4FEF60E8D7
:101610005FCF0F2D2AED4AED6EE1CE010E946E08DC
:10162000012FEBCECF93DF939C013A9521153F41DB
:1016300068F5EC01CC27D170DC01AA27B270AC01AF
:10164000442754709C012227387094FF11C080E118
:10165000CD2B09F480E0AB2B09F08062452B09F01B
:101660008064232B09F08068FB01DF91CF910994FE
:1016700081E0CD2B09F480E0AB2B09F08260452B93
:1016800009F08460232B81F38860EECFDF91CF9146
:101690000895CF93DF93EC01805E9109089720F0C5
:1016A00063E870E2209711F460EA7EE1CE010E94C7
:1016B000120B8C2FDF91CF910C94131ECF93DF93DD
:1016C000EC010E94591ECE01805E9109089720F01E
:1016D0006AE870E2209711F467EA7EE1CE01DF91BB
:1016E000CF910C94120BCF93DF93EC010E94490B26
:1016F0008FE39CE90197F1F700C00000CE01DF9174
:10170000CF910C945E0B81E008950C94AC09089580
:101710000C94870B1F93CF93DF9300D000D00F92D0
:10172000CDB7DEB749835A836B833091000389813B
:101730009A8131111DC06623B9F02223A9F00E94BD
:101740002825182F682F89819A810E94D4246981C5
:101750007A81812F0F900F900F900F900F90DF9153
:10176000CF911F910C949E0C0E940025182FEFCF53
:101770000E94282569817A81EDCFFC01262F4081C6
:1017800051816281738184810C948A0BCF93DF93A2
:10179000EC0160E00E94BD0BBE01DF91CF910C9483
:1017A000880BCF93DF93C1E0D0E002C0CC0FDD1FE8
:1017B0008A95E2F78C2F0E940626BE0190E080E019
:1017C000DF91CF910C94C3230E94600E0C94850E80
:1017D0000C94880E08950E94A3200E94EA0B2FEF1C
:1017E00084E39CE0215080409040E1F700C000007D
:1017F0000C94F3270F931F93CF93DF93EC0161E0D9
:101800000E94BD0B8C01BE010E94850B882389F1CB
:10181000BE01C8010E94ED10882359F1BE01C80124
:101820000E943D19882329F1BE01C8010E948F1929
:101830008823F9F0BE01C8010E94B21A8823C9F0BA
:10184000BE01C8010E941C17882399F08A81882351
:1018500039F001158CE5180751F00F3D1C4579F062
:10186000CE01DF91CF911F910F910C94830B0E94B9
:10187000EB0B80E0DF91CF911F910F9108950E94B3
:101880009C26F7CFCF92DF92EF92FF926C01EE246D
:10189000FF2420E0C114D104E104F10419F0C701D0
:1018A000B60120E1C72ED82EE92EFF24C114D104A1
:1018B000E104F10419F0285FC701B6016B017C0156
:1018C00054E0F694E794D794C7945A95D1F7C1148D
:1018D000D104E104F10419F02C5FC701B6016B01DA
:1018E0007C0142E0F694E794D794C7944A95D1F7E7
:1018F000C114D104E104F10419F02E5FC701B6014F
:101900009695879577956795672B682B692B09F0D6
:101910002F5F822FFF90EF90DF90CF900895089572
:101920000C948F0C81E008950C94920CCF93C82FE7
:101930000E94900C8C2FCF910C94940C972F70E0F8
:101940002AE0929F600D711D1124FB0198E7899F89
:10195000E00DF11D1124EE0FFF1FEE5BFD4F859191
:1019600094910895CF93DF930E949E0C0E94850D61
:10197000EC01811521E5920778F5811530E5930793
:1019800008F076C08F3B910580F4883A910508F005
:1019900064C0853A910508F058C08430910588F4F8
:1019A000019779F0D0E0C0E00CC08115904268F456
:1019B000C11581E0D80728F4CE01805E910908970F
:1019C00088F7CE01DF91CF910895C11590E4D90732
:1019D00048F3DF70D06AF5CF811524E5920778F4DB
:1019E000811533E5930708F06FC0811542E5940730
:1019F00008F05AC0D82FCC27C16FD06AE2CFC115EA
:101A00008AE5D80770F4C11599E5D90708F06FC0C9
:101A1000C11528E5D20730F2DC2FCC27C06FD06A81
:101A2000D0CFCE0190568115904208F0BBCF8D2FBC
:101A30008F710E941C0E90E0982F882788279F7135
:101A40009C012C2BE901D062BCCFC55AD0E0C05814
:101A5000DE4FC881D0E0D064B4CFC85AD0E0CC0FFC
:101A6000DD1FCE5ADE4F0990D881C02DD464A9CF96
:101A700064E0969587956A95E1F783702C2F2695FB
:101A80002695237040E2249F90011124382B8C2F3F
:101A90008370C1E0D0E002C0CC0FDD1F8A95E2F771
:101AA000C22BD32BDC688DCF8370992721E030E0E7
:101AB00002C0220F331F8A95E2F7C695C69580E2D1
:101AC000C89FE0011124ECCF8370992721E030E01A
:101AD00002C0220F331F8A95E2F7C695C69590E2A1
:101AE000C99FE0011124C22BD32BDA686ACF8C2F57
:101AF0008F700E941C0E34E0D695C7953A95E1F799
:101B0000CF709C2FEC01D0695CCF82389105B1F188
:101B1000B0F48133910509F475C048F48932910518
:101B200009F469C08A32910509F473C008958533B8
:101B3000910509F459C08933910501F10895833E57
:101B40009105A9F138F4803E9105F9F0823E9105A6
:101B500049F10895863E9105A9F1873E9105C9F1A5
:101B6000843E910519F52091A80321FF1FC08091A3
:101B7000A70384FD14C087EE90E008952091A70389
:101B80002370A1F080EE90E008952091A70320FD3E
:101B900047C03091A80330FF09C024FF44C090E043
:101BA00080E004C02091A70322FDF7CF0895209183
:101BB000A70322FD3BC03091A80330FDE3CF24FFF3
:101BC000F5CFEDCF2091A70323FFF0CF24FDE7CF82
:101BD000D2CF2091A70323FD2CC03091A80331FF61
:101BE000EECF84EE90E008952091A70325FFDECF8D
:101BF00089E290E008952091A70325FFD7CF85E3E0
:101C000090E008952091A70326FFD0CF8AE290E0CC
:101C100008952091A70326FFC9CF81E390E008959E
:101C200089E390E0089583EE90E0089582EE90E0DD
:101C3000089586EE90E008959091A70392FF06C064
:101C4000282F28712830F9F4877F846093FF06C01D
:101C5000282F28712831F1F4877E84612091A80310
:101C600020FF06C0382F38713830D9F4877F816063
:101C700021FF06C0282F28712831D1F4877E816189
:101C800094FD877E0895282F24712430F9F68B7FE8
:101C90008860DCCF282F2471243101F78B7E886186
:101CA000DDCF382F3171313019F78E7F8860E0CF6A
:101CB000282F2171213121F78E7E8861E1CF08958F
:101CC0000E94F325811102C00E949C260E94FE25DD
:101CD000809397030E940B269093A8038093A703F9
:101CE0000E945F0E0E940226682F70E090E080E064
:101CF0000E94C323609184037091850380918603C1
:101D0000909187030C94FB2308950C94840E0895FE
:101D10000C94870EE82FF0E0EE0FFF1FEF53FC4FFF
:101D2000808191810895089580EA8A95F1F7089558
:101D300000C008950C94940EF894E82FE295EF708B
:101D4000F0E031A1282F2F7081E090E001C0880FD2
:101D50002A95EAF7982F9095932391A392A1892B26
:101D600082A37894089508950C94B30E0F931F9353
:101D7000CF93DF93CDB7DEB766970FB6F894DEBF8B
:101D80000FBECDBF0E94B01080911701811134C0E9
:101D9000FE01379686E0DF011D928A95E9F781E919
:101DA000898380E98A8384E98B8386E68C8387E94B
:101DB0008D8386EC8E83CE010196EBE0F1E09E01EF
:101DC000235F3F4FDC014D91CD014193A217B30733
:101DD000C9F72AE0E0E4F1E0DE011D9601900D92E2
:101DE0002A95E1F7FC01A1E0B1E0CE0147962191EF
:101DF0002D93E817F907D9F78091170196E0811123
:101E000090E09093DA0386E0891B8093D9030BE07E
:101E100011E0F80181918F010E949C0EF1E00131E7
:101E20001F07B9F701E011E0D8018D918D010E94E3
:101E30009C0EB1E00B301B07B9F7E9EAF3E0A1EC27
:101E4000B3E0119211921D921D9283E0E13CF807DC
:101E5000C1F786E00E9459100E94E40B66960FB607
:101E6000F894DEBF0FBECDBFDF91CF911F910F91D0
:101E70000C94BA10CF92DF92FF920F931F93CF93DF
:101E8000DF93CDB7DEB72C970FB6F894DEBF0FBE49
:101E9000CDBF0E949310F82E6091DA03882309F4D5
:101EA00063C08E010F5F1F4F8CE0F80111928A957D
:101EB000E9F7862F90E0880F991FB8018F539C4F48
:101EC0000E94E81A81112AC0809160028F5F80937E
:101ED0006002863008F446C0E091D903F0E0EE0FCE
:101EE000FF1FEF53FC4FD801CE010D9611921192B6
:101EF0001D921D92A817B907C9F70E94E80B8F2DF4
:101F00002C960FB6F894DEBF0FBECDBFDF91CF91F8
:101F10001F910F91FF90DF90CF9008951092600273
:101F2000E091D903F0E0EE0FFF1F9F012F533C4FCC
:101F30006901D801AE01435F5F4FF12CF601619159
:101F400071916F012D913D916217730739F0BF01B7
:101F500062507109FB0131832083F82EA417B50765
:101F600069F7CBCFF12CC9CF70E0660F771F6F53A5
:101F70007C4F8091D90390E0880F991F8F539C4F1D
:101F80000E94171B0E94B40EBACF8F929F92AF92FD
:101F9000BF92CF92DF92EF92FF920F931F93CF9356
:101FA0000BE011E099EAE92E93E0F92E21E1A22E4F
:101FB00021E0B22EC0E0CC24C394D12CF801819151
:101FC0008F01F894E82FE295EF70F0E021A18F7077
:101FD000A60102C0440F551F8A95E2F7CA01922F4D
:101FE000982B91A392A18095892382A378940E9433
:101FF000980EE1E0F1E030E020E0912C812C41915D
:10200000A42FA295AF70B0E090968C9190E04F70A5
:1020100002C0959587954A95E2F780FD45C0C601B7
:10202000022E02C0880F991F0A94E2F7882A992A83
:102030002F5F3F4F2A30310511F7F801319780812A
:102040000E949C0E0E949A0EF70180819181881651
:10205000990669F19182808281E0C82BF2E0EF0E4F
:10206000F11CA016B10609F0A9CF6091DA0370E067
:10207000660F771F6F537C4F2C2F46E089EA93E061
:102080000E945A100E943A0FC11101C0C82F8C2F14
:10209000CF911F910F91FF90EF90DF90CF90BF9065
:1020A000AF909F908F90089590E080E0BFCF80E048
:1020B000D4CF0895FF920F931F93CF93DF93F82E01
:1020C000092F162FD72FC42F222349F081E08093A8
:1020D00063020E946727909362028093610280915D
:1020E00063028823A1F080916102909162020E94B4
:1020F0007F27069760F0EF2DF02FA12FBD2F90E0E6
:1021000080E0D0E08C179D0744F010926302DF91CD
:10211000CF911F910F91FF900895219131912D93AF
:102120003D930196EFCF80916402811107C00E9418
:102130001B33882351F081E08093640281E0909109
:102140006402913009F080E0089582E08093640297
:102150000E941633F3CF0E94931091E089270895CF
:102160000E94AB10809317010E94931081110C9470
:10217000DC1A08950E949310811102C00C94E21A97
:10218000089584E08093DB038FE78093DC038091E4
:10219000DD03807880648093DD03E9E6F2E08FEF71
:1021A000819392E0E13BF907D9F71092680210920F
:1021B0006702109266021092650208959091DB0307
:1021C000292F2F7095959595959595959F523CE063
:1021D000239F900D1124890F0895FF920F931F9351
:1021E000CF93DF93FB018F3A2CE5920708F085C06F
:1021F0008F394CE5940708F08DC180392CE59207A2
:1022000050F583384CE5940708F040C181382CE53F
:10221000920760F487374CE5940708F01FC18F32AE
:102220002CE5920708F0DFC0C1E011C181384CE510
:10223000940709F420C182389C45B1F78281882334
:1022400009F4EBC08091DB03982F9F70993008F060
:10225000E4C09F5F19C18D394CE59407A0F5823920
:102260002CE5920708F02FC180394CE5940709F45A
:1022700018C181399C45C1F68281882309F4CDC0FB
:102280002091DB03822F85958595859585958630F0
:102290000CF0C3C091E0980F9295907F959595951D
:1022A00095959595392F3295307F2F70232B20935C
:1022B000DB0318160CF0B1C097FFAFC08295807F8A
:1022C000922F9F70D4C08D394CE5940709F409C151
:1022D0008E399C4509F0A8CF8281882309F49DC0DE
:1022E0008091DC03982F9F779F3709F496C093372E
:1022F00008F00EC1935F9F77F2C0853B4CE59407D1
:1023000009F466C1C8F5813B4CE5940709F432C174
:10231000D8F48F3A4CE5940709F40EC1803B9C45F4
:1023200009F082CF8281882309F477C02091DC03F1
:10233000322F331F3327331F9091DD03892F87708E
:10234000880F832B8F5F09C16091DC033091DD031F
:102350002281833B4CE5940709F42EC108F420C187
:1023600021112FE7862F881F8827881F632F67700A
:10237000660F682B42E40FC1883B2CE5920709F4F5
:102380003AC180F4863B2CE5920709F421C1873BD2
:102390009C4509F049CF828181112BC18FEF809339
:1023A00067023BC08A3B2CE5920709F45AC108F446
:1023B00043C18B3B9C4509F037CFC2816091DC0360
:1023C000862F881F8827881F6091DD036770660F3E
:1023D000682BCC2309F455C14FEF5FE18DE595E003
:1023E0000E9466281AC02091DC03322F331F332746
:1023F000331FD091DD03D770DD0FD32BF22EE8947D
:10240000F7F8C28101ED080F10E007591D4FF801E0
:102410004081CC2389F04F3F11F0C0E018C00E94EA
:10242000DE10C82F2F2D482F6D2F8DE595E00E94CF
:102430004628F801C083F1CF4F3F31F02F2D6D2F8B
:102440008DE595E00E9456288FEFF80180838C2F50
:10245000DF91CF911F910F91FF9008952281222348
:10246000E1F28757982F9F708091DB03807F892B43
:102470008093DB03D2CF8281882379F28091DB03C2
:10248000982F9F7051F2915F9F70F0CF228122238D
:1024900021F28958982F9295907F8091DB038F705D
:1024A000E6CF8281882309F4B8CF8091DB03982F8F
:1024B00095959595959595959B3F0CF4AECF915F2D
:1024C0009295907FECCF2281222309F4A6CF8259E6
:1024D0009CE0899F902D11249F778091DC03807868
:1024E00015C08281882309F498CF8091DC03982F4E
:1024F0009F7709F492CF80789F3721F48567809386
:10250000DC038BCF9D30D8F39D509F77892BF7CF7D
:102510008F67F5CF2281222309F47FCF8F599091C5
:10252000DC0380FB97F99093DC038695877090918C
:10253000DD03987F892B7DC08281882309F46DCFCC
:102540002091DC03322F331F3327331F9091DD039B
:10255000892F8770880F832B815F382F3F7080FB16
:1025600027F92093DC03832F8695987F982B9093EF
:10257000DD0353CF8281882309F44FCF6091DC03C0
:10258000862F881F8827881F6091DD036770660F7C
:10259000682B20E04BE78DE595E00E9436283DCF83
:1025A00021112FE7862F881F8827881F632F6770C8
:1025B000660F682B40E4EFCF21112FE7862F881F8D
:1025C0008827881F632F6770660F682B41E4E3CF6D
:1025D000828120E081112FE76091DC03862F881F24
:1025E0008827881F6091DD036770660F682B43E4BE
:1025F000D2CF81E0D4CE8281882309F40ECF90918E
:10260000DD03292F2695269526952F7081E0820FD0
:102610008F70880F880F880F9778892B8093DD0340
:10262000982F987709F0F9CE220F220F220F877882
:10263000822B8093DD03F1CE8281882309F4EDCED5
:102640008091DD03982F987709F4E7CE982F96951F
:1026500096959695915F9F70990F990F990F87782E
:1026600069CFC2816091DC03862F881F8827881F6D
:102670006091DD036770660F682B40E050EEC1117A
:10268000ADCE50E040E08DE595E00E946628DFCEBB
:102690008DE595E00E94682A80916502909166021E
:1026A0000E947F272091DD032695269526952F7081
:1026B0002817190609F0A0F50E9467279093660273
:1026C0008093650280916702882351F16091DC0359
:1026D000862F881F8827881F6091DD036770660F2B
:1026E000682B2091680241E08DE595E00E94362834
:1026F000809167029091680287FF0DC0482F55278F
:1027000041950CF45095941715062CF4109268021C
:10271000109267020895890F87FD03C080936802B5
:1027200008958FE7FBCFEF92FF920F931F93CF9304
:10273000DF93EB01E82FD11110C0442321F0F0E02A
:10274000E35EF34FE4916E2F7E2F8E2FDF91CF91BA
:102750001F910F91FF90EF9008950D2F10E0282FFB
:1027600030E0442329F0235E334FF901249130E017
:10277000F6E0CF9FC0011124EFEFF0E0BF010E940F
:102780002833AB018C2F90E0880F991FA5E5A49FFB
:10279000B001A59F700D1124861B970B982F990FE0
:1027A000980FBF01601B710B629FD001639FB00D3A
:1027B000729FB00D11248B2F9D9FB0011124672FA4
:1027C0007727EF01C61BD70BBE01629FE001639F15
:1027D000D00D729FD00D11247F01E91AF108E09EFF
:1027E000B001E19E700DF09E700D1124672F7727C8
:1027F000E61BF70BE29F8001E39F100DF29F100D87
:102800001124E12F722F4230510599F048F44115FF
:10281000510569F04130510581F0EB2F8D2F07C034
:102820004430510569F080F046305105B1F76E2F04
:102830008DCFE22F7B2F812FFACFE22F7D2FF7CF85
:10284000EB2F822F712FF3CF7B2F822FED2FEFCF26
:1028500041E00C9493130C942814CF93DF93762FBC
:10286000E901682F842F0E942B14798368838A835F
:10287000DF91CF910895413508F040E50C942D1477
:102880008091DF03982F9E7F71F48091DF03817028
:1028900082608093DF038091E203813518F080E548
:1028A0008093E2030895843080F7F5CF88E090E0CC
:1028B0000C946733CF92DF92EF92FF926B017C0111
:1028C0000E944014B701A60188E090E0FF90EF90CD
:1028D000DF90CF900C948533EFEDF3E083E08083BD
:1028E00011828FEF828380E58383148260817181FE
:1028F000828193810C945A149091E303933018F4DD
:102900009F5F9093E303882351F06091DF03709100
:10291000E0038091E1039091E2030C945A1408952E
:1029200081E00C947C149091E303992319F0915069
:102930009093E303882351F06091DF037091E003EB
:102940008091E1039091E2030C945A14089581E080
:102950000C94931421E030E001C0220F8A95EAF72D
:102960009091B602922381E009F480E0089570E02E
:102970000C9495176F927F928F929F92AF92BF9215
:10298000CF92DF92EF92FF920F931F93CF93DF933B
:10299000CDB7DEB7C157D1400FB6F894DEBF0FBE3A
:1029A000CDBF709019019091DF0390FF47C0C09098
:1029B000B102D090B202C114D10409F052C0E2EACF
:1029C000FBE09E012F5F3F4FBE016E587E4FC90155
:1029D000A4914A2F50E0DA01AA0FBB1FA40FB51F24
:1029E000AC51BC4FCD90DD90EC90D901CD92DD92F1
:1029F000ED929D0131966A177B0751F720911801DE
:102A0000672DB3E02B9F800D911D11240E94B714F8
:102A1000CF58DE4F0FB6F894DEBF0FBECDBFDF91AB
:102A2000CF911F910F91FF90EF90DF90CF90BF90CB
:102A3000AF909F908F907F906F90089580911A0132
:102A400020911B0133E0839FF0011124EC51FC4FD6
:102A5000821708F0ACCF1182108212828F5F3396FA
:102A6000F7CF90FFACCFF12CE12C43E0642E8E2DFC
:102A70000E94AA14882309F43CC0F701EE0FFF1F3F
:102A8000EC0DFD1DA590B490A114B10409F497CFED
:102A900045E050E0B501CE0101960E945633098110
:102AA0000F3F39F18A81800F9927991F8C37910543
:102AB00014F08BE790E04C01880C991C880D991D4F
:102AC000DC01AC51BC4F4D01069D800111240C511D
:102AD0001C4F0815190520F0B5E0AB0EB11CD8CF7E
:102AE00098014D816C818B810E943B140D5F1F4FBB
:102AF000F0CF2FEFE21AF20A38E0E316F10409F002
:102B0000B6CF5DCFEFEDF3E080818E7F8083608173
:102B10007181828193810E945A142FEF80E792E0A5
:102B2000215080409040E1F700C000000C94BA149E
:102B30009091DF0390FF14C090911A0120911B0126
:102B400033E0939FF0011124EC51FC4F921710F0E9
:102B50000C94BA148183608342839F5F3396F6CFCF
:102B60000895EF92FF920F931F93CF93DF9300D0BE
:102B70000F92CDB7DEB7F82E062F142FE22E8091DC
:102B8000DF0380FF28C0E82FE695F0E0ED57FE4F09
:102B900090819093B4028E7F823059F49E012F5F12
:102BA0003F4F8F2D0E943B144B8169818A810E9487
:102BB0009815F092E0030093E1031093E203EE20F6
:102BC00051F06091DF037091E0038091E1039091F7
:102BD000E2030E945A140F900F900F90DF91CF9153
:102BE0001F910F91FF90EF900895EFEDF3E0918129
:102BF000282F4381628188E0890F0C94B11581E010
:102C00000C94F515EFEDF3E09181282F438162815B
:102C100088EF890F0C94B11581E00C940216EFED4A
:102C2000F3E0628121E1620F08F46FEF282F438106
:102C300081810C94B11581E00C940F16EFEDF3E057
:102C4000628121E1621B08F460E0282F43818181C9
:102C50000C94B11581E00C941E16EFEDF3E0438166
:102C600021E1420F08F44FEF282F628181810C94FB
:102C7000B11581E00C942D16EFEDF3E0438121E1D5
:102C8000421B08F440E0282F628181810C94B11529
:102C900081E00C943C1621E00C94B11520E00C94DA
:102CA000B1158091DF0380FF18C08170826080932E
:102CB000DF03662351F06091DF037091E0038091A0
:102CC000E1039091E2030E945A144091E203609163
:102CD000E1038091E0030C944E160895682F81E083
:102CE0000C94511681E00C946E16682F9091DF03BE
:102CF00096958FEF890F09F481E00C94511681E0CD
:102D00000C94751661E00C945116EFEDF3E08081A0
:102D10008160808386950C9482168091DF0380FD0C
:102D20000C9482150C94851660E00C9451168091D9
:102D3000B30281112CC00E94F325811104C00E94AE
:102D40009C260E946C140E9456146093DF037093BB
:102D5000E0038093E1039093E2036E7F61F40E94AD
:102D60006C140E9456146093DF037093E003809309
:102D7000E1039093E2030E9440148091DF0380FFFF
:102D800003C086950E94941681E08093B302089553
:102D900021E030E0A90102C0440F551F8A95E2F7F7
:102DA000CA012091B602662361F0822B8093B6029D
:102DB0008091B502811108C08091DF0386950C9443
:102DC000941680958223F2CF08959091DF0390FFAF
:102DD0000FC02B3768F430E0F901EE0FFF1FE20F50
:102DE000F31FEC51FC4F8183608342830C94BA142F
:102DF00008951F93CF93DF9300D00F92CDB7DEB726
:102E0000122F9091DF0390FF0BC09E012F5F3F4F69
:102E10000E943B14212F4B8169818A810E94E51613
:102E20000F900F900F90DF91CF911F910895FA01AD
:102E3000811101C0FB0109941F93CF93DF93EC0133
:102E4000FB01128111114FC00E94CB258272CA3C36
:102E5000FCE5DF0709F460C030F5C63CECE5DE07B1
:102E600009F455C060F4C43C9CE5D90709F443C09B
:102E700008F048C0C33CDC45D9F111E034C04AE257
:102E800056E16BE176E1C83C9CE5D907C1F14FEF13
:102E900055E16CE076E1C93CDC4588F14BE156E157
:102EA0006AE276E12CC0CE3CFCE5DF07D1F1A0F46C
:102EB00047EA54E160E974E1CC3CECE5DE07F9F067
:102EC00049E356E168E476E1CD3CDC45C0F040E9F9
:102ED00054E167EA74E113C0C73D8CE5D80718F0E8
:102EE000CE35DD4551F6812FDF91CF911F910895A9
:102EF0000E948D16F8CF4FE756E162E776E10E9417
:102F00001717F1CF42E756E16FE776E1F8CF4CE0D3
:102F100056E16FEF75E1F3CF48E456E169E376E1FE
:102F2000EECF81E00E948216DECF539A4BB1477FED
:102F30005BB15860EFB7F8949B01220F331F260F47
:102F4000371F280F391F2817390741F4EFBF8FE5C6
:102F500094E00197F1F700C000000895DC016D9145
:102F6000CD0178E05BB9000000C067FF4BB9660F88
:102F7000000000C000C000C04BB900C07A9591F7B6
:102F8000E2CF0C94820880911701811106C084E37E
:102F900080931E0186E380931D0120911E01A22FC4
:102FA000A295AF70B0E091963C9191972F7081E01F
:102FB00090E0BC01022E01C0660F0A94EAF7462F8A
:102FC0004095432391964C93919792963C9192977A
:102FD000362B92963C93929740911D01E42FE295F7
:102FE000EF70F0E031A14F70042E01C0880F0A94F9
:102FF000EAF7982F9095932391A392A1892B82A30E
:1030000090968C9190E002C0959587952A95E2F76D
:10301000817020A130E002C0359527954A95E2F7EE
:1030200092E020FF90E0892B8093BC0290911701E1
:1030300081E098279093B802891B8093B702089586
:10304000CF93E091BC02EE0FEE0F20911E01A22F54
:10305000A295AF70B0E090968C9190E02F7002C076
:10306000959587952A95E2F78170992740911D01E2
:10307000A42FA295AF70B0E090962C9130E04F70E5
:1030800002C0359527954A95E2F7A9014170552769
:1030900020FF02C042E050E0842BE82BE093BC020A
:1030A000C091B802EF70F0E0EB57FE4F8081909135
:1030B000BB02890F8093BB0220E0843064F0EC2FC8
:1030C000F0E0E754FD4F80818F5F808360E08C2FBC
:1030D0000E94C11721E08091BB028D3F64F4EC2F68
:1030E000F0E0E754FD4F80818150808361E08C2FB8
:1030F0000E94C11721E08091BB02082E000C990BA1
:1031000064E070E00E943C338093BB02822FCF9139
:103110000895E091B802F0E0E754FD4F2081FC01F2
:1031200020830895FF920F931F93CF93DF93D09145
:10313000B7020D2F10E007541D4FFC01C081F801AC
:103140008081C81BFC2E80E01F147CF09C2FC7FDE3
:1031500090E0C91BC11114C08823E9F0DF91CF9121
:103160001F910F91FF900C94E71CFA94F801808155
:103170008F5F808360E08D2F0E94C11781E0E4CFD4
:10318000CF5FF80180818150808361E08D2F0E94A4
:10319000C11781E0DFCFDF91CF911F910F91FF9099
:1031A00008950F931F93CF93DF93C42FD22FFC0169
:1031B00082818823C9F04093BF020E9467279093C1
:1031C000BE028093BD0280E28C0F883008F050C0B0
:1031D000C77081E001C0880FCA95EAF7DF91CF91EF
:1031E0001F910F910C94A01E1091BF02141335C0B3
:1031F0008091BD029091BE020E947F27883C91057C
:1032000060F5C0E2CD0F1D17B9F080E2810F883064
:1032100040F4177081E001C0880F1A95EAF70E9408
:10322000A71EC83048F481E09D2F977001C0880F19
:103230009A95EAF70E94A01E802F0E94981EC8301F
:10324000B8F4D77081E001C0880FDA95EAF7DF9112
:10325000CF911F910F910C94A71E80E28C0F8830A4
:1032600038F4C77081E001C0880FCA95EAF7EFCF44
:10327000DF91CF911F910F9108950F939C01CB0186
:10328000243F4CE5340759F1A8F4293DFCE53F07FC
:1032900001F12A3D4CE53407D1F1283D3C4591F43C
:1032A00006E221EE41EE68ED7CE50E94D11880E057
:1032B0000F910895263FFCE53F07E9F0B0F0273F66
:1032C0003C45F9F0FC018281882339F11092BF025C
:1032D000EFCF07E225EE45EE69ED7CE5E6CF06E2AD
:1032E00021EE40EE64EF7CE5E0CF07E225EE44EE10
:1032F00065EF7CE5DACF06E221EE42EE66EF7CE593
:10330000D4CF07E225EE46EE67EF7CE5CECF08E2AC
:1033100021E045EE6AED7CE5C8CF81E0C9CFCF93CF
:10332000DF93EC01FB018281882309F419C1C230CB
:10333000FCE5DF07C0F1C6319CE5D90730F09E01FE
:103340002B5F3C452930310570F50E940B26909388
:10335000A8038093A703C031ECE5DE0709F4CFC0D2
:1033600008F05BC0C8308CE5D80709F4B6C088F512
:10337000C430ECE5DE0709F4A8C0C0F4C2308CE527
:10338000D80709F49CC08091A7038260C330DC4554
:1033900009F498C08091A7039091A8030E94192670
:1033A0000E94A32080E0DF91CF9108958091A70330
:1033B0008061C630ECE5DE0709F484C08091A70384
:1033C0008860C730DC4508F47DC08091A703806227
:1033D00079C0CC308CE5D80709F489C070F48091AD
:1033E000A7038C60CA30ECE5DE0709F46BC008F473
:1033F00078C08091A7038E7F65C0CE308CE5D8075A
:1034000009F479C08091A7038B7FCF30DC4508F4A5
:1034100059C08091A7038F7E55C0CC3FECE5DE07F5
:1034200009F457C030F5C3318CE5D80709F46FC0F3
:1034300078F4C131ECE5DE0709F465C0C231DC4542
:1034400009F0A8CF0E94A3208091A7038F773AC0EC
:10345000C5318CE5D80709F462C008F476C08091C4
:10346000A8038160CB3FDC4509F094CF8093A8038B
:1034700091CFC115FDE5DF0709F44DC088F48091B7
:10348000A8038D7FCE3F9CE5D90781F38091A803E7
:103490008E7FCF3FDC4550F38091A8038360E6CF59
:1034A000C230FDE5DF0709F459C008F444C080E0EC
:1034B000C330DD4509F06ECF0E949E266BCF809110
:1034C000A70381608093A70365CF8091A7038460E1
:1034D000F9CF8091A8038260C9CF8091A70380644F
:1034E000F1CF0E94A3208091A7038068EBCF809149
:1034F000A7038D7FE7CF8091A703877FE3CF8091DC
:10350000A7038F7DDFCF8091A7038F7BDBCF8091D7
:10351000A703837FD7CF8091A8038C7FA7CF80910B
:10352000A70382FB992790F921E0922790FB82F96B
:1035300090FB83F9C7CF8091A803982F9095917045
:103540008E7F892B90FB81F991CF0E94A3209091CF
:10355000A703892F97FB87F98058B4CF81E0ACCFC0
:1035600081E021CFCF93DF93EB0186319C4511F5AC
:103570000E94CB259A81992399F08A7A91E009F4E7
:1035800090E09093C002811109C089E20E949825C1
:103590000E94AC2580E0DF91CF91089585E3F6CFBE
:1035A0008091C002811104C089E20E949F25F0CF62
:1035B00085E3FBCF81E0EFCF61E070E08FE191E048
:1035C0000C949E1B61E070E08FE191E00C94A51BD0
:1035D000CF93DF93D62FC72F0E943F1C009729F56A
:1035E000ED2FFC2FDC01AA0FBB1FAA53BD4F2D915D
:1035F0003C912193319301968630910599F782EDA4
:1036000092E00E9492180E94D8276E5F7F4F8F4FE2
:103610009F4F6093C2027093C3028093C402909341
:10362000C50281E0DF91CF91089580E0FBCFCF9379
:10363000DF93D62FC72F6091C2027091C302809191
:10364000C4029091C5020E94BB27ED2FFC2F90E091
:1036500080E021913191DC01AA0FBB1FAA53BD4F1D
:1036600011963C932E9301968630910591F782ED49
:1036700092E0DF91CF910C9489188EE14A9B02C0B1
:103680008150E1F74A9BFECF08955A9880E28A95CF
:10369000F1F75A9A0895FC013BE03A95F1F798E06A
:1036A00020E080E031E040E14A95F1F7880F4A9B45
:1036B00002C08160232742E04A95F1F7000040E113
:1036C0004A95F1F7915079F790E19A95F1F799B110
:1036D00032E03A95F1F7000040E14A95F1F792FBAC
:1036E000992790F992272081920F90830895EF9265
:1036F000FF920F931F93CF93DF930F92CDB7DEB757
:1037000019828C017C01E60EF11C0E151F0561F477
:1037100081E09981911180E00F90DF91CF911F910D
:103720000F91FF90EF9008950E943D1BCE010196EE
:103730000E944B1BF80181938F01E7CF9093D40235
:103740008093D302529A5A9A08959093D402809308
:10375000D30252985A9AEA9AE9E6F0E080818F7C87
:10376000808308956150770B91E001C0990F6A95AD
:10377000EAF720E031E0911108C0222391F05A9A33
:1037800080E28A95F1F75A980895492F482339F035
:103790005A9A232740E24A95F1F79695ECCF5A982A
:1037A000F9CF5A98EDCFFF920F931F93CF93DF93EA
:1037B000EC018C01060F111DC017D10731F4DF9108
:1037C000CF911F910F91FF900895F9900E94451B92
:1037D00068E08F2D0E94B21BEFCF1F920F920FB6A1
:1037E0000F9211242F933F934F935F936F937F9387
:1037F0008F939F93AF93BF93CF93DF93EF93FF93F9
:103800005A98529AC091D302D091D4026D81662306
:1038100021F08E819F810E94D31B0E94451B80E175
:103820008A95F1F75A9852985A9A80E18A95F1F759
:103830006A81662309F18B819C810E94771BE88154
:10384000F981882311F088E001C082E080830E9422
:103850003D1BFF91EF91DF91CF91BF91AF919F9170
:103860008F917F916F915F914F913F912F910F9029
:103870000FBE0F901F901895E881F981E4CFCF9388
:10388000DF93C091D302D091D402F894529A5A98FF
:1038900085E08A95F1F7000052985A9A80E28A955D
:1038A000F1F74A9B0CC0529A5A9AE881F98181E05B
:1038B0008083789481E090E0DF91CF9108956D81CD
:1038C000662381F08E819F810E94771B81110AC03F
:1038D000529A5A9AE881F98182E08083789482E052
:1038E00090E0EACF0E943D1B80E28A95F1F75A985A
:1038F000529A80E18A95F1F76A81662321F08B81E3
:103900009C810E94D31B0E94451BE881F981108293
:10391000789490E080E0D0CF9093DA028093D9023F
:103920000895E091D902F091DA02309721F00190E8
:10393000F081E02D099480E00895E091D902F091A2
:10394000DA02309721F00280F381E02D0994089586
:103950002091D7023091D8022817390771F090933F
:10396000D8028093D702E091D902F091DA02309721
:1039700021F00680F781E02D099408952091D50269
:103980003091D6022817390771F09093D6028093B0
:10399000D502E091D902F091DA02309721F000844B
:1039A000F185E02D099408950E9473276093FC022D
:1039B0007093FD028093FE029093FF026093F802E1
:1039C0007093F9028093FA029093FB0208950E948B
:1039D00073276093FC027093FD028093FE02909324
:1039E000FF026093F4027093F5028093F6029093C5
:1039F000F702089585B7806885BF85B7806885BF61
:103A00000895089508950C94011D0C94ED080E94EA
:103A1000FA1C81EF95E20E9404280E94021D0C947A
:103A2000031D0C949310089508950E94131D0C9487
:103A3000141D0E945E270E94B2270E94B60E0E94AB
:103A400097160E94C3170C94051D8F929F92AF92F8
:103A5000BF92CF92DF92EF92FF920F931F93CF937B
:103A6000DF93CDB7DEB72A970FB6F894DEBF0FBE4F
:103A7000CDBF0E94C50F81110E94D41C5CED852E24
:103A800052E0952E10E000E0A02E802F0E948A0EBA
:103A90006C01F401E190F1904F01E816F90609F488
:103AA00061C08091970381FD0E94930EC7018C2510
:103AB0009D25B12CEE24E394F12C9C012E213F2175
:103AC000232B09F449C00E94111D8823A9F0BE824E
:103AD000AF82CE20DF2081E0CD2809F480E0888706
:103AE0000E9467278160782F9A8789874E815F813E
:103AF00068858A850E94DC1D000F111FF801E452C1
:103B0000FD4F80819181E826F926F182E0820E94B2
:103B1000201881110E94E71C0E9448130E94911CEA
:103B20009091DB028917A9F10E94911C8093DB021E
:103B30002A960FB6F894DEBF0FBECDBFDF91CF91AE
:103B40001F910F91FF90EF90DF90CF90BF90AF90BB
:103B50009F908F900C94960CB394EE0CFF1CFAE09F
:103B6000BF12ABCF0F5F1F4F0C30110509F08CCF88
:103B70008FEF89838A831B820E9467278160782F59
:103B80009D838C8349815A816B818D810E94DC1DCC
:103B9000BECF2A960FB6F894DEBF0FBECDBFDF9121
:103BA000CF911F910F91FF90EF90DF90CF90BF903A
:103BB000AF909F908F900895DF92EF92FF920F93B6
:103BC0001F93CF93DF93CDB7DEB72B970FB6F89443
:103BD000DEBF0FBECDBF7A878B87F42E052F162F41
:103BE000E72ED82E61110E94EB251E821D827E2DAC
:103BF000EC82DD824F2D502F612F8D2D9E812B96D3
:103C00000FB6F894DEBF0FBECDBFDF91CF911F91ED
:103C10000F91FF90EF90DF900C941923FC018081AD
:103C200091810C946A25CF93C82F882309F43FC053
:103C30008CEF8C0F813AA0F46C2F8091270190912A
:103C400028010E94A326882329F08C2F0E949F25FB
:103C50000E94AC258C2F0E949825CF910C94AC2506
:103C600080E28C0F883048F4C77081E001C0880F73
:103C7000CA95EAF70E94CE25F0CFEBE5EC0FE330D2
:103C800040F4F0E0ED53FE4F808190E0CF910C9432
:103C9000A81CC85AC73158F4EC2FF0E0EE0FFF1FF4
:103CA000EB56FE4F80819181CF910C94BE1CCF9139
:103CB0000895882329F19CEF980F913A20F40E94EF
:103CC0009F250C94AC2590E2980F983050F48770A3
:103CD00091E001C0990F8A95EAF7892F0E94D425B7
:103CE000F0CF9BE5980F933020F490E080E00C94A7
:103CF000A81C885A873120F490E080E00C94BE1C08
:103D000008951F93CF93DF93182FEB010E94131E8A
:103D1000209731F4812FDF91CF911F910C94591E80
:103D20008FE99FE00197F1F700C000002197F0CFE5
:103D30006AE070E0893311F460E570E00C94811E54
:103D4000882321F00E94CE250C94AC250895882369
:103D500021F00E94D4250C94AC250895CF92DF92D7
:103D6000EF92FF920F931F93CF93DF93DC01C62F47
:103D7000972F12962C91129715964C911597342FD8
:103D800032953F70872F82958F70082F10E08C300E
:103D900090F5F801E755FC4C0C945033D72FDF70A9
:103DA000907F11F0D295D07F2223A9F0DD2359F026
:103DB00080E28C0F883010F0C11109C08D2F0E9455
:103DC000CE250E94AC258C2F0E94131E14C08D2F6F
:103DD0000E94DE25F6CF8C2F0E94591EDD2359F05C
:103DE00080E28C0F883010F0C11117C08D2F0E9417
:103DF000D4250E94AC25085011090430110508F0A3
:103E000046C10E94911CDF91CF911F910F91FF90AD
:103E1000EF90DF90CF900C94960C8D2F0E94E425AC
:103E2000E8CF872F8F70907F903211F08295807F3E
:103E3000C13061F4222329F03630E8F60E94A01E3A
:103E4000DACF3530C0F60E94A71ED5CF222341F02D
:103E50003323A1F340FFB7CF4F7015964C93EECFAD
:103E6000332389F3C93309F00AC12FEF87EE93E0BA
:103E7000215080409040E1F700C000008C2F0E944C
:103E8000591EB9CF872F86958695837061F0813052
:103E900009F0B1CF862F9370211102C090E080E02D
:103EA0000E94BE1CA8CF862F9370211102C090E003
:103EB00080E00E94A81C9FCF872F837009F044C028
:103EC000211199CF862F829586958770880F880F4C
:103ED0006F70C62ED12CF12CE12C082E04C0CC0C16
:103EE000DD1CEE1CFF1C0A94D2F740E050E0BA0142
:103EF000C4FF0FC04FE050E060E070E004C0440F2A
:103F0000551F661F771F8A95D2F74095509560958B
:103F10007095292F269526952370CB01BA016C291F
:103F20007D298E299F29223049F058F4213019F03B
:103F30000E94D72360CF0E94C5235DCF0E94E92352
:103F40005ACF0E94C32357CF8695222311F0872F83
:103F50008170882309F44FCF8C2F829586958770C6
:103F6000880F880F6C2F6F70C62ED12CF12CE12C8E
:103F7000082E04C0CC0CDD1CEE1CFF1C0A94D2F7EA
:103F800040E050E0BA01C4FF0FC04FE050E060E0F5
:103F900070E004C0440F551F661F771F8A95D2F743
:103FA0004095509560957095292F269526952370FC
:103FB000CB01BA016C297D298E299F29223049F035
:103FC00058F4213019F00E94AF2415CF0E949D248F
:103FD00012CF0E94C1240FCF0E94FD230CCFD72FF8
:103FE000DF70222329F08D2F0E9438248C2F26CFBA
:103FF000862F0E94A71E8D2F0E945924FCCE613F60
:1040000019F148F4603F91F0222369F13111DBCEC0
:10401000892F8F711DC0623FF1F0633FA9F7222302
:10402000F9F0872F8F710E942324E5CE222341F0DF
:10403000353008F0E0CE892F8F710E947C24DBCED2
:10404000363008F0D8CEF7CF872F8F712223A1F218
:104050000E943824D0CE872F8F712223C9F3CCCF72
:104060000E940924C8CE332379F0C93341F49FEF6D
:1040700027EE83E0915020408040E1F7FDCE8FE3B2
:104080009CE90197F1F7F8CE892F8F71B5CFDF91B9
:10409000CF911F910F91FF90EF90DF90CF900895F7
:1040A0000F931F93CF93DF93EC01688179818A810D
:1040B0000E9474258C010E94D3240E94C223B8015F
:1040C000CE01DF91CF911F910F910C94AE1ECF9333
:1040D000DF93EC018B819C81892B29F08881998168
:1040E00089238F3F19F4DF91CF910895CE010E946B
:1040F000FA0B8823C1F3CE010E945020CE01DF913C
:10410000CF910C94C60B882321F00E94DE250C94DD
:10411000AC250895882321F00E94E4250C94AC2559
:10412000089590E080E00E94A81C90E080E00E944A
:10413000BE1C0E94EB250E94EE250C94AC250E942B
:10414000A6250C9491200E94DB250C949F20E92F3A
:10415000E295EF70E250EE3070F4F0E0EB54FC4C7E
:104160000C945033803F19F020F4883E20F481E015
:104170000895843FE1F380E00895883EC0F3813FD5
:10418000D1F7F5CF93FB882780F908950E946A251F
:104190000C94A720CF93DF9300D000D00F92CDB71F
:1041A000DEB70F900F900F900F900F90DF91CF918F
:1041B0000895CF93DF9300D000D000D0CDB7DEB705
:1041C00026960FB6F894DEBF0FBECDBFDF91CF911C
:1041D00008951F93CF93DF93C091010316E0809160
:1041E00002038C1304C0DF91CF911F910895D0E09A
:1041F0001C9FF0011D9FF00D1124ED5FFC4F4081CD
:10420000518162817381848195810E94D920219698
:10421000C770E5CF4091330350913403609135036B
:104220007091360380913703909138030C94D92014
:104230001F93CF93DF9380913803807FA9F48091FF
:104240003503882389F080910103C09102036091B6
:10425000330370913403A0913603B0913703D62F06
:10426000D72316E0C81304C0DF91CF911F910895A2
:1042700090E0109711F0DF3F19F401968770F2CFAC
:10428000189F9001199F300D1124F901ED5FFC4F2B
:1042900041814713F2CF40814613EFCF4281411154
:1042A000ECCF438154814A1B5B0B483C510528F7F6
:1042B000809138038F70806180933803F901E85F43
:1042C000FC4F80818F708061808383E393E00E9444
:1042D0006720DF91CF911F910C94E920AF92BF929C
:1042E000CF92DF92EF92FF920F931F93CF93DF93C2
:1042F000CDB7DEB761970FB6F894DEBF0FBECDBF66
:104300008C0185E0F801DE011D9601900D928A95E1
:10431000E1F7F80140815181E28083E3C82E83E018
:10432000D82E60913603709137036115710509F439
:1043300061C19091330320913403892F82238F3FF1
:1043400009F458C1A380B480F0903503F501E61B51
:10435000F70BFF2009F4FCC080913803382F307F21
:10436000E83CF10508F0B2C0311179C0FE2C2513EC
:1043700023C0941321C0E1101FC08F70806180930F
:1043800038030E940A21C6010E94672080913803E9
:10439000F80185838F2D61960FB6F894DEBF0FBEAE
:1043A000CDBFDF91CF911F910F91FF90EF90DF90E4
:1043B000CF90BF90AF900895AB2829F0842F85232C
:1043C0008F3F09F033C180E0F82FF170DF2E80FFBE
:1043D0003CC0809101032091020336E0821315C096
:1043E0004D875E878D859E850E946A25292F22959F
:1043F0002F702230F0F0243018F59F70F1F0F801A2
:104400009581907FD1F4D12C1EC090E0389FF001AF
:10441000399FF00D1124ED5FFC4F6181651306C0DB
:104420006081641303C062816E110FC001968770B2
:10443000D5CF9F7011F0882331F3805E883018F358
:10444000C8010E946720FD2CA5CFEE2009F4A2CF61
:1044500080913803816080933803F12C9BCF251322
:1044600006C0941304C0F801EE2009F48DC04D87F6
:104470005E878D859E850E94C620882319F1EE20D7
:1044800009F180913803803270F02091330330912C
:10449000340338872F831986BB86AA868C87CE0182
:1044A00007960E94672086E0F801A3E3B3E001903D
:1044B0000D928A95E1F70E9418210E940A21FF249B
:1044C000F39468CFC8010E946720F9CF311113C05F
:1044D0007A2DB98AA88A6E2D89890E94CA2083E321
:1044E00093E00E94672086E0F60111928A95E9F731
:1044F0000E940A21B2CF25130FC094130DC0E11002
:104500000BC0F8018583C8010E94672086E0F60190
:1045100011928A95E9F73ECF4D875E878D859E85FE
:104520000E94C620882371F2EE2061F28091380348
:10453000803208F4B8CF20913303309134033A83AA
:1045400029831B82BD82AC828E83CE010196A9CFC6
:10455000E83CF10508F041C0FE2CEE2009F4B2CF92
:1045600025132AC0941328C08091380380FD1BC0F6
:10457000982F907FC1F0F8018583903F31F0982FFC
:10458000907F905F8F70892B8583C8010E94672080
:1045900086E0F801A3E3B3E001900D928A95E1F77C
:1045A0000E940A21F7CE86E0F801A3E3B3E0019070
:1045B0000D928A95E1F7EECE4D875E878D859E85BB
:1045C0000E94C62081116FCF809138038160809353
:1045D0003803C8010E946720DDCE7A2DB98AA88AE7
:1045E0006E2D89890E94CA2086E0F60111928A9573
:1045F000E9F7D6CFEE2009F465CF4D875E878D852C
:104600009E850E94C620F82E882309F45BCF86E0A1
:10461000F801A3E3B3E001900D928A95E1F783E3FB
:1046200093E00E940E1E0E941821BACF81E08E25D1
:10463000CBCE1F93CF93DF93CDB7DEB72C970FB6BA
:10464000F894DEBF0FBECDBF4F83588769877A8746
:104650008B879C87CE0107960E946E21882369F084
:104660008A859B85892B39F04F815885842F852336
:104670008F3F09F071C016E05FC086E0FE013796FB
:10468000DE01119601900D928A95E1F78A859B854E
:10469000892B89F38F81988589238F3F61F320913E
:1046A000020330E0C9010196877099274091010308
:1046B0004817190671F40E94A32010920203109269
:1046C000010386E0E3E3F3E0DF011D928A95E9F759
:1046D000D2CF96E0929FD001939FB00D1124AD5F91
:1046E000BC4FFE01319601900D929A95E1F78093AF
:1046F00002030E94E920BFCF819FC00111248D5F7A
:104700009C4F0E946E218823E9F0E09101031E9FD7
:10471000F0011124ED5FFC4F408151816281738172
:10472000848195810E94D9208091010390E00196B7
:104730008770992780930103809101039091020370
:104740008913DACF2C960FB6F894DEBF0FBECDBF1B
:10475000DF91CF911F91089569857A858B859C851E
:104760000E94D92088CF08950C94B3230E94B423CB
:10477000609388037093890380938A0390938B03DB
:104780000C94912008950C94B6230F931F930091DD
:1047900088031091890320918A0330918B03602B49
:1047A000712B822B932B1F910F910C94B6230F9397
:1047B0001F93009188031091890320918A033091FF
:1047C0008B0360237123822393231F910F910C94F9
:1047D000B6230F931F9300918803109189032091B2
:1047E0008A0330918B0360277127822793271F91BB
:1047F0000F910C94B6230C94D0080E94FB23609375
:1048000084037093850380938603909387030C94AD
:10481000912060E070E0CB010C94FD2361157105DF
:104820008105910529F481E0442361F080E0089539
:10483000DC01CB0104C0B695A795979587954A955D
:10484000D2F7817008950F931F9341E050E060E02C
:1048500070E08A019B0104C0000F111F221F331F4B
:104860008A95D2F7C901B8011F910F910C94FD23CD
:104870000F931F9341E050E060E070E004C0440FEC
:10488000551F661F771F8A95D2F7809184039091F8
:104890008503A0918603B09187038A019B01082BB1
:1048A000192B2A2B3B2BC901B8011F910F910C9496
:1048B000FD230F931F9341E050E060E070E004C0DF
:1048C000440F551F661F771F8A95D2F7CB01BA0197
:1048D0006095709580959095009184031091850363
:1048E00020918603309187036023712382239323D1
:1048F0001F910F910C94FD230F931F9341E050E003
:1049000060E070E004C0440F551F661F771F8A9552
:10491000D2F78091840390918503A0918603B09192
:1049200087038A019B01082719272A273B27C901EA
:10493000B8011F910F910C94FD230F931F930091C9
:104940008403109185032091860330918703602BA7
:10495000712B822B932B1F910F910C94FD230F939E
:104960001F93009184031091850320918603309159
:10497000870360237123822393231F910F910C944B
:10498000FD230F931F9300918403109185032091C1
:1049900086033091870360277127822793271F9111
:1049A0000F910C94FD2308952AE0929F800D11240D
:1049B000982F977041E001C0440F9A95EAF78695C9
:1049C0008695869595E0899FF0011124E75CFC4F60
:1049D00090E080E070E05191DF0111979B01082E7B
:1049E00002C0369527950A94E2F721702195252774
:1049F000242325272C9301968530910561F708958E
:104A00002AE0929F800D1124982F977086958695A5
:104A1000869525E0829FF0011124E75CFC4F50E071
:104A200040E080E0219130E0092E02C036952795C4
:104A30000A94E2F721703327042E01C0220F0A9452
:104A4000EAF7822B4F5F5F4F4530510559F70895C4
:104A5000BF92CF92DF92EF92FF920F931F93CF936B
:104A6000DF938C01C0908403D0908503E09086038F
:104A7000F09087038091880390918903A0918A0325
:104A8000B0918B03C82AD92AEA2AFB2ACFE1D0E0C9
:104A9000BC2ED701C6010C2E04C0B695A7959795DC
:104AA00087950A94D2F780FD0EC0219788F7B12C24
:104AB0008B2DDF91CF911F910F91FF90EF90DF90A1
:104AC000CF90BF900895B8018C2F0E94B20C01972F
:104AD00061F3EECFCF93DF93EC010E942825BE0156
:104AE000DF91CF910C94B20C1F93CF93DF93EB0126
:104AF00090910003992331F0CB01DF91CF911F9169
:104B00000C946A25882379F0CB010E942825182F60
:104B1000682FCE010E94D424BE01812FDF91CF9156
:104B20001F910C94B20CCB010E940025182FF4CFDA
:104B3000682F80912701909128010C94D926682F25
:104B400080912701909128010C94DB268091270108
:104B5000909128010C94DD26E0912701F091280125
:104B6000809196038083E0912701F0912801808154
:104B700090919503892B8083E0912701F091280182
:104B8000808190919403892B80838091270190915B
:104B900028010C949D1C8091960308959091960392
:104BA000892B80939603089580959091960398237E
:104BB000909396030895109296030895909195030B
:104BC000892B809395030895809590919503982360
:104BD000909395030895109295030895109294036D
:104BE000089580E0089590E080E00E946D3321E018
:104BF0008A3E9E4F09F020E0822F089582E090E0E7
:104C00000C945F3383E090E00C945F33682F83E073
:104C100090E00C947333CF9384E090E00E945F3374
:104C2000C82F82E290E00E945F33982F8C2FCF91A3
:104C30000895CF93C92F682F84E090E00E947333CA
:104C40006C2F82E290E0CF910C947333AB01BC01E6
:104C50008FE090E00C94853383E190E00C9467330F
:104C6000AB01BC0183E190E00C94853360E070E01F
:104C7000CB010E9426260C9440096AEE7EEF90E05C
:104C800080E00E94913360E082E090E00E94733304
:104C900060E083E090E00E947333109288031092EA
:104CA000890310928A0310928B0360E084E090E005
:104CB0000E94733360E082E290E00E94733360E010
:104CC00085E090E00E94733360E086E090E00E940F
:104CD00073336FEF87E090E00E94733340E050E061
:104CE000BA0188E090E00E94853360E08DE090E0BA
:104CF0000E94733340E050E0BA0188E190E00E94E6
:104D0000853360E087E190E00E94733340E050E03B
:104D1000BA018CE190E00E94853370E060E080E2AF
:104D200090E00E94913340E050E0BA0188E190E0C9
:104D30000E9485330C9436260C943D26682F8EE015
:104D400090E00C947333662349F0FC013296089688
:104D50002191261729F0E817F907D1F780E0089587
:104D600081E008959C01FC0132969FEF80E0419123
:104D7000461751F09F3F19F4411101C0982F8F5FE2
:104D80008630A9F79F3F09F40895290F311D97FD3B
:104D90003A95F90162830895FC01329608962191B3
:104DA000261303C0DF0111971C92E817F907B9F722
:104DB00008950C94B2260C94CC26029626E0FC01B1
:104DC00011922A95E9F70895089508950C94E5261F
:104DD00080914E06843049F10E94E62680E00E94D0
:104DE000960C1092980388E190E020E40FB6F894B6
:104DF000A895809360000FBE2093600083B7817FE9
:104E0000846083BF83B7816083BF7894889583B7BC
:104E10008E7F83BF0FB6F894A8958091600088615B
:104E200080936000109260000FBE08950895CF93A4
:104E30000E94E4260E94C50F0E941627C0E08C2F16
:104E40000E948A0E892B31F4CF5FCC30C1F780E00D
:104E5000CF91089581E0FCCF08950C942C270E94F7
:104E6000A3200E94911C0E94960C0C942D271F9247
:104E70001FB61F9211248F939F93AF93BF9380917E
:104E80009803811113C08091550590915605A0910A
:104E90005705B09158054196A11DB11D8093550548
:104EA00090935605A0935705B0935805BF91AF91C5
:104EB0009F918F911F901FBE1F90189582E084BD17
:104EC00093E095BD9AEF97BD80936E0008952FB73C
:104ED000F8948091550590915605A0915705B09191
:104EE00058052FBF08952FB7F8946091550570911C
:104EF000560580915705909158052FBF08959C0144
:104F00004FB7F8948091550590915605A09157059B
:104F1000B09158054FBF821B930B089578941F9250
:104F20001FB61F9211248F939F93AF93BF938091CD
:104F3000550590915605A0915705B09158050196D9
:104F4000A11DB11D8093550590935605A09357055B
:104F5000B0935805BF91AF919F918F911F901FBE45
:104F60001F9018951092590510925A0510925B05E2
:104F700010925C050895CF92DF92EF92FF926B0141
:104F80007C010E94931081110EC00E947327C61AE3
:104F9000D70AE80AF90AC0925905D0925A05E09258
:104FA0005B05F0925C05FF90EF90DF90CF90089545
:104FB0000F931F930E949310882321F01F910F914C
:104FC0000C9473270E9473270091590510915A057C
:104FD00020915B0530915C05600F711F821F931F4C
:104FE0001F910F91089587E797E7909301088093A9
:104FF000000888E19AE00FB6F894A89580936000C5
:105000000FBE90936000FFCF9093D7018093D6019D
:105010000895881F8827881F089591E0883F08F425
:1050200090E0892F0895982F907F903BE9F040F40D
:105030009039D1F0903AC1F09038B1F080E0089505
:10504000903D19F020F4903CC9F782E00895903E1D
:1050500059F0903F99F7815F8F3080F7E82FF0E0AB
:10506000EA53FE4F8081089583E008950F93022F45
:105070000F77242F2F776F70462F406BDC01ED9157
:10508000FC9163E070E009950F9108950F93022F52
:105090000F77242F2F776F70462F4069DC01ED9139
:1050A000FC9163E070E009950F9108950F93022F32
:1050B0000F77242F2F776F70462F4068DC01ED911A
:1050C000FC9163E070E009950F9108950F931F9391
:1050D000411520E2520744F49A01305E4115504ECA
:1050E0002CF430E020E002C02FEF3FE38901000FF5
:1050F000012F001F110B11952F776F70462F406EF7
:10510000DC01ED91FC9163E070E009951F910F9136
:105110000895FC01738362830895FC01758F648F89
:105120000895CF93DF93EC011DA21FA21EA2BC0124
:10513000685D7F4F40EC88519F4F0E949C2A1B82E4
:105140001A821D821C821F821E82198618861B8667
:105150001A861D861C861F861E86198A188A1B8A37
:105160001A8A1D8A1C8A1F8A1E8A198E188E1B8E07
:105170001A8E1D8E1C8E1F8E1E8E19A218A2DF91F4
:10518000CF910895EF92FF920F931F93CF93DF93E8
:10519000EA018A01060F111D88519F4F7C01C0173B
:1051A000D10739F4DF91CF911F910F91FF90EF90CC
:1051B00008956991C7010E94A32AF1CFFC01718370
:1051C00060830895FC0171A360A30895AF92BF921C
:1051D000CF92DF92EF92FF920F931F93CF93DF93C3
:1051E00000D00F92CDB7DEB77C016B01142FB22E29
:1051F000A02EDC0195968C9195978430A9F55A964E
:10520000ED91FC913097E9F1CB01019763E070E0FB
:105210000E942833CB01880F991F860F971F49835F
:10522000BA820B834C2D481B9E012F5F3F4FBC0160
:10523000C7010995D7015E96ED91FC91309731F049
:105240000A2D2B2D412FB601C70109950F900F9004
:105250000F90DF91CF911F910F91FF90EF90DF9012
:10526000CF90BF90AF9008956230710509F455C09A
:105270006330710599F06130710509F481C0D12C5A
:10528000C12CD7015C96ED91FC91309799F20A2DD3
:105290002B2D412FB601C7010995CCCF842F807FDC
:1052A000803A11F148F48038D1F0803951F7D701B4
:1052B0001496ED91FC910AC0803ED9F0803FF1F048
:1052C000803BF9F6D7011296ED91FC913097C9F227
:1052D000123FE9F02A2D4B2D612F6F701BC0D701B3
:1052E0001696ED91FC91F2CFD7011896ED91FC91B5
:1052F000EDCFD7011A96ED91FC91E8CF423F09F628
:10530000D7011C96ED91FC91309709F4BACF2A2D64
:105310004B2D62EFC70109958DCF842F807F803D93
:10532000B1F0803FC9F0803C09F0ABCFD7011E96A9
:10533000ED91FC91309709F4A4CF812F8D7F4B2DF7
:10534000612F6F70813F89F0C701099573CFD70135
:105350005096ED91FC91EECF433F51F4D701529618
:10536000ED91FC91309709F48CCF4B2D612FECCF50
:10537000413F09F086CFD7015496ED91FC91F2CFD1
:10538000842F0E940D28882359F0D7015696ED915D
:10539000FC91309709F475CF612FC70109954ACF69
:1053A000163F09F06ECFD7015896ED91FC91F1CFE1
:1053B000FF920F931F93CF93DF93EC01162F862F4D
:1053C0000E940D28882391F0FDA081E08DA300E0CC
:1053D00020E0412F61E070E0CE010E94E628FDA2AE
:1053E000DF91CF911F910F91FF900895812F0E941F
:1053F00009284DA1882309F443C0443029F01AA399
:1054000081E090E09FA38EA3812F0E94132881301A
:1054100051F08823A9F0823089F0833079F01DA201
:105420001FA21EA2DDCF8DA300E020E0412F61E08E
:1054300070E0CE010E94E6281DA2D2CF8DA3D0CF6E
:10544000103FB1F0173F59F72EA13FA1C90163E00A
:1054500070E00E942833FE01E80FF91F12A3B90182
:105460006F5F7F4F7FA36EA30CA12BA14AA1E1CF59
:1054700084E08DA31AA381E090E09FA38EA3B0CF18
:10548000442309F4ADCF2EA13FA1C90163E070E030
:105490000E942833FE01E80FF91F12A3B9016F5FC4
:1054A0007F4F7FA36EA38130910569F0029709F0C9
:1054B00097CF0CA12BA14AA1CE010E94E6288DA175
:1054C0008430C9F68DCF00E0423009F089CFF2CFA9
:1054D000CF92DF92EF92FF920F931F93CF93DF93C0
:1054E000EC01E8A1F9A1309709F009956E0188EE69
:1054F000C80ED11CC6010E94D22A10E000E0E82E9E
:10550000F12C0E151F0548F0DF91CF911F910F91DF
:10551000FF90EF90DF90CF90089560E0C6010E9469
:10552000E62A682FCE010E94D82961E0C6010E94B8
:10553000F62A0F5F1F4FE5CFFC014283748363831C
:105540001182108208951F93CF93DF93EC01162FE1
:105550000E940D2B482F298130E0C90101966A81F4
:1055600070E00E943C3358815817190641F4842F8B
:105570000E94102B80E0DF91CF911F9108958B81C5
:105580009C81280F391FF9011083898190E00196D1
:105590006A8170E00E943C338983842F0E94102B23
:1055A00081E0E9CFCF93DF93EC010E940D2B99812D
:1055B0002881921740F0C92FC21B0E94102B8C2FFC
:1055C000DF91CF910895CA819C0FF5CFFC018081B6
:1055D000860F9927991F628170E00E943C332381D6
:1055E0003481280F391FF901808108951F93CF93CB
:1055F000DF93EC01162F0E940D2B282F8881810F3D
:105600009927991F6A8170E00E943C338883822F1A
:10561000DF91CF911F910C94102B8FB7F8940895C0
:105620008FBF0895089508950F931F93CF93DF932D
:1056300000D000D000D00F92CDB7DEB78C01CE01E4
:1056400001960E94722D81110BC027960FB6F89417
:10565000DEBF0FBECDBFDF91CF911F910F91089597
:105660008A810E9413289A819D839B819E839C81BD
:105670009F8381110AC08981843079F0873069F075
:10568000863069F08530D9F681E0AE014B5F5F4F1F
:10569000682FC8010E94C228D2CF83E0F6CF82E0F3
:1056A000F4CFDF92EF92FF920F931F93CF93DF938C
:1056B00000D000D0CDB7DEB77B01142FD22E4A83A5
:1056C0002B830C83842F0E941328811129C082E030
:1056D000E816F10401F183E0E816F10439F0EA94E8
:1056E000EF2869F485E0173F21F404C087E0073F05
:1056F00009F084E08983CE0101960E946D2D0F9000
:105700000F900F900F90DF91CF911F910F91FF900D
:10571000EF90DF90089587EFD812EBCF86E0EACFC5
:1057200012951F701983E7CF0E94C1108DE595E097
:105730000E94912861E57BE28DE595E00E94DE28DC
:1057400064E17BE28DE595E00E94E22862E17BE284
:105750008DE595E00E948D2863E17BE28DE595E083
:105760000C9489289B0140914E064430C1F4FC0101
:1057700091819F709093E90050E040E064E070E018
:10578000C9010E94362E81110BC09091E80095FD51
:1057900007C09091E8009E779093E800089582E01A
:1057A000089520914E06243091F4FC0181818F7080
:1057B0008093E9009091F3008091F200892B49F0E9
:1057C0008091E8008E778093E8000C94E42F82E0CB
:1057D000089580E00895FC0180914E06843059F4CC
:1057E00091819F709093E9008091E80080FF03C051
:1057F000CF010C94D12B08959B0140914E0644306B
:1058000011F080E00895FC0196819F709093E9006B
:105810008091E80082FFF5CF8091E80085FFF1CF0D
:1058200050E040E064E070E0C9010E94852E809164
:10583000E80085FD05C08091E8008B778093E80043
:1058400081E008958091A10308950895CF93DF9397
:1058500000D00F92CDB7DEB790914E06943019F577
:1058600089837B836A8382E08093E9008FEF909144
:10587000E800815095FD06C095ED9A95F1F700007E
:105880008111F5CF8091E80085FF0DC050E040E028
:1058900063E070E0CE0101960E94362E8091E80010
:1058A0008E778093E8000F900F900F90DF91CF914B
:1058B0000895BC0184E00C94262CBC0183E00C9478
:1058C000262CCF93DF93EC0181E08093E9008FEFEA
:1058D0009091E800815095FD06C095ED9A95F1F7FD
:1058E00000008111F5CF8091E80085FF14C050E0E1
:1058F00040E068E070E0CE010E94362E8091E80022
:105900008E778093E80088E0FE01A9E9B3E001907A
:105910000D928A95E1F7DF91CF91089580914D0620
:10592000811109C00E9415300E9472308091E200FE
:1059300084608093E200089510924D0608950895C2
:105940000895089542E061EC81E00E94912F42E2C7
:1059500061EC82E00E94912F42E361E883E00E94C3
:10596000912F42E361E884E00C94912F80915006DE
:10597000833009F45FC030F48130C1F1823009F422
:105980009BC008958A3009F487C08B3009F46DC03C
:10599000893009F04EC080914F06813209F049C02C
:1059A0008091530690915406029708F042C080916E
:1059B000E800877F8093E8008091E80082FF35C08F
:1059C0009091F3008091F200029729F48091F10008
:1059D0008B7F813021F48091F1008093A10380912D
:1059E000E8008B778093E8000C94C52F80914F06D8
:1059F000813AF9F48091E800877F8093E8008091F4
:105A0000530690915406892B61F468E089E993E08C
:105A100070E00E94D42E8091E8008B778093E8009C
:105A2000089560E090E080E0F3CF80914E06811110
:105A3000C3CF089580914F06813AD9F780915306DC
:105A400090915406892BA9F78091E800877F809375
:105A5000E8008091E80080FFFCCF80913F018093B7
:105A6000F1008091E8008E77BDCF80914F068132A2
:105A700001F78091530690915406892BD1F68091BD
:105A8000E800877F8093E8000E94C52F809151062F
:105A900080933F010C94A32080914F06813249F6F8
:105AA0008091E800877F8093E8000E94C52F809155
:105AB00052068093A203089580914F06813A09F01F
:105AC000B8CF8091E800877F8093E8008091E8005C
:105AD00080FFFCCF8091A203C2CFBC0189E291E09C
